{
  "contractName": "ClientContract",
  "abi": [
    {
      "inputs": [
        {
          "internalType": "bytes8",
          "name": "_version",
          "type": "bytes8"
        },
        {
          "internalType": "address",
          "name": "_customerAddress",
          "type": "address"
        },
        {
          "internalType": "address",
          "name": "_prevContract",
          "type": "address"
        },
        {
          "internalType": "uint64",
          "name": "_prevContractDate",
          "type": "uint64"
        }
      ],
      "stateMutability": "nonpayable",
      "type": "constructor"
    },
    {
      "anonymous": false,
      "inputs": [
        {
          "indexed": false,
          "internalType": "uint256",
          "name": "service_id",
          "type": "uint256"
        },
        {
          "indexed": false,
          "internalType": "bytes32",
          "name": "_alert",
          "type": "bytes32"
        }
      ],
      "name": "AlerteSend",
      "type": "event"
    },
    {
      "anonymous": false,
      "inputs": [
        {
          "indexed": true,
          "internalType": "address",
          "name": "previousOwner",
          "type": "address"
        },
        {
          "indexed": true,
          "internalType": "address",
          "name": "newOwner",
          "type": "address"
        }
      ],
      "name": "OwnershipTransferred",
      "type": "event"
    },
    {
      "inputs": [],
      "name": "owner",
      "outputs": [
        {
          "internalType": "address",
          "name": "",
          "type": "address"
        }
      ],
      "stateMutability": "view",
      "type": "function",
      "constant": true
    },
    {
      "inputs": [],
      "name": "renounceOwnership",
      "outputs": [],
      "stateMutability": "nonpayable",
      "type": "function"
    },
    {
      "inputs": [
        {
          "internalType": "address",
          "name": "newOwner",
          "type": "address"
        }
      ],
      "name": "transferOwnership",
      "outputs": [],
      "stateMutability": "nonpayable",
      "type": "function"
    },
    {
      "inputs": [
        {
          "internalType": "bytes8",
          "name": "_version",
          "type": "bytes8"
        },
        {
          "internalType": "string",
          "name": "_description",
          "type": "string"
        },
        {
          "internalType": "bytes8",
          "name": "_measureType",
          "type": "bytes8"
        },
        {
          "internalType": "bytes1",
          "name": "_timeCode",
          "type": "bytes1"
        },
        {
          "internalType": "uint8",
          "name": "_nbTime",
          "type": "uint8"
        }
      ],
      "name": "addService",
      "outputs": [],
      "stateMutability": "nonpayable",
      "type": "function"
    },
    {
      "inputs": [
        {
          "internalType": "uint256",
          "name": "_service_id",
          "type": "uint256"
        }
      ],
      "name": "getService",
      "outputs": [
        {
          "components": [
            {
              "internalType": "bytes8",
              "name": "version",
              "type": "bytes8"
            },
            {
              "internalType": "bytes8",
              "name": "measureType",
              "type": "bytes8"
            },
            {
              "internalType": "bytes1",
              "name": "timeCode",
              "type": "bytes1"
            },
            {
              "internalType": "uint8",
              "name": "nbTime",
              "type": "uint8"
            },
            {
              "internalType": "bool",
              "name": "isActive",
              "type": "bool"
            },
            {
              "internalType": "string",
              "name": "description",
              "type": "string"
            },
            {
              "internalType": "address",
              "name": "bridgeAddress",
              "type": "address"
            },
            {
              "internalType": "address",
              "name": "techMasterAddress",
              "type": "address"
            },
            {
              "components": [
                {
                  "internalType": "uint256",
                  "name": "_value",
                  "type": "uint256"
                }
              ],
              "internalType": "struct Counters.Counter",
              "name": "measureIdCounter",
              "type": "tuple"
            },
            {
              "components": [
                {
                  "internalType": "uint256",
                  "name": "_value",
                  "type": "uint256"
                }
              ],
              "internalType": "struct Counters.Counter",
              "name": "alertIdCounter",
              "type": "tuple"
            }
          ],
          "internalType": "struct ClientContract.Service",
          "name": "",
          "type": "tuple"
        }
      ],
      "stateMutability": "view",
      "type": "function",
      "constant": true
    },
    {
      "inputs": [],
      "name": "getServices",
      "outputs": [
        {
          "components": [
            {
              "internalType": "bytes8",
              "name": "version",
              "type": "bytes8"
            },
            {
              "internalType": "bytes8",
              "name": "measureType",
              "type": "bytes8"
            },
            {
              "internalType": "bytes1",
              "name": "timeCode",
              "type": "bytes1"
            },
            {
              "internalType": "uint8",
              "name": "nbTime",
              "type": "uint8"
            },
            {
              "internalType": "bool",
              "name": "isActive",
              "type": "bool"
            },
            {
              "internalType": "string",
              "name": "description",
              "type": "string"
            },
            {
              "internalType": "address",
              "name": "bridgeAddress",
              "type": "address"
            },
            {
              "internalType": "address",
              "name": "techMasterAddress",
              "type": "address"
            },
            {
              "components": [
                {
                  "internalType": "uint256",
                  "name": "_value",
                  "type": "uint256"
                }
              ],
              "internalType": "struct Counters.Counter",
              "name": "measureIdCounter",
              "type": "tuple"
            },
            {
              "components": [
                {
                  "internalType": "uint256",
                  "name": "_value",
                  "type": "uint256"
                }
              ],
              "internalType": "struct Counters.Counter",
              "name": "alertIdCounter",
              "type": "tuple"
            }
          ],
          "internalType": "struct ClientContract.Service[]",
          "name": "",
          "type": "tuple[]"
        }
      ],
      "stateMutability": "view",
      "type": "function",
      "constant": true
    },
    {
      "inputs": [
        {
          "internalType": "uint256",
          "name": "_serviceId",
          "type": "uint256"
        },
        {
          "internalType": "bytes32",
          "name": "_measureHeader",
          "type": "bytes32"
        },
        {
          "internalType": "bytes32",
          "name": "_measurebody",
          "type": "bytes32"
        }
      ],
      "name": "addMeasure",
      "outputs": [],
      "stateMutability": "nonpayable",
      "type": "function"
    },
    {
      "inputs": [
        {
          "internalType": "uint256",
          "name": "_serviceId",
          "type": "uint256"
        },
        {
          "internalType": "bytes32",
          "name": "_alerteBody",
          "type": "bytes32"
        }
      ],
      "name": "addAlert",
      "outputs": [],
      "stateMutability": "nonpayable",
      "type": "function"
    },
    {
      "inputs": [
        {
          "internalType": "uint256",
          "name": "_serviceId",
          "type": "uint256"
        }
      ],
      "name": "getAlerts",
      "outputs": [
        {
          "internalType": "bytes32[]",
          "name": "",
          "type": "bytes32[]"
        }
      ],
      "stateMutability": "view",
      "type": "function",
      "constant": true
    },
    {
      "inputs": [
        {
          "internalType": "uint256",
          "name": "_serviceId",
          "type": "uint256"
        }
      ],
      "name": "getMeasures",
      "outputs": [
        {
          "internalType": "bytes32[]",
          "name": "",
          "type": "bytes32[]"
        },
        {
          "internalType": "bytes32[]",
          "name": "",
          "type": "bytes32[]"
        }
      ],
      "stateMutability": "view",
      "type": "function",
      "constant": true
    },
    {
      "inputs": [
        {
          "internalType": "uint256",
          "name": "_serviceId",
          "type": "uint256"
        },
        {
          "internalType": "uint256",
          "name": "_measureId",
          "type": "uint256"
        }
      ],
      "name": "getMeasuresById",
      "outputs": [
        {
          "internalType": "bytes32",
          "name": "",
          "type": "bytes32"
        },
        {
          "internalType": "bytes32",
          "name": "",
          "type": "bytes32"
        }
      ],
      "stateMutability": "view",
      "type": "function",
      "constant": true
    }
  ],
  "bytecode": "0x60806040523480156200001157600080fd5b50604051620025c1380380620025c183398181016040528101906200003791906200033e565b600062000049620002f160201b60201c565b9050806000806101000a81548173ffffffffffffffffffffffffffffffffffffffff021916908373ffffffffffffffffffffffffffffffffffffffff1602179055508073ffffffffffffffffffffffffffffffffffffffff16600073ffffffffffffffffffffffffffffffffffffffff167f8be0079c531659141344cd1fd0a4f28419497f9722a3daafe3b4186f6b6457e060405160405180910390a3506040518060c001604052808577ffffffffffffffffffffffffffffffffffffffffffffffff191681526020018267ffffffffffffffff168152602001600067ffffffffffffffff1681526020018473ffffffffffffffffffffffffffffffffffffffff1681526020018373ffffffffffffffffffffffffffffffffffffffff168152602001600073ffffffffffffffffffffffffffffffffffffffff16815250600160008201518160000160006101000a81548167ffffffffffffffff021916908360c01c021790555060208201518160000160086101000a81548167ffffffffffffffff021916908367ffffffffffffffff16021790555060408201518160000160106101000a81548167ffffffffffffffff021916908367ffffffffffffffff16021790555060608201518160010160006101000a81548173ffffffffffffffffffffffffffffffffffffffff021916908373ffffffffffffffffffffffffffffffffffffffff16021790555060808201518160020160006101000a81548173ffffffffffffffffffffffffffffffffffffffff021916908373ffffffffffffffffffffffffffffffffffffffff16021790555060a08201518160030160006101000a81548173ffffffffffffffffffffffffffffffffffffffff021916908373ffffffffffffffffffffffffffffffffffffffff160217905550905050505050506200046c565b600033905090565b6000815190506200030a816200041e565b92915050565b600081519050620003218162000438565b92915050565b600081519050620003388162000452565b92915050565b600080600080608085870312156200035557600080fd5b6000620003658782880162000310565b94505060206200037887828801620002f9565b93505060406200038b87828801620002f9565b92505060606200039e8782880162000327565b91505092959194509250565b6000620003b782620003ea565b9050919050565b60007fffffffffffffffff00000000000000000000000000000000000000000000000082169050919050565b600073ffffffffffffffffffffffffffffffffffffffff82169050919050565b600067ffffffffffffffff82169050919050565b6200042981620003aa565b81146200043557600080fd5b50565b6200044381620003be565b81146200044f57600080fd5b50565b6200045d816200040a565b81146200046957600080fd5b50565b612145806200047c6000396000f3fe608060405234801561001057600080fd5b50600436106100a95760003560e01c80638fab3766116100715780638fab376614610155578063ae7157ab14610186578063b2e733bf146101a2578063da6cd376146101be578063ef0e239b146101da578063f2fde38b1461020a576100a9565b806317842b28146100ae5780632669167a146100de578063715018a61461010f57806375417851146101195780638da5cb5b14610137575b600080fd5b6100c860048036038101906100c391906116ad565b610226565b6040516100d59190611c7c565b60405180910390f35b6100f860048036038101906100f39190611761565b610291565b604051610106929190611cf7565b60405180910390f35b61011761034b565b005b610121610485565b60405161012e9190611cd5565b60405180910390f35b61013f61078c565b60405161014c9190611c61565b60405180910390f35b61016f600480360381019061016a91906116ad565b6107b5565b60405161017d929190611c9e565b60405180910390f35b6101a0600480360381019061019b91906116d6565b61088b565b005b6101bc60048036038101906101b79190611712565b610a38565b005b6101d860048036038101906101d3919061161e565b610be7565b005b6101f460048036038101906101ef91906116ad565b610e92565b6040516102019190611da0565b60405180910390f35b610224600480360381019061021f91906115f5565b61119c565b005b6060600b600083815260200190815260200160002080548060200260200160405190810160405280929190818152602001828054801561028557602002820191906000526020600020905b815481526020019060010190808311610271575b50505050509050919050565b6000806009600085815260200190815260200160002083815481106102df577f4e487b7100000000000000000000000000000000000000000000000000000000600052603260045260246000fd5b9060005260206000200154600a60008681526020019081526020016000208481548110610335577f4e487b7100000000000000000000000000000000000000000000000000000000600052603260045260246000fd5b9060005260206000200154915091509250929050565b610353611345565b73ffffffffffffffffffffffffffffffffffffffff1661037161078c565b73ffffffffffffffffffffffffffffffffffffffff16146103c7576040517f08c379a00000000000000000000000000000000000000000000000000000000081526004016103be90611d40565b60405180910390fd5b600073ffffffffffffffffffffffffffffffffffffffff1660008054906101000a900473ffffffffffffffffffffffffffffffffffffffff1673ffffffffffffffffffffffffffffffffffffffff167f8be0079c531659141344cd1fd0a4f28419497f9722a3daafe3b4186f6b6457e060405160405180910390a360008060006101000a81548173ffffffffffffffffffffffffffffffffffffffff021916908373ffffffffffffffffffffffffffffffffffffffff160217905550565b60606005805480602002602001604051908101604052809291908181526020016000905b828210156107835783829060005260206000209060060201604051806101400160405290816000820160009054906101000a900460c01b77ffffffffffffffffffffffffffffffffffffffffffffffff191677ffffffffffffffffffffffffffffffffffffffffffffffff191681526020016000820160089054906101000a900460c01b77ffffffffffffffffffffffffffffffffffffffffffffffff191677ffffffffffffffffffffffffffffffffffffffffffffffff191681526020016000820160109054906101000a900460f81b7effffffffffffffffffffffffffffffffffffffffffffffffffffffffffffff19167effffffffffffffffffffffffffffffffffffffffffffffffffffffffffffff191681526020016000820160119054906101000a900460ff1660ff1660ff1681526020016000820160129054906101000a900460ff1615151515815260200160018201805461060a90611fe4565b80601f016020809104026020016040519081016040528092919081815260200182805461063690611fe4565b80156106835780601f1061065857610100808354040283529160200191610683565b820191906000526020600020905b81548152906001019060200180831161066657829003601f168201915b505050505081526020016002820160009054906101000a900473ffffffffffffffffffffffffffffffffffffffff1673ffffffffffffffffffffffffffffffffffffffff1673ffffffffffffffffffffffffffffffffffffffff1681526020016003820160009054906101000a900473ffffffffffffffffffffffffffffffffffffffff1673ffffffffffffffffffffffffffffffffffffffff1673ffffffffffffffffffffffffffffffffffffffff1681526020016004820160405180602001604052908160008201548152505081526020016005820160405180602001604052908160008201548152505081525050815260200190600101906104a9565b50505050905090565b60008060009054906101000a900473ffffffffffffffffffffffffffffffffffffffff16905090565b60608060096000848152602001908152602001600020600a60008581526020019081526020016000208180548060200260200160405190810160405280929190818152602001828054801561082957602002820191906000526020600020905b815481526020019060010190808311610815575b505050505091508080548060200260200160405190810160405280929190818152602001828054801561087b57602002820191906000526020600020905b815481526020019060010190808311610867575b5050505050905091509150915091565b610895600761134d565b82106108d6576040517f08c379a00000000000000000000000000000000000000000000000000000000081526004016108cd90611d60565b60405180910390fd5b60058281548110610910577f4e487b7100000000000000000000000000000000000000000000000000000000600052603260045260246000fd5b906000526020600020906006020160000160129054906101000a900460ff1661096e576040517f08c379a000000000000000000000000000000000000000000000000000000000815260040161096590611d80565b60405180910390fd5b600b60008381526020019081526020016000208190806001815401808255809150506001900390600052602060002001600090919091909150556109fb600583815481106109e5577f4e487b7100000000000000000000000000000000000000000000000000000000600052603260045260246000fd5b906000526020600020906006020160050161135b565b7f73748a6236bcc28b8b71e02d049360765136d6f90423a5070a18fb6f094edd048282604051610a2c929190611dc2565b60405180910390a15050565b610a42600761134d565b8310610a83576040517f08c379a0000000000000000000000000000000000000000000000000000000008152600401610a7a90611d60565b60405180910390fd5b60058381548110610abd577f4e487b7100000000000000000000000000000000000000000000000000000000600052603260045260246000fd5b906000526020600020906006020160000160129054906101000a900460ff16610b1b576040517f08c379a0000000000000000000000000000000000000000000000000000000008152600401610b1290611d80565b60405180910390fd5b60096000848152602001908152602001600020829080600181540180825580915050600190039060005260206000200160009091909190915055600a6000848152602001908152602001600020819080600181540180825580915050600190039060005260206000200160009091909190915055610be260058481548110610bcc577f4e487b7100000000000000000000000000000000000000000000000000000000600052603260045260246000fd5b906000526020600020906006020160040161135b565b505050565b610bef611371565b610bf7611371565b60056040518061014001604052808977ffffffffffffffffffffffffffffffffffffffffffffffff191681526020018777ffffffffffffffffffffffffffffffffffffffffffffffff19168152602001867effffffffffffffffffffffffffffffffffffffffffffffffffffffffffffff191681526020018560ff168152602001600115158152602001888152602001600073ffffffffffffffffffffffffffffffffffffffff168152602001600073ffffffffffffffffffffffffffffffffffffffff16815260200184815260200183815250908060018154018082558091505060019003906000526020600020906006020160009091909190915060008201518160000160006101000a81548167ffffffffffffffff021916908360c01c021790555060208201518160000160086101000a81548167ffffffffffffffff021916908360c01c021790555060408201518160000160106101000a81548160ff021916908360f81c021790555060608201518160000160116101000a81548160ff021916908360ff16021790555060808201518160000160126101000a81548160ff02191690831515021790555060a0820151816001019080519060200190610dc2929190611384565b5060c08201518160020160006101000a81548173ffffffffffffffffffffffffffffffffffffffff021916908373ffffffffffffffffffffffffffffffffffffffff16021790555060e08201518160030160006101000a81548173ffffffffffffffffffffffffffffffffffffffff021916908373ffffffffffffffffffffffffffffffffffffffff16021790555061010082015181600401600082015181600001555050610120820151816005016000820151816000015550505050610e89600761135b565b50505050505050565b610e9a61140a565b60058281548110610ed4577f4e487b7100000000000000000000000000000000000000000000000000000000600052603260045260246000fd5b9060005260206000209060060201604051806101400160405290816000820160009054906101000a900460c01b77ffffffffffffffffffffffffffffffffffffffffffffffff191677ffffffffffffffffffffffffffffffffffffffffffffffff191681526020016000820160089054906101000a900460c01b77ffffffffffffffffffffffffffffffffffffffffffffffff191677ffffffffffffffffffffffffffffffffffffffffffffffff191681526020016000820160109054906101000a900460f81b7effffffffffffffffffffffffffffffffffffffffffffffffffffffffffffff19167effffffffffffffffffffffffffffffffffffffffffffffffffffffffffffff191681526020016000820160119054906101000a900460ff1660ff1660ff1681526020016000820160129054906101000a900460ff1615151515815260200160018201805461102b90611fe4565b80601f016020809104026020016040519081016040528092919081815260200182805461105790611fe4565b80156110a45780601f10611079576101008083540402835291602001916110a4565b820191906000526020600020905b81548152906001019060200180831161108757829003601f168201915b505050505081526020016002820160009054906101000a900473ffffffffffffffffffffffffffffffffffffffff1673ffffffffffffffffffffffffffffffffffffffff1673ffffffffffffffffffffffffffffffffffffffff1681526020016003820160009054906101000a900473ffffffffffffffffffffffffffffffffffffffff1673ffffffffffffffffffffffffffffffffffffffff1673ffffffffffffffffffffffffffffffffffffffff16815260200160048201604051806020016040529081600082015481525050815260200160058201604051806020016040529081600082015481525050815250509050919050565b6111a4611345565b73ffffffffffffffffffffffffffffffffffffffff166111c261078c565b73ffffffffffffffffffffffffffffffffffffffff1614611218576040517f08c379a000000000000000000000000000000000000000000000000000000000815260040161120f90611d40565b60405180910390fd5b600073ffffffffffffffffffffffffffffffffffffffff168173ffffffffffffffffffffffffffffffffffffffff161415611288576040517f08c379a000000000000000000000000000000000000000000000000000000000815260040161127f90611d20565b60405180910390fd5b8073ffffffffffffffffffffffffffffffffffffffff1660008054906101000a900473ffffffffffffffffffffffffffffffffffffffff1673ffffffffffffffffffffffffffffffffffffffff167f8be0079c531659141344cd1fd0a4f28419497f9722a3daafe3b4186f6b6457e060405160405180910390a3806000806101000a81548173ffffffffffffffffffffffffffffffffffffffff021916908373ffffffffffffffffffffffffffffffffffffffff16021790555050565b600033905090565b600081600001549050919050565b6001816000016000828254019250508190555050565b6040518060200160405280600081525090565b82805461139090611fe4565b90600052602060002090601f0160209004810192826113b257600085556113f9565b82601f106113cb57805160ff19168380011785556113f9565b828001600101855582156113f9579182015b828111156113f85782518255916020019190600101906113dd565b5b50905061140691906114f2565b5090565b604051806101400160405280600077ffffffffffffffffffffffffffffffffffffffffffffffff19168152602001600077ffffffffffffffffffffffffffffffffffffffffffffffff1916815260200160007effffffffffffffffffffffffffffffffffffffffffffffffffffffffffffff19168152602001600060ff16815260200160001515815260200160608152602001600073ffffffffffffffffffffffffffffffffffffffff168152602001600073ffffffffffffffffffffffffffffffffffffffff1681526020016114df611371565b81526020016114ec611371565b81525090565b5b8082111561150b5760008160009055506001016114f3565b5090565b600061152261151d84611e1c565b611deb565b90508281526020810184848401111561153a57600080fd5b611545848285611fa2565b509392505050565b60008135905061155c81612085565b92915050565b6000813590506115718161209c565b92915050565b600081359050611586816120b3565b92915050565b60008135905061159b816120ca565b92915050565b600082601f8301126115b257600080fd5b81356115c284826020860161150f565b91505092915050565b6000813590506115da816120e1565b92915050565b6000813590506115ef816120f8565b92915050565b60006020828403121561160757600080fd5b60006116158482850161154d565b91505092915050565b600080600080600060a0868803121561163657600080fd5b60006116448882890161158c565b955050602086013567ffffffffffffffff81111561166157600080fd5b61166d888289016115a1565b945050604061167e8882890161158c565b935050606061168f88828901611562565b92505060806116a0888289016115e0565b9150509295509295909350565b6000602082840312156116bf57600080fd5b60006116cd848285016115cb565b91505092915050565b600080604083850312156116e957600080fd5b60006116f7858286016115cb565b925050602061170885828601611577565b9150509250929050565b60008060006060848603121561172757600080fd5b6000611735868287016115cb565b935050602061174686828701611577565b925050604061175786828701611577565b9150509250925092565b6000806040838503121561177457600080fd5b6000611782858286016115cb565b9250506020611793858286016115cb565b9150509250929050565b60006117a983836118d8565b60208301905092915050565b60006117c18383611a80565b905092915050565b6117d281611eeb565b82525050565b6117e181611eeb565b82525050565b60006117f282611e6c565b6117fc8185611ea7565b935061180783611e4c565b8060005b8381101561183857815161181f888261179d565b975061182a83611e8d565b92505060018101905061180b565b5085935050505092915050565b600061185082611e77565b61185a8185611eb8565b93508360208202850161186c85611e5c565b8060005b858110156118a8578484038952815161188985826117b5565b945061189483611e9a565b925060208a01995050600181019050611870565b50829750879550505050505092915050565b6118c381611efd565b82525050565b6118d281611f09565b82525050565b6118e181611f35565b82525050565b6118f081611f35565b82525050565b6118ff81611f3f565b82525050565b600061191082611e82565b61191a8185611ec9565b935061192a818560208601611fb1565b61193381612074565b840191505092915050565b600061194b602683611eda565b91507f4f776e61626c653a206e6577206f776e657220697320746865207a65726f206160008301527f64647265737300000000000000000000000000000000000000000000000000006020830152604082019050919050565b60006119b1602083611eda565b91507f4f776e61626c653a2063616c6c6572206973206e6f7420746865206f776e65726000830152602082019050919050565b60006119f1601183611eda565b91507f53657276696365206e6f742065786973740000000000000000000000000000006000830152602082019050919050565b6000611a31601083611eda565b91507f53657276696365206f6666206c696e65000000000000000000000000000000006000830152602082019050919050565b602082016000820151611a7a6000850182611c34565b50505050565b600061014083016000830151611a9960008601826118f6565b506020830151611aac60208601826118f6565b506040830151611abf60408601826118c9565b506060830151611ad26060860182611c52565b506080830151611ae560808601826118ba565b5060a083015184820360a0860152611afd8282611905565b91505060c0830151611b1260c08601826117c9565b5060e0830151611b2560e08601826117c9565b50610100830151611b3a610100860182611a64565b50610120830151611b4f610120860182611a64565b508091505092915050565b600061014083016000830151611b7360008601826118f6565b506020830151611b8660208601826118f6565b506040830151611b9960408601826118c9565b506060830151611bac6060860182611c52565b506080830151611bbf60808601826118ba565b5060a083015184820360a0860152611bd78282611905565b91505060c0830151611bec60c08601826117c9565b5060e0830151611bff60e08601826117c9565b50610100830151611c14610100860182611a64565b50610120830151611c29610120860182611a64565b508091505092915050565b611c3d81611f8b565b82525050565b611c4c81611f8b565b82525050565b611c5b81611f95565b82525050565b6000602082019050611c7660008301846117d8565b92915050565b60006020820190508181036000830152611c9681846117e7565b905092915050565b60006040820190508181036000830152611cb881856117e7565b90508181036020830152611ccc81846117e7565b90509392505050565b60006020820190508181036000830152611cef8184611845565b905092915050565b6000604082019050611d0c60008301856118e7565b611d1960208301846118e7565b9392505050565b60006020820190508181036000830152611d398161193e565b9050919050565b60006020820190508181036000830152611d59816119a4565b9050919050565b60006020820190508181036000830152611d79816119e4565b9050919050565b60006020820190508181036000830152611d9981611a24565b9050919050565b60006020820190508181036000830152611dba8184611b5a565b905092915050565b6000604082019050611dd76000830185611c43565b611de460208301846118e7565b9392505050565b6000604051905081810181811067ffffffffffffffff82111715611e1257611e11612045565b5b8060405250919050565b600067ffffffffffffffff821115611e3757611e36612045565b5b601f19601f8301169050602081019050919050565b6000819050602082019050919050565b6000819050602082019050919050565b600081519050919050565b600081519050919050565b600081519050919050565b6000602082019050919050565b6000602082019050919050565b600082825260208201905092915050565b600082825260208201905092915050565b600082825260208201905092915050565b600082825260208201905092915050565b6000611ef682611f6b565b9050919050565b60008115159050919050565b60007fff0000000000000000000000000000000000000000000000000000000000000082169050919050565b6000819050919050565b60007fffffffffffffffff00000000000000000000000000000000000000000000000082169050919050565b600073ffffffffffffffffffffffffffffffffffffffff82169050919050565b6000819050919050565b600060ff82169050919050565b82818337600083830152505050565b60005b83811015611fcf578082015181840152602081019050611fb4565b83811115611fde576000848401525b50505050565b60006002820490506001821680611ffc57607f821691505b602082108114156120105761200f612016565b5b50919050565b7f4e487b7100000000000000000000000000000000000000000000000000000000600052602260045260246000fd5b7f4e487b7100000000000000000000000000000000000000000000000000000000600052604160045260246000fd5b6000601f19601f8301169050919050565b61208e81611eeb565b811461209957600080fd5b50565b6120a581611f09565b81146120b057600080fd5b50565b6120bc81611f35565b81146120c757600080fd5b50565b6120d381611f3f565b81146120de57600080fd5b50565b6120ea81611f8b565b81146120f557600080fd5b50565b61210181611f95565b811461210c57600080fd5b5056fea2646970667358221220a451e662df9be225192210c3278d631cc4d72038ec9aacb60954bfe600b884f264736f6c63430008000033",
  "immutableReferences": {},
  "source": "// SPDX-License-Identifier: MIT\npragma solidity 0.8.0;\n\nimport \"../node_modules/@openzeppelin/contracts/utils/Counters.sol\";\nimport \"../node_modules/@openzeppelin/contracts/access/Ownable.sol\";\n\ncontract ClientContract is Ownable {\n    using Counters for Counters.Counter;\n    \n    /**\n    * @dev Contract Configuration\n    */\n    struct Config {\n        bytes8 version;\n        uint64 prevContractDate;\n        uint64 nextContractDate;\n        address customerAddress;\n        address prevContract;\n        address nextContract;\n    }\n    \n    // struct mesure en-tte (32) { \n    //   //V0.1     XX.XX.XX    00.01.00\n    //   Version : bytes8;\n    //   Date : YYYYmmddHHii : byte12\n    //   Code de mesure : bytes8 - CODE : 4 chiffre/lettre pour la nature physique - 4 chiffre/lettre pour la version\n    //   Code temporel : bytes1 (Horaire, Journalier) Y m d H i\n    //   Nb temporel : bytes3 \n    // }\n    \n    // struct mesure donne (32) { \n    //   Valeur Max : bytes8\n    //   Valeur Moyenne : bytes8\n    //   Valeur Mdiane : bytes8\n    //   Valeur Min : bytes8\n    // }\n\n    // struct alert donne (32) { \n    //   Version : bytes8\n    //   IdAlert : bytes4    \n    //   Date : YYYYmmddHHii : byte12\n    //   Valeur alerte : bytes8\n    // }\n    \n    struct Service {\n        bytes8 version;\n        bytes8 measureType;\n        bytes1 timeCode;\n        uint8 nbTime;\n        bool isActive;\n        string description;\n        address bridgeAddress;\n        address techMasterAddress;\n\n        Counters.Counter measureIdCounter;\n        Counters.Counter alertIdCounter;        \n    }\n\n    struct AlertConfig {\n        bytes8 version;        \n        address legislatorAddress;\n        uint64 dateOn;\n        uint64 dateOff;\n        bytes8 codeAlerte;\n        bool isActive;\n    }\n    \n    event AlerteSend(uint service_id, bytes32 _alert);        \n\n    Config private _myConfig;\n    Service[] private _services;\n    mapping(uint => AlertConfig[]) private _serviceAlertConfig;    \n\n    Counters.Counter private _serviceIdCounter;\n    Counters.Counter private _alertConfigIdCounter;\n\n    mapping(uint => bytes32[]) private _serviceHeaderMeasures;\n    mapping(uint => bytes32[]) private _serviceBodyMeasures;\n    mapping(uint => bytes32[]) private _serviceAlertes;    \n\n    mapping(uint => bytes6[]) private _serviceMacIOT;\n \n    constructor (bytes8 _version, address _customerAddress, address _prevContract, uint64 _prevContractDate) {\n        _myConfig = Config(\n            _version,\n            _prevContractDate,\n            0,\n            _customerAddress,\n            _prevContract,\n            address(0)\n        );  \n    }\n\n    function addService(\n        bytes8 _version,  \n        string memory _description,\n        bytes8 _measureType,          \n        bytes1 _timeCode,\n        uint8 _nbTime) external{\n      \n        Counters.Counter memory measureIdCounter;\n        Counters.Counter memory alertIdCounter;\n\n        _services.push(Service(\n        _version, \n        _measureType,  \n        _timeCode,    \n        _nbTime,   \n        true,                        \n        _description, \n        address(0),\n        address(0),                \n        measureIdCounter,\n        alertIdCounter));\n\n        _serviceIdCounter.increment();\n    }  \n    \n    function getService(\n        uint _service_id) external view returns(Service memory\n    ){   \n        return (\n            _services[_service_id]            \n        );\n    }\n\n    function getServices() external view returns(\n            Service[] memory\n            ){     \n        return (_services);\n    }\n\n    function addMeasure(\n        uint _serviceId,\n        bytes32 _measureHeader,\n        bytes32 _measurebody) external {\n            \n        require(_serviceId < _serviceIdCounter.current(), \"Service not exist\");\n        require(_services[_serviceId].isActive, \"Service off line\"); \n        \n        _serviceHeaderMeasures[_serviceId].push(_measureHeader);\n        _serviceBodyMeasures[_serviceId].push(_measurebody);\n        \n        _services[_serviceId].measureIdCounter.increment();\n    }\n\n    function addAlert(\n        uint _serviceId,\n        bytes32 _alerteBody) external {\n            \n        require(_serviceId < _serviceIdCounter.current(), \"Service not exist\");\n        require(_services[_serviceId].isActive, \"Service off line\"); \n        \n        _serviceAlertes[_serviceId].push(_alerteBody);\n        \n        _services[_serviceId].alertIdCounter.increment();\n\n        emit AlerteSend(_serviceId, _alerteBody);\n    }\n\n    function getAlerts(\n        uint _serviceId) external view returns(\n            bytes32[] memory){\n            \n        return (_serviceAlertes[_serviceId]);        \n    }\n  \n    function getMeasures(\n        uint _serviceId) external view returns(\n            bytes32[] memory,\n            bytes32[] memory){\n              \n        return (_serviceHeaderMeasures[_serviceId], _serviceBodyMeasures[_serviceId]);\n    }\n    \n    function getMeasuresById(\n        uint _serviceId,\n        uint _measureId) external view returns(\n            bytes32,\n            bytes32){\n              \n        return (_serviceHeaderMeasures[_serviceId][_measureId], _serviceBodyMeasures[_serviceId][_measureId]);\n    }  \n\n}\n",
  "sourcePath": "C:/Users/danie/Desktop/Solidity/Projet final/eco-capt/contracts/ClientContract.sol",
  "compiler": {
    "name": "solc",
    "version": "0.8.0+commit.c7dfd78e.Emscripten.clang"
  },
  "schemaVersion": "3.3.4",
  "updatedAt": "2021-04-07T22:25:16.665Z",
  "networkType": "ethereum",
  "devdoc": {
    "kind": "dev",
    "methods": {
      "owner()": {
        "details": "Returns the address of the current owner."
      },
      "renounceOwnership()": {
        "details": "Leaves the contract without owner. It will not be possible to call `onlyOwner` functions anymore. Can only be called by the current owner. NOTE: Renouncing ownership will leave the contract without an owner, thereby removing any functionality that is only available to the owner."
      },
      "transferOwnership(address)": {
        "details": "Transfers ownership of the contract to a new account (`newOwner`). Can only be called by the current owner."
      }
    },
    "version": 1
  },
  "userdoc": {
    "kind": "user",
    "methods": {},
    "version": 1
  }
}