{
  "contractName": "ClientContract",
  "abi": [
    {
      "inputs": [
        {
          "internalType": "bytes8",
          "name": "_version",
          "type": "bytes8"
        },
        {
          "internalType": "address",
          "name": "_customerAddress",
          "type": "address"
        },
        {
          "internalType": "address",
          "name": "_prevContract",
          "type": "address"
        },
        {
          "internalType": "uint64",
          "name": "_prevContractDate",
          "type": "uint64"
        }
      ],
      "stateMutability": "nonpayable",
      "type": "constructor"
    },
    {
      "anonymous": false,
      "inputs": [
        {
          "indexed": false,
          "internalType": "uint256",
          "name": "_service_id",
          "type": "uint256"
        },
        {
          "indexed": false,
          "internalType": "bytes32",
          "name": "_alert",
          "type": "bytes32"
        },
        {
          "indexed": false,
          "internalType": "address",
          "name": "_author",
          "type": "address"
        }
      ],
      "name": "AlertReceive",
      "type": "event"
    },
    {
      "anonymous": false,
      "inputs": [
        {
          "indexed": false,
          "internalType": "string",
          "name": "message",
          "type": "string"
        },
        {
          "indexed": false,
          "internalType": "address",
          "name": "_author",
          "type": "address"
        }
      ],
      "name": "ContractUpdate",
      "type": "event"
    },
    {
      "anonymous": false,
      "inputs": [
        {
          "indexed": false,
          "internalType": "uint256",
          "name": "_service_id",
          "type": "uint256"
        },
        {
          "indexed": false,
          "internalType": "bytes32",
          "name": "_header",
          "type": "bytes32"
        },
        {
          "indexed": false,
          "internalType": "bytes32",
          "name": "_body",
          "type": "bytes32"
        },
        {
          "indexed": false,
          "internalType": "address",
          "name": "_author",
          "type": "address"
        }
      ],
      "name": "MeasureReceive",
      "type": "event"
    },
    {
      "anonymous": false,
      "inputs": [
        {
          "indexed": true,
          "internalType": "address",
          "name": "previousOwner",
          "type": "address"
        },
        {
          "indexed": true,
          "internalType": "address",
          "name": "newOwner",
          "type": "address"
        }
      ],
      "name": "OwnershipTransferred",
      "type": "event"
    },
    {
      "anonymous": false,
      "inputs": [
        {
          "indexed": false,
          "internalType": "uint256",
          "name": "_service_id",
          "type": "uint256"
        },
        {
          "indexed": false,
          "internalType": "string",
          "name": "message",
          "type": "string"
        },
        {
          "indexed": false,
          "internalType": "address",
          "name": "_author",
          "type": "address"
        }
      ],
      "name": "ServiceUpdate",
      "type": "event"
    },
    {
      "inputs": [],
      "name": "owner",
      "outputs": [
        {
          "internalType": "address",
          "name": "",
          "type": "address"
        }
      ],
      "stateMutability": "view",
      "type": "function",
      "constant": true
    },
    {
      "inputs": [],
      "name": "renounceOwnership",
      "outputs": [],
      "stateMutability": "nonpayable",
      "type": "function"
    },
    {
      "inputs": [
        {
          "internalType": "address",
          "name": "newOwner",
          "type": "address"
        }
      ],
      "name": "transferOwnership",
      "outputs": [],
      "stateMutability": "nonpayable",
      "type": "function"
    },
    {
      "inputs": [
        {
          "internalType": "bytes8",
          "name": "_version",
          "type": "bytes8"
        },
        {
          "internalType": "string",
          "name": "_description",
          "type": "string"
        },
        {
          "internalType": "bytes8",
          "name": "_measureType",
          "type": "bytes8"
        },
        {
          "internalType": "bytes1",
          "name": "_timeCode",
          "type": "bytes1"
        },
        {
          "internalType": "uint8",
          "name": "_nbTime",
          "type": "uint8"
        }
      ],
      "name": "addService",
      "outputs": [],
      "stateMutability": "nonpayable",
      "type": "function"
    },
    {
      "inputs": [
        {
          "internalType": "uint256",
          "name": "_serviceId",
          "type": "uint256"
        },
        {
          "internalType": "address",
          "name": "_techMasterAddress",
          "type": "address"
        }
      ],
      "name": "setTechMasterAddress",
      "outputs": [],
      "stateMutability": "nonpayable",
      "type": "function"
    },
    {
      "inputs": [
        {
          "internalType": "uint256",
          "name": "_serviceId",
          "type": "uint256"
        },
        {
          "internalType": "address",
          "name": "_bridgeAddress",
          "type": "address"
        }
      ],
      "name": "setBridgeAddress",
      "outputs": [],
      "stateMutability": "nonpayable",
      "type": "function"
    },
    {
      "inputs": [
        {
          "internalType": "uint256",
          "name": "_serviceId",
          "type": "uint256"
        },
        {
          "internalType": "address",
          "name": "_legislatorAddress",
          "type": "address"
        }
      ],
      "name": "setLegislatorAddress",
      "outputs": [],
      "stateMutability": "nonpayable",
      "type": "function"
    },
    {
      "inputs": [
        {
          "internalType": "uint256",
          "name": "_serviceId",
          "type": "uint256"
        }
      ],
      "name": "getOneService",
      "outputs": [
        {
          "components": [
            {
              "internalType": "bytes8",
              "name": "version",
              "type": "bytes8"
            },
            {
              "internalType": "bytes8",
              "name": "measureType",
              "type": "bytes8"
            },
            {
              "internalType": "bytes1",
              "name": "timeCode",
              "type": "bytes1"
            },
            {
              "internalType": "uint8",
              "name": "nbTime",
              "type": "uint8"
            },
            {
              "internalType": "bool",
              "name": "isActive",
              "type": "bool"
            },
            {
              "internalType": "string",
              "name": "description",
              "type": "string"
            },
            {
              "internalType": "address",
              "name": "bridgeAddress",
              "type": "address"
            },
            {
              "internalType": "address",
              "name": "techMasterAddress",
              "type": "address"
            },
            {
              "internalType": "address",
              "name": "legislatorAddress",
              "type": "address"
            },
            {
              "components": [
                {
                  "internalType": "uint256",
                  "name": "_value",
                  "type": "uint256"
                }
              ],
              "internalType": "struct Counters.Counter",
              "name": "alertConfigIdCounter",
              "type": "tuple"
            },
            {
              "components": [
                {
                  "internalType": "uint256",
                  "name": "_value",
                  "type": "uint256"
                }
              ],
              "internalType": "struct Counters.Counter",
              "name": "alertIdCounter",
              "type": "tuple"
            },
            {
              "components": [
                {
                  "internalType": "uint256",
                  "name": "_value",
                  "type": "uint256"
                }
              ],
              "internalType": "struct Counters.Counter",
              "name": "measureIdCounter",
              "type": "tuple"
            }
          ],
          "internalType": "struct ClientContract.Service",
          "name": "",
          "type": "tuple"
        }
      ],
      "stateMutability": "view",
      "type": "function",
      "constant": true
    },
    {
      "inputs": [],
      "name": "getAllServices",
      "outputs": [
        {
          "components": [
            {
              "internalType": "bytes8",
              "name": "version",
              "type": "bytes8"
            },
            {
              "internalType": "bytes8",
              "name": "measureType",
              "type": "bytes8"
            },
            {
              "internalType": "bytes1",
              "name": "timeCode",
              "type": "bytes1"
            },
            {
              "internalType": "uint8",
              "name": "nbTime",
              "type": "uint8"
            },
            {
              "internalType": "bool",
              "name": "isActive",
              "type": "bool"
            },
            {
              "internalType": "string",
              "name": "description",
              "type": "string"
            },
            {
              "internalType": "address",
              "name": "bridgeAddress",
              "type": "address"
            },
            {
              "internalType": "address",
              "name": "techMasterAddress",
              "type": "address"
            },
            {
              "internalType": "address",
              "name": "legislatorAddress",
              "type": "address"
            },
            {
              "components": [
                {
                  "internalType": "uint256",
                  "name": "_value",
                  "type": "uint256"
                }
              ],
              "internalType": "struct Counters.Counter",
              "name": "alertConfigIdCounter",
              "type": "tuple"
            },
            {
              "components": [
                {
                  "internalType": "uint256",
                  "name": "_value",
                  "type": "uint256"
                }
              ],
              "internalType": "struct Counters.Counter",
              "name": "alertIdCounter",
              "type": "tuple"
            },
            {
              "components": [
                {
                  "internalType": "uint256",
                  "name": "_value",
                  "type": "uint256"
                }
              ],
              "internalType": "struct Counters.Counter",
              "name": "measureIdCounter",
              "type": "tuple"
            }
          ],
          "internalType": "struct ClientContract.Service[]",
          "name": "",
          "type": "tuple[]"
        }
      ],
      "stateMutability": "view",
      "type": "function",
      "constant": true
    },
    {
      "inputs": [
        {
          "internalType": "uint256",
          "name": "_serviceId",
          "type": "uint256"
        },
        {
          "internalType": "bytes32",
          "name": "_measureHeader",
          "type": "bytes32"
        },
        {
          "internalType": "bytes32",
          "name": "_measurebody",
          "type": "bytes32"
        }
      ],
      "name": "addMeasure",
      "outputs": [],
      "stateMutability": "nonpayable",
      "type": "function"
    },
    {
      "inputs": [
        {
          "internalType": "uint256",
          "name": "_serviceId",
          "type": "uint256"
        }
      ],
      "name": "getAllMeasures",
      "outputs": [
        {
          "internalType": "bytes32[]",
          "name": "",
          "type": "bytes32[]"
        },
        {
          "internalType": "bytes32[]",
          "name": "",
          "type": "bytes32[]"
        }
      ],
      "stateMutability": "view",
      "type": "function",
      "constant": true
    },
    {
      "inputs": [
        {
          "internalType": "uint256",
          "name": "_serviceId",
          "type": "uint256"
        },
        {
          "internalType": "uint256",
          "name": "_measureId",
          "type": "uint256"
        }
      ],
      "name": "getMeasuresById",
      "outputs": [
        {
          "internalType": "bytes32",
          "name": "",
          "type": "bytes32"
        },
        {
          "internalType": "bytes32",
          "name": "",
          "type": "bytes32"
        }
      ],
      "stateMutability": "view",
      "type": "function",
      "constant": true
    },
    {
      "inputs": [
        {
          "internalType": "uint256",
          "name": "_serviceId",
          "type": "uint256"
        },
        {
          "internalType": "bytes8",
          "name": "_version",
          "type": "bytes8"
        },
        {
          "internalType": "string",
          "name": "_description",
          "type": "string"
        },
        {
          "internalType": "uint64",
          "name": "_dateOn",
          "type": "uint64"
        },
        {
          "internalType": "uint64",
          "name": "_dateOff",
          "type": "uint64"
        },
        {
          "internalType": "bytes8",
          "name": "_codeAlert",
          "type": "bytes8"
        },
        {
          "internalType": "bytes8",
          "name": "_valueAlert",
          "type": "bytes8"
        }
      ],
      "name": "addAlertConfigCustomer",
      "outputs": [],
      "stateMutability": "nonpayable",
      "type": "function"
    },
    {
      "inputs": [
        {
          "internalType": "uint256",
          "name": "_serviceId",
          "type": "uint256"
        },
        {
          "internalType": "bytes8",
          "name": "_version",
          "type": "bytes8"
        },
        {
          "internalType": "string",
          "name": "_description",
          "type": "string"
        },
        {
          "internalType": "uint64",
          "name": "_dateOn",
          "type": "uint64"
        },
        {
          "internalType": "uint64",
          "name": "_dateOff",
          "type": "uint64"
        },
        {
          "internalType": "bytes8",
          "name": "_codeAlert",
          "type": "bytes8"
        },
        {
          "internalType": "bytes8",
          "name": "_valueAlert",
          "type": "bytes8"
        }
      ],
      "name": "addAlertConfigLegislator",
      "outputs": [],
      "stateMutability": "nonpayable",
      "type": "function"
    },
    {
      "inputs": [
        {
          "internalType": "uint256",
          "name": "_serviceId",
          "type": "uint256"
        }
      ],
      "name": "getAllAlertConfigs",
      "outputs": [
        {
          "components": [
            {
              "internalType": "bytes8",
              "name": "version",
              "type": "bytes8"
            },
            {
              "internalType": "string",
              "name": "description",
              "type": "string"
            },
            {
              "internalType": "address",
              "name": "legislatorAddress",
              "type": "address"
            },
            {
              "internalType": "uint64",
              "name": "dateOn",
              "type": "uint64"
            },
            {
              "internalType": "uint64",
              "name": "dateOff",
              "type": "uint64"
            },
            {
              "internalType": "bytes8",
              "name": "codeAlert",
              "type": "bytes8"
            },
            {
              "internalType": "bytes8",
              "name": "valueAlert",
              "type": "bytes8"
            },
            {
              "internalType": "bool",
              "name": "isActive",
              "type": "bool"
            }
          ],
          "internalType": "struct ClientContract.AlertConfig[]",
          "name": "",
          "type": "tuple[]"
        }
      ],
      "stateMutability": "view",
      "type": "function",
      "constant": true
    },
    {
      "inputs": [
        {
          "internalType": "uint256",
          "name": "_serviceId",
          "type": "uint256"
        },
        {
          "internalType": "bytes32",
          "name": "_alertBody",
          "type": "bytes32"
        }
      ],
      "name": "addAlert",
      "outputs": [],
      "stateMutability": "nonpayable",
      "type": "function"
    },
    {
      "inputs": [
        {
          "internalType": "uint256",
          "name": "_serviceId",
          "type": "uint256"
        }
      ],
      "name": "getAlerts",
      "outputs": [
        {
          "internalType": "bytes32[]",
          "name": "",
          "type": "bytes32[]"
        }
      ],
      "stateMutability": "view",
      "type": "function",
      "constant": true
    }
  ],
  "bytecode": "0x60806040523480156200001157600080fd5b50604051620042283803806200422883398181016040528101906200003791906200033e565b600062000049620002f160201b60201c565b9050806000806101000a81548173ffffffffffffffffffffffffffffffffffffffff021916908373ffffffffffffffffffffffffffffffffffffffff1602179055508073ffffffffffffffffffffffffffffffffffffffff16600073ffffffffffffffffffffffffffffffffffffffff167f8be0079c531659141344cd1fd0a4f28419497f9722a3daafe3b4186f6b6457e060405160405180910390a3506040518060c001604052808577ffffffffffffffffffffffffffffffffffffffffffffffff191681526020018267ffffffffffffffff168152602001600067ffffffffffffffff1681526020018473ffffffffffffffffffffffffffffffffffffffff1681526020018373ffffffffffffffffffffffffffffffffffffffff168152602001600073ffffffffffffffffffffffffffffffffffffffff16815250600160008201518160000160006101000a81548167ffffffffffffffff021916908360c01c021790555060208201518160000160086101000a81548167ffffffffffffffff021916908367ffffffffffffffff16021790555060408201518160000160106101000a81548167ffffffffffffffff021916908367ffffffffffffffff16021790555060608201518160010160006101000a81548173ffffffffffffffffffffffffffffffffffffffff021916908373ffffffffffffffffffffffffffffffffffffffff16021790555060808201518160020160006101000a81548173ffffffffffffffffffffffffffffffffffffffff021916908373ffffffffffffffffffffffffffffffffffffffff16021790555060a08201518160030160006101000a81548173ffffffffffffffffffffffffffffffffffffffff021916908373ffffffffffffffffffffffffffffffffffffffff160217905550905050505050506200046c565b600033905090565b6000815190506200030a816200041e565b92915050565b600081519050620003218162000438565b92915050565b600081519050620003388162000452565b92915050565b600080600080608085870312156200035557600080fd5b6000620003658782880162000310565b94505060206200037887828801620002f9565b93505060406200038b87828801620002f9565b92505060606200039e8782880162000327565b91505092959194509250565b6000620003b782620003ea565b9050919050565b60007fffffffffffffffff00000000000000000000000000000000000000000000000082169050919050565b600073ffffffffffffffffffffffffffffffffffffffff82169050919050565b600067ffffffffffffffff82169050919050565b6200042981620003aa565b81146200043557600080fd5b50565b6200044381620003be565b81146200044f57600080fd5b50565b6200045d816200040a565b81146200046957600080fd5b50565b613dac806200047c6000396000f3fe608060405234801561001057600080fd5b506004361061010b5760003560e01c8063715018a6116100a2578063c18ec58c11610071578063c18ec58c14610290578063d3088f2b146102ac578063da6cd376146102dc578063f2fde38b146102f8578063f78302a6146103145761010b565b8063715018a6146102305780638da5cb5b1461023a578063ae7157ab14610258578063b2e733bf146102745761010b565b806336e1946c116100de57806336e1946c146101ab5780634ad580f2146101c75780634c6fdcc6146101e357806351f2c5ad146101ff5761010b565b806306566faa1461011057806317842b281461012c57806321fe0f301461015c5780632669167a1461017a575b600080fd5b61012a60048036038101906101259190612e10565b610344565b005b61014660048036038101906101419190612de7565b610608565b6040516101539190613744565b60405180910390f35b610164610673565b60405161017191906137bf565b60405180910390f35b610194600480360381019061018f9190612f8d565b6109ee565b6040516101a29291906137e1565b60405180910390f35b6101c560048036038101906101c09190612ed7565b610aa8565b005b6101e160048036038101906101dc9190612ed7565b610c76565b005b6101fd60048036038101906101f89190612e10565b610e8c565b005b61021960048036038101906102149190612de7565b6110b4565b604051610227929190613766565b60405180910390f35b61023861118a565b005b6102426112c4565b60405161024f9190613729565b60405180910390f35b610272600480360381019061026d9190612e4c565b6112ed565b005b61028e60048036038101906102899190612e88565b6115b6565b005b6102aa60048036038101906102a59190612e10565b6118bc565b005b6102c660048036038101906102c19190612de7565b611b37565b6040516102d391906138d8565b60405180910390f35b6102f660048036038101906102f19190612d58565b611eb5565b005b610312600480360381019061030d9190612d2f565b6122f0565b005b61032e60048036038101906103299190612de7565b612499565b60405161033b919061379d565b60405180910390f35b8161034f600661275a565b8110610390576040517f08c379a000000000000000000000000000000000000000000000000000000000815260040161038790613878565b60405180910390fd5b600581815481106103ca577f4e487b7100000000000000000000000000000000000000000000000000000000600052603260045260246000fd5b906000526020600020906008020160000160129054906101000a900460ff16610428576040517f08c379a000000000000000000000000000000000000000000000000000000000815260040161041f90613898565b60405180910390fd5b823373ffffffffffffffffffffffffffffffffffffffff166005828154811061047a577f4e487b7100000000000000000000000000000000000000000000000000000000600052603260045260246000fd5b906000526020600020906008020160030160009054906101000a900473ffffffffffffffffffffffffffffffffffffffff1673ffffffffffffffffffffffffffffffffffffffff16148061050057503373ffffffffffffffffffffffffffffffffffffffff166104e86112c4565b73ffffffffffffffffffffffffffffffffffffffff16145b61053f576040517f08c379a0000000000000000000000000000000000000000000000000000000008152600401610536906138b8565b60405180910390fd5b826005858154811061057a577f4e487b7100000000000000000000000000000000000000000000000000000000600052603260045260246000fd5b906000526020600020906008020160020160006101000a81548173ffffffffffffffffffffffffffffffffffffffff021916908373ffffffffffffffffffffffffffffffffffffffff1602179055507f6eb54bb1fcbc8b072bc7be4d66f909b2316584cb9b6c49bfdb6504b9246a848184336040516105fa929190613976565b60405180910390a150505050565b6060600a600083815260200190815260200160002080548060200260200160405190810160405280929190818152602001828054801561066757602002820191906000526020600020905b815481526020019060010190808311610653575b50505050509050919050565b60606005805480602002602001604051908101604052809291908181526020016000905b828210156109e55783829060005260206000209060080201604051806101800160405290816000820160009054906101000a900460c01b77ffffffffffffffffffffffffffffffffffffffffffffffff191677ffffffffffffffffffffffffffffffffffffffffffffffff191681526020016000820160089054906101000a900460c01b77ffffffffffffffffffffffffffffffffffffffffffffffff191677ffffffffffffffffffffffffffffffffffffffffffffffff191681526020016000820160109054906101000a900460f81b7effffffffffffffffffffffffffffffffffffffffffffffffffffffffffffff19167effffffffffffffffffffffffffffffffffffffffffffffffffffffffffffff191681526020016000820160119054906101000a900460ff1660ff1660ff1681526020016000820160129054906101000a900460ff161515151581526020016001820180546107f890613c34565b80601f016020809104026020016040519081016040528092919081815260200182805461082490613c34565b80156108715780601f1061084657610100808354040283529160200191610871565b820191906000526020600020905b81548152906001019060200180831161085457829003601f168201915b505050505081526020016002820160009054906101000a900473ffffffffffffffffffffffffffffffffffffffff1673ffffffffffffffffffffffffffffffffffffffff1673ffffffffffffffffffffffffffffffffffffffff1681526020016003820160009054906101000a900473ffffffffffffffffffffffffffffffffffffffff1673ffffffffffffffffffffffffffffffffffffffff1673ffffffffffffffffffffffffffffffffffffffff1681526020016004820160009054906101000a900473ffffffffffffffffffffffffffffffffffffffff1673ffffffffffffffffffffffffffffffffffffffff1673ffffffffffffffffffffffffffffffffffffffff168152602001600582016040518060200160405290816000820154815250508152602001600682016040518060200160405290816000820154815250508152602001600782016040518060200160405290816000820154815250508152505081526020019060010190610697565b50505050905090565b600080600860008581526020019081526020016000208381548110610a3c577f4e487b7100000000000000000000000000000000000000000000000000000000600052603260045260246000fd5b9060005260206000200154600960008681526020019081526020016000208481548110610a92577f4e487b7100000000000000000000000000000000000000000000000000000000600052603260045260246000fd5b9060005260206000200154915091509250929050565b86610ab3600661275a565b8110610af4576040517f08c379a0000000000000000000000000000000000000000000000000000000008152600401610aeb90613878565b60405180910390fd5b60058181548110610b2e577f4e487b7100000000000000000000000000000000000000000000000000000000600052603260045260246000fd5b906000526020600020906008020160000160129054906101000a900460ff16610b8c576040517f08c379a0000000000000000000000000000000000000000000000000000000008152600401610b8390613898565b60405180910390fd5b3373ffffffffffffffffffffffffffffffffffffffff166001800160009054906101000a900473ffffffffffffffffffffffffffffffffffffffff1673ffffffffffffffffffffffffffffffffffffffff161480610c1c57503373ffffffffffffffffffffffffffffffffffffffff16610c046112c4565b73ffffffffffffffffffffffffffffffffffffffff16145b610c5b576040517f08c379a0000000000000000000000000000000000000000000000000000000008152600401610c52906138b8565b60405180910390fd5b610c6c888888600089898989612768565b5050505050505050565b86610c81600661275a565b8110610cc2576040517f08c379a0000000000000000000000000000000000000000000000000000000008152600401610cb990613878565b60405180910390fd5b60058181548110610cfc577f4e487b7100000000000000000000000000000000000000000000000000000000600052603260045260246000fd5b906000526020600020906008020160000160129054906101000a900460ff16610d5a576040517f08c379a0000000000000000000000000000000000000000000000000000000008152600401610d5190613898565b60405180910390fd5b873373ffffffffffffffffffffffffffffffffffffffff1660058281548110610dac577f4e487b7100000000000000000000000000000000000000000000000000000000600052603260045260246000fd5b906000526020600020906008020160040160009054906101000a900473ffffffffffffffffffffffffffffffffffffffff1673ffffffffffffffffffffffffffffffffffffffff161480610e3257503373ffffffffffffffffffffffffffffffffffffffff16610e1a6112c4565b73ffffffffffffffffffffffffffffffffffffffff16145b610e71576040517f08c379a0000000000000000000000000000000000000000000000000000000008152600401610e68906138b8565b60405180910390fd5b610e81898989338a8a8a8a612768565b505050505050505050565b81610e97600661275a565b8110610ed8576040517f08c379a0000000000000000000000000000000000000000000000000000000008152600401610ecf90613878565b60405180910390fd5b60058181548110610f12577f4e487b7100000000000000000000000000000000000000000000000000000000600052603260045260246000fd5b906000526020600020906008020160000160129054906101000a900460ff16610f70576040517f08c379a0000000000000000000000000000000000000000000000000000000008152600401610f6790613898565b60405180910390fd5b610f78612a4e565b73ffffffffffffffffffffffffffffffffffffffff16610f966112c4565b73ffffffffffffffffffffffffffffffffffffffff1614610fec576040517f08c379a0000000000000000000000000000000000000000000000000000000008152600401610fe390613858565b60405180910390fd5b8160058481548110611027577f4e487b7100000000000000000000000000000000000000000000000000000000600052603260045260246000fd5b906000526020600020906008020160030160006101000a81548173ffffffffffffffffffffffffffffffffffffffff021916908373ffffffffffffffffffffffffffffffffffffffff1602179055507f6eb54bb1fcbc8b072bc7be4d66f909b2316584cb9b6c49bfdb6504b9246a848183336040516110a7929190613976565b60405180910390a1505050565b60608060086000848152602001908152602001600020600960008581526020019081526020016000208180548060200260200160405190810160405280929190818152602001828054801561112857602002820191906000526020600020905b815481526020019060010190808311611114575b505050505091508080548060200260200160405190810160405280929190818152602001828054801561117a57602002820191906000526020600020905b815481526020019060010190808311611166575b5050505050905091509150915091565b611192612a4e565b73ffffffffffffffffffffffffffffffffffffffff166111b06112c4565b73ffffffffffffffffffffffffffffffffffffffff1614611206576040517f08c379a00000000000000000000000000000000000000000000000000000000081526004016111fd90613858565b60405180910390fd5b600073ffffffffffffffffffffffffffffffffffffffff1660008054906101000a900473ffffffffffffffffffffffffffffffffffffffff1673ffffffffffffffffffffffffffffffffffffffff167f8be0079c531659141344cd1fd0a4f28419497f9722a3daafe3b4186f6b6457e060405160405180910390a360008060006101000a81548173ffffffffffffffffffffffffffffffffffffffff021916908373ffffffffffffffffffffffffffffffffffffffff160217905550565b60008060009054906101000a900473ffffffffffffffffffffffffffffffffffffffff16905090565b816112f8600661275a565b8110611339576040517f08c379a000000000000000000000000000000000000000000000000000000000815260040161133090613878565b60405180910390fd5b60058181548110611373577f4e487b7100000000000000000000000000000000000000000000000000000000600052603260045260246000fd5b906000526020600020906008020160000160129054906101000a900460ff166113d1576040517f08c379a00000000000000000000000000000000000000000000000000000000081526004016113c890613898565b60405180910390fd5b823373ffffffffffffffffffffffffffffffffffffffff1660058281548110611423577f4e487b7100000000000000000000000000000000000000000000000000000000600052603260045260246000fd5b906000526020600020906008020160020160009054906101000a900473ffffffffffffffffffffffffffffffffffffffff1673ffffffffffffffffffffffffffffffffffffffff1614806114a957503373ffffffffffffffffffffffffffffffffffffffff166114916112c4565b73ffffffffffffffffffffffffffffffffffffffff16145b6114e8576040517f08c379a00000000000000000000000000000000000000000000000000000000081526004016114df906138b8565b60405180910390fd5b600a60008581526020019081526020016000208390806001815401808255809150506001900390600052602060002001600090919091909150556115756005858154811061155f577f4e487b7100000000000000000000000000000000000000000000000000000000600052603260045260246000fd5b9060005260206000209060080201600601612a56565b7f660173323a528f21b5848cb1a9d04cbe5dbc9633f2eb026cd33b16f7bd7af88e8484336040516115a8939291906138fa565b60405180910390a150505050565b826115c1600661275a565b8110611602576040517f08c379a00000000000000000000000000000000000000000000000000000000081526004016115f990613878565b60405180910390fd5b6005818154811061163c577f4e487b7100000000000000000000000000000000000000000000000000000000600052603260045260246000fd5b906000526020600020906008020160000160129054906101000a900460ff1661169a576040517f08c379a000000000000000000000000000000000000000000000000000000000815260040161169190613898565b60405180910390fd5b833373ffffffffffffffffffffffffffffffffffffffff16600582815481106116ec577f4e487b7100000000000000000000000000000000000000000000000000000000600052603260045260246000fd5b906000526020600020906008020160020160009054906101000a900473ffffffffffffffffffffffffffffffffffffffff1673ffffffffffffffffffffffffffffffffffffffff16148061177257503373ffffffffffffffffffffffffffffffffffffffff1661175a6112c4565b73ffffffffffffffffffffffffffffffffffffffff16145b6117b1576040517f08c379a00000000000000000000000000000000000000000000000000000000081526004016117a8906138b8565b60405180910390fd5b600860008681526020019081526020016000208490806001815401808255809150506001900390600052602060002001600090919091909150556009600086815260200190815260200160002083908060018154018082558091505060019003906000526020600020016000909190919091505561187860058681548110611862577f4e487b7100000000000000000000000000000000000000000000000000000000600052603260045260246000fd5b9060005260206000209060080201600701612a56565b7f818366328240e2ab5877d5eed27c1f3803a716f5700034371e2e520c650f5745858585336040516118ad9493929190613931565b60405180910390a15050505050565b816118c7600661275a565b8110611908576040517f08c379a00000000000000000000000000000000000000000000000000000000081526004016118ff90613878565b60405180910390fd5b60058181548110611942577f4e487b7100000000000000000000000000000000000000000000000000000000600052603260045260246000fd5b906000526020600020906008020160000160129054906101000a900460ff166119a0576040517f08c379a000000000000000000000000000000000000000000000000000000000815260040161199790613898565b60405180910390fd5b3373ffffffffffffffffffffffffffffffffffffffff166001800160009054906101000a900473ffffffffffffffffffffffffffffffffffffffff1673ffffffffffffffffffffffffffffffffffffffff161480611a3057503373ffffffffffffffffffffffffffffffffffffffff16611a186112c4565b73ffffffffffffffffffffffffffffffffffffffff16145b611a6f576040517f08c379a0000000000000000000000000000000000000000000000000000000008152600401611a66906138b8565b60405180910390fd5b8160058481548110611aaa577f4e487b7100000000000000000000000000000000000000000000000000000000600052603260045260246000fd5b906000526020600020906008020160040160006101000a81548173ffffffffffffffffffffffffffffffffffffffff021916908373ffffffffffffffffffffffffffffffffffffffff1602179055507f6eb54bb1fcbc8b072bc7be4d66f909b2316584cb9b6c49bfdb6504b9246a84818333604051611b2a929190613976565b60405180910390a1505050565b611b3f612a6c565b60058281548110611b79577f4e487b7100000000000000000000000000000000000000000000000000000000600052603260045260246000fd5b9060005260206000209060080201604051806101800160405290816000820160009054906101000a900460c01b77ffffffffffffffffffffffffffffffffffffffffffffffff191677ffffffffffffffffffffffffffffffffffffffffffffffff191681526020016000820160089054906101000a900460c01b77ffffffffffffffffffffffffffffffffffffffffffffffff191677ffffffffffffffffffffffffffffffffffffffffffffffff191681526020016000820160109054906101000a900460f81b7effffffffffffffffffffffffffffffffffffffffffffffffffffffffffffff19167effffffffffffffffffffffffffffffffffffffffffffffffffffffffffffff191681526020016000820160119054906101000a900460ff1660ff1660ff1681526020016000820160129054906101000a900460ff16151515158152602001600182018054611cd090613c34565b80601f0160208091040260200160405190810160405280929190818152602001828054611cfc90613c34565b8015611d495780601f10611d1e57610100808354040283529160200191611d49565b820191906000526020600020905b815481529060010190602001808311611d2c57829003601f168201915b505050505081526020016002820160009054906101000a900473ffffffffffffffffffffffffffffffffffffffff1673ffffffffffffffffffffffffffffffffffffffff1673ffffffffffffffffffffffffffffffffffffffff1681526020016003820160009054906101000a900473ffffffffffffffffffffffffffffffffffffffff1673ffffffffffffffffffffffffffffffffffffffff1673ffffffffffffffffffffffffffffffffffffffff1681526020016004820160009054906101000a900473ffffffffffffffffffffffffffffffffffffffff1673ffffffffffffffffffffffffffffffffffffffff1673ffffffffffffffffffffffffffffffffffffffff16815260200160058201604051806020016040529081600082015481525050815260200160068201604051806020016040529081600082015481525050815260200160078201604051806020016040529081600082015481525050815250509050919050565b3373ffffffffffffffffffffffffffffffffffffffff166001800160009054906101000a900473ffffffffffffffffffffffffffffffffffffffff1673ffffffffffffffffffffffffffffffffffffffff161480611f4557503373ffffffffffffffffffffffffffffffffffffffff16611f2d6112c4565b73ffffffffffffffffffffffffffffffffffffffff16145b611f84576040517f08c379a0000000000000000000000000000000000000000000000000000000008152600401611f7b906138b8565b60405180910390fd5b611f8c612b7e565b611f94612b7e565b611f9c612b7e565b60056040518061018001604052808a77ffffffffffffffffffffffffffffffffffffffffffffffff191681526020018877ffffffffffffffffffffffffffffffffffffffffffffffff19168152602001877effffffffffffffffffffffffffffffffffffffffffffffffffffffffffffff191681526020018660ff168152602001600115158152602001898152602001600073ffffffffffffffffffffffffffffffffffffffff168152602001600073ffffffffffffffffffffffffffffffffffffffff168152602001600073ffffffffffffffffffffffffffffffffffffffff16815260200185815260200183815260200184815250908060018154018082558091505060019003906000526020600020906008020160009091909190915060008201518160000160006101000a81548167ffffffffffffffff021916908360c01c021790555060208201518160000160086101000a81548167ffffffffffffffff021916908360c01c021790555060408201518160000160106101000a81548160ff021916908360f81c021790555060608201518160000160116101000a81548160ff021916908360ff16021790555060808201518160000160126101000a81548160ff02191690831515021790555060a082015181600101908051906020019061218a929190612b91565b5060c08201518160020160006101000a81548173ffffffffffffffffffffffffffffffffffffffff021916908373ffffffffffffffffffffffffffffffffffffffff16021790555060e08201518160030160006101000a81548173ffffffffffffffffffffffffffffffffffffffff021916908373ffffffffffffffffffffffffffffffffffffffff1602179055506101008201518160040160006101000a81548173ffffffffffffffffffffffffffffffffffffffff021916908373ffffffffffffffffffffffffffffffffffffffff16021790555061012082015181600501600082015181600001555050610140820151816006016000820151816000015550506101608201518160070160008201518160000155505050507f74851bb416411c1b4cb986c13ce9b6a9e973e7948f03fc2e574ca42a6d3724d3336040516122d4919061382a565b60405180910390a16122e66006612a56565b5050505050505050565b6122f8612a4e565b73ffffffffffffffffffffffffffffffffffffffff166123166112c4565b73ffffffffffffffffffffffffffffffffffffffff161461236c576040517f08c379a000000000000000000000000000000000000000000000000000000000815260040161236390613858565b60405180910390fd5b600073ffffffffffffffffffffffffffffffffffffffff168173ffffffffffffffffffffffffffffffffffffffff1614156123dc576040517f08c379a00000000000000000000000000000000000000000000000000000000081526004016123d39061380a565b60405180910390fd5b8073ffffffffffffffffffffffffffffffffffffffff1660008054906101000a900473ffffffffffffffffffffffffffffffffffffffff1673ffffffffffffffffffffffffffffffffffffffff167f8be0079c531659141344cd1fd0a4f28419497f9722a3daafe3b4186f6b6457e060405160405180910390a3806000806101000a81548173ffffffffffffffffffffffffffffffffffffffff021916908373ffffffffffffffffffffffffffffffffffffffff16021790555050565b606060076000838152602001908152602001600020805480602002602001604051908101604052809291908181526020016000905b8282101561274f5783829060005260206000209060040201604051806101000160405290816000820160009054906101000a900460c01b77ffffffffffffffffffffffffffffffffffffffffffffffff191677ffffffffffffffffffffffffffffffffffffffffffffffff1916815260200160018201805461254f90613c34565b80601f016020809104026020016040519081016040528092919081815260200182805461257b90613c34565b80156125c85780601f1061259d576101008083540402835291602001916125c8565b820191906000526020600020905b8154815290600101906020018083116125ab57829003601f168201915b505050505081526020016002820160009054906101000a900473ffffffffffffffffffffffffffffffffffffffff1673ffffffffffffffffffffffffffffffffffffffff1673ffffffffffffffffffffffffffffffffffffffff1681526020016002820160149054906101000a900467ffffffffffffffff1667ffffffffffffffff1667ffffffffffffffff1681526020016003820160009054906101000a900467ffffffffffffffff1667ffffffffffffffff1667ffffffffffffffff1681526020016003820160089054906101000a900460c01b77ffffffffffffffffffffffffffffffffffffffffffffffff191677ffffffffffffffffffffffffffffffffffffffffffffffff191681526020016003820160109054906101000a900460c01b77ffffffffffffffffffffffffffffffffffffffffffffffff191677ffffffffffffffffffffffffffffffffffffffffffffffff191681526020016003820160189054906101000a900460ff161515151581525050815260200190600101906124ce565b505050509050919050565b600081600001549050919050565b600760008981526020019081526020016000206040518061010001604052808977ffffffffffffffffffffffffffffffffffffffffffffffff191681526020018881526020018773ffffffffffffffffffffffffffffffffffffffff1681526020018667ffffffffffffffff1681526020018567ffffffffffffffff1681526020018477ffffffffffffffffffffffffffffffffffffffffffffffff191681526020018377ffffffffffffffffffffffffffffffffffffffffffffffff1916815260200160011515815250908060018154018082558091505060019003906000526020600020906004020160009091909190915060008201518160000160006101000a81548167ffffffffffffffff021916908360c01c021790555060208201518160010190805190602001906128a0929190612b91565b5060408201518160020160006101000a81548173ffffffffffffffffffffffffffffffffffffffff021916908373ffffffffffffffffffffffffffffffffffffffff16021790555060608201518160020160146101000a81548167ffffffffffffffff021916908367ffffffffffffffff16021790555060808201518160030160006101000a81548167ffffffffffffffff021916908367ffffffffffffffff16021790555060a08201518160030160086101000a81548167ffffffffffffffff021916908360c01c021790555060c08201518160030160106101000a81548167ffffffffffffffff021916908360c01c021790555060e08201518160030160186101000a81548160ff0219169083151502179055505050612a0b600589815481106129f5577f4e487b7100000000000000000000000000000000000000000000000000000000600052603260045260246000fd5b9060005260206000209060080201600501612a56565b7f6eb54bb1fcbc8b072bc7be4d66f909b2316584cb9b6c49bfdb6504b9246a84818833604051612a3c9291906139b2565b60405180910390a15050505050505050565b600033905090565b6001816000016000828254019250508190555050565b604051806101800160405280600077ffffffffffffffffffffffffffffffffffffffffffffffff19168152602001600077ffffffffffffffffffffffffffffffffffffffffffffffff1916815260200160007effffffffffffffffffffffffffffffffffffffffffffffffffffffffffffff19168152602001600060ff16815260200160001515815260200160608152602001600073ffffffffffffffffffffffffffffffffffffffff168152602001600073ffffffffffffffffffffffffffffffffffffffff168152602001600073ffffffffffffffffffffffffffffffffffffffff168152602001612b5e612b7e565b8152602001612b6b612b7e565b8152602001612b78612b7e565b81525090565b6040518060200160405280600081525090565b828054612b9d90613c34565b90600052602060002090601f016020900481019282612bbf5760008555612c06565b82601f10612bd857805160ff1916838001178555612c06565b82800160010185558215612c06579182015b82811115612c05578251825591602001919060010190612bea565b5b509050612c139190612c17565b5090565b5b80821115612c30576000816000905550600101612c18565b5090565b6000612c47612c4284613a1f565b6139ee565b905082815260208101848484011115612c5f57600080fd5b612c6a848285613bf2565b509392505050565b600081359050612c8181613cd5565b92915050565b600081359050612c9681613cec565b92915050565b600081359050612cab81613d03565b92915050565b600081359050612cc081613d1a565b92915050565b600082601f830112612cd757600080fd5b8135612ce7848260208601612c34565b91505092915050565b600081359050612cff81613d31565b92915050565b600081359050612d1481613d48565b92915050565b600081359050612d2981613d5f565b92915050565b600060208284031215612d4157600080fd5b6000612d4f84828501612c72565b91505092915050565b600080600080600060a08688031215612d7057600080fd5b6000612d7e88828901612cb1565b955050602086013567ffffffffffffffff811115612d9b57600080fd5b612da788828901612cc6565b9450506040612db888828901612cb1565b9350506060612dc988828901612c87565b9250506080612dda88828901612d1a565b9150509295509295909350565b600060208284031215612df957600080fd5b6000612e0784828501612cf0565b91505092915050565b60008060408385031215612e2357600080fd5b6000612e3185828601612cf0565b9250506020612e4285828601612c72565b9150509250929050565b60008060408385031215612e5f57600080fd5b6000612e6d85828601612cf0565b9250506020612e7e85828601612c9c565b9150509250929050565b600080600060608486031215612e9d57600080fd5b6000612eab86828701612cf0565b9350506020612ebc86828701612c9c565b9250506040612ecd86828701612c9c565b9150509250925092565b600080600080600080600060e0888a031215612ef257600080fd5b6000612f008a828b01612cf0565b9750506020612f118a828b01612cb1565b965050604088013567ffffffffffffffff811115612f2e57600080fd5b612f3a8a828b01612cc6565b9550506060612f4b8a828b01612d05565b9450506080612f5c8a828b01612d05565b93505060a0612f6d8a828b01612cb1565b92505060c0612f7e8a828b01612cb1565b91505092959891949750929550565b60008060408385031215612fa057600080fd5b6000612fae85828601612cf0565b9250506020612fbf85828601612cf0565b9150509250929050565b6000612fd5838361318d565b60208301905092915050565b6000612fed8383613419565b905092915050565b600061300183836134e5565b905092915050565b61301281613b27565b82525050565b61302181613b27565b82525050565b600061303282613a7f565b61303c8185613ad2565b935061304783613a4f565b8060005b8381101561307857815161305f8882612fc9565b975061306a83613aab565b92505060018101905061304b565b5085935050505092915050565b600061309082613a8a565b61309a8185613ae3565b9350836020820285016130ac85613a5f565b8060005b858110156130e857848403895281516130c98582612fe1565b94506130d483613ab8565b925060208a019950506001810190506130b0565b50829750879550505050505092915050565b600061310582613a95565b61310f8185613af4565b93508360208202850161312185613a6f565b8060005b8581101561315d578484038952815161313e8582612ff5565b945061314983613ac5565b925060208a01995050600181019050613125565b50829750879550505050505092915050565b61317881613b39565b82525050565b61318781613b45565b82525050565b61319681613b71565b82525050565b6131a581613b71565b82525050565b6131b481613b7b565b82525050565b60006131c582613aa0565b6131cf8185613b05565b93506131df818560208601613c01565b6131e881613cc4565b840191505092915050565b6000613200601583613b16565b91507f42726964676520416464726573732075706461746500000000000000000000006000830152602082019050919050565b6000613240602683613b16565b91507f4f776e61626c653a206e6577206f776e657220697320746865207a65726f206160008301527f64647265737300000000000000000000000000000000000000000000000000006020830152604082019050919050565b60006132a6600b83613b16565b91507f4e657720736572766963650000000000000000000000000000000000000000006000830152602082019050919050565b60006132e6601083613b16565b91507f4e657720436f6e66696720416c657274000000000000000000000000000000006000830152602082019050919050565b6000613326602083613b16565b91507f4f776e61626c653a2063616c6c6572206973206e6f7420746865206f776e65726000830152602082019050919050565b6000613366601183613b16565b91507f53657276696365206e6f742065786973740000000000000000000000000000006000830152602082019050919050565b60006133a6601083613b16565b91507f53657276696365206f6666206c696e65000000000000000000000000000000006000830152602082019050919050565b60006133e6600d83613b16565b91507f4163636573732064656e696564000000000000000000000000000000000000006000830152602082019050919050565b60006101008301600083015161343260008601826131ab565b506020830151848203602086015261344a82826131ba565b915050604083015161345f6040860182613009565b506060830151613472606086018261370b565b506080830151613485608086018261370b565b5060a083015161349860a08601826131ab565b5060c08301516134ab60c08601826131ab565b5060e08301516134be60e086018261316f565b508091505092915050565b6020820160008201516134df60008501826136ed565b50505050565b6000610180830160008301516134fe60008601826131ab565b50602083015161351160208601826131ab565b506040830151613524604086018261317e565b506060830151613537606086018261371a565b50608083015161354a608086018261316f565b5060a083015184820360a086015261356282826131ba565b91505060c083015161357760c0860182613009565b5060e083015161358a60e0860182613009565b5061010083015161359f610100860182613009565b506101208301516135b46101208601826134c9565b506101408301516135c96101408601826134c9565b506101608301516135de6101608601826134c9565b508091505092915050565b60006101808301600083015161360260008601826131ab565b50602083015161361560208601826131ab565b506040830151613628604086018261317e565b50606083015161363b606086018261371a565b50608083015161364e608086018261316f565b5060a083015184820360a086015261366682826131ba565b91505060c083015161367b60c0860182613009565b5060e083015161368e60e0860182613009565b506101008301516136a3610100860182613009565b506101208301516136b86101208601826134c9565b506101408301516136cd6101408601826134c9565b506101608301516136e26101608601826134c9565b508091505092915050565b6136f681613bc7565b82525050565b61370581613bc7565b82525050565b61371481613bd1565b82525050565b61372381613be5565b82525050565b600060208201905061373e6000830184613018565b92915050565b6000602082019050818103600083015261375e8184613027565b905092915050565b600060408201905081810360008301526137808185613027565b905081810360208301526137948184613027565b90509392505050565b600060208201905081810360008301526137b78184613085565b905092915050565b600060208201905081810360008301526137d981846130fa565b905092915050565b60006040820190506137f6600083018561319c565b613803602083018461319c565b9392505050565b6000602082019050818103600083015261382381613233565b9050919050565b6000604082019050818103600083015261384381613299565b90506138526020830184613018565b92915050565b6000602082019050818103600083015261387181613319565b9050919050565b6000602082019050818103600083015261389181613359565b9050919050565b600060208201905081810360008301526138b181613399565b9050919050565b600060208201905081810360008301526138d1816133d9565b9050919050565b600060208201905081810360008301526138f281846135e9565b905092915050565b600060608201905061390f60008301866136fc565b61391c602083018561319c565b6139296040830184613018565b949350505050565b600060808201905061394660008301876136fc565b613953602083018661319c565b613960604083018561319c565b61396d6060830184613018565b95945050505050565b600060608201905061398b60008301856136fc565b818103602083015261399c816131f3565b90506139ab6040830184613018565b9392505050565b60006060820190506139c760008301856136fc565b81810360208301526139d8816132d9565b90506139e76040830184613018565b9392505050565b6000604051905081810181811067ffffffffffffffff82111715613a1557613a14613c95565b5b8060405250919050565b600067ffffffffffffffff821115613a3a57613a39613c95565b5b601f19601f8301169050602081019050919050565b6000819050602082019050919050565b6000819050602082019050919050565b6000819050602082019050919050565b600081519050919050565b600081519050919050565b600081519050919050565b600081519050919050565b6000602082019050919050565b6000602082019050919050565b6000602082019050919050565b600082825260208201905092915050565b600082825260208201905092915050565b600082825260208201905092915050565b600082825260208201905092915050565b600082825260208201905092915050565b6000613b3282613ba7565b9050919050565b60008115159050919050565b60007fff0000000000000000000000000000000000000000000000000000000000000082169050919050565b6000819050919050565b60007fffffffffffffffff00000000000000000000000000000000000000000000000082169050919050565b600073ffffffffffffffffffffffffffffffffffffffff82169050919050565b6000819050919050565b600067ffffffffffffffff82169050919050565b600060ff82169050919050565b82818337600083830152505050565b60005b83811015613c1f578082015181840152602081019050613c04565b83811115613c2e576000848401525b50505050565b60006002820490506001821680613c4c57607f821691505b60208210811415613c6057613c5f613c66565b5b50919050565b7f4e487b7100000000000000000000000000000000000000000000000000000000600052602260045260246000fd5b7f4e487b7100000000000000000000000000000000000000000000000000000000600052604160045260246000fd5b6000601f19601f8301169050919050565b613cde81613b27565b8114613ce957600080fd5b50565b613cf581613b45565b8114613d0057600080fd5b50565b613d0c81613b71565b8114613d1757600080fd5b50565b613d2381613b7b565b8114613d2e57600080fd5b50565b613d3a81613bc7565b8114613d4557600080fd5b50565b613d5181613bd1565b8114613d5c57600080fd5b50565b613d6881613be5565b8114613d7357600080fd5b5056fea26469706673582212204dc7e9735ccb3b6ea17930098820ae74ad0b3251572962112677cb317ebda56f64736f6c63430008000033",
  "immutableReferences": {},
  "source": "// SPDX-License-Identifier: MIT\npragma solidity 0.8.0;\n\nimport \"../node_modules/@openzeppelin/contracts/utils/Counters.sol\";\nimport \"../node_modules/@openzeppelin/contracts/access/Ownable.sol\";\n\ncontract ClientContract is Ownable {\n    using Counters for Counters.Counter;\n    \n    // struct mesure en-tte (32) { \n    //   //V0.1     XX.XX.XX    00.01.00\n    //   Version : bytes8;\n    //   Date : YYYYmmddHHii : byte12\n    //   Code de mesure : bytes8 - CODE : 4 chiffre/lettre pour la nature physique - 4 chiffre/lettre pour la version\n    //   Code temporel : bytes1 (Horaire, Journalier) Y m d H i\n    //   Nb temporel : bytes3 \n    // }\n    \n    // struct mesure donne (32) { \n    //   Valeur 1 Max : bytes8\n    //   Valeur 2 Moyenne : bytes8\n    //   Valeur 3 Mdiane : bytes8\n    //   Valeur 4 Min : bytes8\n    // }\n\n    // struct alert donne (32) { \n    //   Version : bytes8\n    //   IdAlert : bytes4    \n    //   Date : YYYYmmddHHii : byte12\n    //   Valeur alert : bytes8\n    // }\n\n    /**\n    * @dev Contract Configuration\n    */\n    struct Config {\n        bytes8 version;\n        uint64 prevContractDate;\n        uint64 nextContractDate;\n        address customerAddress;\n        address prevContract;\n        address nextContract;\n    }\n    \n    struct Service {\n        bytes8 version;\n        bytes8 measureType;\n        bytes1 timeCode;\n        uint8 nbTime;\n        bool isActive;\n        string description;\n        address bridgeAddress;\n        address techMasterAddress;\n        address legislatorAddress;\n\n        Counters.Counter alertConfigIdCounter;\n        Counters.Counter alertIdCounter; \n\n        Counters.Counter measureIdCounter;\n    }\n\n    struct AlertConfig {\n        bytes8 version;     \n        string description;   \n        address legislatorAddress;\n        uint64 dateOn;\n        uint64 dateOff;\n        bytes8 codeAlert;\n        bytes8 valueAlert;\n        bool isActive;\n    }\n\n    modifier isServiceOn(uint _serviceId) {\n        require(_serviceId < _serviceIdCounter.current(), \"Service not exist\"); \n        require(_services[_serviceId].isActive, \"Service off line\"); \n        _;\n    }\n\n    modifier onlyCustomer() {\n      require (_myConfig.customerAddress == msg.sender || owner() ==  msg.sender, \"Access denied\");\n      _;\n    }\n\n    modifier onlyBridge(uint _serviceId) {\n      require (_services[_serviceId].bridgeAddress == msg.sender || owner() ==  msg.sender, \"Access denied\");\n      _;\n    }\n\n    modifier onlyTechMaster(uint _serviceId) {\n      require (_services[_serviceId].techMasterAddress == msg.sender || owner() ==  msg.sender, \"Access denied\");\n      _;\n    }\n\n    modifier onlyLegislator(uint _serviceId) {\n      require (_services[_serviceId].legislatorAddress == msg.sender || owner() ==  msg.sender, \"Access denied\");\n      _;\n    }\n\n    event MeasureReceive(uint _service_id, bytes32 _header, bytes32 _body, address _author); \n    event AlertReceive(uint _service_id, bytes32 _alert, address _author); \n    event ServiceUpdate(uint _service_id, string message, address _author); \n    event ContractUpdate(string message, address _author);  \n               \n\n    Config private _myConfig;\n    Service[] private _services;\n\n    Counters.Counter private _serviceIdCounter;\n\n    mapping(uint => AlertConfig[]) private _serviceAlertConfig;  \n    mapping(uint => bytes32[]) private _serviceHeaderMeasures;\n    mapping(uint => bytes32[]) private _serviceBodyMeasures;\n    mapping(uint => bytes32[]) private _serviceAlerts;    \n    mapping(uint => bytes6[]) private _serviceMacIOT;\n \n    constructor (bytes8 _version, address _customerAddress, address _prevContract, uint64 _prevContractDate) {\n        _myConfig = Config(\n            _version,\n            _prevContractDate,\n            0,\n            _customerAddress,\n            _prevContract,\n            address(0)\n        );  \n    }\n\n    function addService(\n        bytes8 _version,   \n        string memory _description,\n        bytes8 _measureType,          \n        bytes1 _timeCode,\n        uint8 _nbTime) \n        onlyCustomer() external{\n      \n        Counters.Counter memory alertConfigIdCounter;\n        Counters.Counter memory alertIdCounter;\n        Counters.Counter memory measureIdCounter;       \n\n        _services.push(Service(\n        _version, \n        _measureType,  \n        _timeCode,    \n        _nbTime,   \n        true,                        \n        _description, \n        address(0),\n        address(0),  \n        address(0),\n        alertConfigIdCounter,                       \n        measureIdCounter,\n        alertIdCounter));\n\n        emit ContractUpdate(\"New service\", msg.sender);\n\n        _serviceIdCounter.increment();\n    }  \n\n    function setTechMasterAddress(\n        uint _serviceId,\n        address _techMasterAddress)\n        isServiceOn(_serviceId) onlyOwner external {  \n        \n        _services[_serviceId].techMasterAddress = _techMasterAddress;\n\n        emit ServiceUpdate(_serviceId, \"Bridge Address update\", msg.sender);\n    }   \n\n    function setBridgeAddress(\n        uint _serviceId,\n        address _bridgeAddress)\n        isServiceOn(_serviceId) onlyTechMaster(_serviceId) external {  \n        \n        _services[_serviceId].bridgeAddress = _bridgeAddress;\n\n        emit ServiceUpdate(_serviceId, \"Bridge Address update\", msg.sender);\n    }   \n\n    function setLegislatorAddress(\n        uint _serviceId,\n        address _legislatorAddress)\n        isServiceOn(_serviceId) onlyCustomer() external {  \n        \n        _services[_serviceId].legislatorAddress = _legislatorAddress;\n\n        emit ServiceUpdate(_serviceId, \"Bridge Address update\", msg.sender);\n    }   \n    \n    function getOneService(\n        uint _serviceId) \n        external view returns(Service memory){   \n\n        return (\n            _services[_serviceId]            \n        );\n    }\n\n    function getAllServices() \n        external view returns(\n        Service[] memory){    \n\n        return (_services);\n    }\n\n    function addMeasure(\n        uint _serviceId,\n        bytes32 _measureHeader,\n        bytes32 _measurebody) \n        isServiceOn(_serviceId) onlyBridge(_serviceId) external {    \n        \n        _serviceHeaderMeasures[_serviceId].push(_measureHeader);\n        _serviceBodyMeasures[_serviceId].push(_measurebody);\n        \n        _services[_serviceId].measureIdCounter.increment();\n\n        emit MeasureReceive(_serviceId, _measureHeader, _measurebody, msg.sender);\n    }\n\n    function getAllMeasures(\n        uint _serviceId) \n        external view returns(\n            bytes32[] memory,\n            bytes32[] memory){\n              \n        return (_serviceHeaderMeasures[_serviceId], _serviceBodyMeasures[_serviceId]);\n    }\n    \n    function getMeasuresById(\n        uint _serviceId,\n        uint _measureId) \n        external view returns(\n            bytes32,\n            bytes32){\n              \n        return (_serviceHeaderMeasures[_serviceId][_measureId], _serviceBodyMeasures[_serviceId][_measureId]);\n    }  \n\n    function addAlertConfigCustomer(\n        uint _serviceId,\n        bytes8 _version, \n        string memory _description,  \n        uint64 _dateOn,\n        uint64 _dateOff,\n        bytes8 _codeAlert,         \n        bytes8 _valueAlert)         \n        isServiceOn(_serviceId) onlyCustomer() external{       \n            _addAlertConfig(_serviceId, _version, _description, address(0), _dateOn, _dateOff, _codeAlert, _valueAlert);\n    }\n\n    function addAlertConfigLegislator(\n        uint _serviceId,\n        bytes8 _version,   \n        string memory _description,  \n        uint64 _dateOn,\n        uint64 _dateOff,\n        bytes8 _codeAlert,         \n        bytes8 _valueAlert)         \n        isServiceOn(_serviceId) onlyLegislator(_serviceId) external{       \n            _addAlertConfig(_serviceId, _version, _description, msg.sender, _dateOn, _dateOff, _codeAlert, _valueAlert);\n    }\n\n    function _addAlertConfig(\n        uint _serviceId,\n        bytes8 _version,   \n        string memory _description,  \n        address _legislatorAddress,\n        uint64 _dateOn,\n        uint64 _dateOff,\n        bytes8 _codeAlert,\n        bytes8 _valueAlert)\n        internal{\n\n        _serviceAlertConfig[_serviceId].push(AlertConfig(\n            _version,    \n            _description,      \n            _legislatorAddress,\n            _dateOn,\n            _dateOff,\n            _codeAlert,\n            _valueAlert,\n            true\n        ));\n\n        _services[_serviceId].alertConfigIdCounter.increment();\n\n        emit ServiceUpdate(_serviceId, \"New Config Alert\", msg.sender);\n    }\n\n    function getAllAlertConfigs(\n        uint _serviceId) \n        external view returns(AlertConfig[] memory){\n              \n        return (_serviceAlertConfig[_serviceId]);\n    }\n\n    function addAlert(\n        uint _serviceId,\n        bytes32 _alertBody) \n        isServiceOn(_serviceId) onlyBridge(_serviceId) external {         \n                   \n        _serviceAlerts[_serviceId].push(_alertBody);\n        \n        _services[_serviceId].alertIdCounter.increment();\n\n        emit AlertReceive(_serviceId, _alertBody, msg.sender);\n    }\n\n    function getAlerts(\n        uint _serviceId) external view returns(\n            bytes32[] memory){\n            \n        return (_serviceAlerts[_serviceId]);        \n    }\n\n}\n",
  "sourcePath": "C:/Users/danie/Desktop/Solidity/Projet final/eco-capt/contracts/ClientContract.sol",
  "compiler": {
    "name": "solc",
    "version": "0.8.0+commit.c7dfd78e.Emscripten.clang"
  },
  "schemaVersion": "3.3.4",
  "updatedAt": "2021-04-09T14:19:04.892Z",
  "networkType": "ethereum",
  "devdoc": {
    "kind": "dev",
    "methods": {
      "owner()": {
        "details": "Returns the address of the current owner."
      },
      "renounceOwnership()": {
        "details": "Leaves the contract without owner. It will not be possible to call `onlyOwner` functions anymore. Can only be called by the current owner. NOTE: Renouncing ownership will leave the contract without an owner, thereby removing any functionality that is only available to the owner."
      },
      "transferOwnership(address)": {
        "details": "Transfers ownership of the contract to a new account (`newOwner`). Can only be called by the current owner."
      }
    },
    "version": 1
  },
  "userdoc": {
    "kind": "user",
    "methods": {},
    "version": 1
  }
}