{
  "contractName": "ClientContract",
  "abi": [
    {
      "inputs": [],
      "stateMutability": "nonpayable",
      "type": "constructor"
    },
    {
      "inputs": [
        {
          "internalType": "uint256",
          "name": "",
          "type": "uint256"
        },
        {
          "internalType": "uint256",
          "name": "",
          "type": "uint256"
        }
      ],
      "name": "_serviceBodyMeasures",
      "outputs": [
        {
          "internalType": "bytes32",
          "name": "",
          "type": "bytes32"
        }
      ],
      "stateMutability": "view",
      "type": "function",
      "constant": true
    },
    {
      "inputs": [
        {
          "internalType": "uint256",
          "name": "",
          "type": "uint256"
        },
        {
          "internalType": "uint256",
          "name": "",
          "type": "uint256"
        }
      ],
      "name": "_serviceHeaderMeasures",
      "outputs": [
        {
          "internalType": "bytes32",
          "name": "",
          "type": "bytes32"
        }
      ],
      "stateMutability": "view",
      "type": "function",
      "constant": true
    },
    {
      "inputs": [
        {
          "internalType": "uint256",
          "name": "",
          "type": "uint256"
        },
        {
          "internalType": "uint256",
          "name": "",
          "type": "uint256"
        }
      ],
      "name": "_serviceMacOT",
      "outputs": [
        {
          "internalType": "bytes6",
          "name": "",
          "type": "bytes6"
        }
      ],
      "stateMutability": "view",
      "type": "function",
      "constant": true
    },
    {
      "inputs": [
        {
          "internalType": "bytes8",
          "name": "_version",
          "type": "bytes8"
        },
        {
          "internalType": "string",
          "name": "_description",
          "type": "string"
        },
        {
          "internalType": "bytes8",
          "name": "_measureType",
          "type": "bytes8"
        },
        {
          "internalType": "bytes1",
          "name": "_timeCode",
          "type": "bytes1"
        },
        {
          "internalType": "uint8",
          "name": "_nbTime",
          "type": "uint8"
        }
      ],
      "name": "addService",
      "outputs": [],
      "stateMutability": "nonpayable",
      "type": "function"
    },
    {
      "inputs": [
        {
          "internalType": "uint256",
          "name": "_service_id",
          "type": "uint256"
        }
      ],
      "name": "getService_ClientVue",
      "outputs": [
        {
          "internalType": "bytes8",
          "name": "version",
          "type": "bytes8"
        },
        {
          "internalType": "string",
          "name": "description",
          "type": "string"
        },
        {
          "internalType": "bytes8",
          "name": "measureType",
          "type": "bytes8"
        },
        {
          "internalType": "bytes1",
          "name": "timeCode",
          "type": "bytes1"
        },
        {
          "internalType": "uint8",
          "name": "nbTime",
          "type": "uint8"
        },
        {
          "internalType": "bool",
          "name": "isActive",
          "type": "bool"
        }
      ],
      "stateMutability": "view",
      "type": "function",
      "constant": true
    },
    {
      "inputs": [],
      "name": "getServices",
      "outputs": [
        {
          "components": [
            {
              "internalType": "bytes8",
              "name": "version",
              "type": "bytes8"
            },
            {
              "internalType": "string",
              "name": "description",
              "type": "string"
            },
            {
              "internalType": "bytes8",
              "name": "measureType",
              "type": "bytes8"
            },
            {
              "internalType": "bytes1",
              "name": "timeCode",
              "type": "bytes1"
            },
            {
              "internalType": "uint8",
              "name": "nbTime",
              "type": "uint8"
            },
            {
              "internalType": "address",
              "name": "bridgeAddress",
              "type": "address"
            },
            {
              "internalType": "bool",
              "name": "isActive",
              "type": "bool"
            },
            {
              "components": [
                {
                  "internalType": "uint256",
                  "name": "_value",
                  "type": "uint256"
                }
              ],
              "internalType": "struct Counters.Counter",
              "name": "measureIdCounter",
              "type": "tuple"
            }
          ],
          "internalType": "struct ClientContract.Service[]",
          "name": "",
          "type": "tuple[]"
        }
      ],
      "stateMutability": "view",
      "type": "function",
      "constant": true
    },
    {
      "inputs": [
        {
          "internalType": "uint256",
          "name": "_serviceId",
          "type": "uint256"
        },
        {
          "internalType": "bytes32",
          "name": "_measureHeader",
          "type": "bytes32"
        },
        {
          "internalType": "bytes32",
          "name": "_measurebody",
          "type": "bytes32"
        }
      ],
      "name": "addMeasure",
      "outputs": [],
      "stateMutability": "nonpayable",
      "type": "function"
    },
    {
      "inputs": [
        {
          "internalType": "uint256",
          "name": "_serviceId",
          "type": "uint256"
        }
      ],
      "name": "getMeasures",
      "outputs": [
        {
          "internalType": "bytes32[]",
          "name": "",
          "type": "bytes32[]"
        },
        {
          "internalType": "bytes32[]",
          "name": "",
          "type": "bytes32[]"
        }
      ],
      "stateMutability": "view",
      "type": "function",
      "constant": true
    },
    {
      "inputs": [
        {
          "internalType": "uint256",
          "name": "_serviceId",
          "type": "uint256"
        },
        {
          "internalType": "uint256",
          "name": "_measureId",
          "type": "uint256"
        }
      ],
      "name": "getMeasuresById",
      "outputs": [
        {
          "internalType": "bytes32",
          "name": "",
          "type": "bytes32"
        },
        {
          "internalType": "bytes32",
          "name": "",
          "type": "bytes32"
        }
      ],
      "stateMutability": "view",
      "type": "function",
      "constant": true
    }
  ],
  "bytecode": "0x608060405234801561001057600080fd5b506118a0806100206000396000f3fe608060405234801561001057600080fd5b50600436106100935760003560e01c8063834e71ea11610066578063834e71ea146101475780638fab376614610177578063986ea8c1146101a8578063b2e733bf146101dd578063da6cd376146101f957610093565b80632669167a1461009857806335dc8feb146100c957806375417851146100f95780637f08510114610117575b600080fd5b6100b260048036038101906100ad9190611015565b610215565b6040516100c0929190611445565b60405180910390f35b6100e360048036038101906100de9190611015565b6102cf565b6040516100f0919061142a565b60405180910390f35b610101610300565b60405161010e9190611408565b60405180910390f35b610131600480360381019061012c9190611015565b610593565b60405161013e919061142a565b60405180910390f35b610161600480360381019061015c9190611015565b6105c4565b60405161016e919061146e565b60405180910390f35b610191600480360381019061018c9190610f9d565b61060a565b60405161019f9291906113d1565b60405180910390f35b6101c260048036038101906101bd9190610f9d565b6106e0565b6040516101d496959493929190611489565b60405180910390f35b6101f760048036038101906101f29190610fc6565b610993565b005b610213600480360381019061020e9190610f0e565b610b42565b005b600080600260008581526020019081526020016000208381548110610263577f4e487b7100000000000000000000000000000000000000000000000000000000600052603260045260246000fd5b90600052602060002001546003600086815260200190815260200160002084815481106102b9577f4e487b7100000000000000000000000000000000000000000000000000000000600052603260045260246000fd5b9060005260206000200154915091509250929050565b600360205281600052604060002081815481106102eb57600080fd5b90600052602060002001600091509150505481565b60606000805480602002602001604051908101604052809291908181526020016000905b8282101561058a5783829060005260206000209060040201604051806101000160405290816000820160009054906101000a900460c01b77ffffffffffffffffffffffffffffffffffffffffffffffff191677ffffffffffffffffffffffffffffffffffffffffffffffff191681526020016001820180546103a590611756565b80601f01602080910402602001604051908101604052809291908181526020018280546103d190611756565b801561041e5780601f106103f35761010080835404028352916020019161041e565b820191906000526020600020905b81548152906001019060200180831161040157829003601f168201915b505050505081526020016002820160009054906101000a900460c01b77ffffffffffffffffffffffffffffffffffffffffffffffff191677ffffffffffffffffffffffffffffffffffffffffffffffff191681526020016002820160089054906101000a900460f81b7effffffffffffffffffffffffffffffffffffffffffffffffffffffffffffff19167effffffffffffffffffffffffffffffffffffffffffffffffffffffffffffff191681526020016002820160099054906101000a900460ff1660ff1660ff16815260200160028201600a9054906101000a900473ffffffffffffffffffffffffffffffffffffffff1673ffffffffffffffffffffffffffffffffffffffff1673ffffffffffffffffffffffffffffffffffffffff16815260200160028201601e9054906101000a900460ff16151515158152602001600382016040518060200160405290816000820154815250508152505081526020019060010190610324565b50505050905090565b600260205281600052604060002081815481106105af57600080fd5b90600052602060002001600091509150505481565b600460205281600052604060002081815481106105e057600080fd5b9060005260206000209060059182820401919006600602915091509054906101000a900460d01b81565b60608060026000848152602001908152602001600020600360008581526020019081526020016000208180548060200260200160405190810160405280929190818152602001828054801561067e57602002820191906000526020600020905b81548152602001906001019080831161066a575b50505050509150808054806020026020016040519081016040528092919081815260200182805480156106d057602002820191906000526020600020905b8154815260200190600101908083116106bc575b5050505050905091509150915091565b6000606060008060008060008781548110610724577f4e487b7100000000000000000000000000000000000000000000000000000000600052603260045260246000fd5b906000526020600020906004020160000160009054906101000a900460c01b6000888154811061077d577f4e487b7100000000000000000000000000000000000000000000000000000000600052603260045260246000fd5b9060005260206000209060040201600101600089815481106107c8577f4e487b7100000000000000000000000000000000000000000000000000000000600052603260045260246000fd5b906000526020600020906004020160020160009054906101000a900460c01b60008a81548110610821577f4e487b7100000000000000000000000000000000000000000000000000000000600052603260045260246000fd5b906000526020600020906004020160020160089054906101000a900460f81b60008b8154811061087a577f4e487b7100000000000000000000000000000000000000000000000000000000600052603260045260246000fd5b906000526020600020906004020160020160099054906101000a900460ff1660008c815481106108d3577f4e487b7100000000000000000000000000000000000000000000000000000000600052603260045260246000fd5b9060005260206000209060040201600201601e9054906101000a900460ff168480546108fe90611756565b80601f016020809104026020016040519081016040528092919081815260200182805461092a90611756565b80156109775780601f1061094c57610100808354040283529160200191610977565b820191906000526020600020905b81548152906001019060200180831161095a57829003601f168201915b5050505050945095509550955095509550955091939550919395565b61099d6001610d63565b83106109de576040517f08c379a00000000000000000000000000000000000000000000000000000000081526004016109d5906114f1565b60405180910390fd5b60008381548110610a18577f4e487b7100000000000000000000000000000000000000000000000000000000600052603260045260246000fd5b9060005260206000209060040201600201601e9054906101000a900460ff16610a76576040517f08c379a0000000000000000000000000000000000000000000000000000000008152600401610a6d90611511565b60405180910390fd5b6002600084815260200190815260200160002082908060018154018082558091505060019003906000526020600020016000909190919091505560036000848152602001908152602001600020819080600181540180825580915050600190039060005260206000200160009091909190915055610b3d60008481548110610b27577f4e487b7100000000000000000000000000000000000000000000000000000000600052603260045260246000fd5b9060005260206000209060040201600301610d71565b505050565b610b4a610d87565b60006040518061010001604052808877ffffffffffffffffffffffffffffffffffffffffffffffff191681526020018781526020018677ffffffffffffffffffffffffffffffffffffffffffffffff19168152602001857effffffffffffffffffffffffffffffffffffffffffffffffffffffffffffff191681526020018460ff168152602001600073ffffffffffffffffffffffffffffffffffffffff16815260200160011515815260200183815250908060018154018082558091505060019003906000526020600020906004020160009091909190915060008201518160000160006101000a81548167ffffffffffffffff021916908360c01c02179055506020820151816001019080519060200190610c68929190610d9a565b5060408201518160020160006101000a81548167ffffffffffffffff021916908360c01c021790555060608201518160020160086101000a81548160ff021916908360f81c021790555060808201518160020160096101000a81548160ff021916908360ff16021790555060a082015181600201600a6101000a81548173ffffffffffffffffffffffffffffffffffffffff021916908373ffffffffffffffffffffffffffffffffffffffff16021790555060c082015181600201601e6101000a81548160ff02191690831515021790555060e0820151816003016000820151816000015550505050610d5b6001610d71565b505050505050565b600081600001549050919050565b6001816000016000828254019250508190555050565b6040518060200160405280600081525090565b828054610da690611756565b90600052602060002090601f016020900481019282610dc85760008555610e0f565b82601f10610de157805160ff1916838001178555610e0f565b82800160010185558215610e0f579182015b82811115610e0e578251825591602001919060010190610df3565b5b509050610e1c9190610e20565b5090565b5b80821115610e39576000816000905550600101610e21565b5090565b6000610e50610e4b84611562565b611531565b905082815260208101848484011115610e6857600080fd5b610e73848285611714565b509392505050565b600081359050610e8a816117f7565b92915050565b600081359050610e9f8161180e565b92915050565b600081359050610eb481611825565b92915050565b600082601f830112610ecb57600080fd5b8135610edb848260208601610e3d565b91505092915050565b600081359050610ef38161183c565b92915050565b600081359050610f0881611853565b92915050565b600080600080600060a08688031215610f2657600080fd5b6000610f3488828901610ea5565b955050602086013567ffffffffffffffff811115610f5157600080fd5b610f5d88828901610eba565b9450506040610f6e88828901610ea5565b9350506060610f7f88828901610e7b565b9250506080610f9088828901610ef9565b9150509295509295909350565b600060208284031215610faf57600080fd5b6000610fbd84828501610ee4565b91505092915050565b600080600060608486031215610fdb57600080fd5b6000610fe986828701610ee4565b9350506020610ffa86828701610e90565b925050604061100b86828701610e90565b9150509250925092565b6000806040838503121561102857600080fd5b600061103685828601610ee4565b925050602061104785828601610ee4565b9150509250929050565b600061105d838361119b565b60208301905092915050565b600061107583836112f4565b905092915050565b61108681611631565b82525050565b6000611097826115b2565b6110a181856115ed565b93506110ac83611592565b8060005b838110156110dd5781516110c48882611051565b97506110cf836115d3565b9250506001810190506110b0565b5085935050505092915050565b60006110f5826115bd565b6110ff81856115fe565b935083602082028501611111856115a2565b8060005b8581101561114d578484038952815161112e8582611069565b9450611139836115e0565b925060208a01995050600181019050611115565b50829750879550505050505092915050565b61116881611643565b82525050565b61117781611643565b82525050565b6111868161164f565b82525050565b6111958161164f565b82525050565b6111a48161167b565b82525050565b6111b38161167b565b82525050565b6111c281611685565b82525050565b6111d1816116b1565b82525050565b6111e0816116b1565b82525050565b60006111f1826115c8565b6111fb818561160f565b935061120b818560208601611723565b611214816117e6565b840191505092915050565b600061122a826115c8565b6112348185611620565b9350611244818560208601611723565b61124d816117e6565b840191505092915050565b6000611265601183611620565b91507f53657276696365206e6f742065786973740000000000000000000000000000006000830152602082019050919050565b60006112a5601083611620565b91507f53657276696365206f6666206c696e65000000000000000000000000000000006000830152602082019050919050565b6020820160008201516112ee60008501826113a4565b50505050565b60006101008301600083015161130d60008601826111c8565b506020830151848203602086015261132582826111e6565b915050604083015161133a60408601826111c8565b50606083015161134d606086018261117d565b50608083015161136060808601826113b3565b5060a083015161137360a086018261107d565b5060c083015161138660c086018261115f565b5060e083015161139960e08601826112d8565b508091505092915050565b6113ad816116fd565b82525050565b6113bc81611707565b82525050565b6113cb81611707565b82525050565b600060408201905081810360008301526113eb818561108c565b905081810360208301526113ff818461108c565b90509392505050565b6000602082019050818103600083015261142281846110ea565b905092915050565b600060208201905061143f60008301846111aa565b92915050565b600060408201905061145a60008301856111aa565b61146760208301846111aa565b9392505050565b600060208201905061148360008301846111b9565b92915050565b600060c08201905061149e60008301896111d7565b81810360208301526114b0818861121f565b90506114bf60408301876111d7565b6114cc606083018661118c565b6114d960808301856113c2565b6114e660a083018461116e565b979650505050505050565b6000602082019050818103600083015261150a81611258565b9050919050565b6000602082019050818103600083015261152a81611298565b9050919050565b6000604051905081810181811067ffffffffffffffff82111715611558576115576117b7565b5b8060405250919050565b600067ffffffffffffffff82111561157d5761157c6117b7565b5b601f19601f8301169050602081019050919050565b6000819050602082019050919050565b6000819050602082019050919050565b600081519050919050565b600081519050919050565b600081519050919050565b6000602082019050919050565b6000602082019050919050565b600082825260208201905092915050565b600082825260208201905092915050565b600082825260208201905092915050565b600082825260208201905092915050565b600061163c826116dd565b9050919050565b60008115159050919050565b60007fff0000000000000000000000000000000000000000000000000000000000000082169050919050565b6000819050919050565b60007fffffffffffff000000000000000000000000000000000000000000000000000082169050919050565b60007fffffffffffffffff00000000000000000000000000000000000000000000000082169050919050565b600073ffffffffffffffffffffffffffffffffffffffff82169050919050565b6000819050919050565b600060ff82169050919050565b82818337600083830152505050565b60005b83811015611741578082015181840152602081019050611726565b83811115611750576000848401525b50505050565b6000600282049050600182168061176e57607f821691505b6020821081141561178257611781611788565b5b50919050565b7f4e487b7100000000000000000000000000000000000000000000000000000000600052602260045260246000fd5b7f4e487b7100000000000000000000000000000000000000000000000000000000600052604160045260246000fd5b6000601f19601f8301169050919050565b6118008161164f565b811461180b57600080fd5b50565b6118178161167b565b811461182257600080fd5b50565b61182e816116b1565b811461183957600080fd5b50565b611845816116fd565b811461185057600080fd5b50565b61185c81611707565b811461186757600080fd5b5056fea2646970667358221220878a49477bd7913fc90bb2d900b29081522383f21b50ee89d7dcfe995888c10464736f6c63430008000033",
  "immutableReferences": {},
  "source": "// SPDX-License-Identifier: MIT\npragma solidity ^0.8.0;\n\nimport \"../node_modules/@openzeppelin/contracts/utils/Counters.sol\";\n\ncontract ClientContract {\n    using Counters for Counters.Counter;\n    \n    /**\n    * @dev Contract Configuration\n    */\n    struct Config {\n        address ownerAdress;\n        address customerAddress;\n        address prevContract;\n        address nextContract;\n        bytes8 version;\n        uint64 datePrevContract;\n        uint64 nextPrevContract;\n    }\n    \n    // struct mesure en-tte (32) { \n    //   //V0.1     XX.XX.XX    00.01.00\n    //   Version : bytes8;\n    //   Date : YYYYmmddHHii : byte12\n    //   Type de mesureID : bytes8 - CODE : 4 chiffre/lettre pour la nature physique - 4 chiffre/lettre pour la version\n    //   Type temporel : bytes1 (Horaire, Journalier) Y m d H i\n    //   Nb temporel : bytes3 \n    // }\n    \n    // struct mesure donne (32) { \n    //   Valeur Max : bytes8\n    //   Valeur Moyenne : bytes8\n    //   Valeur Mdiane : bytes8\n    //   Valeur Min : bytes8\n    // }\n    \n    struct Service {\n        bytes8 version;\n        string description;\n        bytes8 measureType;\n        bytes1 timeCode;\n        uint8 nbTime;\n        address bridgeAddress;\n        bool isActive;\n        Counters.Counter measureIdCounter;\n    }\n    \n    Service[] private _services;\n    Counters.Counter private _serviceIdCounter;\n    mapping(uint => bytes32[]) public _serviceHeaderMeasures;\n    mapping(uint => bytes32[]) public _serviceBodyMeasures;\n    mapping(uint => bytes6[]) public _serviceMacOT;\n        \n    constructor () {\n        //TO CONFIG\n    }\n\n    function addService(\n        bytes8 _version,  \n        string memory _description,\n        bytes8 _measureType,          \n        bytes1 _timeCode,\n        uint8 _nbTime) external{\n        \n        Counters.Counter memory measureIdCounter;\n        \n        _services.push(Service(\n        _version, \n        _description, \n        _measureType,\n        _timeCode, \n        _nbTime,\n        address(0),\n        true,\n        measureIdCounter));\n        \n        _serviceIdCounter.increment();\n    }  \n    \n    function getService_ClientVue(\n        uint _service_id) external view returns(\n            bytes8 version, \n            string memory description, \n            bytes8 measureType,            \n            bytes1 timeCode, \n            uint8 nbTime,\n            bool isActive){\n            \n        return (\n            _services[_service_id].version,\n            _services[_service_id].description,\n            _services[_service_id].measureType,            \n            _services[_service_id].timeCode,\n            _services[_service_id].nbTime,\n            _services[_service_id].isActive                \n        );\n    }\n\n    function getServices() external view returns(\n            Service[] memory\n            ){     \n        return (_services);\n    }\n\n    function addMeasure(\n        uint _serviceId,\n        bytes32 _measureHeader,\n        bytes32 _measurebody) external {\n            \n        require(_serviceId < _serviceIdCounter.current(), \"Service not exist\");\n        require(_services[_serviceId].isActive, \"Service off line\"); \n        \n        _serviceHeaderMeasures[_serviceId].push(_measureHeader);\n        _serviceBodyMeasures[_serviceId].push(_measurebody);\n        \n        _services[_serviceId].measureIdCounter.increment();\n    }\n  \n    function getMeasures(\n        uint _serviceId) external view returns(\n            bytes32[] memory,\n            bytes32[] memory){\n              \n        return (_serviceHeaderMeasures[_serviceId], _serviceBodyMeasures[_serviceId]);\n    }\n    \n    function getMeasuresById(\n        uint _serviceId,\n        uint _measureId) external view returns(\n            bytes32,\n            bytes32){\n              \n        return (_serviceHeaderMeasures[_serviceId][_measureId], _serviceBodyMeasures[_serviceId][_measureId]);\n    }  \n\n}\n",
  "sourcePath": "C:/Users/danie/Desktop/Solidity/Projet final/eco-capt/contracts/ClientContract.sol",
  "compiler": {
    "name": "solc",
    "version": "0.8.0+commit.c7dfd78e.Emscripten.clang"
  },
  "schemaVersion": "3.3.4",
  "updatedAt": "2021-04-06T16:42:30.338Z",
  "networkType": "ethereum",
  "devdoc": {
    "kind": "dev",
    "methods": {},
    "version": 1
  },
  "userdoc": {
    "kind": "user",
    "methods": {},
    "version": 1
  }
}