{
  "contractName": "ClientContract2",
  "abi": [
    {
      "inputs": [
        {
          "internalType": "bytes8",
          "name": "_version",
          "type": "bytes8"
        },
        {
          "internalType": "uint32",
          "name": "_clientId",
          "type": "uint32"
        },
        {
          "internalType": "address",
          "name": "_customerAddress",
          "type": "address"
        },
        {
          "internalType": "address",
          "name": "_prevContract",
          "type": "address"
        },
        {
          "internalType": "uint64",
          "name": "_prevContractDate",
          "type": "uint64"
        }
      ],
      "stateMutability": "nonpayable",
      "type": "constructor"
    },
    {
      "anonymous": false,
      "inputs": [
        {
          "indexed": false,
          "internalType": "uint256",
          "name": "_serviceId",
          "type": "uint256"
        },
        {
          "indexed": false,
          "internalType": "uint256",
          "name": "_alertConfigId",
          "type": "uint256"
        },
        {
          "indexed": false,
          "internalType": "bytes32",
          "name": "_alert",
          "type": "bytes32"
        },
        {
          "indexed": false,
          "internalType": "address",
          "name": "_author",
          "type": "address"
        }
      ],
      "name": "AlertReceive",
      "type": "event"
    },
    {
      "anonymous": false,
      "inputs": [
        {
          "indexed": false,
          "internalType": "string",
          "name": "_message",
          "type": "string"
        },
        {
          "indexed": false,
          "internalType": "address",
          "name": "_author",
          "type": "address"
        }
      ],
      "name": "ContractUpdate",
      "type": "event"
    },
    {
      "anonymous": false,
      "inputs": [
        {
          "indexed": false,
          "internalType": "uint256",
          "name": "_serviceId",
          "type": "uint256"
        },
        {
          "indexed": false,
          "internalType": "bytes32",
          "name": "_header",
          "type": "bytes32"
        },
        {
          "indexed": false,
          "internalType": "bytes32",
          "name": "_body",
          "type": "bytes32"
        },
        {
          "indexed": false,
          "internalType": "address",
          "name": "_author",
          "type": "address"
        }
      ],
      "name": "MeasureReceive",
      "type": "event"
    },
    {
      "anonymous": false,
      "inputs": [
        {
          "indexed": true,
          "internalType": "address",
          "name": "previousOwner",
          "type": "address"
        },
        {
          "indexed": true,
          "internalType": "address",
          "name": "newOwner",
          "type": "address"
        }
      ],
      "name": "OwnershipTransferred",
      "type": "event"
    },
    {
      "anonymous": false,
      "inputs": [
        {
          "indexed": false,
          "internalType": "uint256",
          "name": "_serviceId",
          "type": "uint256"
        },
        {
          "indexed": false,
          "internalType": "bytes6",
          "name": "_iotId",
          "type": "bytes6"
        },
        {
          "indexed": false,
          "internalType": "string",
          "name": "_message",
          "type": "string"
        },
        {
          "indexed": false,
          "internalType": "address",
          "name": "_author",
          "type": "address"
        }
      ],
      "name": "ServiceIotUpdate",
      "type": "event"
    },
    {
      "anonymous": false,
      "inputs": [
        {
          "indexed": false,
          "internalType": "uint256",
          "name": "_serviceId",
          "type": "uint256"
        },
        {
          "indexed": false,
          "internalType": "uint256",
          "name": "_ruleId",
          "type": "uint256"
        },
        {
          "indexed": false,
          "internalType": "string",
          "name": "_message",
          "type": "string"
        },
        {
          "indexed": false,
          "internalType": "address",
          "name": "_author",
          "type": "address"
        }
      ],
      "name": "ServiceRulesUpdate",
      "type": "event"
    },
    {
      "anonymous": false,
      "inputs": [
        {
          "indexed": false,
          "internalType": "uint256",
          "name": "_serviceId",
          "type": "uint256"
        },
        {
          "indexed": false,
          "internalType": "string",
          "name": "_message",
          "type": "string"
        },
        {
          "indexed": false,
          "internalType": "address",
          "name": "_author",
          "type": "address"
        }
      ],
      "name": "ServiceUpdate",
      "type": "event"
    },
    {
      "inputs": [],
      "name": "_myConfig",
      "outputs": [
        {
          "internalType": "bytes8",
          "name": "version",
          "type": "bytes8"
        },
        {
          "internalType": "uint32",
          "name": "clientId",
          "type": "uint32"
        },
        {
          "internalType": "uint64",
          "name": "prevContractDate",
          "type": "uint64"
        },
        {
          "internalType": "uint64",
          "name": "nextContractDate",
          "type": "uint64"
        },
        {
          "internalType": "address",
          "name": "customerAddress",
          "type": "address"
        },
        {
          "internalType": "address",
          "name": "prevContract",
          "type": "address"
        },
        {
          "internalType": "address",
          "name": "nextContract",
          "type": "address"
        },
        {
          "internalType": "bool",
          "name": "isActive",
          "type": "bool"
        }
      ],
      "stateMutability": "view",
      "type": "function",
      "constant": true
    },
    {
      "inputs": [],
      "name": "_ruleIdCounter",
      "outputs": [
        {
          "internalType": "uint256",
          "name": "_value",
          "type": "uint256"
        }
      ],
      "stateMutability": "view",
      "type": "function",
      "constant": true
    },
    {
      "inputs": [],
      "name": "_serviceIdCounter",
      "outputs": [
        {
          "internalType": "uint256",
          "name": "_value",
          "type": "uint256"
        }
      ],
      "stateMutability": "view",
      "type": "function",
      "constant": true
    },
    {
      "inputs": [
        {
          "internalType": "uint256",
          "name": "",
          "type": "uint256"
        },
        {
          "internalType": "bytes6",
          "name": "",
          "type": "bytes6"
        }
      ],
      "name": "_serviceIots",
      "outputs": [
        {
          "internalType": "string",
          "name": "description",
          "type": "string"
        },
        {
          "internalType": "bool",
          "name": "isActive",
          "type": "bool"
        }
      ],
      "stateMutability": "view",
      "type": "function",
      "constant": true
    },
    {
      "inputs": [
        {
          "internalType": "uint256",
          "name": "",
          "type": "uint256"
        }
      ],
      "name": "_serviceRules",
      "outputs": [
        {
          "internalType": "bytes8",
          "name": "version",
          "type": "bytes8"
        },
        {
          "internalType": "uint16",
          "name": "serviceId",
          "type": "uint16"
        },
        {
          "internalType": "string",
          "name": "description",
          "type": "string"
        },
        {
          "internalType": "address",
          "name": "legislatorAddress",
          "type": "address"
        },
        {
          "internalType": "uint64",
          "name": "dateOn",
          "type": "uint64"
        },
        {
          "internalType": "uint64",
          "name": "dateOff",
          "type": "uint64"
        },
        {
          "internalType": "bytes8",
          "name": "codeAlert",
          "type": "bytes8"
        },
        {
          "internalType": "bytes8",
          "name": "valueAlert",
          "type": "bytes8"
        },
        {
          "internalType": "bool",
          "name": "isActive",
          "type": "bool"
        },
        {
          "components": [
            {
              "internalType": "uint256",
              "name": "_value",
              "type": "uint256"
            }
          ],
          "internalType": "struct Counters.Counter",
          "name": "alertIdCounter",
          "type": "tuple"
        }
      ],
      "stateMutability": "view",
      "type": "function",
      "constant": true
    },
    {
      "inputs": [
        {
          "internalType": "uint256",
          "name": "",
          "type": "uint256"
        }
      ],
      "name": "_services",
      "outputs": [
        {
          "internalType": "bytes8",
          "name": "version",
          "type": "bytes8"
        },
        {
          "internalType": "bytes8",
          "name": "measureType",
          "type": "bytes8"
        },
        {
          "internalType": "bytes1",
          "name": "timeCode",
          "type": "bytes1"
        },
        {
          "internalType": "uint8",
          "name": "nbTime",
          "type": "uint8"
        },
        {
          "internalType": "bool",
          "name": "isActive",
          "type": "bool"
        },
        {
          "internalType": "string",
          "name": "description",
          "type": "string"
        },
        {
          "internalType": "address",
          "name": "bridgeAddress",
          "type": "address"
        },
        {
          "internalType": "address",
          "name": "techMasterAddress",
          "type": "address"
        },
        {
          "internalType": "address",
          "name": "legislatorAddress",
          "type": "address"
        },
        {
          "components": [
            {
              "internalType": "uint256",
              "name": "_value",
              "type": "uint256"
            }
          ],
          "internalType": "struct Counters.Counter",
          "name": "measureIdCounter",
          "type": "tuple"
        },
        {
          "components": [
            {
              "internalType": "uint256",
              "name": "_value",
              "type": "uint256"
            }
          ],
          "internalType": "struct Counters.Counter",
          "name": "IotIdCounter",
          "type": "tuple"
        }
      ],
      "stateMutability": "view",
      "type": "function",
      "constant": true
    },
    {
      "inputs": [],
      "name": "owner",
      "outputs": [
        {
          "internalType": "address",
          "name": "",
          "type": "address"
        }
      ],
      "stateMutability": "view",
      "type": "function",
      "constant": true
    },
    {
      "inputs": [],
      "name": "renounceOwnership",
      "outputs": [],
      "stateMutability": "nonpayable",
      "type": "function"
    },
    {
      "inputs": [
        {
          "internalType": "address",
          "name": "newOwner",
          "type": "address"
        }
      ],
      "name": "transferOwnership",
      "outputs": [],
      "stateMutability": "nonpayable",
      "type": "function"
    },
    {
      "inputs": [],
      "name": "toggleContract",
      "outputs": [],
      "stateMutability": "nonpayable",
      "type": "function"
    },
    {
      "inputs": [
        {
          "internalType": "bytes8",
          "name": "_version",
          "type": "bytes8"
        },
        {
          "internalType": "string",
          "name": "_description",
          "type": "string"
        },
        {
          "internalType": "bytes8",
          "name": "_measureType",
          "type": "bytes8"
        },
        {
          "internalType": "bytes1",
          "name": "_timeCode",
          "type": "bytes1"
        },
        {
          "internalType": "uint8",
          "name": "_nbTime",
          "type": "uint8"
        }
      ],
      "name": "addService",
      "outputs": [],
      "stateMutability": "nonpayable",
      "type": "function"
    },
    {
      "inputs": [
        {
          "internalType": "uint256",
          "name": "_serviceId",
          "type": "uint256"
        }
      ],
      "name": "toggleService",
      "outputs": [],
      "stateMutability": "nonpayable",
      "type": "function"
    },
    {
      "inputs": [
        {
          "internalType": "uint256",
          "name": "_serviceId",
          "type": "uint256"
        },
        {
          "internalType": "address",
          "name": "_techMasterAddress",
          "type": "address"
        }
      ],
      "name": "setTechMasterAddress",
      "outputs": [],
      "stateMutability": "nonpayable",
      "type": "function"
    },
    {
      "inputs": [
        {
          "internalType": "uint256",
          "name": "_serviceId",
          "type": "uint256"
        },
        {
          "internalType": "address",
          "name": "_bridgeAddress",
          "type": "address"
        }
      ],
      "name": "setBridgeAddress",
      "outputs": [],
      "stateMutability": "nonpayable",
      "type": "function"
    },
    {
      "inputs": [
        {
          "internalType": "uint256",
          "name": "_serviceId",
          "type": "uint256"
        },
        {
          "internalType": "address",
          "name": "_legislatorAddress",
          "type": "address"
        }
      ],
      "name": "setLegislatorAddress",
      "outputs": [],
      "stateMutability": "nonpayable",
      "type": "function"
    },
    {
      "inputs": [
        {
          "internalType": "uint256",
          "name": "_serviceId",
          "type": "uint256"
        },
        {
          "internalType": "bytes32",
          "name": "_measureHeader",
          "type": "bytes32"
        },
        {
          "internalType": "bytes32",
          "name": "_measurebody",
          "type": "bytes32"
        }
      ],
      "name": "addMeasure",
      "outputs": [],
      "stateMutability": "nonpayable",
      "type": "function"
    },
    {
      "inputs": [
        {
          "internalType": "bytes8",
          "name": "_version",
          "type": "bytes8"
        },
        {
          "internalType": "uint16",
          "name": "_serviceId",
          "type": "uint16"
        },
        {
          "internalType": "string",
          "name": "_description",
          "type": "string"
        },
        {
          "internalType": "uint64",
          "name": "_dateOn",
          "type": "uint64"
        },
        {
          "internalType": "uint64",
          "name": "_dateOff",
          "type": "uint64"
        },
        {
          "internalType": "bytes8",
          "name": "_codeAlert",
          "type": "bytes8"
        },
        {
          "internalType": "bytes8",
          "name": "_valueAlert",
          "type": "bytes8"
        }
      ],
      "name": "addRule",
      "outputs": [],
      "stateMutability": "nonpayable",
      "type": "function"
    },
    {
      "inputs": [
        {
          "internalType": "uint256",
          "name": "_ruleId",
          "type": "uint256"
        }
      ],
      "name": "toggleRule",
      "outputs": [],
      "stateMutability": "nonpayable",
      "type": "function"
    },
    {
      "inputs": [
        {
          "internalType": "uint256",
          "name": "_serviceId",
          "type": "uint256"
        },
        {
          "internalType": "uint256",
          "name": "_ruleId",
          "type": "uint256"
        },
        {
          "internalType": "bytes32",
          "name": "_alertBody",
          "type": "bytes32"
        }
      ],
      "name": "addAlert",
      "outputs": [],
      "stateMutability": "nonpayable",
      "type": "function"
    },
    {
      "inputs": [
        {
          "internalType": "uint256",
          "name": "_serviceId",
          "type": "uint256"
        },
        {
          "internalType": "bytes6",
          "name": "_macAddress",
          "type": "bytes6"
        },
        {
          "internalType": "string",
          "name": "_description",
          "type": "string"
        }
      ],
      "name": "addIot",
      "outputs": [],
      "stateMutability": "nonpayable",
      "type": "function"
    },
    {
      "inputs": [
        {
          "internalType": "uint256",
          "name": "_serviceId",
          "type": "uint256"
        },
        {
          "internalType": "bytes6",
          "name": "_macAddress",
          "type": "bytes6"
        }
      ],
      "name": "toggleIOT",
      "outputs": [],
      "stateMutability": "nonpayable",
      "type": "function"
    }
  ],
  "bytecode": "0x60806040523480156200001157600080fd5b50604051620042e0380380620042e08339818101604052810190620000379190620003b3565b6000620000496200034f60201b60201c565b9050806000806101000a81548173ffffffffffffffffffffffffffffffffffffffff021916908373ffffffffffffffffffffffffffffffffffffffff1602179055508073ffffffffffffffffffffffffffffffffffffffff16600073ffffffffffffffffffffffffffffffffffffffff167f8be0079c531659141344cd1fd0a4f28419497f9722a3daafe3b4186f6b6457e060405160405180910390a3506040518061010001604052808677ffffffffffffffffffffffffffffffffffffffffffffffff191681526020018563ffffffff1681526020018267ffffffffffffffff168152602001600067ffffffffffffffff1681526020018473ffffffffffffffffffffffffffffffffffffffff1681526020018373ffffffffffffffffffffffffffffffffffffffff168152602001600073ffffffffffffffffffffffffffffffffffffffff16815260200160011515815250600160008201518160000160006101000a81548167ffffffffffffffff021916908360c01c021790555060208201518160000160086101000a81548163ffffffff021916908363ffffffff160217905550604082015181600001600c6101000a81548167ffffffffffffffff021916908367ffffffffffffffff16021790555060608201518160000160146101000a81548167ffffffffffffffff021916908367ffffffffffffffff16021790555060808201518160010160006101000a81548173ffffffffffffffffffffffffffffffffffffffff021916908373ffffffffffffffffffffffffffffffffffffffff16021790555060a08201518160020160006101000a81548173ffffffffffffffffffffffffffffffffffffffff021916908373ffffffffffffffffffffffffffffffffffffffff16021790555060c08201518160030160006101000a81548173ffffffffffffffffffffffffffffffffffffffff021916908373ffffffffffffffffffffffffffffffffffffffff16021790555060e08201518160030160146101000a81548160ff021916908315150217905550905050505050505062000521565b600033905090565b6000815190506200036881620004b9565b92915050565b6000815190506200037f81620004d3565b92915050565b6000815190506200039681620004ed565b92915050565b600081519050620003ad8162000507565b92915050565b600080600080600060a08688031215620003cc57600080fd5b6000620003dc888289016200036e565b9550506020620003ef8882890162000385565b9450506040620004028882890162000357565b9350506060620004158882890162000357565b925050608062000428888289016200039c565b9150509295509295909350565b6000620004428262000475565b9050919050565b60007fffffffffffffffff00000000000000000000000000000000000000000000000082169050919050565b600073ffffffffffffffffffffffffffffffffffffffff82169050919050565b600063ffffffff82169050919050565b600067ffffffffffffffff82169050919050565b620004c48162000435565b8114620004d057600080fd5b50565b620004de8162000449565b8114620004ea57600080fd5b50565b620004f88162000495565b81146200050457600080fd5b50565b6200051281620004a5565b81146200051e57600080fd5b50565b613daf80620005316000396000f3fe608060405234801561001057600080fd5b50600436106101375760003560e01c80638da5cb5b116100b8578063c18ec58c1161007c578063c18ec58c14610319578063c700fdf714610335578063da6cd37614610353578063e0c9d4bb1461036f578063e8d290841461038b578063f2fde38b146103a757610137565b80638da5cb5b1461029457806399892f49146102b25780639df90028146102d7578063b2e733bf146102e1578063b9d3106b146102fd57610137565b80634e35b4fc116100ff5780634e35b4fc146101dd5780635813d736146101f9578063715018a6146102325780637ad3155f1461023c5780638181b80d1461025a57610137565b806306566faa1461013c5780632cb95cec14610158578063390fc6b61461018957806341ca4812146101a55780634c6fdcc6146101c1575b600080fd5b61015660048036038101906101519190612d03565b6103c3565b005b610172600480360381019061016d9190612d8e565b610676565b6040516101809291906135ec565b60405180910390f35b6101a3600480360381019061019e9190612cda565b61073c565b005b6101bf60048036038101906101ba9190612c24565b61089b565b005b6101db60048036038101906101d69190612d03565b610b7c565b005b6101f760048036038101906101f29190612d8e565b610dc8565b005b610213600480360381019061020e9190612cda565b6110d4565b6040516102299a999897969594939291906134cb565b60405180910390f35b61023a61124e565b005b610244611388565b60405161025191906137be565b60405180910390f35b610274600480360381019061026f9190612cda565b611394565b60405161028b9b9a99989796959493929190613419565b60405180910390f35b61029c61153f565b6040516102a991906133fe565b60405180910390f35b6102ba611568565b6040516102ce98979695949392919061356e565b60405180910390f35b6102df611650565b005b6102fb60048036038101906102f69190612d3f565b611735565b005b61031760048036038101906103129190612dca565b61197a565b005b610333600480360381019061032e9190612d03565b611c73565b005b61033d611f61565b60405161034a91906137be565b60405180910390f35b61036d60048036038101906103689190612b95565b611f6d565b005b61038960048036038101906103849190612cda565b6123d2565b005b6103a560048036038101906103a09190612e31565b61252f565b005b6103c160048036038101906103bc9190612b6c565b612774565b005b80600073ffffffffffffffffffffffffffffffffffffffff168173ffffffffffffffffffffffffffffffffffffffff1614156103fe57600080fd5b600160030160149054906101000a900460ff16610450576040517f08c379a0000000000000000000000000000000000000000000000000000000008152600401610447906136ca565b60405180910390fd5b8261045b600661291d565b811061049c576040517f08c379a0000000000000000000000000000000000000000000000000000000008152600401610493906136aa565b60405180910390fd5b6005600082815260200190815260200160002060000160129054906101000a900460ff166104ff576040517f08c379a00000000000000000000000000000000000000000000000000000000081526004016104f6906136ea565b60405180910390fd5b833373ffffffffffffffffffffffffffffffffffffffff166005600083815260200190815260200160002060030160009054906101000a900473ffffffffffffffffffffffffffffffffffffffff1673ffffffffffffffffffffffffffffffffffffffff1614806105a257503373ffffffffffffffffffffffffffffffffffffffff1661058a61153f565b73ffffffffffffffffffffffffffffffffffffffff16145b6105e1576040517f08c379a00000000000000000000000000000000000000000000000000000000081526004016105d89061370a565b60405180910390fd5b836005600087815260200190815260200160002060020160006101000a81548173ffffffffffffffffffffffffffffffffffffffff021916908373ffffffffffffffffffffffffffffffffffffffff1602179055507f6eb54bb1fcbc8b072bc7be4d66f909b2316584cb9b6c49bfdb6504b9246a848185336040516106679291906138ee565b60405180910390a15050505050565b6007602052816000526040600020602052806000526040600020600091509150508060000180546106a690613c09565b80601f01602080910402602001604051908101604052809291908181526020018280546106d290613c09565b801561071f5780601f106106f45761010080835404028352916020019161071f565b820191906000526020600020905b81548152906001019060200180831161070257829003601f168201915b5050505050908060010160009054906101000a900460ff16905082565b6008600082815260200190815260200160002060020160009054906101000a900473ffffffffffffffffffffffffffffffffffffffff1673ffffffffffffffffffffffffffffffffffffffff163373ffffffffffffffffffffffffffffffffffffffff1614806107de57506107af61153f565b73ffffffffffffffffffffffffffffffffffffffff163373ffffffffffffffffffffffffffffffffffffffff16145b6107e757600080fd5b7fd265572d82340957d58225c4530aa27f8dd410b1d09d9a4c77677d55a01cc1a16008600083815260200190815260200160002060000160089054906101000a900461ffff16823360405161083e9392919061372a565b60405180910390a16008600082815260200190815260200160002060030160189054906101000a900460ff16156008600083815260200190815260200160002060030160186101000a81548160ff02191690831515021790555050565b60003390506108a8612991565b6040518061014001604052808a77ffffffffffffffffffffffffffffffffffffffffffffffff191681526020018961ffff1681526020018881526020018373ffffffffffffffffffffffffffffffffffffffff1681526020018767ffffffffffffffff1681526020018667ffffffffffffffff1681526020018577ffffffffffffffffffffffffffffffffffffffffffffffff191681526020018477ffffffffffffffffffffffffffffffffffffffffffffffff19168152602001600115158152602001828152506008600061097e600961291d565b815260200190815260200160002060008201518160000160006101000a81548167ffffffffffffffff021916908360c01c021790555060208201518160000160086101000a81548161ffff021916908361ffff16021790555060408201518160010190805190602001906109f39291906129a4565b5060608201518160020160006101000a81548173ffffffffffffffffffffffffffffffffffffffff021916908373ffffffffffffffffffffffffffffffffffffffff16021790555060808201518160020160146101000a81548167ffffffffffffffff021916908367ffffffffffffffff16021790555060a08201518160030160006101000a81548167ffffffffffffffff021916908367ffffffffffffffff16021790555060c08201518160030160086101000a81548167ffffffffffffffff021916908360c01c021790555060e08201518160030160106101000a81548167ffffffffffffffff021916908360c01c02179055506101008201518160030160186101000a81548160ff021916908315150217905550610120820151816004016000820151816000015550509050507fd265572d82340957d58225c4530aa27f8dd410b1d09d9a4c77677d55a01cc1a188610b4f600961291d565b33604051610b5f93929190613774565b60405180910390a1610b71600961292b565b505050505050505050565b80600073ffffffffffffffffffffffffffffffffffffffff168173ffffffffffffffffffffffffffffffffffffffff161415610bb757600080fd5b600160030160149054906101000a900460ff16610c09576040517f08c379a0000000000000000000000000000000000000000000000000000000008152600401610c00906136ca565b60405180910390fd5b82610c14600661291d565b8110610c55576040517f08c379a0000000000000000000000000000000000000000000000000000000008152600401610c4c906136aa565b60405180910390fd5b6005600082815260200190815260200160002060000160129054906101000a900460ff16610cb8576040517f08c379a0000000000000000000000000000000000000000000000000000000008152600401610caf906136ea565b60405180910390fd5b610cc0612941565b73ffffffffffffffffffffffffffffffffffffffff16610cde61153f565b73ffffffffffffffffffffffffffffffffffffffff1614610d34576040517f08c379a0000000000000000000000000000000000000000000000000000000008152600401610d2b9061368a565b60405180910390fd5b826005600086815260200190815260200160002060030160006101000a81548173ffffffffffffffffffffffffffffffffffffffff021916908373ffffffffffffffffffffffffffffffffffffffff1602179055507f6eb54bb1fcbc8b072bc7be4d66f909b2316584cb9b6c49bfdb6504b9246a84818433604051610dba9291906138b2565b60405180910390a150505050565b600160030160149054906101000a900460ff16610e1a576040517f08c379a0000000000000000000000000000000000000000000000000000000008152600401610e11906136ca565b60405180910390fd5b81610e25600661291d565b8110610e66576040517f08c379a0000000000000000000000000000000000000000000000000000000008152600401610e5d906136aa565b60405180910390fd5b6005600082815260200190815260200160002060000160129054906101000a900460ff16610ec9576040517f08c379a0000000000000000000000000000000000000000000000000000000008152600401610ec0906136ea565b60405180910390fd5b823373ffffffffffffffffffffffffffffffffffffffff166005600083815260200190815260200160002060030160009054906101000a900473ffffffffffffffffffffffffffffffffffffffff1673ffffffffffffffffffffffffffffffffffffffff161480610f6c57503373ffffffffffffffffffffffffffffffffffffffff16610f5461153f565b73ffffffffffffffffffffffffffffffffffffffff16145b610fab576040517f08c379a0000000000000000000000000000000000000000000000000000000008152600401610fa29061370a565b60405180910390fd5b7fcde1a82fd39a63a298c011f93aac06d29c34d9a788a717826f0016b4c20470fc848433604051610fde9392919061381e565b60405180910390a16007600085815260200190815260200160002060008479ffffffffffffffffffffffffffffffffffffffffffffffffffff191679ffffffffffffffffffffffffffffffffffffffffffffffffffff1916815260200190815260200160002060010160009054906101000a900460ff16156007600086815260200190815260200160002060008579ffffffffffffffffffffffffffffffffffffffffffffffffffff191679ffffffffffffffffffffffffffffffffffffffffffffffffffff1916815260200190815260200160002060010160006101000a81548160ff02191690831515021790555050505050565b60086020528060005260406000206000915090508060000160009054906101000a900460c01b908060000160089054906101000a900461ffff169080600101805461111e90613c09565b80601f016020809104026020016040519081016040528092919081815260200182805461114a90613c09565b80156111975780601f1061116c57610100808354040283529160200191611197565b820191906000526020600020905b81548152906001019060200180831161117a57829003601f168201915b5050505050908060020160009054906101000a900473ffffffffffffffffffffffffffffffffffffffff16908060020160149054906101000a900467ffffffffffffffff16908060030160009054906101000a900467ffffffffffffffff16908060030160089054906101000a900460c01b908060030160109054906101000a900460c01b908060030160189054906101000a900460ff16908060040160405180602001604052908160008201548152505090508a565b611256612941565b73ffffffffffffffffffffffffffffffffffffffff1661127461153f565b73ffffffffffffffffffffffffffffffffffffffff16146112ca576040517f08c379a00000000000000000000000000000000000000000000000000000000081526004016112c19061368a565b60405180910390fd5b600073ffffffffffffffffffffffffffffffffffffffff1660008054906101000a900473ffffffffffffffffffffffffffffffffffffffff1673ffffffffffffffffffffffffffffffffffffffff167f8be0079c531659141344cd1fd0a4f28419497f9722a3daafe3b4186f6b6457e060405160405180910390a360008060006101000a81548173ffffffffffffffffffffffffffffffffffffffff021916908373ffffffffffffffffffffffffffffffffffffffff160217905550565b60098060000154905081565b60056020528060005260406000206000915090508060000160009054906101000a900460c01b908060000160089054906101000a900460c01b908060000160109054906101000a900460f81b908060000160119054906101000a900460ff16908060000160129054906101000a900460ff169080600101805461141690613c09565b80601f016020809104026020016040519081016040528092919081815260200182805461144290613c09565b801561148f5780601f106114645761010080835404028352916020019161148f565b820191906000526020600020905b81548152906001019060200180831161147257829003601f168201915b5050505050908060020160009054906101000a900473ffffffffffffffffffffffffffffffffffffffff16908060030160009054906101000a900473ffffffffffffffffffffffffffffffffffffffff16908060040160009054906101000a900473ffffffffffffffffffffffffffffffffffffffff169080600501604051806020016040529081600082015481525050908060060160405180602001604052908160008201548152505090508b565b60008060009054906101000a900473ffffffffffffffffffffffffffffffffffffffff16905090565b60018060000160009054906101000a900460c01b908060000160089054906101000a900463ffffffff169080600001600c9054906101000a900467ffffffffffffffff16908060000160149054906101000a900467ffffffffffffffff16908060010160009054906101000a900473ffffffffffffffffffffffffffffffffffffffff16908060020160009054906101000a900473ffffffffffffffffffffffffffffffffffffffff16908060030160009054906101000a900473ffffffffffffffffffffffffffffffffffffffff16908060030160149054906101000a900460ff16905088565b611658612941565b73ffffffffffffffffffffffffffffffffffffffff1661167661153f565b73ffffffffffffffffffffffffffffffffffffffff16146116cc576040517f08c379a00000000000000000000000000000000000000000000000000000000081526004016116c39061368a565b60405180910390fd5b7f74851bb416411c1b4cb986c13ce9b6a9e973e7948f03fc2e574ca42a6d3724d3336040516116fb919061363c565b60405180910390a1600160030160149054906101000a900460ff1615600160030160146101000a81548160ff021916908315150217905550565b600160030160149054906101000a900460ff16611787576040517f08c379a000000000000000000000000000000000000000000000000000000000815260040161177e906136ca565b60405180910390fd5b82611792600661291d565b81106117d3576040517f08c379a00000000000000000000000000000000000000000000000000000000081526004016117ca906136aa565b60405180910390fd5b6005600082815260200190815260200160002060000160129054906101000a900460ff16611836576040517f08c379a000000000000000000000000000000000000000000000000000000000815260040161182d906136ea565b60405180910390fd5b833373ffffffffffffffffffffffffffffffffffffffff166005600083815260200190815260200160002060020160009054906101000a900473ffffffffffffffffffffffffffffffffffffffff1673ffffffffffffffffffffffffffffffffffffffff1614806118d957503373ffffffffffffffffffffffffffffffffffffffff166118c161153f565b73ffffffffffffffffffffffffffffffffffffffff16145b611918576040517f08c379a000000000000000000000000000000000000000000000000000000000815260040161190f9061370a565b60405180910390fd5b6119366005600087815260200190815260200160002060050161292b565b7f818366328240e2ab5877d5eed27c1f3803a716f5700034371e2e520c650f57458585853360405161196b94939291906137d9565b60405180910390a15050505050565b600160030160149054906101000a900460ff166119cc576040517f08c379a00000000000000000000000000000000000000000000000000000000081526004016119c3906136ca565b60405180910390fd5b826119d7600661291d565b8110611a18576040517f08c379a0000000000000000000000000000000000000000000000000000000008152600401611a0f906136aa565b60405180910390fd5b6005600082815260200190815260200160002060000160129054906101000a900460ff16611a7b576040517f08c379a0000000000000000000000000000000000000000000000000000000008152600401611a72906136ea565b60405180910390fd5b833373ffffffffffffffffffffffffffffffffffffffff166005600083815260200190815260200160002060030160009054906101000a900473ffffffffffffffffffffffffffffffffffffffff1673ffffffffffffffffffffffffffffffffffffffff161480611b1e57503373ffffffffffffffffffffffffffffffffffffffff16611b0661153f565b73ffffffffffffffffffffffffffffffffffffffff16145b611b5d576040517f08c379a0000000000000000000000000000000000000000000000000000000008152600401611b549061370a565b60405180910390fd5b6040518060400160405280848152602001600115158152506007600087815260200190815260200160002060008679ffffffffffffffffffffffffffffffffffffffffffffffffffff191679ffffffffffffffffffffffffffffffffffffffffffffffffffff191681526020019081526020016000206000820151816000019080519060200190611bef9291906129a4565b5060208201518160010160006101000a81548160ff0219169083151502179055509050507fcde1a82fd39a63a298c011f93aac06d29c34d9a788a717826f0016b4c20470fc858533604051611c4693929190613868565b60405180910390a1611c6c6005600087815260200190815260200160002060060161292b565b5050505050565b80600073ffffffffffffffffffffffffffffffffffffffff168173ffffffffffffffffffffffffffffffffffffffff161415611cae57600080fd5b600160030160149054906101000a900460ff16611d00576040517f08c379a0000000000000000000000000000000000000000000000000000000008152600401611cf7906136ca565b60405180910390fd5b82611d0b600661291d565b8110611d4c576040517f08c379a0000000000000000000000000000000000000000000000000000000008152600401611d43906136aa565b60405180910390fd5b6005600082815260200190815260200160002060000160129054906101000a900460ff16611daf576040517f08c379a0000000000000000000000000000000000000000000000000000000008152600401611da6906136ea565b60405180910390fd5b3373ffffffffffffffffffffffffffffffffffffffff166001800160009054906101000a900473ffffffffffffffffffffffffffffffffffffffff1673ffffffffffffffffffffffffffffffffffffffff161480611e3f57503373ffffffffffffffffffffffffffffffffffffffff16611e2761153f565b73ffffffffffffffffffffffffffffffffffffffff16145b611e7e576040517f08c379a0000000000000000000000000000000000000000000000000000000008152600401611e759061370a565b60405180910390fd5b60011515611e8b84612949565b151514611ecd576040517f08c379a0000000000000000000000000000000000000000000000000000000008152600401611ec49061366a565b60405180910390fd5b826005600086815260200190815260200160002060040160006101000a81548173ffffffffffffffffffffffffffffffffffffffff021916908373ffffffffffffffffffffffffffffffffffffffff1602179055507f6eb54bb1fcbc8b072bc7be4d66f909b2316584cb9b6c49bfdb6504b9246a84818433604051611f5392919061392a565b60405180910390a150505050565b60068060000154905081565b3373ffffffffffffffffffffffffffffffffffffffff166001800160009054906101000a900473ffffffffffffffffffffffffffffffffffffffff1673ffffffffffffffffffffffffffffffffffffffff161480611ffd57503373ffffffffffffffffffffffffffffffffffffffff16611fe561153f565b73ffffffffffffffffffffffffffffffffffffffff16145b61203c576040517f08c379a00000000000000000000000000000000000000000000000000000000081526004016120339061370a565b60405180910390fd5b600160030160149054906101000a900460ff1661208e576040517f08c379a0000000000000000000000000000000000000000000000000000000008152600401612085906136ca565b60405180910390fd5b612096612991565b61209e612991565b6040518061016001604052808877ffffffffffffffffffffffffffffffffffffffffffffffff191681526020018677ffffffffffffffffffffffffffffffffffffffffffffffff19168152602001857effffffffffffffffffffffffffffffffffffffffffffffffffffffffffffff191681526020018460ff168152602001600115158152602001878152602001600073ffffffffffffffffffffffffffffffffffffffff168152602001600073ffffffffffffffffffffffffffffffffffffffff168152602001600073ffffffffffffffffffffffffffffffffffffffff168152602001838152602001828152506005600061219b600661291d565b815260200190815260200160002060008201518160000160006101000a81548167ffffffffffffffff021916908360c01c021790555060208201518160000160086101000a81548167ffffffffffffffff021916908360c01c021790555060408201518160000160106101000a81548160ff021916908360f81c021790555060608201518160000160116101000a81548160ff021916908360ff16021790555060808201518160000160126101000a81548160ff02191690831515021790555060a08201518160010190805190602001906122779291906129a4565b5060c08201518160020160006101000a81548173ffffffffffffffffffffffffffffffffffffffff021916908373ffffffffffffffffffffffffffffffffffffffff16021790555060e08201518160030160006101000a81548173ffffffffffffffffffffffffffffffffffffffff021916908373ffffffffffffffffffffffffffffffffffffffff1602179055506101008201518160040160006101000a81548173ffffffffffffffffffffffffffffffffffffffff021916908373ffffffffffffffffffffffffffffffffffffffff16021790555061012082015181600501600082015181600001555050610140820151816006016000820151816000015550509050507f6eb54bb1fcbc8b072bc7be4d66f909b2316584cb9b6c49bfdb6504b9246a84816123a8600661291d565b336040516123b7929190613966565b60405180910390a16123c9600661292b565b50505050505050565b3373ffffffffffffffffffffffffffffffffffffffff166001800160009054906101000a900473ffffffffffffffffffffffffffffffffffffffff1673ffffffffffffffffffffffffffffffffffffffff16148061246257503373ffffffffffffffffffffffffffffffffffffffff1661244a61153f565b73ffffffffffffffffffffffffffffffffffffffff16145b6124a1576040517f08c379a00000000000000000000000000000000000000000000000000000000081526004016124989061370a565b60405180910390fd5b7f6eb54bb1fcbc8b072bc7be4d66f909b2316584cb9b6c49bfdb6504b9246a848181336040516124d29291906139a2565b60405180910390a16005600082815260200190815260200160002060000160129054906101000a900460ff16156005600083815260200190815260200160002060000160126101000a81548160ff02191690831515021790555050565b600160030160149054906101000a900460ff16612581576040517f08c379a0000000000000000000000000000000000000000000000000000000008152600401612578906136ca565b60405180910390fd5b8261258c600661291d565b81106125cd576040517f08c379a00000000000000000000000000000000000000000000000000000000081526004016125c4906136aa565b60405180910390fd5b6005600082815260200190815260200160002060000160129054906101000a900460ff16612630576040517f08c379a0000000000000000000000000000000000000000000000000000000008152600401612627906136ea565b60405180910390fd5b833373ffffffffffffffffffffffffffffffffffffffff166005600083815260200190815260200160002060020160009054906101000a900473ffffffffffffffffffffffffffffffffffffffff1673ffffffffffffffffffffffffffffffffffffffff1614806126d357503373ffffffffffffffffffffffffffffffffffffffff166126bb61153f565b73ffffffffffffffffffffffffffffffffffffffff16145b612712576040517f08c379a00000000000000000000000000000000000000000000000000000000081526004016127099061370a565b60405180910390fd5b6127306008600086815260200190815260200160002060040161292b565b7f36134df50fb7d9b784ebe80f4738a13cede0c5efe526e5e9d8b95601d8cc900c8585853360405161276594939291906139de565b60405180910390a15050505050565b61277c612941565b73ffffffffffffffffffffffffffffffffffffffff1661279a61153f565b73ffffffffffffffffffffffffffffffffffffffff16146127f0576040517f08c379a00000000000000000000000000000000000000000000000000000000081526004016127e79061368a565b60405180910390fd5b600073ffffffffffffffffffffffffffffffffffffffff168173ffffffffffffffffffffffffffffffffffffffff161415612860576040517f08c379a00000000000000000000000000000000000000000000000000000000081526004016128579061361c565b60405180910390fd5b8073ffffffffffffffffffffffffffffffffffffffff1660008054906101000a900473ffffffffffffffffffffffffffffffffffffffff1673ffffffffffffffffffffffffffffffffffffffff167f8be0079c531659141344cd1fd0a4f28419497f9722a3daafe3b4186f6b6457e060405160405180910390a3806000806101000a81548173ffffffffffffffffffffffffffffffffffffffff021916908373ffffffffffffffffffffffffffffffffffffffff16021790555050565b600081600001549050919050565b6001816000016000828254019250508190555050565b600033905090565b60003373ffffffffffffffffffffffffffffffffffffffff168273ffffffffffffffffffffffffffffffffffffffff1614612987576001905061298c565b600190505b919050565b6040518060200160405280600081525090565b8280546129b090613c09565b90600052602060002090601f0160209004810192826129d25760008555612a19565b82601f106129eb57805160ff1916838001178555612a19565b82800160010185558215612a19579182015b82811115612a185782518255916020019190600101906129fd565b5b509050612a269190612a2a565b5090565b5b80821115612a43576000816000905550600101612a2b565b5090565b6000612a5a612a5584613a54565b613a23565b905082815260208101848484011115612a7257600080fd5b612a7d848285613bc7565b509392505050565b600081359050612a9481613caa565b92915050565b600081359050612aa981613cc1565b92915050565b600081359050612abe81613cd8565b92915050565b600081359050612ad381613cef565b92915050565b600081359050612ae881613d06565b92915050565b600082601f830112612aff57600080fd5b8135612b0f848260208601612a47565b91505092915050565b600081359050612b2781613d1d565b92915050565b600081359050612b3c81613d34565b92915050565b600081359050612b5181613d4b565b92915050565b600081359050612b6681613d62565b92915050565b600060208284031215612b7e57600080fd5b6000612b8c84828501612a85565b91505092915050565b600080600080600060a08688031215612bad57600080fd5b6000612bbb88828901612ad9565b955050602086013567ffffffffffffffff811115612bd857600080fd5b612be488828901612aee565b9450506040612bf588828901612ad9565b9350506060612c0688828901612a9a565b9250506080612c1788828901612b57565b9150509295509295909350565b600080600080600080600060e0888a031215612c3f57600080fd5b6000612c4d8a828b01612ad9565b9750506020612c5e8a828b01612b18565b965050604088013567ffffffffffffffff811115612c7b57600080fd5b612c878a828b01612aee565b9550506060612c988a828b01612b42565b9450506080612ca98a828b01612b42565b93505060a0612cba8a828b01612ad9565b92505060c0612ccb8a828b01612ad9565b91505092959891949750929550565b600060208284031215612cec57600080fd5b6000612cfa84828501612b2d565b91505092915050565b60008060408385031215612d1657600080fd5b6000612d2485828601612b2d565b9250506020612d3585828601612a85565b9150509250929050565b600080600060608486031215612d5457600080fd5b6000612d6286828701612b2d565b9350506020612d7386828701612aaf565b9250506040612d8486828701612aaf565b9150509250925092565b60008060408385031215612da157600080fd5b6000612daf85828601612b2d565b9250506020612dc085828601612ac4565b9150509250929050565b600080600060608486031215612ddf57600080fd5b6000612ded86828701612b2d565b9350506020612dfe86828701612ac4565b925050604084013567ffffffffffffffff811115612e1b57600080fd5b612e2786828701612aee565b9150509250925092565b600080600060608486031215612e4657600080fd5b6000612e5486828701612b2d565b9350506020612e6586828701612b2d565b9250506040612e7686828701612aaf565b9150509250925092565b612e8981613aa0565b82525050565b612e9881613ab2565b82525050565b612ea781613abe565b82525050565b612eb681613aea565b82525050565b612ec581613af4565b82525050565b612ed481613b20565b82525050565b6000612ee582613a84565b612eef8185613a8f565b9350612eff818560208601613bd6565b612f0881613c99565b840191505092915050565b6000612f20600a83613a8f565b91507f496f74206f6e2f6f6666000000000000000000000000000000000000000000006000830152602082019050919050565b6000612f60601983613a8f565b91507f546563684d6173746572204164647265737320757064617465000000000000006000830152602082019050919050565b6000612fa0601583613a8f565b91507f42726964676520416464726573732075706461746500000000000000000000006000830152602082019050919050565b6000612fe0602683613a8f565b91507f4f776e61626c653a206e6577206f776e657220697320746865207a65726f206160008301527f64647265737300000000000000000000000000000000000000000000000000006020830152604082019050919050565b6000613046601983613a8f565b91507f4c656769736c61746f72204164647265737320757064617465000000000000006000830152602082019050919050565b6000613086600c83613a8f565b91507f52756c6573206f6e2f6f666600000000000000000000000000000000000000006000830152602082019050919050565b60006130c6600f83613a8f565b91507f436f6e7472616374206f6e2f6f666600000000000000000000000000000000006000830152602082019050919050565b6000613106600883613a8f565b91507f4e65772052756c650000000000000000000000000000000000000000000000006000830152602082019050919050565b6000613146600b83613a8f565b91507f4e657720736572766963650000000000000000000000000000000000000000006000830152602082019050919050565b6000613186601483613a8f565b91507f4c656769737461746f72206e6f742076616c69640000000000000000000000006000830152602082019050919050565b60006131c6602083613a8f565b91507f4f776e61626c653a2063616c6c6572206973206e6f7420746865206f776e65726000830152602082019050919050565b6000613206601183613a8f565b91507f53657276696365206e6f742065786973740000000000000000000000000000006000830152602082019050919050565b6000613246600e83613a8f565b91507f53657276696365206f6e2f6f66660000000000000000000000000000000000006000830152602082019050919050565b6000613286601183613a8f565b91507f436f6e7472616374206f6666206c696e650000000000000000000000000000006000830152602082019050919050565b60006132c6601083613a8f565b91507f53657276696365206f6666206c696e65000000000000000000000000000000006000830152602082019050919050565b6000613306600d83613a8f565b91507f4163636573732064656e696564000000000000000000000000000000000000006000830152602082019050919050565b6000613346600983613a8f565b91507f496f7420616464656400000000000000000000000000000000000000000000006000830152602082019050919050565b60208201600082015161338f60008501826133b3565b50505050565b61339e81613b4c565b82525050565b6133ad81613bb5565b82525050565b6133bc81613b7a565b82525050565b6133cb81613b7a565b82525050565b6133da81613b84565b82525050565b6133e981613b94565b82525050565b6133f881613ba8565b82525050565b60006020820190506134136000830184612e80565b92915050565b60006101608201905061342f600083018e612ecb565b61343c602083018d612ecb565b613449604083018c612e9e565b613456606083018b6133ef565b613463608083018a612e8f565b81810360a08301526134758189612eda565b905061348460c0830188612e80565b61349160e0830187612e80565b61349f610100830186612e80565b6134ad610120830185613379565b6134bb610140830184613379565b9c9b505050505050505050505050565b6000610140820190506134e1600083018d612ecb565b6134ee602083018c613395565b8181036040830152613500818b612eda565b905061350f606083018a612e80565b61351c60808301896133e0565b61352960a08301886133e0565b61353660c0830187612ecb565b61354360e0830186612ecb565b613551610100830185612e8f565b61355f610120830184613379565b9b9a5050505050505050505050565b600061010082019050613584600083018b612ecb565b613591602083018a6133d1565b61359e60408301896133e0565b6135ab60608301886133e0565b6135b86080830187612e80565b6135c560a0830186612e80565b6135d260c0830185612e80565b6135df60e0830184612e8f565b9998505050505050505050565b600060408201905081810360008301526136068185612eda565b90506136156020830184612e8f565b9392505050565b6000602082019050818103600083015261363581612fd3565b9050919050565b60006040820190508181036000830152613655816130b9565b90506136646020830184612e80565b92915050565b6000602082019050818103600083015261368381613179565b9050919050565b600060208201905081810360008301526136a3816131b9565b9050919050565b600060208201905081810360008301526136c3816131f9565b9050919050565b600060208201905081810360008301526136e381613279565b9050919050565b60006020820190508181036000830152613703816132b9565b9050919050565b60006020820190508181036000830152613723816132f9565b9050919050565b600060808201905061373f60008301866133a4565b61374c60208301856133c2565b818103604083015261375d81613079565b905061376c6060830184612e80565b949350505050565b600060808201905061378960008301866133a4565b61379660208301856133c2565b81810360408301526137a7816130f9565b90506137b66060830184612e80565b949350505050565b60006020820190506137d360008301846133c2565b92915050565b60006080820190506137ee60008301876133c2565b6137fb6020830186612ead565b6138086040830185612ead565b6138156060830184612e80565b95945050505050565b600060808201905061383360008301866133c2565b6138406020830185612ebc565b818103604083015261385181612f13565b90506138606060830184612e80565b949350505050565b600060808201905061387d60008301866133c2565b61388a6020830185612ebc565b818103604083015261389b81613339565b90506138aa6060830184612e80565b949350505050565b60006060820190506138c760008301856133c2565b81810360208301526138d881612f53565b90506138e76040830184612e80565b9392505050565b600060608201905061390360008301856133c2565b818103602083015261391481612f93565b90506139236040830184612e80565b9392505050565b600060608201905061393f60008301856133c2565b818103602083015261395081613039565b905061395f6040830184612e80565b9392505050565b600060608201905061397b60008301856133c2565b818103602083015261398c81613139565b905061399b6040830184612e80565b9392505050565b60006060820190506139b760008301856133c2565b81810360208301526139c881613239565b90506139d76040830184612e80565b9392505050565b60006080820190506139f360008301876133c2565b613a0060208301866133c2565b613a0d6040830185612ead565b613a1a6060830184612e80565b95945050505050565b6000604051905081810181811067ffffffffffffffff82111715613a4a57613a49613c6a565b5b8060405250919050565b600067ffffffffffffffff821115613a6f57613a6e613c6a565b5b601f19601f8301169050602081019050919050565b600081519050919050565b600082825260208201905092915050565b6000613aab82613b5a565b9050919050565b60008115159050919050565b60007fff0000000000000000000000000000000000000000000000000000000000000082169050919050565b6000819050919050565b60007fffffffffffff000000000000000000000000000000000000000000000000000082169050919050565b60007fffffffffffffffff00000000000000000000000000000000000000000000000082169050919050565b600061ffff82169050919050565b600073ffffffffffffffffffffffffffffffffffffffff82169050919050565b6000819050919050565b600063ffffffff82169050919050565b600067ffffffffffffffff82169050919050565b600060ff82169050919050565b6000613bc082613b4c565b9050919050565b82818337600083830152505050565b60005b83811015613bf4578082015181840152602081019050613bd9565b83811115613c03576000848401525b50505050565b60006002820490506001821680613c2157607f821691505b60208210811415613c3557613c34613c3b565b5b50919050565b7f4e487b7100000000000000000000000000000000000000000000000000000000600052602260045260246000fd5b7f4e487b7100000000000000000000000000000000000000000000000000000000600052604160045260246000fd5b6000601f19601f8301169050919050565b613cb381613aa0565b8114613cbe57600080fd5b50565b613cca81613abe565b8114613cd557600080fd5b50565b613ce181613aea565b8114613cec57600080fd5b50565b613cf881613af4565b8114613d0357600080fd5b50565b613d0f81613b20565b8114613d1a57600080fd5b50565b613d2681613b4c565b8114613d3157600080fd5b50565b613d3d81613b7a565b8114613d4857600080fd5b50565b613d5481613b94565b8114613d5f57600080fd5b50565b613d6b81613ba8565b8114613d7657600080fd5b5056fea264697066735822122052079728e4515c8a9e3e71a537f0046ec2e52ade21a7f56d19f52d04a3a4968d64736f6c63430008000033",
  "immutableReferences": {},
  "source": "// SPDX-License-Identifier: MIT\r\npragma solidity 0.8.0;\r\n\r\nimport \"../node_modules/@openzeppelin/contracts/utils/Counters.sol\";\r\nimport \"../node_modules/@openzeppelin/contracts/access/Ownable.sol\";\r\n\r\ncontract ClientContract2 is Ownable {\r\n    using Counters for Counters.Counter;\r\n    \r\n    // struct mesure en-tte (32) { \r\n    //   //V0.1     XX.XX.XX    00.01.00\r\n    //   Version : bytes8;\r\n    //   Date : YYYYmmddHHii : byte12\r\n    //   Code de mesure : bytes8 - CODE : 4 chiffre/lettre pour la nature physique - 4 chiffre/lettre pour la version\r\n    //   Code temporel : bytes1 (Horaire, Journalier) Y m d H i\r\n    //   Nb temporel : bytes3 \r\n    // }\r\n    \r\n    // struct mesure donne (32) { \r\n    //   Valeur 1 Max : bytes8\r\n    //   Valeur 2 Moyenne : bytes8\r\n    //   Valeur 3 Mdiane : bytes8\r\n    //   Valeur 4 Min : bytes8\r\n    // }\r\n\r\n    // struct alert donne (32) { \r\n    //   Version : bytes8\r\n    //   CodeAlert : bytes4    \r\n    //   Date : YYYYmmddHHii : byte12\r\n    //   Valeur alert : bytes8\r\n    // }\r\n\r\n    /**\r\n    * @dev Structure of Configuration\r\n    * @notice Version and status of activation\r\n    * @notice Link to other contract\r\n    */\r\n    struct Config {\r\n        bytes8 version;\r\n        uint32 clientId;\r\n        uint64 prevContractDate;\r\n        uint64 nextContractDate;\r\n        address customerAddress;\r\n        address prevContract;\r\n        address nextContract;\r\n        bool isActive;\r\n    }\r\n    \r\n    /**\r\n     * @dev Structure of Service\r\n     * @notice Feature_V2 \r\n     */\r\n    struct Service {\r\n        bytes8 version;\r\n        bytes8 measureType;\r\n        bytes1 timeCode;\r\n        uint8 nbTime;\r\n        bool isActive;\r\n        string description;\r\n        address bridgeAddress;\r\n        address techMasterAddress;\r\n        address legislatorAddress;\r\n\r\n        Counters.Counter measureIdCounter;\r\n        Counters.Counter IotIdCounter;     \r\n    }\r\n\r\n    /**\r\n     * @dev Structure of AlertConfig\r\n     * @notice Feature_V2 \r\n     */\r\n    struct Rule {\r\n        bytes8 version;        \r\n        uint16 serviceId;\r\n        string description;   \r\n        address legislatorAddress;\r\n        uint64 dateOn;\r\n        uint64 dateOff;\r\n        bytes8 codeAlert;\r\n        bytes8 valueAlert;\r\n        bool isActive;\r\n\r\n        Counters.Counter alertIdCounter;         \r\n    }\r\n\r\n    /**\r\n     * @dev Structure of Iot\r\n     * @notice Feature_V2 \r\n     */\r\n    struct Iot {   \r\n        string description;\r\n        bool isActive;\r\n    }\r\n\r\n    modifier isAddressValid(address _addr){\r\n        require(_addr != address(0));\r\n        _;\r\n    }\r\n\r\n    modifier isContractActive() {\r\n        require(_myConfig.isActive, \"Contract off line\");\r\n        _;\r\n    }\r\n\r\n    modifier isServiceActive(uint _serviceId) {\r\n        require(_serviceId < _serviceIdCounter.current(), \"Service not exist\"); \r\n        require(_services[_serviceId].isActive, \"Service off line\"); \r\n        _;\r\n    }\r\n\r\n    modifier isRulesActive(uint _ruleId) {\r\n        require(_ruleId < _ruleIdCounter.current(), \"Rules not exist\"); \r\n        require(_serviceRules[_ruleId].isActive, \"Rules off line\"); \r\n        _;\r\n    }\r\n\r\n    modifier onlyCustomer() {\r\n        require (_myConfig.customerAddress == msg.sender || owner() ==  msg.sender, \"Access denied\");\r\n        _;\r\n    }\r\n\r\n    modifier onlyBridge(uint _serviceId) {\r\n        require (_services[_serviceId].bridgeAddress == msg.sender || owner() ==  msg.sender, \"Access denied\");\r\n        _;\r\n    }\r\n\r\n    modifier onlyTechMaster(uint _serviceId) {\r\n        require (_services[_serviceId].techMasterAddress == msg.sender || owner() ==  msg.sender, \"Access denied\");\r\n        _;\r\n    }\r\n\r\n    modifier onlyLegislator(uint _serviceId) {\r\n        require (_services[_serviceId].legislatorAddress == msg.sender || owner() ==  msg.sender, \"Access denied\");\r\n        _;\r\n    }\r\n\r\n    event ContractUpdate(string _message, address _author);      \r\n    \r\n    event ServiceUpdate(uint _serviceId, string _message, address _author);  \r\n    event ServiceRulesUpdate(uint _serviceId, uint _ruleId, string _message, address _author); \r\n    event ServiceIotUpdate(uint _serviceId, bytes6 _iotId, string _message, address _author); \r\n\r\n    event MeasureReceive(uint _serviceId, bytes32 _header, bytes32 _body, address _author); \r\n    event AlertReceive(uint _serviceId, uint _alertConfigId, bytes32 _alert, address _author);        \r\n\r\n    Config public _myConfig;\r\n\r\n    mapping(uint => Service) public _services;\r\n    Counters.Counter public _serviceIdCounter;\r\n\r\n    mapping(uint => mapping(bytes6 => Iot)) public _serviceIots;\r\n\r\n    mapping(uint => Rule) public _serviceRules;\r\n    Counters.Counter public _ruleIdCounter;\r\n\r\n    constructor (bytes8 _version, uint32 _clientId, address _customerAddress, address _prevContract, uint64 _prevContractDate) {\r\n        _myConfig = Config(\r\n            _version,\r\n            _clientId,\r\n            _prevContractDate,\r\n            0,\r\n            _customerAddress,\r\n            _prevContract,\r\n            address(0),\r\n            true\r\n        );\r\n        // TODO AJOUTER INSTANCE DU GRAND REGISTRE POUR POUVOIR Y ACCEDER SI NECESSAIRE\r\n    }\r\n  \r\n    /**\r\n     * @dev toggle a Contract activation or deactivation\r\n     */\r\n    function toggleContract()\r\n        onlyOwner() external {\r\n        emit ContractUpdate(\"Contract on/off\", msg.sender);\r\n        _myConfig.isActive = !_myConfig.isActive;\r\n    }    \r\n\r\n    // SERVICE PART\r\n\r\n     /**\r\n     * @dev add a Service\r\n     * @param _version bytes8 version of service\r\n     * @param _description string description for the dApps interface\r\n     * @param _measureType bytes8 type of measure for the dApps interface\r\n     * @param _timeCode bytes1 time code for the dApps interface\r\n     * @param _nbTime uint8 number of times for the dApps interface\r\n     */\r\n    function addService(\r\n        bytes8 _version,   \r\n        string memory _description,\r\n        bytes8 _measureType,          \r\n        bytes1 _timeCode,\r\n        uint8 _nbTime) \r\n        onlyCustomer() isContractActive() external{\r\n      \r\n        Counters.Counter memory measureIdCounter;       \r\n        Counters.Counter memory IotIdCounter;    \r\n\r\n        _services[_serviceIdCounter.current()] = Service(\r\n        _version, \r\n        _measureType,  \r\n        _timeCode,    \r\n        _nbTime,   \r\n        true,                     \r\n        _description, \r\n        address(0),\r\n        address(0),\r\n        address(0),                     \r\n        measureIdCounter,\r\n        IotIdCounter);\r\n\r\n        emit ServiceUpdate(_serviceIdCounter.current(), \"New service\", msg.sender); \r\n\r\n        _serviceIdCounter.increment();\r\n    }  \r\n\r\n    /**\r\n     * @dev toggle a Service activation or deactivation\r\n     * @param _serviceId index of service\r\n     */\r\n    function toggleService(\r\n        uint _serviceId)\r\n        onlyCustomer() external {\r\n\r\n        emit ServiceUpdate(_serviceId, \"Service on/off\", msg.sender);\r\n\r\n        _services[_serviceId].isActive = !_services[_serviceId].isActive;\r\n    }\r\n\r\n    /**\r\n     * @dev set a TechMasterAddress\r\n     * @param _serviceId index of service \r\n     * @param _techMasterAddress techMaster's address\r\n     */\r\n    function setTechMasterAddress(\r\n        uint _serviceId,\r\n        address _techMasterAddress)\r\n        isAddressValid(_techMasterAddress) isContractActive() isServiceActive(_serviceId) onlyOwner() external {  \r\n        \r\n        _services[_serviceId].techMasterAddress = _techMasterAddress;\r\n\r\n        emit ServiceUpdate(_serviceId, \"TechMaster Address update\", msg.sender);\r\n    }     \r\n\r\n    /**\r\n     * @dev set a BridgeAdress\r\n     * @param _serviceId index of service\r\n     * @param _bridgeAddress bridge's address\r\n     */\r\n    function setBridgeAddress(\r\n        uint _serviceId,\r\n        address _bridgeAddress)\r\n        isAddressValid(_bridgeAddress) isContractActive() isServiceActive(_serviceId) onlyTechMaster(_serviceId) external {  \r\n        \r\n        _services[_serviceId].bridgeAddress = _bridgeAddress;\r\n\r\n        emit ServiceUpdate(_serviceId, \"Bridge Address update\", msg.sender);\r\n    }   \r\n\r\n    /**\r\n     * @dev set a LegislatorAddress\r\n     * @param _serviceId index of service \r\n     * @param _legislatorAddress legislator's address\r\n     */\r\n    function setLegislatorAddress(\r\n        uint _serviceId,\r\n        address _legislatorAddress)\r\n        isAddressValid(_legislatorAddress) isContractActive() isServiceActive(_serviceId) onlyCustomer() external {  \r\n        \r\n        require(_checkValidLegislator(_legislatorAddress) == true, \"Legistator not valid\");\r\n\r\n        _services[_serviceId].legislatorAddress = _legislatorAddress;\r\n\r\n        emit ServiceUpdate(_serviceId, \"Legislator Address update\", msg.sender);\r\n    }     \r\n\r\n    function _checkValidLegislator(\r\n        address _address) \r\n        internal view \r\n        returns(bool _return){\r\n\r\n        if(_address != msg.sender)\r\n            return true;\r\n        // TODO LINK AU GRAND REGISTRE\r\n        return true;       \r\n    }\r\n\r\n    // MEASURE PART\r\n\r\n    /**\r\n     * @dev add a Measure\r\n     * @param _serviceId index of service \r\n     * @param _measureHeader header of the measure\r\n     * @param _measurebody body of the measure\r\n     */\r\n    function addMeasure(\r\n        uint _serviceId,\r\n        bytes32 _measureHeader,\r\n        bytes32 _measurebody) \r\n        isContractActive() isServiceActive(_serviceId) onlyBridge(_serviceId) external {    \r\n        \r\n        _services[_serviceId].measureIdCounter.increment();\r\n\r\n        emit MeasureReceive(_serviceId, _measureHeader, _measurebody, msg.sender);\r\n    }\r\n\r\n    // ALERT CONFIG PART\r\n\r\n    /**\r\n     * @dev add a fondation's alert config\r\n     * @param _serviceId index of service \r\n     * @param _version service's version\r\n     * @param _description alert config description \r\n     * @param _dateOn alert's starting date\r\n     * @param _dateOff alert's ending date\r\n     * @param _codeAlert alert's code\r\n     * @param _valueAlert alert's value\r\n     */\r\n    function addRule(\r\n        bytes8 _version,   \r\n        uint16 _serviceId,        \r\n        string memory _description,  \r\n        uint64 _dateOn,\r\n        uint64 _dateOff,\r\n        bytes8 _codeAlert,\r\n        bytes8 _valueAlert)\r\n        external {\r\n\r\n        address _legislatorAddress = msg.sender;\r\n\r\n        // TODO Penser  fermer la porte !!\r\n        // TODO Penser a vrifier que le service existe\r\n        \r\n        Counters.Counter memory alertIdCounter;\r\n\r\n        _serviceRules[_ruleIdCounter.current()] = Rule(\r\n            _version,  \r\n            _serviceId,  \r\n            _description,      \r\n            _legislatorAddress,\r\n            _dateOn,\r\n            _dateOff,\r\n            _codeAlert,\r\n            _valueAlert,\r\n            true,\r\n            alertIdCounter\r\n        );\r\n\r\n        emit ServiceRulesUpdate(_serviceId, _ruleIdCounter.current(), \"New Rule\", msg.sender);\r\n\r\n        _ruleIdCounter.increment();\r\n    }\r\n\r\n    /**\r\n     * @dev toggle an alert config\r\n     * @param _ruleId index of the alert config\r\n     */\r\n    function toggleRule(uint _ruleId) \r\n        external {\r\n\r\n        require ((msg.sender == _serviceRules[_ruleId].legislatorAddress) || (msg.sender == owner()));\r\n\r\n        emit ServiceRulesUpdate(_serviceRules[_ruleId].serviceId, _ruleId, \"Rules on/off\", msg.sender);\r\n        \r\n        _serviceRules[_ruleId].isActive = !_serviceRules[_ruleId].isActive;\r\n    }       \r\n\r\n    // ALERTS PART\r\n\r\n    /**\r\n     * @dev add an alert\r\n     * @param _serviceId index of service \r\n     * @param _alertBody alert's body\r\n     */    \r\n    function addAlert(\r\n        uint _serviceId,\r\n        uint _ruleId,\r\n        bytes32 _alertBody) \r\n        isContractActive() isServiceActive(_serviceId) onlyBridge(_serviceId) external {         \r\n                   \r\n        _serviceRules[_ruleId].alertIdCounter.increment();\r\n\r\n        emit AlertReceive(_serviceId, _ruleId, _alertBody, msg.sender);\r\n    }\r\n\r\n    // SERVICE IOT\r\n\r\n    /**\r\n     * @dev add a sensor to the list\r\n     * @param _serviceId index of service\r\n     * @param _macAddress sensor's mac address\r\n     * @param _description sensor's description\r\n     */      \r\n    function addIot(\r\n        uint _serviceId,\r\n        bytes6 _macAddress,\r\n        string memory _description) \r\n        isContractActive() isServiceActive(_serviceId) onlyTechMaster(_serviceId) external {  \r\n\r\n        _serviceIots[_serviceId][_macAddress] = Iot(\r\n            _description,      \r\n            true\r\n        );\r\n\r\n        emit ServiceIotUpdate(_serviceId, _macAddress, \"Iot added\", msg.sender); \r\n\r\n        _services[_serviceId].IotIdCounter.increment();   \r\n    }\r\n\r\n    /**\r\n     * @dev toggle a sensor activation or deactivation\r\n     * @param _serviceId index of service\r\n     * @param _macAddress index of sensor\r\n     */     \r\n    function toggleIOT(\r\n        uint _serviceId,\r\n        bytes6 _macAddress) \r\n        isContractActive() isServiceActive(_serviceId) onlyTechMaster(_serviceId) external { \r\n\r\n        emit ServiceIotUpdate(_serviceId, _macAddress, \"Iot on/off\", msg.sender);\r\n\r\n        _serviceIots[_serviceId][_macAddress].isActive = !_serviceIots[_serviceId][_macAddress].isActive;\r\n    }\r\n\r\n  \r\n\r\n}\r\n",
  "sourcePath": "C:/Users/danie/Desktop/Solidity/Projet final/eco-capt/contracts/ClientContract.sol",
  "compiler": {
    "name": "solc",
    "version": "0.8.0+commit.c7dfd78e.Emscripten.clang"
  },
  "schemaVersion": "3.3.4",
  "updatedAt": "2021-04-19T15:46:52.362Z",
  "networkType": "ethereum",
  "devdoc": {
    "kind": "dev",
    "methods": {
      "addAlert(uint256,uint256,bytes32)": {
        "details": "add an alert",
        "params": {
          "_alertBody": "alert's body",
          "_serviceId": "index of service "
        }
      },
      "addIot(uint256,bytes6,string)": {
        "details": "add a sensor to the list",
        "params": {
          "_description": "sensor's description",
          "_macAddress": "sensor's mac address",
          "_serviceId": "index of service"
        }
      },
      "addMeasure(uint256,bytes32,bytes32)": {
        "details": "add a Measure",
        "params": {
          "_measureHeader": "header of the measure",
          "_measurebody": "body of the measure",
          "_serviceId": "index of service "
        }
      },
      "addRule(bytes8,uint16,string,uint64,uint64,bytes8,bytes8)": {
        "details": "add a fondation's alert config",
        "params": {
          "_codeAlert": "alert's code",
          "_dateOff": "alert's ending date",
          "_dateOn": "alert's starting date",
          "_description": "alert config description ",
          "_serviceId": "index of service ",
          "_valueAlert": "alert's value",
          "_version": "service's version"
        }
      },
      "addService(bytes8,string,bytes8,bytes1,uint8)": {
        "details": "add a Service",
        "params": {
          "_description": "string description for the dApps interface",
          "_measureType": "bytes8 type of measure for the dApps interface",
          "_nbTime": "uint8 number of times for the dApps interface",
          "_timeCode": "bytes1 time code for the dApps interface",
          "_version": "bytes8 version of service"
        }
      },
      "owner()": {
        "details": "Returns the address of the current owner."
      },
      "renounceOwnership()": {
        "details": "Leaves the contract without owner. It will not be possible to call `onlyOwner` functions anymore. Can only be called by the current owner. NOTE: Renouncing ownership will leave the contract without an owner, thereby removing any functionality that is only available to the owner."
      },
      "setBridgeAddress(uint256,address)": {
        "details": "set a BridgeAdress",
        "params": {
          "_bridgeAddress": "bridge's address",
          "_serviceId": "index of service"
        }
      },
      "setLegislatorAddress(uint256,address)": {
        "details": "set a LegislatorAddress",
        "params": {
          "_legislatorAddress": "legislator's address",
          "_serviceId": "index of service "
        }
      },
      "setTechMasterAddress(uint256,address)": {
        "details": "set a TechMasterAddress",
        "params": {
          "_serviceId": "index of service ",
          "_techMasterAddress": "techMaster's address"
        }
      },
      "toggleContract()": {
        "details": "toggle a Contract activation or deactivation"
      },
      "toggleIOT(uint256,bytes6)": {
        "details": "toggle a sensor activation or deactivation",
        "params": {
          "_macAddress": "index of sensor",
          "_serviceId": "index of service"
        }
      },
      "toggleRule(uint256)": {
        "details": "toggle an alert config",
        "params": {
          "_ruleId": "index of the alert config"
        }
      },
      "toggleService(uint256)": {
        "details": "toggle a Service activation or deactivation",
        "params": {
          "_serviceId": "index of service"
        }
      },
      "transferOwnership(address)": {
        "details": "Transfers ownership of the contract to a new account (`newOwner`). Can only be called by the current owner."
      }
    },
    "version": 1
  },
  "userdoc": {
    "kind": "user",
    "methods": {},
    "version": 1
  }
}