{
  "contractName": "ClientContract",
  "abi": [
    {
      "inputs": [
        {
          "internalType": "bytes8",
          "name": "_version",
          "type": "bytes8"
        },
        {
          "internalType": "uint32",
          "name": "_clientId",
          "type": "uint32"
        },
        {
          "internalType": "address",
          "name": "_customerAddress",
          "type": "address"
        },
        {
          "internalType": "address",
          "name": "_prevContract",
          "type": "address"
        },
        {
          "internalType": "uint64",
          "name": "_prevContractDate",
          "type": "uint64"
        }
      ],
      "stateMutability": "nonpayable",
      "type": "constructor"
    },
    {
      "anonymous": false,
      "inputs": [
        {
          "indexed": false,
          "internalType": "uint256",
          "name": "_serviceId",
          "type": "uint256"
        },
        {
          "indexed": false,
          "internalType": "uint256",
          "name": "_alertConfigId",
          "type": "uint256"
        },
        {
          "indexed": false,
          "internalType": "bytes32",
          "name": "_alert",
          "type": "bytes32"
        },
        {
          "indexed": false,
          "internalType": "address",
          "name": "_author",
          "type": "address"
        }
      ],
      "name": "AlertReceive",
      "type": "event"
    },
    {
      "anonymous": false,
      "inputs": [
        {
          "indexed": false,
          "internalType": "string",
          "name": "_message",
          "type": "string"
        },
        {
          "indexed": false,
          "internalType": "address",
          "name": "_author",
          "type": "address"
        }
      ],
      "name": "ContractUpdate",
      "type": "event"
    },
    {
      "anonymous": false,
      "inputs": [
        {
          "indexed": false,
          "internalType": "uint256",
          "name": "_serviceId",
          "type": "uint256"
        },
        {
          "indexed": false,
          "internalType": "bytes32",
          "name": "_header",
          "type": "bytes32"
        },
        {
          "indexed": false,
          "internalType": "bytes32",
          "name": "_body",
          "type": "bytes32"
        },
        {
          "indexed": false,
          "internalType": "address",
          "name": "_author",
          "type": "address"
        }
      ],
      "name": "MeasureReceive",
      "type": "event"
    },
    {
      "anonymous": false,
      "inputs": [
        {
          "indexed": true,
          "internalType": "address",
          "name": "previousOwner",
          "type": "address"
        },
        {
          "indexed": true,
          "internalType": "address",
          "name": "newOwner",
          "type": "address"
        }
      ],
      "name": "OwnershipTransferred",
      "type": "event"
    },
    {
      "anonymous": false,
      "inputs": [
        {
          "indexed": false,
          "internalType": "uint256",
          "name": "_serviceId",
          "type": "uint256"
        },
        {
          "indexed": false,
          "internalType": "uint256",
          "name": "_id",
          "type": "uint256"
        },
        {
          "indexed": false,
          "internalType": "string",
          "name": "_message",
          "type": "string"
        },
        {
          "indexed": false,
          "internalType": "address",
          "name": "_author",
          "type": "address"
        }
      ],
      "name": "ServiceElementUpdate",
      "type": "event"
    },
    {
      "anonymous": false,
      "inputs": [
        {
          "indexed": false,
          "internalType": "uint256",
          "name": "_serviceId",
          "type": "uint256"
        },
        {
          "indexed": false,
          "internalType": "string",
          "name": "_message",
          "type": "string"
        },
        {
          "indexed": false,
          "internalType": "address",
          "name": "_author",
          "type": "address"
        }
      ],
      "name": "ServiceUpdate",
      "type": "event"
    },
    {
      "inputs": [],
      "name": "_alertConfigIdCounter",
      "outputs": [
        {
          "internalType": "uint256",
          "name": "_value",
          "type": "uint256"
        }
      ],
      "stateMutability": "view",
      "type": "function",
      "constant": true
    },
    {
      "inputs": [],
      "name": "_serviceIdCounter",
      "outputs": [
        {
          "internalType": "uint256",
          "name": "_value",
          "type": "uint256"
        }
      ],
      "stateMutability": "view",
      "type": "function",
      "constant": true
    },
    {
      "inputs": [],
      "name": "owner",
      "outputs": [
        {
          "internalType": "address",
          "name": "",
          "type": "address"
        }
      ],
      "stateMutability": "view",
      "type": "function",
      "constant": true
    },
    {
      "inputs": [],
      "name": "renounceOwnership",
      "outputs": [],
      "stateMutability": "nonpayable",
      "type": "function"
    },
    {
      "inputs": [
        {
          "internalType": "address",
          "name": "newOwner",
          "type": "address"
        }
      ],
      "name": "transferOwnership",
      "outputs": [],
      "stateMutability": "nonpayable",
      "type": "function"
    },
    {
      "inputs": [],
      "name": "getConfig",
      "outputs": [
        {
          "components": [
            {
              "internalType": "bytes8",
              "name": "version",
              "type": "bytes8"
            },
            {
              "internalType": "uint32",
              "name": "clientId",
              "type": "uint32"
            },
            {
              "internalType": "uint64",
              "name": "prevContractDate",
              "type": "uint64"
            },
            {
              "internalType": "uint64",
              "name": "nextContractDate",
              "type": "uint64"
            },
            {
              "internalType": "address",
              "name": "customerAddress",
              "type": "address"
            },
            {
              "internalType": "address",
              "name": "prevContract",
              "type": "address"
            },
            {
              "internalType": "address",
              "name": "nextContract",
              "type": "address"
            },
            {
              "internalType": "bool",
              "name": "isActive",
              "type": "bool"
            }
          ],
          "internalType": "struct ClientContract.Config",
          "name": "",
          "type": "tuple"
        }
      ],
      "stateMutability": "view",
      "type": "function",
      "constant": true
    },
    {
      "inputs": [],
      "name": "toggleContract",
      "outputs": [],
      "stateMutability": "nonpayable",
      "type": "function"
    },
    {
      "inputs": [
        {
          "internalType": "bytes8",
          "name": "_version",
          "type": "bytes8"
        },
        {
          "internalType": "string",
          "name": "_description",
          "type": "string"
        },
        {
          "internalType": "bytes8",
          "name": "_measureType",
          "type": "bytes8"
        },
        {
          "internalType": "bytes1",
          "name": "_timeCode",
          "type": "bytes1"
        },
        {
          "internalType": "uint8",
          "name": "_nbTime",
          "type": "uint8"
        }
      ],
      "name": "addService",
      "outputs": [],
      "stateMutability": "nonpayable",
      "type": "function"
    },
    {
      "inputs": [
        {
          "internalType": "uint256",
          "name": "_serviceId",
          "type": "uint256"
        }
      ],
      "name": "getOneService",
      "outputs": [
        {
          "components": [
            {
              "internalType": "bytes8",
              "name": "version",
              "type": "bytes8"
            },
            {
              "internalType": "bytes8",
              "name": "measureType",
              "type": "bytes8"
            },
            {
              "internalType": "bytes1",
              "name": "timeCode",
              "type": "bytes1"
            },
            {
              "internalType": "uint8",
              "name": "nbTime",
              "type": "uint8"
            },
            {
              "internalType": "bool",
              "name": "isActive",
              "type": "bool"
            },
            {
              "internalType": "bool",
              "name": "isAllowed",
              "type": "bool"
            },
            {
              "internalType": "string",
              "name": "description",
              "type": "string"
            },
            {
              "internalType": "address",
              "name": "bridgeAddress",
              "type": "address"
            },
            {
              "internalType": "address",
              "name": "techMasterAddress",
              "type": "address"
            },
            {
              "internalType": "address",
              "name": "legislatorAddress",
              "type": "address"
            },
            {
              "components": [
                {
                  "internalType": "uint256",
                  "name": "_value",
                  "type": "uint256"
                }
              ],
              "internalType": "struct Counters.Counter",
              "name": "measureIdCounter",
              "type": "tuple"
            },
            {
              "components": [
                {
                  "internalType": "uint256",
                  "name": "_value",
                  "type": "uint256"
                }
              ],
              "internalType": "struct Counters.Counter",
              "name": "IotIdCounter",
              "type": "tuple"
            }
          ],
          "internalType": "struct ClientContract.Service",
          "name": "",
          "type": "tuple"
        }
      ],
      "stateMutability": "view",
      "type": "function",
      "constant": true
    },
    {
      "inputs": [],
      "name": "getAllServices",
      "outputs": [
        {
          "components": [
            {
              "internalType": "bytes8",
              "name": "version",
              "type": "bytes8"
            },
            {
              "internalType": "bytes8",
              "name": "measureType",
              "type": "bytes8"
            },
            {
              "internalType": "bytes1",
              "name": "timeCode",
              "type": "bytes1"
            },
            {
              "internalType": "uint8",
              "name": "nbTime",
              "type": "uint8"
            },
            {
              "internalType": "bool",
              "name": "isActive",
              "type": "bool"
            },
            {
              "internalType": "bool",
              "name": "isAllowed",
              "type": "bool"
            },
            {
              "internalType": "string",
              "name": "description",
              "type": "string"
            },
            {
              "internalType": "address",
              "name": "bridgeAddress",
              "type": "address"
            },
            {
              "internalType": "address",
              "name": "techMasterAddress",
              "type": "address"
            },
            {
              "internalType": "address",
              "name": "legislatorAddress",
              "type": "address"
            },
            {
              "components": [
                {
                  "internalType": "uint256",
                  "name": "_value",
                  "type": "uint256"
                }
              ],
              "internalType": "struct Counters.Counter",
              "name": "measureIdCounter",
              "type": "tuple"
            },
            {
              "components": [
                {
                  "internalType": "uint256",
                  "name": "_value",
                  "type": "uint256"
                }
              ],
              "internalType": "struct Counters.Counter",
              "name": "IotIdCounter",
              "type": "tuple"
            }
          ],
          "internalType": "struct ClientContract.Service[]",
          "name": "",
          "type": "tuple[]"
        }
      ],
      "stateMutability": "view",
      "type": "function",
      "constant": true
    },
    {
      "inputs": [
        {
          "internalType": "uint256",
          "name": "_serviceId",
          "type": "uint256"
        }
      ],
      "name": "toggleService",
      "outputs": [],
      "stateMutability": "nonpayable",
      "type": "function"
    },
    {
      "inputs": [
        {
          "internalType": "uint256",
          "name": "_serviceId",
          "type": "uint256"
        }
      ],
      "name": "toggleAllowed",
      "outputs": [],
      "stateMutability": "nonpayable",
      "type": "function"
    },
    {
      "inputs": [
        {
          "internalType": "uint256",
          "name": "_serviceId",
          "type": "uint256"
        },
        {
          "internalType": "address",
          "name": "_techMasterAddress",
          "type": "address"
        }
      ],
      "name": "setTechMasterAddress",
      "outputs": [],
      "stateMutability": "nonpayable",
      "type": "function"
    },
    {
      "inputs": [
        {
          "internalType": "uint256",
          "name": "_serviceId",
          "type": "uint256"
        },
        {
          "internalType": "address",
          "name": "_bridgeAddress",
          "type": "address"
        }
      ],
      "name": "setBridgeAddress",
      "outputs": [],
      "stateMutability": "nonpayable",
      "type": "function"
    },
    {
      "inputs": [
        {
          "internalType": "uint256",
          "name": "_serviceId",
          "type": "uint256"
        },
        {
          "internalType": "address",
          "name": "_legislatorAddress",
          "type": "address"
        }
      ],
      "name": "setLegislatorAddress",
      "outputs": [],
      "stateMutability": "nonpayable",
      "type": "function"
    },
    {
      "inputs": [
        {
          "internalType": "uint256",
          "name": "_serviceId",
          "type": "uint256"
        },
        {
          "internalType": "bytes32",
          "name": "_measureHeader",
          "type": "bytes32"
        },
        {
          "internalType": "bytes32",
          "name": "_measurebody",
          "type": "bytes32"
        }
      ],
      "name": "addMeasure",
      "outputs": [],
      "stateMutability": "nonpayable",
      "type": "function"
    },
    {
      "inputs": [
        {
          "internalType": "uint256",
          "name": "_serviceId",
          "type": "uint256"
        }
      ],
      "name": "getAllMeasures",
      "outputs": [
        {
          "internalType": "bytes32[]",
          "name": "",
          "type": "bytes32[]"
        },
        {
          "internalType": "bytes32[]",
          "name": "",
          "type": "bytes32[]"
        }
      ],
      "stateMutability": "view",
      "type": "function",
      "constant": true
    },
    {
      "inputs": [
        {
          "internalType": "uint256",
          "name": "_serviceId",
          "type": "uint256"
        },
        {
          "internalType": "uint256",
          "name": "_measureId",
          "type": "uint256"
        }
      ],
      "name": "getMeasuresById",
      "outputs": [
        {
          "internalType": "bytes32",
          "name": "",
          "type": "bytes32"
        },
        {
          "internalType": "bytes32",
          "name": "",
          "type": "bytes32"
        }
      ],
      "stateMutability": "view",
      "type": "function",
      "constant": true
    },
    {
      "inputs": [
        {
          "internalType": "bytes8",
          "name": "_version",
          "type": "bytes8"
        },
        {
          "internalType": "uint16",
          "name": "_serviceId",
          "type": "uint16"
        },
        {
          "internalType": "string",
          "name": "_description",
          "type": "string"
        },
        {
          "internalType": "uint64",
          "name": "_dateOn",
          "type": "uint64"
        },
        {
          "internalType": "uint64",
          "name": "_dateOff",
          "type": "uint64"
        },
        {
          "internalType": "bytes8",
          "name": "_codeAlert",
          "type": "bytes8"
        },
        {
          "internalType": "bytes8",
          "name": "_valueAlert",
          "type": "bytes8"
        }
      ],
      "name": "addAlertConfig",
      "outputs": [],
      "stateMutability": "nonpayable",
      "type": "function"
    },
    {
      "inputs": [],
      "name": "getAllAlertConfigs",
      "outputs": [
        {
          "components": [
            {
              "internalType": "bytes8",
              "name": "version",
              "type": "bytes8"
            },
            {
              "internalType": "uint16",
              "name": "serviceId",
              "type": "uint16"
            },
            {
              "internalType": "string",
              "name": "description",
              "type": "string"
            },
            {
              "internalType": "address",
              "name": "legislatorAddress",
              "type": "address"
            },
            {
              "internalType": "uint64",
              "name": "dateOn",
              "type": "uint64"
            },
            {
              "internalType": "uint64",
              "name": "dateOff",
              "type": "uint64"
            },
            {
              "internalType": "bytes8",
              "name": "codeAlert",
              "type": "bytes8"
            },
            {
              "internalType": "bytes8",
              "name": "valueAlert",
              "type": "bytes8"
            },
            {
              "internalType": "bool",
              "name": "isActive",
              "type": "bool"
            },
            {
              "components": [
                {
                  "internalType": "uint256",
                  "name": "_value",
                  "type": "uint256"
                }
              ],
              "internalType": "struct Counters.Counter",
              "name": "alertConfigIdCounter",
              "type": "tuple"
            },
            {
              "components": [
                {
                  "internalType": "uint256",
                  "name": "_value",
                  "type": "uint256"
                }
              ],
              "internalType": "struct Counters.Counter",
              "name": "alertIdCounter",
              "type": "tuple"
            }
          ],
          "internalType": "struct ClientContract.AlertConfig[]",
          "name": "",
          "type": "tuple[]"
        }
      ],
      "stateMutability": "view",
      "type": "function",
      "constant": true
    },
    {
      "inputs": [
        {
          "internalType": "uint256",
          "name": "_alertConfigId",
          "type": "uint256"
        }
      ],
      "name": "toggleAlertConfig",
      "outputs": [],
      "stateMutability": "nonpayable",
      "type": "function"
    },
    {
      "inputs": [
        {
          "internalType": "uint256",
          "name": "_serviceId",
          "type": "uint256"
        },
        {
          "internalType": "uint256",
          "name": "_alertConfigId",
          "type": "uint256"
        },
        {
          "internalType": "bytes32",
          "name": "_alertBody",
          "type": "bytes32"
        }
      ],
      "name": "addAlert",
      "outputs": [],
      "stateMutability": "nonpayable",
      "type": "function"
    },
    {
      "inputs": [
        {
          "internalType": "uint256",
          "name": "_alertConfigId",
          "type": "uint256"
        }
      ],
      "name": "getAlerts",
      "outputs": [
        {
          "internalType": "bytes32[]",
          "name": "",
          "type": "bytes32[]"
        }
      ],
      "stateMutability": "view",
      "type": "function",
      "constant": true
    }
  ],
  "bytecode": "0x60806040523480156200001157600080fd5b5060405162005685380380620056858339818101604052810190620000379190620003b3565b6000620000496200034f60201b60201c565b9050806000806101000a81548173ffffffffffffffffffffffffffffffffffffffff021916908373ffffffffffffffffffffffffffffffffffffffff1602179055508073ffffffffffffffffffffffffffffffffffffffff16600073ffffffffffffffffffffffffffffffffffffffff167f8be0079c531659141344cd1fd0a4f28419497f9722a3daafe3b4186f6b6457e060405160405180910390a3506040518061010001604052808677ffffffffffffffffffffffffffffffffffffffffffffffff191681526020018563ffffffff1681526020018267ffffffffffffffff168152602001600067ffffffffffffffff1681526020018473ffffffffffffffffffffffffffffffffffffffff1681526020018373ffffffffffffffffffffffffffffffffffffffff168152602001600073ffffffffffffffffffffffffffffffffffffffff16815260200160011515815250600160008201518160000160006101000a81548167ffffffffffffffff021916908360c01c021790555060208201518160000160086101000a81548163ffffffff021916908363ffffffff160217905550604082015181600001600c6101000a81548167ffffffffffffffff021916908367ffffffffffffffff16021790555060608201518160000160146101000a81548167ffffffffffffffff021916908367ffffffffffffffff16021790555060808201518160010160006101000a81548173ffffffffffffffffffffffffffffffffffffffff021916908373ffffffffffffffffffffffffffffffffffffffff16021790555060a08201518160020160006101000a81548173ffffffffffffffffffffffffffffffffffffffff021916908373ffffffffffffffffffffffffffffffffffffffff16021790555060c08201518160030160006101000a81548173ffffffffffffffffffffffffffffffffffffffff021916908373ffffffffffffffffffffffffffffffffffffffff16021790555060e08201518160030160146101000a81548160ff021916908315150217905550905050505050505062000521565b600033905090565b6000815190506200036881620004b9565b92915050565b6000815190506200037f81620004d3565b92915050565b6000815190506200039681620004ed565b92915050565b600081519050620003ad8162000507565b92915050565b600080600080600060a08688031215620003cc57600080fd5b6000620003dc888289016200036e565b9550506020620003ef8882890162000385565b9450506040620004028882890162000357565b9350506060620004158882890162000357565b925050608062000428888289016200039c565b9150509295509295909350565b6000620004428262000475565b9050919050565b60007fffffffffffffffff00000000000000000000000000000000000000000000000082169050919050565b600073ffffffffffffffffffffffffffffffffffffffff82169050919050565b600063ffffffff82169050919050565b600067ffffffffffffffff82169050919050565b620004c48162000435565b8114620004d057600080fd5b50565b620004de8162000449565b8114620004ea57600080fd5b50565b620004f88162000495565b81146200050457600080fd5b50565b6200051281620004a5565b81146200051e57600080fd5b50565b61515480620005316000396000f3fe608060405234801561001057600080fd5b506004361061014d5760003560e01c80639df90028116100c3578063ce7d12861161007c578063ce7d128614610354578063d3088f2b14610370578063da6cd376146103a0578063e0c9d4bb146103bc578063e8d29084146103d8578063f2fde38b146103f45761014d565b80639df90028146102b8578063abb7d929146102c2578063b2e733bf146102e0578063c18ec58c146102fc578063c3f909d414610318578063c700fdf7146103365761014d565b806328e41a021161011557806328e41a021461020957806347b17fbc146102255780634c6fdcc61461024357806351f2c5ad1461025f578063715018a6146102905780638da5cb5b1461029a5761014d565b806306566faa1461015257806307bf64d91461016e57806317842b281461018a57806321fe0f30146101ba5780632669167a146101d8575b600080fd5b61016c60048036038101906101679190613c2f565b610410565b005b61018860048036038101906101839190613b50565b6107be565b005b6101a4600480360381019061019f9190613c06565b610ad2565b6040516101b1919061484e565b60405180910390f35b6101c2610b3d565b6040516101cf91906148c9565b60405180910390f35b6101f260048036038101906101ed9190613cba565b610eb5565b6040516102009291906148eb565b60405180910390f35b610223600480360381019061021e9190613c06565b610f6f565b005b61022d6111ac565b60405161023a91906148a7565b60405180910390f35b61025d60048036038101906102589190613c2f565b6114b6565b005b61027960048036038101906102749190613c06565b6117c8565b604051610287929190614870565b60405180910390f35b61029861189e565b005b6102a26119d8565b6040516102af9190614833565b60405180910390f35b6102c0611a01565b005b6102ca611ae6565b6040516102d79190614af8565b60405180910390f35b6102fa60048036038101906102f59190613c6b565b611af2565b005b61031660048036038101906103119190613c2f565b611ee2565b005b610320612296565b60405161032d9190614a70565b60405180910390f35b61033e6124a5565b60405161034b9190614af8565b60405180910390f35b61036e60048036038101906103699190613c06565b6124b1565b005b61038a60048036038101906103859190613c06565b6126c2565b6040516103979190614a8c565b60405180910390f35b6103ba60048036038101906103b59190613ac1565b612a3d565b005b6103d660048036038101906103d19190613c06565b612ecf565b005b6103f260048036038101906103ed9190613cf6565b613133565b005b61040e60048036038101906104099190613a98565b6134e9565b005b600160030160149054906101000a900460ff16610462576040517f08c379a0000000000000000000000000000000000000000000000000000000008152600401610459906149f0565b60405180910390fd5b8161046d6009613692565b81106104ae576040517f08c379a00000000000000000000000000000000000000000000000000000000081526004016104a5906149d0565b60405180910390fd5b600581815481106104e8577f4e487b7100000000000000000000000000000000000000000000000000000000600052603260045260246000fd5b906000526020600020906007020160000160129054906101000a900460ff16610546576040517f08c379a000000000000000000000000000000000000000000000000000000000815260040161053d90614a30565b60405180910390fd5b60058181548110610580577f4e487b7100000000000000000000000000000000000000000000000000000000600052603260045260246000fd5b906000526020600020906007020160000160139054906101000a900460ff166105de576040517f08c379a00000000000000000000000000000000000000000000000000000000081526004016105d590614a10565b60405180910390fd5b823373ffffffffffffffffffffffffffffffffffffffff1660058281548110610630577f4e487b7100000000000000000000000000000000000000000000000000000000600052603260045260246000fd5b906000526020600020906007020160030160009054906101000a900473ffffffffffffffffffffffffffffffffffffffff1673ffffffffffffffffffffffffffffffffffffffff1614806106b657503373ffffffffffffffffffffffffffffffffffffffff1661069e6119d8565b73ffffffffffffffffffffffffffffffffffffffff16145b6106f5576040517f08c379a00000000000000000000000000000000000000000000000000000000081526004016106ec90614a50565b60405180910390fd5b8260058581548110610730577f4e487b7100000000000000000000000000000000000000000000000000000000600052603260045260246000fd5b906000526020600020906007020160020160006101000a81548173ffffffffffffffffffffffffffffffffffffffff021916908373ffffffffffffffffffffffffffffffffffffffff1602179055507f6eb54bb1fcbc8b072bc7be4d66f909b2316584cb9b6c49bfdb6504b9246a848184336040516107b0929190614b58565b60405180910390a150505050565b60003390506107cb613706565b6107d3613706565b600a6040518061016001604052808c77ffffffffffffffffffffffffffffffffffffffffffffffff191681526020018b61ffff1681526020018a81526020018573ffffffffffffffffffffffffffffffffffffffff1681526020018967ffffffffffffffff1681526020018867ffffffffffffffff1681526020018777ffffffffffffffffffffffffffffffffffffffffffffffff191681526020018677ffffffffffffffffffffffffffffffffffffffffffffffff1916815260200160011515815260200184815260200183815250908060018154018082558091505060019003906000526020600020906006020160009091909190915060008201518160000160006101000a81548167ffffffffffffffff021916908360c01c021790555060208201518160000160086101000a81548161ffff021916908361ffff1602179055506040820151816001019080519060200190610933929190613719565b5060608201518160020160006101000a81548173ffffffffffffffffffffffffffffffffffffffff021916908373ffffffffffffffffffffffffffffffffffffffff16021790555060808201518160020160146101000a81548167ffffffffffffffff021916908367ffffffffffffffff16021790555060a08201518160030160006101000a81548167ffffffffffffffff021916908367ffffffffffffffff16021790555060c08201518160030160086101000a81548167ffffffffffffffff021916908360c01c021790555060e08201518160030160106101000a81548167ffffffffffffffff021916908360c01c02179055506101008201518160030160186101000a81548160ff021916908315150217905550610120820151816004016000820151816000015550506101408201518160050160008201518160000155505050507f6391e278cb294aa6ee810ce0e33f9840acfd7edf28f3701d62764067965c6ba189610aa4600c613692565b33604051610ab493929190614aae565b60405180910390a1610ac6600c6136a0565b50505050505050505050565b6060600b6000838152602001908152602001600020805480602002602001604051908101604052809291908181526020018280548015610b3157602002820191906000526020600020905b815481526020019060010190808311610b1d575b50505050509050919050565b60606005805480602002602001604051908101604052809291908181526020016000905b82821015610eac5783829060005260206000209060070201604051806101800160405290816000820160009054906101000a900460c01b77ffffffffffffffffffffffffffffffffffffffffffffffff191677ffffffffffffffffffffffffffffffffffffffffffffffff191681526020016000820160089054906101000a900460c01b77ffffffffffffffffffffffffffffffffffffffffffffffff191677ffffffffffffffffffffffffffffffffffffffffffffffff191681526020016000820160109054906101000a900460f81b7effffffffffffffffffffffffffffffffffffffffffffffffffffffffffffff19167effffffffffffffffffffffffffffffffffffffffffffffffffffffffffffff191681526020016000820160119054906101000a900460ff1660ff1660ff1681526020016000820160129054906101000a900460ff161515151581526020016000820160139054906101000a900460ff16151515158152602001600182018054610cdd90614fc5565b80601f0160208091040260200160405190810160405280929190818152602001828054610d0990614fc5565b8015610d565780601f10610d2b57610100808354040283529160200191610d56565b820191906000526020600020905b815481529060010190602001808311610d3957829003601f168201915b505050505081526020016002820160009054906101000a900473ffffffffffffffffffffffffffffffffffffffff1673ffffffffffffffffffffffffffffffffffffffff1673ffffffffffffffffffffffffffffffffffffffff1681526020016003820160009054906101000a900473ffffffffffffffffffffffffffffffffffffffff1673ffffffffffffffffffffffffffffffffffffffff1673ffffffffffffffffffffffffffffffffffffffff1681526020016004820160009054906101000a900473ffffffffffffffffffffffffffffffffffffffff1673ffffffffffffffffffffffffffffffffffffffff1673ffffffffffffffffffffffffffffffffffffffff168152602001600582016040518060200160405290816000820154815250508152602001600682016040518060200160405290816000820154815250508152505081526020019060010190610b61565b50505050905090565b600080600660008581526020019081526020016000208381548110610f03577f4e487b7100000000000000000000000000000000000000000000000000000000600052603260045260246000fd5b9060005260206000200154600760008681526020019081526020016000208481548110610f59577f4e487b7100000000000000000000000000000000000000000000000000000000600052603260045260246000fd5b9060005260206000200154915091509250929050565b600a8181548110610fa9577f4e487b7100000000000000000000000000000000000000000000000000000000600052603260045260246000fd5b906000526020600020906006020160020160009054906101000a900473ffffffffffffffffffffffffffffffffffffffff1673ffffffffffffffffffffffffffffffffffffffff163373ffffffffffffffffffffffffffffffffffffffff16148061104657506110176119d8565b73ffffffffffffffffffffffffffffffffffffffff163373ffffffffffffffffffffffffffffffffffffffff16145b61104f57600080fd5b6000600a828154811061108b577f4e487b7100000000000000000000000000000000000000000000000000000000600052603260045260246000fd5b906000526020600020906006020160000160089054906101000a900461ffff1661ffff1690507f6391e278cb294aa6ee810ce0e33f9840acfd7edf28f3701d62764067965c6ba18183336040516110e493929190614d05565b60405180910390a1600a8281548110611126577f4e487b7100000000000000000000000000000000000000000000000000000000600052603260045260246000fd5b906000526020600020906006020160030160189054906101000a900460ff1615600a8381548110611180577f4e487b7100000000000000000000000000000000000000000000000000000000600052603260045260246000fd5b906000526020600020906006020160030160186101000a81548160ff0219169083151502179055505050565b6060600a805480602002602001604051908101604052809291908181526020016000905b828210156114ad5783829060005260206000209060060201604051806101600160405290816000820160009054906101000a900460c01b77ffffffffffffffffffffffffffffffffffffffffffffffff191677ffffffffffffffffffffffffffffffffffffffffffffffff191681526020016000820160089054906101000a900461ffff1661ffff1661ffff16815260200160018201805461127190614fc5565b80601f016020809104026020016040519081016040528092919081815260200182805461129d90614fc5565b80156112ea5780601f106112bf576101008083540402835291602001916112ea565b820191906000526020600020905b8154815290600101906020018083116112cd57829003601f168201915b505050505081526020016002820160009054906101000a900473ffffffffffffffffffffffffffffffffffffffff1673ffffffffffffffffffffffffffffffffffffffff1673ffffffffffffffffffffffffffffffffffffffff1681526020016002820160149054906101000a900467ffffffffffffffff1667ffffffffffffffff1667ffffffffffffffff1681526020016003820160009054906101000a900467ffffffffffffffff1667ffffffffffffffff1667ffffffffffffffff1681526020016003820160089054906101000a900460c01b77ffffffffffffffffffffffffffffffffffffffffffffffff191677ffffffffffffffffffffffffffffffffffffffffffffffff191681526020016003820160109054906101000a900460c01b77ffffffffffffffffffffffffffffffffffffffffffffffff191677ffffffffffffffffffffffffffffffffffffffffffffffff191681526020016003820160189054906101000a900460ff161515151581526020016004820160405180602001604052908160008201548152505081526020016005820160405180602001604052908160008201548152505081525050815260200190600101906111d0565b50505050905090565b600160030160149054906101000a900460ff16611508576040517f08c379a00000000000000000000000000000000000000000000000000000000081526004016114ff906149f0565b60405180910390fd5b816115136009613692565b8110611554576040517f08c379a000000000000000000000000000000000000000000000000000000000815260040161154b906149d0565b60405180910390fd5b6005818154811061158e577f4e487b7100000000000000000000000000000000000000000000000000000000600052603260045260246000fd5b906000526020600020906007020160000160129054906101000a900460ff166115ec576040517f08c379a00000000000000000000000000000000000000000000000000000000081526004016115e390614a30565b60405180910390fd5b60058181548110611626577f4e487b7100000000000000000000000000000000000000000000000000000000600052603260045260246000fd5b906000526020600020906007020160000160139054906101000a900460ff16611684576040517f08c379a000000000000000000000000000000000000000000000000000000000815260040161167b90614a10565b60405180910390fd5b61168c6136b6565b73ffffffffffffffffffffffffffffffffffffffff166116aa6119d8565b73ffffffffffffffffffffffffffffffffffffffff1614611700576040517f08c379a00000000000000000000000000000000000000000000000000000000081526004016116f7906149b0565b60405180910390fd5b816005848154811061173b577f4e487b7100000000000000000000000000000000000000000000000000000000600052603260045260246000fd5b906000526020600020906007020160030160006101000a81548173ffffffffffffffffffffffffffffffffffffffff021916908373ffffffffffffffffffffffffffffffffffffffff1602179055507f6eb54bb1fcbc8b072bc7be4d66f909b2316584cb9b6c49bfdb6504b9246a848183336040516117bb929190614b58565b60405180910390a1505050565b60608060066000848152602001908152602001600020600760008581526020019081526020016000208180548060200260200160405190810160405280929190818152602001828054801561183c57602002820191906000526020600020905b815481526020019060010190808311611828575b505050505091508080548060200260200160405190810160405280929190818152602001828054801561188e57602002820191906000526020600020905b81548152602001906001019080831161187a575b5050505050905091509150915091565b6118a66136b6565b73ffffffffffffffffffffffffffffffffffffffff166118c46119d8565b73ffffffffffffffffffffffffffffffffffffffff161461191a576040517f08c379a0000000000000000000000000000000000000000000000000000000008152600401611911906149b0565b60405180910390fd5b600073ffffffffffffffffffffffffffffffffffffffff1660008054906101000a900473ffffffffffffffffffffffffffffffffffffffff1673ffffffffffffffffffffffffffffffffffffffff167f8be0079c531659141344cd1fd0a4f28419497f9722a3daafe3b4186f6b6457e060405160405180910390a360008060006101000a81548173ffffffffffffffffffffffffffffffffffffffff021916908373ffffffffffffffffffffffffffffffffffffffff160217905550565b60008060009054906101000a900473ffffffffffffffffffffffffffffffffffffffff16905090565b611a096136b6565b73ffffffffffffffffffffffffffffffffffffffff16611a276119d8565b73ffffffffffffffffffffffffffffffffffffffff1614611a7d576040517f08c379a0000000000000000000000000000000000000000000000000000000008152600401611a74906149b0565b60405180910390fd5b7f74851bb416411c1b4cb986c13ce9b6a9e973e7948f03fc2e574ca42a6d3724d333604051611aac9190614934565b60405180910390a1600160030160149054906101000a900460ff1615600160030160146101000a81548160ff021916908315150217905550565b600c8060000154905081565b600160030160149054906101000a900460ff16611b44576040517f08c379a0000000000000000000000000000000000000000000000000000000008152600401611b3b906149f0565b60405180910390fd5b82611b4f6009613692565b8110611b90576040517f08c379a0000000000000000000000000000000000000000000000000000000008152600401611b87906149d0565b60405180910390fd5b60058181548110611bca577f4e487b7100000000000000000000000000000000000000000000000000000000600052603260045260246000fd5b906000526020600020906007020160000160129054906101000a900460ff16611c28576040517f08c379a0000000000000000000000000000000000000000000000000000000008152600401611c1f90614a30565b60405180910390fd5b60058181548110611c62577f4e487b7100000000000000000000000000000000000000000000000000000000600052603260045260246000fd5b906000526020600020906007020160000160139054906101000a900460ff16611cc0576040517f08c379a0000000000000000000000000000000000000000000000000000000008152600401611cb790614a10565b60405180910390fd5b833373ffffffffffffffffffffffffffffffffffffffff1660058281548110611d12577f4e487b7100000000000000000000000000000000000000000000000000000000600052603260045260246000fd5b906000526020600020906007020160020160009054906101000a900473ffffffffffffffffffffffffffffffffffffffff1673ffffffffffffffffffffffffffffffffffffffff161480611d9857503373ffffffffffffffffffffffffffffffffffffffff16611d806119d8565b73ffffffffffffffffffffffffffffffffffffffff16145b611dd7576040517f08c379a0000000000000000000000000000000000000000000000000000000008152600401611dce90614a50565b60405180910390fd5b6006600086815260200190815260200160002084908060018154018082558091505060019003906000526020600020016000909190919091505560076000868152602001908152602001600020839080600181540180825580915050600190039060005260206000200160009091909190915055611e9e60058681548110611e88577f4e487b7100000000000000000000000000000000000000000000000000000000600052603260045260246000fd5b90600052602060002090600702016005016136a0565b7f818366328240e2ab5877d5eed27c1f3803a716f5700034371e2e520c650f574585858533604051611ed39493929190614b13565b60405180910390a15050505050565b600160030160149054906101000a900460ff16611f34576040517f08c379a0000000000000000000000000000000000000000000000000000000008152600401611f2b906149f0565b60405180910390fd5b81611f3f6009613692565b8110611f80576040517f08c379a0000000000000000000000000000000000000000000000000000000008152600401611f77906149d0565b60405180910390fd5b60058181548110611fba577f4e487b7100000000000000000000000000000000000000000000000000000000600052603260045260246000fd5b906000526020600020906007020160000160129054906101000a900460ff16612018576040517f08c379a000000000000000000000000000000000000000000000000000000000815260040161200f90614a30565b60405180910390fd5b60058181548110612052577f4e487b7100000000000000000000000000000000000000000000000000000000600052603260045260246000fd5b906000526020600020906007020160000160139054906101000a900460ff166120b0576040517f08c379a00000000000000000000000000000000000000000000000000000000081526004016120a790614a10565b60405180910390fd5b3373ffffffffffffffffffffffffffffffffffffffff166001800160009054906101000a900473ffffffffffffffffffffffffffffffffffffffff1673ffffffffffffffffffffffffffffffffffffffff16148061214057503373ffffffffffffffffffffffffffffffffffffffff166121286119d8565b73ffffffffffffffffffffffffffffffffffffffff16145b61217f576040517f08c379a000000000000000000000000000000000000000000000000000000000815260040161217690614a50565b60405180910390fd5b6001151561218c836136be565b1515146121ce576040517f08c379a00000000000000000000000000000000000000000000000000000000081526004016121c590614990565b60405180910390fd5b8160058481548110612209577f4e487b7100000000000000000000000000000000000000000000000000000000600052603260045260246000fd5b906000526020600020906007020160040160006101000a81548173ffffffffffffffffffffffffffffffffffffffff021916908373ffffffffffffffffffffffffffffffffffffffff1602179055507f6eb54bb1fcbc8b072bc7be4d66f909b2316584cb9b6c49bfdb6504b9246a84818333604051612289929190614bd0565b60405180910390a1505050565b61229e61379f565b6001604051806101000160405290816000820160009054906101000a900460c01b77ffffffffffffffffffffffffffffffffffffffffffffffff191677ffffffffffffffffffffffffffffffffffffffffffffffff191681526020016000820160089054906101000a900463ffffffff1663ffffffff1663ffffffff16815260200160008201600c9054906101000a900467ffffffffffffffff1667ffffffffffffffff1667ffffffffffffffff1681526020016000820160149054906101000a900467ffffffffffffffff1667ffffffffffffffff1667ffffffffffffffff1681526020016001820160009054906101000a900473ffffffffffffffffffffffffffffffffffffffff1673ffffffffffffffffffffffffffffffffffffffff1673ffffffffffffffffffffffffffffffffffffffff1681526020016002820160009054906101000a900473ffffffffffffffffffffffffffffffffffffffff1673ffffffffffffffffffffffffffffffffffffffff1673ffffffffffffffffffffffffffffffffffffffff1681526020016003820160009054906101000a900473ffffffffffffffffffffffffffffffffffffffff1673ffffffffffffffffffffffffffffffffffffffff1673ffffffffffffffffffffffffffffffffffffffff1681526020016003820160149054906101000a900460ff161515151581525050905090565b60098060000154905081565b6124b96136b6565b73ffffffffffffffffffffffffffffffffffffffff166124d76119d8565b73ffffffffffffffffffffffffffffffffffffffff161461252d576040517f08c379a0000000000000000000000000000000000000000000000000000000008152600401612524906149b0565b60405180910390fd5b60058181548110612567577f4e487b7100000000000000000000000000000000000000000000000000000000600052603260045260246000fd5b906000526020600020906007020160000160139054906101000a900460ff16156125c9577f6eb54bb1fcbc8b072bc7be4d66f909b2316584cb9b6c49bfdb6504b9246a848181336040516125bc929190614b94565b60405180910390a1612603565b7f6eb54bb1fcbc8b072bc7be4d66f909b2316584cb9b6c49bfdb6504b9246a848181336040516125fa929190614c48565b60405180910390a15b6005818154811061263d577f4e487b7100000000000000000000000000000000000000000000000000000000600052603260045260246000fd5b906000526020600020906007020160000160139054906101000a900460ff161560058281548110612697577f4e487b7100000000000000000000000000000000000000000000000000000000600052603260045260246000fd5b906000526020600020906007020160000160136101000a81548160ff02191690831515021790555050565b6126ca61385d565b60058281548110612704577f4e487b7100000000000000000000000000000000000000000000000000000000600052603260045260246000fd5b9060005260206000209060070201604051806101800160405290816000820160009054906101000a900460c01b77ffffffffffffffffffffffffffffffffffffffffffffffff191677ffffffffffffffffffffffffffffffffffffffffffffffff191681526020016000820160089054906101000a900460c01b77ffffffffffffffffffffffffffffffffffffffffffffffff191677ffffffffffffffffffffffffffffffffffffffffffffffff191681526020016000820160109054906101000a900460f81b7effffffffffffffffffffffffffffffffffffffffffffffffffffffffffffff19167effffffffffffffffffffffffffffffffffffffffffffffffffffffffffffff191681526020016000820160119054906101000a900460ff1660ff1660ff1681526020016000820160129054906101000a900460ff161515151581526020016000820160139054906101000a900460ff1615151515815260200160018201805461287690614fc5565b80601f01602080910402602001604051908101604052809291908181526020018280546128a290614fc5565b80156128ef5780601f106128c4576101008083540402835291602001916128ef565b820191906000526020600020905b8154815290600101906020018083116128d257829003601f168201915b505050505081526020016002820160009054906101000a900473ffffffffffffffffffffffffffffffffffffffff1673ffffffffffffffffffffffffffffffffffffffff1673ffffffffffffffffffffffffffffffffffffffff1681526020016003820160009054906101000a900473ffffffffffffffffffffffffffffffffffffffff1673ffffffffffffffffffffffffffffffffffffffff1673ffffffffffffffffffffffffffffffffffffffff1681526020016004820160009054906101000a900473ffffffffffffffffffffffffffffffffffffffff1673ffffffffffffffffffffffffffffffffffffffff1673ffffffffffffffffffffffffffffffffffffffff16815260200160058201604051806020016040529081600082015481525050815260200160068201604051806020016040529081600082015481525050815250509050919050565b3373ffffffffffffffffffffffffffffffffffffffff166001800160009054906101000a900473ffffffffffffffffffffffffffffffffffffffff1673ffffffffffffffffffffffffffffffffffffffff161480612acd57503373ffffffffffffffffffffffffffffffffffffffff16612ab56119d8565b73ffffffffffffffffffffffffffffffffffffffff16145b612b0c576040517f08c379a0000000000000000000000000000000000000000000000000000000008152600401612b0390614a50565b60405180910390fd5b600160030160149054906101000a900460ff16612b5e576040517f08c379a0000000000000000000000000000000000000000000000000000000008152600401612b55906149f0565b60405180910390fd5b612b66613706565b612b6e613706565b60056040518061018001604052808977ffffffffffffffffffffffffffffffffffffffffffffffff191681526020018777ffffffffffffffffffffffffffffffffffffffffffffffff19168152602001867effffffffffffffffffffffffffffffffffffffffffffffffffffffffffffff191681526020018560ff168152602001600115158152602001600115158152602001888152602001600073ffffffffffffffffffffffffffffffffffffffff168152602001600073ffffffffffffffffffffffffffffffffffffffff168152602001600073ffffffffffffffffffffffffffffffffffffffff16815260200184815260200183815250908060018154018082558091505060019003906000526020600020906007020160009091909190915060008201518160000160006101000a81548167ffffffffffffffff021916908360c01c021790555060208201518160000160086101000a81548167ffffffffffffffff021916908360c01c021790555060408201518160000160106101000a81548160ff021916908360f81c021790555060608201518160000160116101000a81548160ff021916908360ff16021790555060808201518160000160126101000a81548160ff02191690831515021790555060a08201518160000160136101000a81548160ff02191690831515021790555060c0820151816001019080519060200190612d7f929190613719565b5060e08201518160020160006101000a81548173ffffffffffffffffffffffffffffffffffffffff021916908373ffffffffffffffffffffffffffffffffffffffff1602179055506101008201518160030160006101000a81548173ffffffffffffffffffffffffffffffffffffffff021916908373ffffffffffffffffffffffffffffffffffffffff1602179055506101208201518160040160006101000a81548173ffffffffffffffffffffffffffffffffffffffff021916908373ffffffffffffffffffffffffffffffffffffffff160217905550610140820151816005016000820151816000015550506101608201518160060160008201518160000155505050507f74851bb416411c1b4cb986c13ce9b6a9e973e7948f03fc2e574ca42a6d3724d333604051612eb49190614962565b60405180910390a1612ec660096136a0565b50505050505050565b3373ffffffffffffffffffffffffffffffffffffffff166001800160009054906101000a900473ffffffffffffffffffffffffffffffffffffffff1673ffffffffffffffffffffffffffffffffffffffff161480612f5f57503373ffffffffffffffffffffffffffffffffffffffff16612f476119d8565b73ffffffffffffffffffffffffffffffffffffffff16145b612f9e576040517f08c379a0000000000000000000000000000000000000000000000000000000008152600401612f9590614a50565b60405180910390fd5b60058181548110612fd8577f4e487b7100000000000000000000000000000000000000000000000000000000600052603260045260246000fd5b906000526020600020906007020160000160129054906101000a900460ff161561303a577f6eb54bb1fcbc8b072bc7be4d66f909b2316584cb9b6c49bfdb6504b9246a8481813360405161302d929190614c0c565b60405180910390a1613074565b7f6eb54bb1fcbc8b072bc7be4d66f909b2316584cb9b6c49bfdb6504b9246a8481813360405161306b929190614c84565b60405180910390a15b600581815481106130ae577f4e487b7100000000000000000000000000000000000000000000000000000000600052603260045260246000fd5b906000526020600020906007020160000160129054906101000a900460ff161560058281548110613108577f4e487b7100000000000000000000000000000000000000000000000000000000600052603260045260246000fd5b906000526020600020906007020160000160126101000a81548160ff02191690831515021790555050565b600160030160149054906101000a900460ff16613185576040517f08c379a000000000000000000000000000000000000000000000000000000000815260040161317c906149f0565b60405180910390fd5b826131906009613692565b81106131d1576040517f08c379a00000000000000000000000000000000000000000000000000000000081526004016131c8906149d0565b60405180910390fd5b6005818154811061320b577f4e487b7100000000000000000000000000000000000000000000000000000000600052603260045260246000fd5b906000526020600020906007020160000160129054906101000a900460ff16613269576040517f08c379a000000000000000000000000000000000000000000000000000000000815260040161326090614a30565b60405180910390fd5b600581815481106132a3577f4e487b7100000000000000000000000000000000000000000000000000000000600052603260045260246000fd5b906000526020600020906007020160000160139054906101000a900460ff16613301576040517f08c379a00000000000000000000000000000000000000000000000000000000081526004016132f890614a10565b60405180910390fd5b833373ffffffffffffffffffffffffffffffffffffffff1660058281548110613353577f4e487b7100000000000000000000000000000000000000000000000000000000600052603260045260246000fd5b906000526020600020906007020160020160009054906101000a900473ffffffffffffffffffffffffffffffffffffffff1673ffffffffffffffffffffffffffffffffffffffff1614806133d957503373ffffffffffffffffffffffffffffffffffffffff166133c16119d8565b73ffffffffffffffffffffffffffffffffffffffff16145b613418576040517f08c379a000000000000000000000000000000000000000000000000000000000815260040161340f90614a50565b60405180910390fd5b600b60008581526020019081526020016000208390806001815401808255809150506001900390600052602060002001600090919091909150556134a5600a858154811061348f577f4e487b7100000000000000000000000000000000000000000000000000000000600052603260045260246000fd5b90600052602060002090600602016005016136a0565b7f36134df50fb7d9b784ebe80f4738a13cede0c5efe526e5e9d8b95601d8cc900c858585336040516134da9493929190614cc0565b60405180910390a15050505050565b6134f16136b6565b73ffffffffffffffffffffffffffffffffffffffff1661350f6119d8565b73ffffffffffffffffffffffffffffffffffffffff1614613565576040517f08c379a000000000000000000000000000000000000000000000000000000000815260040161355c906149b0565b60405180910390fd5b600073ffffffffffffffffffffffffffffffffffffffff168173ffffffffffffffffffffffffffffffffffffffff1614156135d5576040517f08c379a00000000000000000000000000000000000000000000000000000000081526004016135cc90614914565b60405180910390fd5b8073ffffffffffffffffffffffffffffffffffffffff1660008054906101000a900473ffffffffffffffffffffffffffffffffffffffff1673ffffffffffffffffffffffffffffffffffffffff167f8be0079c531659141344cd1fd0a4f28419497f9722a3daafe3b4186f6b6457e060405160405180910390a3806000806101000a81548173ffffffffffffffffffffffffffffffffffffffff021916908373ffffffffffffffffffffffffffffffffffffffff16021790555050565b600081600001549050919050565b6001816000016000828254019250508190555050565b600033905090565b60003373ffffffffffffffffffffffffffffffffffffffff168273ffffffffffffffffffffffffffffffffffffffff16146136fc5760019050613701565b600190505b919050565b6040518060200160405280600081525090565b82805461372590614fc5565b90600052602060002090601f016020900481019282613747576000855561378e565b82601f1061376057805160ff191683800117855561378e565b8280016001018555821561378e579182015b8281111561378d578251825591602001919060010190613772565b5b50905061379b919061396b565b5090565b604051806101000160405280600077ffffffffffffffffffffffffffffffffffffffffffffffff19168152602001600063ffffffff168152602001600067ffffffffffffffff168152602001600067ffffffffffffffff168152602001600073ffffffffffffffffffffffffffffffffffffffff168152602001600073ffffffffffffffffffffffffffffffffffffffff168152602001600073ffffffffffffffffffffffffffffffffffffffff1681526020016000151581525090565b604051806101800160405280600077ffffffffffffffffffffffffffffffffffffffffffffffff19168152602001600077ffffffffffffffffffffffffffffffffffffffffffffffff1916815260200160007effffffffffffffffffffffffffffffffffffffffffffffffffffffffffffff19168152602001600060ff16815260200160001515815260200160001515815260200160608152602001600073ffffffffffffffffffffffffffffffffffffffff168152602001600073ffffffffffffffffffffffffffffffffffffffff168152602001600073ffffffffffffffffffffffffffffffffffffffff168152602001613958613706565b8152602001613965613706565b81525090565b5b8082111561398457600081600090555060010161396c565b5090565b600061399b61399684614d80565b614d4f565b9050828152602081018484840111156139b357600080fd5b6139be848285614f83565b509392505050565b6000813590506139d581615066565b92915050565b6000813590506139ea8161507d565b92915050565b6000813590506139ff81615094565b92915050565b600081359050613a14816150ab565b92915050565b600082601f830112613a2b57600080fd5b8135613a3b848260208601613988565b91505092915050565b600081359050613a53816150c2565b92915050565b600081359050613a68816150d9565b92915050565b600081359050613a7d816150f0565b92915050565b600081359050613a9281615107565b92915050565b600060208284031215613aaa57600080fd5b6000613ab8848285016139c6565b91505092915050565b600080600080600060a08688031215613ad957600080fd5b6000613ae788828901613a05565b955050602086013567ffffffffffffffff811115613b0457600080fd5b613b1088828901613a1a565b9450506040613b2188828901613a05565b9350506060613b32888289016139db565b9250506080613b4388828901613a83565b9150509295509295909350565b600080600080600080600060e0888a031215613b6b57600080fd5b6000613b798a828b01613a05565b9750506020613b8a8a828b01613a44565b965050604088013567ffffffffffffffff811115613ba757600080fd5b613bb38a828b01613a1a565b9550506060613bc48a828b01613a6e565b9450506080613bd58a828b01613a6e565b93505060a0613be68a828b01613a05565b92505060c0613bf78a828b01613a05565b91505092959891949750929550565b600060208284031215613c1857600080fd5b6000613c2684828501613a59565b91505092915050565b60008060408385031215613c4257600080fd5b6000613c5085828601613a59565b9250506020613c61858286016139c6565b9150509250929050565b600080600060608486031215613c8057600080fd5b6000613c8e86828701613a59565b9350506020613c9f868287016139f0565b9250506040613cb0868287016139f0565b9150509250925092565b60008060408385031215613ccd57600080fd5b6000613cdb85828601613a59565b9250506020613cec85828601613a59565b9150509250929050565b600080600060608486031215613d0b57600080fd5b6000613d1986828701613a59565b9350506020613d2a86828701613a59565b9250506040613d3b868287016139f0565b9150509250925092565b6000613d518383613f09565b60208301905092915050565b6000613d698383614415565b905092915050565b6000613d7d83836145c2565b905092915050565b613d8e81614e88565b82525050565b613d9d81614e88565b82525050565b6000613dae82614de0565b613db88185614e33565b9350613dc383614db0565b8060005b83811015613df4578151613ddb8882613d45565b9750613de683614e0c565b925050600181019050613dc7565b5085935050505092915050565b6000613e0c82614deb565b613e168185614e44565b935083602082028501613e2885614dc0565b8060005b85811015613e645784840389528151613e458582613d5d565b9450613e5083614e19565b925060208a01995050600181019050613e2c565b50829750879550505050505092915050565b6000613e8182614df6565b613e8b8185614e55565b935083602082028501613e9d85614dd0565b8060005b85811015613ed95784840389528151613eba8582613d71565b9450613ec583614e26565b925060208a01995050600181019050613ea1565b50829750879550505050505092915050565b613ef481614e9a565b82525050565b613f0381614ea6565b82525050565b613f1281614ed2565b82525050565b613f2181614ed2565b82525050565b613f3081614edc565b82525050565b6000613f4182614e01565b613f4b8185614e66565b9350613f5b818560208601614f92565b613f6481615055565b840191505092915050565b6000613f7c601583614e77565b91507f42726964676520416464726573732075706461746500000000000000000000006000830152602082019050919050565b6000613fbc602683614e77565b91507f4f776e61626c653a206e6577206f776e657220697320746865207a65726f206160008301527f64647265737300000000000000000000000000000000000000000000000000006020830152604082019050919050565b6000614022601283614e77565b91507f5365727669636520646573616c6c6f77656400000000000000000000000000006000830152602082019050919050565b6000614062601983614e77565b91507f4c656769736c61746f72204164647265737320757064617465000000000000006000830152602082019050919050565b60006140a2600c83614e77565b91507f416c657274206f6e2f6f666600000000000000000000000000000000000000006000830152602082019050919050565b60006140e2600f83614e77565b91507f436f6e7472616374206f6e2f6f666600000000000000000000000000000000006000830152602082019050919050565b6000614122600b83614e77565b91507f4e657720736572766963650000000000000000000000000000000000000000006000830152602082019050919050565b6000614162601083614e77565b91507f4e657720436f6e66696720416c657274000000000000000000000000000000006000830152602082019050919050565b60006141a2601483614e77565b91507f4c656769737461746f72206e6f742076616c69640000000000000000000000006000830152602082019050919050565b60006141e2600b83614e77565b91507f53657276696365206f66660000000000000000000000000000000000000000006000830152602082019050919050565b6000614222602083614e77565b91507f4f776e61626c653a2063616c6c6572206973206e6f7420746865206f776e65726000830152602082019050919050565b6000614262601183614e77565b91507f53657276696365206e6f742065786973740000000000000000000000000000006000830152602082019050919050565b60006142a2600f83614e77565b91507f5365727669636520616c6c6f77656400000000000000000000000000000000006000830152602082019050919050565b60006142e2601183614e77565b91507f436f6e7472616374206f6666206c696e650000000000000000000000000000006000830152602082019050919050565b6000614322601383614e77565b91507f53657276696365206e6f7420616c6c6f776564000000000000000000000000006000830152602082019050919050565b6000614362601083614e77565b91507f53657276696365206f6666206c696e65000000000000000000000000000000006000830152602082019050919050565b60006143a2600a83614e77565b91507f53657276696365206f6e000000000000000000000000000000000000000000006000830152602082019050919050565b60006143e2600d83614e77565b91507f4163636573732064656e696564000000000000000000000000000000000000006000830152602082019050919050565b60006101608301600083015161442e6000860182613f27565b50602083015161444160208601826147ca565b50604083015184820360408601526144598282613f36565b915050606083015161446e6060860182613d85565b5060808301516144816080860182614815565b5060a083015161449460a0860182614815565b5060c08301516144a760c0860182613f27565b5060e08301516144ba60e0860182613f27565b506101008301516144cf610100860182613eeb565b506101208301516144e46101208601826145a6565b506101408301516144f96101408601826145a6565b508091505092915050565b6101008201600082015161451b6000850182613f27565b50602082015161452e6020850182614806565b5060408201516145416040850182614815565b5060608201516145546060850182614815565b5060808201516145676080850182613d85565b5060a082015161457a60a0850182613d85565b5060c082015161458d60c0850182613d85565b5060e08201516145a060e0850182613eeb565b50505050565b6020820160008201516145bc60008501826147e8565b50505050565b6000610180830160008301516145db6000860182613f27565b5060208301516145ee6020860182613f27565b5060408301516146016040860182613efa565b5060608301516146146060860182614824565b5060808301516146276080860182613eeb565b5060a083015161463a60a0860182613eeb565b5060c083015184820360c08601526146528282613f36565b91505060e083015161466760e0860182613d85565b5061010083015161467c610100860182613d85565b50610120830151614691610120860182613d85565b506101408301516146a66101408601826145a6565b506101608301516146bb6101608601826145a6565b508091505092915050565b6000610180830160008301516146df6000860182613f27565b5060208301516146f26020860182613f27565b5060408301516147056040860182613efa565b5060608301516147186060860182614824565b50608083015161472b6080860182613eeb565b5060a083015161473e60a0860182613eeb565b5060c083015184820360c08601526147568282613f36565b91505060e083015161476b60e0860182613d85565b50610100830151614780610100860182613d85565b50610120830151614795610120860182613d85565b506101408301516147aa6101408601826145a6565b506101608301516147bf6101608601826145a6565b508091505092915050565b6147d381614f08565b82525050565b6147e281614f71565b82525050565b6147f181614f36565b82525050565b61480081614f36565b82525050565b61480f81614f40565b82525050565b61481e81614f50565b82525050565b61482d81614f64565b82525050565b60006020820190506148486000830184613d94565b92915050565b600060208201905081810360008301526148688184613da3565b905092915050565b6000604082019050818103600083015261488a8185613da3565b9050818103602083015261489e8184613da3565b90509392505050565b600060208201905081810360008301526148c18184613e01565b905092915050565b600060208201905081810360008301526148e38184613e76565b905092915050565b60006040820190506149006000830185613f18565b61490d6020830184613f18565b9392505050565b6000602082019050818103600083015261492d81613faf565b9050919050565b6000604082019050818103600083015261494d816140d5565b905061495c6020830184613d94565b92915050565b6000604082019050818103600083015261497b81614115565b905061498a6020830184613d94565b92915050565b600060208201905081810360008301526149a981614195565b9050919050565b600060208201905081810360008301526149c981614215565b9050919050565b600060208201905081810360008301526149e981614255565b9050919050565b60006020820190508181036000830152614a09816142d5565b9050919050565b60006020820190508181036000830152614a2981614315565b9050919050565b60006020820190508181036000830152614a4981614355565b9050919050565b60006020820190508181036000830152614a69816143d5565b9050919050565b600061010082019050614a866000830184614504565b92915050565b60006020820190508181036000830152614aa681846146c6565b905092915050565b6000608082019050614ac360008301866147d9565b614ad060208301856147f7565b8181036040830152614ae181614155565b9050614af06060830184613d94565b949350505050565b6000602082019050614b0d60008301846147f7565b92915050565b6000608082019050614b2860008301876147f7565b614b356020830186613f18565b614b426040830185613f18565b614b4f6060830184613d94565b95945050505050565b6000606082019050614b6d60008301856147f7565b8181036020830152614b7e81613f6f565b9050614b8d6040830184613d94565b9392505050565b6000606082019050614ba960008301856147f7565b8181036020830152614bba81614015565b9050614bc96040830184613d94565b9392505050565b6000606082019050614be560008301856147f7565b8181036020830152614bf681614055565b9050614c056040830184613d94565b9392505050565b6000606082019050614c2160008301856147f7565b8181036020830152614c32816141d5565b9050614c416040830184613d94565b9392505050565b6000606082019050614c5d60008301856147f7565b8181036020830152614c6e81614295565b9050614c7d6040830184613d94565b9392505050565b6000606082019050614c9960008301856147f7565b8181036020830152614caa81614395565b9050614cb96040830184613d94565b9392505050565b6000608082019050614cd560008301876147f7565b614ce260208301866147f7565b614cef6040830185613f18565b614cfc6060830184613d94565b95945050505050565b6000608082019050614d1a60008301866147f7565b614d2760208301856147f7565b8181036040830152614d3881614095565b9050614d476060830184613d94565b949350505050565b6000604051905081810181811067ffffffffffffffff82111715614d7657614d75615026565b5b8060405250919050565b600067ffffffffffffffff821115614d9b57614d9a615026565b5b601f19601f8301169050602081019050919050565b6000819050602082019050919050565b6000819050602082019050919050565b6000819050602082019050919050565b600081519050919050565b600081519050919050565b600081519050919050565b600081519050919050565b6000602082019050919050565b6000602082019050919050565b6000602082019050919050565b600082825260208201905092915050565b600082825260208201905092915050565b600082825260208201905092915050565b600082825260208201905092915050565b600082825260208201905092915050565b6000614e9382614f16565b9050919050565b60008115159050919050565b60007fff0000000000000000000000000000000000000000000000000000000000000082169050919050565b6000819050919050565b60007fffffffffffffffff00000000000000000000000000000000000000000000000082169050919050565b600061ffff82169050919050565b600073ffffffffffffffffffffffffffffffffffffffff82169050919050565b6000819050919050565b600063ffffffff82169050919050565b600067ffffffffffffffff82169050919050565b600060ff82169050919050565b6000614f7c82614f08565b9050919050565b82818337600083830152505050565b60005b83811015614fb0578082015181840152602081019050614f95565b83811115614fbf576000848401525b50505050565b60006002820490506001821680614fdd57607f821691505b60208210811415614ff157614ff0614ff7565b5b50919050565b7f4e487b7100000000000000000000000000000000000000000000000000000000600052602260045260246000fd5b7f4e487b7100000000000000000000000000000000000000000000000000000000600052604160045260246000fd5b6000601f19601f8301169050919050565b61506f81614e88565b811461507a57600080fd5b50565b61508681614ea6565b811461509157600080fd5b50565b61509d81614ed2565b81146150a857600080fd5b50565b6150b481614edc565b81146150bf57600080fd5b50565b6150cb81614f08565b81146150d657600080fd5b50565b6150e281614f36565b81146150ed57600080fd5b50565b6150f981614f50565b811461510457600080fd5b50565b61511081614f64565b811461511b57600080fd5b5056fea26469706673582212209443c323802449227af922c130adaaf7d814123731aa59a255518140b269d4d164736f6c63430008000033",
  "immutableReferences": {},
  "source": "// SPDX-License-Identifier: MIT\r\npragma solidity 0.8.0;\r\n\r\nimport \"../node_modules/@openzeppelin/contracts/utils/Counters.sol\";\r\nimport \"../node_modules/@openzeppelin/contracts/access/Ownable.sol\";\r\n\r\ncontract ClientContract is Ownable {\r\n    using Counters for Counters.Counter;\r\n    \r\n    // struct mesure en-tte (32) { \r\n    //   //V0.1     XX.XX.XX    00.01.00\r\n    //   Version : bytes8;\r\n    //   Date : YYYYmmddHHii : byte12\r\n    //   Code de mesure : bytes8 - CODE : 4 chiffre/lettre pour la nature physique - 4 chiffre/lettre pour la version\r\n    //   Code temporel : bytes1 (Horaire, Journalier) Y m d H i\r\n    //   Nb temporel : bytes3 \r\n    // }\r\n    \r\n    // struct mesure donne (32) { \r\n    //   Valeur 1 Max : bytes8\r\n    //   Valeur 2 Moyenne : bytes8\r\n    //   Valeur 3 Mdiane : bytes8\r\n    //   Valeur 4 Min : bytes8\r\n    // }\r\n\r\n    // struct alert donne (32) { \r\n    //   Version : bytes8\r\n    //   CodeAlert : bytes4    \r\n    //   Date : YYYYmmddHHii : byte12\r\n    //   Valeur alert : bytes8\r\n    // }\r\n\r\n    /**\r\n    * @dev Structure of Configuration\r\n    * @notice Version and status of activation\r\n    * @notice Link to other contract\r\n    */\r\n    struct Config {\r\n        bytes8 version;\r\n        uint32 clientId;\r\n        uint64 prevContractDate;\r\n        uint64 nextContractDate;\r\n        address customerAddress;\r\n        address prevContract;\r\n        address nextContract;\r\n        bool isActive;\r\n    }\r\n    \r\n    /**\r\n     * @dev Structure of Service\r\n     * @notice Feature_V2 \r\n     */\r\n    struct Service {\r\n        bytes8 version;\r\n        bytes8 measureType;\r\n        bytes1 timeCode;\r\n        uint8 nbTime;\r\n        bool isActive;\r\n        bool isAllowed;\r\n        string description;\r\n        address bridgeAddress;\r\n        address techMasterAddress;\r\n        address legislatorAddress;\r\n\r\n        Counters.Counter measureIdCounter;\r\n        Counters.Counter IotIdCounter;     \r\n    }\r\n\r\n    /**\r\n     * @dev Structure of AlertConfig\r\n     * @notice Feature_V2 \r\n     */\r\n    struct AlertConfig {\r\n        bytes8 version;        \r\n        uint16 serviceId;\r\n        string description;   \r\n        address legislatorAddress;\r\n        uint64 dateOn;\r\n        uint64 dateOff;\r\n        bytes8 codeAlert;\r\n        bytes8 valueAlert;\r\n        bool isActive;\r\n\r\n        Counters.Counter alertConfigIdCounter;\r\n        Counters.Counter alertIdCounter;         \r\n    }\r\n\r\n    /**\r\n     * @dev Structure of Iot\r\n     * @notice Feature_V2 \r\n     */\r\n    struct Iot {\r\n        bytes6 mac;     \r\n        string description;\r\n        bool isActive;\r\n    }\r\n\r\n    modifier isContractActive() {\r\n        require(_myConfig.isActive, \"Contract off line\");\r\n        _;\r\n    }\r\n\r\n    modifier isServiceActive(uint _serviceId) {\r\n        require(_serviceId < _serviceIdCounter.current(), \"Service not exist\"); \r\n        require(_services[_serviceId].isActive, \"Service off line\"); \r\n        require(_services[_serviceId].isAllowed, \"Service not allowed\"); \r\n        _;\r\n    }\r\n\r\n    modifier onlyCustomer() {\r\n        require (_myConfig.customerAddress == msg.sender || owner() ==  msg.sender, \"Access denied\");\r\n        _;\r\n    }\r\n\r\n    modifier onlyBridge(uint _serviceId) {\r\n        require (_services[_serviceId].bridgeAddress == msg.sender || owner() ==  msg.sender, \"Access denied\");\r\n        _;\r\n    }\r\n\r\n    modifier onlyTechMaster(uint _serviceId) {\r\n        require (_services[_serviceId].techMasterAddress == msg.sender || owner() ==  msg.sender, \"Access denied\");\r\n        _;\r\n    }\r\n\r\n    modifier onlyLegislator(uint _serviceId) {\r\n        require (_services[_serviceId].legislatorAddress == msg.sender || owner() ==  msg.sender, \"Access denied\");\r\n        _;\r\n    }\r\n\r\n    event MeasureReceive(uint _serviceId, bytes32 _header, bytes32 _body, address _author); \r\n    event AlertReceive(uint _serviceId, uint _alertConfigId, bytes32 _alert, address _author); \r\n    event ContractUpdate(string _message, address _author);      \r\n    event ServiceUpdate(uint _serviceId, string _message, address _author); \r\n    event ServiceElementUpdate(uint _serviceId, uint _id, string _message, address _author); \r\n               \r\n    Config private _myConfig;\r\n\r\n    Service[] private _services;\r\n    mapping(uint => bytes32[]) private _serviceHeaderMeasures;\r\n    mapping(uint => bytes32[]) private _serviceBodyMeasures;\r\n    mapping(uint => Iot[]) private _serviceMacIOT;\r\n    Counters.Counter public _serviceIdCounter;\r\n\r\n    AlertConfig[] private _serviceAlertConfig;\r\n    mapping(uint => bytes32[]) private _alerts; \r\n    Counters.Counter public _alertConfigIdCounter;\r\n \r\n    constructor (bytes8 _version, uint32 _clientId, address _customerAddress, address _prevContract, uint64 _prevContractDate) {\r\n        _myConfig = Config(\r\n            _version,\r\n            _clientId,\r\n            _prevContractDate,\r\n            0,\r\n            _customerAddress,\r\n            _prevContract,\r\n            address(0),\r\n            true\r\n        );\r\n        // TODO AJOUTER INSTANCE DU GRAND REGISTRE POUR POUVOIR Y ACCEDER SI NECESSAIRE\r\n    }\r\n\r\n    // CONFIG PART\r\n    \r\n    /**\r\n     * @dev get a Config\r\n     * @return config in memory\r\n     */\r\n    function getConfig() external view returns (Config memory) {\r\n        return _myConfig;\r\n    }\r\n\r\n    /**\r\n     * @dev toggle a Contract activation or deactivation\r\n     */\r\n    function toggleContract()\r\n        onlyOwner() external {\r\n        emit ContractUpdate(\"Contract on/off\", msg.sender);\r\n        _myConfig.isActive = !_myConfig.isActive;\r\n    }    \r\n\r\n    // SERVICE PART\r\n\r\n     /**\r\n     * @dev add a Service\r\n     * @param _version bytes8 version of service\r\n     * @param _description string description for the dApps interface\r\n     * @param _measureType bytes8 type of measure for the dApps interface\r\n     * @param _timeCode bytes1 time code for the dApps interface\r\n     * @param _nbTime uint8 number of times for the dApps interface\r\n     */\r\n    function addService(\r\n        bytes8 _version,   \r\n        string memory _description,\r\n        bytes8 _measureType,          \r\n        bytes1 _timeCode,\r\n        uint8 _nbTime) \r\n        onlyCustomer() isContractActive() external{\r\n      \r\n        Counters.Counter memory measureIdCounter;       \r\n        Counters.Counter memory IotIdCounter;    \r\n\r\n        _services.push(Service(\r\n        _version, \r\n        _measureType,  \r\n        _timeCode,    \r\n        _nbTime,   \r\n        true,  \r\n        true,                      \r\n        _description, \r\n        address(0),\r\n        address(0),\r\n        address(0),                     \r\n        measureIdCounter,\r\n        IotIdCounter));\r\n\r\n        emit ContractUpdate(\"New service\", msg.sender);\r\n\r\n        _serviceIdCounter.increment();\r\n    }  \r\n\r\n    /*\r\n    function _checkValidService(bytes8 _version, bytes8 _measureType, bytes1 _timeCode, uint8 _nbTime) \r\n        internal pure returns(bool _return){\r\n        // TODO LINK AU GRAND REGISTRE\r\n        // Eviter l'usage de type service dsactiv car n'tant plus pertinent\r\n        return true;       \r\n    }\r\n    */\r\n\r\n    /**\r\n     * @dev get a specific Service\r\n     * @param _serviceId index of service\r\n     * @return a specific service\r\n     */\r\n    function getOneService(\r\n        uint _serviceId) \r\n        external view returns(Service memory){   \r\n\r\n        return (_services[_serviceId]);\r\n    }\r\n\r\n    /**\r\n     * @dev get all Services\r\n     * @return an array of all the services\r\n     */\r\n    function getAllServices() \r\n        external view \r\n        returns(Service[] memory){    \r\n\r\n        return (_services);\r\n    }    \r\n\r\n    /**\r\n     * @dev toggle a Service activation or deactivation\r\n     * @param _serviceId index of service\r\n     */\r\n    function toggleService(\r\n        uint _serviceId)\r\n        onlyCustomer() external {\r\n\r\n        if(_services[_serviceId].isActive){\r\n            emit ServiceUpdate(_serviceId, \"Service off\", msg.sender);\r\n        }else{\r\n            emit ServiceUpdate(_serviceId, \"Service on\", msg.sender);\r\n        } \r\n        _services[_serviceId].isActive = !_services[_serviceId].isActive;\r\n    }\r\n\r\n    /**\r\n     * @dev toggle a Service allowed or desallowed\r\n     * @param _serviceId index of service\r\n     */\r\n    function toggleAllowed(\r\n        uint _serviceId)\r\n        onlyOwner() external {\r\n\r\n        if(_services[_serviceId].isAllowed){\r\n            emit ServiceUpdate(_serviceId, \"Service desallowed\", msg.sender);\r\n        }else{\r\n            emit ServiceUpdate(_serviceId, \"Service allowed\", msg.sender);\r\n        } \r\n        _services[_serviceId].isAllowed = !_services[_serviceId].isAllowed;\r\n    }\r\n\r\n    /**\r\n     * @dev set a TechMasterAddress\r\n     * @param _serviceId index of service \r\n     * @param _techMasterAddress techMaster's address\r\n     */\r\n    function setTechMasterAddress(\r\n        uint _serviceId,\r\n        address _techMasterAddress)\r\n        isContractActive() isServiceActive(_serviceId) onlyOwner() external {  \r\n        \r\n        _services[_serviceId].techMasterAddress = _techMasterAddress;\r\n\r\n        emit ServiceUpdate(_serviceId, \"Bridge Address update\", msg.sender);\r\n    }     \r\n\r\n    /**\r\n     * @dev set a BridgeAdress\r\n     * @param _serviceId index of service\r\n     * @param _bridgeAddress bridge's address\r\n     */\r\n    function setBridgeAddress(\r\n        uint _serviceId,\r\n        address _bridgeAddress)\r\n        isContractActive() isServiceActive(_serviceId) onlyTechMaster(_serviceId) external {  \r\n        \r\n        _services[_serviceId].bridgeAddress = _bridgeAddress;\r\n\r\n        emit ServiceUpdate(_serviceId, \"Bridge Address update\", msg.sender);\r\n    }   \r\n\r\n    /**\r\n     * @dev set a LegislatorAddress\r\n     * @param _serviceId index of service \r\n     * @param _legislatorAddress legislator's address\r\n     */\r\n    function setLegislatorAddress(\r\n        uint _serviceId,\r\n        address _legislatorAddress)\r\n        isContractActive() isServiceActive(_serviceId) onlyCustomer() external {  \r\n        \r\n        require(_checkValidLegislator(_legislatorAddress) == true, \"Legistator not valid\");\r\n\r\n        _services[_serviceId].legislatorAddress = _legislatorAddress;\r\n\r\n        emit ServiceUpdate(_serviceId, \"Legislator Address update\", msg.sender);\r\n    }     \r\n\r\n    function _checkValidLegislator(\r\n        address _address) \r\n        internal view \r\n        returns(bool _return){\r\n\r\n        if(_address != msg.sender)\r\n            return true;\r\n        // TODO LINK AU GRAND REGISTRE\r\n        return true;       \r\n    }\r\n\r\n    // MEASURE PART\r\n\r\n    /**\r\n     * @dev add a Measure\r\n     * @param _serviceId index of service \r\n     * @param _measureHeader header of the measure\r\n     * @param _measurebody body of the measure\r\n     */\r\n    function addMeasure(\r\n        uint _serviceId,\r\n        bytes32 _measureHeader,\r\n        bytes32 _measurebody) \r\n        isContractActive() isServiceActive(_serviceId) onlyBridge(_serviceId) external {    \r\n        \r\n        _serviceHeaderMeasures[_serviceId].push(_measureHeader);\r\n        _serviceBodyMeasures[_serviceId].push(_measurebody);\r\n        \r\n        _services[_serviceId].measureIdCounter.increment();\r\n\r\n        emit MeasureReceive(_serviceId, _measureHeader, _measurebody, msg.sender);\r\n    }\r\n\r\n    /**\r\n     * @dev get all Measures\r\n     * @param _serviceId index of service \r\n     * @return an array of all the services\r\n     */\r\n    function getAllMeasures(\r\n        uint _serviceId) \r\n        external view \r\n        returns(\r\n            bytes32[] memory,\r\n            bytes32[] memory){\r\n              \r\n        return (_serviceHeaderMeasures[_serviceId], _serviceBodyMeasures[_serviceId]);\r\n    }\r\n\r\n    /**\r\n     * @dev get a specific measure by id\r\n     * @param _serviceId index of service \r\n     * @param _measureId index of service \r\n     * @return the specific measure header and body\r\n     */    \r\n    function getMeasuresById(\r\n        uint _serviceId,\r\n        uint _measureId) \r\n        external view returns(\r\n            bytes32,\r\n            bytes32){\r\n              \r\n        return (_serviceHeaderMeasures[_serviceId][_measureId], _serviceBodyMeasures[_serviceId][_measureId]);\r\n    }  \r\n\r\n    // ALERT CONFIG PART\r\n\r\n    /**\r\n     * @dev add a fondation's alert config\r\n     * @param _serviceId index of service \r\n     * @param _version service's version\r\n     * @param _description alert config description \r\n     * @param _dateOn alert's starting date\r\n     * @param _dateOff alert's ending date\r\n     * @param _codeAlert alert's code\r\n     * @param _valueAlert alert's value\r\n     */\r\n    function addAlertConfig(\r\n        bytes8 _version,   \r\n        uint16 _serviceId,        \r\n        string memory _description,  \r\n        uint64 _dateOn,\r\n        uint64 _dateOff,\r\n        bytes8 _codeAlert,\r\n        bytes8 _valueAlert)\r\n        external {\r\n\r\n        address _legislatorAddress = msg.sender;\r\n\r\n        // TODO Penser  fermer la porte !!\r\n        // TODO Penser a vrifier que le service existe\r\n        \r\n        Counters.Counter memory alertConfigIdCounter;\r\n        Counters.Counter memory alertIdCounter;\r\n\r\n        _serviceAlertConfig.push(AlertConfig(\r\n            _version,  \r\n            _serviceId,  \r\n            _description,      \r\n            _legislatorAddress,\r\n            _dateOn,\r\n            _dateOff,\r\n            _codeAlert,\r\n            _valueAlert,\r\n            true,\r\n            alertConfigIdCounter,\r\n            alertIdCounter\r\n        ));\r\n\r\n        emit ServiceElementUpdate(_serviceId, _alertConfigIdCounter.current(), \"New Config Alert\", msg.sender);\r\n\r\n        _alertConfigIdCounter.increment();\r\n    }\r\n\r\n    /**\r\n     * @dev get all alert configs\r\n     */\r\n    function getAllAlertConfigs() \r\n        external view \r\n        returns(AlertConfig[] memory){\r\n              \r\n        return (_serviceAlertConfig);\r\n    }\r\n\r\n    /**\r\n     * @dev toggle an alert config\r\n     * @param _alertConfigId index of the alert config\r\n     */\r\n    function toggleAlertConfig(uint _alertConfigId) \r\n        external {\r\n\r\n        require ((msg.sender == _serviceAlertConfig[_alertConfigId].legislatorAddress) || (msg.sender == owner()));\r\n\r\n        uint _serviceId = _serviceAlertConfig[_alertConfigId].serviceId;\r\n\r\n        emit ServiceElementUpdate(_serviceId, _alertConfigId, \"Alert on/off\", msg.sender);\r\n\r\n        _serviceAlertConfig[_alertConfigId].isActive = !_serviceAlertConfig[_alertConfigId].isActive;\r\n    }       \r\n\r\n    // ALERTS PART\r\n\r\n    /**\r\n     * @dev add an alert\r\n     * @param _serviceId index of service \r\n     * @param _alertBody alert's body\r\n     */    \r\n    function addAlert(\r\n        uint _serviceId,\r\n        uint _alertConfigId,\r\n        bytes32 _alertBody) \r\n        isContractActive() isServiceActive(_serviceId) onlyBridge(_serviceId) external {         \r\n                   \r\n        _alerts[_alertConfigId].push(_alertBody);\r\n        _serviceAlertConfig[_alertConfigId].alertIdCounter.increment();\r\n\r\n        emit AlertReceive(_serviceId, _alertConfigId, _alertBody, msg.sender);\r\n    }\r\n\r\n    /**\r\n     * @dev get all alerts of a specific alerteConfig\r\n     * @param _alertConfigId index of alerteConfig \r\n     */  \r\n    function getAlerts(\r\n        uint _alertConfigId) \r\n        external view \r\n        returns(bytes32[] memory){\r\n            \r\n        return (_alerts[_alertConfigId]);        \r\n    }\r\n\r\n    // SERVICE IOT\r\n\r\n    // /**\r\n    //  * @dev add a sensor to the list\r\n    //  * @param _serviceId index of service\r\n    //  * @param _macAddress sensor's mac address\r\n    //  * @param _description sensor's description\r\n    //  */      \r\n    // function addIot(\r\n    //     uint _serviceId,\r\n    //     bytes6 _macAddress,\r\n    //     string memory _description) \r\n    //     isContractActive() isServiceActive(_serviceId) onlyTechMaster(_serviceId) external {  \r\n    //         _serviceMacIOT[_serviceId].push(Iot(\r\n    //             _macAddress,    \r\n    //             _description,      \r\n    //             true\r\n    //         ));\r\n\r\n    //     emit ServiceElementUpdate(_serviceId, _services[_serviceId].IotIdCounter.current(), \"Iot added\", msg.sender); \r\n\r\n    //     _services[_serviceId].IotIdCounter.increment();   \r\n    // }\r\n\r\n    // // /**\r\n    // //  * @dev get a specific sensor\r\n    // //  * @param _serviceId index of service\r\n    // //  * @return get a specific sensor by Id\r\n    // //  */ \r\n    // // function getIot(\r\n    // //     uint _serviceId) \r\n    // //     external view \r\n    //     returns(Iot[] memory) {\r\n              \r\n    //     return (_serviceMacIOT[_serviceId]);\r\n    // }\r\n\r\n    // /**\r\n    //  * @dev toggle a sensor activation or deactivation\r\n    //  * @param _serviceId index of service\r\n    //  * @param _iotId index of sensor\r\n    //  */     \r\n    // function toggleIOT(\r\n    //     uint _serviceId,\r\n    //     uint _iotId) \r\n    //     isContractActive() isServiceActive(_serviceId) onlyTechMaster(_serviceId) external {  \r\n    //     emit ServiceElementUpdate(_serviceId, _iotId, \"Iot on/off\", msg.sender);\r\n\r\n    //     _serviceMacIOT[_serviceId][_iotId].isActive = !_serviceMacIOT[_serviceId][_iotId].isActive;\r\n    // }\r\n\r\n}\r\n",
  "sourcePath": "C:/Users/danie/Desktop/Solidity/Projet final/eco-capt/contracts/ClientContract.sol",
  "compiler": {
    "name": "solc",
    "version": "0.8.0+commit.c7dfd78e.Emscripten.clang"
  },
  "schemaVersion": "3.3.4",
  "updatedAt": "2021-04-15T20:58:35.981Z",
  "networkType": "ethereum",
  "devdoc": {
    "kind": "dev",
    "methods": {
      "addAlert(uint256,uint256,bytes32)": {
        "details": "add an alert",
        "params": {
          "_alertBody": "alert's body",
          "_serviceId": "index of service "
        }
      },
      "addAlertConfig(bytes8,uint16,string,uint64,uint64,bytes8,bytes8)": {
        "details": "add a fondation's alert config",
        "params": {
          "_codeAlert": "alert's code",
          "_dateOff": "alert's ending date",
          "_dateOn": "alert's starting date",
          "_description": "alert config description ",
          "_serviceId": "index of service ",
          "_valueAlert": "alert's value",
          "_version": "service's version"
        }
      },
      "addMeasure(uint256,bytes32,bytes32)": {
        "details": "add a Measure",
        "params": {
          "_measureHeader": "header of the measure",
          "_measurebody": "body of the measure",
          "_serviceId": "index of service "
        }
      },
      "addService(bytes8,string,bytes8,bytes1,uint8)": {
        "details": "add a Service",
        "params": {
          "_description": "string description for the dApps interface",
          "_measureType": "bytes8 type of measure for the dApps interface",
          "_nbTime": "uint8 number of times for the dApps interface",
          "_timeCode": "bytes1 time code for the dApps interface",
          "_version": "bytes8 version of service"
        }
      },
      "getAlerts(uint256)": {
        "details": "get all alerts of a specific alerteConfig",
        "params": {
          "_alertConfigId": "index of alerteConfig "
        }
      },
      "getAllAlertConfigs()": {
        "details": "get all alert configs"
      },
      "getAllMeasures(uint256)": {
        "details": "get all Measures",
        "params": {
          "_serviceId": "index of service "
        },
        "returns": {
          "_0": "an array of all the services"
        }
      },
      "getAllServices()": {
        "details": "get all Services",
        "returns": {
          "_0": "an array of all the services"
        }
      },
      "getConfig()": {
        "details": "get a Config",
        "returns": {
          "_0": "config in memory"
        }
      },
      "getMeasuresById(uint256,uint256)": {
        "details": "get a specific measure by id",
        "params": {
          "_measureId": "index of service ",
          "_serviceId": "index of service "
        },
        "returns": {
          "_0": "the specific measure header and body"
        }
      },
      "getOneService(uint256)": {
        "details": "get a specific Service",
        "params": {
          "_serviceId": "index of service"
        },
        "returns": {
          "_0": "a specific service"
        }
      },
      "owner()": {
        "details": "Returns the address of the current owner."
      },
      "renounceOwnership()": {
        "details": "Leaves the contract without owner. It will not be possible to call `onlyOwner` functions anymore. Can only be called by the current owner. NOTE: Renouncing ownership will leave the contract without an owner, thereby removing any functionality that is only available to the owner."
      },
      "setBridgeAddress(uint256,address)": {
        "details": "set a BridgeAdress",
        "params": {
          "_bridgeAddress": "bridge's address",
          "_serviceId": "index of service"
        }
      },
      "setLegislatorAddress(uint256,address)": {
        "details": "set a LegislatorAddress",
        "params": {
          "_legislatorAddress": "legislator's address",
          "_serviceId": "index of service "
        }
      },
      "setTechMasterAddress(uint256,address)": {
        "details": "set a TechMasterAddress",
        "params": {
          "_serviceId": "index of service ",
          "_techMasterAddress": "techMaster's address"
        }
      },
      "toggleAlertConfig(uint256)": {
        "details": "toggle an alert config",
        "params": {
          "_alertConfigId": "index of the alert config"
        }
      },
      "toggleAllowed(uint256)": {
        "details": "toggle a Service allowed or desallowed",
        "params": {
          "_serviceId": "index of service"
        }
      },
      "toggleContract()": {
        "details": "toggle a Contract activation or deactivation"
      },
      "toggleService(uint256)": {
        "details": "toggle a Service activation or deactivation",
        "params": {
          "_serviceId": "index of service"
        }
      },
      "transferOwnership(address)": {
        "details": "Transfers ownership of the contract to a new account (`newOwner`). Can only be called by the current owner."
      }
    },
    "version": 1
  },
  "userdoc": {
    "kind": "user",
    "methods": {},
    "version": 1
  }
}