{
  "contractName": "ClientContract",
  "abi": [
    {
      "inputs": [
        {
          "internalType": "bytes8",
          "name": "_version",
          "type": "bytes8"
        },
        {
          "internalType": "address",
          "name": "_customerAddress",
          "type": "address"
        },
        {
          "internalType": "address",
          "name": "_prevContract",
          "type": "address"
        },
        {
          "internalType": "uint64",
          "name": "_prevContractDate",
          "type": "uint64"
        }
      ],
      "stateMutability": "nonpayable",
      "type": "constructor"
    },
    {
      "anonymous": false,
      "inputs": [
        {
          "indexed": false,
          "internalType": "uint256",
          "name": "_service_id",
          "type": "uint256"
        },
        {
          "indexed": false,
          "internalType": "bytes32",
          "name": "_alert",
          "type": "bytes32"
        }
      ],
      "name": "AlertReceive",
      "type": "event"
    },
    {
      "anonymous": false,
      "inputs": [
        {
          "indexed": false,
          "internalType": "string",
          "name": "message",
          "type": "string"
        }
      ],
      "name": "ContractUpdate",
      "type": "event"
    },
    {
      "anonymous": false,
      "inputs": [
        {
          "indexed": false,
          "internalType": "uint256",
          "name": "_service_id",
          "type": "uint256"
        },
        {
          "indexed": false,
          "internalType": "bytes32",
          "name": "_header",
          "type": "bytes32"
        },
        {
          "indexed": false,
          "internalType": "bytes32",
          "name": "_body",
          "type": "bytes32"
        }
      ],
      "name": "MeasureReceive",
      "type": "event"
    },
    {
      "anonymous": false,
      "inputs": [
        {
          "indexed": true,
          "internalType": "address",
          "name": "previousOwner",
          "type": "address"
        },
        {
          "indexed": true,
          "internalType": "address",
          "name": "newOwner",
          "type": "address"
        }
      ],
      "name": "OwnershipTransferred",
      "type": "event"
    },
    {
      "inputs": [],
      "name": "owner",
      "outputs": [
        {
          "internalType": "address",
          "name": "",
          "type": "address"
        }
      ],
      "stateMutability": "view",
      "type": "function",
      "constant": true
    },
    {
      "inputs": [],
      "name": "renounceOwnership",
      "outputs": [],
      "stateMutability": "nonpayable",
      "type": "function"
    },
    {
      "inputs": [
        {
          "internalType": "address",
          "name": "newOwner",
          "type": "address"
        }
      ],
      "name": "transferOwnership",
      "outputs": [],
      "stateMutability": "nonpayable",
      "type": "function"
    },
    {
      "inputs": [
        {
          "internalType": "bytes8",
          "name": "_version",
          "type": "bytes8"
        },
        {
          "internalType": "string",
          "name": "_description",
          "type": "string"
        },
        {
          "internalType": "bytes8",
          "name": "_measureType",
          "type": "bytes8"
        },
        {
          "internalType": "bytes1",
          "name": "_timeCode",
          "type": "bytes1"
        },
        {
          "internalType": "uint8",
          "name": "_nbTime",
          "type": "uint8"
        }
      ],
      "name": "addService",
      "outputs": [],
      "stateMutability": "nonpayable",
      "type": "function"
    },
    {
      "inputs": [
        {
          "internalType": "uint256",
          "name": "_serviceId",
          "type": "uint256"
        }
      ],
      "name": "getOneService",
      "outputs": [
        {
          "components": [
            {
              "internalType": "bytes8",
              "name": "version",
              "type": "bytes8"
            },
            {
              "internalType": "bytes8",
              "name": "measureType",
              "type": "bytes8"
            },
            {
              "internalType": "bytes1",
              "name": "timeCode",
              "type": "bytes1"
            },
            {
              "internalType": "uint8",
              "name": "nbTime",
              "type": "uint8"
            },
            {
              "internalType": "bool",
              "name": "isActive",
              "type": "bool"
            },
            {
              "internalType": "string",
              "name": "description",
              "type": "string"
            },
            {
              "internalType": "address",
              "name": "bridgeAddress",
              "type": "address"
            },
            {
              "internalType": "address",
              "name": "techMasterAddress",
              "type": "address"
            },
            {
              "internalType": "address",
              "name": "legislatorAddress",
              "type": "address"
            },
            {
              "components": [
                {
                  "internalType": "uint256",
                  "name": "_value",
                  "type": "uint256"
                }
              ],
              "internalType": "struct Counters.Counter",
              "name": "alertConfigIdCounter",
              "type": "tuple"
            },
            {
              "components": [
                {
                  "internalType": "uint256",
                  "name": "_value",
                  "type": "uint256"
                }
              ],
              "internalType": "struct Counters.Counter",
              "name": "alertIdCounter",
              "type": "tuple"
            },
            {
              "components": [
                {
                  "internalType": "uint256",
                  "name": "_value",
                  "type": "uint256"
                }
              ],
              "internalType": "struct Counters.Counter",
              "name": "measureIdCounter",
              "type": "tuple"
            }
          ],
          "internalType": "struct ClientContract.Service",
          "name": "",
          "type": "tuple"
        }
      ],
      "stateMutability": "view",
      "type": "function",
      "constant": true
    },
    {
      "inputs": [],
      "name": "getAllServices",
      "outputs": [
        {
          "components": [
            {
              "internalType": "bytes8",
              "name": "version",
              "type": "bytes8"
            },
            {
              "internalType": "bytes8",
              "name": "measureType",
              "type": "bytes8"
            },
            {
              "internalType": "bytes1",
              "name": "timeCode",
              "type": "bytes1"
            },
            {
              "internalType": "uint8",
              "name": "nbTime",
              "type": "uint8"
            },
            {
              "internalType": "bool",
              "name": "isActive",
              "type": "bool"
            },
            {
              "internalType": "string",
              "name": "description",
              "type": "string"
            },
            {
              "internalType": "address",
              "name": "bridgeAddress",
              "type": "address"
            },
            {
              "internalType": "address",
              "name": "techMasterAddress",
              "type": "address"
            },
            {
              "internalType": "address",
              "name": "legislatorAddress",
              "type": "address"
            },
            {
              "components": [
                {
                  "internalType": "uint256",
                  "name": "_value",
                  "type": "uint256"
                }
              ],
              "internalType": "struct Counters.Counter",
              "name": "alertConfigIdCounter",
              "type": "tuple"
            },
            {
              "components": [
                {
                  "internalType": "uint256",
                  "name": "_value",
                  "type": "uint256"
                }
              ],
              "internalType": "struct Counters.Counter",
              "name": "alertIdCounter",
              "type": "tuple"
            },
            {
              "components": [
                {
                  "internalType": "uint256",
                  "name": "_value",
                  "type": "uint256"
                }
              ],
              "internalType": "struct Counters.Counter",
              "name": "measureIdCounter",
              "type": "tuple"
            }
          ],
          "internalType": "struct ClientContract.Service[]",
          "name": "",
          "type": "tuple[]"
        }
      ],
      "stateMutability": "view",
      "type": "function",
      "constant": true
    },
    {
      "inputs": [
        {
          "internalType": "uint256",
          "name": "_serviceId",
          "type": "uint256"
        },
        {
          "internalType": "bytes32",
          "name": "_measureHeader",
          "type": "bytes32"
        },
        {
          "internalType": "bytes32",
          "name": "_measurebody",
          "type": "bytes32"
        }
      ],
      "name": "addMeasure",
      "outputs": [],
      "stateMutability": "nonpayable",
      "type": "function"
    },
    {
      "inputs": [
        {
          "internalType": "uint256",
          "name": "_serviceId",
          "type": "uint256"
        }
      ],
      "name": "getAllMeasures",
      "outputs": [
        {
          "internalType": "bytes32[]",
          "name": "",
          "type": "bytes32[]"
        },
        {
          "internalType": "bytes32[]",
          "name": "",
          "type": "bytes32[]"
        }
      ],
      "stateMutability": "view",
      "type": "function",
      "constant": true
    },
    {
      "inputs": [
        {
          "internalType": "uint256",
          "name": "_serviceId",
          "type": "uint256"
        },
        {
          "internalType": "uint256",
          "name": "_measureId",
          "type": "uint256"
        }
      ],
      "name": "getMeasuresById",
      "outputs": [
        {
          "internalType": "bytes32",
          "name": "",
          "type": "bytes32"
        },
        {
          "internalType": "bytes32",
          "name": "",
          "type": "bytes32"
        }
      ],
      "stateMutability": "view",
      "type": "function",
      "constant": true
    },
    {
      "inputs": [
        {
          "internalType": "uint256",
          "name": "_serviceId",
          "type": "uint256"
        },
        {
          "internalType": "bytes8",
          "name": "_version",
          "type": "bytes8"
        },
        {
          "internalType": "uint64",
          "name": "_dateOn",
          "type": "uint64"
        },
        {
          "internalType": "uint64",
          "name": "_dateOff",
          "type": "uint64"
        },
        {
          "internalType": "bytes8",
          "name": "_codeAlert",
          "type": "bytes8"
        },
        {
          "internalType": "bytes8",
          "name": "_valueAlert",
          "type": "bytes8"
        }
      ],
      "name": "addAlertConfigCustomer",
      "outputs": [],
      "stateMutability": "nonpayable",
      "type": "function"
    },
    {
      "inputs": [
        {
          "internalType": "uint256",
          "name": "_serviceId",
          "type": "uint256"
        },
        {
          "internalType": "bytes8",
          "name": "_version",
          "type": "bytes8"
        },
        {
          "internalType": "uint64",
          "name": "_dateOn",
          "type": "uint64"
        },
        {
          "internalType": "uint64",
          "name": "_dateOff",
          "type": "uint64"
        },
        {
          "internalType": "bytes8",
          "name": "_codeAlert",
          "type": "bytes8"
        },
        {
          "internalType": "bytes8",
          "name": "_valueAlert",
          "type": "bytes8"
        }
      ],
      "name": "addAlertConfigLegislator",
      "outputs": [],
      "stateMutability": "nonpayable",
      "type": "function"
    },
    {
      "inputs": [
        {
          "internalType": "uint256",
          "name": "_serviceId",
          "type": "uint256"
        }
      ],
      "name": "getAllAlertConfigs",
      "outputs": [
        {
          "components": [
            {
              "internalType": "bytes8",
              "name": "version",
              "type": "bytes8"
            },
            {
              "internalType": "address",
              "name": "legislatorAddress",
              "type": "address"
            },
            {
              "internalType": "uint64",
              "name": "dateOn",
              "type": "uint64"
            },
            {
              "internalType": "uint64",
              "name": "dateOff",
              "type": "uint64"
            },
            {
              "internalType": "bytes8",
              "name": "codeAlert",
              "type": "bytes8"
            },
            {
              "internalType": "bytes8",
              "name": "valueAlert",
              "type": "bytes8"
            },
            {
              "internalType": "bool",
              "name": "isActive",
              "type": "bool"
            }
          ],
          "internalType": "struct ClientContract.AlertConfig[]",
          "name": "",
          "type": "tuple[]"
        }
      ],
      "stateMutability": "view",
      "type": "function",
      "constant": true
    },
    {
      "inputs": [
        {
          "internalType": "uint256",
          "name": "_serviceId",
          "type": "uint256"
        },
        {
          "internalType": "bytes32",
          "name": "_alertBody",
          "type": "bytes32"
        }
      ],
      "name": "addAlert",
      "outputs": [],
      "stateMutability": "nonpayable",
      "type": "function"
    },
    {
      "inputs": [
        {
          "internalType": "uint256",
          "name": "_serviceId",
          "type": "uint256"
        }
      ],
      "name": "getAlerts",
      "outputs": [
        {
          "internalType": "bytes32[]",
          "name": "",
          "type": "bytes32[]"
        }
      ],
      "stateMutability": "view",
      "type": "function",
      "constant": true
    }
  ],
  "bytecode": "0x60806040523480156200001157600080fd5b50604051620038263803806200382683398181016040528101906200003791906200033e565b600062000049620002f160201b60201c565b9050806000806101000a81548173ffffffffffffffffffffffffffffffffffffffff021916908373ffffffffffffffffffffffffffffffffffffffff1602179055508073ffffffffffffffffffffffffffffffffffffffff16600073ffffffffffffffffffffffffffffffffffffffff167f8be0079c531659141344cd1fd0a4f28419497f9722a3daafe3b4186f6b6457e060405160405180910390a3506040518060c001604052808577ffffffffffffffffffffffffffffffffffffffffffffffff191681526020018267ffffffffffffffff168152602001600067ffffffffffffffff1681526020018473ffffffffffffffffffffffffffffffffffffffff1681526020018373ffffffffffffffffffffffffffffffffffffffff168152602001600073ffffffffffffffffffffffffffffffffffffffff16815250600160008201518160000160006101000a81548167ffffffffffffffff021916908360c01c021790555060208201518160000160086101000a81548167ffffffffffffffff021916908367ffffffffffffffff16021790555060408201518160000160106101000a81548167ffffffffffffffff021916908367ffffffffffffffff16021790555060608201518160010160006101000a81548173ffffffffffffffffffffffffffffffffffffffff021916908373ffffffffffffffffffffffffffffffffffffffff16021790555060808201518160020160006101000a81548173ffffffffffffffffffffffffffffffffffffffff021916908373ffffffffffffffffffffffffffffffffffffffff16021790555060a08201518160030160006101000a81548173ffffffffffffffffffffffffffffffffffffffff021916908373ffffffffffffffffffffffffffffffffffffffff160217905550905050505050506200046c565b600033905090565b6000815190506200030a816200041e565b92915050565b600081519050620003218162000438565b92915050565b600081519050620003388162000452565b92915050565b600080600080608085870312156200035557600080fd5b6000620003658782880162000310565b94505060206200037887828801620002f9565b93505060406200038b87828801620002f9565b92505060606200039e8782880162000327565b91505092959194509250565b6000620003b782620003ea565b9050919050565b60007fffffffffffffffff00000000000000000000000000000000000000000000000082169050919050565b600073ffffffffffffffffffffffffffffffffffffffff82169050919050565b600067ffffffffffffffff82169050919050565b6200042981620003aa565b81146200043557600080fd5b50565b6200044381620003be565b81146200044f57600080fd5b50565b6200045d816200040a565b81146200046957600080fd5b50565b6133aa806200047c6000396000f3fe608060405234801561001057600080fd5b50600436106100ea5760003560e01c8063ae7157ab1161008c578063d4ef189f11610066578063d4ef189f1461024b578063da6cd37614610267578063f2fde38b14610283578063f78302a61461029f576100ea565b8063ae7157ab146101e3578063b2e733bf146101ff578063d3088f2b1461021b576100ea565b806351f2c5ad116100c857806351f2c5ad1461016e578063715018a61461019f5780638da5cb5b146101a9578063921497c0146101c7576100ea565b806317842b28146100ef57806321fe0f301461011f5780632669167a1461013d575b600080fd5b61010960048036038101906101049190612545565b6102cf565b6040516101169190612dc4565b60405180910390f35b61012761033a565b6040516101349190612e3f565b60405180910390f35b61015760048036038101906101529190612682565b6106b5565b604051610165929190612e61565b60405180910390f35b61018860048036038101906101839190612545565b61076f565b604051610196929190612de6565b60405180910390f35b6101a7610845565b005b6101b161097f565b6040516101be9190612da9565b60405180910390f35b6101e160048036038101906101dc91906125f9565b6109a8565b005b6101fd60048036038101906101f8919061256e565b610bbc565b005b610219600480360381019061021491906125aa565b610e83565b005b61023560048036038101906102309190612545565b611187565b6040516102429190612f6a565b60405180910390f35b610265600480360381019061026091906125f9565b611505565b005b610281600480360381019061027c91906124b6565b6116d1565b005b61029d6004803603810190610298919061248d565b611b0a565b005b6102b960048036038101906102b49190612545565b611cb3565b6040516102c69190612e1d565b60405180910390f35b6060600a600083815260200190815260200160002080548060200260200160405190810160405280929190818152602001828054801561032e57602002820191906000526020600020905b81548152602001906001019080831161031a575b50505050509050919050565b60606005805480602002602001604051908101604052809291908181526020016000905b828210156106ac5783829060005260206000209060080201604051806101800160405290816000820160009054906101000a900460c01b77ffffffffffffffffffffffffffffffffffffffffffffffff191677ffffffffffffffffffffffffffffffffffffffffffffffff191681526020016000820160089054906101000a900460c01b77ffffffffffffffffffffffffffffffffffffffffffffffff191677ffffffffffffffffffffffffffffffffffffffffffffffff191681526020016000820160109054906101000a900460f81b7effffffffffffffffffffffffffffffffffffffffffffffffffffffffffffff19167effffffffffffffffffffffffffffffffffffffffffffffffffffffffffffff191681526020016000820160119054906101000a900460ff1660ff1660ff1681526020016000820160129054906101000a900460ff161515151581526020016001820180546104bf90613232565b80601f01602080910402602001604051908101604052809291908181526020018280546104eb90613232565b80156105385780601f1061050d57610100808354040283529160200191610538565b820191906000526020600020905b81548152906001019060200180831161051b57829003601f168201915b505050505081526020016002820160009054906101000a900473ffffffffffffffffffffffffffffffffffffffff1673ffffffffffffffffffffffffffffffffffffffff1673ffffffffffffffffffffffffffffffffffffffff1681526020016003820160009054906101000a900473ffffffffffffffffffffffffffffffffffffffff1673ffffffffffffffffffffffffffffffffffffffff1673ffffffffffffffffffffffffffffffffffffffff1681526020016004820160009054906101000a900473ffffffffffffffffffffffffffffffffffffffff1673ffffffffffffffffffffffffffffffffffffffff1673ffffffffffffffffffffffffffffffffffffffff16815260200160058201604051806020016040529081600082015481525050815260200160068201604051806020016040529081600082015481525050815260200160078201604051806020016040529081600082015481525050815250508152602001906001019061035e565b50505050905090565b600080600860008581526020019081526020016000208381548110610703577f4e487b7100000000000000000000000000000000000000000000000000000000600052603260045260246000fd5b9060005260206000200154600960008681526020019081526020016000208481548110610759577f4e487b7100000000000000000000000000000000000000000000000000000000600052603260045260246000fd5b9060005260206000200154915091509250929050565b6060806008600084815260200190815260200160002060096000858152602001908152602001600020818054806020026020016040519081016040528092919081815260200182805480156107e357602002820191906000526020600020905b8154815260200190600101908083116107cf575b505050505091508080548060200260200160405190810160405280929190818152602001828054801561083557602002820191906000526020600020905b815481526020019060010190808311610821575b5050505050905091509150915091565b61084d611ee1565b73ffffffffffffffffffffffffffffffffffffffff1661086b61097f565b73ffffffffffffffffffffffffffffffffffffffff16146108c1576040517f08c379a00000000000000000000000000000000000000000000000000000000081526004016108b890612eea565b60405180910390fd5b600073ffffffffffffffffffffffffffffffffffffffff1660008054906101000a900473ffffffffffffffffffffffffffffffffffffffff1673ffffffffffffffffffffffffffffffffffffffff167f8be0079c531659141344cd1fd0a4f28419497f9722a3daafe3b4186f6b6457e060405160405180910390a360008060006101000a81548173ffffffffffffffffffffffffffffffffffffffff021916908373ffffffffffffffffffffffffffffffffffffffff160217905550565b60008060009054906101000a900473ffffffffffffffffffffffffffffffffffffffff16905090565b856109b36006611ee9565b81106109f4576040517f08c379a00000000000000000000000000000000000000000000000000000000081526004016109eb90612f0a565b60405180910390fd5b60058181548110610a2e577f4e487b7100000000000000000000000000000000000000000000000000000000600052603260045260246000fd5b906000526020600020906008020160000160129054906101000a900460ff16610a8c576040517f08c379a0000000000000000000000000000000000000000000000000000000008152600401610a8390612f2a565b60405180910390fd5b863373ffffffffffffffffffffffffffffffffffffffff1660058281548110610ade577f4e487b7100000000000000000000000000000000000000000000000000000000600052603260045260246000fd5b906000526020600020906008020160040160009054906101000a900473ffffffffffffffffffffffffffffffffffffffff1673ffffffffffffffffffffffffffffffffffffffff161480610b6457503373ffffffffffffffffffffffffffffffffffffffff16610b4c61097f565b73ffffffffffffffffffffffffffffffffffffffff16145b610ba3576040517f08c379a0000000000000000000000000000000000000000000000000000000008152600401610b9a90612f4a565b60405180910390fd5b610bb288883389898989611ef7565b5050505050505050565b81610bc76006611ee9565b8110610c08576040517f08c379a0000000000000000000000000000000000000000000000000000000008152600401610bff90612f0a565b60405180910390fd5b60058181548110610c42577f4e487b7100000000000000000000000000000000000000000000000000000000600052603260045260246000fd5b906000526020600020906008020160000160129054906101000a900460ff16610ca0576040517f08c379a0000000000000000000000000000000000000000000000000000000008152600401610c9790612f2a565b60405180910390fd5b823373ffffffffffffffffffffffffffffffffffffffff1660058281548110610cf2577f4e487b7100000000000000000000000000000000000000000000000000000000600052603260045260246000fd5b906000526020600020906008020160020160009054906101000a900473ffffffffffffffffffffffffffffffffffffffff1673ffffffffffffffffffffffffffffffffffffffff161480610d7857503373ffffffffffffffffffffffffffffffffffffffff16610d6061097f565b73ffffffffffffffffffffffffffffffffffffffff16145b610db7576040517f08c379a0000000000000000000000000000000000000000000000000000000008152600401610dae90612f4a565b60405180910390fd5b600a6000858152602001908152602001600020839080600181540180825580915050600190039060005260206000200160009091909190915055610e4460058581548110610e2e577f4e487b7100000000000000000000000000000000000000000000000000000000600052603260045260246000fd5b90600052602060002090600802016006016121b4565b7f15bb4446f2143b5075bf928b2a947f28fdbf4d49aede0da5f8eab031158027f88484604051610e75929190612f8c565b60405180910390a150505050565b82610e8e6006611ee9565b8110610ecf576040517f08c379a0000000000000000000000000000000000000000000000000000000008152600401610ec690612f0a565b60405180910390fd5b60058181548110610f09577f4e487b7100000000000000000000000000000000000000000000000000000000600052603260045260246000fd5b906000526020600020906008020160000160129054906101000a900460ff16610f67576040517f08c379a0000000000000000000000000000000000000000000000000000000008152600401610f5e90612f2a565b60405180910390fd5b833373ffffffffffffffffffffffffffffffffffffffff1660058281548110610fb9577f4e487b7100000000000000000000000000000000000000000000000000000000600052603260045260246000fd5b906000526020600020906008020160020160009054906101000a900473ffffffffffffffffffffffffffffffffffffffff1673ffffffffffffffffffffffffffffffffffffffff16148061103f57503373ffffffffffffffffffffffffffffffffffffffff1661102761097f565b73ffffffffffffffffffffffffffffffffffffffff16145b61107e576040517f08c379a000000000000000000000000000000000000000000000000000000000815260040161107590612f4a565b60405180910390fd5b60086000868152602001908152602001600020849080600181540180825580915050600190039060005260206000200160009091909190915055600960008681526020019081526020016000208390806001815401808255809150506001900390600052602060002001600090919091909150556111456005868154811061112f577f4e487b7100000000000000000000000000000000000000000000000000000000600052603260045260246000fd5b90600052602060002090600802016007016121b4565b7fc0ada5d96091dd7a8fd833bfd426b37a81e5422b98f8997cf6e46eebcb40d68c85858560405161117893929190612fb5565b60405180910390a15050505050565b61118f6121ca565b600582815481106111c9577f4e487b7100000000000000000000000000000000000000000000000000000000600052603260045260246000fd5b9060005260206000209060080201604051806101800160405290816000820160009054906101000a900460c01b77ffffffffffffffffffffffffffffffffffffffffffffffff191677ffffffffffffffffffffffffffffffffffffffffffffffff191681526020016000820160089054906101000a900460c01b77ffffffffffffffffffffffffffffffffffffffffffffffff191677ffffffffffffffffffffffffffffffffffffffffffffffff191681526020016000820160109054906101000a900460f81b7effffffffffffffffffffffffffffffffffffffffffffffffffffffffffffff19167effffffffffffffffffffffffffffffffffffffffffffffffffffffffffffff191681526020016000820160119054906101000a900460ff1660ff1660ff1681526020016000820160129054906101000a900460ff1615151515815260200160018201805461132090613232565b80601f016020809104026020016040519081016040528092919081815260200182805461134c90613232565b80156113995780601f1061136e57610100808354040283529160200191611399565b820191906000526020600020905b81548152906001019060200180831161137c57829003601f168201915b505050505081526020016002820160009054906101000a900473ffffffffffffffffffffffffffffffffffffffff1673ffffffffffffffffffffffffffffffffffffffff1673ffffffffffffffffffffffffffffffffffffffff1681526020016003820160009054906101000a900473ffffffffffffffffffffffffffffffffffffffff1673ffffffffffffffffffffffffffffffffffffffff1673ffffffffffffffffffffffffffffffffffffffff1681526020016004820160009054906101000a900473ffffffffffffffffffffffffffffffffffffffff1673ffffffffffffffffffffffffffffffffffffffff1673ffffffffffffffffffffffffffffffffffffffff16815260200160058201604051806020016040529081600082015481525050815260200160068201604051806020016040529081600082015481525050815260200160078201604051806020016040529081600082015481525050815250509050919050565b856115106006611ee9565b8110611551576040517f08c379a000000000000000000000000000000000000000000000000000000000815260040161154890612f0a565b60405180910390fd5b6005818154811061158b577f4e487b7100000000000000000000000000000000000000000000000000000000600052603260045260246000fd5b906000526020600020906008020160000160129054906101000a900460ff166115e9576040517f08c379a00000000000000000000000000000000000000000000000000000000081526004016115e090612f2a565b60405180910390fd5b3373ffffffffffffffffffffffffffffffffffffffff166001800160009054906101000a900473ffffffffffffffffffffffffffffffffffffffff1673ffffffffffffffffffffffffffffffffffffffff16148061167957503373ffffffffffffffffffffffffffffffffffffffff1661166161097f565b73ffffffffffffffffffffffffffffffffffffffff16145b6116b8576040517f08c379a00000000000000000000000000000000000000000000000000000000081526004016116af90612f4a565b60405180910390fd5b6116c88787600088888888611ef7565b50505050505050565b3373ffffffffffffffffffffffffffffffffffffffff166001800160009054906101000a900473ffffffffffffffffffffffffffffffffffffffff1673ffffffffffffffffffffffffffffffffffffffff16148061176157503373ffffffffffffffffffffffffffffffffffffffff1661174961097f565b73ffffffffffffffffffffffffffffffffffffffff16145b6117a0576040517f08c379a000000000000000000000000000000000000000000000000000000000815260040161179790612f4a565b60405180910390fd5b6117a86122dc565b6117b06122dc565b6117b86122dc565b60056040518061018001604052808a77ffffffffffffffffffffffffffffffffffffffffffffffff191681526020018877ffffffffffffffffffffffffffffffffffffffffffffffff19168152602001877effffffffffffffffffffffffffffffffffffffffffffffffffffffffffffff191681526020018660ff168152602001600115158152602001898152602001600073ffffffffffffffffffffffffffffffffffffffff168152602001600073ffffffffffffffffffffffffffffffffffffffff168152602001600073ffffffffffffffffffffffffffffffffffffffff16815260200185815260200183815260200184815250908060018154018082558091505060019003906000526020600020906008020160009091909190915060008201518160000160006101000a81548167ffffffffffffffff021916908360c01c021790555060208201518160000160086101000a81548167ffffffffffffffff021916908360c01c021790555060408201518160000160106101000a81548160ff021916908360f81c021790555060608201518160000160116101000a81548160ff021916908360ff16021790555060808201518160000160126101000a81548160ff02191690831515021790555060a08201518160010190805190602001906119a69291906122ef565b5060c08201518160020160006101000a81548173ffffffffffffffffffffffffffffffffffffffff021916908373ffffffffffffffffffffffffffffffffffffffff16021790555060e08201518160030160006101000a81548173ffffffffffffffffffffffffffffffffffffffff021916908373ffffffffffffffffffffffffffffffffffffffff1602179055506101008201518160040160006101000a81548173ffffffffffffffffffffffffffffffffffffffff021916908373ffffffffffffffffffffffffffffffffffffffff16021790555061012082015181600501600082015181600001555050610140820151816006016000820151816000015550506101608201518160070160008201518160000155505050507f28f3ba23b6f9b552efa2e58aaf24837d7256bbc057f447db5d43f72cea1c4c43604051611aee90612eaa565b60405180910390a1611b0060066121b4565b5050505050505050565b611b12611ee1565b73ffffffffffffffffffffffffffffffffffffffff16611b3061097f565b73ffffffffffffffffffffffffffffffffffffffff1614611b86576040517f08c379a0000000000000000000000000000000000000000000000000000000008152600401611b7d90612eea565b60405180910390fd5b600073ffffffffffffffffffffffffffffffffffffffff168173ffffffffffffffffffffffffffffffffffffffff161415611bf6576040517f08c379a0000000000000000000000000000000000000000000000000000000008152600401611bed90612e8a565b60405180910390fd5b8073ffffffffffffffffffffffffffffffffffffffff1660008054906101000a900473ffffffffffffffffffffffffffffffffffffffff1673ffffffffffffffffffffffffffffffffffffffff167f8be0079c531659141344cd1fd0a4f28419497f9722a3daafe3b4186f6b6457e060405160405180910390a3806000806101000a81548173ffffffffffffffffffffffffffffffffffffffff021916908373ffffffffffffffffffffffffffffffffffffffff16021790555050565b606060076000838152602001908152602001600020805480602002602001604051908101604052809291908181526020016000905b82821015611ed657838290600052602060002090600302016040518060e00160405290816000820160009054906101000a900460c01b77ffffffffffffffffffffffffffffffffffffffffffffffff191677ffffffffffffffffffffffffffffffffffffffffffffffff191681526020016000820160089054906101000a900473ffffffffffffffffffffffffffffffffffffffff1673ffffffffffffffffffffffffffffffffffffffff1673ffffffffffffffffffffffffffffffffffffffff1681526020016001820160009054906101000a900467ffffffffffffffff1667ffffffffffffffff1667ffffffffffffffff1681526020016001820160089054906101000a900467ffffffffffffffff1667ffffffffffffffff1667ffffffffffffffff1681526020016001820160109054906101000a900460c01b77ffffffffffffffffffffffffffffffffffffffffffffffff191677ffffffffffffffffffffffffffffffffffffffffffffffff191681526020016001820160189054906101000a900460c01b77ffffffffffffffffffffffffffffffffffffffffffffffff191677ffffffffffffffffffffffffffffffffffffffffffffffff191681526020016002820160009054906101000a900460ff16151515158152505081526020019060010190611ce8565b505050509050919050565b600033905090565b600081600001549050919050565b600760008881526020019081526020016000206040518060e001604052808877ffffffffffffffffffffffffffffffffffffffffffffffff191681526020018773ffffffffffffffffffffffffffffffffffffffff1681526020018667ffffffffffffffff1681526020018567ffffffffffffffff1681526020018477ffffffffffffffffffffffffffffffffffffffffffffffff191681526020018377ffffffffffffffffffffffffffffffffffffffffffffffff1916815260200160011515815250908060018154018082558091505060019003906000526020600020906003020160009091909190915060008201518160000160006101000a81548167ffffffffffffffff021916908360c01c021790555060208201518160000160086101000a81548173ffffffffffffffffffffffffffffffffffffffff021916908373ffffffffffffffffffffffffffffffffffffffff16021790555060408201518160010160006101000a81548167ffffffffffffffff021916908367ffffffffffffffff16021790555060608201518160010160086101000a81548167ffffffffffffffff021916908367ffffffffffffffff16021790555060808201518160010160106101000a81548167ffffffffffffffff021916908360c01c021790555060a08201518160010160186101000a81548167ffffffffffffffff021916908360c01c021790555060c08201518160020160006101000a81548160ff021916908315150217905550505061217660058881548110612160577f4e487b7100000000000000000000000000000000000000000000000000000000600052603260045260246000fd5b90600052602060002090600802016005016121b4565b7f28f3ba23b6f9b552efa2e58aaf24837d7256bbc057f447db5d43f72cea1c4c436040516121a390612eca565b60405180910390a150505050505050565b6001816000016000828254019250508190555050565b604051806101800160405280600077ffffffffffffffffffffffffffffffffffffffffffffffff19168152602001600077ffffffffffffffffffffffffffffffffffffffffffffffff1916815260200160007effffffffffffffffffffffffffffffffffffffffffffffffffffffffffffff19168152602001600060ff16815260200160001515815260200160608152602001600073ffffffffffffffffffffffffffffffffffffffff168152602001600073ffffffffffffffffffffffffffffffffffffffff168152602001600073ffffffffffffffffffffffffffffffffffffffff1681526020016122bc6122dc565b81526020016122c96122dc565b81526020016122d66122dc565b81525090565b6040518060200160405280600081525090565b8280546122fb90613232565b90600052602060002090601f01602090048101928261231d5760008555612364565b82601f1061233657805160ff1916838001178555612364565b82800160010185558215612364579182015b82811115612363578251825591602001919060010190612348565b5b5090506123719190612375565b5090565b5b8082111561238e576000816000905550600101612376565b5090565b60006123a56123a08461301d565b612fec565b9050828152602081018484840111156123bd57600080fd5b6123c88482856131f0565b509392505050565b6000813590506123df816132d3565b92915050565b6000813590506123f4816132ea565b92915050565b60008135905061240981613301565b92915050565b60008135905061241e81613318565b92915050565b600082601f83011261243557600080fd5b8135612445848260208601612392565b91505092915050565b60008135905061245d8161332f565b92915050565b60008135905061247281613346565b92915050565b6000813590506124878161335d565b92915050565b60006020828403121561249f57600080fd5b60006124ad848285016123d0565b91505092915050565b600080600080600060a086880312156124ce57600080fd5b60006124dc8882890161240f565b955050602086013567ffffffffffffffff8111156124f957600080fd5b61250588828901612424565b94505060406125168882890161240f565b9350506060612527888289016123e5565b925050608061253888828901612478565b9150509295509295909350565b60006020828403121561255757600080fd5b60006125658482850161244e565b91505092915050565b6000806040838503121561258157600080fd5b600061258f8582860161244e565b92505060206125a0858286016123fa565b9150509250929050565b6000806000606084860312156125bf57600080fd5b60006125cd8682870161244e565b93505060206125de868287016123fa565b92505060406125ef868287016123fa565b9150509250925092565b60008060008060008060c0878903121561261257600080fd5b600061262089828a0161244e565b965050602061263189828a0161240f565b955050604061264289828a01612463565b945050606061265389828a01612463565b935050608061266489828a0161240f565b92505060a061267589828a0161240f565b9150509295509295509295565b6000806040838503121561269557600080fd5b60006126a38582860161244e565b92505060206126b48582860161244e565b9150509250929050565b60006126ca838361286f565b60208301905092915050565b60006126e28383612abb565b60e08301905092915050565b60006126fa8383612b65565b905092915050565b61270b81613125565b82525050565b61271a81613125565b82525050565b600061272b8261307d565b61273581856130d0565b93506127408361304d565b8060005b8381101561277157815161275888826126be565b9750612763836130a9565b925050600181019050612744565b5085935050505092915050565b600061278982613088565b61279381856130e1565b935061279e8361305d565b8060005b838110156127cf5781516127b688826126d6565b97506127c1836130b6565b9250506001810190506127a2565b5085935050505092915050565b60006127e782613093565b6127f181856130f2565b9350836020820285016128038561306d565b8060005b8581101561283f578484038952815161282085826126ee565b945061282b836130c3565b925060208a01995050600181019050612807565b50829750879550505050505092915050565b61285a81613137565b82525050565b61286981613143565b82525050565b6128788161316f565b82525050565b6128878161316f565b82525050565b61289681613179565b82525050565b60006128a78261309e565b6128b18185613103565b93506128c18185602086016131ff565b6128ca816132c2565b840191505092915050565b60006128e2602683613114565b91507f4f776e61626c653a206e6577206f776e657220697320746865207a65726f206160008301527f64647265737300000000000000000000000000000000000000000000000000006020830152604082019050919050565b6000612948600b83613114565b91507f4e657720736572766963650000000000000000000000000000000000000000006000830152602082019050919050565b6000612988601083613114565b91507f4e657720436f6e66696720416c657274000000000000000000000000000000006000830152602082019050919050565b60006129c8602083613114565b91507f4f776e61626c653a2063616c6c6572206973206e6f7420746865206f776e65726000830152602082019050919050565b6000612a08601183613114565b91507f53657276696365206e6f742065786973740000000000000000000000000000006000830152602082019050919050565b6000612a48601083613114565b91507f53657276696365206f6666206c696e65000000000000000000000000000000006000830152602082019050919050565b6000612a88600d83613114565b91507f4163636573732064656e696564000000000000000000000000000000000000006000830152602082019050919050565b60e082016000820151612ad1600085018261288d565b506020820151612ae46020850182612702565b506040820151612af76040850182612d8b565b506060820151612b0a6060850182612d8b565b506080820151612b1d608085018261288d565b5060a0820151612b3060a085018261288d565b5060c0820151612b4360c0850182612851565b50505050565b602082016000820151612b5f6000850182612d6d565b50505050565b600061018083016000830151612b7e600086018261288d565b506020830151612b91602086018261288d565b506040830151612ba46040860182612860565b506060830151612bb76060860182612d9a565b506080830151612bca6080860182612851565b5060a083015184820360a0860152612be2828261289c565b91505060c0830151612bf760c0860182612702565b5060e0830151612c0a60e0860182612702565b50610100830151612c1f610100860182612702565b50610120830151612c34610120860182612b49565b50610140830151612c49610140860182612b49565b50610160830151612c5e610160860182612b49565b508091505092915050565b600061018083016000830151612c82600086018261288d565b506020830151612c95602086018261288d565b506040830151612ca86040860182612860565b506060830151612cbb6060860182612d9a565b506080830151612cce6080860182612851565b5060a083015184820360a0860152612ce6828261289c565b91505060c0830151612cfb60c0860182612702565b5060e0830151612d0e60e0860182612702565b50610100830151612d23610100860182612702565b50610120830151612d38610120860182612b49565b50610140830151612d4d610140860182612b49565b50610160830151612d62610160860182612b49565b508091505092915050565b612d76816131c5565b82525050565b612d85816131c5565b82525050565b612d94816131cf565b82525050565b612da3816131e3565b82525050565b6000602082019050612dbe6000830184612711565b92915050565b60006020820190508181036000830152612dde8184612720565b905092915050565b60006040820190508181036000830152612e008185612720565b90508181036020830152612e148184612720565b90509392505050565b60006020820190508181036000830152612e37818461277e565b905092915050565b60006020820190508181036000830152612e5981846127dc565b905092915050565b6000604082019050612e76600083018561287e565b612e83602083018461287e565b9392505050565b60006020820190508181036000830152612ea3816128d5565b9050919050565b60006020820190508181036000830152612ec38161293b565b9050919050565b60006020820190508181036000830152612ee38161297b565b9050919050565b60006020820190508181036000830152612f03816129bb565b9050919050565b60006020820190508181036000830152612f23816129fb565b9050919050565b60006020820190508181036000830152612f4381612a3b565b9050919050565b60006020820190508181036000830152612f6381612a7b565b9050919050565b60006020820190508181036000830152612f848184612c69565b905092915050565b6000604082019050612fa16000830185612d7c565b612fae602083018461287e565b9392505050565b6000606082019050612fca6000830186612d7c565b612fd7602083018561287e565b612fe4604083018461287e565b949350505050565b6000604051905081810181811067ffffffffffffffff8211171561301357613012613293565b5b8060405250919050565b600067ffffffffffffffff82111561303857613037613293565b5b601f19601f8301169050602081019050919050565b6000819050602082019050919050565b6000819050602082019050919050565b6000819050602082019050919050565b600081519050919050565b600081519050919050565b600081519050919050565b600081519050919050565b6000602082019050919050565b6000602082019050919050565b6000602082019050919050565b600082825260208201905092915050565b600082825260208201905092915050565b600082825260208201905092915050565b600082825260208201905092915050565b600082825260208201905092915050565b6000613130826131a5565b9050919050565b60008115159050919050565b60007fff0000000000000000000000000000000000000000000000000000000000000082169050919050565b6000819050919050565b60007fffffffffffffffff00000000000000000000000000000000000000000000000082169050919050565b600073ffffffffffffffffffffffffffffffffffffffff82169050919050565b6000819050919050565b600067ffffffffffffffff82169050919050565b600060ff82169050919050565b82818337600083830152505050565b60005b8381101561321d578082015181840152602081019050613202565b8381111561322c576000848401525b50505050565b6000600282049050600182168061324a57607f821691505b6020821081141561325e5761325d613264565b5b50919050565b7f4e487b7100000000000000000000000000000000000000000000000000000000600052602260045260246000fd5b7f4e487b7100000000000000000000000000000000000000000000000000000000600052604160045260246000fd5b6000601f19601f8301169050919050565b6132dc81613125565b81146132e757600080fd5b50565b6132f381613143565b81146132fe57600080fd5b50565b61330a8161316f565b811461331557600080fd5b50565b61332181613179565b811461332c57600080fd5b50565b613338816131c5565b811461334357600080fd5b50565b61334f816131cf565b811461335a57600080fd5b50565b613366816131e3565b811461337157600080fd5b5056fea26469706673582212206be313798508bc85bda31ab0b1196ba7f4403cc5f81e09c29b8a4446f4e4362364736f6c63430008000033",
  "immutableReferences": {},
  "source": "// SPDX-License-Identifier: MIT\npragma solidity 0.8.0;\n\nimport \"../node_modules/@openzeppelin/contracts/utils/Counters.sol\";\nimport \"../node_modules/@openzeppelin/contracts/access/Ownable.sol\";\n\ncontract ClientContract is Ownable {\n    using Counters for Counters.Counter;\n    \n    // struct mesure en-tte (32) { \n    //   //V0.1     XX.XX.XX    00.01.00\n    //   Version : bytes8;\n    //   Date : YYYYmmddHHii : byte12\n    //   Code de mesure : bytes8 - CODE : 4 chiffre/lettre pour la nature physique - 4 chiffre/lettre pour la version\n    //   Code temporel : bytes1 (Horaire, Journalier) Y m d H i\n    //   Nb temporel : bytes3 \n    // }\n    \n    // struct mesure donne (32) { \n    //   Valeur Max : bytes8\n    //   Valeur Moyenne : bytes8\n    //   Valeur Mdiane : bytes8\n    //   Valeur Min : bytes8\n    // }\n\n    // struct alert donne (32) { \n    //   Version : bytes8\n    //   IdAlert : bytes4    \n    //   Date : YYYYmmddHHii : byte12\n    //   Valeur alert : bytes8\n    // }\n\n\n    /**\n    * @dev Contract Configuration\n    */\n    struct Config {\n        bytes8 version;\n        uint64 prevContractDate;\n        uint64 nextContractDate;\n        address customerAddress;\n        address prevContract;\n        address nextContract;\n    }\n    \n    struct Service {\n        bytes8 version;\n        bytes8 measureType;\n        bytes1 timeCode;\n        uint8 nbTime;\n        bool isActive;\n        string description;\n        address bridgeAddress;\n        address techMasterAddress;\n        address legislatorAddress;\n\n        Counters.Counter alertConfigIdCounter;\n        Counters.Counter alertIdCounter; \n\n        Counters.Counter measureIdCounter;\n    }\n\n    struct AlertConfig {\n        bytes8 version;        \n        address legislatorAddress;\n        uint64 dateOn;\n        uint64 dateOff;\n        bytes8 codeAlert;\n        bytes8 valueAlert;\n        bool isActive;\n    }\n\n    modifier isServiceOn(uint _serviceId) {\n        require(_serviceId < _serviceIdCounter.current(), \"Service not exist\"); \n        require(_services[_serviceId].isActive, \"Service off line\"); \n        _;\n    }\n\n    modifier onlyCustomer() {\n      require (_myConfig.customerAddress == msg.sender || owner() ==  msg.sender, \"Access denied\");\n      _;\n    }\n\n    modifier onlyBridge(uint _serviceId) {\n      require (_services[_serviceId].bridgeAddress == msg.sender || owner() ==  msg.sender, \"Access denied\");\n      _;\n    }\n\n    modifier onlyTechMaster(uint _serviceId) {\n      require (_services[_serviceId].techMasterAddress == msg.sender || owner() ==  msg.sender, \"Access denied\");\n      _;\n    }\n\n    modifier onlyLegislator(uint _serviceId) {\n      require (_services[_serviceId].legislatorAddress == msg.sender || owner() ==  msg.sender, \"Access denied\");\n      _;\n    }\n\n    event MeasureReceive(uint _service_id, bytes32 _header, bytes32 _body);   \n    event AlertReceive(uint _service_id, bytes32 _alert);\n    event ContractUpdate(string message);            \n\n    Config private _myConfig;\n    Service[] private _services;\n\n    Counters.Counter private _serviceIdCounter;\n\n    mapping(uint => AlertConfig[]) private _serviceAlertConfig;  \n    mapping(uint => bytes32[]) private _serviceHeaderMeasures;\n    mapping(uint => bytes32[]) private _serviceBodyMeasures;\n    mapping(uint => bytes32[]) private _serviceAlerts;    \n    mapping(uint => bytes6[]) private _serviceMacIOT;\n \n    constructor (bytes8 _version, address _customerAddress, address _prevContract, uint64 _prevContractDate) {\n        _myConfig = Config(\n            _version,\n            _prevContractDate,\n            0,\n            _customerAddress,\n            _prevContract,\n            address(0)\n        );  \n    }\n\n    function addService(\n        bytes8 _version,   \n        string memory _description,\n        bytes8 _measureType,          \n        bytes1 _timeCode,\n        uint8 _nbTime) \n        onlyCustomer() external{\n      \n        Counters.Counter memory alertConfigIdCounter;\n        Counters.Counter memory alertIdCounter;\n        Counters.Counter memory measureIdCounter;       \n\n        _services.push(Service(\n        _version, \n        _measureType,  \n        _timeCode,    \n        _nbTime,   \n        true,                        \n        _description, \n        address(0),\n        address(0),  \n        address(0),\n        alertConfigIdCounter,                       \n        measureIdCounter,\n        alertIdCounter));\n\n        emit ContractUpdate(\"New service\");\n\n        _serviceIdCounter.increment();\n    }  \n    \n    function getOneService(\n        uint _serviceId) \n        external view returns(Service memory){   \n\n        return (\n            _services[_serviceId]            \n        );\n    }\n\n    function getAllServices() \n        external view returns(\n        Service[] memory){    \n\n        return (_services);\n    }\n\n    function addMeasure(\n        uint _serviceId,\n        bytes32 _measureHeader,\n        bytes32 _measurebody) \n        isServiceOn(_serviceId) onlyBridge(_serviceId) external {    \n        \n        _serviceHeaderMeasures[_serviceId].push(_measureHeader);\n        _serviceBodyMeasures[_serviceId].push(_measurebody);\n        \n        _services[_serviceId].measureIdCounter.increment();\n\n        emit MeasureReceive(_serviceId, _measureHeader, _measurebody);\n    }\n\n    function getAllMeasures(\n        uint _serviceId) \n        external view returns(\n            bytes32[] memory,\n            bytes32[] memory){\n              \n        return (_serviceHeaderMeasures[_serviceId], _serviceBodyMeasures[_serviceId]);\n    }\n    \n    function getMeasuresById(\n        uint _serviceId,\n        uint _measureId) \n        external view returns(\n            bytes32,\n            bytes32){\n              \n        return (_serviceHeaderMeasures[_serviceId][_measureId], _serviceBodyMeasures[_serviceId][_measureId]);\n    }  \n\n\n    function addAlertConfigCustomer(\n        uint _serviceId,\n        bytes8 _version,   \n        uint64 _dateOn,\n        uint64 _dateOff,\n        bytes8 _codeAlert,         \n        bytes8 _valueAlert)         \n        isServiceOn(_serviceId) onlyCustomer() external{       \n            _addAlertConfig(_serviceId, _version, address(0), _dateOn, _dateOff, _codeAlert, _valueAlert);\n    }\n\n    function addAlertConfigLegislator(\n        uint _serviceId,\n        bytes8 _version,   \n        uint64 _dateOn,\n        uint64 _dateOff,\n        bytes8 _codeAlert,         \n        bytes8 _valueAlert)         \n        isServiceOn(_serviceId) onlyLegislator(_serviceId) external{       \n            _addAlertConfig(_serviceId, _version, msg.sender, _dateOn, _dateOff, _codeAlert, _valueAlert);\n    }\n\n    function _addAlertConfig(\n        uint _serviceId,\n        bytes8 _version,   \n        address _legislatorAddress,\n        uint64 _dateOn,\n        uint64 _dateOff,\n        bytes8 _codeAlert,\n        bytes8 _valueAlert)\n        internal{\n\n        _serviceAlertConfig[_serviceId].push(AlertConfig(\n            _version,        \n            _legislatorAddress,\n            _dateOn,\n            _dateOff,\n            _codeAlert,\n            _valueAlert,\n            true\n        ));\n\n        _services[_serviceId].alertConfigIdCounter.increment();\n\n        emit ContractUpdate(\"New Config Alert\");\n    }\n\n    function getAllAlertConfigs(\n        uint _serviceId) \n        external view returns(AlertConfig[] memory){\n              \n        return (_serviceAlertConfig[_serviceId]);\n    }\n\n    function addAlert(\n        uint _serviceId,\n        bytes32 _alertBody) \n        isServiceOn(_serviceId) onlyBridge(_serviceId) external {         \n                   \n        _serviceAlerts[_serviceId].push(_alertBody);\n        \n        _services[_serviceId].alertIdCounter.increment();\n\n        emit AlertReceive(_serviceId, _alertBody);\n    }\n\n    function getAlerts(\n        uint _serviceId) external view returns(\n            bytes32[] memory){\n            \n        return (_serviceAlerts[_serviceId]);        \n    }\n\n}\n",
  "sourcePath": "C:/Users/danie/Desktop/Solidity/Projet final/eco-capt/contracts/ClientContract.sol",
  "compiler": {
    "name": "solc",
    "version": "0.8.0+commit.c7dfd78e.Emscripten.clang"
  },
  "schemaVersion": "3.3.4",
  "updatedAt": "2021-04-08T16:28:49.413Z",
  "networkType": "ethereum",
  "devdoc": {
    "kind": "dev",
    "methods": {
      "owner()": {
        "details": "Returns the address of the current owner."
      },
      "renounceOwnership()": {
        "details": "Leaves the contract without owner. It will not be possible to call `onlyOwner` functions anymore. Can only be called by the current owner. NOTE: Renouncing ownership will leave the contract without an owner, thereby removing any functionality that is only available to the owner."
      },
      "transferOwnership(address)": {
        "details": "Transfers ownership of the contract to a new account (`newOwner`). Can only be called by the current owner."
      }
    },
    "version": 1
  },
  "userdoc": {
    "kind": "user",
    "methods": {},
    "version": 1
  }
}