{
  "contractName": "ClientContract",
  "abi": [
    {
      "inputs": [],
      "stateMutability": "nonpayable",
      "type": "constructor"
    },
    {
      "inputs": [
        {
          "internalType": "uint256",
          "name": "",
          "type": "uint256"
        },
        {
          "internalType": "uint256",
          "name": "",
          "type": "uint256"
        }
      ],
      "name": "_serviceBodyMeasures",
      "outputs": [
        {
          "internalType": "bytes32",
          "name": "",
          "type": "bytes32"
        }
      ],
      "stateMutability": "view",
      "type": "function",
      "constant": true
    },
    {
      "inputs": [
        {
          "internalType": "uint256",
          "name": "",
          "type": "uint256"
        },
        {
          "internalType": "uint256",
          "name": "",
          "type": "uint256"
        }
      ],
      "name": "_serviceHeaderMeasures",
      "outputs": [
        {
          "internalType": "bytes32",
          "name": "",
          "type": "bytes32"
        }
      ],
      "stateMutability": "view",
      "type": "function",
      "constant": true
    },
    {
      "inputs": [],
      "name": "initTestSet",
      "outputs": [],
      "stateMutability": "nonpayable",
      "type": "function"
    },
    {
      "inputs": [
        {
          "internalType": "bytes8",
          "name": "_version",
          "type": "bytes8"
        },
        {
          "internalType": "string",
          "name": "_description",
          "type": "string"
        },
        {
          "internalType": "bytes1",
          "name": "_timeCode",
          "type": "bytes1"
        },
        {
          "internalType": "uint8",
          "name": "_nbTime",
          "type": "uint8"
        }
      ],
      "name": "addService",
      "outputs": [],
      "stateMutability": "nonpayable",
      "type": "function"
    },
    {
      "inputs": [
        {
          "internalType": "uint256",
          "name": "_service_id",
          "type": "uint256"
        }
      ],
      "name": "getService",
      "outputs": [
        {
          "internalType": "bytes8",
          "name": "version",
          "type": "bytes8"
        },
        {
          "internalType": "string",
          "name": "description",
          "type": "string"
        },
        {
          "internalType": "bytes1",
          "name": "timeCode",
          "type": "bytes1"
        },
        {
          "internalType": "uint8",
          "name": "nbTime",
          "type": "uint8"
        },
        {
          "internalType": "bool",
          "name": "isActive",
          "type": "bool"
        },
        {
          "internalType": "uint256",
          "name": "measureIdCounter",
          "type": "uint256"
        }
      ],
      "stateMutability": "view",
      "type": "function",
      "constant": true
    },
    {
      "inputs": [
        {
          "internalType": "uint256",
          "name": "_serviceId",
          "type": "uint256"
        },
        {
          "internalType": "bytes32",
          "name": "_measureHeader",
          "type": "bytes32"
        },
        {
          "internalType": "bytes32",
          "name": "_measurebody",
          "type": "bytes32"
        }
      ],
      "name": "addMeasure",
      "outputs": [],
      "stateMutability": "nonpayable",
      "type": "function"
    },
    {
      "inputs": [
        {
          "internalType": "uint256",
          "name": "_serviceId",
          "type": "uint256"
        }
      ],
      "name": "getMeasures",
      "outputs": [
        {
          "internalType": "bytes32[]",
          "name": "_headerMeasures",
          "type": "bytes32[]"
        },
        {
          "internalType": "bytes32[]",
          "name": "_bodyMeasures",
          "type": "bytes32[]"
        }
      ],
      "stateMutability": "view",
      "type": "function",
      "constant": true
    },
    {
      "inputs": [
        {
          "internalType": "uint256",
          "name": "_serviceId",
          "type": "uint256"
        },
        {
          "internalType": "uint256",
          "name": "_measureId",
          "type": "uint256"
        }
      ],
      "name": "getMeasuresById",
      "outputs": [
        {
          "internalType": "bytes32",
          "name": "_headerMeasures",
          "type": "bytes32"
        },
        {
          "internalType": "bytes32",
          "name": "_bodyMeasures",
          "type": "bytes32"
        }
      ],
      "stateMutability": "view",
      "type": "function",
      "constant": true
    }
  ],
  "bytecode": "0x608060405234801561001057600080fd5b5061180a806100206000396000f3fe608060405234801561001057600080fd5b50600436106100885760003560e01c80637f0851011161005b5780637f085101146101145780638fab376614610144578063b2e733bf14610175578063ef0e239b1461019157610088565b80632669167a1461008d57806335dc8feb146100be578063373b2128146100ee57806379bfd3311461010a575b600080fd5b6100a760048036038101906100a29190610f13565b6101c6565b6040516100b5929190611213565b60405180910390f35b6100d860048036038101906100d39190610f13565b610280565b6040516100e591906111f8565b60405180910390f35b61010860048036038101906101039190610e20565b6102b1565b005b610112610423565b005b61012e60048036038101906101299190610f13565b610712565b60405161013b91906111f8565b60405180910390f35b61015e60048036038101906101599190610e9b565b610743565b60405161016c9291906111c1565b60405180910390f35b61018f600480360381019061018a9190610ec4565b610819565b005b6101ab60048036038101906101a69190610e9b565b6109c8565b6040516101bd9695949392919061123c565b60405180910390f35b600080600260008581526020019081526020016000208381548110610214577f4e487b7100000000000000000000000000000000000000000000000000000000600052603260045260246000fd5b906000526020600020015460036000868152602001908152602001600020848154811061026a577f4e487b7100000000000000000000000000000000000000000000000000000000600052603260045260246000fd5b9060005260206000200154915091509250929050565b6003602052816000526040600020818154811061029c57600080fd5b90600052602060002001600091509150505481565b6102b9610c99565b60006040518060c001604052808777ffffffffffffffffffffffffffffffffffffffffffffffff19168152602001868152602001857effffffffffffffffffffffffffffffffffffffffffffffffffffffffffffff191681526020018460ff16815260200160011515815260200183815250908060018154018082558091505060019003906000526020600020906004020160009091909190915060008201518160000160006101000a81548167ffffffffffffffff021916908360c01c02179055506020820151816001019080519060200190610398929190610cac565b5060408201518160020160006101000a81548160ff021916908360f81c021790555060608201518160020160016101000a81548160ff021916908360ff16021790555060808201518160020160026101000a81548160ff02191690831515021790555060a082015181600301600082015181600001555050505061041c6001610c75565b5050505050565b600061042f6001610c8b565b1461046f576040517f08c379a0000000000000000000000000000000000000000000000000000000008152600401610466906112ee565b60405180910390fd5b3073ffffffffffffffffffffffffffffffffffffffff1663373b21286601020304050607600060016040518463ffffffff1660e01b81526004016104b5939291906112a4565b600060405180830381600087803b1580156104cf57600080fd5b505af11580156104e3573d6000803e3d6000fd5b505050503073ffffffffffffffffffffffffffffffffffffffff1663b2e733bf600161050f6001610c8b565b61051991906114a9565b7e0102030405060708090a0b0c0d0e0f101112131415161718191a1b1c1d1e1f806040518463ffffffff1660e01b81526004016105589392919061134e565b600060405180830381600087803b15801561057257600080fd5b505af1158015610586573d6000803e3d6000fd5b505050503073ffffffffffffffffffffffffffffffffffffffff1663b2e733bf60016105b26001610c8b565b6105bc91906114a9565b7f010102030405060708090a0b0c0d0e0f101112131415161718191a1b1c1d1e1f7e0102030405060708090a0b0c0d0e0f101112131415161718191a1b1c1d1e1f6040518463ffffffff1660e01b815260040161061b93929190611385565b600060405180830381600087803b15801561063557600080fd5b505af1158015610649573d6000803e3d6000fd5b505050503073ffffffffffffffffffffffffffffffffffffffff1663b2e733bf60016106756001610c8b565b61067f91906114a9565b7f020102030405060708090a0b0c0d0e0f101112131415161718191a1b1c1d1e1f7e0102030405060708090a0b0c0d0e0f101112131415161718191a1b1c1d1e1f6040518463ffffffff1660e01b81526004016106de939291906113bc565b600060405180830381600087803b1580156106f857600080fd5b505af115801561070c573d6000803e3d6000fd5b50505050565b6002602052816000526040600020818154811061072e57600080fd5b90600052602060002001600091509150505481565b6060806002600084815260200190815260200160002060036000858152602001908152602001600020818054806020026020016040519081016040528092919081815260200182805480156107b757602002820191906000526020600020905b8154815260200190600101908083116107a3575b505050505091508080548060200260200160405190810160405280929190818152602001828054801561080957602002820191906000526020600020905b8154815260200190600101908083116107f5575b5050505050905091509150915091565b6108236001610c8b565b8310610864576040517f08c379a000000000000000000000000000000000000000000000000000000000815260040161085b9061130e565b60405180910390fd5b6000838154811061089e577f4e487b7100000000000000000000000000000000000000000000000000000000600052603260045260246000fd5b906000526020600020906004020160020160029054906101000a900460ff166108fc576040517f08c379a00000000000000000000000000000000000000000000000000000000081526004016108f39061132e565b60405180910390fd5b60026000848152602001908152602001600020829080600181540180825580915050600190039060005260206000200160009091909190915055600360008481526020019081526020016000208190806001815401808255809150506001900390600052602060002001600090919091909150556109c3600084815481106109ad577f4e487b7100000000000000000000000000000000000000000000000000000000600052603260045260246000fd5b9060005260206000209060040201600301610c75565b505050565b6000606060008060008060008781548110610a0c577f4e487b7100000000000000000000000000000000000000000000000000000000600052603260045260246000fd5b906000526020600020906004020160000160009054906101000a900460c01b60008881548110610a65577f4e487b7100000000000000000000000000000000000000000000000000000000600052603260045260246000fd5b906000526020600020906004020160010160008981548110610ab0577f4e487b7100000000000000000000000000000000000000000000000000000000600052603260045260246000fd5b906000526020600020906004020160020160009054906101000a900460f81b60008a81548110610b09577f4e487b7100000000000000000000000000000000000000000000000000000000600052603260045260246000fd5b906000526020600020906004020160020160019054906101000a900460ff1660008b81548110610b62577f4e487b7100000000000000000000000000000000000000000000000000000000600052603260045260246000fd5b906000526020600020906004020160020160029054906101000a900460ff16610bd460008d81548110610bbe577f4e487b7100000000000000000000000000000000000000000000000000000000600052603260045260246000fd5b9060005260206000209060040201600301610c8b565b848054610be09061166a565b80601f0160208091040260200160405190810160405280929190818152602001828054610c0c9061166a565b8015610c595780601f10610c2e57610100808354040283529160200191610c59565b820191906000526020600020905b815481529060010190602001808311610c3c57829003601f168201915b5050505050945095509550955095509550955091939550919395565b6001816000016000828254019250508190555050565b600081600001549050919050565b6040518060200160405280600081525090565b828054610cb89061166a565b90600052602060002090601f016020900481019282610cda5760008555610d21565b82601f10610cf357805160ff1916838001178555610d21565b82800160010185558215610d21579182015b82811115610d20578251825591602001919060010190610d05565b5b509050610d2e9190610d32565b5090565b5b80821115610d4b576000816000905550600101610d33565b5090565b6000610d62610d5d84611424565b6113f3565b905082815260208101848484011115610d7a57600080fd5b610d85848285611628565b509392505050565b600081359050610d9c81611761565b92915050565b600081359050610db181611778565b92915050565b600081359050610dc68161178f565b92915050565b600082601f830112610ddd57600080fd5b8135610ded848260208601610d4f565b91505092915050565b600081359050610e05816117a6565b92915050565b600081359050610e1a816117bd565b92915050565b60008060008060808587031215610e3657600080fd5b6000610e4487828801610db7565b945050602085013567ffffffffffffffff811115610e6157600080fd5b610e6d87828801610dcc565b9350506040610e7e87828801610d8d565b9250506060610e8f87828801610e0b565b91505092959194509250565b600060208284031215610ead57600080fd5b6000610ebb84828501610df6565b91505092915050565b600080600060608486031215610ed957600080fd5b6000610ee786828701610df6565b9350506020610ef886828701610da2565b9250506040610f0986828701610da2565b9150509250925092565b60008060408385031215610f2657600080fd5b6000610f3485828601610df6565b9250506020610f4585828601610df6565b9150509250929050565b6000610f5b8383610fe3565b60208301905092915050565b6000610f7282611464565b610f7c8185611487565b9350610f8783611454565b8060005b83811015610fb8578151610f9f8882610f4f565b9750610faa8361147a565b925050600181019050610f8b565b5085935050505092915050565b610fce816114dd565b82525050565b610fdd816114e9565b82525050565b610fec81611515565b82525050565b610ffb81611515565b82525050565b61100a8161151f565b82525050565b61101981611594565b82525050565b611028816115ae565b82525050565b611037816115c8565b82525050565b611046816115da565b82525050565b611055816115f4565b82525050565b6110648161160e565b82525050565b60006110758261146f565b61107f8185611498565b935061108f818560208601611637565b61109881611729565b840191505092915050565b60006110b0601383611498565b91507f53657276696365207061722064656661756c74000000000000000000000000006000830152602082019050919050565b60006110f0601583611498565b91507f416c726561647920696e697469616c697a6564202100000000000000000000006000830152602082019050919050565b6000611130601183611498565b91507f53657276696365206e6f742065786973740000000000000000000000000000006000830152602082019050919050565b6000611170601083611498565b91507f53657276696365206f6666206c696e65000000000000000000000000000000006000830152602082019050919050565b6111ac8161157d565b82525050565b6111bb81611587565b82525050565b600060408201905081810360008301526111db8185610f67565b905081810360208301526111ef8184610f67565b90509392505050565b600060208201905061120d6000830184610ff2565b92915050565b60006040820190506112286000830185610ff2565b6112356020830184610ff2565b9392505050565b600060c0820190506112516000830189611001565b8181036020830152611263818861106a565b90506112726040830187610fd4565b61127f60608301866111b2565b61128c6080830185610fc5565b61129960a08301846111a3565b979650505050505050565b60006080820190506112b9600083018661103d565b81810360208301526112ca816110a3565b90506112d96040830185611010565b6112e6606083018461102e565b949350505050565b60006020820190508181036000830152611307816110e3565b9050919050565b6000602082019050818103600083015261132781611123565b9050919050565b6000602082019050818103600083015261134781611163565b9050919050565b600060608201905061136360008301866111a3565b611370602083018561101f565b61137d604083018461101f565b949350505050565b600060608201905061139a60008301866111a3565b6113a7602083018561104c565b6113b4604083018461101f565b949350505050565b60006060820190506113d160008301866111a3565b6113de602083018561105b565b6113eb604083018461101f565b949350505050565b6000604051905081810181811067ffffffffffffffff8211171561141a576114196116fa565b5b8060405250919050565b600067ffffffffffffffff82111561143f5761143e6116fa565b5b601f19601f8301169050602081019050919050565b6000819050602082019050919050565b600081519050919050565b600081519050919050565b6000602082019050919050565b600082825260208201905092915050565b600082825260208201905092915050565b60006114b48261157d565b91506114bf8361157d565b9250828210156114d2576114d161169c565b5b828203905092915050565b60008115159050919050565b60007fff0000000000000000000000000000000000000000000000000000000000000082169050919050565b6000819050919050565b60007fffffffffffffffff00000000000000000000000000000000000000000000000082169050919050565b6000819050919050565b6000819050919050565b6000819050919050565b6000819050919050565b6000819050919050565b6000819050919050565b600060ff82169050919050565b60006115a76115a28361154b565b611754565b9050919050565b60006115c16115bc83611555565b61173a565b9050919050565b60006115d382611587565b9050919050565b60006115ed6115e88361155f565b611747565b9050919050565b600061160761160283611569565b61173a565b9050919050565b600061162161161c83611573565b61173a565b9050919050565b82818337600083830152505050565b60005b8381101561165557808201518184015260208101905061163a565b83811115611664576000848401525b50505050565b6000600282049050600182168061168257607f821691505b60208210811415611696576116956116cb565b5b50919050565b7f4e487b7100000000000000000000000000000000000000000000000000000000600052601160045260246000fd5b7f4e487b7100000000000000000000000000000000000000000000000000000000600052602260045260246000fd5b7f4e487b7100000000000000000000000000000000000000000000000000000000600052604160045260246000fd5b6000601f19601f8301169050919050565b60008160001b9050919050565b60008160c01b9050919050565b60008160f81b9050919050565b61176a816114e9565b811461177557600080fd5b50565b61178181611515565b811461178c57600080fd5b50565b6117988161151f565b81146117a357600080fd5b50565b6117af8161157d565b81146117ba57600080fd5b50565b6117c681611587565b81146117d157600080fd5b5056fea2646970667358221220129db4c576ab252a834fb1fa4ee057444682120976847da62f1dad0e2167d7b764736f6c63430008000033",
  "immutableReferences": {},
  "source": "// SPDX-License-Identifier: MIT\npragma solidity ^0.8.0;\npragma experimental ABIEncoderV2;\n\nimport \"../node_modules/@openzeppelin/contracts/utils/Counters.sol\";\n\ncontract ClientContract {\n    using Counters for Counters.Counter;\n    \n    /**\n    * @dev Contract Configuration\n    */\n    struct Config {\n        address ownerAdress;\n        address customerAddress;\n        address prevContract;\n        address nextContract;\n        bytes8 version;\n        uint64 datePrevContract;\n        uint64 nextPrevContract;\n    }\n    \n    // struct mesure en-tte (32) { \n    //   //V0.1\n    //   Version : bytes8;\n    //   Date : YYYYmmddHHii : byte12\n    //   Type de mesureID : bytes8 - CODE : 4 chiffre/lettre pour la nature physique - 4 chiffre/lettre pour la version\n    //   Type temporel : bytes1 (Horaire, Journalier) Y m d H i\n    //   Nb temporel : bytes3\n    // }\n    \n    // struct mesure donne (32) { \n    //   Valeur Max : bytes8\n    //   Valeur Moyenne : bytes8\n    //   Valeur Mdiane : bytes8\n    //   Valeur Min : bytes8\n    // }\n    \n    struct Service {\n        bytes8 version;\n        string description;\n        bytes1 timeCode;\n        uint8 nbTime;\n        bool isActive;\n        Counters.Counter measureIdCounter;\n    }\n    \n    Service[] private _services;\n    Counters.Counter private _serviceIdCounter;\n    mapping(uint => bytes32[]) public _serviceHeaderMeasures;\n    mapping(uint => bytes32[]) public _serviceBodyMeasures;\n    \n    constructor () {\n        //TO CONFIG\n    }\n\n    function initTestSet() external{\n        require(_serviceIdCounter.current() == 0, \"Already initialized !\");\n\n        this.addService(0x0001020304050607, \"Service par default\", 0x00, 1);\n        this.addMeasure(_serviceIdCounter.current()-1, 0x000102030405060708090A0B0C0D0E0F101112131415161718191A1B1C1D1E1F, 0x000102030405060708090A0B0C0D0E0F101112131415161718191A1B1C1D1E1F);\n        this.addMeasure(_serviceIdCounter.current()-1, 0x010102030405060708090A0B0C0D0E0F101112131415161718191A1B1C1D1E1F, 0x000102030405060708090A0B0C0D0E0F101112131415161718191A1B1C1D1E1F);\n        this.addMeasure(_serviceIdCounter.current()-1, 0x020102030405060708090A0B0C0D0E0F101112131415161718191A1B1C1D1E1F, 0x000102030405060708090A0B0C0D0E0F101112131415161718191A1B1C1D1E1F);\n    }\n\n    function addService(\n        bytes8 _version,  \n        string memory _description,\n        bytes1 _timeCode,\n        uint8 _nbTime) external{\n        \n        Counters.Counter memory measureIdCounter;\n        \n        _services.push(Service(\n        _version, \n        _description, \n        _timeCode, \n        _nbTime,\n        true,\n        measureIdCounter));\n        \n        _serviceIdCounter.increment();\n    }  \n    \n    function getService(\n        uint _service_id) external view returns(\n            bytes8 version, \n            string memory description, \n            bytes1 timeCode, \n            uint8 nbTime,\n            bool isActive,\n            uint256 measureIdCounter){\n            \n        return (\n            _services[_service_id].version,\n            _services[_service_id].description,\n            _services[_service_id].timeCode,\n            _services[_service_id].nbTime,\n            _services[_service_id].isActive,\n            _services[_service_id].measureIdCounter.current()                 \n        );\n    }\n\n    function addMeasure(\n        uint _serviceId,\n        bytes32 _measureHeader,\n        bytes32 _measurebody) external {\n            \n        require(_serviceId < _serviceIdCounter.current(), \"Service not exist\");\n        require(_services[_serviceId].isActive, \"Service off line\"); \n        \n        _serviceHeaderMeasures[_serviceId].push(_measureHeader);\n        _serviceBodyMeasures[_serviceId].push(_measurebody);\n        \n        _services[_serviceId].measureIdCounter.increment();\n    }\n  \n    function getMeasures(\n        uint _serviceId) external view returns(\n            bytes32[] memory _headerMeasures,\n            bytes32[] memory _bodyMeasures){\n              \n        return (_serviceHeaderMeasures[_serviceId], _serviceBodyMeasures[_serviceId]);\n    }\n    \n    function getMeasuresById(\n        uint _serviceId,\n        uint _measureId) external view returns(\n            bytes32 _headerMeasures,\n            bytes32 _bodyMeasures){\n              \n        return (_serviceHeaderMeasures[_serviceId][_measureId], _serviceBodyMeasures[_serviceId][_measureId]);\n    }  \n\n}\n",
  "sourcePath": "C:/Users/danie/Desktop/Solidity/Projet final/eco-capt/contracts/ClientContract.sol",
  "compiler": {
    "name": "solc",
    "version": "0.8.0+commit.c7dfd78e.Emscripten.clang"
  },
  "schemaVersion": "3.3.4",
  "updatedAt": "2021-04-04T17:41:15.845Z",
  "networkType": "ethereum",
  "devdoc": {
    "kind": "dev",
    "methods": {},
    "version": 1
  },
  "userdoc": {
    "kind": "user",
    "methods": {},
    "version": 1
  }
}