{
  "contractName": "ClientContract",
  "abi": [
    {
      "inputs": [
        {
          "internalType": "bytes8",
          "name": "_version",
          "type": "bytes8"
        },
        {
          "internalType": "uint32",
          "name": "_clientId",
          "type": "uint32"
        },
        {
          "internalType": "address",
          "name": "_customerAddress",
          "type": "address"
        },
        {
          "internalType": "address",
          "name": "_prevContract",
          "type": "address"
        },
        {
          "internalType": "uint64",
          "name": "_prevContractDate",
          "type": "uint64"
        }
      ],
      "stateMutability": "nonpayable",
      "type": "constructor"
    },
    {
      "anonymous": false,
      "inputs": [
        {
          "indexed": false,
          "internalType": "uint256",
          "name": "_serviceId",
          "type": "uint256"
        },
        {
          "indexed": false,
          "internalType": "uint256",
          "name": "_alertConfigId",
          "type": "uint256"
        },
        {
          "indexed": false,
          "internalType": "bytes32",
          "name": "_alert",
          "type": "bytes32"
        },
        {
          "indexed": false,
          "internalType": "address",
          "name": "_author",
          "type": "address"
        }
      ],
      "name": "AlertReceive",
      "type": "event"
    },
    {
      "anonymous": false,
      "inputs": [
        {
          "indexed": false,
          "internalType": "string",
          "name": "_message",
          "type": "string"
        },
        {
          "indexed": false,
          "internalType": "address",
          "name": "_author",
          "type": "address"
        }
      ],
      "name": "ContractUpdate",
      "type": "event"
    },
    {
      "anonymous": false,
      "inputs": [
        {
          "indexed": false,
          "internalType": "uint256",
          "name": "_serviceId",
          "type": "uint256"
        },
        {
          "indexed": false,
          "internalType": "bytes32",
          "name": "_header",
          "type": "bytes32"
        },
        {
          "indexed": false,
          "internalType": "bytes32",
          "name": "_body",
          "type": "bytes32"
        },
        {
          "indexed": false,
          "internalType": "address",
          "name": "_author",
          "type": "address"
        }
      ],
      "name": "MeasureReceive",
      "type": "event"
    },
    {
      "anonymous": false,
      "inputs": [
        {
          "indexed": true,
          "internalType": "address",
          "name": "previousOwner",
          "type": "address"
        },
        {
          "indexed": true,
          "internalType": "address",
          "name": "newOwner",
          "type": "address"
        }
      ],
      "name": "OwnershipTransferred",
      "type": "event"
    },
    {
      "anonymous": false,
      "inputs": [
        {
          "indexed": false,
          "internalType": "uint256",
          "name": "_serviceId",
          "type": "uint256"
        },
        {
          "indexed": false,
          "internalType": "uint256",
          "name": "_id",
          "type": "uint256"
        },
        {
          "indexed": false,
          "internalType": "string",
          "name": "_message",
          "type": "string"
        },
        {
          "indexed": false,
          "internalType": "address",
          "name": "_author",
          "type": "address"
        }
      ],
      "name": "ServiceElementUpdate",
      "type": "event"
    },
    {
      "anonymous": false,
      "inputs": [
        {
          "indexed": false,
          "internalType": "uint256",
          "name": "_serviceId",
          "type": "uint256"
        },
        {
          "indexed": false,
          "internalType": "string",
          "name": "_message",
          "type": "string"
        },
        {
          "indexed": false,
          "internalType": "address",
          "name": "_author",
          "type": "address"
        }
      ],
      "name": "ServiceUpdate",
      "type": "event"
    },
    {
      "inputs": [],
      "name": "_alertConfigIdCounter",
      "outputs": [
        {
          "internalType": "uint256",
          "name": "_value",
          "type": "uint256"
        }
      ],
      "stateMutability": "view",
      "type": "function",
      "constant": true
    },
    {
      "inputs": [],
      "name": "_serviceIdCounter",
      "outputs": [
        {
          "internalType": "uint256",
          "name": "_value",
          "type": "uint256"
        }
      ],
      "stateMutability": "view",
      "type": "function",
      "constant": true
    },
    {
      "inputs": [],
      "name": "owner",
      "outputs": [
        {
          "internalType": "address",
          "name": "",
          "type": "address"
        }
      ],
      "stateMutability": "view",
      "type": "function",
      "constant": true
    },
    {
      "inputs": [],
      "name": "renounceOwnership",
      "outputs": [],
      "stateMutability": "nonpayable",
      "type": "function"
    },
    {
      "inputs": [
        {
          "internalType": "address",
          "name": "newOwner",
          "type": "address"
        }
      ],
      "name": "transferOwnership",
      "outputs": [],
      "stateMutability": "nonpayable",
      "type": "function"
    },
    {
      "inputs": [],
      "name": "getConfig",
      "outputs": [
        {
          "components": [
            {
              "internalType": "bytes8",
              "name": "version",
              "type": "bytes8"
            },
            {
              "internalType": "uint32",
              "name": "clientId",
              "type": "uint32"
            },
            {
              "internalType": "uint64",
              "name": "prevContractDate",
              "type": "uint64"
            },
            {
              "internalType": "uint64",
              "name": "nextContractDate",
              "type": "uint64"
            },
            {
              "internalType": "address",
              "name": "customerAddress",
              "type": "address"
            },
            {
              "internalType": "address",
              "name": "prevContract",
              "type": "address"
            },
            {
              "internalType": "address",
              "name": "nextContract",
              "type": "address"
            },
            {
              "internalType": "bool",
              "name": "isActive",
              "type": "bool"
            }
          ],
          "internalType": "struct ClientContract.Config",
          "name": "",
          "type": "tuple"
        }
      ],
      "stateMutability": "view",
      "type": "function",
      "constant": true
    },
    {
      "inputs": [],
      "name": "toggleContract",
      "outputs": [],
      "stateMutability": "nonpayable",
      "type": "function"
    },
    {
      "inputs": [
        {
          "internalType": "bytes8",
          "name": "_version",
          "type": "bytes8"
        },
        {
          "internalType": "string",
          "name": "_description",
          "type": "string"
        },
        {
          "internalType": "bytes8",
          "name": "_measureType",
          "type": "bytes8"
        },
        {
          "internalType": "bytes1",
          "name": "_timeCode",
          "type": "bytes1"
        },
        {
          "internalType": "uint8",
          "name": "_nbTime",
          "type": "uint8"
        }
      ],
      "name": "addService",
      "outputs": [],
      "stateMutability": "nonpayable",
      "type": "function"
    },
    {
      "inputs": [
        {
          "internalType": "uint256",
          "name": "_serviceId",
          "type": "uint256"
        }
      ],
      "name": "getOneService",
      "outputs": [
        {
          "components": [
            {
              "internalType": "bytes8",
              "name": "version",
              "type": "bytes8"
            },
            {
              "internalType": "bytes8",
              "name": "measureType",
              "type": "bytes8"
            },
            {
              "internalType": "bytes1",
              "name": "timeCode",
              "type": "bytes1"
            },
            {
              "internalType": "uint8",
              "name": "nbTime",
              "type": "uint8"
            },
            {
              "internalType": "bool",
              "name": "isActive",
              "type": "bool"
            },
            {
              "internalType": "string",
              "name": "description",
              "type": "string"
            },
            {
              "internalType": "address",
              "name": "bridgeAddress",
              "type": "address"
            },
            {
              "internalType": "address",
              "name": "techMasterAddress",
              "type": "address"
            },
            {
              "internalType": "address",
              "name": "legislatorAddress",
              "type": "address"
            },
            {
              "components": [
                {
                  "internalType": "uint256",
                  "name": "_value",
                  "type": "uint256"
                }
              ],
              "internalType": "struct Counters.Counter",
              "name": "measureIdCounter",
              "type": "tuple"
            },
            {
              "components": [
                {
                  "internalType": "uint256",
                  "name": "_value",
                  "type": "uint256"
                }
              ],
              "internalType": "struct Counters.Counter",
              "name": "IotIdCounter",
              "type": "tuple"
            }
          ],
          "internalType": "struct ClientContract.Service",
          "name": "",
          "type": "tuple"
        }
      ],
      "stateMutability": "view",
      "type": "function",
      "constant": true
    },
    {
      "inputs": [],
      "name": "getAllServices",
      "outputs": [
        {
          "components": [
            {
              "internalType": "bytes8",
              "name": "version",
              "type": "bytes8"
            },
            {
              "internalType": "bytes8",
              "name": "measureType",
              "type": "bytes8"
            },
            {
              "internalType": "bytes1",
              "name": "timeCode",
              "type": "bytes1"
            },
            {
              "internalType": "uint8",
              "name": "nbTime",
              "type": "uint8"
            },
            {
              "internalType": "bool",
              "name": "isActive",
              "type": "bool"
            },
            {
              "internalType": "string",
              "name": "description",
              "type": "string"
            },
            {
              "internalType": "address",
              "name": "bridgeAddress",
              "type": "address"
            },
            {
              "internalType": "address",
              "name": "techMasterAddress",
              "type": "address"
            },
            {
              "internalType": "address",
              "name": "legislatorAddress",
              "type": "address"
            },
            {
              "components": [
                {
                  "internalType": "uint256",
                  "name": "_value",
                  "type": "uint256"
                }
              ],
              "internalType": "struct Counters.Counter",
              "name": "measureIdCounter",
              "type": "tuple"
            },
            {
              "components": [
                {
                  "internalType": "uint256",
                  "name": "_value",
                  "type": "uint256"
                }
              ],
              "internalType": "struct Counters.Counter",
              "name": "IotIdCounter",
              "type": "tuple"
            }
          ],
          "internalType": "struct ClientContract.Service[]",
          "name": "",
          "type": "tuple[]"
        }
      ],
      "stateMutability": "view",
      "type": "function",
      "constant": true
    },
    {
      "inputs": [
        {
          "internalType": "uint256",
          "name": "_serviceId",
          "type": "uint256"
        }
      ],
      "name": "toggleService",
      "outputs": [],
      "stateMutability": "nonpayable",
      "type": "function"
    },
    {
      "inputs": [
        {
          "internalType": "uint256",
          "name": "_serviceId",
          "type": "uint256"
        },
        {
          "internalType": "address",
          "name": "_techMasterAddress",
          "type": "address"
        }
      ],
      "name": "setTechMasterAddress",
      "outputs": [],
      "stateMutability": "nonpayable",
      "type": "function"
    },
    {
      "inputs": [
        {
          "internalType": "uint256",
          "name": "_serviceId",
          "type": "uint256"
        },
        {
          "internalType": "address",
          "name": "_bridgeAddress",
          "type": "address"
        }
      ],
      "name": "setBridgeAddress",
      "outputs": [],
      "stateMutability": "nonpayable",
      "type": "function"
    },
    {
      "inputs": [
        {
          "internalType": "uint256",
          "name": "_serviceId",
          "type": "uint256"
        },
        {
          "internalType": "address",
          "name": "_legislatorAddress",
          "type": "address"
        }
      ],
      "name": "setLegislatorAddress",
      "outputs": [],
      "stateMutability": "nonpayable",
      "type": "function"
    },
    {
      "inputs": [
        {
          "internalType": "uint256",
          "name": "_serviceId",
          "type": "uint256"
        },
        {
          "internalType": "bytes32",
          "name": "_measureHeader",
          "type": "bytes32"
        },
        {
          "internalType": "bytes32",
          "name": "_measurebody",
          "type": "bytes32"
        }
      ],
      "name": "addMeasure",
      "outputs": [],
      "stateMutability": "nonpayable",
      "type": "function"
    },
    {
      "inputs": [
        {
          "internalType": "uint256",
          "name": "_serviceId",
          "type": "uint256"
        }
      ],
      "name": "getAllMeasures",
      "outputs": [
        {
          "internalType": "bytes32[]",
          "name": "",
          "type": "bytes32[]"
        },
        {
          "internalType": "bytes32[]",
          "name": "",
          "type": "bytes32[]"
        }
      ],
      "stateMutability": "view",
      "type": "function",
      "constant": true
    },
    {
      "inputs": [
        {
          "internalType": "uint256",
          "name": "_serviceId",
          "type": "uint256"
        },
        {
          "internalType": "uint256",
          "name": "_measureId",
          "type": "uint256"
        }
      ],
      "name": "getMeasuresById",
      "outputs": [
        {
          "internalType": "bytes32",
          "name": "",
          "type": "bytes32"
        },
        {
          "internalType": "bytes32",
          "name": "",
          "type": "bytes32"
        }
      ],
      "stateMutability": "view",
      "type": "function",
      "constant": true
    },
    {
      "inputs": [
        {
          "internalType": "bytes8",
          "name": "_version",
          "type": "bytes8"
        },
        {
          "internalType": "uint16",
          "name": "_serviceId",
          "type": "uint16"
        },
        {
          "internalType": "string",
          "name": "_description",
          "type": "string"
        },
        {
          "internalType": "uint64",
          "name": "_dateOn",
          "type": "uint64"
        },
        {
          "internalType": "uint64",
          "name": "_dateOff",
          "type": "uint64"
        },
        {
          "internalType": "bytes8",
          "name": "_codeAlert",
          "type": "bytes8"
        },
        {
          "internalType": "bytes8",
          "name": "_valueAlert",
          "type": "bytes8"
        }
      ],
      "name": "addAlertConfig",
      "outputs": [],
      "stateMutability": "nonpayable",
      "type": "function"
    },
    {
      "inputs": [],
      "name": "getAllAlertConfigs",
      "outputs": [
        {
          "components": [
            {
              "internalType": "bytes8",
              "name": "version",
              "type": "bytes8"
            },
            {
              "internalType": "uint16",
              "name": "serviceId",
              "type": "uint16"
            },
            {
              "internalType": "string",
              "name": "description",
              "type": "string"
            },
            {
              "internalType": "address",
              "name": "legislatorAddress",
              "type": "address"
            },
            {
              "internalType": "uint64",
              "name": "dateOn",
              "type": "uint64"
            },
            {
              "internalType": "uint64",
              "name": "dateOff",
              "type": "uint64"
            },
            {
              "internalType": "bytes8",
              "name": "codeAlert",
              "type": "bytes8"
            },
            {
              "internalType": "bytes8",
              "name": "valueAlert",
              "type": "bytes8"
            },
            {
              "internalType": "bool",
              "name": "isActive",
              "type": "bool"
            },
            {
              "components": [
                {
                  "internalType": "uint256",
                  "name": "_value",
                  "type": "uint256"
                }
              ],
              "internalType": "struct Counters.Counter",
              "name": "alertConfigIdCounter",
              "type": "tuple"
            },
            {
              "components": [
                {
                  "internalType": "uint256",
                  "name": "_value",
                  "type": "uint256"
                }
              ],
              "internalType": "struct Counters.Counter",
              "name": "alertIdCounter",
              "type": "tuple"
            }
          ],
          "internalType": "struct ClientContract.AlertConfig[]",
          "name": "",
          "type": "tuple[]"
        }
      ],
      "stateMutability": "view",
      "type": "function",
      "constant": true
    },
    {
      "inputs": [
        {
          "internalType": "uint256",
          "name": "_alertConfigId",
          "type": "uint256"
        }
      ],
      "name": "toggleAlertConfig",
      "outputs": [],
      "stateMutability": "nonpayable",
      "type": "function"
    },
    {
      "inputs": [
        {
          "internalType": "uint256",
          "name": "_serviceId",
          "type": "uint256"
        },
        {
          "internalType": "uint256",
          "name": "_alertConfigId",
          "type": "uint256"
        },
        {
          "internalType": "bytes32",
          "name": "_alertBody",
          "type": "bytes32"
        }
      ],
      "name": "addAlert",
      "outputs": [],
      "stateMutability": "nonpayable",
      "type": "function"
    },
    {
      "inputs": [
        {
          "internalType": "uint256",
          "name": "_alertConfigId",
          "type": "uint256"
        }
      ],
      "name": "getAlerts",
      "outputs": [
        {
          "internalType": "bytes32[]",
          "name": "",
          "type": "bytes32[]"
        }
      ],
      "stateMutability": "view",
      "type": "function",
      "constant": true
    }
  ],
  "bytecode": "0x60806040523480156200001157600080fd5b5060405162004f0538038062004f058339818101604052810190620000379190620003b3565b6000620000496200034f60201b60201c565b9050806000806101000a81548173ffffffffffffffffffffffffffffffffffffffff021916908373ffffffffffffffffffffffffffffffffffffffff1602179055508073ffffffffffffffffffffffffffffffffffffffff16600073ffffffffffffffffffffffffffffffffffffffff167f8be0079c531659141344cd1fd0a4f28419497f9722a3daafe3b4186f6b6457e060405160405180910390a3506040518061010001604052808677ffffffffffffffffffffffffffffffffffffffffffffffff191681526020018563ffffffff1681526020018267ffffffffffffffff168152602001600067ffffffffffffffff1681526020018473ffffffffffffffffffffffffffffffffffffffff1681526020018373ffffffffffffffffffffffffffffffffffffffff168152602001600073ffffffffffffffffffffffffffffffffffffffff16815260200160011515815250600160008201518160000160006101000a81548167ffffffffffffffff021916908360c01c021790555060208201518160000160086101000a81548163ffffffff021916908363ffffffff160217905550604082015181600001600c6101000a81548167ffffffffffffffff021916908367ffffffffffffffff16021790555060608201518160000160146101000a81548167ffffffffffffffff021916908367ffffffffffffffff16021790555060808201518160010160006101000a81548173ffffffffffffffffffffffffffffffffffffffff021916908373ffffffffffffffffffffffffffffffffffffffff16021790555060a08201518160020160006101000a81548173ffffffffffffffffffffffffffffffffffffffff021916908373ffffffffffffffffffffffffffffffffffffffff16021790555060c08201518160030160006101000a81548173ffffffffffffffffffffffffffffffffffffffff021916908373ffffffffffffffffffffffffffffffffffffffff16021790555060e08201518160030160146101000a81548160ff021916908315150217905550905050505050505062000521565b600033905090565b6000815190506200036881620004b9565b92915050565b6000815190506200037f81620004d3565b92915050565b6000815190506200039681620004ed565b92915050565b600081519050620003ad8162000507565b92915050565b600080600080600060a08688031215620003cc57600080fd5b6000620003dc888289016200036e565b9550506020620003ef8882890162000385565b9450506040620004028882890162000357565b9350506060620004158882890162000357565b925050608062000428888289016200039c565b9150509295509295909350565b6000620004428262000475565b9050919050565b60007fffffffffffffffff00000000000000000000000000000000000000000000000082169050919050565b600073ffffffffffffffffffffffffffffffffffffffff82169050919050565b600063ffffffff82169050919050565b600067ffffffffffffffff82169050919050565b620004c48162000435565b8114620004d057600080fd5b50565b620004de8162000449565b8114620004ea57600080fd5b50565b620004f88162000495565b81146200050457600080fd5b50565b6200051281620004a5565b81146200051e57600080fd5b50565b6149d480620005316000396000f3fe608060405234801561001057600080fd5b50600436106101425760003560e01c80639df90028116100b8578063c700fdf71161007c578063c700fdf71461032b578063d3088f2b14610349578063da6cd37614610379578063e0c9d4bb14610395578063e8d29084146103b1578063f2fde38b146103cd57610142565b80639df90028146102ad578063abb7d929146102b7578063b2e733bf146102d5578063c18ec58c146102f1578063c3f909d41461030d57610142565b806328e41a021161010a57806328e41a02146101fe57806347b17fbc1461021a5780634c6fdcc61461023857806351f2c5ad14610254578063715018a6146102855780638da5cb5b1461028f57610142565b806306566faa1461014757806307bf64d91461016357806317842b281461017f57806321fe0f30146101af5780632669167a146101cd575b600080fd5b610161600480360381019061015c91906136ad565b6103e9565b005b61017d600480360381019061017891906135ce565b61073b565b005b61019960048036038101906101949190613684565b610a4f565b6040516101a691906141a2565b60405180910390f35b6101b7610aba565b6040516101c4919061421d565b60405180910390f35b6101e760048036038101906101e29190613738565b610e17565b6040516101f592919061423f565b60405180910390f35b61021860048036038101906102139190613684565b610ed1565b005b61022261110e565b60405161022f91906141fb565b60405180910390f35b610252600480360381019061024d91906136ad565b611418565b005b61026e60048036038101906102699190613684565b6116ce565b60405161027c9291906141c4565b60405180910390f35b61028d6117a4565b005b6102976118de565b6040516102a49190614187565b60405180910390f35b6102b5611907565b005b6102bf6119ec565b6040516102cc919061442c565b60405180910390f35b6102ef60048036038101906102ea91906136e9565b6119f8565b005b61030b600480360381019061030691906136ad565b611d50565b005b6103156120a8565b60405161032291906143a4565b60405180910390f35b6103336122b7565b604051610340919061442c565b60405180910390f35b610363600480360381019061035e9190613684565b6122c3565b60405161037091906143c0565b60405180910390f35b610393600480360381019061038e919061353f565b612623565b005b6103af60048036038101906103aa9190613684565b612a8b565b005b6103cb60048036038101906103c69190613774565b612c52565b005b6103e760048036038101906103e29190613516565b612f70565b005b80600073ffffffffffffffffffffffffffffffffffffffff168173ffffffffffffffffffffffffffffffffffffffff16141561042457600080fd5b600160030160149054906101000a900460ff16610476576040517f08c379a000000000000000000000000000000000000000000000000000000000815260040161046d90614344565b60405180910390fd5b826104816009613119565b81106104c2576040517f08c379a00000000000000000000000000000000000000000000000000000000081526004016104b990614324565b60405180910390fd5b600581815481106104fc577f4e487b7100000000000000000000000000000000000000000000000000000000600052603260045260246000fd5b906000526020600020906007020160000160129054906101000a900460ff1661055a576040517f08c379a000000000000000000000000000000000000000000000000000000000815260040161055190614364565b60405180910390fd5b833373ffffffffffffffffffffffffffffffffffffffff16600582815481106105ac577f4e487b7100000000000000000000000000000000000000000000000000000000600052603260045260246000fd5b906000526020600020906007020160030160009054906101000a900473ffffffffffffffffffffffffffffffffffffffff1673ffffffffffffffffffffffffffffffffffffffff16148061063257503373ffffffffffffffffffffffffffffffffffffffff1661061a6118de565b73ffffffffffffffffffffffffffffffffffffffff16145b610671576040517f08c379a000000000000000000000000000000000000000000000000000000000815260040161066890614384565b60405180910390fd5b83600586815481106106ac577f4e487b7100000000000000000000000000000000000000000000000000000000600052603260045260246000fd5b906000526020600020906007020160020160006101000a81548173ffffffffffffffffffffffffffffffffffffffff021916908373ffffffffffffffffffffffffffffffffffffffff1602179055507f6eb54bb1fcbc8b072bc7be4d66f909b2316584cb9b6c49bfdb6504b9246a8481853360405161072c92919061448c565b60405180910390a15050505050565b600033905061074861318d565b61075061318d565b600a6040518061016001604052808c77ffffffffffffffffffffffffffffffffffffffffffffffff191681526020018b61ffff1681526020018a81526020018573ffffffffffffffffffffffffffffffffffffffff1681526020018967ffffffffffffffff1681526020018867ffffffffffffffff1681526020018777ffffffffffffffffffffffffffffffffffffffffffffffff191681526020018677ffffffffffffffffffffffffffffffffffffffffffffffff1916815260200160011515815260200184815260200183815250908060018154018082558091505060019003906000526020600020906006020160009091909190915060008201518160000160006101000a81548167ffffffffffffffff021916908360c01c021790555060208201518160000160086101000a81548161ffff021916908361ffff16021790555060408201518160010190805190602001906108b09291906131a0565b5060608201518160020160006101000a81548173ffffffffffffffffffffffffffffffffffffffff021916908373ffffffffffffffffffffffffffffffffffffffff16021790555060808201518160020160146101000a81548167ffffffffffffffff021916908367ffffffffffffffff16021790555060a08201518160030160006101000a81548167ffffffffffffffff021916908367ffffffffffffffff16021790555060c08201518160030160086101000a81548167ffffffffffffffff021916908360c01c021790555060e08201518160030160106101000a81548167ffffffffffffffff021916908360c01c02179055506101008201518160030160186101000a81548160ff021916908315150217905550610120820151816004016000820151816000015550506101408201518160050160008201518160000155505050507f6391e278cb294aa6ee810ce0e33f9840acfd7edf28f3701d62764067965c6ba189610a21600c613119565b33604051610a31939291906143e2565b60405180910390a1610a43600c613127565b50505050505050505050565b6060600b6000838152602001908152602001600020805480602002602001604051908101604052809291908181526020018280548015610aae57602002820191906000526020600020905b815481526020019060010190808311610a9a575b50505050509050919050565b60606005805480602002602001604051908101604052809291908181526020016000905b82821015610e0e5783829060005260206000209060070201604051806101600160405290816000820160009054906101000a900460c01b77ffffffffffffffffffffffffffffffffffffffffffffffff191677ffffffffffffffffffffffffffffffffffffffffffffffff191681526020016000820160089054906101000a900460c01b77ffffffffffffffffffffffffffffffffffffffffffffffff191677ffffffffffffffffffffffffffffffffffffffffffffffff191681526020016000820160109054906101000a900460f81b7effffffffffffffffffffffffffffffffffffffffffffffffffffffffffffff19167effffffffffffffffffffffffffffffffffffffffffffffffffffffffffffff191681526020016000820160119054906101000a900460ff1660ff1660ff1681526020016000820160129054906101000a900460ff16151515158152602001600182018054610c3f90614845565b80601f0160208091040260200160405190810160405280929190818152602001828054610c6b90614845565b8015610cb85780601f10610c8d57610100808354040283529160200191610cb8565b820191906000526020600020905b815481529060010190602001808311610c9b57829003601f168201915b505050505081526020016002820160009054906101000a900473ffffffffffffffffffffffffffffffffffffffff1673ffffffffffffffffffffffffffffffffffffffff1673ffffffffffffffffffffffffffffffffffffffff1681526020016003820160009054906101000a900473ffffffffffffffffffffffffffffffffffffffff1673ffffffffffffffffffffffffffffffffffffffff1673ffffffffffffffffffffffffffffffffffffffff1681526020016004820160009054906101000a900473ffffffffffffffffffffffffffffffffffffffff1673ffffffffffffffffffffffffffffffffffffffff1673ffffffffffffffffffffffffffffffffffffffff168152602001600582016040518060200160405290816000820154815250508152602001600682016040518060200160405290816000820154815250508152505081526020019060010190610ade565b50505050905090565b600080600660008581526020019081526020016000208381548110610e65577f4e487b7100000000000000000000000000000000000000000000000000000000600052603260045260246000fd5b9060005260206000200154600760008681526020019081526020016000208481548110610ebb577f4e487b7100000000000000000000000000000000000000000000000000000000600052603260045260246000fd5b9060005260206000200154915091509250929050565b600a8181548110610f0b577f4e487b7100000000000000000000000000000000000000000000000000000000600052603260045260246000fd5b906000526020600020906006020160020160009054906101000a900473ffffffffffffffffffffffffffffffffffffffff1673ffffffffffffffffffffffffffffffffffffffff163373ffffffffffffffffffffffffffffffffffffffff161480610fa85750610f796118de565b73ffffffffffffffffffffffffffffffffffffffff163373ffffffffffffffffffffffffffffffffffffffff16145b610fb157600080fd5b6000600a8281548110610fed577f4e487b7100000000000000000000000000000000000000000000000000000000600052603260045260246000fd5b906000526020600020906006020160000160089054906101000a900461ffff1661ffff1690507f6391e278cb294aa6ee810ce0e33f9840acfd7edf28f3701d62764067965c6ba181833360405161104693929190614585565b60405180910390a1600a8281548110611088577f4e487b7100000000000000000000000000000000000000000000000000000000600052603260045260246000fd5b906000526020600020906006020160030160189054906101000a900460ff1615600a83815481106110e2577f4e487b7100000000000000000000000000000000000000000000000000000000600052603260045260246000fd5b906000526020600020906006020160030160186101000a81548160ff0219169083151502179055505050565b6060600a805480602002602001604051908101604052809291908181526020016000905b8282101561140f5783829060005260206000209060060201604051806101600160405290816000820160009054906101000a900460c01b77ffffffffffffffffffffffffffffffffffffffffffffffff191677ffffffffffffffffffffffffffffffffffffffffffffffff191681526020016000820160089054906101000a900461ffff1661ffff1661ffff1681526020016001820180546111d390614845565b80601f01602080910402602001604051908101604052809291908181526020018280546111ff90614845565b801561124c5780601f106112215761010080835404028352916020019161124c565b820191906000526020600020905b81548152906001019060200180831161122f57829003601f168201915b505050505081526020016002820160009054906101000a900473ffffffffffffffffffffffffffffffffffffffff1673ffffffffffffffffffffffffffffffffffffffff1673ffffffffffffffffffffffffffffffffffffffff1681526020016002820160149054906101000a900467ffffffffffffffff1667ffffffffffffffff1667ffffffffffffffff1681526020016003820160009054906101000a900467ffffffffffffffff1667ffffffffffffffff1667ffffffffffffffff1681526020016003820160089054906101000a900460c01b77ffffffffffffffffffffffffffffffffffffffffffffffff191677ffffffffffffffffffffffffffffffffffffffffffffffff191681526020016003820160109054906101000a900460c01b77ffffffffffffffffffffffffffffffffffffffffffffffff191677ffffffffffffffffffffffffffffffffffffffffffffffff191681526020016003820160189054906101000a900460ff16151515158152602001600482016040518060200160405290816000820154815250508152602001600582016040518060200160405290816000820154815250508152505081526020019060010190611132565b50505050905090565b80600073ffffffffffffffffffffffffffffffffffffffff168173ffffffffffffffffffffffffffffffffffffffff16141561145357600080fd5b600160030160149054906101000a900460ff166114a5576040517f08c379a000000000000000000000000000000000000000000000000000000000815260040161149c90614344565b60405180910390fd5b826114b06009613119565b81106114f1576040517f08c379a00000000000000000000000000000000000000000000000000000000081526004016114e890614324565b60405180910390fd5b6005818154811061152b577f4e487b7100000000000000000000000000000000000000000000000000000000600052603260045260246000fd5b906000526020600020906007020160000160129054906101000a900460ff16611589576040517f08c379a000000000000000000000000000000000000000000000000000000000815260040161158090614364565b60405180910390fd5b61159161313d565b73ffffffffffffffffffffffffffffffffffffffff166115af6118de565b73ffffffffffffffffffffffffffffffffffffffff1614611605576040517f08c379a00000000000000000000000000000000000000000000000000000000081526004016115fc90614304565b60405180910390fd5b8260058581548110611640577f4e487b7100000000000000000000000000000000000000000000000000000000600052603260045260246000fd5b906000526020600020906007020160030160006101000a81548173ffffffffffffffffffffffffffffffffffffffff021916908373ffffffffffffffffffffffffffffffffffffffff1602179055507f6eb54bb1fcbc8b072bc7be4d66f909b2316584cb9b6c49bfdb6504b9246a848184336040516116c092919061448c565b60405180910390a150505050565b60608060066000848152602001908152602001600020600760008581526020019081526020016000208180548060200260200160405190810160405280929190818152602001828054801561174257602002820191906000526020600020905b81548152602001906001019080831161172e575b505050505091508080548060200260200160405190810160405280929190818152602001828054801561179457602002820191906000526020600020905b815481526020019060010190808311611780575b5050505050905091509150915091565b6117ac61313d565b73ffffffffffffffffffffffffffffffffffffffff166117ca6118de565b73ffffffffffffffffffffffffffffffffffffffff1614611820576040517f08c379a000000000000000000000000000000000000000000000000000000000815260040161181790614304565b60405180910390fd5b600073ffffffffffffffffffffffffffffffffffffffff1660008054906101000a900473ffffffffffffffffffffffffffffffffffffffff1673ffffffffffffffffffffffffffffffffffffffff167f8be0079c531659141344cd1fd0a4f28419497f9722a3daafe3b4186f6b6457e060405160405180910390a360008060006101000a81548173ffffffffffffffffffffffffffffffffffffffff021916908373ffffffffffffffffffffffffffffffffffffffff160217905550565b60008060009054906101000a900473ffffffffffffffffffffffffffffffffffffffff16905090565b61190f61313d565b73ffffffffffffffffffffffffffffffffffffffff1661192d6118de565b73ffffffffffffffffffffffffffffffffffffffff1614611983576040517f08c379a000000000000000000000000000000000000000000000000000000000815260040161197a90614304565b60405180910390fd5b7f74851bb416411c1b4cb986c13ce9b6a9e973e7948f03fc2e574ca42a6d3724d3336040516119b29190614288565b60405180910390a1600160030160149054906101000a900460ff1615600160030160146101000a81548160ff021916908315150217905550565b600c8060000154905081565b600160030160149054906101000a900460ff16611a4a576040517f08c379a0000000000000000000000000000000000000000000000000000000008152600401611a4190614344565b60405180910390fd5b82611a556009613119565b8110611a96576040517f08c379a0000000000000000000000000000000000000000000000000000000008152600401611a8d90614324565b60405180910390fd5b60058181548110611ad0577f4e487b7100000000000000000000000000000000000000000000000000000000600052603260045260246000fd5b906000526020600020906007020160000160129054906101000a900460ff16611b2e576040517f08c379a0000000000000000000000000000000000000000000000000000000008152600401611b2590614364565b60405180910390fd5b833373ffffffffffffffffffffffffffffffffffffffff1660058281548110611b80577f4e487b7100000000000000000000000000000000000000000000000000000000600052603260045260246000fd5b906000526020600020906007020160020160009054906101000a900473ffffffffffffffffffffffffffffffffffffffff1673ffffffffffffffffffffffffffffffffffffffff161480611c0657503373ffffffffffffffffffffffffffffffffffffffff16611bee6118de565b73ffffffffffffffffffffffffffffffffffffffff16145b611c45576040517f08c379a0000000000000000000000000000000000000000000000000000000008152600401611c3c90614384565b60405180910390fd5b6006600086815260200190815260200160002084908060018154018082558091505060019003906000526020600020016000909190919091505560076000868152602001908152602001600020839080600181540180825580915050600190039060005260206000200160009091909190915055611d0c60058681548110611cf6577f4e487b7100000000000000000000000000000000000000000000000000000000600052603260045260246000fd5b9060005260206000209060070201600501613127565b7f818366328240e2ab5877d5eed27c1f3803a716f5700034371e2e520c650f574585858533604051611d419493929190614447565b60405180910390a15050505050565b80600073ffffffffffffffffffffffffffffffffffffffff168173ffffffffffffffffffffffffffffffffffffffff161415611d8b57600080fd5b600160030160149054906101000a900460ff16611ddd576040517f08c379a0000000000000000000000000000000000000000000000000000000008152600401611dd490614344565b60405180910390fd5b82611de86009613119565b8110611e29576040517f08c379a0000000000000000000000000000000000000000000000000000000008152600401611e2090614324565b60405180910390fd5b60058181548110611e63577f4e487b7100000000000000000000000000000000000000000000000000000000600052603260045260246000fd5b906000526020600020906007020160000160129054906101000a900460ff16611ec1576040517f08c379a0000000000000000000000000000000000000000000000000000000008152600401611eb890614364565b60405180910390fd5b3373ffffffffffffffffffffffffffffffffffffffff166001800160009054906101000a900473ffffffffffffffffffffffffffffffffffffffff1673ffffffffffffffffffffffffffffffffffffffff161480611f5157503373ffffffffffffffffffffffffffffffffffffffff16611f396118de565b73ffffffffffffffffffffffffffffffffffffffff16145b611f90576040517f08c379a0000000000000000000000000000000000000000000000000000000008152600401611f8790614384565b60405180910390fd5b60011515611f9d84613145565b151514611fdf576040517f08c379a0000000000000000000000000000000000000000000000000000000008152600401611fd6906142e4565b60405180910390fd5b826005858154811061201a577f4e487b7100000000000000000000000000000000000000000000000000000000600052603260045260246000fd5b906000526020600020906007020160040160006101000a81548173ffffffffffffffffffffffffffffffffffffffff021916908373ffffffffffffffffffffffffffffffffffffffff1602179055507f6eb54bb1fcbc8b072bc7be4d66f909b2316584cb9b6c49bfdb6504b9246a8481843360405161209a9291906144c8565b60405180910390a150505050565b6120b0613226565b6001604051806101000160405290816000820160009054906101000a900460c01b77ffffffffffffffffffffffffffffffffffffffffffffffff191677ffffffffffffffffffffffffffffffffffffffffffffffff191681526020016000820160089054906101000a900463ffffffff1663ffffffff1663ffffffff16815260200160008201600c9054906101000a900467ffffffffffffffff1667ffffffffffffffff1667ffffffffffffffff1681526020016000820160149054906101000a900467ffffffffffffffff1667ffffffffffffffff1667ffffffffffffffff1681526020016001820160009054906101000a900473ffffffffffffffffffffffffffffffffffffffff1673ffffffffffffffffffffffffffffffffffffffff1673ffffffffffffffffffffffffffffffffffffffff1681526020016002820160009054906101000a900473ffffffffffffffffffffffffffffffffffffffff1673ffffffffffffffffffffffffffffffffffffffff1673ffffffffffffffffffffffffffffffffffffffff1681526020016003820160009054906101000a900473ffffffffffffffffffffffffffffffffffffffff1673ffffffffffffffffffffffffffffffffffffffff1673ffffffffffffffffffffffffffffffffffffffff1681526020016003820160149054906101000a900460ff161515151581525050905090565b60098060000154905081565b6122cb6132e4565b60058281548110612305577f4e487b7100000000000000000000000000000000000000000000000000000000600052603260045260246000fd5b9060005260206000209060070201604051806101600160405290816000820160009054906101000a900460c01b77ffffffffffffffffffffffffffffffffffffffffffffffff191677ffffffffffffffffffffffffffffffffffffffffffffffff191681526020016000820160089054906101000a900460c01b77ffffffffffffffffffffffffffffffffffffffffffffffff191677ffffffffffffffffffffffffffffffffffffffffffffffff191681526020016000820160109054906101000a900460f81b7effffffffffffffffffffffffffffffffffffffffffffffffffffffffffffff19167effffffffffffffffffffffffffffffffffffffffffffffffffffffffffffff191681526020016000820160119054906101000a900460ff1660ff1660ff1681526020016000820160129054906101000a900460ff1615151515815260200160018201805461245c90614845565b80601f016020809104026020016040519081016040528092919081815260200182805461248890614845565b80156124d55780601f106124aa576101008083540402835291602001916124d5565b820191906000526020600020905b8154815290600101906020018083116124b857829003601f168201915b505050505081526020016002820160009054906101000a900473ffffffffffffffffffffffffffffffffffffffff1673ffffffffffffffffffffffffffffffffffffffff1673ffffffffffffffffffffffffffffffffffffffff1681526020016003820160009054906101000a900473ffffffffffffffffffffffffffffffffffffffff1673ffffffffffffffffffffffffffffffffffffffff1673ffffffffffffffffffffffffffffffffffffffff1681526020016004820160009054906101000a900473ffffffffffffffffffffffffffffffffffffffff1673ffffffffffffffffffffffffffffffffffffffff1673ffffffffffffffffffffffffffffffffffffffff16815260200160058201604051806020016040529081600082015481525050815260200160068201604051806020016040529081600082015481525050815250509050919050565b3373ffffffffffffffffffffffffffffffffffffffff166001800160009054906101000a900473ffffffffffffffffffffffffffffffffffffffff1673ffffffffffffffffffffffffffffffffffffffff1614806126b357503373ffffffffffffffffffffffffffffffffffffffff1661269b6118de565b73ffffffffffffffffffffffffffffffffffffffff16145b6126f2576040517f08c379a00000000000000000000000000000000000000000000000000000000081526004016126e990614384565b60405180910390fd5b600160030160149054906101000a900460ff16612744576040517f08c379a000000000000000000000000000000000000000000000000000000000815260040161273b90614344565b60405180910390fd5b61274c61318d565b61275461318d565b60056040518061016001604052808977ffffffffffffffffffffffffffffffffffffffffffffffff191681526020018777ffffffffffffffffffffffffffffffffffffffffffffffff19168152602001867effffffffffffffffffffffffffffffffffffffffffffffffffffffffffffff191681526020018560ff168152602001600115158152602001888152602001600073ffffffffffffffffffffffffffffffffffffffff168152602001600073ffffffffffffffffffffffffffffffffffffffff168152602001600073ffffffffffffffffffffffffffffffffffffffff16815260200184815260200183815250908060018154018082558091505060019003906000526020600020906007020160009091909190915060008201518160000160006101000a81548167ffffffffffffffff021916908360c01c021790555060208201518160000160086101000a81548167ffffffffffffffff021916908360c01c021790555060408201518160000160106101000a81548160ff021916908360f81c021790555060608201518160000160116101000a81548160ff021916908360ff16021790555060808201518160000160126101000a81548160ff02191690831515021790555060a082015181600101908051906020019061293c9291906131a0565b5060c08201518160020160006101000a81548173ffffffffffffffffffffffffffffffffffffffff021916908373ffffffffffffffffffffffffffffffffffffffff16021790555060e08201518160030160006101000a81548173ffffffffffffffffffffffffffffffffffffffff021916908373ffffffffffffffffffffffffffffffffffffffff1602179055506101008201518160040160006101000a81548173ffffffffffffffffffffffffffffffffffffffff021916908373ffffffffffffffffffffffffffffffffffffffff160217905550610120820151816005016000820151816000015550506101408201518160060160008201518160000155505050507f74851bb416411c1b4cb986c13ce9b6a9e973e7948f03fc2e574ca42a6d3724d333604051612a7091906142b6565b60405180910390a1612a826009613127565b50505050505050565b3373ffffffffffffffffffffffffffffffffffffffff166001800160009054906101000a900473ffffffffffffffffffffffffffffffffffffffff1673ffffffffffffffffffffffffffffffffffffffff161480612b1b57503373ffffffffffffffffffffffffffffffffffffffff16612b036118de565b73ffffffffffffffffffffffffffffffffffffffff16145b612b5a576040517f08c379a0000000000000000000000000000000000000000000000000000000008152600401612b5190614384565b60405180910390fd5b7f6eb54bb1fcbc8b072bc7be4d66f909b2316584cb9b6c49bfdb6504b9246a84818133604051612b8b929190614504565b60405180910390a160058181548110612bcd577f4e487b7100000000000000000000000000000000000000000000000000000000600052603260045260246000fd5b906000526020600020906007020160000160129054906101000a900460ff161560058281548110612c27577f4e487b7100000000000000000000000000000000000000000000000000000000600052603260045260246000fd5b906000526020600020906007020160000160126101000a81548160ff02191690831515021790555050565b600160030160149054906101000a900460ff16612ca4576040517f08c379a0000000000000000000000000000000000000000000000000000000008152600401612c9b90614344565b60405180910390fd5b82612caf6009613119565b8110612cf0576040517f08c379a0000000000000000000000000000000000000000000000000000000008152600401612ce790614324565b60405180910390fd5b60058181548110612d2a577f4e487b7100000000000000000000000000000000000000000000000000000000600052603260045260246000fd5b906000526020600020906007020160000160129054906101000a900460ff16612d88576040517f08c379a0000000000000000000000000000000000000000000000000000000008152600401612d7f90614364565b60405180910390fd5b833373ffffffffffffffffffffffffffffffffffffffff1660058281548110612dda577f4e487b7100000000000000000000000000000000000000000000000000000000600052603260045260246000fd5b906000526020600020906007020160020160009054906101000a900473ffffffffffffffffffffffffffffffffffffffff1673ffffffffffffffffffffffffffffffffffffffff161480612e6057503373ffffffffffffffffffffffffffffffffffffffff16612e486118de565b73ffffffffffffffffffffffffffffffffffffffff16145b612e9f576040517f08c379a0000000000000000000000000000000000000000000000000000000008152600401612e9690614384565b60405180910390fd5b600b6000858152602001908152602001600020839080600181540180825580915050600190039060005260206000200160009091909190915055612f2c600a8581548110612f16577f4e487b7100000000000000000000000000000000000000000000000000000000600052603260045260246000fd5b9060005260206000209060060201600501613127565b7f36134df50fb7d9b784ebe80f4738a13cede0c5efe526e5e9d8b95601d8cc900c85858533604051612f619493929190614540565b60405180910390a15050505050565b612f7861313d565b73ffffffffffffffffffffffffffffffffffffffff16612f966118de565b73ffffffffffffffffffffffffffffffffffffffff1614612fec576040517f08c379a0000000000000000000000000000000000000000000000000000000008152600401612fe390614304565b60405180910390fd5b600073ffffffffffffffffffffffffffffffffffffffff168173ffffffffffffffffffffffffffffffffffffffff16141561305c576040517f08c379a000000000000000000000000000000000000000000000000000000000815260040161305390614268565b60405180910390fd5b8073ffffffffffffffffffffffffffffffffffffffff1660008054906101000a900473ffffffffffffffffffffffffffffffffffffffff1673ffffffffffffffffffffffffffffffffffffffff167f8be0079c531659141344cd1fd0a4f28419497f9722a3daafe3b4186f6b6457e060405160405180910390a3806000806101000a81548173ffffffffffffffffffffffffffffffffffffffff021916908373ffffffffffffffffffffffffffffffffffffffff16021790555050565b600081600001549050919050565b6001816000016000828254019250508190555050565b600033905090565b60003373ffffffffffffffffffffffffffffffffffffffff168273ffffffffffffffffffffffffffffffffffffffff16146131835760019050613188565b600190505b919050565b6040518060200160405280600081525090565b8280546131ac90614845565b90600052602060002090601f0160209004810192826131ce5760008555613215565b82601f106131e757805160ff1916838001178555613215565b82800160010185558215613215579182015b828111156132145782518255916020019190600101906131f9565b5b50905061322291906133e9565b5090565b604051806101000160405280600077ffffffffffffffffffffffffffffffffffffffffffffffff19168152602001600063ffffffff168152602001600067ffffffffffffffff168152602001600067ffffffffffffffff168152602001600073ffffffffffffffffffffffffffffffffffffffff168152602001600073ffffffffffffffffffffffffffffffffffffffff168152602001600073ffffffffffffffffffffffffffffffffffffffff1681526020016000151581525090565b604051806101600160405280600077ffffffffffffffffffffffffffffffffffffffffffffffff19168152602001600077ffffffffffffffffffffffffffffffffffffffffffffffff1916815260200160007effffffffffffffffffffffffffffffffffffffffffffffffffffffffffffff19168152602001600060ff16815260200160001515815260200160608152602001600073ffffffffffffffffffffffffffffffffffffffff168152602001600073ffffffffffffffffffffffffffffffffffffffff168152602001600073ffffffffffffffffffffffffffffffffffffffff1681526020016133d661318d565b81526020016133e361318d565b81525090565b5b808211156134025760008160009055506001016133ea565b5090565b600061341961341484614600565b6145cf565b90508281526020810184848401111561343157600080fd5b61343c848285614803565b509392505050565b600081359050613453816148e6565b92915050565b600081359050613468816148fd565b92915050565b60008135905061347d81614914565b92915050565b6000813590506134928161492b565b92915050565b600082601f8301126134a957600080fd5b81356134b9848260208601613406565b91505092915050565b6000813590506134d181614942565b92915050565b6000813590506134e681614959565b92915050565b6000813590506134fb81614970565b92915050565b60008135905061351081614987565b92915050565b60006020828403121561352857600080fd5b600061353684828501613444565b91505092915050565b600080600080600060a0868803121561355757600080fd5b600061356588828901613483565b955050602086013567ffffffffffffffff81111561358257600080fd5b61358e88828901613498565b945050604061359f88828901613483565b93505060606135b088828901613459565b92505060806135c188828901613501565b9150509295509295909350565b600080600080600080600060e0888a0312156135e957600080fd5b60006135f78a828b01613483565b97505060206136088a828b016134c2565b965050604088013567ffffffffffffffff81111561362557600080fd5b6136318a828b01613498565b95505060606136428a828b016134ec565b94505060806136538a828b016134ec565b93505060a06136648a828b01613483565b92505060c06136758a828b01613483565b91505092959891949750929550565b60006020828403121561369657600080fd5b60006136a4848285016134d7565b91505092915050565b600080604083850312156136c057600080fd5b60006136ce858286016134d7565b92505060206136df85828601613444565b9150509250929050565b6000806000606084860312156136fe57600080fd5b600061370c868287016134d7565b935050602061371d8682870161346e565b925050604061372e8682870161346e565b9150509250925092565b6000806040838503121561374b57600080fd5b6000613759858286016134d7565b925050602061376a858286016134d7565b9150509250929050565b60008060006060848603121561378957600080fd5b6000613797868287016134d7565b93505060206137a8868287016134d7565b92505060406137b98682870161346e565b9150509250925092565b60006137cf8383613987565b60208301905092915050565b60006137e78383613d93565b905092915050565b60006137fb8383613f40565b905092915050565b61380c81614708565b82525050565b61381b81614708565b82525050565b600061382c82614660565b61383681856146b3565b935061384183614630565b8060005b8381101561387257815161385988826137c3565b97506138648361468c565b925050600181019050613845565b5085935050505092915050565b600061388a8261466b565b61389481856146c4565b9350836020820285016138a685614640565b8060005b858110156138e257848403895281516138c385826137db565b94506138ce83614699565b925060208a019950506001810190506138aa565b50829750879550505050505092915050565b60006138ff82614676565b61390981856146d5565b93508360208202850161391b85614650565b8060005b85811015613957578484038952815161393885826137ef565b9450613943836146a6565b925060208a0199505060018101905061391f565b50829750879550505050505092915050565b6139728161471a565b82525050565b61398181614726565b82525050565b61399081614752565b82525050565b61399f81614752565b82525050565b6139ae8161475c565b82525050565b60006139bf82614681565b6139c981856146e6565b93506139d9818560208601614812565b6139e2816148d5565b840191505092915050565b60006139fa6015836146f7565b91507f42726964676520416464726573732075706461746500000000000000000000006000830152602082019050919050565b6000613a3a6026836146f7565b91507f4f776e61626c653a206e6577206f776e657220697320746865207a65726f206160008301527f64647265737300000000000000000000000000000000000000000000000000006020830152604082019050919050565b6000613aa06019836146f7565b91507f4c656769736c61746f72204164647265737320757064617465000000000000006000830152602082019050919050565b6000613ae0600c836146f7565b91507f416c657274206f6e2f6f666600000000000000000000000000000000000000006000830152602082019050919050565b6000613b20600f836146f7565b91507f436f6e7472616374206f6e2f6f666600000000000000000000000000000000006000830152602082019050919050565b6000613b60600b836146f7565b91507f4e657720736572766963650000000000000000000000000000000000000000006000830152602082019050919050565b6000613ba06010836146f7565b91507f4e657720436f6e66696720416c657274000000000000000000000000000000006000830152602082019050919050565b6000613be06014836146f7565b91507f4c656769737461746f72206e6f742076616c69640000000000000000000000006000830152602082019050919050565b6000613c206020836146f7565b91507f4f776e61626c653a2063616c6c6572206973206e6f7420746865206f776e65726000830152602082019050919050565b6000613c606011836146f7565b91507f53657276696365206e6f742065786973740000000000000000000000000000006000830152602082019050919050565b6000613ca0600e836146f7565b91507f53657276696365206f6e2f6f66660000000000000000000000000000000000006000830152602082019050919050565b6000613ce06011836146f7565b91507f436f6e7472616374206f6666206c696e650000000000000000000000000000006000830152602082019050919050565b6000613d206010836146f7565b91507f53657276696365206f6666206c696e65000000000000000000000000000000006000830152602082019050919050565b6000613d60600d836146f7565b91507f4163636573732064656e696564000000000000000000000000000000000000006000830152602082019050919050565b600061016083016000830151613dac60008601826139a5565b506020830151613dbf602086018261411e565b5060408301518482036040860152613dd782826139b4565b9150506060830151613dec6060860182613803565b506080830151613dff6080860182614169565b5060a0830151613e1260a0860182614169565b5060c0830151613e2560c08601826139a5565b5060e0830151613e3860e08601826139a5565b50610100830151613e4d610100860182613969565b50610120830151613e62610120860182613f24565b50610140830151613e77610140860182613f24565b508091505092915050565b61010082016000820151613e9960008501826139a5565b506020820151613eac602085018261415a565b506040820151613ebf6040850182614169565b506060820151613ed26060850182614169565b506080820151613ee56080850182613803565b5060a0820151613ef860a0850182613803565b5060c0820151613f0b60c0850182613803565b5060e0820151613f1e60e0850182613969565b50505050565b602082016000820151613f3a600085018261413c565b50505050565b600061016083016000830151613f5960008601826139a5565b506020830151613f6c60208601826139a5565b506040830151613f7f6040860182613978565b506060830151613f926060860182614178565b506080830151613fa56080860182613969565b5060a083015184820360a0860152613fbd82826139b4565b91505060c0830151613fd260c0860182613803565b5060e0830151613fe560e0860182613803565b50610100830151613ffa610100860182613803565b5061012083015161400f610120860182613f24565b50610140830151614024610140860182613f24565b508091505092915050565b60006101608301600083015161404860008601826139a5565b50602083015161405b60208601826139a5565b50604083015161406e6040860182613978565b5060608301516140816060860182614178565b5060808301516140946080860182613969565b5060a083015184820360a08601526140ac82826139b4565b91505060c08301516140c160c0860182613803565b5060e08301516140d460e0860182613803565b506101008301516140e9610100860182613803565b506101208301516140fe610120860182613f24565b50610140830151614113610140860182613f24565b508091505092915050565b61412781614788565b82525050565b614136816147f1565b82525050565b614145816147b6565b82525050565b614154816147b6565b82525050565b614163816147c0565b82525050565b614172816147d0565b82525050565b614181816147e4565b82525050565b600060208201905061419c6000830184613812565b92915050565b600060208201905081810360008301526141bc8184613821565b905092915050565b600060408201905081810360008301526141de8185613821565b905081810360208301526141f28184613821565b90509392505050565b60006020820190508181036000830152614215818461387f565b905092915050565b6000602082019050818103600083015261423781846138f4565b905092915050565b60006040820190506142546000830185613996565b6142616020830184613996565b9392505050565b6000602082019050818103600083015261428181613a2d565b9050919050565b600060408201905081810360008301526142a181613b13565b90506142b06020830184613812565b92915050565b600060408201905081810360008301526142cf81613b53565b90506142de6020830184613812565b92915050565b600060208201905081810360008301526142fd81613bd3565b9050919050565b6000602082019050818103600083015261431d81613c13565b9050919050565b6000602082019050818103600083015261433d81613c53565b9050919050565b6000602082019050818103600083015261435d81613cd3565b9050919050565b6000602082019050818103600083015261437d81613d13565b9050919050565b6000602082019050818103600083015261439d81613d53565b9050919050565b6000610100820190506143ba6000830184613e82565b92915050565b600060208201905081810360008301526143da818461402f565b905092915050565b60006080820190506143f7600083018661412d565b614404602083018561414b565b818103604083015261441581613b93565b90506144246060830184613812565b949350505050565b6000602082019050614441600083018461414b565b92915050565b600060808201905061445c600083018761414b565b6144696020830186613996565b6144766040830185613996565b6144836060830184613812565b95945050505050565b60006060820190506144a1600083018561414b565b81810360208301526144b2816139ed565b90506144c16040830184613812565b9392505050565b60006060820190506144dd600083018561414b565b81810360208301526144ee81613a93565b90506144fd6040830184613812565b9392505050565b6000606082019050614519600083018561414b565b818103602083015261452a81613c93565b90506145396040830184613812565b9392505050565b6000608082019050614555600083018761414b565b614562602083018661414b565b61456f6040830185613996565b61457c6060830184613812565b95945050505050565b600060808201905061459a600083018661414b565b6145a7602083018561414b565b81810360408301526145b881613ad3565b90506145c76060830184613812565b949350505050565b6000604051905081810181811067ffffffffffffffff821117156145f6576145f56148a6565b5b8060405250919050565b600067ffffffffffffffff82111561461b5761461a6148a6565b5b601f19601f8301169050602081019050919050565b6000819050602082019050919050565b6000819050602082019050919050565b6000819050602082019050919050565b600081519050919050565b600081519050919050565b600081519050919050565b600081519050919050565b6000602082019050919050565b6000602082019050919050565b6000602082019050919050565b600082825260208201905092915050565b600082825260208201905092915050565b600082825260208201905092915050565b600082825260208201905092915050565b600082825260208201905092915050565b600061471382614796565b9050919050565b60008115159050919050565b60007fff0000000000000000000000000000000000000000000000000000000000000082169050919050565b6000819050919050565b60007fffffffffffffffff00000000000000000000000000000000000000000000000082169050919050565b600061ffff82169050919050565b600073ffffffffffffffffffffffffffffffffffffffff82169050919050565b6000819050919050565b600063ffffffff82169050919050565b600067ffffffffffffffff82169050919050565b600060ff82169050919050565b60006147fc82614788565b9050919050565b82818337600083830152505050565b60005b83811015614830578082015181840152602081019050614815565b8381111561483f576000848401525b50505050565b6000600282049050600182168061485d57607f821691505b6020821081141561487157614870614877565b5b50919050565b7f4e487b7100000000000000000000000000000000000000000000000000000000600052602260045260246000fd5b7f4e487b7100000000000000000000000000000000000000000000000000000000600052604160045260246000fd5b6000601f19601f8301169050919050565b6148ef81614708565b81146148fa57600080fd5b50565b61490681614726565b811461491157600080fd5b50565b61491d81614752565b811461492857600080fd5b50565b6149348161475c565b811461493f57600080fd5b50565b61494b81614788565b811461495657600080fd5b50565b614962816147b6565b811461496d57600080fd5b50565b614979816147d0565b811461498457600080fd5b50565b614990816147e4565b811461499b57600080fd5b5056fea2646970667358221220760cbdbb04e28a1dffba316d0bf790a6f2b11e896125ccf6c2054f0db6ee3e7864736f6c63430008000033",
  "immutableReferences": {},
  "source": "// SPDX-License-Identifier: MIT\r\npragma solidity 0.8.0;\r\n\r\nimport \"../node_modules/@openzeppelin/contracts/utils/Counters.sol\";\r\nimport \"../node_modules/@openzeppelin/contracts/access/Ownable.sol\";\r\n\r\ncontract ClientContract is Ownable {\r\n    using Counters for Counters.Counter;\r\n    \r\n    // struct mesure en-tte (32) { \r\n    //   //V0.1     XX.XX.XX    00.01.00\r\n    //   Version : bytes8;\r\n    //   Date : YYYYmmddHHii : byte12\r\n    //   Code de mesure : bytes8 - CODE : 4 chiffre/lettre pour la nature physique - 4 chiffre/lettre pour la version\r\n    //   Code temporel : bytes1 (Horaire, Journalier) Y m d H i\r\n    //   Nb temporel : bytes3 \r\n    // }\r\n    \r\n    // struct mesure donne (32) { \r\n    //   Valeur 1 Max : bytes8\r\n    //   Valeur 2 Moyenne : bytes8\r\n    //   Valeur 3 Mdiane : bytes8\r\n    //   Valeur 4 Min : bytes8\r\n    // }\r\n\r\n    // struct alert donne (32) { \r\n    //   Version : bytes8\r\n    //   CodeAlert : bytes4    \r\n    //   Date : YYYYmmddHHii : byte12\r\n    //   Valeur alert : bytes8\r\n    // }\r\n\r\n    /**\r\n    * @dev Structure of Configuration\r\n    * @notice Version and status of activation\r\n    * @notice Link to other contract\r\n    */\r\n    struct Config {\r\n        bytes8 version;\r\n        uint32 clientId;\r\n        uint64 prevContractDate;\r\n        uint64 nextContractDate;\r\n        address customerAddress;\r\n        address prevContract;\r\n        address nextContract;\r\n        bool isActive;\r\n    }\r\n    \r\n    /**\r\n     * @dev Structure of Service\r\n     * @notice Feature_V2 \r\n     */\r\n    struct Service {\r\n        bytes8 version;\r\n        bytes8 measureType;\r\n        bytes1 timeCode;\r\n        uint8 nbTime;\r\n        bool isActive;\r\n        string description;\r\n        address bridgeAddress;\r\n        address techMasterAddress;\r\n        address legislatorAddress;\r\n\r\n        Counters.Counter measureIdCounter;\r\n        Counters.Counter IotIdCounter;     \r\n    }\r\n\r\n    /**\r\n     * @dev Structure of AlertConfig\r\n     * @notice Feature_V2 \r\n     */\r\n    struct AlertConfig {\r\n        bytes8 version;        \r\n        uint16 serviceId;\r\n        string description;   \r\n        address legislatorAddress;\r\n        uint64 dateOn;\r\n        uint64 dateOff;\r\n        bytes8 codeAlert;\r\n        bytes8 valueAlert;\r\n        bool isActive;\r\n\r\n        Counters.Counter alertConfigIdCounter;\r\n        Counters.Counter alertIdCounter;         \r\n    }\r\n\r\n    /**\r\n     * @dev Structure of Iot\r\n     * @notice Feature_V2 \r\n     */\r\n    struct Iot {\r\n        bytes6 mac;     \r\n        string description;\r\n        bool isActive;\r\n    }\r\n\r\n    modifier isAddressValid(address _addr){\r\n        require(_addr != address(0));\r\n        _;\r\n    }\r\n\r\n    modifier isContractActive() {\r\n        require(_myConfig.isActive, \"Contract off line\");\r\n        _;\r\n    }\r\n\r\n    modifier isServiceActive(uint _serviceId) {\r\n        require(_serviceId < _serviceIdCounter.current(), \"Service not exist\"); \r\n        require(_services[_serviceId].isActive, \"Service off line\"); \r\n        _;\r\n    }\r\n\r\n    modifier onlyCustomer() {\r\n        require (_myConfig.customerAddress == msg.sender || owner() ==  msg.sender, \"Access denied\");\r\n        _;\r\n    }\r\n\r\n    modifier onlyBridge(uint _serviceId) {\r\n        require (_services[_serviceId].bridgeAddress == msg.sender || owner() ==  msg.sender, \"Access denied\");\r\n        _;\r\n    }\r\n\r\n    modifier onlyTechMaster(uint _serviceId) {\r\n        require (_services[_serviceId].techMasterAddress == msg.sender || owner() ==  msg.sender, \"Access denied\");\r\n        _;\r\n    }\r\n\r\n    modifier onlyLegislator(uint _serviceId) {\r\n        require (_services[_serviceId].legislatorAddress == msg.sender || owner() ==  msg.sender, \"Access denied\");\r\n        _;\r\n    }\r\n\r\n    event MeasureReceive(uint _serviceId, bytes32 _header, bytes32 _body, address _author); \r\n    event AlertReceive(uint _serviceId, uint _alertConfigId, bytes32 _alert, address _author); \r\n    event ContractUpdate(string _message, address _author);      \r\n    event ServiceUpdate(uint _serviceId, string _message, address _author); \r\n    event ServiceElementUpdate(uint _serviceId, uint _id, string _message, address _author); \r\n               \r\n    Config private _myConfig;\r\n\r\n    Service[] private _services;\r\n    mapping(uint => bytes32[]) private _serviceHeaderMeasures;\r\n    mapping(uint => bytes32[]) private _serviceBodyMeasures;\r\n    mapping(uint => Iot[]) private _serviceMacIOT;\r\n    Counters.Counter public _serviceIdCounter;\r\n\r\n    AlertConfig[] private _serviceAlertConfig;\r\n    mapping(uint => bytes32[]) private _alerts; \r\n    Counters.Counter public _alertConfigIdCounter;\r\n \r\n    constructor (bytes8 _version, uint32 _clientId, address _customerAddress, address _prevContract, uint64 _prevContractDate) {\r\n        _myConfig = Config(\r\n            _version,\r\n            _clientId,\r\n            _prevContractDate,\r\n            0,\r\n            _customerAddress,\r\n            _prevContract,\r\n            address(0),\r\n            true\r\n        );\r\n        // TODO AJOUTER INSTANCE DU GRAND REGISTRE POUR POUVOIR Y ACCEDER SI NECESSAIRE\r\n    }\r\n\r\n    // CONFIG PART\r\n    \r\n    /**\r\n     * @dev get a Config\r\n     * @return config in memory\r\n     */\r\n    function getConfig() external view returns (Config memory) {\r\n        return _myConfig;\r\n    }\r\n\r\n    /**\r\n     * @dev toggle a Contract activation or deactivation\r\n     */\r\n    function toggleContract()\r\n        onlyOwner() external {\r\n        emit ContractUpdate(\"Contract on/off\", msg.sender);\r\n        _myConfig.isActive = !_myConfig.isActive;\r\n    }    \r\n\r\n    // SERVICE PART\r\n\r\n     /**\r\n     * @dev add a Service\r\n     * @param _version bytes8 version of service\r\n     * @param _description string description for the dApps interface\r\n     * @param _measureType bytes8 type of measure for the dApps interface\r\n     * @param _timeCode bytes1 time code for the dApps interface\r\n     * @param _nbTime uint8 number of times for the dApps interface\r\n     */\r\n    function addService(\r\n        bytes8 _version,   \r\n        string memory _description,\r\n        bytes8 _measureType,          \r\n        bytes1 _timeCode,\r\n        uint8 _nbTime) \r\n        onlyCustomer() isContractActive() external{\r\n      \r\n        Counters.Counter memory measureIdCounter;       \r\n        Counters.Counter memory IotIdCounter;    \r\n\r\n        _services.push(Service(\r\n        _version, \r\n        _measureType,  \r\n        _timeCode,    \r\n        _nbTime,   \r\n        true,                     \r\n        _description, \r\n        address(0),\r\n        address(0),\r\n        address(0),                     \r\n        measureIdCounter,\r\n        IotIdCounter));\r\n\r\n        emit ContractUpdate(\"New service\", msg.sender);\r\n\r\n        _serviceIdCounter.increment();\r\n    }  \r\n\r\n    /*\r\n    function _checkValidService(bytes8 _version, bytes8 _measureType, bytes1 _timeCode, uint8 _nbTime) \r\n        internal pure returns(bool _return){\r\n        // TODO LINK AU GRAND REGISTRE\r\n        // Eviter l'usage de type service dsactiv car n'tant plus pertinent\r\n        return true;       \r\n    }\r\n    */\r\n\r\n    /**\r\n     * @dev get a specific Service\r\n     * @param _serviceId index of service\r\n     * @return a specific service\r\n     */\r\n    function getOneService(\r\n        uint _serviceId) \r\n        external view returns(Service memory){   \r\n\r\n        return (_services[_serviceId]);\r\n    }\r\n\r\n    /**\r\n     * @dev get all Services\r\n     * @return an array of all the services\r\n     */\r\n    function getAllServices() \r\n        external view \r\n        returns(Service[] memory){    \r\n\r\n        return (_services);\r\n    }    \r\n\r\n    /**\r\n     * @dev toggle a Service activation or deactivation\r\n     * @param _serviceId index of service\r\n     */\r\n    function toggleService(\r\n        uint _serviceId)\r\n        onlyCustomer() external {\r\n\r\n        emit ServiceUpdate(_serviceId, \"Service on/off\", msg.sender);\r\n\r\n        _services[_serviceId].isActive = !_services[_serviceId].isActive;\r\n    }\r\n\r\n    /**\r\n     * @dev set a TechMasterAddress\r\n     * @param _serviceId index of service \r\n     * @param _techMasterAddress techMaster's address\r\n     */\r\n    function setTechMasterAddress(\r\n        uint _serviceId,\r\n        address _techMasterAddress)\r\n        isAddressValid(_techMasterAddress) isContractActive() isServiceActive(_serviceId) onlyOwner() external {  \r\n        \r\n        _services[_serviceId].techMasterAddress = _techMasterAddress;\r\n\r\n        emit ServiceUpdate(_serviceId, \"Bridge Address update\", msg.sender);\r\n    }     \r\n\r\n    /**\r\n     * @dev set a BridgeAdress\r\n     * @param _serviceId index of service\r\n     * @param _bridgeAddress bridge's address\r\n     */\r\n    function setBridgeAddress(\r\n        uint _serviceId,\r\n        address _bridgeAddress)\r\n        isAddressValid(_bridgeAddress) isContractActive() isServiceActive(_serviceId) onlyTechMaster(_serviceId) external {  \r\n        \r\n        _services[_serviceId].bridgeAddress = _bridgeAddress;\r\n\r\n        emit ServiceUpdate(_serviceId, \"Bridge Address update\", msg.sender);\r\n    }   \r\n\r\n    /**\r\n     * @dev set a LegislatorAddress\r\n     * @param _serviceId index of service \r\n     * @param _legislatorAddress legislator's address\r\n     */\r\n    function setLegislatorAddress(\r\n        uint _serviceId,\r\n        address _legislatorAddress)\r\n        isAddressValid(_legislatorAddress) isContractActive() isServiceActive(_serviceId) onlyCustomer() external {  \r\n        \r\n        require(_checkValidLegislator(_legislatorAddress) == true, \"Legistator not valid\");\r\n\r\n        _services[_serviceId].legislatorAddress = _legislatorAddress;\r\n\r\n        emit ServiceUpdate(_serviceId, \"Legislator Address update\", msg.sender);\r\n    }     \r\n\r\n    function _checkValidLegislator(\r\n        address _address) \r\n        internal view \r\n        returns(bool _return){\r\n\r\n        if(_address != msg.sender)\r\n            return true;\r\n        // TODO LINK AU GRAND REGISTRE\r\n        return true;       \r\n    }\r\n\r\n    // MEASURE PART\r\n\r\n    /**\r\n     * @dev add a Measure\r\n     * @param _serviceId index of service \r\n     * @param _measureHeader header of the measure\r\n     * @param _measurebody body of the measure\r\n     */\r\n    function addMeasure(\r\n        uint _serviceId,\r\n        bytes32 _measureHeader,\r\n        bytes32 _measurebody) \r\n        isContractActive() isServiceActive(_serviceId) onlyBridge(_serviceId) external {    \r\n        \r\n        _serviceHeaderMeasures[_serviceId].push(_measureHeader);\r\n        _serviceBodyMeasures[_serviceId].push(_measurebody);\r\n        \r\n        _services[_serviceId].measureIdCounter.increment();\r\n\r\n        emit MeasureReceive(_serviceId, _measureHeader, _measurebody, msg.sender);\r\n    }\r\n\r\n    /**\r\n     * @dev get all Measures\r\n     * @param _serviceId index of service \r\n     * @return an array of all the services\r\n     */\r\n    function getAllMeasures(\r\n        uint _serviceId) \r\n        external view \r\n        returns(\r\n            bytes32[] memory,\r\n            bytes32[] memory){\r\n              \r\n        return (_serviceHeaderMeasures[_serviceId], _serviceBodyMeasures[_serviceId]);\r\n    }\r\n\r\n    /**\r\n     * @dev get a specific measure by id\r\n     * @param _serviceId index of service \r\n     * @param _measureId index of service \r\n     * @return the specific measure header and body\r\n     */    \r\n    function getMeasuresById(\r\n        uint _serviceId,\r\n        uint _measureId) \r\n        external view returns(\r\n            bytes32,\r\n            bytes32){\r\n              \r\n        return (_serviceHeaderMeasures[_serviceId][_measureId], _serviceBodyMeasures[_serviceId][_measureId]);\r\n    }  \r\n\r\n    // ALERT CONFIG PART\r\n\r\n    /**\r\n     * @dev add a fondation's alert config\r\n     * @param _serviceId index of service \r\n     * @param _version service's version\r\n     * @param _description alert config description \r\n     * @param _dateOn alert's starting date\r\n     * @param _dateOff alert's ending date\r\n     * @param _codeAlert alert's code\r\n     * @param _valueAlert alert's value\r\n     */\r\n    function addAlertConfig(\r\n        bytes8 _version,   \r\n        uint16 _serviceId,        \r\n        string memory _description,  \r\n        uint64 _dateOn,\r\n        uint64 _dateOff,\r\n        bytes8 _codeAlert,\r\n        bytes8 _valueAlert)\r\n        external {\r\n\r\n        address _legislatorAddress = msg.sender;\r\n\r\n        // TODO Penser  fermer la porte !!\r\n        // TODO Penser a vrifier que le service existe\r\n        \r\n        Counters.Counter memory alertConfigIdCounter;\r\n        Counters.Counter memory alertIdCounter;\r\n\r\n        _serviceAlertConfig.push(AlertConfig(\r\n            _version,  \r\n            _serviceId,  \r\n            _description,      \r\n            _legislatorAddress,\r\n            _dateOn,\r\n            _dateOff,\r\n            _codeAlert,\r\n            _valueAlert,\r\n            true,\r\n            alertConfigIdCounter,\r\n            alertIdCounter\r\n        ));\r\n\r\n        emit ServiceElementUpdate(_serviceId, _alertConfigIdCounter.current(), \"New Config Alert\", msg.sender);\r\n\r\n        _alertConfigIdCounter.increment();\r\n    }\r\n\r\n    /**\r\n     * @dev get all alert configs\r\n     */\r\n    function getAllAlertConfigs() \r\n        external view \r\n        returns(AlertConfig[] memory){\r\n              \r\n        return (_serviceAlertConfig);\r\n    }\r\n\r\n    /**\r\n     * @dev toggle an alert config\r\n     * @param _alertConfigId index of the alert config\r\n     */\r\n    function toggleAlertConfig(uint _alertConfigId) \r\n        external {\r\n\r\n        require ((msg.sender == _serviceAlertConfig[_alertConfigId].legislatorAddress) || (msg.sender == owner()));\r\n\r\n        uint _serviceId = _serviceAlertConfig[_alertConfigId].serviceId;\r\n\r\n        emit ServiceElementUpdate(_serviceId, _alertConfigId, \"Alert on/off\", msg.sender);\r\n\r\n        _serviceAlertConfig[_alertConfigId].isActive = !_serviceAlertConfig[_alertConfigId].isActive;\r\n    }       \r\n\r\n    // ALERTS PART\r\n\r\n    /**\r\n     * @dev add an alert\r\n     * @param _serviceId index of service \r\n     * @param _alertBody alert's body\r\n     */    \r\n    function addAlert(\r\n        uint _serviceId,\r\n        uint _alertConfigId,\r\n        bytes32 _alertBody) \r\n        isContractActive() isServiceActive(_serviceId) onlyBridge(_serviceId) external {         \r\n                   \r\n        _alerts[_alertConfigId].push(_alertBody);\r\n        _serviceAlertConfig[_alertConfigId].alertIdCounter.increment();\r\n\r\n        emit AlertReceive(_serviceId, _alertConfigId, _alertBody, msg.sender);\r\n    }\r\n\r\n    /**\r\n     * @dev get all alerts of a specific alerteConfig\r\n     * @param _alertConfigId index of alerteConfig \r\n     */  \r\n    function getAlerts(\r\n        uint _alertConfigId) \r\n        external view \r\n        returns(bytes32[] memory){\r\n            \r\n        return (_alerts[_alertConfigId]);        \r\n    }\r\n\r\n    // SERVICE IOT\r\n\r\n    // /**\r\n    //  * @dev add a sensor to the list\r\n    //  * @param _serviceId index of service\r\n    //  * @param _macAddress sensor's mac address\r\n    //  * @param _description sensor's description\r\n    //  */      \r\n    // function addIot(\r\n    //     uint _serviceId,\r\n    //     bytes6 _macAddress,\r\n    //     string memory _description) \r\n    //     isContractActive() isServiceActive(_serviceId) onlyTechMaster(_serviceId) external {  \r\n    //         _serviceMacIOT[_serviceId].push(Iot(\r\n    //             _macAddress,    \r\n    //             _description,      \r\n    //             true\r\n    //         ));\r\n\r\n    //     emit ServiceElementUpdate(_serviceId, _services[_serviceId].IotIdCounter.current(), \"Iot added\", msg.sender); \r\n\r\n    //     _services[_serviceId].IotIdCounter.increment();   \r\n    // }\r\n\r\n    // // /**\r\n    // //  * @dev get a specific sensor\r\n    // //  * @param _serviceId index of service\r\n    // //  * @return get a specific sensor by Id\r\n    // //  */ \r\n    // // function getIot(\r\n    // //     uint _serviceId) \r\n    // //     external view \r\n    //     returns(Iot[] memory) {\r\n              \r\n    //     return (_serviceMacIOT[_serviceId]);\r\n    // }\r\n\r\n    // /**\r\n    //  * @dev toggle a sensor activation or deactivation\r\n    //  * @param _serviceId index of service\r\n    //  * @param _iotId index of sensor\r\n    //  */     \r\n    // function toggleIOT(\r\n    //     uint _serviceId,\r\n    //     uint _iotId) \r\n    //     isContractActive() isServiceActive(_serviceId) onlyTechMaster(_serviceId) external {  \r\n    //     emit ServiceElementUpdate(_serviceId, _iotId, \"Iot on/off\", msg.sender);\r\n\r\n    //     _serviceMacIOT[_serviceId][_iotId].isActive = !_serviceMacIOT[_serviceId][_iotId].isActive;\r\n    // }\r\n\r\n}\r\n",
  "sourcePath": "C:/Users/danie/Desktop/Solidity/Projet final/eco-capt/contracts/ClientContract.sol",
  "compiler": {
    "name": "solc",
    "version": "0.8.0+commit.c7dfd78e.Emscripten.clang"
  },
  "schemaVersion": "3.3.4",
  "updatedAt": "2021-04-18T13:16:36.097Z",
  "networkType": "ethereum",
  "devdoc": {
    "kind": "dev",
    "methods": {
      "addAlert(uint256,uint256,bytes32)": {
        "details": "add an alert",
        "params": {
          "_alertBody": "alert's body",
          "_serviceId": "index of service "
        }
      },
      "addAlertConfig(bytes8,uint16,string,uint64,uint64,bytes8,bytes8)": {
        "details": "add a fondation's alert config",
        "params": {
          "_codeAlert": "alert's code",
          "_dateOff": "alert's ending date",
          "_dateOn": "alert's starting date",
          "_description": "alert config description ",
          "_serviceId": "index of service ",
          "_valueAlert": "alert's value",
          "_version": "service's version"
        }
      },
      "addMeasure(uint256,bytes32,bytes32)": {
        "details": "add a Measure",
        "params": {
          "_measureHeader": "header of the measure",
          "_measurebody": "body of the measure",
          "_serviceId": "index of service "
        }
      },
      "addService(bytes8,string,bytes8,bytes1,uint8)": {
        "details": "add a Service",
        "params": {
          "_description": "string description for the dApps interface",
          "_measureType": "bytes8 type of measure for the dApps interface",
          "_nbTime": "uint8 number of times for the dApps interface",
          "_timeCode": "bytes1 time code for the dApps interface",
          "_version": "bytes8 version of service"
        }
      },
      "getAlerts(uint256)": {
        "details": "get all alerts of a specific alerteConfig",
        "params": {
          "_alertConfigId": "index of alerteConfig "
        }
      },
      "getAllAlertConfigs()": {
        "details": "get all alert configs"
      },
      "getAllMeasures(uint256)": {
        "details": "get all Measures",
        "params": {
          "_serviceId": "index of service "
        },
        "returns": {
          "_0": "an array of all the services"
        }
      },
      "getAllServices()": {
        "details": "get all Services",
        "returns": {
          "_0": "an array of all the services"
        }
      },
      "getConfig()": {
        "details": "get a Config",
        "returns": {
          "_0": "config in memory"
        }
      },
      "getMeasuresById(uint256,uint256)": {
        "details": "get a specific measure by id",
        "params": {
          "_measureId": "index of service ",
          "_serviceId": "index of service "
        },
        "returns": {
          "_0": "the specific measure header and body"
        }
      },
      "getOneService(uint256)": {
        "details": "get a specific Service",
        "params": {
          "_serviceId": "index of service"
        },
        "returns": {
          "_0": "a specific service"
        }
      },
      "owner()": {
        "details": "Returns the address of the current owner."
      },
      "renounceOwnership()": {
        "details": "Leaves the contract without owner. It will not be possible to call `onlyOwner` functions anymore. Can only be called by the current owner. NOTE: Renouncing ownership will leave the contract without an owner, thereby removing any functionality that is only available to the owner."
      },
      "setBridgeAddress(uint256,address)": {
        "details": "set a BridgeAdress",
        "params": {
          "_bridgeAddress": "bridge's address",
          "_serviceId": "index of service"
        }
      },
      "setLegislatorAddress(uint256,address)": {
        "details": "set a LegislatorAddress",
        "params": {
          "_legislatorAddress": "legislator's address",
          "_serviceId": "index of service "
        }
      },
      "setTechMasterAddress(uint256,address)": {
        "details": "set a TechMasterAddress",
        "params": {
          "_serviceId": "index of service ",
          "_techMasterAddress": "techMaster's address"
        }
      },
      "toggleAlertConfig(uint256)": {
        "details": "toggle an alert config",
        "params": {
          "_alertConfigId": "index of the alert config"
        }
      },
      "toggleContract()": {
        "details": "toggle a Contract activation or deactivation"
      },
      "toggleService(uint256)": {
        "details": "toggle a Service activation or deactivation",
        "params": {
          "_serviceId": "index of service"
        }
      },
      "transferOwnership(address)": {
        "details": "Transfers ownership of the contract to a new account (`newOwner`). Can only be called by the current owner."
      }
    },
    "version": 1
  },
  "userdoc": {
    "kind": "user",
    "methods": {},
    "version": 1
  }
}