{
  "contractName": "ClientContract",
  "abi": [
    {
      "inputs": [
        {
          "internalType": "bytes8",
          "name": "_version",
          "type": "bytes8"
        },
        {
          "internalType": "address",
          "name": "_customerAddress",
          "type": "address"
        },
        {
          "internalType": "address",
          "name": "_prevContract",
          "type": "address"
        },
        {
          "internalType": "uint64",
          "name": "_prevContractDate",
          "type": "uint64"
        }
      ],
      "stateMutability": "nonpayable",
      "type": "constructor"
    },
    {
      "anonymous": false,
      "inputs": [
        {
          "indexed": false,
          "internalType": "uint256",
          "name": "_service_id",
          "type": "uint256"
        },
        {
          "indexed": false,
          "internalType": "bytes32",
          "name": "_alert",
          "type": "bytes32"
        },
        {
          "indexed": false,
          "internalType": "address",
          "name": "_author",
          "type": "address"
        }
      ],
      "name": "AlertReceive",
      "type": "event"
    },
    {
      "anonymous": false,
      "inputs": [
        {
          "indexed": false,
          "internalType": "string",
          "name": "message",
          "type": "string"
        },
        {
          "indexed": false,
          "internalType": "address",
          "name": "_author",
          "type": "address"
        }
      ],
      "name": "ContractUpdate",
      "type": "event"
    },
    {
      "anonymous": false,
      "inputs": [
        {
          "indexed": false,
          "internalType": "uint256",
          "name": "_service_id",
          "type": "uint256"
        },
        {
          "indexed": false,
          "internalType": "bytes32",
          "name": "_header",
          "type": "bytes32"
        },
        {
          "indexed": false,
          "internalType": "bytes32",
          "name": "_body",
          "type": "bytes32"
        },
        {
          "indexed": false,
          "internalType": "address",
          "name": "_author",
          "type": "address"
        }
      ],
      "name": "MeasureReceive",
      "type": "event"
    },
    {
      "anonymous": false,
      "inputs": [
        {
          "indexed": true,
          "internalType": "address",
          "name": "previousOwner",
          "type": "address"
        },
        {
          "indexed": true,
          "internalType": "address",
          "name": "newOwner",
          "type": "address"
        }
      ],
      "name": "OwnershipTransferred",
      "type": "event"
    },
    {
      "anonymous": false,
      "inputs": [
        {
          "indexed": false,
          "internalType": "uint256",
          "name": "_service_id",
          "type": "uint256"
        },
        {
          "indexed": false,
          "internalType": "string",
          "name": "message",
          "type": "string"
        },
        {
          "indexed": false,
          "internalType": "address",
          "name": "_author",
          "type": "address"
        }
      ],
      "name": "ServiceUpdate",
      "type": "event"
    },
    {
      "inputs": [],
      "name": "owner",
      "outputs": [
        {
          "internalType": "address",
          "name": "",
          "type": "address"
        }
      ],
      "stateMutability": "view",
      "type": "function",
      "constant": true
    },
    {
      "inputs": [],
      "name": "renounceOwnership",
      "outputs": [],
      "stateMutability": "nonpayable",
      "type": "function"
    },
    {
      "inputs": [
        {
          "internalType": "address",
          "name": "newOwner",
          "type": "address"
        }
      ],
      "name": "transferOwnership",
      "outputs": [],
      "stateMutability": "nonpayable",
      "type": "function"
    },
    {
      "inputs": [
        {
          "internalType": "bytes8",
          "name": "_version",
          "type": "bytes8"
        },
        {
          "internalType": "string",
          "name": "_description",
          "type": "string"
        },
        {
          "internalType": "bytes8",
          "name": "_measureType",
          "type": "bytes8"
        },
        {
          "internalType": "bytes1",
          "name": "_timeCode",
          "type": "bytes1"
        },
        {
          "internalType": "uint8",
          "name": "_nbTime",
          "type": "uint8"
        }
      ],
      "name": "addService",
      "outputs": [],
      "stateMutability": "nonpayable",
      "type": "function"
    },
    {
      "inputs": [],
      "name": "toogleContract",
      "outputs": [],
      "stateMutability": "nonpayable",
      "type": "function"
    },
    {
      "inputs": [
        {
          "internalType": "uint256",
          "name": "_serviceId",
          "type": "uint256"
        }
      ],
      "name": "toogleService",
      "outputs": [],
      "stateMutability": "nonpayable",
      "type": "function"
    },
    {
      "inputs": [
        {
          "internalType": "uint256",
          "name": "_serviceId",
          "type": "uint256"
        },
        {
          "internalType": "address",
          "name": "_techMasterAddress",
          "type": "address"
        }
      ],
      "name": "setTechMasterAddress",
      "outputs": [],
      "stateMutability": "nonpayable",
      "type": "function"
    },
    {
      "inputs": [
        {
          "internalType": "uint256",
          "name": "_serviceId",
          "type": "uint256"
        },
        {
          "internalType": "address",
          "name": "_bridgeAddress",
          "type": "address"
        }
      ],
      "name": "setBridgeAddress",
      "outputs": [],
      "stateMutability": "nonpayable",
      "type": "function"
    },
    {
      "inputs": [
        {
          "internalType": "uint256",
          "name": "_serviceId",
          "type": "uint256"
        },
        {
          "internalType": "address",
          "name": "_legislatorAddress",
          "type": "address"
        }
      ],
      "name": "setLegislatorAddress",
      "outputs": [],
      "stateMutability": "nonpayable",
      "type": "function"
    },
    {
      "inputs": [
        {
          "internalType": "uint256",
          "name": "_serviceId",
          "type": "uint256"
        }
      ],
      "name": "getOneService",
      "outputs": [
        {
          "components": [
            {
              "internalType": "bytes8",
              "name": "version",
              "type": "bytes8"
            },
            {
              "internalType": "bytes8",
              "name": "measureType",
              "type": "bytes8"
            },
            {
              "internalType": "bytes1",
              "name": "timeCode",
              "type": "bytes1"
            },
            {
              "internalType": "uint8",
              "name": "nbTime",
              "type": "uint8"
            },
            {
              "internalType": "bool",
              "name": "isActive",
              "type": "bool"
            },
            {
              "internalType": "string",
              "name": "description",
              "type": "string"
            },
            {
              "internalType": "address",
              "name": "bridgeAddress",
              "type": "address"
            },
            {
              "internalType": "address",
              "name": "techMasterAddress",
              "type": "address"
            },
            {
              "internalType": "address",
              "name": "legislatorAddress",
              "type": "address"
            },
            {
              "components": [
                {
                  "internalType": "uint256",
                  "name": "_value",
                  "type": "uint256"
                }
              ],
              "internalType": "struct Counters.Counter",
              "name": "alertConfigIdCounter",
              "type": "tuple"
            },
            {
              "components": [
                {
                  "internalType": "uint256",
                  "name": "_value",
                  "type": "uint256"
                }
              ],
              "internalType": "struct Counters.Counter",
              "name": "alertIdCounter",
              "type": "tuple"
            },
            {
              "components": [
                {
                  "internalType": "uint256",
                  "name": "_value",
                  "type": "uint256"
                }
              ],
              "internalType": "struct Counters.Counter",
              "name": "measureIdCounter",
              "type": "tuple"
            }
          ],
          "internalType": "struct ClientContract.Service",
          "name": "",
          "type": "tuple"
        }
      ],
      "stateMutability": "view",
      "type": "function",
      "constant": true
    },
    {
      "inputs": [],
      "name": "getAllServices",
      "outputs": [
        {
          "components": [
            {
              "internalType": "bytes8",
              "name": "version",
              "type": "bytes8"
            },
            {
              "internalType": "bytes8",
              "name": "measureType",
              "type": "bytes8"
            },
            {
              "internalType": "bytes1",
              "name": "timeCode",
              "type": "bytes1"
            },
            {
              "internalType": "uint8",
              "name": "nbTime",
              "type": "uint8"
            },
            {
              "internalType": "bool",
              "name": "isActive",
              "type": "bool"
            },
            {
              "internalType": "string",
              "name": "description",
              "type": "string"
            },
            {
              "internalType": "address",
              "name": "bridgeAddress",
              "type": "address"
            },
            {
              "internalType": "address",
              "name": "techMasterAddress",
              "type": "address"
            },
            {
              "internalType": "address",
              "name": "legislatorAddress",
              "type": "address"
            },
            {
              "components": [
                {
                  "internalType": "uint256",
                  "name": "_value",
                  "type": "uint256"
                }
              ],
              "internalType": "struct Counters.Counter",
              "name": "alertConfigIdCounter",
              "type": "tuple"
            },
            {
              "components": [
                {
                  "internalType": "uint256",
                  "name": "_value",
                  "type": "uint256"
                }
              ],
              "internalType": "struct Counters.Counter",
              "name": "alertIdCounter",
              "type": "tuple"
            },
            {
              "components": [
                {
                  "internalType": "uint256",
                  "name": "_value",
                  "type": "uint256"
                }
              ],
              "internalType": "struct Counters.Counter",
              "name": "measureIdCounter",
              "type": "tuple"
            }
          ],
          "internalType": "struct ClientContract.Service[]",
          "name": "",
          "type": "tuple[]"
        }
      ],
      "stateMutability": "view",
      "type": "function",
      "constant": true
    },
    {
      "inputs": [
        {
          "internalType": "uint256",
          "name": "_serviceId",
          "type": "uint256"
        },
        {
          "internalType": "bytes32",
          "name": "_measureHeader",
          "type": "bytes32"
        },
        {
          "internalType": "bytes32",
          "name": "_measurebody",
          "type": "bytes32"
        }
      ],
      "name": "addMeasure",
      "outputs": [],
      "stateMutability": "nonpayable",
      "type": "function"
    },
    {
      "inputs": [
        {
          "internalType": "uint256",
          "name": "_serviceId",
          "type": "uint256"
        }
      ],
      "name": "getAllMeasures",
      "outputs": [
        {
          "internalType": "bytes32[]",
          "name": "",
          "type": "bytes32[]"
        },
        {
          "internalType": "bytes32[]",
          "name": "",
          "type": "bytes32[]"
        }
      ],
      "stateMutability": "view",
      "type": "function",
      "constant": true
    },
    {
      "inputs": [
        {
          "internalType": "uint256",
          "name": "_serviceId",
          "type": "uint256"
        },
        {
          "internalType": "uint256",
          "name": "_measureId",
          "type": "uint256"
        }
      ],
      "name": "getMeasuresById",
      "outputs": [
        {
          "internalType": "bytes32",
          "name": "",
          "type": "bytes32"
        },
        {
          "internalType": "bytes32",
          "name": "",
          "type": "bytes32"
        }
      ],
      "stateMutability": "view",
      "type": "function",
      "constant": true
    },
    {
      "inputs": [
        {
          "internalType": "uint256",
          "name": "_serviceId",
          "type": "uint256"
        },
        {
          "internalType": "bytes8",
          "name": "_version",
          "type": "bytes8"
        },
        {
          "internalType": "string",
          "name": "_description",
          "type": "string"
        },
        {
          "internalType": "uint64",
          "name": "_dateOn",
          "type": "uint64"
        },
        {
          "internalType": "uint64",
          "name": "_dateOff",
          "type": "uint64"
        },
        {
          "internalType": "bytes8",
          "name": "_codeAlert",
          "type": "bytes8"
        },
        {
          "internalType": "bytes8",
          "name": "_valueAlert",
          "type": "bytes8"
        }
      ],
      "name": "addAlertConfigCustomer",
      "outputs": [],
      "stateMutability": "nonpayable",
      "type": "function"
    },
    {
      "inputs": [
        {
          "internalType": "uint256",
          "name": "_serviceId",
          "type": "uint256"
        },
        {
          "internalType": "bytes8",
          "name": "_version",
          "type": "bytes8"
        },
        {
          "internalType": "string",
          "name": "_description",
          "type": "string"
        },
        {
          "internalType": "uint64",
          "name": "_dateOn",
          "type": "uint64"
        },
        {
          "internalType": "uint64",
          "name": "_dateOff",
          "type": "uint64"
        },
        {
          "internalType": "bytes8",
          "name": "_codeAlert",
          "type": "bytes8"
        },
        {
          "internalType": "bytes8",
          "name": "_valueAlert",
          "type": "bytes8"
        }
      ],
      "name": "addAlertConfigLegislator",
      "outputs": [],
      "stateMutability": "nonpayable",
      "type": "function"
    },
    {
      "inputs": [
        {
          "internalType": "uint256",
          "name": "_serviceId",
          "type": "uint256"
        }
      ],
      "name": "getAllAlertConfigs",
      "outputs": [
        {
          "components": [
            {
              "internalType": "bytes8",
              "name": "version",
              "type": "bytes8"
            },
            {
              "internalType": "string",
              "name": "description",
              "type": "string"
            },
            {
              "internalType": "address",
              "name": "legislatorAddress",
              "type": "address"
            },
            {
              "internalType": "uint64",
              "name": "dateOn",
              "type": "uint64"
            },
            {
              "internalType": "uint64",
              "name": "dateOff",
              "type": "uint64"
            },
            {
              "internalType": "bytes8",
              "name": "codeAlert",
              "type": "bytes8"
            },
            {
              "internalType": "bytes8",
              "name": "valueAlert",
              "type": "bytes8"
            },
            {
              "internalType": "bool",
              "name": "isActive",
              "type": "bool"
            }
          ],
          "internalType": "struct ClientContract.AlertConfig[]",
          "name": "",
          "type": "tuple[]"
        }
      ],
      "stateMutability": "view",
      "type": "function",
      "constant": true
    },
    {
      "inputs": [
        {
          "internalType": "uint256",
          "name": "_serviceId",
          "type": "uint256"
        },
        {
          "internalType": "bytes32",
          "name": "_alertBody",
          "type": "bytes32"
        }
      ],
      "name": "addAlert",
      "outputs": [],
      "stateMutability": "nonpayable",
      "type": "function"
    },
    {
      "inputs": [
        {
          "internalType": "uint256",
          "name": "_serviceId",
          "type": "uint256"
        }
      ],
      "name": "getAlerts",
      "outputs": [
        {
          "internalType": "bytes32[]",
          "name": "",
          "type": "bytes32[]"
        }
      ],
      "stateMutability": "view",
      "type": "function",
      "constant": true
    }
  ],
  "bytecode": "0x60806040523480156200001157600080fd5b5060405162004a8f38038062004a8f833981810160405281019062000037919062000367565b6000620000496200031a60201b60201c565b9050806000806101000a81548173ffffffffffffffffffffffffffffffffffffffff021916908373ffffffffffffffffffffffffffffffffffffffff1602179055508073ffffffffffffffffffffffffffffffffffffffff16600073ffffffffffffffffffffffffffffffffffffffff167f8be0079c531659141344cd1fd0a4f28419497f9722a3daafe3b4186f6b6457e060405160405180910390a3506040518060e001604052808577ffffffffffffffffffffffffffffffffffffffffffffffff191681526020018267ffffffffffffffff168152602001600067ffffffffffffffff1681526020018473ffffffffffffffffffffffffffffffffffffffff1681526020018373ffffffffffffffffffffffffffffffffffffffff168152602001600073ffffffffffffffffffffffffffffffffffffffff16815260200160011515815250600160008201518160000160006101000a81548167ffffffffffffffff021916908360c01c021790555060208201518160000160086101000a81548167ffffffffffffffff021916908367ffffffffffffffff16021790555060408201518160000160106101000a81548167ffffffffffffffff021916908367ffffffffffffffff16021790555060608201518160010160006101000a81548173ffffffffffffffffffffffffffffffffffffffff021916908373ffffffffffffffffffffffffffffffffffffffff16021790555060808201518160020160006101000a81548173ffffffffffffffffffffffffffffffffffffffff021916908373ffffffffffffffffffffffffffffffffffffffff16021790555060a08201518160030160006101000a81548173ffffffffffffffffffffffffffffffffffffffff021916908373ffffffffffffffffffffffffffffffffffffffff16021790555060c08201518160030160146101000a81548160ff0219169083151502179055509050505050505062000495565b600033905090565b600081519050620003338162000447565b92915050565b6000815190506200034a8162000461565b92915050565b60008151905062000361816200047b565b92915050565b600080600080608085870312156200037e57600080fd5b60006200038e8782880162000339565b9450506020620003a18782880162000322565b9350506040620003b48782880162000322565b9250506060620003c78782880162000350565b91505092959194509250565b6000620003e08262000413565b9050919050565b60007fffffffffffffffff00000000000000000000000000000000000000000000000082169050919050565b600073ffffffffffffffffffffffffffffffffffffffff82169050919050565b600067ffffffffffffffff82169050919050565b6200045281620003d3565b81146200045e57600080fd5b50565b6200046c81620003e7565b81146200047857600080fd5b50565b620004868162000433565b81146200049257600080fd5b50565b6145ea80620004a56000396000f3fe608060405234801561001057600080fd5b50600436106101215760003560e01c80638da5cb5b116100ad578063c8aae90c11610071578063c8aae90c146102de578063d3088f2b146102e8578063da6cd37614610318578063f2fde38b14610334578063f78302a61461035057610121565b80638da5cb5b14610250578063a5bf8d951461026e578063ae7157ab1461028a578063b2e733bf146102a6578063c18ec58c146102c257610121565b806336e1946c116100f457806336e1946c146101c15780634ad580f2146101dd5780634c6fdcc6146101f957806351f2c5ad14610215578063715018a61461024657610121565b806306566faa1461012657806317842b281461014257806321fe0f30146101725780632669167a14610190575b600080fd5b610140600480360381019061013b919061347a565b610380565b005b61015c60048036038101906101579190613451565b610696565b6040516101699190613eae565b60405180910390f35b61017a610701565b6040516101879190613f29565b60405180910390f35b6101aa60048036038101906101a591906135f7565b610a7c565b6040516101b8929190613f4b565b60405180910390f35b6101db60048036038101906101d69190613541565b610b36565b005b6101f760048036038101906101f29190613541565b610d56565b005b610213600480360381019061020e919061347a565b610fbe565b005b61022f600480360381019061022a9190613451565b611238565b60405161023d929190613ed0565b60405180910390f35b61024e61130e565b005b610258611448565b6040516102659190613e93565b60405180910390f35b61028860048036038101906102839190613451565b611471565b005b6102a4600480360381019061029f91906134b6565b6116d5565b005b6102c060048036038101906102bb91906134f2565b6119f0565b005b6102dc60048036038101906102d7919061347a565b611d48565b005b6102e6612015565b005b61030260048036038101906102fd9190613451565b61214f565b60405161030f919061409e565b60405180910390f35b610332600480360381019061032d91906133c2565b6124cd565b005b61034e60048036038101906103499190613399565b61295a565b005b61036a60048036038101906103659190613451565b612b03565b6040516103779190613f07565b60405180910390f35b600160030160149054906101000a900460ff166103d2576040517f08c379a00000000000000000000000000000000000000000000000000000000081526004016103c99061405e565b60405180910390fd5b816103dd6006612dc4565b811061041e576040517f08c379a000000000000000000000000000000000000000000000000000000000815260040161041590614010565b60405180910390fd5b60058181548110610458577f4e487b7100000000000000000000000000000000000000000000000000000000600052603260045260246000fd5b906000526020600020906008020160000160129054906101000a900460ff166104b6576040517f08c379a00000000000000000000000000000000000000000000000000000000081526004016104ad9061405e565b60405180910390fd5b823373ffffffffffffffffffffffffffffffffffffffff1660058281548110610508577f4e487b7100000000000000000000000000000000000000000000000000000000600052603260045260246000fd5b906000526020600020906008020160030160009054906101000a900473ffffffffffffffffffffffffffffffffffffffff1673ffffffffffffffffffffffffffffffffffffffff16148061058e57503373ffffffffffffffffffffffffffffffffffffffff16610576611448565b73ffffffffffffffffffffffffffffffffffffffff16145b6105cd576040517f08c379a00000000000000000000000000000000000000000000000000000000081526004016105c49061407e565b60405180910390fd5b8260058581548110610608577f4e487b7100000000000000000000000000000000000000000000000000000000600052603260045260246000fd5b906000526020600020906008020160020160006101000a81548173ffffffffffffffffffffffffffffffffffffffff021916908373ffffffffffffffffffffffffffffffffffffffff1602179055507f6eb54bb1fcbc8b072bc7be4d66f909b2316584cb9b6c49bfdb6504b9246a8481843360405161068892919061413c565b60405180910390a150505050565b6060600a60008381526020019081526020016000208054806020026020016040519081016040528092919081815260200182805480156106f557602002820191906000526020600020905b8154815260200190600101908083116106e1575b50505050509050919050565b60606005805480602002602001604051908101604052809291908181526020016000905b82821015610a735783829060005260206000209060080201604051806101800160405290816000820160009054906101000a900460c01b77ffffffffffffffffffffffffffffffffffffffffffffffff191677ffffffffffffffffffffffffffffffffffffffffffffffff191681526020016000820160089054906101000a900460c01b77ffffffffffffffffffffffffffffffffffffffffffffffff191677ffffffffffffffffffffffffffffffffffffffffffffffff191681526020016000820160109054906101000a900460f81b7effffffffffffffffffffffffffffffffffffffffffffffffffffffffffffff19167effffffffffffffffffffffffffffffffffffffffffffffffffffffffffffff191681526020016000820160119054906101000a900460ff1660ff1660ff1681526020016000820160129054906101000a900460ff1615151515815260200160018201805461088690614472565b80601f01602080910402602001604051908101604052809291908181526020018280546108b290614472565b80156108ff5780601f106108d4576101008083540402835291602001916108ff565b820191906000526020600020905b8154815290600101906020018083116108e257829003601f168201915b505050505081526020016002820160009054906101000a900473ffffffffffffffffffffffffffffffffffffffff1673ffffffffffffffffffffffffffffffffffffffff1673ffffffffffffffffffffffffffffffffffffffff1681526020016003820160009054906101000a900473ffffffffffffffffffffffffffffffffffffffff1673ffffffffffffffffffffffffffffffffffffffff1673ffffffffffffffffffffffffffffffffffffffff1681526020016004820160009054906101000a900473ffffffffffffffffffffffffffffffffffffffff1673ffffffffffffffffffffffffffffffffffffffff1673ffffffffffffffffffffffffffffffffffffffff168152602001600582016040518060200160405290816000820154815250508152602001600682016040518060200160405290816000820154815250508152602001600782016040518060200160405290816000820154815250508152505081526020019060010190610725565b50505050905090565b600080600860008581526020019081526020016000208381548110610aca577f4e487b7100000000000000000000000000000000000000000000000000000000600052603260045260246000fd5b9060005260206000200154600960008681526020019081526020016000208481548110610b20577f4e487b7100000000000000000000000000000000000000000000000000000000600052603260045260246000fd5b9060005260206000200154915091509250929050565b600160030160149054906101000a900460ff16610b88576040517f08c379a0000000000000000000000000000000000000000000000000000000008152600401610b7f9061405e565b60405180910390fd5b86610b936006612dc4565b8110610bd4576040517f08c379a0000000000000000000000000000000000000000000000000000000008152600401610bcb90614010565b60405180910390fd5b60058181548110610c0e577f4e487b7100000000000000000000000000000000000000000000000000000000600052603260045260246000fd5b906000526020600020906008020160000160129054906101000a900460ff16610c6c576040517f08c379a0000000000000000000000000000000000000000000000000000000008152600401610c639061405e565b60405180910390fd5b3373ffffffffffffffffffffffffffffffffffffffff166001800160009054906101000a900473ffffffffffffffffffffffffffffffffffffffff1673ffffffffffffffffffffffffffffffffffffffff161480610cfc57503373ffffffffffffffffffffffffffffffffffffffff16610ce4611448565b73ffffffffffffffffffffffffffffffffffffffff16145b610d3b576040517f08c379a0000000000000000000000000000000000000000000000000000000008152600401610d329061407e565b60405180910390fd5b610d4c888888600089898989612dd2565b5050505050505050565b600160030160149054906101000a900460ff16610da8576040517f08c379a0000000000000000000000000000000000000000000000000000000008152600401610d9f9061405e565b60405180910390fd5b86610db36006612dc4565b8110610df4576040517f08c379a0000000000000000000000000000000000000000000000000000000008152600401610deb90614010565b60405180910390fd5b60058181548110610e2e577f4e487b7100000000000000000000000000000000000000000000000000000000600052603260045260246000fd5b906000526020600020906008020160000160129054906101000a900460ff16610e8c576040517f08c379a0000000000000000000000000000000000000000000000000000000008152600401610e839061405e565b60405180910390fd5b873373ffffffffffffffffffffffffffffffffffffffff1660058281548110610ede577f4e487b7100000000000000000000000000000000000000000000000000000000600052603260045260246000fd5b906000526020600020906008020160040160009054906101000a900473ffffffffffffffffffffffffffffffffffffffff1673ffffffffffffffffffffffffffffffffffffffff161480610f6457503373ffffffffffffffffffffffffffffffffffffffff16610f4c611448565b73ffffffffffffffffffffffffffffffffffffffff16145b610fa3576040517f08c379a0000000000000000000000000000000000000000000000000000000008152600401610f9a9061407e565b60405180910390fd5b610fb3898989338a8a8a8a612dd2565b505050505050505050565b600160030160149054906101000a900460ff16611010576040517f08c379a00000000000000000000000000000000000000000000000000000000081526004016110079061405e565b60405180910390fd5b8161101b6006612dc4565b811061105c576040517f08c379a000000000000000000000000000000000000000000000000000000000815260040161105390614010565b60405180910390fd5b60058181548110611096577f4e487b7100000000000000000000000000000000000000000000000000000000600052603260045260246000fd5b906000526020600020906008020160000160129054906101000a900460ff166110f4576040517f08c379a00000000000000000000000000000000000000000000000000000000081526004016110eb9061405e565b60405180910390fd5b6110fc6130b8565b73ffffffffffffffffffffffffffffffffffffffff1661111a611448565b73ffffffffffffffffffffffffffffffffffffffff1614611170576040517f08c379a000000000000000000000000000000000000000000000000000000000815260040161116790613ff0565b60405180910390fd5b81600584815481106111ab577f4e487b7100000000000000000000000000000000000000000000000000000000600052603260045260246000fd5b906000526020600020906008020160030160006101000a81548173ffffffffffffffffffffffffffffffffffffffff021916908373ffffffffffffffffffffffffffffffffffffffff1602179055507f6eb54bb1fcbc8b072bc7be4d66f909b2316584cb9b6c49bfdb6504b9246a8481833360405161122b92919061413c565b60405180910390a1505050565b6060806008600084815260200190815260200160002060096000858152602001908152602001600020818054806020026020016040519081016040528092919081815260200182805480156112ac57602002820191906000526020600020905b815481526020019060010190808311611298575b50505050509150808054806020026020016040519081016040528092919081815260200182805480156112fe57602002820191906000526020600020905b8154815260200190600101908083116112ea575b5050505050905091509150915091565b6113166130b8565b73ffffffffffffffffffffffffffffffffffffffff16611334611448565b73ffffffffffffffffffffffffffffffffffffffff161461138a576040517f08c379a000000000000000000000000000000000000000000000000000000000815260040161138190613ff0565b60405180910390fd5b600073ffffffffffffffffffffffffffffffffffffffff1660008054906101000a900473ffffffffffffffffffffffffffffffffffffffff1673ffffffffffffffffffffffffffffffffffffffff167f8be0079c531659141344cd1fd0a4f28419497f9722a3daafe3b4186f6b6457e060405160405180910390a360008060006101000a81548173ffffffffffffffffffffffffffffffffffffffff021916908373ffffffffffffffffffffffffffffffffffffffff160217905550565b60008060009054906101000a900473ffffffffffffffffffffffffffffffffffffffff16905090565b3373ffffffffffffffffffffffffffffffffffffffff166001800160009054906101000a900473ffffffffffffffffffffffffffffffffffffffff1673ffffffffffffffffffffffffffffffffffffffff16148061150157503373ffffffffffffffffffffffffffffffffffffffff166114e9611448565b73ffffffffffffffffffffffffffffffffffffffff16145b611540576040517f08c379a00000000000000000000000000000000000000000000000000000000081526004016115379061407e565b60405180910390fd5b6005818154811061157a577f4e487b7100000000000000000000000000000000000000000000000000000000600052603260045260246000fd5b906000526020600020906008020160000160129054906101000a900460ff16156115dc577f6eb54bb1fcbc8b072bc7be4d66f909b2316584cb9b6c49bfdb6504b9246a848181336040516115cf9291906141b4565b60405180910390a1611616565b7f6eb54bb1fcbc8b072bc7be4d66f909b2316584cb9b6c49bfdb6504b9246a8481813360405161160d9291906141f0565b60405180910390a15b60058181548110611650577f4e487b7100000000000000000000000000000000000000000000000000000000600052603260045260246000fd5b906000526020600020906008020160000160129054906101000a900460ff1615600582815481106116aa577f4e487b7100000000000000000000000000000000000000000000000000000000600052603260045260246000fd5b906000526020600020906008020160000160126101000a81548160ff02191690831515021790555050565b600160030160149054906101000a900460ff16611727576040517f08c379a000000000000000000000000000000000000000000000000000000000815260040161171e9061405e565b60405180910390fd5b816117326006612dc4565b8110611773576040517f08c379a000000000000000000000000000000000000000000000000000000000815260040161176a90614010565b60405180910390fd5b600581815481106117ad577f4e487b7100000000000000000000000000000000000000000000000000000000600052603260045260246000fd5b906000526020600020906008020160000160129054906101000a900460ff1661180b576040517f08c379a00000000000000000000000000000000000000000000000000000000081526004016118029061405e565b60405180910390fd5b823373ffffffffffffffffffffffffffffffffffffffff166005828154811061185d577f4e487b7100000000000000000000000000000000000000000000000000000000600052603260045260246000fd5b906000526020600020906008020160020160009054906101000a900473ffffffffffffffffffffffffffffffffffffffff1673ffffffffffffffffffffffffffffffffffffffff1614806118e357503373ffffffffffffffffffffffffffffffffffffffff166118cb611448565b73ffffffffffffffffffffffffffffffffffffffff16145b611922576040517f08c379a00000000000000000000000000000000000000000000000000000000081526004016119199061407e565b60405180910390fd5b600a60008581526020019081526020016000208390806001815401808255809150506001900390600052602060002001600090919091909150556119af60058581548110611999577f4e487b7100000000000000000000000000000000000000000000000000000000600052603260045260246000fd5b90600052602060002090600802016006016130c0565b7f660173323a528f21b5848cb1a9d04cbe5dbc9633f2eb026cd33b16f7bd7af88e8484336040516119e2939291906140c0565b60405180910390a150505050565b600160030160149054906101000a900460ff16611a42576040517f08c379a0000000000000000000000000000000000000000000000000000000008152600401611a399061405e565b60405180910390fd5b82611a4d6006612dc4565b8110611a8e576040517f08c379a0000000000000000000000000000000000000000000000000000000008152600401611a8590614010565b60405180910390fd5b60058181548110611ac8577f4e487b7100000000000000000000000000000000000000000000000000000000600052603260045260246000fd5b906000526020600020906008020160000160129054906101000a900460ff16611b26576040517f08c379a0000000000000000000000000000000000000000000000000000000008152600401611b1d9061405e565b60405180910390fd5b833373ffffffffffffffffffffffffffffffffffffffff1660058281548110611b78577f4e487b7100000000000000000000000000000000000000000000000000000000600052603260045260246000fd5b906000526020600020906008020160020160009054906101000a900473ffffffffffffffffffffffffffffffffffffffff1673ffffffffffffffffffffffffffffffffffffffff161480611bfe57503373ffffffffffffffffffffffffffffffffffffffff16611be6611448565b73ffffffffffffffffffffffffffffffffffffffff16145b611c3d576040517f08c379a0000000000000000000000000000000000000000000000000000000008152600401611c349061407e565b60405180910390fd5b6008600086815260200190815260200160002084908060018154018082558091505060019003906000526020600020016000909190919091505560096000868152602001908152602001600020839080600181540180825580915050600190039060005260206000200160009091909190915055611d0460058681548110611cee577f4e487b7100000000000000000000000000000000000000000000000000000000600052603260045260246000fd5b90600052602060002090600802016007016130c0565b7f818366328240e2ab5877d5eed27c1f3803a716f5700034371e2e520c650f574585858533604051611d3994939291906140f7565b60405180910390a15050505050565b600160030160149054906101000a900460ff16611d9a576040517f08c379a0000000000000000000000000000000000000000000000000000000008152600401611d919061405e565b60405180910390fd5b81611da56006612dc4565b8110611de6576040517f08c379a0000000000000000000000000000000000000000000000000000000008152600401611ddd90614010565b60405180910390fd5b60058181548110611e20577f4e487b7100000000000000000000000000000000000000000000000000000000600052603260045260246000fd5b906000526020600020906008020160000160129054906101000a900460ff16611e7e576040517f08c379a0000000000000000000000000000000000000000000000000000000008152600401611e759061405e565b60405180910390fd5b3373ffffffffffffffffffffffffffffffffffffffff166001800160009054906101000a900473ffffffffffffffffffffffffffffffffffffffff1673ffffffffffffffffffffffffffffffffffffffff161480611f0e57503373ffffffffffffffffffffffffffffffffffffffff16611ef6611448565b73ffffffffffffffffffffffffffffffffffffffff16145b611f4d576040517f08c379a0000000000000000000000000000000000000000000000000000000008152600401611f449061407e565b60405180910390fd5b8160058481548110611f88577f4e487b7100000000000000000000000000000000000000000000000000000000600052603260045260246000fd5b906000526020600020906008020160040160006101000a81548173ffffffffffffffffffffffffffffffffffffffff021916908373ffffffffffffffffffffffffffffffffffffffff1602179055507f6eb54bb1fcbc8b072bc7be4d66f909b2316584cb9b6c49bfdb6504b9246a8481833360405161200892919061413c565b60405180910390a1505050565b61201d6130b8565b73ffffffffffffffffffffffffffffffffffffffff1661203b611448565b73ffffffffffffffffffffffffffffffffffffffff1614612091576040517f08c379a000000000000000000000000000000000000000000000000000000000815260040161208890613ff0565b60405180910390fd5b600160030160149054906101000a900460ff16156120e5577f74851bb416411c1b4cb986c13ce9b6a9e973e7948f03fc2e574ca42a6d3724d3336040516120d89190613fc2565b60405180910390a161211d565b7f74851bb416411c1b4cb986c13ce9b6a9e973e7948f03fc2e574ca42a6d3724d3336040516121149190614030565b60405180910390a15b600160030160149054906101000a900460ff1615600160030160146101000a81548160ff021916908315150217905550565b6121576130d6565b60058281548110612191577f4e487b7100000000000000000000000000000000000000000000000000000000600052603260045260246000fd5b9060005260206000209060080201604051806101800160405290816000820160009054906101000a900460c01b77ffffffffffffffffffffffffffffffffffffffffffffffff191677ffffffffffffffffffffffffffffffffffffffffffffffff191681526020016000820160089054906101000a900460c01b77ffffffffffffffffffffffffffffffffffffffffffffffff191677ffffffffffffffffffffffffffffffffffffffffffffffff191681526020016000820160109054906101000a900460f81b7effffffffffffffffffffffffffffffffffffffffffffffffffffffffffffff19167effffffffffffffffffffffffffffffffffffffffffffffffffffffffffffff191681526020016000820160119054906101000a900460ff1660ff1660ff1681526020016000820160129054906101000a900460ff161515151581526020016001820180546122e890614472565b80601f016020809104026020016040519081016040528092919081815260200182805461231490614472565b80156123615780601f1061233657610100808354040283529160200191612361565b820191906000526020600020905b81548152906001019060200180831161234457829003601f168201915b505050505081526020016002820160009054906101000a900473ffffffffffffffffffffffffffffffffffffffff1673ffffffffffffffffffffffffffffffffffffffff1673ffffffffffffffffffffffffffffffffffffffff1681526020016003820160009054906101000a900473ffffffffffffffffffffffffffffffffffffffff1673ffffffffffffffffffffffffffffffffffffffff1673ffffffffffffffffffffffffffffffffffffffff1681526020016004820160009054906101000a900473ffffffffffffffffffffffffffffffffffffffff1673ffffffffffffffffffffffffffffffffffffffff1673ffffffffffffffffffffffffffffffffffffffff16815260200160058201604051806020016040529081600082015481525050815260200160068201604051806020016040529081600082015481525050815260200160078201604051806020016040529081600082015481525050815250509050919050565b3373ffffffffffffffffffffffffffffffffffffffff166001800160009054906101000a900473ffffffffffffffffffffffffffffffffffffffff1673ffffffffffffffffffffffffffffffffffffffff16148061255d57503373ffffffffffffffffffffffffffffffffffffffff16612545611448565b73ffffffffffffffffffffffffffffffffffffffff16145b61259c576040517f08c379a00000000000000000000000000000000000000000000000000000000081526004016125939061407e565b60405180910390fd5b600160030160149054906101000a900460ff166125ee576040517f08c379a00000000000000000000000000000000000000000000000000000000081526004016125e59061405e565b60405180910390fd5b6125f66131e8565b6125fe6131e8565b6126066131e8565b60056040518061018001604052808a77ffffffffffffffffffffffffffffffffffffffffffffffff191681526020018877ffffffffffffffffffffffffffffffffffffffffffffffff19168152602001877effffffffffffffffffffffffffffffffffffffffffffffffffffffffffffff191681526020018660ff168152602001600115158152602001898152602001600073ffffffffffffffffffffffffffffffffffffffff168152602001600073ffffffffffffffffffffffffffffffffffffffff168152602001600073ffffffffffffffffffffffffffffffffffffffff16815260200185815260200183815260200184815250908060018154018082558091505060019003906000526020600020906008020160009091909190915060008201518160000160006101000a81548167ffffffffffffffff021916908360c01c021790555060208201518160000160086101000a81548167ffffffffffffffff021916908360c01c021790555060408201518160000160106101000a81548160ff021916908360f81c021790555060608201518160000160116101000a81548160ff021916908360ff16021790555060808201518160000160126101000a81548160ff02191690831515021790555060a08201518160010190805190602001906127f49291906131fb565b5060c08201518160020160006101000a81548173ffffffffffffffffffffffffffffffffffffffff021916908373ffffffffffffffffffffffffffffffffffffffff16021790555060e08201518160030160006101000a81548173ffffffffffffffffffffffffffffffffffffffff021916908373ffffffffffffffffffffffffffffffffffffffff1602179055506101008201518160040160006101000a81548173ffffffffffffffffffffffffffffffffffffffff021916908373ffffffffffffffffffffffffffffffffffffffff16021790555061012082015181600501600082015181600001555050610140820151816006016000820151816000015550506101608201518160070160008201518160000155505050507f74851bb416411c1b4cb986c13ce9b6a9e973e7948f03fc2e574ca42a6d3724d33360405161293e9190613f94565b60405180910390a161295060066130c0565b5050505050505050565b6129626130b8565b73ffffffffffffffffffffffffffffffffffffffff16612980611448565b73ffffffffffffffffffffffffffffffffffffffff16146129d6576040517f08c379a00000000000000000000000000000000000000000000000000000000081526004016129cd90613ff0565b60405180910390fd5b600073ffffffffffffffffffffffffffffffffffffffff168173ffffffffffffffffffffffffffffffffffffffff161415612a46576040517f08c379a0000000000000000000000000000000000000000000000000000000008152600401612a3d90613f74565b60405180910390fd5b8073ffffffffffffffffffffffffffffffffffffffff1660008054906101000a900473ffffffffffffffffffffffffffffffffffffffff1673ffffffffffffffffffffffffffffffffffffffff167f8be0079c531659141344cd1fd0a4f28419497f9722a3daafe3b4186f6b6457e060405160405180910390a3806000806101000a81548173ffffffffffffffffffffffffffffffffffffffff021916908373ffffffffffffffffffffffffffffffffffffffff16021790555050565b606060076000838152602001908152602001600020805480602002602001604051908101604052809291908181526020016000905b82821015612db95783829060005260206000209060040201604051806101000160405290816000820160009054906101000a900460c01b77ffffffffffffffffffffffffffffffffffffffffffffffff191677ffffffffffffffffffffffffffffffffffffffffffffffff19168152602001600182018054612bb990614472565b80601f0160208091040260200160405190810160405280929190818152602001828054612be590614472565b8015612c325780601f10612c0757610100808354040283529160200191612c32565b820191906000526020600020905b815481529060010190602001808311612c1557829003601f168201915b505050505081526020016002820160009054906101000a900473ffffffffffffffffffffffffffffffffffffffff1673ffffffffffffffffffffffffffffffffffffffff1673ffffffffffffffffffffffffffffffffffffffff1681526020016002820160149054906101000a900467ffffffffffffffff1667ffffffffffffffff1667ffffffffffffffff1681526020016003820160009054906101000a900467ffffffffffffffff1667ffffffffffffffff1667ffffffffffffffff1681526020016003820160089054906101000a900460c01b77ffffffffffffffffffffffffffffffffffffffffffffffff191677ffffffffffffffffffffffffffffffffffffffffffffffff191681526020016003820160109054906101000a900460c01b77ffffffffffffffffffffffffffffffffffffffffffffffff191677ffffffffffffffffffffffffffffffffffffffffffffffff191681526020016003820160189054906101000a900460ff16151515158152505081526020019060010190612b38565b505050509050919050565b600081600001549050919050565b600760008981526020019081526020016000206040518061010001604052808977ffffffffffffffffffffffffffffffffffffffffffffffff191681526020018881526020018773ffffffffffffffffffffffffffffffffffffffff1681526020018667ffffffffffffffff1681526020018567ffffffffffffffff1681526020018477ffffffffffffffffffffffffffffffffffffffffffffffff191681526020018377ffffffffffffffffffffffffffffffffffffffffffffffff1916815260200160011515815250908060018154018082558091505060019003906000526020600020906004020160009091909190915060008201518160000160006101000a81548167ffffffffffffffff021916908360c01c02179055506020820151816001019080519060200190612f0a9291906131fb565b5060408201518160020160006101000a81548173ffffffffffffffffffffffffffffffffffffffff021916908373ffffffffffffffffffffffffffffffffffffffff16021790555060608201518160020160146101000a81548167ffffffffffffffff021916908367ffffffffffffffff16021790555060808201518160030160006101000a81548167ffffffffffffffff021916908367ffffffffffffffff16021790555060a08201518160030160086101000a81548167ffffffffffffffff021916908360c01c021790555060c08201518160030160106101000a81548167ffffffffffffffff021916908360c01c021790555060e08201518160030160186101000a81548160ff02191690831515021790555050506130756005898154811061305f577f4e487b7100000000000000000000000000000000000000000000000000000000600052603260045260246000fd5b90600052602060002090600802016005016130c0565b7f6eb54bb1fcbc8b072bc7be4d66f909b2316584cb9b6c49bfdb6504b9246a848188336040516130a6929190614178565b60405180910390a15050505050505050565b600033905090565b6001816000016000828254019250508190555050565b604051806101800160405280600077ffffffffffffffffffffffffffffffffffffffffffffffff19168152602001600077ffffffffffffffffffffffffffffffffffffffffffffffff1916815260200160007effffffffffffffffffffffffffffffffffffffffffffffffffffffffffffff19168152602001600060ff16815260200160001515815260200160608152602001600073ffffffffffffffffffffffffffffffffffffffff168152602001600073ffffffffffffffffffffffffffffffffffffffff168152602001600073ffffffffffffffffffffffffffffffffffffffff1681526020016131c86131e8565b81526020016131d56131e8565b81526020016131e26131e8565b81525090565b6040518060200160405280600081525090565b82805461320790614472565b90600052602060002090601f0160209004810192826132295760008555613270565b82601f1061324257805160ff1916838001178555613270565b82800160010185558215613270579182015b8281111561326f578251825591602001919060010190613254565b5b50905061327d9190613281565b5090565b5b8082111561329a576000816000905550600101613282565b5090565b60006132b16132ac8461425d565b61422c565b9050828152602081018484840111156132c957600080fd5b6132d4848285614430565b509392505050565b6000813590506132eb81614513565b92915050565b6000813590506133008161452a565b92915050565b60008135905061331581614541565b92915050565b60008135905061332a81614558565b92915050565b600082601f83011261334157600080fd5b813561335184826020860161329e565b91505092915050565b6000813590506133698161456f565b92915050565b60008135905061337e81614586565b92915050565b6000813590506133938161459d565b92915050565b6000602082840312156133ab57600080fd5b60006133b9848285016132dc565b91505092915050565b600080600080600060a086880312156133da57600080fd5b60006133e88882890161331b565b955050602086013567ffffffffffffffff81111561340557600080fd5b61341188828901613330565b94505060406134228882890161331b565b9350506060613433888289016132f1565b925050608061344488828901613384565b9150509295509295909350565b60006020828403121561346357600080fd5b60006134718482850161335a565b91505092915050565b6000806040838503121561348d57600080fd5b600061349b8582860161335a565b92505060206134ac858286016132dc565b9150509250929050565b600080604083850312156134c957600080fd5b60006134d78582860161335a565b92505060206134e885828601613306565b9150509250929050565b60008060006060848603121561350757600080fd5b60006135158682870161335a565b935050602061352686828701613306565b925050604061353786828701613306565b9150509250925092565b600080600080600080600060e0888a03121561355c57600080fd5b600061356a8a828b0161335a565b975050602061357b8a828b0161331b565b965050604088013567ffffffffffffffff81111561359857600080fd5b6135a48a828b01613330565b95505060606135b58a828b0161336f565b94505060806135c68a828b0161336f565b93505060a06135d78a828b0161331b565b92505060c06135e88a828b0161331b565b91505092959891949750929550565b6000806040838503121561360a57600080fd5b60006136188582860161335a565b92505060206136298582860161335a565b9150509250929050565b600061363f83836137f7565b60208301905092915050565b60006136578383613b83565b905092915050565b600061366b8383613c4f565b905092915050565b61367c81614365565b82525050565b61368b81614365565b82525050565b600061369c826142bd565b6136a68185614310565b93506136b18361428d565b8060005b838110156136e25781516136c98882613633565b97506136d4836142e9565b9250506001810190506136b5565b5085935050505092915050565b60006136fa826142c8565b6137048185614321565b9350836020820285016137168561429d565b8060005b858110156137525784840389528151613733858261364b565b945061373e836142f6565b925060208a0199505060018101905061371a565b50829750879550505050505092915050565b600061376f826142d3565b6137798185614332565b93508360208202850161378b856142ad565b8060005b858110156137c757848403895281516137a8858261365f565b94506137b383614303565b925060208a0199505060018101905061378f565b50829750879550505050505092915050565b6137e281614377565b82525050565b6137f181614383565b82525050565b613800816143af565b82525050565b61380f816143af565b82525050565b61381e816143b9565b82525050565b600061382f826142de565b6138398185614343565b935061384981856020860161443f565b61385281614502565b840191505092915050565b600061386a601583614354565b91507f42726964676520416464726573732075706461746500000000000000000000006000830152602082019050919050565b60006138aa602683614354565b91507f4f776e61626c653a206e6577206f776e657220697320746865207a65726f206160008301527f64647265737300000000000000000000000000000000000000000000000000006020830152604082019050919050565b6000613910600b83614354565b91507f4e657720736572766963650000000000000000000000000000000000000000006000830152602082019050919050565b6000613950601083614354565b91507f4e657720436f6e66696720416c657274000000000000000000000000000000006000830152602082019050919050565b6000613990600b83614354565b91507f53657276696365206f66660000000000000000000000000000000000000000006000830152602082019050919050565b60006139d0600c83614354565b91507f436f6e7472616374206f666600000000000000000000000000000000000000006000830152602082019050919050565b6000613a10602083614354565b91507f4f776e61626c653a2063616c6c6572206973206e6f7420746865206f776e65726000830152602082019050919050565b6000613a50601183614354565b91507f53657276696365206e6f742065786973740000000000000000000000000000006000830152602082019050919050565b6000613a90600b83614354565b91507f436f6e7472616374206f6e0000000000000000000000000000000000000000006000830152602082019050919050565b6000613ad0601083614354565b91507f53657276696365206f6666206c696e65000000000000000000000000000000006000830152602082019050919050565b6000613b10600a83614354565b91507f53657276696365206f6e000000000000000000000000000000000000000000006000830152602082019050919050565b6000613b50600d83614354565b91507f4163636573732064656e696564000000000000000000000000000000000000006000830152602082019050919050565b600061010083016000830151613b9c6000860182613815565b5060208301518482036020860152613bb48282613824565b9150506040830151613bc96040860182613673565b506060830151613bdc6060860182613e75565b506080830151613bef6080860182613e75565b5060a0830151613c0260a0860182613815565b5060c0830151613c1560c0860182613815565b5060e0830151613c2860e08601826137d9565b508091505092915050565b602082016000820151613c496000850182613e57565b50505050565b600061018083016000830151613c686000860182613815565b506020830151613c7b6020860182613815565b506040830151613c8e60408601826137e8565b506060830151613ca16060860182613e84565b506080830151613cb460808601826137d9565b5060a083015184820360a0860152613ccc8282613824565b91505060c0830151613ce160c0860182613673565b5060e0830151613cf460e0860182613673565b50610100830151613d09610100860182613673565b50610120830151613d1e610120860182613c33565b50610140830151613d33610140860182613c33565b50610160830151613d48610160860182613c33565b508091505092915050565b600061018083016000830151613d6c6000860182613815565b506020830151613d7f6020860182613815565b506040830151613d9260408601826137e8565b506060830151613da56060860182613e84565b506080830151613db860808601826137d9565b5060a083015184820360a0860152613dd08282613824565b91505060c0830151613de560c0860182613673565b5060e0830151613df860e0860182613673565b50610100830151613e0d610100860182613673565b50610120830151613e22610120860182613c33565b50610140830151613e37610140860182613c33565b50610160830151613e4c610160860182613c33565b508091505092915050565b613e6081614405565b82525050565b613e6f81614405565b82525050565b613e7e8161440f565b82525050565b613e8d81614423565b82525050565b6000602082019050613ea86000830184613682565b92915050565b60006020820190508181036000830152613ec88184613691565b905092915050565b60006040820190508181036000830152613eea8185613691565b90508181036020830152613efe8184613691565b90509392505050565b60006020820190508181036000830152613f2181846136ef565b905092915050565b60006020820190508181036000830152613f438184613764565b905092915050565b6000604082019050613f606000830185613806565b613f6d6020830184613806565b9392505050565b60006020820190508181036000830152613f8d8161389d565b9050919050565b60006040820190508181036000830152613fad81613903565b9050613fbc6020830184613682565b92915050565b60006040820190508181036000830152613fdb816139c3565b9050613fea6020830184613682565b92915050565b6000602082019050818103600083015261400981613a03565b9050919050565b6000602082019050818103600083015261402981613a43565b9050919050565b6000604082019050818103600083015261404981613a83565b90506140586020830184613682565b92915050565b6000602082019050818103600083015261407781613ac3565b9050919050565b6000602082019050818103600083015261409781613b43565b9050919050565b600060208201905081810360008301526140b88184613d53565b905092915050565b60006060820190506140d56000830186613e66565b6140e26020830185613806565b6140ef6040830184613682565b949350505050565b600060808201905061410c6000830187613e66565b6141196020830186613806565b6141266040830185613806565b6141336060830184613682565b95945050505050565b60006060820190506141516000830185613e66565b81810360208301526141628161385d565b90506141716040830184613682565b9392505050565b600060608201905061418d6000830185613e66565b818103602083015261419e81613943565b90506141ad6040830184613682565b9392505050565b60006060820190506141c96000830185613e66565b81810360208301526141da81613983565b90506141e96040830184613682565b9392505050565b60006060820190506142056000830185613e66565b818103602083015261421681613b03565b90506142256040830184613682565b9392505050565b6000604051905081810181811067ffffffffffffffff82111715614253576142526144d3565b5b8060405250919050565b600067ffffffffffffffff821115614278576142776144d3565b5b601f19601f8301169050602081019050919050565b6000819050602082019050919050565b6000819050602082019050919050565b6000819050602082019050919050565b600081519050919050565b600081519050919050565b600081519050919050565b600081519050919050565b6000602082019050919050565b6000602082019050919050565b6000602082019050919050565b600082825260208201905092915050565b600082825260208201905092915050565b600082825260208201905092915050565b600082825260208201905092915050565b600082825260208201905092915050565b6000614370826143e5565b9050919050565b60008115159050919050565b60007fff0000000000000000000000000000000000000000000000000000000000000082169050919050565b6000819050919050565b60007fffffffffffffffff00000000000000000000000000000000000000000000000082169050919050565b600073ffffffffffffffffffffffffffffffffffffffff82169050919050565b6000819050919050565b600067ffffffffffffffff82169050919050565b600060ff82169050919050565b82818337600083830152505050565b60005b8381101561445d578082015181840152602081019050614442565b8381111561446c576000848401525b50505050565b6000600282049050600182168061448a57607f821691505b6020821081141561449e5761449d6144a4565b5b50919050565b7f4e487b7100000000000000000000000000000000000000000000000000000000600052602260045260246000fd5b7f4e487b7100000000000000000000000000000000000000000000000000000000600052604160045260246000fd5b6000601f19601f8301169050919050565b61451c81614365565b811461452757600080fd5b50565b61453381614383565b811461453e57600080fd5b50565b61454a816143af565b811461455557600080fd5b50565b614561816143b9565b811461456c57600080fd5b50565b61457881614405565b811461458357600080fd5b50565b61458f8161440f565b811461459a57600080fd5b50565b6145a681614423565b81146145b157600080fd5b5056fea2646970667358221220cdcf08add4568e4395cc2719389ef5123578f9df97453c7a7f175e97012926b364736f6c63430008000033",
  "immutableReferences": {},
  "source": "// SPDX-License-Identifier: MIT\npragma solidity 0.8.0;\n\nimport \"../node_modules/@openzeppelin/contracts/utils/Counters.sol\";\nimport \"../node_modules/@openzeppelin/contracts/access/Ownable.sol\";\n\ncontract ClientContract is Ownable {\n    using Counters for Counters.Counter;\n    \n    // struct mesure en-tte (32) { \n    //   //V0.1     XX.XX.XX    00.01.00\n    //   Version : bytes8;\n    //   Date : YYYYmmddHHii : byte12\n    //   Code de mesure : bytes8 - CODE : 4 chiffre/lettre pour la nature physique - 4 chiffre/lettre pour la version\n    //   Code temporel : bytes1 (Horaire, Journalier) Y m d H i\n    //   Nb temporel : bytes3 \n    // }\n    \n    // struct mesure donne (32) { \n    //   Valeur 1 Max : bytes8\n    //   Valeur 2 Moyenne : bytes8\n    //   Valeur 3 Mdiane : bytes8\n    //   Valeur 4 Min : bytes8\n    // }\n\n    // struct alert donne (32) { \n    //   Version : bytes8\n    //   IdAlert : bytes4    \n    //   Date : YYYYmmddHHii : byte12\n    //   Valeur alert : bytes8\n    // }\n\n    /**\n    * @dev Contract Configuration\n    */\n    struct Config {\n        bytes8 version;\n        uint64 prevContractDate;\n        uint64 nextContractDate;\n        address customerAddress;\n        address prevContract;\n        address nextContract;\n        bool isActive;\n    }\n    \n    struct Service {\n        bytes8 version;\n        bytes8 measureType;\n        bytes1 timeCode;\n        uint8 nbTime;\n        bool isActive;\n        string description;\n        address bridgeAddress;\n        address techMasterAddress;\n        address legislatorAddress;\n\n        Counters.Counter alertConfigIdCounter;\n        Counters.Counter alertIdCounter; \n        Counters.Counter measureIdCounter;\n    }\n\n    struct AlertConfig {\n        bytes8 version;     \n        string description;   \n        address legislatorAddress;\n        uint64 dateOn;\n        uint64 dateOff;\n        bytes8 codeAlert;\n        bytes8 valueAlert;\n        bool isActive;\n    }\n\n    modifier isContractActive() {\n        require(_myConfig.isActive, \"Service off line\");\n        _;\n    }\n\n    modifier isServiceOn(uint _serviceId) {\n        require(_serviceId < _serviceIdCounter.current(), \"Service not exist\"); \n        require(_services[_serviceId].isActive, \"Service off line\"); \n        _;\n    }\n\n    modifier onlyCustomer() {\n        require (_myConfig.customerAddress == msg.sender || owner() ==  msg.sender, \"Access denied\");\n        _;\n    }\n\n    modifier onlyBridge(uint _serviceId) {\n        require (_services[_serviceId].bridgeAddress == msg.sender || owner() ==  msg.sender, \"Access denied\");\n        _;\n    }\n\n    modifier onlyTechMaster(uint _serviceId) {\n        require (_services[_serviceId].techMasterAddress == msg.sender || owner() ==  msg.sender, \"Access denied\");\n        _;\n    }\n\n    modifier onlyLegislator(uint _serviceId) {\n        require (_services[_serviceId].legislatorAddress == msg.sender || owner() ==  msg.sender, \"Access denied\");\n        _;\n    }\n\n    event MeasureReceive(uint _service_id, bytes32 _header, bytes32 _body, address _author); \n    event AlertReceive(uint _service_id, bytes32 _alert, address _author); \n    event ServiceUpdate(uint _service_id, string message, address _author); \n    event ContractUpdate(string message, address _author);  \n               \n    Config private _myConfig;\n    Service[] private _services;\n\n    Counters.Counter private _serviceIdCounter;\n\n    mapping(uint => AlertConfig[]) private _serviceAlertConfig;  \n    mapping(uint => bytes32[]) private _serviceHeaderMeasures;\n    mapping(uint => bytes32[]) private _serviceBodyMeasures;\n    mapping(uint => bytes32[]) private _serviceAlerts;    \n    mapping(uint => bytes6[]) private _serviceMacIOT;\n \n    constructor (bytes8 _version, address _customerAddress, address _prevContract, uint64 _prevContractDate) {\n        _myConfig = Config(\n            _version,\n            _prevContractDate,\n            0,\n            _customerAddress,\n            _prevContract,\n            address(0),\n            true\n        );  \n    }\n\n    function addService(\n        bytes8 _version,   \n        string memory _description,\n        bytes8 _measureType,          \n        bytes1 _timeCode,\n        uint8 _nbTime) \n        onlyCustomer() isContractActive() external{\n      \n        Counters.Counter memory alertConfigIdCounter;\n        Counters.Counter memory alertIdCounter;\n        Counters.Counter memory measureIdCounter;       \n\n        _services.push(Service(\n        _version, \n        _measureType,  \n        _timeCode,    \n        _nbTime,   \n        true,                        \n        _description, \n        address(0),\n        address(0),  \n        address(0),\n        alertConfigIdCounter,                       \n        measureIdCounter,\n        alertIdCounter));\n\n        emit ContractUpdate(\"New service\", msg.sender);\n\n        _serviceIdCounter.increment();\n    }  \n\n    function toogleContract()\n        onlyOwner external {\n        if(_myConfig.isActive){\n            emit ContractUpdate(\"Contract off\", msg.sender);\n        }else{\n            emit ContractUpdate(\"Contract on\", msg.sender);\n        } \n        _myConfig.isActive = !_myConfig.isActive;\n    }\n\n    function toogleService(uint _serviceId)\n        onlyCustomer() external {\n        if(_services[_serviceId].isActive){\n            emit ServiceUpdate(_serviceId, \"Service off\", msg.sender);\n        }else{\n            emit ServiceUpdate(_serviceId, \"Service on\", msg.sender);\n        } \n        _services[_serviceId].isActive = !_services[_serviceId].isActive;\n    }\n\n    // function toogleAlertConfig(uint _serviceId, uint _alertConfigId)\n    //     onlyCustomer() external {\n    //     if(_serviceAlertConfig[_serviceId][_alertConfigId].isActive){\n    //         emit ServiceUpdate(_serviceId, \"Alert off\", msg.sender);\n    //     }else{\n    //         emit ServiceUpdate(_serviceId, \"Alert on\", msg.sender);\n    //     } \n    //     _serviceAlertConfig[_serviceId][_alertConfigId].isActive = !_serviceAlertConfig[_serviceId][_alertConfigId].isActive;\n    // }        \n\n    function setTechMasterAddress(\n        uint _serviceId,\n        address _techMasterAddress)\n        isContractActive() isServiceOn(_serviceId) onlyOwner external {  \n        \n        _services[_serviceId].techMasterAddress = _techMasterAddress;\n\n        emit ServiceUpdate(_serviceId, \"Bridge Address update\", msg.sender);\n    }   \n\n    function setBridgeAddress(\n        uint _serviceId,\n        address _bridgeAddress)\n        isContractActive() isServiceOn(_serviceId) onlyTechMaster(_serviceId) external {  \n        \n        _services[_serviceId].bridgeAddress = _bridgeAddress;\n\n        emit ServiceUpdate(_serviceId, \"Bridge Address update\", msg.sender);\n    }   \n\n    function setLegislatorAddress(\n        uint _serviceId,\n        address _legislatorAddress)\n        isContractActive() isServiceOn(_serviceId) onlyCustomer() external {  \n        \n        _services[_serviceId].legislatorAddress = _legislatorAddress;\n\n        emit ServiceUpdate(_serviceId, \"Bridge Address update\", msg.sender);\n    }   \n    \n    function getOneService(\n        uint _serviceId) \n        external view returns(Service memory){   \n\n        return (\n            _services[_serviceId]            \n        );\n    }\n\n    function getAllServices() \n        external view returns(\n        Service[] memory){    \n\n        return (_services);\n    }\n\n    function addMeasure(\n        uint _serviceId,\n        bytes32 _measureHeader,\n        bytes32 _measurebody) \n        isContractActive() isServiceOn(_serviceId) onlyBridge(_serviceId) external {    \n        \n        _serviceHeaderMeasures[_serviceId].push(_measureHeader);\n        _serviceBodyMeasures[_serviceId].push(_measurebody);\n        \n        _services[_serviceId].measureIdCounter.increment();\n\n        emit MeasureReceive(_serviceId, _measureHeader, _measurebody, msg.sender);\n    }\n\n    function getAllMeasures(\n        uint _serviceId) \n        external view returns(\n            bytes32[] memory,\n            bytes32[] memory){\n              \n        return (_serviceHeaderMeasures[_serviceId], _serviceBodyMeasures[_serviceId]);\n    }\n    \n    function getMeasuresById(\n        uint _serviceId,\n        uint _measureId) \n        external view returns(\n            bytes32,\n            bytes32){\n              \n        return (_serviceHeaderMeasures[_serviceId][_measureId], _serviceBodyMeasures[_serviceId][_measureId]);\n    }  \n\n    function addAlertConfigCustomer(\n        uint _serviceId,\n        bytes8 _version, \n        string memory _description,  \n        uint64 _dateOn,\n        uint64 _dateOff,\n        bytes8 _codeAlert,         \n        bytes8 _valueAlert)         \n        isContractActive() isServiceOn(_serviceId) onlyCustomer() external{       \n            _addAlertConfig(_serviceId, _version, _description, address(0), _dateOn, _dateOff, _codeAlert, _valueAlert);\n    }\n\n    function addAlertConfigLegislator(\n        uint _serviceId,\n        bytes8 _version,   \n        string memory _description,  \n        uint64 _dateOn,\n        uint64 _dateOff,\n        bytes8 _codeAlert,         \n        bytes8 _valueAlert)         \n        isContractActive() isServiceOn(_serviceId) onlyLegislator(_serviceId) external{       \n            _addAlertConfig(_serviceId, _version, _description, msg.sender, _dateOn, _dateOff, _codeAlert, _valueAlert);\n    }\n\n    function _addAlertConfig(\n        uint _serviceId,\n        bytes8 _version,   \n        string memory _description,  \n        address _legislatorAddress,\n        uint64 _dateOn,\n        uint64 _dateOff,\n        bytes8 _codeAlert,\n        bytes8 _valueAlert)\n        internal{\n\n        _serviceAlertConfig[_serviceId].push(AlertConfig(\n            _version,    \n            _description,      \n            _legislatorAddress,\n            _dateOn,\n            _dateOff,\n            _codeAlert,\n            _valueAlert,\n            true\n        ));\n\n        _services[_serviceId].alertConfigIdCounter.increment();\n\n        emit ServiceUpdate(_serviceId, \"New Config Alert\", msg.sender);\n    }\n\n    function getAllAlertConfigs(\n        uint _serviceId) \n        external view returns(AlertConfig[] memory){\n              \n        return (_serviceAlertConfig[_serviceId]);\n    }\n\n    function addAlert(\n        uint _serviceId,\n        bytes32 _alertBody) \n        isContractActive() isServiceOn(_serviceId) onlyBridge(_serviceId) external {         \n                   \n        _serviceAlerts[_serviceId].push(_alertBody);\n        \n        _services[_serviceId].alertIdCounter.increment();\n\n        emit AlertReceive(_serviceId, _alertBody, msg.sender);\n    }\n\n    function getAlerts(\n        uint _serviceId) external view returns(\n            bytes32[] memory){\n            \n        return (_serviceAlerts[_serviceId]);        \n    }\n\n}\n",
  "sourcePath": "/Users/helenebunel/Documents/GitHub/eco-capt/contracts/ClientContract.sol",
  "compiler": {
    "name": "solc",
    "version": "0.8.0+commit.c7dfd78e.Emscripten.clang"
  },
  "schemaVersion": "3.3.4",
  "updatedAt": "2021-04-10T21:10:26.841Z",
  "networkType": "ethereum",
  "devdoc": {
    "kind": "dev",
    "methods": {
      "owner()": {
        "details": "Returns the address of the current owner."
      },
      "renounceOwnership()": {
        "details": "Leaves the contract without owner. It will not be possible to call `onlyOwner` functions anymore. Can only be called by the current owner. NOTE: Renouncing ownership will leave the contract without an owner, thereby removing any functionality that is only available to the owner."
      },
      "transferOwnership(address)": {
        "details": "Transfers ownership of the contract to a new account (`newOwner`). Can only be called by the current owner."
      }
    },
    "version": 1
  },
  "userdoc": {
    "kind": "user",
    "methods": {},
    "version": 1
  }
}