{
  "contractName": "ClientContract",
  "abi": [
    {
      "inputs": [],
      "stateMutability": "nonpayable",
      "type": "constructor"
    },
    {
      "inputs": [
        {
          "internalType": "uint256",
          "name": "",
          "type": "uint256"
        },
        {
          "internalType": "uint256",
          "name": "",
          "type": "uint256"
        }
      ],
      "name": "_serviceBodyMeasures",
      "outputs": [
        {
          "internalType": "bytes32",
          "name": "",
          "type": "bytes32"
        }
      ],
      "stateMutability": "view",
      "type": "function",
      "constant": true
    },
    {
      "inputs": [
        {
          "internalType": "uint256",
          "name": "",
          "type": "uint256"
        },
        {
          "internalType": "uint256",
          "name": "",
          "type": "uint256"
        }
      ],
      "name": "_serviceHeaderMeasures",
      "outputs": [
        {
          "internalType": "bytes32",
          "name": "",
          "type": "bytes32"
        }
      ],
      "stateMutability": "view",
      "type": "function",
      "constant": true
    },
    {
      "inputs": [
        {
          "internalType": "bytes8",
          "name": "_version",
          "type": "bytes8"
        },
        {
          "internalType": "string",
          "name": "_description",
          "type": "string"
        },
        {
          "internalType": "bytes8",
          "name": "_measureType",
          "type": "bytes8"
        },
        {
          "internalType": "bytes1",
          "name": "_timeCode",
          "type": "bytes1"
        },
        {
          "internalType": "uint8",
          "name": "_nbTime",
          "type": "uint8"
        }
      ],
      "name": "addService",
      "outputs": [],
      "stateMutability": "nonpayable",
      "type": "function"
    },
    {
      "inputs": [
        {
          "internalType": "uint256",
          "name": "_service_id",
          "type": "uint256"
        }
      ],
      "name": "getService",
      "outputs": [
        {
          "internalType": "bytes8",
          "name": "version",
          "type": "bytes8"
        },
        {
          "internalType": "string",
          "name": "description",
          "type": "string"
        },
        {
          "internalType": "bytes8",
          "name": "measureType",
          "type": "bytes8"
        },
        {
          "internalType": "bytes1",
          "name": "timeCode",
          "type": "bytes1"
        },
        {
          "internalType": "uint8",
          "name": "nbTime",
          "type": "uint8"
        },
        {
          "internalType": "bool",
          "name": "isActive",
          "type": "bool"
        },
        {
          "internalType": "uint256",
          "name": "measureIdCounter",
          "type": "uint256"
        }
      ],
      "stateMutability": "view",
      "type": "function",
      "constant": true
    },
    {
      "inputs": [],
      "name": "getServices",
      "outputs": [
        {
          "components": [
            {
              "internalType": "bytes8",
              "name": "version",
              "type": "bytes8"
            },
            {
              "internalType": "string",
              "name": "description",
              "type": "string"
            },
            {
              "internalType": "bytes8",
              "name": "measureType",
              "type": "bytes8"
            },
            {
              "internalType": "bytes1",
              "name": "timeCode",
              "type": "bytes1"
            },
            {
              "internalType": "uint8",
              "name": "nbTime",
              "type": "uint8"
            },
            {
              "internalType": "bool",
              "name": "isActive",
              "type": "bool"
            },
            {
              "components": [
                {
                  "internalType": "uint256",
                  "name": "_value",
                  "type": "uint256"
                }
              ],
              "internalType": "struct Counters.Counter",
              "name": "measureIdCounter",
              "type": "tuple"
            }
          ],
          "internalType": "struct ClientContract.Service[]",
          "name": "",
          "type": "tuple[]"
        }
      ],
      "stateMutability": "view",
      "type": "function",
      "constant": true
    },
    {
      "inputs": [
        {
          "internalType": "uint256",
          "name": "_serviceId",
          "type": "uint256"
        },
        {
          "internalType": "bytes32",
          "name": "_measureHeader",
          "type": "bytes32"
        },
        {
          "internalType": "bytes32",
          "name": "_measurebody",
          "type": "bytes32"
        }
      ],
      "name": "addMeasure",
      "outputs": [],
      "stateMutability": "nonpayable",
      "type": "function"
    },
    {
      "inputs": [
        {
          "internalType": "uint256",
          "name": "_serviceId",
          "type": "uint256"
        }
      ],
      "name": "getMeasures",
      "outputs": [
        {
          "internalType": "bytes32[]",
          "name": "",
          "type": "bytes32[]"
        },
        {
          "internalType": "bytes32[]",
          "name": "",
          "type": "bytes32[]"
        }
      ],
      "stateMutability": "view",
      "type": "function",
      "constant": true
    },
    {
      "inputs": [
        {
          "internalType": "uint256",
          "name": "_serviceId",
          "type": "uint256"
        },
        {
          "internalType": "uint256",
          "name": "_measureId",
          "type": "uint256"
        }
      ],
      "name": "getMeasuresById",
      "outputs": [
        {
          "internalType": "bytes32",
          "name": "",
          "type": "bytes32"
        },
        {
          "internalType": "bytes32",
          "name": "",
          "type": "bytes32"
        }
      ],
      "stateMutability": "view",
      "type": "function",
      "constant": true
    }
  ],
  "bytecode": "0x608060405234801561001057600080fd5b5061172e806100206000396000f3fe608060405234801561001057600080fd5b50600436106100885760003560e01c80638fab37661161005b5780638fab37661461013c578063b2e733bf1461016d578063da6cd37614610189578063ef0e239b146101a557610088565b80632669167a1461008d57806335dc8feb146100be57806375417851146100ee5780637f0851011461010c575b600080fd5b6100a760048036038101906100a29190610f31565b6101db565b6040516100b592919061133e565b60405180910390f35b6100d860048036038101906100d39190610f31565b610295565b6040516100e59190611323565b60405180910390f35b6100f66102c6565b6040516101039190611301565b60405180910390f35b61012660048036038101906101219190610f31565b610502565b6040516101339190611323565b60405180910390f35b61015660048036038101906101519190610eb9565b610533565b6040516101649291906112ca565b60405180910390f35b61018760048036038101906101829190610ee2565b610609565b005b6101a3600480360381019061019e9190610e2a565b6107b8565b005b6101bf60048036038101906101ba9190610eb9565b610974565b6040516101d29796959493929190611367565b60405180910390f35b600080600260008581526020019081526020016000208381548110610229577f4e487b7100000000000000000000000000000000000000000000000000000000600052603260045260246000fd5b906000526020600020015460036000868152602001908152602001600020848154811061027f577f4e487b7100000000000000000000000000000000000000000000000000000000600052603260045260246000fd5b9060005260206000200154915091509250929050565b600360205281600052604060002081815481106102b157600080fd5b90600052602060002001600091509150505481565b60606000805480602002602001604051908101604052809291908181526020016000905b828210156104f957838290600052602060002090600402016040518060e00160405290816000820160009054906101000a900460c01b77ffffffffffffffffffffffffffffffffffffffffffffffff191677ffffffffffffffffffffffffffffffffffffffffffffffff1916815260200160018201805461036a906115e4565b80601f0160208091040260200160405190810160405280929190818152602001828054610396906115e4565b80156103e35780601f106103b8576101008083540402835291602001916103e3565b820191906000526020600020905b8154815290600101906020018083116103c657829003601f168201915b505050505081526020016002820160009054906101000a900460c01b77ffffffffffffffffffffffffffffffffffffffffffffffff191677ffffffffffffffffffffffffffffffffffffffffffffffff191681526020016002820160089054906101000a900460f81b7effffffffffffffffffffffffffffffffffffffffffffffffffffffffffffff19167effffffffffffffffffffffffffffffffffffffffffffffffffffffffffffff191681526020016002820160099054906101000a900460ff1660ff1660ff16815260200160028201600a9054906101000a900460ff161515151581526020016003820160405180602001604052908160008201548152505081525050815260200190600101906102ea565b50505050905090565b6002602052816000526040600020818154811061051e57600080fd5b90600052602060002001600091509150505481565b6060806002600084815260200190815260200160002060036000858152602001908152602001600020818054806020026020016040519081016040528092919081815260200182805480156105a757602002820191906000526020600020905b815481526020019060010190808311610593575b50505050509150808054806020026020016040519081016040528092919081815260200182805480156105f957602002820191906000526020600020905b8154815260200190600101908083116105e5575b5050505050905091509150915091565b6106136001610c7f565b8310610654576040517f08c379a000000000000000000000000000000000000000000000000000000000815260040161064b906113dd565b60405180910390fd5b6000838154811061068e577f4e487b7100000000000000000000000000000000000000000000000000000000600052603260045260246000fd5b9060005260206000209060040201600201600a9054906101000a900460ff166106ec576040517f08c379a00000000000000000000000000000000000000000000000000000000081526004016106e3906113fd565b60405180910390fd5b60026000848152602001908152602001600020829080600181540180825580915050600190039060005260206000200160009091909190915055600360008481526020019081526020016000208190806001815401808255809150506001900390600052602060002001600090919091909150556107b36000848154811061079d577f4e487b7100000000000000000000000000000000000000000000000000000000600052603260045260246000fd5b9060005260206000209060040201600301610c8d565b505050565b6107c0610ca3565b60006040518060e001604052808877ffffffffffffffffffffffffffffffffffffffffffffffff191681526020018781526020018677ffffffffffffffffffffffffffffffffffffffffffffffff19168152602001857effffffffffffffffffffffffffffffffffffffffffffffffffffffffffffff191681526020018460ff16815260200160011515815260200183815250908060018154018082558091505060019003906000526020600020906004020160009091909190915060008201518160000160006101000a81548167ffffffffffffffff021916908360c01c021790555060208201518160010190805190602001906108c0929190610cb6565b5060408201518160020160006101000a81548167ffffffffffffffff021916908360c01c021790555060608201518160020160086101000a81548160ff021916908360f81c021790555060808201518160020160096101000a81548160ff021916908360ff16021790555060a082015181600201600a6101000a81548160ff02191690831515021790555060c082015181600301600082015181600001555050505061096c6001610c8d565b505050505050565b6000606060008060008060008088815481106109b9577f4e487b7100000000000000000000000000000000000000000000000000000000600052603260045260246000fd5b906000526020600020906004020160000160009054906101000a900460c01b60008981548110610a12577f4e487b7100000000000000000000000000000000000000000000000000000000600052603260045260246000fd5b906000526020600020906004020160010160008a81548110610a5d577f4e487b7100000000000000000000000000000000000000000000000000000000600052603260045260246000fd5b906000526020600020906004020160020160009054906101000a900460c01b60008b81548110610ab6577f4e487b7100000000000000000000000000000000000000000000000000000000600052603260045260246000fd5b906000526020600020906004020160020160089054906101000a900460f81b60008c81548110610b0f577f4e487b7100000000000000000000000000000000000000000000000000000000600052603260045260246000fd5b906000526020600020906004020160020160099054906101000a900460ff1660008d81548110610b68577f4e487b7100000000000000000000000000000000000000000000000000000000600052603260045260246000fd5b9060005260206000209060040201600201600a9054906101000a900460ff16610bda60008f81548110610bc4577f4e487b7100000000000000000000000000000000000000000000000000000000600052603260045260246000fd5b9060005260206000209060040201600301610c7f565b858054610be6906115e4565b80601f0160208091040260200160405190810160405280929190818152602001828054610c12906115e4565b8015610c5f5780601f10610c3457610100808354040283529160200191610c5f565b820191906000526020600020905b815481529060010190602001808311610c4257829003601f168201915b505050505095509650965096509650965096509650919395979092949650565b600081600001549050919050565b6001816000016000828254019250508190555050565b6040518060200160405280600081525090565b828054610cc2906115e4565b90600052602060002090601f016020900481019282610ce45760008555610d2b565b82601f10610cfd57805160ff1916838001178555610d2b565b82800160010185558215610d2b579182015b82811115610d2a578251825591602001919060010190610d0f565b5b509050610d389190610d3c565b5090565b5b80821115610d55576000816000905550600101610d3d565b5090565b6000610d6c610d678461144e565b61141d565b905082815260208101848484011115610d8457600080fd5b610d8f8482856115a2565b509392505050565b600081359050610da681611685565b92915050565b600081359050610dbb8161169c565b92915050565b600081359050610dd0816116b3565b92915050565b600082601f830112610de757600080fd5b8135610df7848260208601610d59565b91505092915050565b600081359050610e0f816116ca565b92915050565b600081359050610e24816116e1565b92915050565b600080600080600060a08688031215610e4257600080fd5b6000610e5088828901610dc1565b955050602086013567ffffffffffffffff811115610e6d57600080fd5b610e7988828901610dd6565b9450506040610e8a88828901610dc1565b9350506060610e9b88828901610d97565b9250506080610eac88828901610e15565b9150509295509295909350565b600060208284031215610ecb57600080fd5b6000610ed984828501610e00565b91505092915050565b600080600060608486031215610ef757600080fd5b6000610f0586828701610e00565b9350506020610f1686828701610dac565b9250506040610f2786828701610dac565b9150509250925092565b60008060408385031215610f4457600080fd5b6000610f5285828601610e00565b9250506020610f6385828601610e00565b9150509250929050565b6000610f7983836110a8565b60208301905092915050565b6000610f9183836111f2565b905092915050565b6000610fa48261149e565b610fae81856114d9565b9350610fb98361147e565b8060005b83811015610fea578151610fd18882610f6d565b9750610fdc836114bf565b925050600181019050610fbd565b5085935050505092915050565b6000611002826114a9565b61100c81856114ea565b93508360208202850161101e8561148e565b8060005b8581101561105a578484038952815161103b8582610f85565b9450611046836114cc565b925060208a01995050600181019050611022565b50829750879550505050505092915050565b6110758161151d565b82525050565b6110848161151d565b82525050565b61109381611529565b82525050565b6110a281611529565b82525050565b6110b181611555565b82525050565b6110c081611555565b82525050565b6110cf8161155f565b82525050565b6110de8161155f565b82525050565b60006110ef826114b4565b6110f981856114fb565b93506111098185602086016115b1565b61111281611674565b840191505092915050565b6000611128826114b4565b611132818561150c565b93506111428185602086016115b1565b61114b81611674565b840191505092915050565b600061116360118361150c565b91507f53657276696365206e6f742065786973740000000000000000000000000000006000830152602082019050919050565b60006111a360108361150c565b91507f53657276696365206f6666206c696e65000000000000000000000000000000006000830152602082019050919050565b6020820160008201516111ec600085018261128e565b50505050565b600060e08301600083015161120a60008601826110c6565b506020830151848203602086015261122282826110e4565b915050604083015161123760408601826110c6565b50606083015161124a606086018261108a565b50608083015161125d60808601826112ac565b5060a083015161127060a086018261106c565b5060c083015161128360c08601826111d6565b508091505092915050565b6112978161158b565b82525050565b6112a68161158b565b82525050565b6112b581611595565b82525050565b6112c481611595565b82525050565b600060408201905081810360008301526112e48185610f99565b905081810360208301526112f88184610f99565b90509392505050565b6000602082019050818103600083015261131b8184610ff7565b905092915050565b600060208201905061133860008301846110b7565b92915050565b600060408201905061135360008301856110b7565b61136060208301846110b7565b9392505050565b600060e08201905061137c600083018a6110d5565b818103602083015261138e818961111d565b905061139d60408301886110d5565b6113aa6060830187611099565b6113b760808301866112bb565b6113c460a083018561107b565b6113d160c083018461129d565b98975050505050505050565b600060208201905081810360008301526113f681611156565b9050919050565b6000602082019050818103600083015261141681611196565b9050919050565b6000604051905081810181811067ffffffffffffffff8211171561144457611443611645565b5b8060405250919050565b600067ffffffffffffffff82111561146957611468611645565b5b601f19601f8301169050602081019050919050565b6000819050602082019050919050565b6000819050602082019050919050565b600081519050919050565b600081519050919050565b600081519050919050565b6000602082019050919050565b6000602082019050919050565b600082825260208201905092915050565b600082825260208201905092915050565b600082825260208201905092915050565b600082825260208201905092915050565b60008115159050919050565b60007fff0000000000000000000000000000000000000000000000000000000000000082169050919050565b6000819050919050565b60007fffffffffffffffff00000000000000000000000000000000000000000000000082169050919050565b6000819050919050565b600060ff82169050919050565b82818337600083830152505050565b60005b838110156115cf5780820151818401526020810190506115b4565b838111156115de576000848401525b50505050565b600060028204905060018216806115fc57607f821691505b602082108114156116105761160f611616565b5b50919050565b7f4e487b7100000000000000000000000000000000000000000000000000000000600052602260045260246000fd5b7f4e487b7100000000000000000000000000000000000000000000000000000000600052604160045260246000fd5b6000601f19601f8301169050919050565b61168e81611529565b811461169957600080fd5b50565b6116a581611555565b81146116b057600080fd5b50565b6116bc8161155f565b81146116c757600080fd5b50565b6116d38161158b565b81146116de57600080fd5b50565b6116ea81611595565b81146116f557600080fd5b5056fea26469706673582212203db133405126a2221f2682e888f48fb9317bdee8943ce77246c885b1e6799c5c64736f6c63430008000033",
  "immutableReferences": {},
  "source": "// SPDX-License-Identifier: MIT\npragma solidity ^0.8.0;\n\nimport \"../node_modules/@openzeppelin/contracts/utils/Counters.sol\";\n\ncontract ClientContract {\n    using Counters for Counters.Counter;\n    \n    /**\n    * @dev Contract Configuration\n    */\n    struct Config {\n        address ownerAdress;\n        address customerAddress;\n        address prevContract;\n        address nextContract;\n        bytes8 version;\n        uint64 datePrevContract;\n        uint64 nextPrevContract;\n    }\n    \n    // struct mesure en-tte (32) { \n    //   //V0.1\n    //   Version : bytes8;\n    //   Date : YYYYmmddHHii : byte12\n    //   Type de mesureID : bytes8 - CODE : 4 chiffre/lettre pour la nature physique - 4 chiffre/lettre pour la version\n    //   Type temporel : bytes1 (Horaire, Journalier) Y m d H i\n    //   Nb temporel : bytes3\n    // }\n    \n    // struct mesure donne (32) { \n    //   Valeur Max : bytes8\n    //   Valeur Moyenne : bytes8\n    //   Valeur Mdiane : bytes8\n    //   Valeur Min : bytes8\n    // }\n    \n    struct Service {\n        bytes8 version;\n        string description;\n        bytes8 measureType;\n        bytes1 timeCode;\n        uint8 nbTime;\n        bool isActive;\n        Counters.Counter measureIdCounter;\n    }\n    \n    Service[] private _services;\n    Counters.Counter private _serviceIdCounter;\n    mapping(uint => bytes32[]) public _serviceHeaderMeasures;\n    mapping(uint => bytes32[]) public _serviceBodyMeasures;\n    \n    constructor () {\n        //TO CONFIG\n    }\n\n    function addService(\n        bytes8 _version,  \n        string memory _description,\n        bytes8 _measureType,          \n        bytes1 _timeCode,\n        uint8 _nbTime) external{\n        \n        Counters.Counter memory measureIdCounter;\n        \n        _services.push(Service(\n        _version, \n        _description, \n        _measureType,\n        _timeCode, \n        _nbTime,\n        true,\n        measureIdCounter));\n        \n        _serviceIdCounter.increment();\n    }  \n    \n    function getService(\n        uint _service_id) external view returns(\n            bytes8 version, \n            string memory description, \n            bytes8 measureType,            \n            bytes1 timeCode, \n            uint8 nbTime,\n            bool isActive,\n            uint256 measureIdCounter){\n            \n        return (\n            _services[_service_id].version,\n            _services[_service_id].description,\n            _services[_service_id].measureType,            \n            _services[_service_id].timeCode,\n            _services[_service_id].nbTime,\n            _services[_service_id].isActive,\n            _services[_service_id].measureIdCounter.current()                 \n        );\n    }\n\n    function getServices() external view returns(\n            Service[] memory\n            ){     \n        return (_services);\n    }\n\n    function addMeasure(\n        uint _serviceId,\n        bytes32 _measureHeader,\n        bytes32 _measurebody) external {\n            \n        require(_serviceId < _serviceIdCounter.current(), \"Service not exist\");\n        require(_services[_serviceId].isActive, \"Service off line\"); \n        \n        _serviceHeaderMeasures[_serviceId].push(_measureHeader);\n        _serviceBodyMeasures[_serviceId].push(_measurebody);\n        \n        _services[_serviceId].measureIdCounter.increment();\n    }\n  \n    function getMeasures(\n        uint _serviceId) external view returns(\n            bytes32[] memory,\n            bytes32[] memory){\n              \n        return (_serviceHeaderMeasures[_serviceId], _serviceBodyMeasures[_serviceId]);\n    }\n    \n    function getMeasuresById(\n        uint _serviceId,\n        uint _measureId) external view returns(\n            bytes32,\n            bytes32){\n              \n        return (_serviceHeaderMeasures[_serviceId][_measureId], _serviceBodyMeasures[_serviceId][_measureId]);\n    }  \n\n}\n",
  "sourcePath": "C:/Users/danie/Desktop/Solidity/Projet final/eco-capt/contracts/ClientContract.sol",
  "compiler": {
    "name": "solc",
    "version": "0.8.0+commit.c7dfd78e.Emscripten.clang"
  },
  "schemaVersion": "3.3.4",
  "updatedAt": "2021-04-06T10:00:04.720Z",
  "networkType": "ethereum",
  "devdoc": {
    "kind": "dev",
    "methods": {},
    "version": 1
  },
  "userdoc": {
    "kind": "user",
    "methods": {},
    "version": 1
  }
}