{
  "contractName": "ClientContract",
  "abi": [
    {
      "inputs": [],
      "stateMutability": "nonpayable",
      "type": "constructor"
    },
    {
      "inputs": [
        {
          "internalType": "uint256",
          "name": "",
          "type": "uint256"
        },
        {
          "internalType": "uint256",
          "name": "",
          "type": "uint256"
        }
      ],
      "name": "serviceBodyMeasures",
      "outputs": [
        {
          "internalType": "bytes32",
          "name": "",
          "type": "bytes32"
        }
      ],
      "stateMutability": "view",
      "type": "function",
      "constant": true
    },
    {
      "inputs": [
        {
          "internalType": "uint256",
          "name": "",
          "type": "uint256"
        },
        {
          "internalType": "uint256",
          "name": "",
          "type": "uint256"
        }
      ],
      "name": "serviceHeaderMeasures",
      "outputs": [
        {
          "internalType": "bytes28",
          "name": "",
          "type": "bytes28"
        }
      ],
      "stateMutability": "view",
      "type": "function",
      "constant": true
    },
    {
      "inputs": [
        {
          "internalType": "uint256",
          "name": "",
          "type": "uint256"
        }
      ],
      "name": "services",
      "outputs": [
        {
          "internalType": "bytes6",
          "name": "version",
          "type": "bytes6"
        },
        {
          "internalType": "string",
          "name": "description",
          "type": "string"
        },
        {
          "internalType": "bytes6",
          "name": "tempCode",
          "type": "bytes6"
        },
        {
          "internalType": "uint8",
          "name": "nbTemp",
          "type": "uint8"
        },
        {
          "internalType": "bool",
          "name": "isActive",
          "type": "bool"
        },
        {
          "components": [
            {
              "internalType": "uint256",
              "name": "_value",
              "type": "uint256"
            }
          ],
          "internalType": "struct Counters.Counter",
          "name": "measureIdCounter",
          "type": "tuple"
        }
      ],
      "stateMutability": "view",
      "type": "function",
      "constant": true
    },
    {
      "inputs": [
        {
          "internalType": "bytes6",
          "name": "_version",
          "type": "bytes6"
        },
        {
          "internalType": "string",
          "name": "_description",
          "type": "string"
        },
        {
          "internalType": "bytes6",
          "name": "_tempCode",
          "type": "bytes6"
        },
        {
          "internalType": "uint8",
          "name": "_nbTemp",
          "type": "uint8"
        }
      ],
      "name": "addService",
      "outputs": [],
      "stateMutability": "nonpayable",
      "type": "function"
    },
    {
      "inputs": [
        {
          "internalType": "uint256",
          "name": "_service_id",
          "type": "uint256"
        }
      ],
      "name": "getService",
      "outputs": [
        {
          "internalType": "bytes6",
          "name": "version",
          "type": "bytes6"
        },
        {
          "internalType": "string",
          "name": "description",
          "type": "string"
        },
        {
          "internalType": "bytes6",
          "name": "tempCode",
          "type": "bytes6"
        },
        {
          "internalType": "uint8",
          "name": "nbTemp",
          "type": "uint8"
        },
        {
          "internalType": "bool",
          "name": "isActive",
          "type": "bool"
        },
        {
          "internalType": "uint256",
          "name": "measureIdCounter",
          "type": "uint256"
        }
      ],
      "stateMutability": "view",
      "type": "function",
      "constant": true
    },
    {
      "inputs": [
        {
          "internalType": "uint256",
          "name": "_serviceId",
          "type": "uint256"
        },
        {
          "internalType": "bytes28",
          "name": "_measureHeader",
          "type": "bytes28"
        },
        {
          "internalType": "bytes32",
          "name": "_measurebody",
          "type": "bytes32"
        }
      ],
      "name": "addMeasure",
      "outputs": [],
      "stateMutability": "nonpayable",
      "type": "function"
    }
  ],
  "bytecode": "0x608060405234801561001057600080fd5b50610f0b806100206000396000f3fe608060405234801561001057600080fd5b50600436106100625760003560e01c80632048310a146100675780635c4e3eff14610083578063c0667af5146100b3578063c22c4f43146100e3578063e692f58014610118578063ef0e239b14610134575b600080fd5b610081600480360381019061007c919061098a565b610169565b005b61009d60048036038101906100989190610a7d565b610302565b6040516100aa9190610b92565b60405180910390f35b6100cd60048036038101906100c89190610a7d565b610333565b6040516100da9190610b77565b60405180910390f35b6100fd60048036038101906100f89190610a05565b61036e565b60405161010f96959493929190610bad565b60405180910390f35b610132600480360381019061012d9190610a2e565b61048a565b005b61014e60048036038101906101499190610a05565b610532565b60405161016096959493929190610c15565b60405180910390f35b610171610803565b6040518060c001604052808679ffffffffffffffffffffffffffffffffffffffffffffffffffff191681526020018581526020018479ffffffffffffffffffffffffffffffffffffffffffffffffffff191681526020018360ff1681526020016001151581526020018281525060016101ea60006107df565b81548110610221577f4e487b7100000000000000000000000000000000000000000000000000000000600052603260045260246000fd5b906000526020600020906004020160008201518160000160006101000a81548165ffffffffffff021916908360d01c02179055506020820151816001019080519060200190610271929190610816565b5060408201518160020160006101000a81548165ffffffffffff021916908360d01c021790555060608201518160020160066101000a81548160ff021916908360ff16021790555060808201518160020160076101000a81548160ff02191690831515021790555060a0820151816003016000820151816000015550509050506102fb60006107ed565b5050505050565b6003602052816000526040600020818154811061031e57600080fd5b90600052602060002001600091509150505481565b6002602052816000526040600020818154811061034f57600080fd5b906000526020600020016000915091509054906101000a900460201b81565b6001818154811061037e57600080fd5b90600052602060002090600402016000915090508060000160009054906101000a900460d01b908060010180546103b490610dc1565b80601f01602080910402602001604051908101604052809291908181526020018280546103e090610dc1565b801561042d5780601f106104025761010080835404028352916020019161042d565b820191906000526020600020905b81548152906001019060200180831161041057829003601f168201915b5050505050908060020160009054906101000a900460d01b908060020160069054906101000a900460ff16908060020160079054906101000a900460ff169080600301604051806020016040529081600082015481525050905086565b60026000848152602001908152602001600020829080600181540180825580915050600190039060005260206000200160009091909190916101000a8154817bffffffffffffffffffffffffffffffffffffffffffffffffffffffff021916908360201c021790555060036000848152602001908152602001600020819080600181540180825580915050600190039060005260206000200160009091909190915055505050565b6000606060008060008060018781548110610576577f4e487b7100000000000000000000000000000000000000000000000000000000600052603260045260246000fd5b906000526020600020906004020160000160009054906101000a900460d01b600188815481106105cf577f4e487b7100000000000000000000000000000000000000000000000000000000600052603260045260246000fd5b90600052602060002090600402016001016001898154811061061a577f4e487b7100000000000000000000000000000000000000000000000000000000600052603260045260246000fd5b906000526020600020906004020160020160009054906101000a900460d01b60018a81548110610673577f4e487b7100000000000000000000000000000000000000000000000000000000600052603260045260246000fd5b906000526020600020906004020160020160069054906101000a900460ff1660018b815481106106cc577f4e487b7100000000000000000000000000000000000000000000000000000000600052603260045260246000fd5b906000526020600020906004020160020160079054906101000a900460ff1661073e60018d81548110610728577f4e487b7100000000000000000000000000000000000000000000000000000000600052603260045260246000fd5b90600052602060002090600402016003016107df565b84805461074a90610dc1565b80601f016020809104026020016040519081016040528092919081815260200182805461077690610dc1565b80156107c35780601f10610798576101008083540402835291602001916107c3565b820191906000526020600020905b8154815290600101906020018083116107a657829003601f168201915b5050505050945095509550955095509550955091939550919395565b600081600001549050919050565b6001816000016000828254019250508190555050565b6040518060200160405280600081525090565b82805461082290610dc1565b90600052602060002090601f016020900481019282610844576000855561088b565b82601f1061085d57805160ff191683800117855561088b565b8280016001018555821561088b579182015b8281111561088a57825182559160200191906001019061086f565b5b509050610898919061089c565b5090565b5b808211156108b557600081600090555060010161089d565b5090565b60006108cc6108c784610cae565b610c7d565b9050828152602081018484840111156108e457600080fd5b6108ef848285610d7f565b509392505050565b60008135905061090681610e62565b92915050565b60008135905061091b81610e79565b92915050565b60008135905061093081610e90565b92915050565b600082601f83011261094757600080fd5b81356109578482602086016108b9565b91505092915050565b60008135905061096f81610ea7565b92915050565b60008135905061098481610ebe565b92915050565b600080600080608085870312156109a057600080fd5b60006109ae87828801610921565b945050602085013567ffffffffffffffff8111156109cb57600080fd5b6109d787828801610936565b93505060406109e887828801610921565b92505060606109f987828801610975565b91505092959194509250565b600060208284031215610a1757600080fd5b6000610a2584828501610960565b91505092915050565b600080600060608486031215610a4357600080fd5b6000610a5186828701610960565b9350506020610a62868287016108f7565b9250506040610a738682870161090c565b9150509250925092565b60008060408385031215610a9057600080fd5b6000610a9e85828601610960565b9250506020610aaf85828601610960565b9150509250929050565b610ac281610cfa565b82525050565b610ad181610d06565b82525050565b610ae081610d32565b82525050565b610aef81610d3c565b82525050565b6000610b0082610cde565b610b0a8185610ce9565b9350610b1a818560208601610d8e565b610b2381610e51565b840191505092915050565b602082016000820151610b446000850182610b4a565b50505050565b610b5381610d68565b82525050565b610b6281610d68565b82525050565b610b7181610d72565b82525050565b6000602082019050610b8c6000830184610ac8565b92915050565b6000602082019050610ba76000830184610ad7565b92915050565b600060c082019050610bc26000830189610ae6565b8181036020830152610bd48188610af5565b9050610be36040830187610ae6565b610bf06060830186610b68565b610bfd6080830185610ab9565b610c0a60a0830184610b2e565b979650505050505050565b600060c082019050610c2a6000830189610ae6565b8181036020830152610c3c8188610af5565b9050610c4b6040830187610ae6565b610c586060830186610b68565b610c656080830185610ab9565b610c7260a0830184610b59565b979650505050505050565b6000604051905081810181811067ffffffffffffffff82111715610ca457610ca3610e22565b5b8060405250919050565b600067ffffffffffffffff821115610cc957610cc8610e22565b5b601f19601f8301169050602081019050919050565b600081519050919050565b600082825260208201905092915050565b60008115159050919050565b60007fffffffffffffffffffffffffffffffffffffffffffffffffffffffff0000000082169050919050565b6000819050919050565b60007fffffffffffff000000000000000000000000000000000000000000000000000082169050919050565b6000819050919050565b600060ff82169050919050565b82818337600083830152505050565b60005b83811015610dac578082015181840152602081019050610d91565b83811115610dbb576000848401525b50505050565b60006002820490506001821680610dd957607f821691505b60208210811415610ded57610dec610df3565b5b50919050565b7f4e487b7100000000000000000000000000000000000000000000000000000000600052602260045260246000fd5b7f4e487b7100000000000000000000000000000000000000000000000000000000600052604160045260246000fd5b6000601f19601f8301169050919050565b610e6b81610d06565b8114610e7657600080fd5b50565b610e8281610d32565b8114610e8d57600080fd5b50565b610e9981610d3c565b8114610ea457600080fd5b50565b610eb081610d68565b8114610ebb57600080fd5b50565b610ec781610d72565b8114610ed257600080fd5b5056fea264697066735822122064af608b70c783f4b8cbfe02f810afd4f9dc61a1f1b0a7c8f51abffe7d0e4fac64736f6c63430008000033",
  "immutableReferences": {},
  "source": "// SPDX-License-Identifier: MIT\npragma solidity ^0.8.0;\n\nimport \"../node_modules/@openzeppelin/contracts/utils/Counters.sol\";\n\ncontract ClientContract {\n  using Counters for Counters.Counter;\n\n  /**\n  * @dev Contract Configuration\n  */\n  struct Config {\n    address ownerAdress;\n    address customerAddress;\n    address prevContract;\n    address nextContract;\n    bytes6 version;\n    uint48 datePrevContract;\n    uint48 nextPrevContract;\n  }\n\n  // struct mesure en-tte (28) { \n  //   //V0.1\n  //   Version : bytes6;\n  //   Date : YYYYmmddHHii : byte12\n  //   Type de mesureID : bytes6 - CODE : 3 chiffre/lettre pour la nature physique - 3 chiffre/lettre pour la version\n  //   Type temporel : bytes1 (Horaire, Journalier) Y m d H i\n  //   Nb temporel : bytes2\n  //   Type isAlerte : bytes1 \n  // }\n\n // struct mesure donne (32) { \n  //   Valeur Max : bytes8\n  //   Valeur Moyenne : bytes8\n  //   Valeur Mdiane : bytes8\n  //   Valeur Min : bytes8\n  // }\n\n  struct Service {\n    bytes6 version;\n    string description;\n    bytes6 tempCode;\n    uint8 nbTemp;\n    bool isActive;\n    Counters.Counter measureIdCounter;\n  }\n\n  Counters.Counter private _serviceIdCounter;\n  Service[] public services;\n  mapping(uint => bytes28[]) public serviceHeaderMeasures;\n  mapping(uint => bytes32[]) public serviceBodyMeasures;\n\n  constructor () {\n\n  }\n\n  function addService(\n    bytes6 _version,  \n    string memory _description,\n    bytes6 _tempCode,\n    uint8 _nbTemp) external{\n\n    Counters.Counter memory measureIdCounter;\n\n    services[_serviceIdCounter.current()] = Service(\n      _version, \n      _description, \n      _tempCode, \n      _nbTemp,\n      true,\n      measureIdCounter);\n\n    _serviceIdCounter.increment();\n  }  \n    \n  function getService(\n    uint _service_id) external view returns(\n      bytes6 version, \n      string memory description, \n      bytes6 tempCode, \n      uint8 nbTemp,\n      bool isActive,\n      uint256 measureIdCounter){\n \n      return (\n          services[_service_id].version,\n          services[_service_id].description,\n          services[_service_id].tempCode,\n          services[_service_id].nbTemp,\n          services[_service_id].isActive,\n          services[_service_id].measureIdCounter.current()                 \n      );\n  }\n\n\n  function addMeasure(\n    uint _serviceId,\n    bytes28 _measureHeader,\n    bytes32 _measurebody) external {\n\n    serviceHeaderMeasures[_serviceId].push(_measureHeader);\n    serviceBodyMeasures[_serviceId].push(_measurebody);\n  }\n\n\n}\n",
  "sourcePath": "C:/Users/danie/Desktop/Solidity/Projet final/eco-capt/contracts/ClientContract.sol",
  "compiler": {
    "name": "solc",
    "version": "0.8.0+commit.c7dfd78e.Emscripten.clang"
  },
  "schemaVersion": "3.3.4",
  "updatedAt": "2021-04-03T16:39:19.580Z",
  "networkType": "ethereum",
  "devdoc": {
    "kind": "dev",
    "methods": {},
    "version": 1
  },
  "userdoc": {
    "kind": "user",
    "methods": {},
    "version": 1
  }
}