{
  "contractName": "CustomerContract",
  "abi": [
    {
      "inputs": [
        {
          "internalType": "bytes8",
          "name": "_version",
          "type": "bytes8"
        },
        {
          "internalType": "address",
          "name": "_ledgerAddress",
          "type": "address"
        },
        {
          "internalType": "address",
          "name": "_ecpTokenAddress",
          "type": "address"
        },
        {
          "internalType": "address",
          "name": "_customerAddress",
          "type": "address"
        },
        {
          "internalType": "address",
          "name": "_prevContract",
          "type": "address"
        },
        {
          "internalType": "uint64",
          "name": "_prevContractDate",
          "type": "uint64"
        }
      ],
      "stateMutability": "nonpayable",
      "type": "constructor"
    },
    {
      "anonymous": false,
      "inputs": [
        {
          "indexed": false,
          "internalType": "uint256",
          "name": "_serviceId",
          "type": "uint256"
        },
        {
          "indexed": false,
          "internalType": "uint256",
          "name": "_ruleId",
          "type": "uint256"
        },
        {
          "indexed": false,
          "internalType": "bytes32",
          "name": "_alert",
          "type": "bytes32"
        },
        {
          "indexed": false,
          "internalType": "address",
          "name": "_author",
          "type": "address"
        }
      ],
      "name": "AlertReceive",
      "type": "event"
    },
    {
      "anonymous": false,
      "inputs": [
        {
          "indexed": false,
          "internalType": "string",
          "name": "_message",
          "type": "string"
        },
        {
          "indexed": false,
          "internalType": "address",
          "name": "_author",
          "type": "address"
        }
      ],
      "name": "ContractUpdate",
      "type": "event"
    },
    {
      "anonymous": false,
      "inputs": [
        {
          "indexed": false,
          "internalType": "uint256",
          "name": "_serviceId",
          "type": "uint256"
        },
        {
          "indexed": false,
          "internalType": "bytes32",
          "name": "_header",
          "type": "bytes32"
        },
        {
          "indexed": false,
          "internalType": "bytes32",
          "name": "_body",
          "type": "bytes32"
        },
        {
          "indexed": false,
          "internalType": "address",
          "name": "_author",
          "type": "address"
        }
      ],
      "name": "MeasureReceive",
      "type": "event"
    },
    {
      "anonymous": false,
      "inputs": [
        {
          "indexed": true,
          "internalType": "address",
          "name": "previousOwner",
          "type": "address"
        },
        {
          "indexed": true,
          "internalType": "address",
          "name": "newOwner",
          "type": "address"
        }
      ],
      "name": "OwnershipTransferred",
      "type": "event"
    },
    {
      "anonymous": false,
      "inputs": [
        {
          "indexed": false,
          "internalType": "uint256",
          "name": "_serviceId",
          "type": "uint256"
        },
        {
          "indexed": false,
          "internalType": "bytes6",
          "name": "_iotId",
          "type": "bytes6"
        },
        {
          "indexed": false,
          "internalType": "string",
          "name": "_message",
          "type": "string"
        },
        {
          "indexed": false,
          "internalType": "address",
          "name": "_author",
          "type": "address"
        }
      ],
      "name": "ServiceIotUpdate",
      "type": "event"
    },
    {
      "anonymous": false,
      "inputs": [
        {
          "indexed": false,
          "internalType": "uint256",
          "name": "_serviceId",
          "type": "uint256"
        },
        {
          "indexed": false,
          "internalType": "uint256",
          "name": "_ruleId",
          "type": "uint256"
        },
        {
          "indexed": false,
          "internalType": "string",
          "name": "_message",
          "type": "string"
        },
        {
          "indexed": false,
          "internalType": "address",
          "name": "_author",
          "type": "address"
        }
      ],
      "name": "ServiceRulesUpdate",
      "type": "event"
    },
    {
      "anonymous": false,
      "inputs": [
        {
          "indexed": false,
          "internalType": "uint256",
          "name": "_serviceId",
          "type": "uint256"
        },
        {
          "indexed": false,
          "internalType": "string",
          "name": "_message",
          "type": "string"
        },
        {
          "indexed": false,
          "internalType": "address",
          "name": "_author",
          "type": "address"
        }
      ],
      "name": "ServiceUpdate",
      "type": "event"
    },
    {
      "inputs": [],
      "name": "_myConfig",
      "outputs": [
        {
          "internalType": "bytes8",
          "name": "version",
          "type": "bytes8"
        },
        {
          "internalType": "address",
          "name": "_ledgerAddress",
          "type": "address"
        },
        {
          "internalType": "address",
          "name": "_ecpTokenAddress",
          "type": "address"
        },
        {
          "internalType": "uint64",
          "name": "prevContractDate",
          "type": "uint64"
        },
        {
          "internalType": "uint64",
          "name": "nextContractDate",
          "type": "uint64"
        },
        {
          "internalType": "address",
          "name": "customerAddress",
          "type": "address"
        },
        {
          "internalType": "address",
          "name": "prevContract",
          "type": "address"
        },
        {
          "internalType": "address",
          "name": "nextContract",
          "type": "address"
        },
        {
          "internalType": "bool",
          "name": "isActive",
          "type": "bool"
        }
      ],
      "stateMutability": "view",
      "type": "function",
      "constant": true
    },
    {
      "inputs": [],
      "name": "_ruleIdCounter",
      "outputs": [
        {
          "internalType": "uint256",
          "name": "_value",
          "type": "uint256"
        }
      ],
      "stateMutability": "view",
      "type": "function",
      "constant": true
    },
    {
      "inputs": [],
      "name": "_serviceIdCounter",
      "outputs": [
        {
          "internalType": "uint256",
          "name": "_value",
          "type": "uint256"
        }
      ],
      "stateMutability": "view",
      "type": "function",
      "constant": true
    },
    {
      "inputs": [
        {
          "internalType": "uint256",
          "name": "",
          "type": "uint256"
        },
        {
          "internalType": "bytes6",
          "name": "",
          "type": "bytes6"
        }
      ],
      "name": "_serviceIots",
      "outputs": [
        {
          "internalType": "string",
          "name": "description",
          "type": "string"
        },
        {
          "internalType": "bool",
          "name": "isActive",
          "type": "bool"
        }
      ],
      "stateMutability": "view",
      "type": "function",
      "constant": true
    },
    {
      "inputs": [
        {
          "internalType": "uint256",
          "name": "",
          "type": "uint256"
        }
      ],
      "name": "_serviceRules",
      "outputs": [
        {
          "internalType": "bytes8",
          "name": "version",
          "type": "bytes8"
        },
        {
          "internalType": "uint16",
          "name": "serviceId",
          "type": "uint16"
        },
        {
          "internalType": "string",
          "name": "description",
          "type": "string"
        },
        {
          "internalType": "address",
          "name": "legislatorAddress",
          "type": "address"
        },
        {
          "internalType": "uint64",
          "name": "dateOn",
          "type": "uint64"
        },
        {
          "internalType": "uint64",
          "name": "dateOff",
          "type": "uint64"
        },
        {
          "internalType": "bytes4",
          "name": "codeAlert",
          "type": "bytes4"
        },
        {
          "internalType": "bytes8",
          "name": "valueAlert",
          "type": "bytes8"
        },
        {
          "internalType": "bool",
          "name": "isActive",
          "type": "bool"
        },
        {
          "components": [
            {
              "internalType": "uint256",
              "name": "_value",
              "type": "uint256"
            }
          ],
          "internalType": "struct Counters.Counter",
          "name": "alertIdCounter",
          "type": "tuple"
        }
      ],
      "stateMutability": "view",
      "type": "function",
      "constant": true
    },
    {
      "inputs": [
        {
          "internalType": "uint256",
          "name": "",
          "type": "uint256"
        }
      ],
      "name": "_services",
      "outputs": [
        {
          "internalType": "bytes8",
          "name": "version",
          "type": "bytes8"
        },
        {
          "internalType": "bytes8",
          "name": "measureType",
          "type": "bytes8"
        },
        {
          "internalType": "bytes1",
          "name": "timeCode",
          "type": "bytes1"
        },
        {
          "internalType": "uint8",
          "name": "nbTime",
          "type": "uint8"
        },
        {
          "internalType": "bool",
          "name": "isActive",
          "type": "bool"
        },
        {
          "internalType": "string",
          "name": "description",
          "type": "string"
        },
        {
          "internalType": "address",
          "name": "bridgeAddress",
          "type": "address"
        },
        {
          "internalType": "address",
          "name": "techMasterAddress",
          "type": "address"
        },
        {
          "internalType": "address",
          "name": "legislatorAddress",
          "type": "address"
        },
        {
          "components": [
            {
              "internalType": "uint256",
              "name": "_value",
              "type": "uint256"
            }
          ],
          "internalType": "struct Counters.Counter",
          "name": "measureIdCounter",
          "type": "tuple"
        },
        {
          "components": [
            {
              "internalType": "uint256",
              "name": "_value",
              "type": "uint256"
            }
          ],
          "internalType": "struct Counters.Counter",
          "name": "iotIdCounter",
          "type": "tuple"
        }
      ],
      "stateMutability": "view",
      "type": "function",
      "constant": true
    },
    {
      "inputs": [],
      "name": "owner",
      "outputs": [
        {
          "internalType": "address",
          "name": "",
          "type": "address"
        }
      ],
      "stateMutability": "view",
      "type": "function",
      "constant": true
    },
    {
      "inputs": [],
      "name": "renounceOwnership",
      "outputs": [],
      "stateMutability": "nonpayable",
      "type": "function"
    },
    {
      "inputs": [
        {
          "internalType": "address",
          "name": "newOwner",
          "type": "address"
        }
      ],
      "name": "transferOwnership",
      "outputs": [],
      "stateMutability": "nonpayable",
      "type": "function"
    },
    {
      "inputs": [],
      "name": "toggleContract",
      "outputs": [],
      "stateMutability": "nonpayable",
      "type": "function"
    },
    {
      "inputs": [
        {
          "internalType": "bytes8",
          "name": "_version",
          "type": "bytes8"
        },
        {
          "internalType": "string",
          "name": "_description",
          "type": "string"
        },
        {
          "internalType": "bytes8",
          "name": "_measureType",
          "type": "bytes8"
        },
        {
          "internalType": "bytes1",
          "name": "_timeCode",
          "type": "bytes1"
        },
        {
          "internalType": "uint8",
          "name": "_nbTime",
          "type": "uint8"
        }
      ],
      "name": "addService",
      "outputs": [],
      "stateMutability": "nonpayable",
      "type": "function"
    },
    {
      "inputs": [
        {
          "internalType": "uint256",
          "name": "_serviceId",
          "type": "uint256"
        }
      ],
      "name": "toggleService",
      "outputs": [],
      "stateMutability": "nonpayable",
      "type": "function"
    },
    {
      "inputs": [
        {
          "internalType": "uint256",
          "name": "_serviceId",
          "type": "uint256"
        },
        {
          "internalType": "address",
          "name": "_techMasterAddress",
          "type": "address"
        }
      ],
      "name": "setTechMasterAddress",
      "outputs": [],
      "stateMutability": "nonpayable",
      "type": "function"
    },
    {
      "inputs": [
        {
          "internalType": "uint256",
          "name": "_serviceId",
          "type": "uint256"
        },
        {
          "internalType": "address",
          "name": "_legislatorAddress",
          "type": "address"
        }
      ],
      "name": "setLegislatorAddress",
      "outputs": [],
      "stateMutability": "nonpayable",
      "type": "function"
    },
    {
      "inputs": [
        {
          "internalType": "uint256",
          "name": "_serviceId",
          "type": "uint256"
        },
        {
          "internalType": "address",
          "name": "_bridgeAddress",
          "type": "address"
        }
      ],
      "name": "setBridgeAddress",
      "outputs": [],
      "stateMutability": "nonpayable",
      "type": "function"
    },
    {
      "inputs": [
        {
          "internalType": "uint256",
          "name": "_serviceId",
          "type": "uint256"
        },
        {
          "internalType": "bytes32",
          "name": "_measureHeader",
          "type": "bytes32"
        },
        {
          "internalType": "bytes32",
          "name": "_measurebody",
          "type": "bytes32"
        }
      ],
      "name": "addMeasure",
      "outputs": [],
      "stateMutability": "nonpayable",
      "type": "function"
    },
    {
      "inputs": [
        {
          "internalType": "bytes8",
          "name": "_version",
          "type": "bytes8"
        },
        {
          "internalType": "uint16",
          "name": "_serviceId",
          "type": "uint16"
        },
        {
          "internalType": "string",
          "name": "_description",
          "type": "string"
        },
        {
          "internalType": "uint64",
          "name": "_dateOn",
          "type": "uint64"
        },
        {
          "internalType": "uint64",
          "name": "_dateOff",
          "type": "uint64"
        },
        {
          "internalType": "bytes4",
          "name": "_codeAlert",
          "type": "bytes4"
        },
        {
          "internalType": "bytes8",
          "name": "_valueAlert",
          "type": "bytes8"
        }
      ],
      "name": "addRule",
      "outputs": [],
      "stateMutability": "nonpayable",
      "type": "function"
    },
    {
      "inputs": [
        {
          "internalType": "uint256",
          "name": "_ruleId",
          "type": "uint256"
        }
      ],
      "name": "toggleRule",
      "outputs": [],
      "stateMutability": "nonpayable",
      "type": "function"
    },
    {
      "inputs": [
        {
          "internalType": "uint256",
          "name": "_serviceId",
          "type": "uint256"
        },
        {
          "internalType": "uint256",
          "name": "_ruleId",
          "type": "uint256"
        },
        {
          "internalType": "bytes32",
          "name": "_alertBody",
          "type": "bytes32"
        }
      ],
      "name": "addAlert",
      "outputs": [],
      "stateMutability": "nonpayable",
      "type": "function"
    }
  ],
  "bytecode": "0x60806040523480156200001157600080fd5b5060405162004305380380620043058339818101604052810190620000379190620004b3565b6000620000496200046660201b60201c565b9050806000806101000a81548173ffffffffffffffffffffffffffffffffffffffff021916908373ffffffffffffffffffffffffffffffffffffffff1602179055508073ffffffffffffffffffffffffffffffffffffffff16600073ffffffffffffffffffffffffffffffffffffffff167f8be0079c531659141344cd1fd0a4f28419497f9722a3daafe3b4186f6b6457e060405160405180910390a3506040518061012001604052808777ffffffffffffffffffffffffffffffffffffffffffffffff191681526020018673ffffffffffffffffffffffffffffffffffffffff1681526020018573ffffffffffffffffffffffffffffffffffffffff1681526020018267ffffffffffffffff168152602001600067ffffffffffffffff1681526020018473ffffffffffffffffffffffffffffffffffffffff1681526020018373ffffffffffffffffffffffffffffffffffffffff168152602001600073ffffffffffffffffffffffffffffffffffffffff16815260200160011515815250600160008201518160000160006101000a81548167ffffffffffffffff021916908360c01c021790555060208201518160000160086101000a81548173ffffffffffffffffffffffffffffffffffffffff021916908373ffffffffffffffffffffffffffffffffffffffff16021790555060408201518160010160006101000a81548173ffffffffffffffffffffffffffffffffffffffff021916908373ffffffffffffffffffffffffffffffffffffffff16021790555060608201518160010160146101000a81548167ffffffffffffffff021916908367ffffffffffffffff16021790555060808201518160020160006101000a81548167ffffffffffffffff021916908367ffffffffffffffff16021790555060a08201518160020160086101000a81548173ffffffffffffffffffffffffffffffffffffffff021916908373ffffffffffffffffffffffffffffffffffffffff16021790555060c08201518160030160006101000a81548173ffffffffffffffffffffffffffffffffffffffff021916908373ffffffffffffffffffffffffffffffffffffffff16021790555060e08201518160040160006101000a81548173ffffffffffffffffffffffffffffffffffffffff021916908373ffffffffffffffffffffffffffffffffffffffff1602179055506101008201518160040160146101000a81548160ff02191690831515021790555090505083600b60006101000a81548173ffffffffffffffffffffffffffffffffffffffff021916908373ffffffffffffffffffffffffffffffffffffffff16021790555084600c60006101000a81548173ffffffffffffffffffffffffffffffffffffffff021916908373ffffffffffffffffffffffffffffffffffffffff1602179055505050505050506200060b565b600033905090565b6000815190506200047f81620005bd565b92915050565b6000815190506200049681620005d7565b92915050565b600081519050620004ad81620005f1565b92915050565b60008060008060008060c08789031215620004cd57600080fd5b6000620004dd89828a0162000485565b9650506020620004f089828a016200046e565b95505060406200050389828a016200046e565b94505060606200051689828a016200046e565b93505060806200052989828a016200046e565b92505060a06200053c89828a016200049c565b9150509295509295509295565b6000620005568262000589565b9050919050565b60007fffffffffffffffff00000000000000000000000000000000000000000000000082169050919050565b600073ffffffffffffffffffffffffffffffffffffffff82169050919050565b600067ffffffffffffffff82169050919050565b620005c88162000549565b8114620005d457600080fd5b50565b620005e2816200055d565b8114620005ee57600080fd5b50565b620005fc81620005a9565b81146200060857600080fd5b50565b613cea806200061b6000396000f3fe608060405234801561001057600080fd5b50600436106101215760003560e01c80638da5cb5b116100ad578063c700fdf711610071578063c700fdf7146102e8578063da6cd37614610306578063e0c9d4bb14610322578063e8d290841461033e578063f2fde38b1461035a57610121565b80638da5cb5b1461026257806399892f49146102805780639df90028146102a6578063b2e733bf146102b0578063c18ec58c146102cc57610121565b80634c6fdcc6116100f45780634c6fdcc6146101ab5780635813d736146101c7578063715018a6146102005780637ad3155f1461020a5780638181b80d1461022857610121565b806306566faa146101265780630d00605f146101425780632cb95cec1461015e578063390fc6b61461018f575b600080fd5b610140600480360381019061013b9190612d25565b610376565b005b61015c60048036038101906101579190612c1d565b6106de565b005b61017860048036038101906101739190612db0565b610bff565b60405161018692919061355f565b60405180910390f35b6101a960048036038101906101a49190612cd3565b610cc5565b005b6101c560048036038101906101c09190612d25565b610e5a565b005b6101e160048036038101906101dc9190612cd3565b61115b565b6040516101f79a999897969594939291906134bc565b60405180910390f35b6102086112d5565b005b61021261140f565b60405161021f9190613731565b60405180910390f35b610242600480360381019061023d9190612cd3565b61141b565b6040516102599b9a9998979695949392919061340a565b60405180910390f35b61026a6115c6565b6040516102779190613339565b60405180910390f35b6102886115ef565b60405161029d9998979695949392919061337d565b60405180910390f35b6102ae61170d565b005b6102ca60048036038101906102c59190612d61565b6117f2565b005b6102e660048036038101906102e19190612d25565b611b0d565b005b6102f0611e62565b6040516102fd9190613731565b60405180910390f35b610320600480360381019061031b9190612b8e565b611e6e565b005b61033c60048036038101906103379190612cd3565b6122d4565b005b61035860048036038101906103539190612dec565b612432565b005b610374600480360381019061036f9190612b3c565b61274d565b005b600160040160149054906101000a900460ff166103c8576040517f08c379a00000000000000000000000000000000000000000000000000000000081526004016103bf9061363d565b60405180910390fd5b816103d360076128f6565b8110610414576040517f08c379a000000000000000000000000000000000000000000000000000000000815260040161040b9061361d565b60405180910390fd5b6006600082815260200190815260200160002060000160129054906101000a900460ff16610477576040517f08c379a000000000000000000000000000000000000000000000000000000000815260040161046e9061365d565b60405180910390fd5b823373ffffffffffffffffffffffffffffffffffffffff166006600083815260200190815260200160002060030160009054906101000a900473ffffffffffffffffffffffffffffffffffffffff1673ffffffffffffffffffffffffffffffffffffffff16148061051a57503373ffffffffffffffffffffffffffffffffffffffff166105026115c6565b73ffffffffffffffffffffffffffffffffffffffff16145b610559576040517f08c379a00000000000000000000000000000000000000000000000000000000081526004016105509061367d565b60405180910390fd5b82600580600c60009054906101000a900473ffffffffffffffffffffffffffffffffffffffff1673ffffffffffffffffffffffffffffffffffffffff1663fb36802f846040518263ffffffff1660e01b81526004016105b89190613339565b60206040518083038186803b1580156105d057600080fd5b505afa1580156105e4573d6000803e3d6000fd5b505050506040513d601f19601f820116820180604052508101906106089190612cfc565b14610648576040517f08c379a000000000000000000000000000000000000000000000000000000000815260040161063f906135dd565b60405180910390fd5b846006600088815260200190815260200160002060020160006101000a81548173ffffffffffffffffffffffffffffffffffffffff021916908373ffffffffffffffffffffffffffffffffffffffff1602179055507f6eb54bb1fcbc8b072bc7be4d66f909b2316584cb9b6c49bfdb6504b9246a848186336040516106ce9291906137cd565b60405180910390a1505050505050565b600160040160149054906101000a900460ff16610730576040517f08c379a00000000000000000000000000000000000000000000000000000000081526004016107279061363d565b60405180910390fd5b8561ffff1661073f60076128f6565b8110610780576040517f08c379a00000000000000000000000000000000000000000000000000000000081526004016107779061361d565b60405180910390fd5b6006600082815260200190815260200160002060000160129054906101000a900460ff166107e3576040517f08c379a00000000000000000000000000000000000000000000000000000000081526004016107da9061365d565b60405180910390fd5b3373ffffffffffffffffffffffffffffffffffffffff16600660008961ffff16815260200190815260200160002060040160009054906101000a900473ffffffffffffffffffffffffffffffffffffffff1673ffffffffffffffffffffffffffffffffffffffff1614806108a757503373ffffffffffffffffffffffffffffffffffffffff16600160020160089054906101000a900473ffffffffffffffffffffffffffffffffffffffff1673ffffffffffffffffffffffffffffffffffffffff16145b806108e457503373ffffffffffffffffffffffffffffffffffffffff166108cc6115c6565b73ffffffffffffffffffffffffffffffffffffffff16145b610923576040517f08c379a000000000000000000000000000000000000000000000000000000000815260040161091a9061367d565b60405180910390fd5b61092b612922565b6040518061014001604052808a77ffffffffffffffffffffffffffffffffffffffffffffffff191681526020018961ffff1681526020018881526020013373ffffffffffffffffffffffffffffffffffffffff1681526020018767ffffffffffffffff1681526020018667ffffffffffffffff168152602001857bffffffffffffffffffffffffffffffffffffffffffffffffffffffff191681526020018477ffffffffffffffffffffffffffffffffffffffffffffffff191681526020016001151581526020018281525060096000610a05600a6128f6565b815260200190815260200160002060008201518160000160006101000a81548167ffffffffffffffff021916908360c01c021790555060208201518160000160086101000a81548161ffff021916908361ffff1602179055506040820151816001019080519060200190610a7a929190612935565b5060608201518160020160006101000a81548173ffffffffffffffffffffffffffffffffffffffff021916908373ffffffffffffffffffffffffffffffffffffffff16021790555060808201518160020160146101000a81548167ffffffffffffffff021916908367ffffffffffffffff16021790555060a08201518160030160006101000a81548167ffffffffffffffff021916908367ffffffffffffffff16021790555060c08201518160030160086101000a81548163ffffffff021916908360e01c021790555060e082015181600301600c6101000a81548167ffffffffffffffff021916908360c01c02179055506101008201518160030160146101000a81548160ff021916908315150217905550610120820151816004016000820151816000015550509050507fd265572d82340957d58225c4530aa27f8dd410b1d09d9a4c77677d55a01cc1a188610bd2600a6128f6565b33604051610be2939291906136e7565b60405180910390a1610bf4600a612904565b505050505050505050565b600860205281600052604060002060205280600052604060002060009150915050806000018054610c2f90613b16565b80601f0160208091040260200160405190810160405280929190818152602001828054610c5b90613b16565b8015610ca85780601f10610c7d57610100808354040283529160200191610ca8565b820191906000526020600020905b815481529060010190602001808311610c8b57829003601f168201915b5050505050908060010160009054906101000a900460ff16905082565b6009600082815260200190815260200160002060020160009054906101000a900473ffffffffffffffffffffffffffffffffffffffff1673ffffffffffffffffffffffffffffffffffffffff163373ffffffffffffffffffffffffffffffffffffffff161480610d675750610d386115c6565b73ffffffffffffffffffffffffffffffffffffffff163373ffffffffffffffffffffffffffffffffffffffff16145b610da6576040517f08c379a0000000000000000000000000000000000000000000000000000000008152600401610d9d9061367d565b60405180910390fd5b7fd265572d82340957d58225c4530aa27f8dd410b1d09d9a4c77677d55a01cc1a16009600083815260200190815260200160002060000160089054906101000a900461ffff168233604051610dfd9392919061369d565b60405180910390a16009600082815260200190815260200160002060030160149054906101000a900460ff16156009600083815260200190815260200160002060030160146101000a81548160ff02191690831515021790555050565b600160040160149054906101000a900460ff16610eac576040517f08c379a0000000000000000000000000000000000000000000000000000000008152600401610ea39061363d565b60405180910390fd5b81610eb760076128f6565b8110610ef8576040517f08c379a0000000000000000000000000000000000000000000000000000000008152600401610eef9061361d565b60405180910390fd5b6006600082815260200190815260200160002060000160129054906101000a900460ff16610f5b576040517f08c379a0000000000000000000000000000000000000000000000000000000008152600401610f529061365d565b60405180910390fd5b81600480600c60009054906101000a900473ffffffffffffffffffffffffffffffffffffffff1673ffffffffffffffffffffffffffffffffffffffff1663fb36802f846040518263ffffffff1660e01b8152600401610fba9190613339565b60206040518083038186803b158015610fd257600080fd5b505afa158015610fe6573d6000803e3d6000fd5b505050506040513d601f19601f8201168201806040525081019061100a9190612cfc565b1461104a576040517f08c379a0000000000000000000000000000000000000000000000000000000008152600401611041906135dd565b60405180910390fd5b61105261291a565b73ffffffffffffffffffffffffffffffffffffffff166110706115c6565b73ffffffffffffffffffffffffffffffffffffffff16146110c6576040517f08c379a00000000000000000000000000000000000000000000000000000000081526004016110bd906135fd565b60405180910390fd5b836006600087815260200190815260200160002060030160006101000a81548173ffffffffffffffffffffffffffffffffffffffff021916908373ffffffffffffffffffffffffffffffffffffffff1602179055507f6eb54bb1fcbc8b072bc7be4d66f909b2316584cb9b6c49bfdb6504b9246a8481853360405161114c929190613791565b60405180910390a15050505050565b60096020528060005260406000206000915090508060000160009054906101000a900460c01b908060000160089054906101000a900461ffff16908060010180546111a590613b16565b80601f01602080910402602001604051908101604052809291908181526020018280546111d190613b16565b801561121e5780601f106111f35761010080835404028352916020019161121e565b820191906000526020600020905b81548152906001019060200180831161120157829003601f168201915b5050505050908060020160009054906101000a900473ffffffffffffffffffffffffffffffffffffffff16908060020160149054906101000a900467ffffffffffffffff16908060030160009054906101000a900467ffffffffffffffff16908060030160089054906101000a900460e01b9080600301600c9054906101000a900460c01b908060030160149054906101000a900460ff16908060040160405180602001604052908160008201548152505090508a565b6112dd61291a565b73ffffffffffffffffffffffffffffffffffffffff166112fb6115c6565b73ffffffffffffffffffffffffffffffffffffffff1614611351576040517f08c379a0000000000000000000000000000000000000000000000000000000008152600401611348906135fd565b60405180910390fd5b600073ffffffffffffffffffffffffffffffffffffffff1660008054906101000a900473ffffffffffffffffffffffffffffffffffffffff1673ffffffffffffffffffffffffffffffffffffffff167f8be0079c531659141344cd1fd0a4f28419497f9722a3daafe3b4186f6b6457e060405160405180910390a360008060006101000a81548173ffffffffffffffffffffffffffffffffffffffff021916908373ffffffffffffffffffffffffffffffffffffffff160217905550565b600a8060000154905081565b60066020528060005260406000206000915090508060000160009054906101000a900460c01b908060000160089054906101000a900460c01b908060000160109054906101000a900460f81b908060000160119054906101000a900460ff16908060000160129054906101000a900460ff169080600101805461149d90613b16565b80601f01602080910402602001604051908101604052809291908181526020018280546114c990613b16565b80156115165780601f106114eb57610100808354040283529160200191611516565b820191906000526020600020905b8154815290600101906020018083116114f957829003601f168201915b5050505050908060020160009054906101000a900473ffffffffffffffffffffffffffffffffffffffff16908060030160009054906101000a900473ffffffffffffffffffffffffffffffffffffffff16908060040160009054906101000a900473ffffffffffffffffffffffffffffffffffffffff169080600501604051806020016040529081600082015481525050908060060160405180602001604052908160008201548152505090508b565b60008060009054906101000a900473ffffffffffffffffffffffffffffffffffffffff16905090565b60018060000160009054906101000a900460c01b908060000160089054906101000a900473ffffffffffffffffffffffffffffffffffffffff16908060010160009054906101000a900473ffffffffffffffffffffffffffffffffffffffff16908060010160149054906101000a900467ffffffffffffffff16908060020160009054906101000a900467ffffffffffffffff16908060020160089054906101000a900473ffffffffffffffffffffffffffffffffffffffff16908060030160009054906101000a900473ffffffffffffffffffffffffffffffffffffffff16908060040160009054906101000a900473ffffffffffffffffffffffffffffffffffffffff16908060040160149054906101000a900460ff16905089565b61171561291a565b73ffffffffffffffffffffffffffffffffffffffff166117336115c6565b73ffffffffffffffffffffffffffffffffffffffff1614611789576040517f08c379a0000000000000000000000000000000000000000000000000000000008152600401611780906135fd565b60405180910390fd5b7f74851bb416411c1b4cb986c13ce9b6a9e973e7948f03fc2e574ca42a6d3724d3336040516117b891906135af565b60405180910390a1600160040160149054906101000a900460ff1615600160040160146101000a81548160ff021916908315150217905550565b600160040160149054906101000a900460ff16611844576040517f08c379a000000000000000000000000000000000000000000000000000000000815260040161183b9061363d565b60405180910390fd5b8261184f60076128f6565b8110611890576040517f08c379a00000000000000000000000000000000000000000000000000000000081526004016118879061361d565b60405180910390fd5b6006600082815260200190815260200160002060000160129054906101000a900460ff166118f3576040517f08c379a00000000000000000000000000000000000000000000000000000000081526004016118ea9061365d565b60405180910390fd5b833373ffffffffffffffffffffffffffffffffffffffff166006600083815260200190815260200160002060020160009054906101000a900473ffffffffffffffffffffffffffffffffffffffff1673ffffffffffffffffffffffffffffffffffffffff16148061199657503373ffffffffffffffffffffffffffffffffffffffff1661197e6115c6565b73ffffffffffffffffffffffffffffffffffffffff16145b6119d5576040517f08c379a00000000000000000000000000000000000000000000000000000000081526004016119cc9061367d565b60405180910390fd5b600b60009054906101000a900473ffffffffffffffffffffffffffffffffffffffff1673ffffffffffffffffffffffffffffffffffffffff1663a9059cbb600160000160089054906101000a900473ffffffffffffffffffffffffffffffffffffffff1660016040518363ffffffff1660e01b8152600401611a58929190613354565b602060405180830381600087803b158015611a7257600080fd5b505af1158015611a86573d6000803e3d6000fd5b505050506040513d601f19601f82011682018060405250810190611aaa9190612b65565b50611ac960066000878152602001908152602001600020600501612904565b7f818366328240e2ab5877d5eed27c1f3803a716f5700034371e2e520c650f574585858533604051611afe949392919061374c565b60405180910390a15050505050565b600160040160149054906101000a900460ff16611b5f576040517f08c379a0000000000000000000000000000000000000000000000000000000008152600401611b569061363d565b60405180910390fd5b81611b6a60076128f6565b8110611bab576040517f08c379a0000000000000000000000000000000000000000000000000000000008152600401611ba29061361d565b60405180910390fd5b6006600082815260200190815260200160002060000160129054906101000a900460ff16611c0e576040517f08c379a0000000000000000000000000000000000000000000000000000000008152600401611c059061365d565b60405180910390fd5b3373ffffffffffffffffffffffffffffffffffffffff16600160020160089054906101000a900473ffffffffffffffffffffffffffffffffffffffff1673ffffffffffffffffffffffffffffffffffffffff161480611c9f57503373ffffffffffffffffffffffffffffffffffffffff16611c876115c6565b73ffffffffffffffffffffffffffffffffffffffff16145b611cde576040517f08c379a0000000000000000000000000000000000000000000000000000000008152600401611cd59061367d565b60405180910390fd5b81600380600c60009054906101000a900473ffffffffffffffffffffffffffffffffffffffff1673ffffffffffffffffffffffffffffffffffffffff1663fb36802f846040518263ffffffff1660e01b8152600401611d3d9190613339565b60206040518083038186803b158015611d5557600080fd5b505afa158015611d69573d6000803e3d6000fd5b505050506040513d601f19601f82011682018060405250810190611d8d9190612cfc565b14611dcd576040517f08c379a0000000000000000000000000000000000000000000000000000000008152600401611dc4906135dd565b60405180910390fd5b836006600087815260200190815260200160002060040160006101000a81548173ffffffffffffffffffffffffffffffffffffffff021916908373ffffffffffffffffffffffffffffffffffffffff1602179055507f6eb54bb1fcbc8b072bc7be4d66f909b2316584cb9b6c49bfdb6504b9246a84818533604051611e53929190613809565b60405180910390a15050505050565b60078060000154905081565b3373ffffffffffffffffffffffffffffffffffffffff16600160020160089054906101000a900473ffffffffffffffffffffffffffffffffffffffff1673ffffffffffffffffffffffffffffffffffffffff161480611eff57503373ffffffffffffffffffffffffffffffffffffffff16611ee76115c6565b73ffffffffffffffffffffffffffffffffffffffff16145b611f3e576040517f08c379a0000000000000000000000000000000000000000000000000000000008152600401611f359061367d565b60405180910390fd5b600160040160149054906101000a900460ff16611f90576040517f08c379a0000000000000000000000000000000000000000000000000000000008152600401611f879061363d565b60405180910390fd5b611f98612922565b611fa0612922565b6040518061016001604052808877ffffffffffffffffffffffffffffffffffffffffffffffff191681526020018677ffffffffffffffffffffffffffffffffffffffffffffffff19168152602001857effffffffffffffffffffffffffffffffffffffffffffffffffffffffffffff191681526020018460ff168152602001600115158152602001878152602001600073ffffffffffffffffffffffffffffffffffffffff168152602001600073ffffffffffffffffffffffffffffffffffffffff168152602001600073ffffffffffffffffffffffffffffffffffffffff168152602001838152602001828152506006600061209d60076128f6565b815260200190815260200160002060008201518160000160006101000a81548167ffffffffffffffff021916908360c01c021790555060208201518160000160086101000a81548167ffffffffffffffff021916908360c01c021790555060408201518160000160106101000a81548160ff021916908360f81c021790555060608201518160000160116101000a81548160ff021916908360ff16021790555060808201518160000160126101000a81548160ff02191690831515021790555060a0820151816001019080519060200190612179929190612935565b5060c08201518160020160006101000a81548173ffffffffffffffffffffffffffffffffffffffff021916908373ffffffffffffffffffffffffffffffffffffffff16021790555060e08201518160030160006101000a81548173ffffffffffffffffffffffffffffffffffffffff021916908373ffffffffffffffffffffffffffffffffffffffff1602179055506101008201518160040160006101000a81548173ffffffffffffffffffffffffffffffffffffffff021916908373ffffffffffffffffffffffffffffffffffffffff16021790555061012082015181600501600082015181600001555050610140820151816006016000820151816000015550509050507f6eb54bb1fcbc8b072bc7be4d66f909b2316584cb9b6c49bfdb6504b9246a84816122aa60076128f6565b336040516122b9929190613845565b60405180910390a16122cb6007612904565b50505050505050565b3373ffffffffffffffffffffffffffffffffffffffff16600160020160089054906101000a900473ffffffffffffffffffffffffffffffffffffffff1673ffffffffffffffffffffffffffffffffffffffff16148061236557503373ffffffffffffffffffffffffffffffffffffffff1661234d6115c6565b73ffffffffffffffffffffffffffffffffffffffff16145b6123a4576040517f08c379a000000000000000000000000000000000000000000000000000000000815260040161239b9061367d565b60405180910390fd5b7f6eb54bb1fcbc8b072bc7be4d66f909b2316584cb9b6c49bfdb6504b9246a848181336040516123d5929190613881565b60405180910390a16006600082815260200190815260200160002060000160129054906101000a900460ff16156006600083815260200190815260200160002060000160126101000a81548160ff02191690831515021790555050565b600160040160149054906101000a900460ff16612484576040517f08c379a000000000000000000000000000000000000000000000000000000000815260040161247b9061363d565b60405180910390fd5b8261248f60076128f6565b81106124d0576040517f08c379a00000000000000000000000000000000000000000000000000000000081526004016124c79061361d565b60405180910390fd5b6006600082815260200190815260200160002060000160129054906101000a900460ff16612533576040517f08c379a000000000000000000000000000000000000000000000000000000000815260040161252a9061365d565b60405180910390fd5b833373ffffffffffffffffffffffffffffffffffffffff166006600083815260200190815260200160002060020160009054906101000a900473ffffffffffffffffffffffffffffffffffffffff1673ffffffffffffffffffffffffffffffffffffffff1614806125d657503373ffffffffffffffffffffffffffffffffffffffff166125be6115c6565b73ffffffffffffffffffffffffffffffffffffffff16145b612615576040517f08c379a000000000000000000000000000000000000000000000000000000000815260040161260c9061367d565b60405180910390fd5b600b60009054906101000a900473ffffffffffffffffffffffffffffffffffffffff1673ffffffffffffffffffffffffffffffffffffffff1663a9059cbb600160000160089054906101000a900473ffffffffffffffffffffffffffffffffffffffff1660016040518363ffffffff1660e01b8152600401612698929190613354565b602060405180830381600087803b1580156126b257600080fd5b505af11580156126c6573d6000803e3d6000fd5b505050506040513d601f19601f820116820180604052508101906126ea9190612b65565b5061270960096000868152602001908152602001600020600401612904565b7f36134df50fb7d9b784ebe80f4738a13cede0c5efe526e5e9d8b95601d8cc900c8585853360405161273e94939291906138bd565b60405180910390a15050505050565b61275561291a565b73ffffffffffffffffffffffffffffffffffffffff166127736115c6565b73ffffffffffffffffffffffffffffffffffffffff16146127c9576040517f08c379a00000000000000000000000000000000000000000000000000000000081526004016127c0906135fd565b60405180910390fd5b600073ffffffffffffffffffffffffffffffffffffffff168173ffffffffffffffffffffffffffffffffffffffff161415612839576040517f08c379a00000000000000000000000000000000000000000000000000000000081526004016128309061358f565b60405180910390fd5b8073ffffffffffffffffffffffffffffffffffffffff1660008054906101000a900473ffffffffffffffffffffffffffffffffffffffff1673ffffffffffffffffffffffffffffffffffffffff167f8be0079c531659141344cd1fd0a4f28419497f9722a3daafe3b4186f6b6457e060405160405180910390a3806000806101000a81548173ffffffffffffffffffffffffffffffffffffffff021916908373ffffffffffffffffffffffffffffffffffffffff16021790555050565b600081600001549050919050565b6001816000016000828254019250508190555050565b600033905090565b6040518060200160405280600081525090565b82805461294190613b16565b90600052602060002090601f01602090048101928261296357600085556129aa565b82601f1061297c57805160ff19168380011785556129aa565b828001600101855582156129aa579182015b828111156129a957825182559160200191906001019061298e565b5b5090506129b791906129bb565b5090565b5b808211156129d45760008160009055506001016129bc565b5090565b60006129eb6129e684613933565b613902565b905082815260208101848484011115612a0357600080fd5b612a0e848285613ad4565b509392505050565b600081359050612a2581613bb7565b92915050565b600081519050612a3a81613bce565b92915050565b600081359050612a4f81613be5565b92915050565b600081359050612a6481613bfc565b92915050565b600081359050612a7981613c13565b92915050565b600081359050612a8e81613c2a565b92915050565b600081359050612aa381613c41565b92915050565b600082601f830112612aba57600080fd5b8135612aca8482602086016129d8565b91505092915050565b600081359050612ae281613c58565b92915050565b600081359050612af781613c6f565b92915050565b600081519050612b0c81613c6f565b92915050565b600081359050612b2181613c86565b92915050565b600081359050612b3681613c9d565b92915050565b600060208284031215612b4e57600080fd5b6000612b5c84828501612a16565b91505092915050565b600060208284031215612b7757600080fd5b6000612b8584828501612a2b565b91505092915050565b600080600080600060a08688031215612ba657600080fd5b6000612bb488828901612a94565b955050602086013567ffffffffffffffff811115612bd157600080fd5b612bdd88828901612aa9565b9450506040612bee88828901612a94565b9350506060612bff88828901612a40565b9250506080612c1088828901612b27565b9150509295509295909350565b600080600080600080600060e0888a031215612c3857600080fd5b6000612c468a828b01612a94565b9750506020612c578a828b01612ad3565b965050604088013567ffffffffffffffff811115612c7457600080fd5b612c808a828b01612aa9565b9550506060612c918a828b01612b12565b9450506080612ca28a828b01612b12565b93505060a0612cb38a828b01612a6a565b92505060c0612cc48a828b01612a94565b91505092959891949750929550565b600060208284031215612ce557600080fd5b6000612cf384828501612ae8565b91505092915050565b600060208284031215612d0e57600080fd5b6000612d1c84828501612afd565b91505092915050565b60008060408385031215612d3857600080fd5b6000612d4685828601612ae8565b9250506020612d5785828601612a16565b9150509250929050565b600080600060608486031215612d7657600080fd5b6000612d8486828701612ae8565b9350506020612d9586828701612a55565b9250506040612da686828701612a55565b9150509250925092565b60008060408385031215612dc357600080fd5b6000612dd185828601612ae8565b9250506020612de285828601612a7f565b9150509250929050565b600080600060608486031215612e0157600080fd5b6000612e0f86828701612ae8565b9350506020612e2086828701612ae8565b9250506040612e3186828701612a55565b9150509250925092565b612e448161397f565b82525050565b612e5381613991565b82525050565b612e628161399d565b82525050565b612e71816139c9565b82525050565b612e80816139d3565b82525050565b612e8f81613a2b565b82525050565b612e9e81613ab0565b82525050565b6000612eaf82613963565b612eb9818561396e565b9350612ec9818560208601613ae3565b612ed281613ba6565b840191505092915050565b6000612eea60198361396e565b91507f546563684d6173746572204164647265737320757064617465000000000000006000830152602082019050919050565b6000612f2a60158361396e565b91507f42726964676520416464726573732075706461746500000000000000000000006000830152602082019050919050565b6000612f6a60268361396e565b91507f4f776e61626c653a206e6577206f776e657220697320746865207a65726f206160008301527f64647265737300000000000000000000000000000000000000000000000000006020830152604082019050919050565b6000612fd060198361396e565b91507f4c656769736c61746f72204164647265737320757064617465000000000000006000830152602082019050919050565b6000613010600c8361396e565b91507f52756c6573206f6e2f6f666600000000000000000000000000000000000000006000830152602082019050919050565b6000613050600f8361396e565b91507f436f6e7472616374206f6e2f6f666600000000000000000000000000000000006000830152602082019050919050565b6000613090600b8361396e565b91507f4e657720736572766963650000000000000000000000000000000000000000006000830152602082019050919050565b60006130d060118361396e565b91507f4c656467657220636865636b206661696c0000000000000000000000000000006000830152602082019050919050565b600061311060208361396e565b91507f4f776e61626c653a2063616c6c6572206973206e6f7420746865206f776e65726000830152602082019050919050565b600061315060118361396e565b91507f53657276696365206e6f742065786973740000000000000000000000000000006000830152602082019050919050565b6000613190600e8361396e565b91507f53657276696365206f6e2f6f66660000000000000000000000000000000000006000830152602082019050919050565b60006131d060118361396e565b91507f436f6e7472616374206f6666206c696e650000000000000000000000000000006000830152602082019050919050565b600061321060108361396e565b91507f53657276696365206f6666206c696e65000000000000000000000000000000006000830152602082019050919050565b600061325060088361396e565b91507f4e65772072756c650000000000000000000000000000000000000000000000006000830152602082019050919050565b6000613290600d8361396e565b91507f4163636573732064656e696564000000000000000000000000000000000000006000830152602082019050919050565b6020820160008201516132d960008501826132fd565b50505050565b6132e881613a57565b82525050565b6132f781613ac2565b82525050565b61330681613a85565b82525050565b61331581613a85565b82525050565b61332481613a8f565b82525050565b61333381613aa3565b82525050565b600060208201905061334e6000830184612e3b565b92915050565b60006040820190506133696000830185612e3b565b6133766020830184612e95565b9392505050565b600061012082019050613393600083018c612e86565b6133a0602083018b612e3b565b6133ad604083018a612e3b565b6133ba606083018961331b565b6133c7608083018861331b565b6133d460a0830187612e3b565b6133e160c0830186612e3b565b6133ee60e0830185612e3b565b6133fc610100830184612e4a565b9a9950505050505050505050565b600061016082019050613420600083018e612e86565b61342d602083018d612e86565b61343a604083018c612e59565b613447606083018b61332a565b613454608083018a612e4a565b81810360a08301526134668189612ea4565b905061347560c0830188612e3b565b61348260e0830187612e3b565b613490610100830186612e3b565b61349e6101208301856132c3565b6134ac6101408301846132c3565b9c9b505050505050505050505050565b6000610140820190506134d2600083018d612e86565b6134df602083018c6132df565b81810360408301526134f1818b612ea4565b9050613500606083018a612e3b565b61350d608083018961331b565b61351a60a083018861331b565b61352760c0830187612e77565b61353460e0830186612e86565b613542610100830185612e4a565b6135506101208301846132c3565b9b9a5050505050505050505050565b600060408201905081810360008301526135798185612ea4565b90506135886020830184612e4a565b9392505050565b600060208201905081810360008301526135a881612f5d565b9050919050565b600060408201905081810360008301526135c881613043565b90506135d76020830184612e3b565b92915050565b600060208201905081810360008301526135f6816130c3565b9050919050565b6000602082019050818103600083015261361681613103565b9050919050565b6000602082019050818103600083015261363681613143565b9050919050565b60006020820190508181036000830152613656816131c3565b9050919050565b6000602082019050818103600083015261367681613203565b9050919050565b6000602082019050818103600083015261369681613283565b9050919050565b60006080820190506136b260008301866132ee565b6136bf602083018561330c565b81810360408301526136d081613003565b90506136df6060830184612e3b565b949350505050565b60006080820190506136fc60008301866132ee565b613709602083018561330c565b818103604083015261371a81613243565b90506137296060830184612e3b565b949350505050565b6000602082019050613746600083018461330c565b92915050565b6000608082019050613761600083018761330c565b61376e6020830186612e68565b61377b6040830185612e68565b6137886060830184612e3b565b95945050505050565b60006060820190506137a6600083018561330c565b81810360208301526137b781612edd565b90506137c66040830184612e3b565b9392505050565b60006060820190506137e2600083018561330c565b81810360208301526137f381612f1d565b90506138026040830184612e3b565b9392505050565b600060608201905061381e600083018561330c565b818103602083015261382f81612fc3565b905061383e6040830184612e3b565b9392505050565b600060608201905061385a600083018561330c565b818103602083015261386b81613083565b905061387a6040830184612e3b565b9392505050565b6000606082019050613896600083018561330c565b81810360208301526138a781613183565b90506138b66040830184612e3b565b9392505050565b60006080820190506138d2600083018761330c565b6138df602083018661330c565b6138ec6040830185612e68565b6138f96060830184612e3b565b95945050505050565b6000604051905081810181811067ffffffffffffffff8211171561392957613928613b77565b5b8060405250919050565b600067ffffffffffffffff82111561394e5761394d613b77565b5b601f19601f8301169050602081019050919050565b600081519050919050565b600082825260208201905092915050565b600061398a82613a65565b9050919050565b60008115159050919050565b60007fff0000000000000000000000000000000000000000000000000000000000000082169050919050565b6000819050919050565b60007fffffffff0000000000000000000000000000000000000000000000000000000082169050919050565b60007fffffffffffff000000000000000000000000000000000000000000000000000082169050919050565b60007fffffffffffffffff00000000000000000000000000000000000000000000000082169050919050565b600061ffff82169050919050565b600073ffffffffffffffffffffffffffffffffffffffff82169050919050565b6000819050919050565b600067ffffffffffffffff82169050919050565b600060ff82169050919050565b6000613abb82613a85565b9050919050565b6000613acd82613a57565b9050919050565b82818337600083830152505050565b60005b83811015613b01578082015181840152602081019050613ae6565b83811115613b10576000848401525b50505050565b60006002820490506001821680613b2e57607f821691505b60208210811415613b4257613b41613b48565b5b50919050565b7f4e487b7100000000000000000000000000000000000000000000000000000000600052602260045260246000fd5b7f4e487b7100000000000000000000000000000000000000000000000000000000600052604160045260246000fd5b6000601f19601f8301169050919050565b613bc08161397f565b8114613bcb57600080fd5b50565b613bd781613991565b8114613be257600080fd5b50565b613bee8161399d565b8114613bf957600080fd5b50565b613c05816139c9565b8114613c1057600080fd5b50565b613c1c816139d3565b8114613c2757600080fd5b50565b613c33816139ff565b8114613c3e57600080fd5b50565b613c4a81613a2b565b8114613c5557600080fd5b50565b613c6181613a57565b8114613c6c57600080fd5b50565b613c7881613a85565b8114613c8357600080fd5b50565b613c8f81613a8f565b8114613c9a57600080fd5b50565b613ca681613aa3565b8114613cb157600080fd5b5056fea2646970667358221220273740e31660cb83b6d9cea47fd1416254008bfc125574814cf4d46316bb253364736f6c63430008000033",
  "immutableReferences": {},
  "source": "// SPDX-License-Identifier: MIT\r\npragma solidity 0.8.0;\r\n\r\nimport \"../node_modules/@openzeppelin/contracts/utils/Counters.sol\";\r\nimport \"../node_modules/@openzeppelin/contracts/access/Ownable.sol\";\r\nimport \"./IECPToken.sol\";\r\nimport \"./ILedgerContract.sol\";\r\n\r\ncontract CustomerContract is Ownable {\r\n    using Counters for Counters.Counter;\r\n    \r\n    // struct MeasureHeader (32) { \r\n    //   //V0.1     XX.XX.XX    00.01.00\r\n    //   version : bytes8\r\n    //   date : YYYYmmddHHii : byte12\r\n    //   measureType : bytes8 - CODE : 4 number/letter for the physical nature - 4 number/letter for the version\r\n    //   timeCode : bytes1 (hourly, daily) Y m d H i\r\n    //   nbTime : bytes3 \r\n    // }\r\n    \r\n    // struct MeasureBody (32) { \r\n    //   Value 1 Max : bytes8\r\n    //   Value 2 Mean : bytes8\r\n    //   Value 3 Mediane : bytes8\r\n    //   Value 4 Min : bytes8\r\n    // }\r\n\r\n    // struct AlertBody (32) { \r\n    //   version : bytes8\r\n    //   codeAlert : bytes4    \r\n    //   date : YYYYmmddHHii : byte12\r\n    //   valueAlert : bytes8\r\n    // }\r\n\r\n    /**\r\n    * @dev Structure of Configuration\r\n    * @notice Version and status of activation\r\n    * @notice Link to other contract\r\n    */\r\n    struct Config {\r\n        bytes8 version;\r\n        address _ledgerAddress;\r\n        address _ecpTokenAddress;        \r\n        uint64 prevContractDate;\r\n        uint64 nextContractDate;\r\n        address customerAddress;\r\n        address prevContract;\r\n        address nextContract;\r\n        bool isActive;\r\n    }\r\n    \r\n    /**\r\n     * @dev Structure of Service\r\n     * @notice Feature_V2 \r\n     */\r\n    struct Service {\r\n        bytes8 version;\r\n        bytes8 measureType;\r\n        bytes1 timeCode;\r\n        uint8 nbTime;\r\n        bool isActive;\r\n        string description;\r\n        address bridgeAddress;\r\n        address techMasterAddress;\r\n        address legislatorAddress;\r\n\r\n        Counters.Counter measureIdCounter;\r\n        Counters.Counter iotIdCounter;     \r\n    }\r\n\r\n    /**\r\n     * @dev Structure of AlertConfig\r\n     * @notice Feature_V2 \r\n     */\r\n    struct Rule {\r\n        bytes8 version;        \r\n        uint16 serviceId;\r\n        string description;   \r\n        address legislatorAddress;\r\n        uint64 dateOn;\r\n        uint64 dateOff;\r\n        bytes4 codeAlert;\r\n        bytes8 valueAlert;\r\n        bool isActive;\r\n\r\n        Counters.Counter alertIdCounter;         \r\n    }\r\n\r\n    /**\r\n     * @dev Structure of Iot\r\n     * @notice Feature_V2 \r\n     */\r\n    struct Iot {   \r\n        string description;\r\n        bool isActive;\r\n    }\r\n\r\n    modifier isContractActive() {\r\n        require(_myConfig.isActive, \"Contract off line\");\r\n        _;\r\n    }\r\n\r\n    modifier isServiceActive(uint _serviceId) {\r\n        require(_serviceId < _serviceIdCounter.current(), \"Service not exist\"); \r\n        require(_services[_serviceId].isActive, \"Service off line\"); \r\n        _;\r\n    }\r\n\r\n    modifier isRulesActive(uint _ruleId) {\r\n        require(_ruleId < _ruleIdCounter.current(), \"Rules not exist\"); \r\n        require(_serviceRules[_ruleId].isActive, \"Rules off line\"); \r\n        _;\r\n    }\r\n\r\n    modifier onlyCustomer() {\r\n        require (_myConfig.customerAddress == msg.sender || owner() ==  msg.sender, \"Access denied\");\r\n        _;\r\n    }\r\n\r\n    modifier onlyBridge(uint _serviceId) {\r\n        require (_services[_serviceId].bridgeAddress == msg.sender || owner() ==  msg.sender, \"Access denied\");\r\n        _;\r\n    }\r\n\r\n    modifier onlyTechMaster(uint _serviceId) {\r\n        require (_services[_serviceId].techMasterAddress == msg.sender || owner() ==  msg.sender, \"Access denied\");\r\n        _;\r\n    }\r\n\r\n    modifier onlyLegislator(uint _serviceId) {\r\n        require (_services[_serviceId].legislatorAddress == msg.sender || owner() ==  msg.sender, \"Access denied\");\r\n        _;\r\n    }\r\n\r\n    modifier checkLedger(address _address, uint _role) {\r\n        require (_ILedgerContract.rootingApps(_address) == _role, \"Ledger check fail\");\r\n        _;\r\n    }\r\n\r\n    event ContractUpdate(string _message, address _author);      \r\n    \r\n    event ServiceUpdate(uint _serviceId, string _message, address _author);  \r\n    event ServiceRulesUpdate(uint _serviceId, uint _ruleId, string _message, address _author); \r\n    event ServiceIotUpdate(uint _serviceId, bytes6 _iotId, string _message, address _author); \r\n\r\n    event MeasureReceive(uint _serviceId, bytes32 _header, bytes32 _body, address _author); \r\n    event AlertReceive(uint _serviceId, uint _ruleId, bytes32 _alert, address _author);        \r\n\r\n    Config public _myConfig;\r\n\r\n    mapping(uint => Service) public _services;\r\n    Counters.Counter public _serviceIdCounter;\r\n\r\n    mapping(uint => mapping(bytes6 => Iot)) public _serviceIots;\r\n\r\n    mapping(uint => Rule) public _serviceRules;\r\n    Counters.Counter public _ruleIdCounter;\r\n\r\n    IECPToken private _ECPToken;\r\n    ILedgerContract private _ILedgerContract;\r\n\r\n    constructor (bytes8 _version, address _ledgerAddress, address _ecpTokenAddress, address _customerAddress, address _prevContract, uint64 _prevContractDate) {\r\n        _myConfig = Config(\r\n            _version,\r\n            _ledgerAddress,\r\n            _ecpTokenAddress,\r\n            _prevContractDate,\r\n            0,\r\n            _customerAddress,\r\n            _prevContract,\r\n            address(0),\r\n            true\r\n        );\r\n\r\n        _ECPToken = IECPToken(_ecpTokenAddress);\r\n        _ILedgerContract = ILedgerContract(_ledgerAddress);\r\n    }\r\n  \r\n    /**\r\n     * @dev toggle a Contract activation or deactivation\r\n     */\r\n    function toggleContract()\r\n        onlyOwner() external {\r\n        emit ContractUpdate(\"Contract on/off\", msg.sender);\r\n        _myConfig.isActive = !_myConfig.isActive;\r\n    }    \r\n\r\n    // SERVICE PART\r\n\r\n     /**\r\n     * @dev add a Service\r\n     * @param _version bytes8 version of service\r\n     * @param _description string description for the dApps interface\r\n     * @param _measureType bytes8 type of measure for the dApps interface\r\n     * @param _timeCode bytes1 time code for the dApps interface\r\n     * @param _nbTime uint8 number of times for the dApps interface\r\n     */\r\n    function addService(\r\n        bytes8 _version,   \r\n        string memory _description,\r\n        bytes8 _measureType,          \r\n        bytes1 _timeCode,\r\n        uint8 _nbTime) \r\n        onlyCustomer() isContractActive() external{\r\n      \r\n        Counters.Counter memory measureIdCounter;       \r\n        Counters.Counter memory iotIdCounter;    \r\n\r\n        _services[_serviceIdCounter.current()] = Service(\r\n        _version, \r\n        _measureType,  \r\n        _timeCode,    \r\n        _nbTime,   \r\n        true,                     \r\n        _description, \r\n        address(0),\r\n        address(0),\r\n        address(0),                     \r\n        measureIdCounter,\r\n        iotIdCounter);\r\n\r\n        emit ServiceUpdate(_serviceIdCounter.current(), \"New service\", msg.sender); \r\n\r\n        _serviceIdCounter.increment();\r\n    }  \r\n\r\n    /**\r\n     * @dev toggle a Service activation or deactivation\r\n     * @param _serviceId index of service\r\n     */\r\n    function toggleService(\r\n        uint _serviceId)\r\n        onlyCustomer() external {\r\n\r\n        emit ServiceUpdate(_serviceId, \"Service on/off\", msg.sender);\r\n\r\n        _services[_serviceId].isActive = !_services[_serviceId].isActive;\r\n    }\r\n\r\n    /**\r\n     * @dev set a TechMasterAddress\r\n     * @param _serviceId index of service \r\n     * @param _techMasterAddress techMaster's address\r\n     */\r\n    function setTechMasterAddress(\r\n        uint _serviceId,\r\n        address _techMasterAddress)\r\n        isContractActive() isServiceActive(_serviceId) checkLedger(_techMasterAddress, 4) onlyOwner() external {  \r\n        \r\n        _services[_serviceId].techMasterAddress = _techMasterAddress;\r\n\r\n        emit ServiceUpdate(_serviceId, \"TechMaster Address update\", msg.sender);\r\n    }     \r\n\r\n    /**\r\n     * @dev set a LegislatorAddress\r\n     * @param _serviceId index of service \r\n     * @param _legislatorAddress legislator's address\r\n     */\r\n    function setLegislatorAddress(\r\n        uint _serviceId,\r\n        address _legislatorAddress)\r\n        isContractActive() isServiceActive(_serviceId) onlyCustomer() checkLedger(_legislatorAddress, 3) external {  \r\n        \r\n        _services[_serviceId].legislatorAddress = _legislatorAddress;\r\n\r\n        emit ServiceUpdate(_serviceId, \"Legislator Address update\", msg.sender);\r\n    }   \r\n\r\n    /**\r\n     * @dev set a BridgeAdress\r\n     * @param _serviceId index of service\r\n     * @param _bridgeAddress bridge's address\r\n     */\r\n    function setBridgeAddress(\r\n        uint _serviceId,\r\n        address _bridgeAddress)\r\n        isContractActive() isServiceActive(_serviceId) onlyTechMaster(_serviceId) checkLedger(_bridgeAddress, 5) external {  \r\n        \r\n        _services[_serviceId].bridgeAddress = _bridgeAddress;\r\n\r\n        emit ServiceUpdate(_serviceId, \"Bridge Address update\", msg.sender);\r\n    }     \r\n\r\n    // MEASURE PART\r\n\r\n    /**\r\n     * @dev add a Measure\r\n     * @param _serviceId index of service \r\n     * @param _measureHeader header of the measure\r\n     * @param _measurebody body of the measure\r\n     */\r\n    function addMeasure(\r\n        uint _serviceId,\r\n        bytes32 _measureHeader,\r\n        bytes32 _measurebody) \r\n        isContractActive() isServiceActive(_serviceId) onlyBridge(_serviceId) external {    \r\n\r\n        _ECPToken.transfer(_myConfig._ledgerAddress, 1);\r\n\r\n        _services[_serviceId].measureIdCounter.increment();\r\n\r\n        emit MeasureReceive(_serviceId, _measureHeader, _measurebody, msg.sender);\r\n    }\r\n\r\n    // ALERT CONFIG PART\r\n\r\n    /**\r\n     * @dev add a fondation's alert config\r\n     * @param _serviceId index of service \r\n     * @param _version service's version\r\n     * @param _description alert config description \r\n     * @param _dateOn alert's starting date\r\n     * @param _dateOff alert's ending date\r\n     * @param _codeAlert alert's code\r\n     * @param _valueAlert alert's value\r\n     */\r\n    function addRule(\r\n        bytes8 _version,   \r\n        uint16 _serviceId,        \r\n        string memory _description,  \r\n        uint64 _dateOn,\r\n        uint64 _dateOff,\r\n        bytes4 _codeAlert,\r\n        bytes8 _valueAlert)\r\n        isContractActive() isServiceActive(_serviceId) external {\r\n\r\n        require (_services[_serviceId].legislatorAddress == msg.sender \r\n        || _myConfig.customerAddress == msg.sender \r\n        || owner() ==  msg.sender, \"Access denied\");\r\n\r\n        Counters.Counter memory alertIdCounter;\r\n\r\n        _serviceRules[_ruleIdCounter.current()] = Rule(\r\n            _version,  \r\n            _serviceId,  \r\n            _description,      \r\n            msg.sender,\r\n            _dateOn,\r\n            _dateOff,\r\n            _codeAlert,\r\n            _valueAlert,\r\n            true,\r\n            alertIdCounter\r\n        );\r\n\r\n        emit ServiceRulesUpdate(_serviceId, _ruleIdCounter.current(), \"New rule\", msg.sender);\r\n\r\n        _ruleIdCounter.increment();\r\n    }\r\n\r\n    /**\r\n     * @dev toggle an alert config\r\n     * @param _ruleId index of the alert config\r\n     */\r\n    function toggleRule(uint _ruleId) \r\n        external {\r\n\r\n        require ((msg.sender == _serviceRules[_ruleId].legislatorAddress) || (msg.sender == owner()), \"Access denied\");\r\n\r\n        emit ServiceRulesUpdate(_serviceRules[_ruleId].serviceId, _ruleId, \"Rules on/off\", msg.sender);\r\n        \r\n        _serviceRules[_ruleId].isActive = !_serviceRules[_ruleId].isActive;\r\n    }       \r\n\r\n    // ALERTS PART\r\n\r\n    /**\r\n     * @dev add an alert\r\n     * @param _serviceId index of service \r\n     * @param _alertBody alert's body\r\n     */    \r\n    function addAlert(\r\n        uint _serviceId,\r\n        uint _ruleId,\r\n        bytes32 _alertBody) \r\n        isContractActive() isServiceActive(_serviceId) onlyBridge(_serviceId) external {         \r\n\r\n        _ECPToken.transfer(_myConfig._ledgerAddress, 1);\r\n\r\n        _serviceRules[_ruleId].alertIdCounter.increment();\r\n\r\n        emit AlertReceive(_serviceId, _ruleId, _alertBody, msg.sender);\r\n    }\r\n\r\n    // SERVICE IOT\r\n\r\n    /**\r\n     * @dev add a sensor to the list\r\n     * @param _serviceId index of service\r\n     * @param _macAddress sensor's mac address\r\n     * @param _description sensor's description\r\n     */      \r\n    // function addIot(\r\n    //     uint _serviceId,\r\n    //     bytes6 _macAddress,\r\n    //     string memory _description) \r\n    //     isContractActive() isServiceActive(_serviceId) onlyTechMaster(_serviceId) external {  \r\n\r\n    //     _serviceIots[_serviceId][_macAddress] = Iot(\r\n    //         _description,      \r\n    //         true\r\n    //     );\r\n\r\n    //     emit ServiceIotUpdate(_serviceId, _macAddress, \"Iot added\", msg.sender); \r\n\r\n    //     _services[_serviceId].iotIdCounter.increment();   \r\n    // }\r\n\r\n    /**\r\n     * @dev toggle a sensor activation or deactivation\r\n     * @param _serviceId index of service\r\n     * @param _macAddress index of sensor\r\n     */     \r\n    // function toggleIOT(\r\n    //     uint _serviceId,\r\n    //     bytes6 _macAddress) \r\n    //     isContractActive() isServiceActive(_serviceId) onlyTechMaster(_serviceId) external { \r\n\r\n    //     emit ServiceIotUpdate(_serviceId, _macAddress, \"Iot on/off\", msg.sender);\r\n\r\n    //     _serviceIots[_serviceId][_macAddress].isActive = !_serviceIots[_serviceId][_macAddress].isActive;\r\n    // }\r\n\r\n}\r\n",
  "sourcePath": "C:/Users/danie/Desktop/Solidity/Projet final/eco-capt/contracts/CustomerContract.sol",
  "compiler": {
    "name": "solc",
    "version": "0.8.0+commit.c7dfd78e.Emscripten.clang"
  },
  "schemaVersion": "3.3.4",
  "updatedAt": "2021-05-03T16:37:29.147Z",
  "networkType": "ethereum",
  "devdoc": {
    "kind": "dev",
    "methods": {
      "addAlert(uint256,uint256,bytes32)": {
        "details": "add an alert",
        "params": {
          "_alertBody": "alert's body",
          "_serviceId": "index of service "
        }
      },
      "addMeasure(uint256,bytes32,bytes32)": {
        "details": "add a Measure",
        "params": {
          "_measureHeader": "header of the measure",
          "_measurebody": "body of the measure",
          "_serviceId": "index of service "
        }
      },
      "addRule(bytes8,uint16,string,uint64,uint64,bytes4,bytes8)": {
        "details": "add a fondation's alert config",
        "params": {
          "_codeAlert": "alert's code",
          "_dateOff": "alert's ending date",
          "_dateOn": "alert's starting date",
          "_description": "alert config description ",
          "_serviceId": "index of service ",
          "_valueAlert": "alert's value",
          "_version": "service's version"
        }
      },
      "addService(bytes8,string,bytes8,bytes1,uint8)": {
        "details": "add a Service",
        "params": {
          "_description": "string description for the dApps interface",
          "_measureType": "bytes8 type of measure for the dApps interface",
          "_nbTime": "uint8 number of times for the dApps interface",
          "_timeCode": "bytes1 time code for the dApps interface",
          "_version": "bytes8 version of service"
        }
      },
      "owner()": {
        "details": "Returns the address of the current owner."
      },
      "renounceOwnership()": {
        "details": "Leaves the contract without owner. It will not be possible to call `onlyOwner` functions anymore. Can only be called by the current owner. NOTE: Renouncing ownership will leave the contract without an owner, thereby removing any functionality that is only available to the owner."
      },
      "setBridgeAddress(uint256,address)": {
        "details": "set a BridgeAdress",
        "params": {
          "_bridgeAddress": "bridge's address",
          "_serviceId": "index of service"
        }
      },
      "setLegislatorAddress(uint256,address)": {
        "details": "set a LegislatorAddress",
        "params": {
          "_legislatorAddress": "legislator's address",
          "_serviceId": "index of service "
        }
      },
      "setTechMasterAddress(uint256,address)": {
        "details": "set a TechMasterAddress",
        "params": {
          "_serviceId": "index of service ",
          "_techMasterAddress": "techMaster's address"
        }
      },
      "toggleContract()": {
        "details": "toggle a Contract activation or deactivation"
      },
      "toggleRule(uint256)": {
        "details": "toggle an alert config",
        "params": {
          "_ruleId": "index of the alert config"
        }
      },
      "toggleService(uint256)": {
        "details": "toggle a Service activation or deactivation",
        "params": {
          "_serviceId": "index of service"
        }
      },
      "transferOwnership(address)": {
        "details": "Transfers ownership of the contract to a new account (`newOwner`). Can only be called by the current owner."
      }
    },
    "version": 1
  },
  "userdoc": {
    "kind": "user",
    "methods": {},
    "version": 1
  }
}