{
  "contractName": "CustomerContract",
  "abi": [
    {
      "inputs": [
        {
          "internalType": "bytes8",
          "name": "_version",
          "type": "bytes8"
        },
        {
          "internalType": "address",
          "name": "_ledgerAddress",
          "type": "address"
        },
        {
          "internalType": "address",
          "name": "_ecpTokenAddress",
          "type": "address"
        },
        {
          "internalType": "address",
          "name": "_customerAddress",
          "type": "address"
        },
        {
          "internalType": "address",
          "name": "_prevContract",
          "type": "address"
        },
        {
          "internalType": "uint64",
          "name": "_prevContractDate",
          "type": "uint64"
        }
      ],
      "stateMutability": "nonpayable",
      "type": "constructor"
    },
    {
      "anonymous": false,
      "inputs": [
        {
          "indexed": false,
          "internalType": "uint256",
          "name": "_serviceId",
          "type": "uint256"
        },
        {
          "indexed": false,
          "internalType": "uint256",
          "name": "_ruleId",
          "type": "uint256"
        },
        {
          "indexed": false,
          "internalType": "bytes32",
          "name": "_alert",
          "type": "bytes32"
        },
        {
          "indexed": false,
          "internalType": "address",
          "name": "_author",
          "type": "address"
        }
      ],
      "name": "AlertReceive",
      "type": "event"
    },
    {
      "anonymous": false,
      "inputs": [
        {
          "indexed": false,
          "internalType": "string",
          "name": "_message",
          "type": "string"
        },
        {
          "indexed": false,
          "internalType": "address",
          "name": "_author",
          "type": "address"
        }
      ],
      "name": "ContractUpdate",
      "type": "event"
    },
    {
      "anonymous": false,
      "inputs": [
        {
          "indexed": false,
          "internalType": "uint256",
          "name": "_serviceId",
          "type": "uint256"
        },
        {
          "indexed": false,
          "internalType": "bytes32",
          "name": "_header",
          "type": "bytes32"
        },
        {
          "indexed": false,
          "internalType": "bytes32",
          "name": "_body",
          "type": "bytes32"
        },
        {
          "indexed": false,
          "internalType": "address",
          "name": "_author",
          "type": "address"
        }
      ],
      "name": "MeasureReceive",
      "type": "event"
    },
    {
      "anonymous": false,
      "inputs": [
        {
          "indexed": true,
          "internalType": "address",
          "name": "previousOwner",
          "type": "address"
        },
        {
          "indexed": true,
          "internalType": "address",
          "name": "newOwner",
          "type": "address"
        }
      ],
      "name": "OwnershipTransferred",
      "type": "event"
    },
    {
      "anonymous": false,
      "inputs": [
        {
          "indexed": false,
          "internalType": "uint256",
          "name": "_serviceId",
          "type": "uint256"
        },
        {
          "indexed": false,
          "internalType": "bytes6",
          "name": "_iotId",
          "type": "bytes6"
        },
        {
          "indexed": false,
          "internalType": "string",
          "name": "_message",
          "type": "string"
        },
        {
          "indexed": false,
          "internalType": "address",
          "name": "_author",
          "type": "address"
        }
      ],
      "name": "ServiceIotUpdate",
      "type": "event"
    },
    {
      "anonymous": false,
      "inputs": [
        {
          "indexed": false,
          "internalType": "uint256",
          "name": "_serviceId",
          "type": "uint256"
        },
        {
          "indexed": false,
          "internalType": "uint256",
          "name": "_ruleId",
          "type": "uint256"
        },
        {
          "indexed": false,
          "internalType": "string",
          "name": "_message",
          "type": "string"
        },
        {
          "indexed": false,
          "internalType": "address",
          "name": "_author",
          "type": "address"
        }
      ],
      "name": "ServiceRulesUpdate",
      "type": "event"
    },
    {
      "anonymous": false,
      "inputs": [
        {
          "indexed": false,
          "internalType": "uint256",
          "name": "_serviceId",
          "type": "uint256"
        },
        {
          "indexed": false,
          "internalType": "string",
          "name": "_message",
          "type": "string"
        },
        {
          "indexed": false,
          "internalType": "address",
          "name": "_author",
          "type": "address"
        }
      ],
      "name": "ServiceUpdate",
      "type": "event"
    },
    {
      "inputs": [],
      "name": "_myConfig",
      "outputs": [
        {
          "internalType": "bytes8",
          "name": "version",
          "type": "bytes8"
        },
        {
          "internalType": "address",
          "name": "_ledgerAddress",
          "type": "address"
        },
        {
          "internalType": "address",
          "name": "_ecpTokenAddress",
          "type": "address"
        },
        {
          "internalType": "uint64",
          "name": "prevContractDate",
          "type": "uint64"
        },
        {
          "internalType": "uint64",
          "name": "nextContractDate",
          "type": "uint64"
        },
        {
          "internalType": "address",
          "name": "customerAddress",
          "type": "address"
        },
        {
          "internalType": "address",
          "name": "prevContract",
          "type": "address"
        },
        {
          "internalType": "address",
          "name": "nextContract",
          "type": "address"
        },
        {
          "internalType": "bool",
          "name": "isActive",
          "type": "bool"
        }
      ],
      "stateMutability": "view",
      "type": "function",
      "constant": true
    },
    {
      "inputs": [],
      "name": "_ruleIdCounter",
      "outputs": [
        {
          "internalType": "uint256",
          "name": "_value",
          "type": "uint256"
        }
      ],
      "stateMutability": "view",
      "type": "function",
      "constant": true
    },
    {
      "inputs": [],
      "name": "_serviceIdCounter",
      "outputs": [
        {
          "internalType": "uint256",
          "name": "_value",
          "type": "uint256"
        }
      ],
      "stateMutability": "view",
      "type": "function",
      "constant": true
    },
    {
      "inputs": [
        {
          "internalType": "uint256",
          "name": "",
          "type": "uint256"
        },
        {
          "internalType": "bytes6",
          "name": "",
          "type": "bytes6"
        }
      ],
      "name": "_serviceIots",
      "outputs": [
        {
          "internalType": "string",
          "name": "description",
          "type": "string"
        },
        {
          "internalType": "bool",
          "name": "isActive",
          "type": "bool"
        }
      ],
      "stateMutability": "view",
      "type": "function",
      "constant": true
    },
    {
      "inputs": [
        {
          "internalType": "uint256",
          "name": "",
          "type": "uint256"
        }
      ],
      "name": "_serviceRules",
      "outputs": [
        {
          "internalType": "bytes8",
          "name": "version",
          "type": "bytes8"
        },
        {
          "internalType": "uint16",
          "name": "serviceId",
          "type": "uint16"
        },
        {
          "internalType": "string",
          "name": "description",
          "type": "string"
        },
        {
          "internalType": "address",
          "name": "legislatorAddress",
          "type": "address"
        },
        {
          "internalType": "uint64",
          "name": "dateOn",
          "type": "uint64"
        },
        {
          "internalType": "uint64",
          "name": "dateOff",
          "type": "uint64"
        },
        {
          "internalType": "bytes4",
          "name": "codeAlert",
          "type": "bytes4"
        },
        {
          "internalType": "bytes8",
          "name": "valueAlert",
          "type": "bytes8"
        },
        {
          "internalType": "bool",
          "name": "isActive",
          "type": "bool"
        },
        {
          "components": [
            {
              "internalType": "uint256",
              "name": "_value",
              "type": "uint256"
            }
          ],
          "internalType": "struct Counters.Counter",
          "name": "alertIdCounter",
          "type": "tuple"
        }
      ],
      "stateMutability": "view",
      "type": "function",
      "constant": true
    },
    {
      "inputs": [
        {
          "internalType": "uint256",
          "name": "",
          "type": "uint256"
        }
      ],
      "name": "_services",
      "outputs": [
        {
          "internalType": "bytes8",
          "name": "version",
          "type": "bytes8"
        },
        {
          "internalType": "bytes8",
          "name": "measureType",
          "type": "bytes8"
        },
        {
          "internalType": "bytes1",
          "name": "timeCode",
          "type": "bytes1"
        },
        {
          "internalType": "uint8",
          "name": "nbTime",
          "type": "uint8"
        },
        {
          "internalType": "bool",
          "name": "isActive",
          "type": "bool"
        },
        {
          "internalType": "string",
          "name": "description",
          "type": "string"
        },
        {
          "internalType": "address",
          "name": "bridgeAddress",
          "type": "address"
        },
        {
          "internalType": "address",
          "name": "techMasterAddress",
          "type": "address"
        },
        {
          "internalType": "address",
          "name": "legislatorAddress",
          "type": "address"
        },
        {
          "components": [
            {
              "internalType": "uint256",
              "name": "_value",
              "type": "uint256"
            }
          ],
          "internalType": "struct Counters.Counter",
          "name": "measureIdCounter",
          "type": "tuple"
        },
        {
          "components": [
            {
              "internalType": "uint256",
              "name": "_value",
              "type": "uint256"
            }
          ],
          "internalType": "struct Counters.Counter",
          "name": "iotIdCounter",
          "type": "tuple"
        }
      ],
      "stateMutability": "view",
      "type": "function",
      "constant": true
    },
    {
      "inputs": [],
      "name": "owner",
      "outputs": [
        {
          "internalType": "address",
          "name": "",
          "type": "address"
        }
      ],
      "stateMutability": "view",
      "type": "function",
      "constant": true
    },
    {
      "inputs": [],
      "name": "renounceOwnership",
      "outputs": [],
      "stateMutability": "nonpayable",
      "type": "function"
    },
    {
      "inputs": [
        {
          "internalType": "address",
          "name": "newOwner",
          "type": "address"
        }
      ],
      "name": "transferOwnership",
      "outputs": [],
      "stateMutability": "nonpayable",
      "type": "function"
    },
    {
      "inputs": [],
      "name": "toggleContract",
      "outputs": [],
      "stateMutability": "nonpayable",
      "type": "function"
    },
    {
      "inputs": [
        {
          "internalType": "bytes8",
          "name": "_version",
          "type": "bytes8"
        },
        {
          "internalType": "string",
          "name": "_description",
          "type": "string"
        },
        {
          "internalType": "bytes8",
          "name": "_measureType",
          "type": "bytes8"
        },
        {
          "internalType": "bytes1",
          "name": "_timeCode",
          "type": "bytes1"
        },
        {
          "internalType": "uint8",
          "name": "_nbTime",
          "type": "uint8"
        }
      ],
      "name": "addService",
      "outputs": [],
      "stateMutability": "nonpayable",
      "type": "function"
    },
    {
      "inputs": [
        {
          "internalType": "uint256",
          "name": "_serviceId",
          "type": "uint256"
        }
      ],
      "name": "toggleService",
      "outputs": [],
      "stateMutability": "nonpayable",
      "type": "function"
    },
    {
      "inputs": [
        {
          "internalType": "uint256",
          "name": "_serviceId",
          "type": "uint256"
        },
        {
          "internalType": "address",
          "name": "_techMasterAddress",
          "type": "address"
        }
      ],
      "name": "setTechMasterAddress",
      "outputs": [],
      "stateMutability": "nonpayable",
      "type": "function"
    },
    {
      "inputs": [
        {
          "internalType": "uint256",
          "name": "_serviceId",
          "type": "uint256"
        },
        {
          "internalType": "address",
          "name": "_legislatorAddress",
          "type": "address"
        }
      ],
      "name": "setLegislatorAddress",
      "outputs": [],
      "stateMutability": "nonpayable",
      "type": "function"
    },
    {
      "inputs": [
        {
          "internalType": "uint256",
          "name": "_serviceId",
          "type": "uint256"
        },
        {
          "internalType": "address",
          "name": "_bridgeAddress",
          "type": "address"
        }
      ],
      "name": "setBridgeAddress",
      "outputs": [],
      "stateMutability": "nonpayable",
      "type": "function"
    },
    {
      "inputs": [
        {
          "internalType": "uint256",
          "name": "_serviceId",
          "type": "uint256"
        },
        {
          "internalType": "bytes32",
          "name": "_measureHeader",
          "type": "bytes32"
        },
        {
          "internalType": "bytes32",
          "name": "_measurebody",
          "type": "bytes32"
        }
      ],
      "name": "addMeasure",
      "outputs": [],
      "stateMutability": "nonpayable",
      "type": "function"
    },
    {
      "inputs": [
        {
          "internalType": "bytes8",
          "name": "_version",
          "type": "bytes8"
        },
        {
          "internalType": "uint16",
          "name": "_serviceId",
          "type": "uint16"
        },
        {
          "internalType": "string",
          "name": "_description",
          "type": "string"
        },
        {
          "internalType": "uint64",
          "name": "_dateOn",
          "type": "uint64"
        },
        {
          "internalType": "uint64",
          "name": "_dateOff",
          "type": "uint64"
        },
        {
          "internalType": "bytes4",
          "name": "_codeAlert",
          "type": "bytes4"
        },
        {
          "internalType": "bytes8",
          "name": "_valueAlert",
          "type": "bytes8"
        }
      ],
      "name": "addRule",
      "outputs": [],
      "stateMutability": "nonpayable",
      "type": "function"
    },
    {
      "inputs": [
        {
          "internalType": "uint256",
          "name": "_ruleId",
          "type": "uint256"
        }
      ],
      "name": "toggleRule",
      "outputs": [],
      "stateMutability": "nonpayable",
      "type": "function"
    },
    {
      "inputs": [
        {
          "internalType": "uint256",
          "name": "_serviceId",
          "type": "uint256"
        },
        {
          "internalType": "uint256",
          "name": "_ruleId",
          "type": "uint256"
        },
        {
          "internalType": "bytes32",
          "name": "_alertBody",
          "type": "bytes32"
        }
      ],
      "name": "addAlert",
      "outputs": [],
      "stateMutability": "nonpayable",
      "type": "function"
    },
    {
      "inputs": [
        {
          "internalType": "uint256",
          "name": "_serviceId",
          "type": "uint256"
        },
        {
          "internalType": "bytes6",
          "name": "_macAddress",
          "type": "bytes6"
        },
        {
          "internalType": "string",
          "name": "_description",
          "type": "string"
        }
      ],
      "name": "addIot",
      "outputs": [],
      "stateMutability": "nonpayable",
      "type": "function"
    },
    {
      "inputs": [
        {
          "internalType": "uint256",
          "name": "_serviceId",
          "type": "uint256"
        },
        {
          "internalType": "bytes6",
          "name": "_macAddress",
          "type": "bytes6"
        }
      ],
      "name": "toggleIOT",
      "outputs": [],
      "stateMutability": "nonpayable",
      "type": "function"
    }
  ],
  "bytecode": "0x60806040523480156200001157600080fd5b506040516200468438038062004684833981810160405281019062000037919062000472565b6000620000496200042560201b60201c565b9050806000806101000a81548173ffffffffffffffffffffffffffffffffffffffff021916908373ffffffffffffffffffffffffffffffffffffffff1602179055508073ffffffffffffffffffffffffffffffffffffffff16600073ffffffffffffffffffffffffffffffffffffffff167f8be0079c531659141344cd1fd0a4f28419497f9722a3daafe3b4186f6b6457e060405160405180910390a3506040518061012001604052808777ffffffffffffffffffffffffffffffffffffffffffffffff191681526020018673ffffffffffffffffffffffffffffffffffffffff1681526020018573ffffffffffffffffffffffffffffffffffffffff1681526020018267ffffffffffffffff168152602001600067ffffffffffffffff1681526020018473ffffffffffffffffffffffffffffffffffffffff1681526020018373ffffffffffffffffffffffffffffffffffffffff168152602001600073ffffffffffffffffffffffffffffffffffffffff16815260200160011515815250600160008201518160000160006101000a81548167ffffffffffffffff021916908360c01c021790555060208201518160000160086101000a81548173ffffffffffffffffffffffffffffffffffffffff021916908373ffffffffffffffffffffffffffffffffffffffff16021790555060408201518160010160006101000a81548173ffffffffffffffffffffffffffffffffffffffff021916908373ffffffffffffffffffffffffffffffffffffffff16021790555060608201518160010160146101000a81548167ffffffffffffffff021916908367ffffffffffffffff16021790555060808201518160020160006101000a81548167ffffffffffffffff021916908367ffffffffffffffff16021790555060a08201518160020160086101000a81548173ffffffffffffffffffffffffffffffffffffffff021916908373ffffffffffffffffffffffffffffffffffffffff16021790555060c08201518160030160006101000a81548173ffffffffffffffffffffffffffffffffffffffff021916908373ffffffffffffffffffffffffffffffffffffffff16021790555060e08201518160040160006101000a81548173ffffffffffffffffffffffffffffffffffffffff021916908373ffffffffffffffffffffffffffffffffffffffff1602179055506101008201518160040160146101000a81548160ff02191690831515021790555090505083600b60006101000a81548173ffffffffffffffffffffffffffffffffffffffff021916908373ffffffffffffffffffffffffffffffffffffffff160217905550505050505050620005ca565b600033905090565b6000815190506200043e816200057c565b92915050565b600081519050620004558162000596565b92915050565b6000815190506200046c81620005b0565b92915050565b60008060008060008060c087890312156200048c57600080fd5b60006200049c89828a0162000444565b9650506020620004af89828a016200042d565b9550506040620004c289828a016200042d565b9450506060620004d589828a016200042d565b9350506080620004e889828a016200042d565b92505060a0620004fb89828a016200045b565b9150509295509295509295565b6000620005158262000548565b9050919050565b60007fffffffffffffffff00000000000000000000000000000000000000000000000082169050919050565b600073ffffffffffffffffffffffffffffffffffffffff82169050919050565b600067ffffffffffffffff82169050919050565b620005878162000508565b81146200059357600080fd5b50565b620005a1816200051c565b8114620005ad57600080fd5b50565b620005bb8162000568565b8114620005c757600080fd5b50565b6140aa80620005da6000396000f3fe608060405234801561001057600080fd5b50600436106101375760003560e01c80638da5cb5b116100b8578063c18ec58c1161007c578063c18ec58c1461031a578063c700fdf714610336578063da6cd37614610354578063e0c9d4bb14610370578063e8d290841461038c578063f2fde38b146103a857610137565b80638da5cb5b1461029457806399892f49146102b25780639df90028146102d8578063b2e733bf146102e2578063b9d3106b146102fe57610137565b80634e35b4fc116100ff5780634e35b4fc146101dd5780635813d736146101f9578063715018a6146102325780637ad3155f1461023c5780638181b80d1461025a57610137565b806306566faa1461013c5780630d00605f146101585780632cb95cec14610174578063390fc6b6146101a55780634c6fdcc6146101c1575b600080fd5b61015660048036038101906101519190612f5b565b6103c4565b005b610172600480360381019061016d9190612e7c565b61063b565b005b61018e60048036038101906101899190612fe6565b610b5c565b60405161019c92919061388b565b60405180910390f35b6101bf60048036038101906101ba9190612f32565b610c22565b005b6101db60048036038101906101d69190612f5b565b610d81565b005b6101f760048036038101906101f29190612fe6565b610f91565b005b610213600480360381019061020e9190612f32565b61129d565b6040516102299a999897969594939291906137e8565b60405180910390f35b61023a611417565b005b610244611551565b6040516102519190613a5d565b60405180910390f35b610274600480360381019061026f9190612f32565b61155d565b60405161028b9b9a99989796959493929190613736565b60405180910390f35b61029c611708565b6040516102a99190613665565b60405180910390f35b6102ba611731565b6040516102cf999897969594939291906136a9565b60405180910390f35b6102e061184f565b005b6102fc60048036038101906102f79190612f97565b611934565b005b61031860048036038101906103139190613022565b611c4f565b005b610334600480360381019061032f9190612f5b565b611f48565b005b61033e6121ac565b60405161034b9190613a5d565b60405180910390f35b61036e60048036038101906103699190612ded565b6121b8565b005b61038a60048036038101906103859190612f32565b61261e565b005b6103a660048036038101906103a19190613089565b61277c565b005b6103c260048036038101906103bd9190612d9b565b6129c1565b005b600160040160149054906101000a900460ff16610416576040517f08c379a000000000000000000000000000000000000000000000000000000000815260040161040d90613969565b60405180910390fd5b816104216007612b6a565b8110610462576040517f08c379a000000000000000000000000000000000000000000000000000000000815260040161045990613949565b60405180910390fd5b6006600082815260200190815260200160002060000160129054906101000a900460ff166104c5576040517f08c379a00000000000000000000000000000000000000000000000000000000081526004016104bc90613989565b60405180910390fd5b823373ffffffffffffffffffffffffffffffffffffffff166006600083815260200190815260200160002060030160009054906101000a900473ffffffffffffffffffffffffffffffffffffffff1673ffffffffffffffffffffffffffffffffffffffff16148061056857503373ffffffffffffffffffffffffffffffffffffffff16610550611708565b73ffffffffffffffffffffffffffffffffffffffff16145b6105a7576040517f08c379a000000000000000000000000000000000000000000000000000000000815260040161059e906139a9565b60405180910390fd5b826006600086815260200190815260200160002060020160006101000a81548173ffffffffffffffffffffffffffffffffffffffff021916908373ffffffffffffffffffffffffffffffffffffffff1602179055507f6eb54bb1fcbc8b072bc7be4d66f909b2316584cb9b6c49bfdb6504b9246a8481843360405161062d929190613b8d565b60405180910390a150505050565b600160040160149054906101000a900460ff1661068d576040517f08c379a000000000000000000000000000000000000000000000000000000000815260040161068490613969565b60405180910390fd5b8561ffff1661069c6007612b6a565b81106106dd576040517f08c379a00000000000000000000000000000000000000000000000000000000081526004016106d490613949565b60405180910390fd5b6006600082815260200190815260200160002060000160129054906101000a900460ff16610740576040517f08c379a000000000000000000000000000000000000000000000000000000000815260040161073790613989565b60405180910390fd5b3373ffffffffffffffffffffffffffffffffffffffff16600660008961ffff16815260200190815260200160002060040160009054906101000a900473ffffffffffffffffffffffffffffffffffffffff1673ffffffffffffffffffffffffffffffffffffffff16148061080457503373ffffffffffffffffffffffffffffffffffffffff16600160020160089054906101000a900473ffffffffffffffffffffffffffffffffffffffff1673ffffffffffffffffffffffffffffffffffffffff16145b8061084157503373ffffffffffffffffffffffffffffffffffffffff16610829611708565b73ffffffffffffffffffffffffffffffffffffffff16145b610880576040517f08c379a000000000000000000000000000000000000000000000000000000000815260040161087790613909565b60405180910390fd5b610888612b96565b6040518061014001604052808a77ffffffffffffffffffffffffffffffffffffffffffffffff191681526020018961ffff1681526020018881526020013373ffffffffffffffffffffffffffffffffffffffff1681526020018767ffffffffffffffff1681526020018667ffffffffffffffff168152602001857bffffffffffffffffffffffffffffffffffffffffffffffffffffffff191681526020018477ffffffffffffffffffffffffffffffffffffffffffffffff191681526020016001151581526020018281525060096000610962600a612b6a565b815260200190815260200160002060008201518160000160006101000a81548167ffffffffffffffff021916908360c01c021790555060208201518160000160086101000a81548161ffff021916908361ffff16021790555060408201518160010190805190602001906109d7929190612ba9565b5060608201518160020160006101000a81548173ffffffffffffffffffffffffffffffffffffffff021916908373ffffffffffffffffffffffffffffffffffffffff16021790555060808201518160020160146101000a81548167ffffffffffffffff021916908367ffffffffffffffff16021790555060a08201518160030160006101000a81548167ffffffffffffffff021916908367ffffffffffffffff16021790555060c08201518160030160086101000a81548163ffffffff021916908360e01c021790555060e082015181600301600c6101000a81548167ffffffffffffffff021916908360c01c02179055506101008201518160030160146101000a81548160ff021916908315150217905550610120820151816004016000820151816000015550509050507fd265572d82340957d58225c4530aa27f8dd410b1d09d9a4c77677d55a01cc1a188610b2f600a612b6a565b33604051610b3f93929190613a13565b60405180910390a1610b51600a612b78565b505050505050505050565b600860205281600052604060002060205280600052604060002060009150915050806000018054610b8c90613ed6565b80601f0160208091040260200160405190810160405280929190818152602001828054610bb890613ed6565b8015610c055780601f10610bda57610100808354040283529160200191610c05565b820191906000526020600020905b815481529060010190602001808311610be857829003601f168201915b5050505050908060010160009054906101000a900460ff16905082565b6009600082815260200190815260200160002060020160009054906101000a900473ffffffffffffffffffffffffffffffffffffffff1673ffffffffffffffffffffffffffffffffffffffff163373ffffffffffffffffffffffffffffffffffffffff161480610cc45750610c95611708565b73ffffffffffffffffffffffffffffffffffffffff163373ffffffffffffffffffffffffffffffffffffffff16145b610ccd57600080fd5b7fd265572d82340957d58225c4530aa27f8dd410b1d09d9a4c77677d55a01cc1a16009600083815260200190815260200160002060000160089054906101000a900461ffff168233604051610d24939291906139c9565b60405180910390a16009600082815260200190815260200160002060030160149054906101000a900460ff16156009600083815260200190815260200160002060030160146101000a81548160ff02191690831515021790555050565b600160040160149054906101000a900460ff16610dd3576040517f08c379a0000000000000000000000000000000000000000000000000000000008152600401610dca90613969565b60405180910390fd5b81610dde6007612b6a565b8110610e1f576040517f08c379a0000000000000000000000000000000000000000000000000000000008152600401610e1690613949565b60405180910390fd5b6006600082815260200190815260200160002060000160129054906101000a900460ff16610e82576040517f08c379a0000000000000000000000000000000000000000000000000000000008152600401610e7990613989565b60405180910390fd5b610e8a612b8e565b73ffffffffffffffffffffffffffffffffffffffff16610ea8611708565b73ffffffffffffffffffffffffffffffffffffffff1614610efe576040517f08c379a0000000000000000000000000000000000000000000000000000000008152600401610ef590613929565b60405180910390fd5b816006600085815260200190815260200160002060030160006101000a81548173ffffffffffffffffffffffffffffffffffffffff021916908373ffffffffffffffffffffffffffffffffffffffff1602179055507f6eb54bb1fcbc8b072bc7be4d66f909b2316584cb9b6c49bfdb6504b9246a84818333604051610f84929190613b51565b60405180910390a1505050565b600160040160149054906101000a900460ff16610fe3576040517f08c379a0000000000000000000000000000000000000000000000000000000008152600401610fda90613969565b60405180910390fd5b81610fee6007612b6a565b811061102f576040517f08c379a000000000000000000000000000000000000000000000000000000000815260040161102690613949565b60405180910390fd5b6006600082815260200190815260200160002060000160129054906101000a900460ff16611092576040517f08c379a000000000000000000000000000000000000000000000000000000000815260040161108990613989565b60405180910390fd5b823373ffffffffffffffffffffffffffffffffffffffff166006600083815260200190815260200160002060030160009054906101000a900473ffffffffffffffffffffffffffffffffffffffff1673ffffffffffffffffffffffffffffffffffffffff16148061113557503373ffffffffffffffffffffffffffffffffffffffff1661111d611708565b73ffffffffffffffffffffffffffffffffffffffff16145b611174576040517f08c379a000000000000000000000000000000000000000000000000000000000815260040161116b906139a9565b60405180910390fd5b7fcde1a82fd39a63a298c011f93aac06d29c34d9a788a717826f0016b4c20470fc8484336040516111a793929190613abd565b60405180910390a16008600085815260200190815260200160002060008479ffffffffffffffffffffffffffffffffffffffffffffffffffff191679ffffffffffffffffffffffffffffffffffffffffffffffffffff1916815260200190815260200160002060010160009054906101000a900460ff16156008600086815260200190815260200160002060008579ffffffffffffffffffffffffffffffffffffffffffffffffffff191679ffffffffffffffffffffffffffffffffffffffffffffffffffff1916815260200190815260200160002060010160006101000a81548160ff02191690831515021790555050505050565b60096020528060005260406000206000915090508060000160009054906101000a900460c01b908060000160089054906101000a900461ffff16908060010180546112e790613ed6565b80601f016020809104026020016040519081016040528092919081815260200182805461131390613ed6565b80156113605780601f1061133557610100808354040283529160200191611360565b820191906000526020600020905b81548152906001019060200180831161134357829003601f168201915b5050505050908060020160009054906101000a900473ffffffffffffffffffffffffffffffffffffffff16908060020160149054906101000a900467ffffffffffffffff16908060030160009054906101000a900467ffffffffffffffff16908060030160089054906101000a900460e01b9080600301600c9054906101000a900460c01b908060030160149054906101000a900460ff16908060040160405180602001604052908160008201548152505090508a565b61141f612b8e565b73ffffffffffffffffffffffffffffffffffffffff1661143d611708565b73ffffffffffffffffffffffffffffffffffffffff1614611493576040517f08c379a000000000000000000000000000000000000000000000000000000000815260040161148a90613929565b60405180910390fd5b600073ffffffffffffffffffffffffffffffffffffffff1660008054906101000a900473ffffffffffffffffffffffffffffffffffffffff1673ffffffffffffffffffffffffffffffffffffffff167f8be0079c531659141344cd1fd0a4f28419497f9722a3daafe3b4186f6b6457e060405160405180910390a360008060006101000a81548173ffffffffffffffffffffffffffffffffffffffff021916908373ffffffffffffffffffffffffffffffffffffffff160217905550565b600a8060000154905081565b60066020528060005260406000206000915090508060000160009054906101000a900460c01b908060000160089054906101000a900460c01b908060000160109054906101000a900460f81b908060000160119054906101000a900460ff16908060000160129054906101000a900460ff16908060010180546115df90613ed6565b80601f016020809104026020016040519081016040528092919081815260200182805461160b90613ed6565b80156116585780601f1061162d57610100808354040283529160200191611658565b820191906000526020600020905b81548152906001019060200180831161163b57829003601f168201915b5050505050908060020160009054906101000a900473ffffffffffffffffffffffffffffffffffffffff16908060030160009054906101000a900473ffffffffffffffffffffffffffffffffffffffff16908060040160009054906101000a900473ffffffffffffffffffffffffffffffffffffffff169080600501604051806020016040529081600082015481525050908060060160405180602001604052908160008201548152505090508b565b60008060009054906101000a900473ffffffffffffffffffffffffffffffffffffffff16905090565b60018060000160009054906101000a900460c01b908060000160089054906101000a900473ffffffffffffffffffffffffffffffffffffffff16908060010160009054906101000a900473ffffffffffffffffffffffffffffffffffffffff16908060010160149054906101000a900467ffffffffffffffff16908060020160009054906101000a900467ffffffffffffffff16908060020160089054906101000a900473ffffffffffffffffffffffffffffffffffffffff16908060030160009054906101000a900473ffffffffffffffffffffffffffffffffffffffff16908060040160009054906101000a900473ffffffffffffffffffffffffffffffffffffffff16908060040160149054906101000a900460ff16905089565b611857612b8e565b73ffffffffffffffffffffffffffffffffffffffff16611875611708565b73ffffffffffffffffffffffffffffffffffffffff16146118cb576040517f08c379a00000000000000000000000000000000000000000000000000000000081526004016118c290613929565b60405180910390fd5b7f74851bb416411c1b4cb986c13ce9b6a9e973e7948f03fc2e574ca42a6d3724d3336040516118fa91906138db565b60405180910390a1600160040160149054906101000a900460ff1615600160040160146101000a81548160ff021916908315150217905550565b600160040160149054906101000a900460ff16611986576040517f08c379a000000000000000000000000000000000000000000000000000000000815260040161197d90613969565b60405180910390fd5b826119916007612b6a565b81106119d2576040517f08c379a00000000000000000000000000000000000000000000000000000000081526004016119c990613949565b60405180910390fd5b6006600082815260200190815260200160002060000160129054906101000a900460ff16611a35576040517f08c379a0000000000000000000000000000000000000000000000000000000008152600401611a2c90613989565b60405180910390fd5b833373ffffffffffffffffffffffffffffffffffffffff166006600083815260200190815260200160002060020160009054906101000a900473ffffffffffffffffffffffffffffffffffffffff1673ffffffffffffffffffffffffffffffffffffffff161480611ad857503373ffffffffffffffffffffffffffffffffffffffff16611ac0611708565b73ffffffffffffffffffffffffffffffffffffffff16145b611b17576040517f08c379a0000000000000000000000000000000000000000000000000000000008152600401611b0e906139a9565b60405180910390fd5b600b60009054906101000a900473ffffffffffffffffffffffffffffffffffffffff1673ffffffffffffffffffffffffffffffffffffffff1663a9059cbb600160000160089054906101000a900473ffffffffffffffffffffffffffffffffffffffff1660016040518363ffffffff1660e01b8152600401611b9a929190613680565b602060405180830381600087803b158015611bb457600080fd5b505af1158015611bc8573d6000803e3d6000fd5b505050506040513d601f19601f82011682018060405250810190611bec9190612dc4565b50611c0b60066000878152602001908152602001600020600501612b78565b7f818366328240e2ab5877d5eed27c1f3803a716f5700034371e2e520c650f574585858533604051611c409493929190613a78565b60405180910390a15050505050565b600160040160149054906101000a900460ff16611ca1576040517f08c379a0000000000000000000000000000000000000000000000000000000008152600401611c9890613969565b60405180910390fd5b82611cac6007612b6a565b8110611ced576040517f08c379a0000000000000000000000000000000000000000000000000000000008152600401611ce490613949565b60405180910390fd5b6006600082815260200190815260200160002060000160129054906101000a900460ff16611d50576040517f08c379a0000000000000000000000000000000000000000000000000000000008152600401611d4790613989565b60405180910390fd5b833373ffffffffffffffffffffffffffffffffffffffff166006600083815260200190815260200160002060030160009054906101000a900473ffffffffffffffffffffffffffffffffffffffff1673ffffffffffffffffffffffffffffffffffffffff161480611df357503373ffffffffffffffffffffffffffffffffffffffff16611ddb611708565b73ffffffffffffffffffffffffffffffffffffffff16145b611e32576040517f08c379a0000000000000000000000000000000000000000000000000000000008152600401611e29906139a9565b60405180910390fd5b6040518060400160405280848152602001600115158152506008600087815260200190815260200160002060008679ffffffffffffffffffffffffffffffffffffffffffffffffffff191679ffffffffffffffffffffffffffffffffffffffffffffffffffff191681526020019081526020016000206000820151816000019080519060200190611ec4929190612ba9565b5060208201518160010160006101000a81548160ff0219169083151502179055509050507fcde1a82fd39a63a298c011f93aac06d29c34d9a788a717826f0016b4c20470fc858533604051611f1b93929190613b07565b60405180910390a1611f4160066000878152602001908152602001600020600601612b78565b5050505050565b600160040160149054906101000a900460ff16611f9a576040517f08c379a0000000000000000000000000000000000000000000000000000000008152600401611f9190613969565b60405180910390fd5b81611fa56007612b6a565b8110611fe6576040517f08c379a0000000000000000000000000000000000000000000000000000000008152600401611fdd90613949565b60405180910390fd5b6006600082815260200190815260200160002060000160129054906101000a900460ff16612049576040517f08c379a000000000000000000000000000000000000000000000000000000000815260040161204090613989565b60405180910390fd5b3373ffffffffffffffffffffffffffffffffffffffff16600160020160089054906101000a900473ffffffffffffffffffffffffffffffffffffffff1673ffffffffffffffffffffffffffffffffffffffff1614806120da57503373ffffffffffffffffffffffffffffffffffffffff166120c2611708565b73ffffffffffffffffffffffffffffffffffffffff16145b612119576040517f08c379a0000000000000000000000000000000000000000000000000000000008152600401612110906139a9565b60405180910390fd5b816006600085815260200190815260200160002060040160006101000a81548173ffffffffffffffffffffffffffffffffffffffff021916908373ffffffffffffffffffffffffffffffffffffffff1602179055507f6eb54bb1fcbc8b072bc7be4d66f909b2316584cb9b6c49bfdb6504b9246a8481833360405161219f929190613bc9565b60405180910390a1505050565b60078060000154905081565b3373ffffffffffffffffffffffffffffffffffffffff16600160020160089054906101000a900473ffffffffffffffffffffffffffffffffffffffff1673ffffffffffffffffffffffffffffffffffffffff16148061224957503373ffffffffffffffffffffffffffffffffffffffff16612231611708565b73ffffffffffffffffffffffffffffffffffffffff16145b612288576040517f08c379a000000000000000000000000000000000000000000000000000000000815260040161227f906139a9565b60405180910390fd5b600160040160149054906101000a900460ff166122da576040517f08c379a00000000000000000000000000000000000000000000000000000000081526004016122d190613969565b60405180910390fd5b6122e2612b96565b6122ea612b96565b6040518061016001604052808877ffffffffffffffffffffffffffffffffffffffffffffffff191681526020018677ffffffffffffffffffffffffffffffffffffffffffffffff19168152602001857effffffffffffffffffffffffffffffffffffffffffffffffffffffffffffff191681526020018460ff168152602001600115158152602001878152602001600073ffffffffffffffffffffffffffffffffffffffff168152602001600073ffffffffffffffffffffffffffffffffffffffff168152602001600073ffffffffffffffffffffffffffffffffffffffff16815260200183815260200182815250600660006123e76007612b6a565b815260200190815260200160002060008201518160000160006101000a81548167ffffffffffffffff021916908360c01c021790555060208201518160000160086101000a81548167ffffffffffffffff021916908360c01c021790555060408201518160000160106101000a81548160ff021916908360f81c021790555060608201518160000160116101000a81548160ff021916908360ff16021790555060808201518160000160126101000a81548160ff02191690831515021790555060a08201518160010190805190602001906124c3929190612ba9565b5060c08201518160020160006101000a81548173ffffffffffffffffffffffffffffffffffffffff021916908373ffffffffffffffffffffffffffffffffffffffff16021790555060e08201518160030160006101000a81548173ffffffffffffffffffffffffffffffffffffffff021916908373ffffffffffffffffffffffffffffffffffffffff1602179055506101008201518160040160006101000a81548173ffffffffffffffffffffffffffffffffffffffff021916908373ffffffffffffffffffffffffffffffffffffffff16021790555061012082015181600501600082015181600001555050610140820151816006016000820151816000015550509050507f6eb54bb1fcbc8b072bc7be4d66f909b2316584cb9b6c49bfdb6504b9246a84816125f46007612b6a565b33604051612603929190613c05565b60405180910390a16126156007612b78565b50505050505050565b3373ffffffffffffffffffffffffffffffffffffffff16600160020160089054906101000a900473ffffffffffffffffffffffffffffffffffffffff1673ffffffffffffffffffffffffffffffffffffffff1614806126af57503373ffffffffffffffffffffffffffffffffffffffff16612697611708565b73ffffffffffffffffffffffffffffffffffffffff16145b6126ee576040517f08c379a00000000000000000000000000000000000000000000000000000000081526004016126e5906139a9565b60405180910390fd5b7f6eb54bb1fcbc8b072bc7be4d66f909b2316584cb9b6c49bfdb6504b9246a8481813360405161271f929190613c41565b60405180910390a16006600082815260200190815260200160002060000160129054906101000a900460ff16156006600083815260200190815260200160002060000160126101000a81548160ff02191690831515021790555050565b600160040160149054906101000a900460ff166127ce576040517f08c379a00000000000000000000000000000000000000000000000000000000081526004016127c590613969565b60405180910390fd5b826127d96007612b6a565b811061281a576040517f08c379a000000000000000000000000000000000000000000000000000000000815260040161281190613949565b60405180910390fd5b6006600082815260200190815260200160002060000160129054906101000a900460ff1661287d576040517f08c379a000000000000000000000000000000000000000000000000000000000815260040161287490613989565b60405180910390fd5b833373ffffffffffffffffffffffffffffffffffffffff166006600083815260200190815260200160002060020160009054906101000a900473ffffffffffffffffffffffffffffffffffffffff1673ffffffffffffffffffffffffffffffffffffffff16148061292057503373ffffffffffffffffffffffffffffffffffffffff16612908611708565b73ffffffffffffffffffffffffffffffffffffffff16145b61295f576040517f08c379a0000000000000000000000000000000000000000000000000000000008152600401612956906139a9565b60405180910390fd5b61297d60096000868152602001908152602001600020600401612b78565b7f36134df50fb7d9b784ebe80f4738a13cede0c5efe526e5e9d8b95601d8cc900c858585336040516129b29493929190613c7d565b60405180910390a15050505050565b6129c9612b8e565b73ffffffffffffffffffffffffffffffffffffffff166129e7611708565b73ffffffffffffffffffffffffffffffffffffffff1614612a3d576040517f08c379a0000000000000000000000000000000000000000000000000000000008152600401612a3490613929565b60405180910390fd5b600073ffffffffffffffffffffffffffffffffffffffff168173ffffffffffffffffffffffffffffffffffffffff161415612aad576040517f08c379a0000000000000000000000000000000000000000000000000000000008152600401612aa4906138bb565b60405180910390fd5b8073ffffffffffffffffffffffffffffffffffffffff1660008054906101000a900473ffffffffffffffffffffffffffffffffffffffff1673ffffffffffffffffffffffffffffffffffffffff167f8be0079c531659141344cd1fd0a4f28419497f9722a3daafe3b4186f6b6457e060405160405180910390a3806000806101000a81548173ffffffffffffffffffffffffffffffffffffffff021916908373ffffffffffffffffffffffffffffffffffffffff16021790555050565b600081600001549050919050565b6001816000016000828254019250508190555050565b600033905090565b6040518060200160405280600081525090565b828054612bb590613ed6565b90600052602060002090601f016020900481019282612bd75760008555612c1e565b82601f10612bf057805160ff1916838001178555612c1e565b82800160010185558215612c1e579182015b82811115612c1d578251825591602001919060010190612c02565b5b509050612c2b9190612c2f565b5090565b5b80821115612c48576000816000905550600101612c30565b5090565b6000612c5f612c5a84613cf3565b613cc2565b905082815260208101848484011115612c7757600080fd5b612c82848285613e94565b509392505050565b600081359050612c9981613f77565b92915050565b600081519050612cae81613f8e565b92915050565b600081359050612cc381613fa5565b92915050565b600081359050612cd881613fbc565b92915050565b600081359050612ced81613fd3565b92915050565b600081359050612d0281613fea565b92915050565b600081359050612d1781614001565b92915050565b600082601f830112612d2e57600080fd5b8135612d3e848260208601612c4c565b91505092915050565b600081359050612d5681614018565b92915050565b600081359050612d6b8161402f565b92915050565b600081359050612d8081614046565b92915050565b600081359050612d958161405d565b92915050565b600060208284031215612dad57600080fd5b6000612dbb84828501612c8a565b91505092915050565b600060208284031215612dd657600080fd5b6000612de484828501612c9f565b91505092915050565b600080600080600060a08688031215612e0557600080fd5b6000612e1388828901612d08565b955050602086013567ffffffffffffffff811115612e3057600080fd5b612e3c88828901612d1d565b9450506040612e4d88828901612d08565b9350506060612e5e88828901612cb4565b9250506080612e6f88828901612d86565b9150509295509295909350565b600080600080600080600060e0888a031215612e9757600080fd5b6000612ea58a828b01612d08565b9750506020612eb68a828b01612d47565b965050604088013567ffffffffffffffff811115612ed357600080fd5b612edf8a828b01612d1d565b9550506060612ef08a828b01612d71565b9450506080612f018a828b01612d71565b93505060a0612f128a828b01612cde565b92505060c0612f238a828b01612d08565b91505092959891949750929550565b600060208284031215612f4457600080fd5b6000612f5284828501612d5c565b91505092915050565b60008060408385031215612f6e57600080fd5b6000612f7c85828601612d5c565b9250506020612f8d85828601612c8a565b9150509250929050565b600080600060608486031215612fac57600080fd5b6000612fba86828701612d5c565b9350506020612fcb86828701612cc9565b9250506040612fdc86828701612cc9565b9150509250925092565b60008060408385031215612ff957600080fd5b600061300785828601612d5c565b925050602061301885828601612cf3565b9150509250929050565b60008060006060848603121561303757600080fd5b600061304586828701612d5c565b935050602061305686828701612cf3565b925050604084013567ffffffffffffffff81111561307357600080fd5b61307f86828701612d1d565b9150509250925092565b60008060006060848603121561309e57600080fd5b60006130ac86828701612d5c565b93505060206130bd86828701612d5c565b92505060406130ce86828701612cc9565b9150509250925092565b6130e181613d3f565b82525050565b6130f081613d51565b82525050565b6130ff81613d5d565b82525050565b61310e81613d89565b82525050565b61311d81613d93565b82525050565b61312c81613dbf565b82525050565b61313b81613deb565b82525050565b61314a81613e70565b82525050565b600061315b82613d23565b6131658185613d2e565b9350613175818560208601613ea3565b61317e81613f66565b840191505092915050565b6000613196600a83613d2e565b91507f496f74206f6e2f6f6666000000000000000000000000000000000000000000006000830152602082019050919050565b60006131d6601983613d2e565b91507f546563684d6173746572204164647265737320757064617465000000000000006000830152602082019050919050565b6000613216601583613d2e565b91507f42726964676520416464726573732075706461746500000000000000000000006000830152602082019050919050565b6000613256602683613d2e565b91507f4f776e61626c653a206e6577206f776e657220697320746865207a65726f206160008301527f64647265737300000000000000000000000000000000000000000000000000006020830152604082019050919050565b60006132bc601983613d2e565b91507f4c656769736c61746f72204164647265737320757064617465000000000000006000830152602082019050919050565b60006132fc600c83613d2e565b91507f52756c6573206f6e2f6f666600000000000000000000000000000000000000006000830152602082019050919050565b600061333c600f83613d2e565b91507f436f6e7472616374206f6e2f6f666600000000000000000000000000000000006000830152602082019050919050565b600061337c600883613d2e565b91507f4e65772052756c650000000000000000000000000000000000000000000000006000830152602082019050919050565b60006133bc600b83613d2e565b91507f4e657720736572766963650000000000000000000000000000000000000000006000830152602082019050919050565b60006133fc600d83613d2e565b91507f4163636573732044656e696564000000000000000000000000000000000000006000830152602082019050919050565b600061343c602083613d2e565b91507f4f776e61626c653a2063616c6c6572206973206e6f7420746865206f776e65726000830152602082019050919050565b600061347c601183613d2e565b91507f53657276696365206e6f742065786973740000000000000000000000000000006000830152602082019050919050565b60006134bc600e83613d2e565b91507f53657276696365206f6e2f6f66660000000000000000000000000000000000006000830152602082019050919050565b60006134fc601183613d2e565b91507f436f6e7472616374206f6666206c696e650000000000000000000000000000006000830152602082019050919050565b600061353c601083613d2e565b91507f53657276696365206f6666206c696e65000000000000000000000000000000006000830152602082019050919050565b600061357c600d83613d2e565b91507f4163636573732064656e696564000000000000000000000000000000000000006000830152602082019050919050565b60006135bc600983613d2e565b91507f496f7420616464656400000000000000000000000000000000000000000000006000830152602082019050919050565b6020820160008201516136056000850182613629565b50505050565b61361481613e17565b82525050565b61362381613e82565b82525050565b61363281613e45565b82525050565b61364181613e45565b82525050565b61365081613e4f565b82525050565b61365f81613e63565b82525050565b600060208201905061367a60008301846130d8565b92915050565b600060408201905061369560008301856130d8565b6136a26020830184613141565b9392505050565b6000610120820190506136bf600083018c613132565b6136cc602083018b6130d8565b6136d9604083018a6130d8565b6136e66060830189613647565b6136f36080830188613647565b61370060a08301876130d8565b61370d60c08301866130d8565b61371a60e08301856130d8565b6137286101008301846130e7565b9a9950505050505050505050565b60006101608201905061374c600083018e613132565b613759602083018d613132565b613766604083018c6130f6565b613773606083018b613656565b613780608083018a6130e7565b81810360a08301526137928189613150565b90506137a160c08301886130d8565b6137ae60e08301876130d8565b6137bc6101008301866130d8565b6137ca6101208301856135ef565b6137d86101408301846135ef565b9c9b505050505050505050505050565b6000610140820190506137fe600083018d613132565b61380b602083018c61360b565b818103604083015261381d818b613150565b905061382c606083018a6130d8565b6138396080830189613647565b61384660a0830188613647565b61385360c0830187613114565b61386060e0830186613132565b61386e6101008301856130e7565b61387c6101208301846135ef565b9b9a5050505050505050505050565b600060408201905081810360008301526138a58185613150565b90506138b460208301846130e7565b9392505050565b600060208201905081810360008301526138d481613249565b9050919050565b600060408201905081810360008301526138f48161332f565b905061390360208301846130d8565b92915050565b60006020820190508181036000830152613922816133ef565b9050919050565b600060208201905081810360008301526139428161342f565b9050919050565b600060208201905081810360008301526139628161346f565b9050919050565b60006020820190508181036000830152613982816134ef565b9050919050565b600060208201905081810360008301526139a28161352f565b9050919050565b600060208201905081810360008301526139c28161356f565b9050919050565b60006080820190506139de600083018661361a565b6139eb6020830185613638565b81810360408301526139fc816132ef565b9050613a0b60608301846130d8565b949350505050565b6000608082019050613a28600083018661361a565b613a356020830185613638565b8181036040830152613a468161336f565b9050613a5560608301846130d8565b949350505050565b6000602082019050613a726000830184613638565b92915050565b6000608082019050613a8d6000830187613638565b613a9a6020830186613105565b613aa76040830185613105565b613ab460608301846130d8565b95945050505050565b6000608082019050613ad26000830186613638565b613adf6020830185613123565b8181036040830152613af081613189565b9050613aff60608301846130d8565b949350505050565b6000608082019050613b1c6000830186613638565b613b296020830185613123565b8181036040830152613b3a816135af565b9050613b4960608301846130d8565b949350505050565b6000606082019050613b666000830185613638565b8181036020830152613b77816131c9565b9050613b8660408301846130d8565b9392505050565b6000606082019050613ba26000830185613638565b8181036020830152613bb381613209565b9050613bc260408301846130d8565b9392505050565b6000606082019050613bde6000830185613638565b8181036020830152613bef816132af565b9050613bfe60408301846130d8565b9392505050565b6000606082019050613c1a6000830185613638565b8181036020830152613c2b816133af565b9050613c3a60408301846130d8565b9392505050565b6000606082019050613c566000830185613638565b8181036020830152613c67816134af565b9050613c7660408301846130d8565b9392505050565b6000608082019050613c926000830187613638565b613c9f6020830186613638565b613cac6040830185613105565b613cb960608301846130d8565b95945050505050565b6000604051905081810181811067ffffffffffffffff82111715613ce957613ce8613f37565b5b8060405250919050565b600067ffffffffffffffff821115613d0e57613d0d613f37565b5b601f19601f8301169050602081019050919050565b600081519050919050565b600082825260208201905092915050565b6000613d4a82613e25565b9050919050565b60008115159050919050565b60007fff0000000000000000000000000000000000000000000000000000000000000082169050919050565b6000819050919050565b60007fffffffff0000000000000000000000000000000000000000000000000000000082169050919050565b60007fffffffffffff000000000000000000000000000000000000000000000000000082169050919050565b60007fffffffffffffffff00000000000000000000000000000000000000000000000082169050919050565b600061ffff82169050919050565b600073ffffffffffffffffffffffffffffffffffffffff82169050919050565b6000819050919050565b600067ffffffffffffffff82169050919050565b600060ff82169050919050565b6000613e7b82613e45565b9050919050565b6000613e8d82613e17565b9050919050565b82818337600083830152505050565b60005b83811015613ec1578082015181840152602081019050613ea6565b83811115613ed0576000848401525b50505050565b60006002820490506001821680613eee57607f821691505b60208210811415613f0257613f01613f08565b5b50919050565b7f4e487b7100000000000000000000000000000000000000000000000000000000600052602260045260246000fd5b7f4e487b7100000000000000000000000000000000000000000000000000000000600052604160045260246000fd5b6000601f19601f8301169050919050565b613f8081613d3f565b8114613f8b57600080fd5b50565b613f9781613d51565b8114613fa257600080fd5b50565b613fae81613d5d565b8114613fb957600080fd5b50565b613fc581613d89565b8114613fd057600080fd5b50565b613fdc81613d93565b8114613fe757600080fd5b50565b613ff381613dbf565b8114613ffe57600080fd5b50565b61400a81613deb565b811461401557600080fd5b50565b61402181613e17565b811461402c57600080fd5b50565b61403881613e45565b811461404357600080fd5b50565b61404f81613e4f565b811461405a57600080fd5b50565b61406681613e63565b811461407157600080fd5b5056fea2646970667358221220f0b7a1ff1c9e108ce4316dc4a82de1d3f510b5e19aa8113122e995cd7781f9f164736f6c63430008000033",
  "immutableReferences": {},
  "source": "// SPDX-License-Identifier: MIT\npragma solidity 0.8.0;\n\nimport \"../node_modules/@openzeppelin/contracts/utils/Counters.sol\";\nimport \"../node_modules/@openzeppelin/contracts/access/Ownable.sol\";\nimport \"./IECPToken.sol\";\n\ncontract CustomerContract is Ownable {\n    using Counters for Counters.Counter;\n    \n    // struct mesure en-tte (32) { \n    //   //V0.1     XX.XX.XX    00.01.00\n    //   Version : bytes8;\n    //   Date : YYYYmmddHHii : byte12\n    //   Code de mesure : bytes8 - CODE : 4 chiffre/lettre pour la nature physique - 4 chiffre/lettre pour la version\n    //   Code temporel : bytes1 (Horaire, Journalier) Y m d H i\n    //   Nb temporel : bytes3 \n    // }\n    \n    // struct mesure donne (32) { \n    //   Valeur 1 Max : bytes8\n    //   Valeur 2 Moyenne : bytes8\n    //   Valeur 3 Mdiane : bytes8\n    //   Valeur 4 Min : bytes8\n    // }\n\n    // struct alert donne (32) { \n    //   Version : bytes8\n    //   CodeAlert : bytes4    \n    //   Date : YYYYmmddHHii : byte12\n    //   Valeur alert : bytes8\n    // }\n\n    /**\n    * @dev Structure of Configuration\n    * @notice Version and status of activation\n    * @notice Link to other contract\n    */\n    struct Config {\n        bytes8 version;\n        address _ledgerAddress;\n        address _ecpTokenAddress;        \n        uint64 prevContractDate;\n        uint64 nextContractDate;\n        address customerAddress;\n        address prevContract;\n        address nextContract;\n        bool isActive;\n    }\n    \n    /**\n     * @dev Structure of Service\n     * @notice Feature_V2 \n     */\n    struct Service {\n        bytes8 version;\n        bytes8 measureType;\n        bytes1 timeCode;\n        uint8 nbTime;\n        bool isActive;\n        string description;\n        address bridgeAddress;\n        address techMasterAddress;\n        address legislatorAddress;\n\n        Counters.Counter measureIdCounter;\n        Counters.Counter iotIdCounter;     \n    }\n\n    /**\n     * @dev Structure of AlertConfig\n     * @notice Feature_V2 \n     */\n    struct Rule {\n        bytes8 version;        \n        uint16 serviceId;\n        string description;   \n        address legislatorAddress;\n        uint64 dateOn;\n        uint64 dateOff;\n        bytes4 codeAlert;\n        bytes8 valueAlert;\n        bool isActive;\n\n        Counters.Counter alertIdCounter;         \n    }\n\n    /**\n     * @dev Structure of Iot\n     * @notice Feature_V2 \n     */\n    struct Iot {   \n        string description;\n        bool isActive;\n    }\n\n    modifier isContractActive() {\n        require(_myConfig.isActive, \"Contract off line\");\n        _;\n    }\n\n    modifier isServiceActive(uint _serviceId) {\n        require(_serviceId < _serviceIdCounter.current(), \"Service not exist\"); \n        require(_services[_serviceId].isActive, \"Service off line\"); \n        _;\n    }\n\n    modifier isRulesActive(uint _ruleId) {\n        require(_ruleId < _ruleIdCounter.current(), \"Rules not exist\"); \n        require(_serviceRules[_ruleId].isActive, \"Rules off line\"); \n        _;\n    }\n\n    modifier onlyCustomer() {\n        require (_myConfig.customerAddress == msg.sender || owner() ==  msg.sender, \"Access denied\");\n        _;\n    }\n\n    modifier onlyBridge(uint _serviceId) {\n        require (_services[_serviceId].bridgeAddress == msg.sender || owner() ==  msg.sender, \"Access denied\");\n        _;\n    }\n\n    modifier onlyTechMaster(uint _serviceId) {\n        require (_services[_serviceId].techMasterAddress == msg.sender || owner() ==  msg.sender, \"Access denied\");\n        _;\n    }\n\n    modifier onlyLegislator(uint _serviceId) {\n        require (_services[_serviceId].legislatorAddress == msg.sender || owner() ==  msg.sender, \"Access denied\");\n        _;\n    }\n\n    event ContractUpdate(string _message, address _author);      \n    \n    event ServiceUpdate(uint _serviceId, string _message, address _author);  \n    event ServiceRulesUpdate(uint _serviceId, uint _ruleId, string _message, address _author); \n    event ServiceIotUpdate(uint _serviceId, bytes6 _iotId, string _message, address _author); \n\n    event MeasureReceive(uint _serviceId, bytes32 _header, bytes32 _body, address _author); \n    event AlertReceive(uint _serviceId, uint _ruleId, bytes32 _alert, address _author);        \n\n    Config public _myConfig;\n\n    mapping(uint => Service) public _services;\n    Counters.Counter public _serviceIdCounter;\n\n    mapping(uint => mapping(bytes6 => Iot)) public _serviceIots;\n\n    mapping(uint => Rule) public _serviceRules;\n    Counters.Counter public _ruleIdCounter;\n\n    IECPToken private _ECPToken;\n\n    constructor (bytes8 _version, address _ledgerAddress, address _ecpTokenAddress, address _customerAddress, address _prevContract, uint64 _prevContractDate) {\n        _myConfig = Config(\n            _version,\n            _ledgerAddress,\n            _ecpTokenAddress,\n            _prevContractDate,\n            0,\n            _customerAddress,\n            _prevContract,\n            address(0),\n            true\n        );\n\n        _ECPToken = IECPToken(_ecpTokenAddress);\n    }\n  \n    /**\n     * @dev toggle a Contract activation or deactivation\n     */\n    function toggleContract()\n        onlyOwner() external {\n        emit ContractUpdate(\"Contract on/off\", msg.sender);\n        _myConfig.isActive = !_myConfig.isActive;\n    }    \n\n    // SERVICE PART\n\n     /**\n     * @dev add a Service\n     * @param _version bytes8 version of service\n     * @param _description string description for the dApps interface\n     * @param _measureType bytes8 type of measure for the dApps interface\n     * @param _timeCode bytes1 time code for the dApps interface\n     * @param _nbTime uint8 number of times for the dApps interface\n     */\n    function addService(\n        bytes8 _version,   \n        string memory _description,\n        bytes8 _measureType,          \n        bytes1 _timeCode,\n        uint8 _nbTime) \n        onlyCustomer() isContractActive() external{\n      \n        Counters.Counter memory measureIdCounter;       \n        Counters.Counter memory iotIdCounter;    \n\n        _services[_serviceIdCounter.current()] = Service(\n        _version, \n        _measureType,  \n        _timeCode,    \n        _nbTime,   \n        true,                     \n        _description, \n        address(0),\n        address(0),\n        address(0),                     \n        measureIdCounter,\n        iotIdCounter);\n\n        emit ServiceUpdate(_serviceIdCounter.current(), \"New service\", msg.sender); \n\n        _serviceIdCounter.increment();\n    }  \n\n    /**\n     * @dev toggle a Service activation or deactivation\n     * @param _serviceId index of service\n     */\n    function toggleService(\n        uint _serviceId)\n        onlyCustomer() external {\n\n        emit ServiceUpdate(_serviceId, \"Service on/off\", msg.sender);\n\n        _services[_serviceId].isActive = !_services[_serviceId].isActive;\n    }\n\n    /**\n     * @dev set a TechMasterAddress\n     * @param _serviceId index of service \n     * @param _techMasterAddress techMaster's address\n     */\n    function setTechMasterAddress(\n        uint _serviceId,\n        address _techMasterAddress)\n        isContractActive() isServiceActive(_serviceId) onlyOwner() external {  \n        \n        _services[_serviceId].techMasterAddress = _techMasterAddress;\n\n        emit ServiceUpdate(_serviceId, \"TechMaster Address update\", msg.sender);\n    }     \n\n    /**\n     * @dev set a LegislatorAddress\n     * @param _serviceId index of service \n     * @param _legislatorAddress legislator's address\n     */\n    function setLegislatorAddress(\n        uint _serviceId,\n        address _legislatorAddress)\n        isContractActive() isServiceActive(_serviceId) onlyCustomer() external {  \n        \n        //require(_checkValidLegislator(_legislatorAddress) == true, \"Legistator not valid\");\n\n        _services[_serviceId].legislatorAddress = _legislatorAddress;\n\n        emit ServiceUpdate(_serviceId, \"Legislator Address update\", msg.sender);\n    }   \n\n    /**\n     * @dev set a BridgeAdress\n     * @param _serviceId index of service\n     * @param _bridgeAddress bridge's address\n     */\n    function setBridgeAddress(\n        uint _serviceId,\n        address _bridgeAddress)\n        isContractActive() isServiceActive(_serviceId) onlyTechMaster(_serviceId) external {  \n        \n        _services[_serviceId].bridgeAddress = _bridgeAddress;\n\n        emit ServiceUpdate(_serviceId, \"Bridge Address update\", msg.sender);\n    }     \n\n    // function _checkValidLegislator(\n    //     address _address) \n    //     internal view \n    //     returns(bool _return){\n\n    //     if(_address != msg.sender)\n    //         return true;\n    //     // TODO LINK AU GRAND REGISTRE\n    //     return true;       \n    // }\n\n    // MEASURE PART\n\n    /**\n     * @dev add a Measure\n     * @param _serviceId index of service \n     * @param _measureHeader header of the measure\n     * @param _measurebody body of the measure\n     */\n    function addMeasure(\n        uint _serviceId,\n        bytes32 _measureHeader,\n        bytes32 _measurebody) \n        isContractActive() isServiceActive(_serviceId) onlyBridge(_serviceId) external {    \n\n        _ECPToken.transfer(_myConfig._ledgerAddress, 1);\n\n        _services[_serviceId].measureIdCounter.increment();\n\n        emit MeasureReceive(_serviceId, _measureHeader, _measurebody, msg.sender);\n    }\n\n    // ALERT CONFIG PART\n\n    /**\n     * @dev add a fondation's alert config\n     * @param _serviceId index of service \n     * @param _version service's version\n     * @param _description alert config description \n     * @param _dateOn alert's starting date\n     * @param _dateOff alert's ending date\n     * @param _codeAlert alert's code\n     * @param _valueAlert alert's value\n     */\n    function addRule(\n        bytes8 _version,   \n        uint16 _serviceId,        \n        string memory _description,  \n        uint64 _dateOn,\n        uint64 _dateOff,\n        bytes4 _codeAlert,\n        bytes8 _valueAlert)\n        isContractActive() isServiceActive(_serviceId) external {\n\n        require (_services[_serviceId].legislatorAddress == msg.sender \n        || _myConfig.customerAddress == msg.sender \n        || owner() ==  msg.sender, \"Access Denied\");\n\n        Counters.Counter memory alertIdCounter;\n\n        _serviceRules[_ruleIdCounter.current()] = Rule(\n            _version,  \n            _serviceId,  \n            _description,      \n            msg.sender,\n            _dateOn,\n            _dateOff,\n            _codeAlert,\n            _valueAlert,\n            true,\n            alertIdCounter\n        );\n\n        emit ServiceRulesUpdate(_serviceId, _ruleIdCounter.current(), \"New Rule\", msg.sender);\n\n        _ruleIdCounter.increment();\n    }\n\n    /**\n     * @dev toggle an alert config\n     * @param _ruleId index of the alert config\n     */\n    function toggleRule(uint _ruleId) \n        external {\n\n        require ((msg.sender == _serviceRules[_ruleId].legislatorAddress) || (msg.sender == owner()));\n\n        emit ServiceRulesUpdate(_serviceRules[_ruleId].serviceId, _ruleId, \"Rules on/off\", msg.sender);\n        \n        _serviceRules[_ruleId].isActive = !_serviceRules[_ruleId].isActive;\n    }       \n\n    // ALERTS PART\n\n    /**\n     * @dev add an alert\n     * @param _serviceId index of service \n     * @param _alertBody alert's body\n     */    \n    function addAlert(\n        uint _serviceId,\n        uint _ruleId,\n        bytes32 _alertBody) \n        isContractActive() isServiceActive(_serviceId) onlyBridge(_serviceId) external {         \n                   \n        _serviceRules[_ruleId].alertIdCounter.increment();\n\n        emit AlertReceive(_serviceId, _ruleId, _alertBody, msg.sender);\n    }\n\n    // SERVICE IOT\n\n    /**\n     * @dev add a sensor to the list\n     * @param _serviceId index of service\n     * @param _macAddress sensor's mac address\n     * @param _description sensor's description\n     */      \n    function addIot(\n        uint _serviceId,\n        bytes6 _macAddress,\n        string memory _description) \n        isContractActive() isServiceActive(_serviceId) onlyTechMaster(_serviceId) external {  \n\n        _serviceIots[_serviceId][_macAddress] = Iot(\n            _description,      \n            true\n        );\n\n        emit ServiceIotUpdate(_serviceId, _macAddress, \"Iot added\", msg.sender); \n\n        _services[_serviceId].iotIdCounter.increment();   \n    }\n\n    /**\n     * @dev toggle a sensor activation or deactivation\n     * @param _serviceId index of service\n     * @param _macAddress index of sensor\n     */     \n    function toggleIOT(\n        uint _serviceId,\n        bytes6 _macAddress) \n        isContractActive() isServiceActive(_serviceId) onlyTechMaster(_serviceId) external { \n\n        emit ServiceIotUpdate(_serviceId, _macAddress, \"Iot on/off\", msg.sender);\n\n        _serviceIots[_serviceId][_macAddress].isActive = !_serviceIots[_serviceId][_macAddress].isActive;\n    }\n\n}\n",
  "sourcePath": "/Users/Edouard/Documents/GitHub/eco-capt/contracts/CustomerContract.sol",
  "compiler": {
    "name": "solc",
    "version": "0.8.0+commit.c7dfd78e.Emscripten.clang"
  },
  "schemaVersion": "3.3.4",
  "updatedAt": "2021-04-26T13:30:45.882Z",
  "networkType": "ethereum",
  "devdoc": {
    "kind": "dev",
    "methods": {
      "addAlert(uint256,uint256,bytes32)": {
        "details": "add an alert",
        "params": {
          "_alertBody": "alert's body",
          "_serviceId": "index of service "
        }
      },
      "addIot(uint256,bytes6,string)": {
        "details": "add a sensor to the list",
        "params": {
          "_description": "sensor's description",
          "_macAddress": "sensor's mac address",
          "_serviceId": "index of service"
        }
      },
      "addMeasure(uint256,bytes32,bytes32)": {
        "details": "add a Measure",
        "params": {
          "_measureHeader": "header of the measure",
          "_measurebody": "body of the measure",
          "_serviceId": "index of service "
        }
      },
      "addRule(bytes8,uint16,string,uint64,uint64,bytes4,bytes8)": {
        "details": "add a fondation's alert config",
        "params": {
          "_codeAlert": "alert's code",
          "_dateOff": "alert's ending date",
          "_dateOn": "alert's starting date",
          "_description": "alert config description ",
          "_serviceId": "index of service ",
          "_valueAlert": "alert's value",
          "_version": "service's version"
        }
      },
      "addService(bytes8,string,bytes8,bytes1,uint8)": {
        "details": "add a Service",
        "params": {
          "_description": "string description for the dApps interface",
          "_measureType": "bytes8 type of measure for the dApps interface",
          "_nbTime": "uint8 number of times for the dApps interface",
          "_timeCode": "bytes1 time code for the dApps interface",
          "_version": "bytes8 version of service"
        }
      },
      "owner()": {
        "details": "Returns the address of the current owner."
      },
      "renounceOwnership()": {
        "details": "Leaves the contract without owner. It will not be possible to call `onlyOwner` functions anymore. Can only be called by the current owner. NOTE: Renouncing ownership will leave the contract without an owner, thereby removing any functionality that is only available to the owner."
      },
      "setBridgeAddress(uint256,address)": {
        "details": "set a BridgeAdress",
        "params": {
          "_bridgeAddress": "bridge's address",
          "_serviceId": "index of service"
        }
      },
      "setLegislatorAddress(uint256,address)": {
        "details": "set a LegislatorAddress",
        "params": {
          "_legislatorAddress": "legislator's address",
          "_serviceId": "index of service "
        }
      },
      "setTechMasterAddress(uint256,address)": {
        "details": "set a TechMasterAddress",
        "params": {
          "_serviceId": "index of service ",
          "_techMasterAddress": "techMaster's address"
        }
      },
      "toggleContract()": {
        "details": "toggle a Contract activation or deactivation"
      },
      "toggleIOT(uint256,bytes6)": {
        "details": "toggle a sensor activation or deactivation",
        "params": {
          "_macAddress": "index of sensor",
          "_serviceId": "index of service"
        }
      },
      "toggleRule(uint256)": {
        "details": "toggle an alert config",
        "params": {
          "_ruleId": "index of the alert config"
        }
      },
      "toggleService(uint256)": {
        "details": "toggle a Service activation or deactivation",
        "params": {
          "_serviceId": "index of service"
        }
      },
      "transferOwnership(address)": {
        "details": "Transfers ownership of the contract to a new account (`newOwner`). Can only be called by the current owner."
      }
    },
    "version": 1
  },
  "userdoc": {
    "kind": "user",
    "methods": {},
    "version": 1
  }
}