{
  "contractName": "CustomerContract",
  "abi": [
    {
      "inputs": [
        {
          "internalType": "bytes8",
          "name": "_version",
          "type": "bytes8"
        },
        {
          "internalType": "address",
          "name": "_ledgerAddress",
          "type": "address"
        },
        {
          "internalType": "address",
          "name": "_ecpTokenAddress",
          "type": "address"
        },
        {
          "internalType": "address",
          "name": "_customerAddress",
          "type": "address"
        },
        {
          "internalType": "address",
          "name": "_prevContract",
          "type": "address"
        },
        {
          "internalType": "uint64",
          "name": "_prevContractDate",
          "type": "uint64"
        }
      ],
      "stateMutability": "nonpayable",
      "type": "constructor"
    },
    {
      "anonymous": false,
      "inputs": [
        {
          "indexed": false,
          "internalType": "uint256",
          "name": "_serviceId",
          "type": "uint256"
        },
        {
          "indexed": false,
          "internalType": "uint256",
          "name": "_ruleId",
          "type": "uint256"
        },
        {
          "indexed": false,
          "internalType": "bytes32",
          "name": "_alert",
          "type": "bytes32"
        },
        {
          "indexed": false,
          "internalType": "address",
          "name": "_author",
          "type": "address"
        }
      ],
      "name": "AlertReceive",
      "type": "event"
    },
    {
      "anonymous": false,
      "inputs": [
        {
          "indexed": false,
          "internalType": "string",
          "name": "_message",
          "type": "string"
        },
        {
          "indexed": false,
          "internalType": "address",
          "name": "_author",
          "type": "address"
        }
      ],
      "name": "ContractUpdate",
      "type": "event"
    },
    {
      "anonymous": false,
      "inputs": [
        {
          "indexed": false,
          "internalType": "uint256",
          "name": "_serviceId",
          "type": "uint256"
        },
        {
          "indexed": false,
          "internalType": "bytes32",
          "name": "_header",
          "type": "bytes32"
        },
        {
          "indexed": false,
          "internalType": "bytes32",
          "name": "_body",
          "type": "bytes32"
        },
        {
          "indexed": false,
          "internalType": "address",
          "name": "_author",
          "type": "address"
        }
      ],
      "name": "MeasureReceive",
      "type": "event"
    },
    {
      "anonymous": false,
      "inputs": [
        {
          "indexed": true,
          "internalType": "address",
          "name": "previousOwner",
          "type": "address"
        },
        {
          "indexed": true,
          "internalType": "address",
          "name": "newOwner",
          "type": "address"
        }
      ],
      "name": "OwnershipTransferred",
      "type": "event"
    },
    {
      "anonymous": false,
      "inputs": [
        {
          "indexed": false,
          "internalType": "uint256",
          "name": "_serviceId",
          "type": "uint256"
        },
        {
          "indexed": false,
          "internalType": "bytes6",
          "name": "_iotId",
          "type": "bytes6"
        },
        {
          "indexed": false,
          "internalType": "string",
          "name": "_message",
          "type": "string"
        },
        {
          "indexed": false,
          "internalType": "address",
          "name": "_author",
          "type": "address"
        }
      ],
      "name": "ServiceIotUpdate",
      "type": "event"
    },
    {
      "anonymous": false,
      "inputs": [
        {
          "indexed": false,
          "internalType": "uint256",
          "name": "_serviceId",
          "type": "uint256"
        },
        {
          "indexed": false,
          "internalType": "uint256",
          "name": "_ruleId",
          "type": "uint256"
        },
        {
          "indexed": false,
          "internalType": "string",
          "name": "_message",
          "type": "string"
        },
        {
          "indexed": false,
          "internalType": "address",
          "name": "_author",
          "type": "address"
        }
      ],
      "name": "ServiceRulesUpdate",
      "type": "event"
    },
    {
      "anonymous": false,
      "inputs": [
        {
          "indexed": false,
          "internalType": "uint256",
          "name": "_serviceId",
          "type": "uint256"
        },
        {
          "indexed": false,
          "internalType": "string",
          "name": "_message",
          "type": "string"
        },
        {
          "indexed": false,
          "internalType": "address",
          "name": "_author",
          "type": "address"
        }
      ],
      "name": "ServiceUpdate",
      "type": "event"
    },
    {
      "inputs": [],
      "name": "_myConfig",
      "outputs": [
        {
          "internalType": "bytes8",
          "name": "version",
          "type": "bytes8"
        },
        {
          "internalType": "address",
          "name": "_ledgerAddress",
          "type": "address"
        },
        {
          "internalType": "address",
          "name": "_ecpTokenAddress",
          "type": "address"
        },
        {
          "internalType": "uint64",
          "name": "prevContractDate",
          "type": "uint64"
        },
        {
          "internalType": "uint64",
          "name": "nextContractDate",
          "type": "uint64"
        },
        {
          "internalType": "address",
          "name": "customerAddress",
          "type": "address"
        },
        {
          "internalType": "address",
          "name": "prevContract",
          "type": "address"
        },
        {
          "internalType": "address",
          "name": "nextContract",
          "type": "address"
        },
        {
          "internalType": "bool",
          "name": "isActive",
          "type": "bool"
        }
      ],
      "stateMutability": "view",
      "type": "function",
      "constant": true
    },
    {
      "inputs": [],
      "name": "_ruleIdCounter",
      "outputs": [
        {
          "internalType": "uint256",
          "name": "_value",
          "type": "uint256"
        }
      ],
      "stateMutability": "view",
      "type": "function",
      "constant": true
    },
    {
      "inputs": [],
      "name": "_serviceIdCounter",
      "outputs": [
        {
          "internalType": "uint256",
          "name": "_value",
          "type": "uint256"
        }
      ],
      "stateMutability": "view",
      "type": "function",
      "constant": true
    },
    {
      "inputs": [
        {
          "internalType": "uint256",
          "name": "",
          "type": "uint256"
        },
        {
          "internalType": "bytes6",
          "name": "",
          "type": "bytes6"
        }
      ],
      "name": "_serviceIots",
      "outputs": [
        {
          "internalType": "string",
          "name": "description",
          "type": "string"
        },
        {
          "internalType": "bool",
          "name": "isActive",
          "type": "bool"
        }
      ],
      "stateMutability": "view",
      "type": "function",
      "constant": true
    },
    {
      "inputs": [
        {
          "internalType": "uint256",
          "name": "",
          "type": "uint256"
        }
      ],
      "name": "_serviceRules",
      "outputs": [
        {
          "internalType": "bytes8",
          "name": "version",
          "type": "bytes8"
        },
        {
          "internalType": "uint16",
          "name": "serviceId",
          "type": "uint16"
        },
        {
          "internalType": "string",
          "name": "description",
          "type": "string"
        },
        {
          "internalType": "address",
          "name": "legislatorAddress",
          "type": "address"
        },
        {
          "internalType": "uint64",
          "name": "dateOn",
          "type": "uint64"
        },
        {
          "internalType": "uint64",
          "name": "dateOff",
          "type": "uint64"
        },
        {
          "internalType": "bytes4",
          "name": "codeAlert",
          "type": "bytes4"
        },
        {
          "internalType": "bytes8",
          "name": "valueAlert",
          "type": "bytes8"
        },
        {
          "internalType": "bool",
          "name": "isActive",
          "type": "bool"
        },
        {
          "components": [
            {
              "internalType": "uint256",
              "name": "_value",
              "type": "uint256"
            }
          ],
          "internalType": "struct Counters.Counter",
          "name": "alertIdCounter",
          "type": "tuple"
        }
      ],
      "stateMutability": "view",
      "type": "function",
      "constant": true
    },
    {
      "inputs": [
        {
          "internalType": "uint256",
          "name": "",
          "type": "uint256"
        }
      ],
      "name": "_services",
      "outputs": [
        {
          "internalType": "bytes8",
          "name": "version",
          "type": "bytes8"
        },
        {
          "internalType": "bytes8",
          "name": "measureType",
          "type": "bytes8"
        },
        {
          "internalType": "bytes1",
          "name": "timeCode",
          "type": "bytes1"
        },
        {
          "internalType": "uint8",
          "name": "nbTime",
          "type": "uint8"
        },
        {
          "internalType": "bool",
          "name": "isActive",
          "type": "bool"
        },
        {
          "internalType": "string",
          "name": "description",
          "type": "string"
        },
        {
          "internalType": "address",
          "name": "bridgeAddress",
          "type": "address"
        },
        {
          "internalType": "address",
          "name": "techMasterAddress",
          "type": "address"
        },
        {
          "internalType": "address",
          "name": "legislatorAddress",
          "type": "address"
        },
        {
          "components": [
            {
              "internalType": "uint256",
              "name": "_value",
              "type": "uint256"
            }
          ],
          "internalType": "struct Counters.Counter",
          "name": "measureIdCounter",
          "type": "tuple"
        },
        {
          "components": [
            {
              "internalType": "uint256",
              "name": "_value",
              "type": "uint256"
            }
          ],
          "internalType": "struct Counters.Counter",
          "name": "iotIdCounter",
          "type": "tuple"
        }
      ],
      "stateMutability": "view",
      "type": "function",
      "constant": true
    },
    {
      "inputs": [],
      "name": "owner",
      "outputs": [
        {
          "internalType": "address",
          "name": "",
          "type": "address"
        }
      ],
      "stateMutability": "view",
      "type": "function",
      "constant": true
    },
    {
      "inputs": [],
      "name": "renounceOwnership",
      "outputs": [],
      "stateMutability": "nonpayable",
      "type": "function"
    },
    {
      "inputs": [
        {
          "internalType": "address",
          "name": "newOwner",
          "type": "address"
        }
      ],
      "name": "transferOwnership",
      "outputs": [],
      "stateMutability": "nonpayable",
      "type": "function"
    },
    {
      "inputs": [],
      "name": "toggleContract",
      "outputs": [],
      "stateMutability": "nonpayable",
      "type": "function"
    },
    {
      "inputs": [
        {
          "internalType": "bytes8",
          "name": "_version",
          "type": "bytes8"
        },
        {
          "internalType": "string",
          "name": "_description",
          "type": "string"
        },
        {
          "internalType": "bytes8",
          "name": "_measureType",
          "type": "bytes8"
        },
        {
          "internalType": "bytes1",
          "name": "_timeCode",
          "type": "bytes1"
        },
        {
          "internalType": "uint8",
          "name": "_nbTime",
          "type": "uint8"
        }
      ],
      "name": "addService",
      "outputs": [],
      "stateMutability": "nonpayable",
      "type": "function"
    },
    {
      "inputs": [
        {
          "internalType": "uint256",
          "name": "_serviceId",
          "type": "uint256"
        }
      ],
      "name": "toggleService",
      "outputs": [],
      "stateMutability": "nonpayable",
      "type": "function"
    },
    {
      "inputs": [
        {
          "internalType": "uint256",
          "name": "_serviceId",
          "type": "uint256"
        },
        {
          "internalType": "address",
          "name": "_techMasterAddress",
          "type": "address"
        }
      ],
      "name": "setTechMasterAddress",
      "outputs": [],
      "stateMutability": "nonpayable",
      "type": "function"
    },
    {
      "inputs": [
        {
          "internalType": "uint256",
          "name": "_serviceId",
          "type": "uint256"
        },
        {
          "internalType": "address",
          "name": "_legislatorAddress",
          "type": "address"
        }
      ],
      "name": "setLegislatorAddress",
      "outputs": [],
      "stateMutability": "nonpayable",
      "type": "function"
    },
    {
      "inputs": [
        {
          "internalType": "uint256",
          "name": "_serviceId",
          "type": "uint256"
        },
        {
          "internalType": "address",
          "name": "_bridgeAddress",
          "type": "address"
        }
      ],
      "name": "setBridgeAddress",
      "outputs": [],
      "stateMutability": "nonpayable",
      "type": "function"
    },
    {
      "inputs": [
        {
          "internalType": "uint256",
          "name": "_serviceId",
          "type": "uint256"
        },
        {
          "internalType": "bytes32",
          "name": "_measureHeader",
          "type": "bytes32"
        },
        {
          "internalType": "bytes32",
          "name": "_measurebody",
          "type": "bytes32"
        }
      ],
      "name": "addMeasure",
      "outputs": [],
      "stateMutability": "nonpayable",
      "type": "function"
    },
    {
      "inputs": [
        {
          "internalType": "bytes8",
          "name": "_version",
          "type": "bytes8"
        },
        {
          "internalType": "uint16",
          "name": "_serviceId",
          "type": "uint16"
        },
        {
          "internalType": "string",
          "name": "_description",
          "type": "string"
        },
        {
          "internalType": "uint64",
          "name": "_dateOn",
          "type": "uint64"
        },
        {
          "internalType": "uint64",
          "name": "_dateOff",
          "type": "uint64"
        },
        {
          "internalType": "bytes4",
          "name": "_codeAlert",
          "type": "bytes4"
        },
        {
          "internalType": "bytes8",
          "name": "_valueAlert",
          "type": "bytes8"
        }
      ],
      "name": "addRule",
      "outputs": [],
      "stateMutability": "nonpayable",
      "type": "function"
    },
    {
      "inputs": [
        {
          "internalType": "uint256",
          "name": "_ruleId",
          "type": "uint256"
        }
      ],
      "name": "toggleRule",
      "outputs": [],
      "stateMutability": "nonpayable",
      "type": "function"
    },
    {
      "inputs": [
        {
          "internalType": "uint256",
          "name": "_serviceId",
          "type": "uint256"
        },
        {
          "internalType": "uint256",
          "name": "_ruleId",
          "type": "uint256"
        },
        {
          "internalType": "bytes32",
          "name": "_alertBody",
          "type": "bytes32"
        }
      ],
      "name": "addAlert",
      "outputs": [],
      "stateMutability": "nonpayable",
      "type": "function"
    }
  ],
  "bytecode": "0x60806040523480156200001157600080fd5b5060405162003f5338038062003f53833981810160405281019062000037919062000472565b6000620000496200042560201b60201c565b9050806000806101000a81548173ffffffffffffffffffffffffffffffffffffffff021916908373ffffffffffffffffffffffffffffffffffffffff1602179055508073ffffffffffffffffffffffffffffffffffffffff16600073ffffffffffffffffffffffffffffffffffffffff167f8be0079c531659141344cd1fd0a4f28419497f9722a3daafe3b4186f6b6457e060405160405180910390a3506040518061012001604052808777ffffffffffffffffffffffffffffffffffffffffffffffff191681526020018673ffffffffffffffffffffffffffffffffffffffff1681526020018573ffffffffffffffffffffffffffffffffffffffff1681526020018267ffffffffffffffff168152602001600067ffffffffffffffff1681526020018473ffffffffffffffffffffffffffffffffffffffff1681526020018373ffffffffffffffffffffffffffffffffffffffff168152602001600073ffffffffffffffffffffffffffffffffffffffff16815260200160011515815250600160008201518160000160006101000a81548167ffffffffffffffff021916908360c01c021790555060208201518160000160086101000a81548173ffffffffffffffffffffffffffffffffffffffff021916908373ffffffffffffffffffffffffffffffffffffffff16021790555060408201518160010160006101000a81548173ffffffffffffffffffffffffffffffffffffffff021916908373ffffffffffffffffffffffffffffffffffffffff16021790555060608201518160010160146101000a81548167ffffffffffffffff021916908367ffffffffffffffff16021790555060808201518160020160006101000a81548167ffffffffffffffff021916908367ffffffffffffffff16021790555060a08201518160020160086101000a81548173ffffffffffffffffffffffffffffffffffffffff021916908373ffffffffffffffffffffffffffffffffffffffff16021790555060c08201518160030160006101000a81548173ffffffffffffffffffffffffffffffffffffffff021916908373ffffffffffffffffffffffffffffffffffffffff16021790555060e08201518160040160006101000a81548173ffffffffffffffffffffffffffffffffffffffff021916908373ffffffffffffffffffffffffffffffffffffffff1602179055506101008201518160040160146101000a81548160ff02191690831515021790555090505083600b60006101000a81548173ffffffffffffffffffffffffffffffffffffffff021916908373ffffffffffffffffffffffffffffffffffffffff160217905550505050505050620005ca565b600033905090565b6000815190506200043e816200057c565b92915050565b600081519050620004558162000596565b92915050565b6000815190506200046c81620005b0565b92915050565b60008060008060008060c087890312156200048c57600080fd5b60006200049c89828a0162000444565b9650506020620004af89828a016200042d565b9550506040620004c289828a016200042d565b9450506060620004d589828a016200042d565b9350506080620004e889828a016200042d565b92505060a0620004fb89828a016200045b565b9150509295509295509295565b6000620005158262000548565b9050919050565b60007fffffffffffffffff00000000000000000000000000000000000000000000000082169050919050565b600073ffffffffffffffffffffffffffffffffffffffff82169050919050565b600067ffffffffffffffff82169050919050565b620005878162000508565b81146200059357600080fd5b50565b620005a1816200051c565b8114620005ad57600080fd5b50565b620005bb8162000568565b8114620005c757600080fd5b50565b61397980620005da6000396000f3fe608060405234801561001057600080fd5b50600436106101215760003560e01c80638da5cb5b116100ad578063c700fdf711610071578063c700fdf7146102e8578063da6cd37614610306578063e0c9d4bb14610322578063e8d290841461033e578063f2fde38b1461035a57610121565b80638da5cb5b1461026257806399892f49146102805780639df90028146102a6578063b2e733bf146102b0578063c18ec58c146102cc57610121565b80634c6fdcc6116100f45780634c6fdcc6146101ab5780635813d736146101c7578063715018a6146102005780637ad3155f1461020a5780638181b80d1461022857610121565b806306566faa146101265780630d00605f146101425780632cb95cec1461015e578063390fc6b61461018f575b600080fd5b610140600480360381019061013b9190612a14565b610376565b005b61015c60048036038101906101579190612935565b6105ed565b005b61017860048036038101906101739190612a9f565b610b0e565b60405161018692919061320e565b60405180910390f35b6101a960048036038101906101a491906129eb565b610bd4565b005b6101c560048036038101906101c09190612a14565b610d69565b005b6101e160048036038101906101dc91906129eb565b610f79565b6040516101f79a9998979695949392919061316b565b60405180910390f35b6102086110f3565b005b61021261122d565b60405161021f91906133c0565b60405180910390f35b610242600480360381019061023d91906129eb565b611239565b6040516102599b9a999897969594939291906130b9565b60405180910390f35b61026a6113e4565b6040516102779190612fe8565b60405180910390f35b61028861140d565b60405161029d9998979695949392919061302c565b60405180910390f35b6102ae61152b565b005b6102ca60048036038101906102c59190612a50565b611610565b005b6102e660048036038101906102e19190612a14565b61192b565b005b6102f0611b8f565b6040516102fd91906133c0565b60405180910390f35b610320600480360381019061031b91906128a6565b611b9b565b005b61033c600480360381019061033791906129eb565b612001565b005b61035860048036038101906103539190612adb565b61215f565b005b610374600480360381019061036f9190612854565b61247a565b005b600160040160149054906101000a900460ff166103c8576040517f08c379a00000000000000000000000000000000000000000000000000000000081526004016103bf906132cc565b60405180910390fd5b816103d36007612623565b8110610414576040517f08c379a000000000000000000000000000000000000000000000000000000000815260040161040b906132ac565b60405180910390fd5b6006600082815260200190815260200160002060000160129054906101000a900460ff16610477576040517f08c379a000000000000000000000000000000000000000000000000000000000815260040161046e906132ec565b60405180910390fd5b823373ffffffffffffffffffffffffffffffffffffffff166006600083815260200190815260200160002060030160009054906101000a900473ffffffffffffffffffffffffffffffffffffffff1673ffffffffffffffffffffffffffffffffffffffff16148061051a57503373ffffffffffffffffffffffffffffffffffffffff166105026113e4565b73ffffffffffffffffffffffffffffffffffffffff16145b610559576040517f08c379a00000000000000000000000000000000000000000000000000000000081526004016105509061330c565b60405180910390fd5b826006600086815260200190815260200160002060020160006101000a81548173ffffffffffffffffffffffffffffffffffffffff021916908373ffffffffffffffffffffffffffffffffffffffff1602179055507f6eb54bb1fcbc8b072bc7be4d66f909b2316584cb9b6c49bfdb6504b9246a848184336040516105df92919061345c565b60405180910390a150505050565b600160040160149054906101000a900460ff1661063f576040517f08c379a0000000000000000000000000000000000000000000000000000000008152600401610636906132cc565b60405180910390fd5b8561ffff1661064e6007612623565b811061068f576040517f08c379a0000000000000000000000000000000000000000000000000000000008152600401610686906132ac565b60405180910390fd5b6006600082815260200190815260200160002060000160129054906101000a900460ff166106f2576040517f08c379a00000000000000000000000000000000000000000000000000000000081526004016106e9906132ec565b60405180910390fd5b3373ffffffffffffffffffffffffffffffffffffffff16600660008961ffff16815260200190815260200160002060040160009054906101000a900473ffffffffffffffffffffffffffffffffffffffff1673ffffffffffffffffffffffffffffffffffffffff1614806107b657503373ffffffffffffffffffffffffffffffffffffffff16600160020160089054906101000a900473ffffffffffffffffffffffffffffffffffffffff1673ffffffffffffffffffffffffffffffffffffffff16145b806107f357503373ffffffffffffffffffffffffffffffffffffffff166107db6113e4565b73ffffffffffffffffffffffffffffffffffffffff16145b610832576040517f08c379a00000000000000000000000000000000000000000000000000000000081526004016108299061330c565b60405180910390fd5b61083a61264f565b6040518061014001604052808a77ffffffffffffffffffffffffffffffffffffffffffffffff191681526020018961ffff1681526020018881526020013373ffffffffffffffffffffffffffffffffffffffff1681526020018767ffffffffffffffff1681526020018667ffffffffffffffff168152602001857bffffffffffffffffffffffffffffffffffffffffffffffffffffffff191681526020018477ffffffffffffffffffffffffffffffffffffffffffffffff191681526020016001151581526020018281525060096000610914600a612623565b815260200190815260200160002060008201518160000160006101000a81548167ffffffffffffffff021916908360c01c021790555060208201518160000160086101000a81548161ffff021916908361ffff1602179055506040820151816001019080519060200190610989929190612662565b5060608201518160020160006101000a81548173ffffffffffffffffffffffffffffffffffffffff021916908373ffffffffffffffffffffffffffffffffffffffff16021790555060808201518160020160146101000a81548167ffffffffffffffff021916908367ffffffffffffffff16021790555060a08201518160030160006101000a81548167ffffffffffffffff021916908367ffffffffffffffff16021790555060c08201518160030160086101000a81548163ffffffff021916908360e01c021790555060e082015181600301600c6101000a81548167ffffffffffffffff021916908360c01c02179055506101008201518160030160146101000a81548160ff021916908315150217905550610120820151816004016000820151816000015550509050507fd265572d82340957d58225c4530aa27f8dd410b1d09d9a4c77677d55a01cc1a188610ae1600a612623565b33604051610af193929190613376565b60405180910390a1610b03600a612631565b505050505050505050565b600860205281600052604060002060205280600052604060002060009150915050806000018054610b3e906137a5565b80601f0160208091040260200160405190810160405280929190818152602001828054610b6a906137a5565b8015610bb75780601f10610b8c57610100808354040283529160200191610bb7565b820191906000526020600020905b815481529060010190602001808311610b9a57829003601f168201915b5050505050908060010160009054906101000a900460ff16905082565b6009600082815260200190815260200160002060020160009054906101000a900473ffffffffffffffffffffffffffffffffffffffff1673ffffffffffffffffffffffffffffffffffffffff163373ffffffffffffffffffffffffffffffffffffffff161480610c765750610c476113e4565b73ffffffffffffffffffffffffffffffffffffffff163373ffffffffffffffffffffffffffffffffffffffff16145b610cb5576040517f08c379a0000000000000000000000000000000000000000000000000000000008152600401610cac9061330c565b60405180910390fd5b7fd265572d82340957d58225c4530aa27f8dd410b1d09d9a4c77677d55a01cc1a16009600083815260200190815260200160002060000160089054906101000a900461ffff168233604051610d0c9392919061332c565b60405180910390a16009600082815260200190815260200160002060030160149054906101000a900460ff16156009600083815260200190815260200160002060030160146101000a81548160ff02191690831515021790555050565b600160040160149054906101000a900460ff16610dbb576040517f08c379a0000000000000000000000000000000000000000000000000000000008152600401610db2906132cc565b60405180910390fd5b81610dc66007612623565b8110610e07576040517f08c379a0000000000000000000000000000000000000000000000000000000008152600401610dfe906132ac565b60405180910390fd5b6006600082815260200190815260200160002060000160129054906101000a900460ff16610e6a576040517f08c379a0000000000000000000000000000000000000000000000000000000008152600401610e61906132ec565b60405180910390fd5b610e72612647565b73ffffffffffffffffffffffffffffffffffffffff16610e906113e4565b73ffffffffffffffffffffffffffffffffffffffff1614610ee6576040517f08c379a0000000000000000000000000000000000000000000000000000000008152600401610edd9061328c565b60405180910390fd5b816006600085815260200190815260200160002060030160006101000a81548173ffffffffffffffffffffffffffffffffffffffff021916908373ffffffffffffffffffffffffffffffffffffffff1602179055507f6eb54bb1fcbc8b072bc7be4d66f909b2316584cb9b6c49bfdb6504b9246a84818333604051610f6c929190613420565b60405180910390a1505050565b60096020528060005260406000206000915090508060000160009054906101000a900460c01b908060000160089054906101000a900461ffff1690806001018054610fc3906137a5565b80601f0160208091040260200160405190810160405280929190818152602001828054610fef906137a5565b801561103c5780601f106110115761010080835404028352916020019161103c565b820191906000526020600020905b81548152906001019060200180831161101f57829003601f168201915b5050505050908060020160009054906101000a900473ffffffffffffffffffffffffffffffffffffffff16908060020160149054906101000a900467ffffffffffffffff16908060030160009054906101000a900467ffffffffffffffff16908060030160089054906101000a900460e01b9080600301600c9054906101000a900460c01b908060030160149054906101000a900460ff16908060040160405180602001604052908160008201548152505090508a565b6110fb612647565b73ffffffffffffffffffffffffffffffffffffffff166111196113e4565b73ffffffffffffffffffffffffffffffffffffffff161461116f576040517f08c379a00000000000000000000000000000000000000000000000000000000081526004016111669061328c565b60405180910390fd5b600073ffffffffffffffffffffffffffffffffffffffff1660008054906101000a900473ffffffffffffffffffffffffffffffffffffffff1673ffffffffffffffffffffffffffffffffffffffff167f8be0079c531659141344cd1fd0a4f28419497f9722a3daafe3b4186f6b6457e060405160405180910390a360008060006101000a81548173ffffffffffffffffffffffffffffffffffffffff021916908373ffffffffffffffffffffffffffffffffffffffff160217905550565b600a8060000154905081565b60066020528060005260406000206000915090508060000160009054906101000a900460c01b908060000160089054906101000a900460c01b908060000160109054906101000a900460f81b908060000160119054906101000a900460ff16908060000160129054906101000a900460ff16908060010180546112bb906137a5565b80601f01602080910402602001604051908101604052809291908181526020018280546112e7906137a5565b80156113345780601f1061130957610100808354040283529160200191611334565b820191906000526020600020905b81548152906001019060200180831161131757829003601f168201915b5050505050908060020160009054906101000a900473ffffffffffffffffffffffffffffffffffffffff16908060030160009054906101000a900473ffffffffffffffffffffffffffffffffffffffff16908060040160009054906101000a900473ffffffffffffffffffffffffffffffffffffffff169080600501604051806020016040529081600082015481525050908060060160405180602001604052908160008201548152505090508b565b60008060009054906101000a900473ffffffffffffffffffffffffffffffffffffffff16905090565b60018060000160009054906101000a900460c01b908060000160089054906101000a900473ffffffffffffffffffffffffffffffffffffffff16908060010160009054906101000a900473ffffffffffffffffffffffffffffffffffffffff16908060010160149054906101000a900467ffffffffffffffff16908060020160009054906101000a900467ffffffffffffffff16908060020160089054906101000a900473ffffffffffffffffffffffffffffffffffffffff16908060030160009054906101000a900473ffffffffffffffffffffffffffffffffffffffff16908060040160009054906101000a900473ffffffffffffffffffffffffffffffffffffffff16908060040160149054906101000a900460ff16905089565b611533612647565b73ffffffffffffffffffffffffffffffffffffffff166115516113e4565b73ffffffffffffffffffffffffffffffffffffffff16146115a7576040517f08c379a000000000000000000000000000000000000000000000000000000000815260040161159e9061328c565b60405180910390fd5b7f74851bb416411c1b4cb986c13ce9b6a9e973e7948f03fc2e574ca42a6d3724d3336040516115d6919061325e565b60405180910390a1600160040160149054906101000a900460ff1615600160040160146101000a81548160ff021916908315150217905550565b600160040160149054906101000a900460ff16611662576040517f08c379a0000000000000000000000000000000000000000000000000000000008152600401611659906132cc565b60405180910390fd5b8261166d6007612623565b81106116ae576040517f08c379a00000000000000000000000000000000000000000000000000000000081526004016116a5906132ac565b60405180910390fd5b6006600082815260200190815260200160002060000160129054906101000a900460ff16611711576040517f08c379a0000000000000000000000000000000000000000000000000000000008152600401611708906132ec565b60405180910390fd5b833373ffffffffffffffffffffffffffffffffffffffff166006600083815260200190815260200160002060020160009054906101000a900473ffffffffffffffffffffffffffffffffffffffff1673ffffffffffffffffffffffffffffffffffffffff1614806117b457503373ffffffffffffffffffffffffffffffffffffffff1661179c6113e4565b73ffffffffffffffffffffffffffffffffffffffff16145b6117f3576040517f08c379a00000000000000000000000000000000000000000000000000000000081526004016117ea9061330c565b60405180910390fd5b600b60009054906101000a900473ffffffffffffffffffffffffffffffffffffffff1673ffffffffffffffffffffffffffffffffffffffff1663a9059cbb600160000160089054906101000a900473ffffffffffffffffffffffffffffffffffffffff1660016040518363ffffffff1660e01b8152600401611876929190613003565b602060405180830381600087803b15801561189057600080fd5b505af11580156118a4573d6000803e3d6000fd5b505050506040513d601f19601f820116820180604052508101906118c8919061287d565b506118e760066000878152602001908152602001600020600501612631565b7f818366328240e2ab5877d5eed27c1f3803a716f5700034371e2e520c650f57458585853360405161191c94939291906133db565b60405180910390a15050505050565b600160040160149054906101000a900460ff1661197d576040517f08c379a0000000000000000000000000000000000000000000000000000000008152600401611974906132cc565b60405180910390fd5b816119886007612623565b81106119c9576040517f08c379a00000000000000000000000000000000000000000000000000000000081526004016119c0906132ac565b60405180910390fd5b6006600082815260200190815260200160002060000160129054906101000a900460ff16611a2c576040517f08c379a0000000000000000000000000000000000000000000000000000000008152600401611a23906132ec565b60405180910390fd5b3373ffffffffffffffffffffffffffffffffffffffff16600160020160089054906101000a900473ffffffffffffffffffffffffffffffffffffffff1673ffffffffffffffffffffffffffffffffffffffff161480611abd57503373ffffffffffffffffffffffffffffffffffffffff16611aa56113e4565b73ffffffffffffffffffffffffffffffffffffffff16145b611afc576040517f08c379a0000000000000000000000000000000000000000000000000000000008152600401611af39061330c565b60405180910390fd5b816006600085815260200190815260200160002060040160006101000a81548173ffffffffffffffffffffffffffffffffffffffff021916908373ffffffffffffffffffffffffffffffffffffffff1602179055507f6eb54bb1fcbc8b072bc7be4d66f909b2316584cb9b6c49bfdb6504b9246a84818333604051611b82929190613498565b60405180910390a1505050565b60078060000154905081565b3373ffffffffffffffffffffffffffffffffffffffff16600160020160089054906101000a900473ffffffffffffffffffffffffffffffffffffffff1673ffffffffffffffffffffffffffffffffffffffff161480611c2c57503373ffffffffffffffffffffffffffffffffffffffff16611c146113e4565b73ffffffffffffffffffffffffffffffffffffffff16145b611c6b576040517f08c379a0000000000000000000000000000000000000000000000000000000008152600401611c629061330c565b60405180910390fd5b600160040160149054906101000a900460ff16611cbd576040517f08c379a0000000000000000000000000000000000000000000000000000000008152600401611cb4906132cc565b60405180910390fd5b611cc561264f565b611ccd61264f565b6040518061016001604052808877ffffffffffffffffffffffffffffffffffffffffffffffff191681526020018677ffffffffffffffffffffffffffffffffffffffffffffffff19168152602001857effffffffffffffffffffffffffffffffffffffffffffffffffffffffffffff191681526020018460ff168152602001600115158152602001878152602001600073ffffffffffffffffffffffffffffffffffffffff168152602001600073ffffffffffffffffffffffffffffffffffffffff168152602001600073ffffffffffffffffffffffffffffffffffffffff1681526020018381526020018281525060066000611dca6007612623565b815260200190815260200160002060008201518160000160006101000a81548167ffffffffffffffff021916908360c01c021790555060208201518160000160086101000a81548167ffffffffffffffff021916908360c01c021790555060408201518160000160106101000a81548160ff021916908360f81c021790555060608201518160000160116101000a81548160ff021916908360ff16021790555060808201518160000160126101000a81548160ff02191690831515021790555060a0820151816001019080519060200190611ea6929190612662565b5060c08201518160020160006101000a81548173ffffffffffffffffffffffffffffffffffffffff021916908373ffffffffffffffffffffffffffffffffffffffff16021790555060e08201518160030160006101000a81548173ffffffffffffffffffffffffffffffffffffffff021916908373ffffffffffffffffffffffffffffffffffffffff1602179055506101008201518160040160006101000a81548173ffffffffffffffffffffffffffffffffffffffff021916908373ffffffffffffffffffffffffffffffffffffffff16021790555061012082015181600501600082015181600001555050610140820151816006016000820151816000015550509050507f6eb54bb1fcbc8b072bc7be4d66f909b2316584cb9b6c49bfdb6504b9246a8481611fd76007612623565b33604051611fe69291906134d4565b60405180910390a1611ff86007612631565b50505050505050565b3373ffffffffffffffffffffffffffffffffffffffff16600160020160089054906101000a900473ffffffffffffffffffffffffffffffffffffffff1673ffffffffffffffffffffffffffffffffffffffff16148061209257503373ffffffffffffffffffffffffffffffffffffffff1661207a6113e4565b73ffffffffffffffffffffffffffffffffffffffff16145b6120d1576040517f08c379a00000000000000000000000000000000000000000000000000000000081526004016120c89061330c565b60405180910390fd5b7f6eb54bb1fcbc8b072bc7be4d66f909b2316584cb9b6c49bfdb6504b9246a84818133604051612102929190613510565b60405180910390a16006600082815260200190815260200160002060000160129054906101000a900460ff16156006600083815260200190815260200160002060000160126101000a81548160ff02191690831515021790555050565b600160040160149054906101000a900460ff166121b1576040517f08c379a00000000000000000000000000000000000000000000000000000000081526004016121a8906132cc565b60405180910390fd5b826121bc6007612623565b81106121fd576040517f08c379a00000000000000000000000000000000000000000000000000000000081526004016121f4906132ac565b60405180910390fd5b6006600082815260200190815260200160002060000160129054906101000a900460ff16612260576040517f08c379a0000000000000000000000000000000000000000000000000000000008152600401612257906132ec565b60405180910390fd5b833373ffffffffffffffffffffffffffffffffffffffff166006600083815260200190815260200160002060020160009054906101000a900473ffffffffffffffffffffffffffffffffffffffff1673ffffffffffffffffffffffffffffffffffffffff16148061230357503373ffffffffffffffffffffffffffffffffffffffff166122eb6113e4565b73ffffffffffffffffffffffffffffffffffffffff16145b612342576040517f08c379a00000000000000000000000000000000000000000000000000000000081526004016123399061330c565b60405180910390fd5b600b60009054906101000a900473ffffffffffffffffffffffffffffffffffffffff1673ffffffffffffffffffffffffffffffffffffffff1663a9059cbb600160000160089054906101000a900473ffffffffffffffffffffffffffffffffffffffff1660016040518363ffffffff1660e01b81526004016123c5929190613003565b602060405180830381600087803b1580156123df57600080fd5b505af11580156123f3573d6000803e3d6000fd5b505050506040513d601f19601f82011682018060405250810190612417919061287d565b5061243660096000868152602001908152602001600020600401612631565b7f36134df50fb7d9b784ebe80f4738a13cede0c5efe526e5e9d8b95601d8cc900c8585853360405161246b949392919061354c565b60405180910390a15050505050565b612482612647565b73ffffffffffffffffffffffffffffffffffffffff166124a06113e4565b73ffffffffffffffffffffffffffffffffffffffff16146124f6576040517f08c379a00000000000000000000000000000000000000000000000000000000081526004016124ed9061328c565b60405180910390fd5b600073ffffffffffffffffffffffffffffffffffffffff168173ffffffffffffffffffffffffffffffffffffffff161415612566576040517f08c379a000000000000000000000000000000000000000000000000000000000815260040161255d9061323e565b60405180910390fd5b8073ffffffffffffffffffffffffffffffffffffffff1660008054906101000a900473ffffffffffffffffffffffffffffffffffffffff1673ffffffffffffffffffffffffffffffffffffffff167f8be0079c531659141344cd1fd0a4f28419497f9722a3daafe3b4186f6b6457e060405160405180910390a3806000806101000a81548173ffffffffffffffffffffffffffffffffffffffff021916908373ffffffffffffffffffffffffffffffffffffffff16021790555050565b600081600001549050919050565b6001816000016000828254019250508190555050565b600033905090565b6040518060200160405280600081525090565b82805461266e906137a5565b90600052602060002090601f01602090048101928261269057600085556126d7565b82601f106126a957805160ff19168380011785556126d7565b828001600101855582156126d7579182015b828111156126d65782518255916020019190600101906126bb565b5b5090506126e491906126e8565b5090565b5b808211156127015760008160009055506001016126e9565b5090565b6000612718612713846135c2565b613591565b90508281526020810184848401111561273057600080fd5b61273b848285613763565b509392505050565b60008135905061275281613846565b92915050565b6000815190506127678161385d565b92915050565b60008135905061277c81613874565b92915050565b6000813590506127918161388b565b92915050565b6000813590506127a6816138a2565b92915050565b6000813590506127bb816138b9565b92915050565b6000813590506127d0816138d0565b92915050565b600082601f8301126127e757600080fd5b81356127f7848260208601612705565b91505092915050565b60008135905061280f816138e7565b92915050565b600081359050612824816138fe565b92915050565b60008135905061283981613915565b92915050565b60008135905061284e8161392c565b92915050565b60006020828403121561286657600080fd5b600061287484828501612743565b91505092915050565b60006020828403121561288f57600080fd5b600061289d84828501612758565b91505092915050565b600080600080600060a086880312156128be57600080fd5b60006128cc888289016127c1565b955050602086013567ffffffffffffffff8111156128e957600080fd5b6128f5888289016127d6565b9450506040612906888289016127c1565b93505060606129178882890161276d565b92505060806129288882890161283f565b9150509295509295909350565b600080600080600080600060e0888a03121561295057600080fd5b600061295e8a828b016127c1565b975050602061296f8a828b01612800565b965050604088013567ffffffffffffffff81111561298c57600080fd5b6129988a828b016127d6565b95505060606129a98a828b0161282a565b94505060806129ba8a828b0161282a565b93505060a06129cb8a828b01612797565b92505060c06129dc8a828b016127c1565b91505092959891949750929550565b6000602082840312156129fd57600080fd5b6000612a0b84828501612815565b91505092915050565b60008060408385031215612a2757600080fd5b6000612a3585828601612815565b9250506020612a4685828601612743565b9150509250929050565b600080600060608486031215612a6557600080fd5b6000612a7386828701612815565b9350506020612a8486828701612782565b9250506040612a9586828701612782565b9150509250925092565b60008060408385031215612ab257600080fd5b6000612ac085828601612815565b9250506020612ad1858286016127ac565b9150509250929050565b600080600060608486031215612af057600080fd5b6000612afe86828701612815565b9350506020612b0f86828701612815565b9250506040612b2086828701612782565b9150509250925092565b612b338161360e565b82525050565b612b4281613620565b82525050565b612b518161362c565b82525050565b612b6081613658565b82525050565b612b6f81613662565b82525050565b612b7e816136ba565b82525050565b612b8d8161373f565b82525050565b6000612b9e826135f2565b612ba881856135fd565b9350612bb8818560208601613772565b612bc181613835565b840191505092915050565b6000612bd96019836135fd565b91507f546563684d6173746572204164647265737320757064617465000000000000006000830152602082019050919050565b6000612c196015836135fd565b91507f42726964676520416464726573732075706461746500000000000000000000006000830152602082019050919050565b6000612c596026836135fd565b91507f4f776e61626c653a206e6577206f776e657220697320746865207a65726f206160008301527f64647265737300000000000000000000000000000000000000000000000000006020830152604082019050919050565b6000612cbf6019836135fd565b91507f4c656769736c61746f72204164647265737320757064617465000000000000006000830152602082019050919050565b6000612cff600c836135fd565b91507f52756c6573206f6e2f6f666600000000000000000000000000000000000000006000830152602082019050919050565b6000612d3f600f836135fd565b91507f436f6e7472616374206f6e2f6f666600000000000000000000000000000000006000830152602082019050919050565b6000612d7f600b836135fd565b91507f4e657720736572766963650000000000000000000000000000000000000000006000830152602082019050919050565b6000612dbf6020836135fd565b91507f4f776e61626c653a2063616c6c6572206973206e6f7420746865206f776e65726000830152602082019050919050565b6000612dff6011836135fd565b91507f53657276696365206e6f742065786973740000000000000000000000000000006000830152602082019050919050565b6000612e3f600e836135fd565b91507f53657276696365206f6e2f6f66660000000000000000000000000000000000006000830152602082019050919050565b6000612e7f6011836135fd565b91507f436f6e7472616374206f6666206c696e650000000000000000000000000000006000830152602082019050919050565b6000612ebf6010836135fd565b91507f53657276696365206f6666206c696e65000000000000000000000000000000006000830152602082019050919050565b6000612eff6008836135fd565b91507f4e65772072756c650000000000000000000000000000000000000000000000006000830152602082019050919050565b6000612f3f600d836135fd565b91507f4163636573732064656e696564000000000000000000000000000000000000006000830152602082019050919050565b602082016000820151612f886000850182612fac565b50505050565b612f97816136e6565b82525050565b612fa681613751565b82525050565b612fb581613714565b82525050565b612fc481613714565b82525050565b612fd38161371e565b82525050565b612fe281613732565b82525050565b6000602082019050612ffd6000830184612b2a565b92915050565b60006040820190506130186000830185612b2a565b6130256020830184612b84565b9392505050565b600061012082019050613042600083018c612b75565b61304f602083018b612b2a565b61305c604083018a612b2a565b6130696060830189612fca565b6130766080830188612fca565b61308360a0830187612b2a565b61309060c0830186612b2a565b61309d60e0830185612b2a565b6130ab610100830184612b39565b9a9950505050505050505050565b6000610160820190506130cf600083018e612b75565b6130dc602083018d612b75565b6130e9604083018c612b48565b6130f6606083018b612fd9565b613103608083018a612b39565b81810360a08301526131158189612b93565b905061312460c0830188612b2a565b61313160e0830187612b2a565b61313f610100830186612b2a565b61314d610120830185612f72565b61315b610140830184612f72565b9c9b505050505050505050505050565b600061014082019050613181600083018d612b75565b61318e602083018c612f8e565b81810360408301526131a0818b612b93565b90506131af606083018a612b2a565b6131bc6080830189612fca565b6131c960a0830188612fca565b6131d660c0830187612b66565b6131e360e0830186612b75565b6131f1610100830185612b39565b6131ff610120830184612f72565b9b9a5050505050505050505050565b600060408201905081810360008301526132288185612b93565b90506132376020830184612b39565b9392505050565b6000602082019050818103600083015261325781612c4c565b9050919050565b6000604082019050818103600083015261327781612d32565b90506132866020830184612b2a565b92915050565b600060208201905081810360008301526132a581612db2565b9050919050565b600060208201905081810360008301526132c581612df2565b9050919050565b600060208201905081810360008301526132e581612e72565b9050919050565b6000602082019050818103600083015261330581612eb2565b9050919050565b6000602082019050818103600083015261332581612f32565b9050919050565b60006080820190506133416000830186612f9d565b61334e6020830185612fbb565b818103604083015261335f81612cf2565b905061336e6060830184612b2a565b949350505050565b600060808201905061338b6000830186612f9d565b6133986020830185612fbb565b81810360408301526133a981612ef2565b90506133b86060830184612b2a565b949350505050565b60006020820190506133d56000830184612fbb565b92915050565b60006080820190506133f06000830187612fbb565b6133fd6020830186612b57565b61340a6040830185612b57565b6134176060830184612b2a565b95945050505050565b60006060820190506134356000830185612fbb565b818103602083015261344681612bcc565b90506134556040830184612b2a565b9392505050565b60006060820190506134716000830185612fbb565b818103602083015261348281612c0c565b90506134916040830184612b2a565b9392505050565b60006060820190506134ad6000830185612fbb565b81810360208301526134be81612cb2565b90506134cd6040830184612b2a565b9392505050565b60006060820190506134e96000830185612fbb565b81810360208301526134fa81612d72565b90506135096040830184612b2a565b9392505050565b60006060820190506135256000830185612fbb565b818103602083015261353681612e32565b90506135456040830184612b2a565b9392505050565b60006080820190506135616000830187612fbb565b61356e6020830186612fbb565b61357b6040830185612b57565b6135886060830184612b2a565b95945050505050565b6000604051905081810181811067ffffffffffffffff821117156135b8576135b7613806565b5b8060405250919050565b600067ffffffffffffffff8211156135dd576135dc613806565b5b601f19601f8301169050602081019050919050565b600081519050919050565b600082825260208201905092915050565b6000613619826136f4565b9050919050565b60008115159050919050565b60007fff0000000000000000000000000000000000000000000000000000000000000082169050919050565b6000819050919050565b60007fffffffff0000000000000000000000000000000000000000000000000000000082169050919050565b60007fffffffffffff000000000000000000000000000000000000000000000000000082169050919050565b60007fffffffffffffffff00000000000000000000000000000000000000000000000082169050919050565b600061ffff82169050919050565b600073ffffffffffffffffffffffffffffffffffffffff82169050919050565b6000819050919050565b600067ffffffffffffffff82169050919050565b600060ff82169050919050565b600061374a82613714565b9050919050565b600061375c826136e6565b9050919050565b82818337600083830152505050565b60005b83811015613790578082015181840152602081019050613775565b8381111561379f576000848401525b50505050565b600060028204905060018216806137bd57607f821691505b602082108114156137d1576137d06137d7565b5b50919050565b7f4e487b7100000000000000000000000000000000000000000000000000000000600052602260045260246000fd5b7f4e487b7100000000000000000000000000000000000000000000000000000000600052604160045260246000fd5b6000601f19601f8301169050919050565b61384f8161360e565b811461385a57600080fd5b50565b61386681613620565b811461387157600080fd5b50565b61387d8161362c565b811461388857600080fd5b50565b61389481613658565b811461389f57600080fd5b50565b6138ab81613662565b81146138b657600080fd5b50565b6138c28161368e565b81146138cd57600080fd5b50565b6138d9816136ba565b81146138e457600080fd5b50565b6138f0816136e6565b81146138fb57600080fd5b50565b61390781613714565b811461391257600080fd5b50565b61391e8161371e565b811461392957600080fd5b50565b61393581613732565b811461394057600080fd5b5056fea2646970667358221220c7bedce0443328dd7d2b88fc81c1021e0148192dd67902a7a43e3b9fe5ed1a9d64736f6c63430008000033",
  "immutableReferences": {},
  "source": "// SPDX-License-Identifier: MIT\r\npragma solidity 0.8.0;\r\n\r\nimport \"../node_modules/@openzeppelin/contracts/utils/Counters.sol\";\r\nimport \"../node_modules/@openzeppelin/contracts/access/Ownable.sol\";\r\nimport \"./IECPToken.sol\";\r\n\r\ncontract CustomerContract is Ownable {\r\n    using Counters for Counters.Counter;\r\n    \r\n    // struct MeasureHeader (32) { \r\n    //   //V0.1     XX.XX.XX    00.01.00\r\n    //   version : bytes8\r\n    //   date : YYYYmmddHHii : byte12\r\n    //   measureType : bytes8 - CODE : 4 number/letter for the physical nature - 4 number/letter for the version\r\n    //   timeCode : bytes1 (hourly, daily) Y m d H i\r\n    //   nbTime : bytes3 \r\n    // }\r\n    \r\n    // struct MeasureBody (32) { \r\n    //   Value 1 Max : bytes8\r\n    //   Value 2 Mean : bytes8\r\n    //   Value 3 Mediane : bytes8\r\n    //   Value 4 Min : bytes8\r\n    // }\r\n\r\n    // struct AlertBody (32) { \r\n    //   version : bytes8\r\n    //   codeAlert : bytes4    \r\n    //   date : YYYYmmddHHii : byte12\r\n    //   valueAlert : bytes8\r\n    // }\r\n\r\n    /**\r\n    * @dev Structure of Configuration\r\n    * @notice Version and status of activation\r\n    * @notice Link to other contract\r\n    */\r\n    struct Config {\r\n        bytes8 version;\r\n        address _ledgerAddress;\r\n        address _ecpTokenAddress;        \r\n        uint64 prevContractDate;\r\n        uint64 nextContractDate;\r\n        address customerAddress;\r\n        address prevContract;\r\n        address nextContract;\r\n        bool isActive;\r\n    }\r\n    \r\n    /**\r\n     * @dev Structure of Service\r\n     * @notice Feature_V2 \r\n     */\r\n    struct Service {\r\n        bytes8 version;\r\n        bytes8 measureType;\r\n        bytes1 timeCode;\r\n        uint8 nbTime;\r\n        bool isActive;\r\n        string description;\r\n        address bridgeAddress;\r\n        address techMasterAddress;\r\n        address legislatorAddress;\r\n\r\n        Counters.Counter measureIdCounter;\r\n        Counters.Counter iotIdCounter;     \r\n    }\r\n\r\n    /**\r\n     * @dev Structure of AlertConfig\r\n     * @notice Feature_V2 \r\n     */\r\n    struct Rule {\r\n        bytes8 version;        \r\n        uint16 serviceId;\r\n        string description;   \r\n        address legislatorAddress;\r\n        uint64 dateOn;\r\n        uint64 dateOff;\r\n        bytes4 codeAlert;\r\n        bytes8 valueAlert;\r\n        bool isActive;\r\n\r\n        Counters.Counter alertIdCounter;         \r\n    }\r\n\r\n    /**\r\n     * @dev Structure of Iot\r\n     * @notice Feature_V2 \r\n     */\r\n    struct Iot {   \r\n        string description;\r\n        bool isActive;\r\n    }\r\n\r\n    modifier isContractActive() {\r\n        require(_myConfig.isActive, \"Contract off line\");\r\n        _;\r\n    }\r\n\r\n    modifier isServiceActive(uint _serviceId) {\r\n        require(_serviceId < _serviceIdCounter.current(), \"Service not exist\"); \r\n        require(_services[_serviceId].isActive, \"Service off line\"); \r\n        _;\r\n    }\r\n\r\n    modifier isRulesActive(uint _ruleId) {\r\n        require(_ruleId < _ruleIdCounter.current(), \"Rules not exist\"); \r\n        require(_serviceRules[_ruleId].isActive, \"Rules off line\"); \r\n        _;\r\n    }\r\n\r\n    modifier onlyCustomer() {\r\n        require (_myConfig.customerAddress == msg.sender || owner() ==  msg.sender, \"Access denied\");\r\n        _;\r\n    }\r\n\r\n    modifier onlyBridge(uint _serviceId) {\r\n        require (_services[_serviceId].bridgeAddress == msg.sender || owner() ==  msg.sender, \"Access denied\");\r\n        _;\r\n    }\r\n\r\n    modifier onlyTechMaster(uint _serviceId) {\r\n        require (_services[_serviceId].techMasterAddress == msg.sender || owner() ==  msg.sender, \"Access denied\");\r\n        _;\r\n    }\r\n\r\n    modifier onlyLegislator(uint _serviceId) {\r\n        require (_services[_serviceId].legislatorAddress == msg.sender || owner() ==  msg.sender, \"Access denied\");\r\n        _;\r\n    }\r\n\r\n    event ContractUpdate(string _message, address _author);      \r\n    \r\n    event ServiceUpdate(uint _serviceId, string _message, address _author);  \r\n    event ServiceRulesUpdate(uint _serviceId, uint _ruleId, string _message, address _author); \r\n    event ServiceIotUpdate(uint _serviceId, bytes6 _iotId, string _message, address _author); \r\n\r\n    event MeasureReceive(uint _serviceId, bytes32 _header, bytes32 _body, address _author); \r\n    event AlertReceive(uint _serviceId, uint _ruleId, bytes32 _alert, address _author);        \r\n\r\n    Config public _myConfig;\r\n\r\n    mapping(uint => Service) public _services;\r\n    Counters.Counter public _serviceIdCounter;\r\n\r\n    mapping(uint => mapping(bytes6 => Iot)) public _serviceIots;\r\n\r\n    mapping(uint => Rule) public _serviceRules;\r\n    Counters.Counter public _ruleIdCounter;\r\n\r\n    IECPToken private _ECPToken;\r\n\r\n    constructor (bytes8 _version, address _ledgerAddress, address _ecpTokenAddress, address _customerAddress, address _prevContract, uint64 _prevContractDate) {\r\n        _myConfig = Config(\r\n            _version,\r\n            _ledgerAddress,\r\n            _ecpTokenAddress,\r\n            _prevContractDate,\r\n            0,\r\n            _customerAddress,\r\n            _prevContract,\r\n            address(0),\r\n            true\r\n        );\r\n\r\n        _ECPToken = IECPToken(_ecpTokenAddress);\r\n    }\r\n  \r\n    /**\r\n     * @dev toggle a Contract activation or deactivation\r\n     */\r\n    function toggleContract()\r\n        onlyOwner() external {\r\n        emit ContractUpdate(\"Contract on/off\", msg.sender);\r\n        _myConfig.isActive = !_myConfig.isActive;\r\n    }    \r\n\r\n    // SERVICE PART\r\n\r\n     /**\r\n     * @dev add a Service\r\n     * @param _version bytes8 version of service\r\n     * @param _description string description for the dApps interface\r\n     * @param _measureType bytes8 type of measure for the dApps interface\r\n     * @param _timeCode bytes1 time code for the dApps interface\r\n     * @param _nbTime uint8 number of times for the dApps interface\r\n     */\r\n    function addService(\r\n        bytes8 _version,   \r\n        string memory _description,\r\n        bytes8 _measureType,          \r\n        bytes1 _timeCode,\r\n        uint8 _nbTime) \r\n        onlyCustomer() isContractActive() external{\r\n      \r\n        Counters.Counter memory measureIdCounter;       \r\n        Counters.Counter memory iotIdCounter;    \r\n\r\n        _services[_serviceIdCounter.current()] = Service(\r\n        _version, \r\n        _measureType,  \r\n        _timeCode,    \r\n        _nbTime,   \r\n        true,                     \r\n        _description, \r\n        address(0),\r\n        address(0),\r\n        address(0),                     \r\n        measureIdCounter,\r\n        iotIdCounter);\r\n\r\n        emit ServiceUpdate(_serviceIdCounter.current(), \"New service\", msg.sender); \r\n\r\n        _serviceIdCounter.increment();\r\n    }  \r\n\r\n    /**\r\n     * @dev toggle a Service activation or deactivation\r\n     * @param _serviceId index of service\r\n     */\r\n    function toggleService(\r\n        uint _serviceId)\r\n        onlyCustomer() external {\r\n\r\n        emit ServiceUpdate(_serviceId, \"Service on/off\", msg.sender);\r\n\r\n        _services[_serviceId].isActive = !_services[_serviceId].isActive;\r\n    }\r\n\r\n    /**\r\n     * @dev set a TechMasterAddress\r\n     * @param _serviceId index of service \r\n     * @param _techMasterAddress techMaster's address\r\n     */\r\n    function setTechMasterAddress(\r\n        uint _serviceId,\r\n        address _techMasterAddress)\r\n        isContractActive() isServiceActive(_serviceId) onlyOwner() external {  \r\n        \r\n        _services[_serviceId].techMasterAddress = _techMasterAddress;\r\n\r\n        emit ServiceUpdate(_serviceId, \"TechMaster Address update\", msg.sender);\r\n    }     \r\n\r\n    /**\r\n     * @dev set a LegislatorAddress\r\n     * @param _serviceId index of service \r\n     * @param _legislatorAddress legislator's address\r\n     */\r\n    function setLegislatorAddress(\r\n        uint _serviceId,\r\n        address _legislatorAddress)\r\n        isContractActive() isServiceActive(_serviceId) onlyCustomer() external {  \r\n        \r\n        _services[_serviceId].legislatorAddress = _legislatorAddress;\r\n\r\n        emit ServiceUpdate(_serviceId, \"Legislator Address update\", msg.sender);\r\n    }   \r\n\r\n    /**\r\n     * @dev set a BridgeAdress\r\n     * @param _serviceId index of service\r\n     * @param _bridgeAddress bridge's address\r\n     */\r\n    function setBridgeAddress(\r\n        uint _serviceId,\r\n        address _bridgeAddress)\r\n        isContractActive() isServiceActive(_serviceId) onlyTechMaster(_serviceId) external {  \r\n        \r\n        _services[_serviceId].bridgeAddress = _bridgeAddress;\r\n\r\n        emit ServiceUpdate(_serviceId, \"Bridge Address update\", msg.sender);\r\n    }     \r\n\r\n    // MEASURE PART\r\n\r\n    /**\r\n     * @dev add a Measure\r\n     * @param _serviceId index of service \r\n     * @param _measureHeader header of the measure\r\n     * @param _measurebody body of the measure\r\n     */\r\n    function addMeasure(\r\n        uint _serviceId,\r\n        bytes32 _measureHeader,\r\n        bytes32 _measurebody) \r\n        isContractActive() isServiceActive(_serviceId) onlyBridge(_serviceId) external {    \r\n\r\n        _ECPToken.transfer(_myConfig._ledgerAddress, 1);\r\n\r\n        _services[_serviceId].measureIdCounter.increment();\r\n\r\n        emit MeasureReceive(_serviceId, _measureHeader, _measurebody, msg.sender);\r\n    }\r\n\r\n    // ALERT CONFIG PART\r\n\r\n    /**\r\n     * @dev add a fondation's alert config\r\n     * @param _serviceId index of service \r\n     * @param _version service's version\r\n     * @param _description alert config description \r\n     * @param _dateOn alert's starting date\r\n     * @param _dateOff alert's ending date\r\n     * @param _codeAlert alert's code\r\n     * @param _valueAlert alert's value\r\n     */\r\n    function addRule(\r\n        bytes8 _version,   \r\n        uint16 _serviceId,        \r\n        string memory _description,  \r\n        uint64 _dateOn,\r\n        uint64 _dateOff,\r\n        bytes4 _codeAlert,\r\n        bytes8 _valueAlert)\r\n        isContractActive() isServiceActive(_serviceId) external {\r\n\r\n        require (_services[_serviceId].legislatorAddress == msg.sender \r\n        || _myConfig.customerAddress == msg.sender \r\n        || owner() ==  msg.sender, \"Access denied\");\r\n\r\n        Counters.Counter memory alertIdCounter;\r\n\r\n        _serviceRules[_ruleIdCounter.current()] = Rule(\r\n            _version,  \r\n            _serviceId,  \r\n            _description,      \r\n            msg.sender,\r\n            _dateOn,\r\n            _dateOff,\r\n            _codeAlert,\r\n            _valueAlert,\r\n            true,\r\n            alertIdCounter\r\n        );\r\n\r\n        emit ServiceRulesUpdate(_serviceId, _ruleIdCounter.current(), \"New rule\", msg.sender);\r\n\r\n        _ruleIdCounter.increment();\r\n    }\r\n\r\n    /**\r\n     * @dev toggle an alert config\r\n     * @param _ruleId index of the alert config\r\n     */\r\n    function toggleRule(uint _ruleId) \r\n        external {\r\n\r\n        require ((msg.sender == _serviceRules[_ruleId].legislatorAddress) || (msg.sender == owner()), \"Access denied\");\r\n\r\n        emit ServiceRulesUpdate(_serviceRules[_ruleId].serviceId, _ruleId, \"Rules on/off\", msg.sender);\r\n        \r\n        _serviceRules[_ruleId].isActive = !_serviceRules[_ruleId].isActive;\r\n    }       \r\n\r\n    // ALERTS PART\r\n\r\n    /**\r\n     * @dev add an alert\r\n     * @param _serviceId index of service \r\n     * @param _alertBody alert's body\r\n     */    \r\n    function addAlert(\r\n        uint _serviceId,\r\n        uint _ruleId,\r\n        bytes32 _alertBody) \r\n        isContractActive() isServiceActive(_serviceId) onlyBridge(_serviceId) external {         \r\n\r\n        _ECPToken.transfer(_myConfig._ledgerAddress, 1);\r\n\r\n        _serviceRules[_ruleId].alertIdCounter.increment();\r\n\r\n        emit AlertReceive(_serviceId, _ruleId, _alertBody, msg.sender);\r\n    }\r\n\r\n    // SERVICE IOT\r\n\r\n    /**\r\n     * @dev add a sensor to the list\r\n     * @param _serviceId index of service\r\n     * @param _macAddress sensor's mac address\r\n     * @param _description sensor's description\r\n     */      \r\n    // function addIot(\r\n    //     uint _serviceId,\r\n    //     bytes6 _macAddress,\r\n    //     string memory _description) \r\n    //     isContractActive() isServiceActive(_serviceId) onlyTechMaster(_serviceId) external {  \r\n\r\n    //     _serviceIots[_serviceId][_macAddress] = Iot(\r\n    //         _description,      \r\n    //         true\r\n    //     );\r\n\r\n    //     emit ServiceIotUpdate(_serviceId, _macAddress, \"Iot added\", msg.sender); \r\n\r\n    //     _services[_serviceId].iotIdCounter.increment();   \r\n    // }\r\n\r\n    /**\r\n     * @dev toggle a sensor activation or deactivation\r\n     * @param _serviceId index of service\r\n     * @param _macAddress index of sensor\r\n     */     \r\n    // function toggleIOT(\r\n    //     uint _serviceId,\r\n    //     bytes6 _macAddress) \r\n    //     isContractActive() isServiceActive(_serviceId) onlyTechMaster(_serviceId) external { \r\n\r\n    //     emit ServiceIotUpdate(_serviceId, _macAddress, \"Iot on/off\", msg.sender);\r\n\r\n    //     _serviceIots[_serviceId][_macAddress].isActive = !_serviceIots[_serviceId][_macAddress].isActive;\r\n    // }\r\n\r\n}\r\n",
  "sourcePath": "C:/Users/danie/Desktop/Solidity/Projet final/eco-capt/contracts/CustomerContract.sol",
  "compiler": {
    "name": "solc",
    "version": "0.8.0+commit.c7dfd78e.Emscripten.clang"
  },
  "schemaVersion": "3.3.4",
  "updatedAt": "2021-05-03T14:49:18.671Z",
  "networkType": "ethereum",
  "devdoc": {
    "kind": "dev",
    "methods": {
      "addAlert(uint256,uint256,bytes32)": {
        "details": "add an alert",
        "params": {
          "_alertBody": "alert's body",
          "_serviceId": "index of service "
        }
      },
      "addMeasure(uint256,bytes32,bytes32)": {
        "details": "add a Measure",
        "params": {
          "_measureHeader": "header of the measure",
          "_measurebody": "body of the measure",
          "_serviceId": "index of service "
        }
      },
      "addRule(bytes8,uint16,string,uint64,uint64,bytes4,bytes8)": {
        "details": "add a fondation's alert config",
        "params": {
          "_codeAlert": "alert's code",
          "_dateOff": "alert's ending date",
          "_dateOn": "alert's starting date",
          "_description": "alert config description ",
          "_serviceId": "index of service ",
          "_valueAlert": "alert's value",
          "_version": "service's version"
        }
      },
      "addService(bytes8,string,bytes8,bytes1,uint8)": {
        "details": "add a Service",
        "params": {
          "_description": "string description for the dApps interface",
          "_measureType": "bytes8 type of measure for the dApps interface",
          "_nbTime": "uint8 number of times for the dApps interface",
          "_timeCode": "bytes1 time code for the dApps interface",
          "_version": "bytes8 version of service"
        }
      },
      "owner()": {
        "details": "Returns the address of the current owner."
      },
      "renounceOwnership()": {
        "details": "Leaves the contract without owner. It will not be possible to call `onlyOwner` functions anymore. Can only be called by the current owner. NOTE: Renouncing ownership will leave the contract without an owner, thereby removing any functionality that is only available to the owner."
      },
      "setBridgeAddress(uint256,address)": {
        "details": "set a BridgeAdress",
        "params": {
          "_bridgeAddress": "bridge's address",
          "_serviceId": "index of service"
        }
      },
      "setLegislatorAddress(uint256,address)": {
        "details": "set a LegislatorAddress",
        "params": {
          "_legislatorAddress": "legislator's address",
          "_serviceId": "index of service "
        }
      },
      "setTechMasterAddress(uint256,address)": {
        "details": "set a TechMasterAddress",
        "params": {
          "_serviceId": "index of service ",
          "_techMasterAddress": "techMaster's address"
        }
      },
      "toggleContract()": {
        "details": "toggle a Contract activation or deactivation"
      },
      "toggleRule(uint256)": {
        "details": "toggle an alert config",
        "params": {
          "_ruleId": "index of the alert config"
        }
      },
      "toggleService(uint256)": {
        "details": "toggle a Service activation or deactivation",
        "params": {
          "_serviceId": "index of service"
        }
      },
      "transferOwnership(address)": {
        "details": "Transfers ownership of the contract to a new account (`newOwner`). Can only be called by the current owner."
      }
    },
    "version": 1
  },
  "userdoc": {
    "kind": "user",
    "methods": {},
    "version": 1
  }
}