{
  "contractName": "CustomerContract",
  "abi": [
    {
      "inputs": [
        {
          "internalType": "bytes8",
          "name": "_version",
          "type": "bytes8"
        },
        {
          "internalType": "address",
          "name": "_ledgerAddress",
          "type": "address"
        },
        {
          "internalType": "address",
          "name": "_customerAddress",
          "type": "address"
        },
        {
          "internalType": "address",
          "name": "_prevContract",
          "type": "address"
        },
        {
          "internalType": "uint64",
          "name": "_prevContractDate",
          "type": "uint64"
        }
      ],
      "stateMutability": "nonpayable",
      "type": "constructor"
    },
    {
      "anonymous": false,
      "inputs": [
        {
          "indexed": false,
          "internalType": "uint256",
          "name": "_serviceId",
          "type": "uint256"
        },
        {
          "indexed": false,
          "internalType": "uint256",
          "name": "_ruleId",
          "type": "uint256"
        },
        {
          "indexed": false,
          "internalType": "bytes32",
          "name": "_alert",
          "type": "bytes32"
        },
        {
          "indexed": false,
          "internalType": "address",
          "name": "_author",
          "type": "address"
        }
      ],
      "name": "AlertReceive",
      "type": "event"
    },
    {
      "anonymous": false,
      "inputs": [
        {
          "indexed": false,
          "internalType": "string",
          "name": "_message",
          "type": "string"
        },
        {
          "indexed": false,
          "internalType": "address",
          "name": "_author",
          "type": "address"
        }
      ],
      "name": "ContractUpdate",
      "type": "event"
    },
    {
      "anonymous": false,
      "inputs": [
        {
          "indexed": false,
          "internalType": "uint256",
          "name": "_serviceId",
          "type": "uint256"
        },
        {
          "indexed": false,
          "internalType": "bytes32",
          "name": "_header",
          "type": "bytes32"
        },
        {
          "indexed": false,
          "internalType": "bytes32",
          "name": "_body",
          "type": "bytes32"
        },
        {
          "indexed": false,
          "internalType": "address",
          "name": "_author",
          "type": "address"
        }
      ],
      "name": "MeasureReceive",
      "type": "event"
    },
    {
      "anonymous": false,
      "inputs": [
        {
          "indexed": true,
          "internalType": "address",
          "name": "previousOwner",
          "type": "address"
        },
        {
          "indexed": true,
          "internalType": "address",
          "name": "newOwner",
          "type": "address"
        }
      ],
      "name": "OwnershipTransferred",
      "type": "event"
    },
    {
      "anonymous": false,
      "inputs": [
        {
          "indexed": false,
          "internalType": "uint256",
          "name": "_serviceId",
          "type": "uint256"
        },
        {
          "indexed": false,
          "internalType": "bytes6",
          "name": "_iotId",
          "type": "bytes6"
        },
        {
          "indexed": false,
          "internalType": "string",
          "name": "_message",
          "type": "string"
        },
        {
          "indexed": false,
          "internalType": "address",
          "name": "_author",
          "type": "address"
        }
      ],
      "name": "ServiceIotUpdate",
      "type": "event"
    },
    {
      "anonymous": false,
      "inputs": [
        {
          "indexed": false,
          "internalType": "uint256",
          "name": "_serviceId",
          "type": "uint256"
        },
        {
          "indexed": false,
          "internalType": "uint256",
          "name": "_ruleId",
          "type": "uint256"
        },
        {
          "indexed": false,
          "internalType": "string",
          "name": "_message",
          "type": "string"
        },
        {
          "indexed": false,
          "internalType": "address",
          "name": "_author",
          "type": "address"
        }
      ],
      "name": "ServiceRulesUpdate",
      "type": "event"
    },
    {
      "anonymous": false,
      "inputs": [
        {
          "indexed": false,
          "internalType": "uint256",
          "name": "_serviceId",
          "type": "uint256"
        },
        {
          "indexed": false,
          "internalType": "string",
          "name": "_message",
          "type": "string"
        },
        {
          "indexed": false,
          "internalType": "address",
          "name": "_author",
          "type": "address"
        }
      ],
      "name": "ServiceUpdate",
      "type": "event"
    },
    {
      "inputs": [],
      "name": "_myConfig",
      "outputs": [
        {
          "internalType": "bytes8",
          "name": "version",
          "type": "bytes8"
        },
        {
          "internalType": "address",
          "name": "_ledgerAddress",
          "type": "address"
        },
        {
          "internalType": "uint64",
          "name": "prevContractDate",
          "type": "uint64"
        },
        {
          "internalType": "uint64",
          "name": "nextContractDate",
          "type": "uint64"
        },
        {
          "internalType": "address",
          "name": "customerAddress",
          "type": "address"
        },
        {
          "internalType": "address",
          "name": "prevContract",
          "type": "address"
        },
        {
          "internalType": "address",
          "name": "nextContract",
          "type": "address"
        },
        {
          "internalType": "bool",
          "name": "isActive",
          "type": "bool"
        }
      ],
      "stateMutability": "view",
      "type": "function",
      "constant": true
    },
    {
      "inputs": [],
      "name": "_ruleIdCounter",
      "outputs": [
        {
          "internalType": "uint256",
          "name": "_value",
          "type": "uint256"
        }
      ],
      "stateMutability": "view",
      "type": "function",
      "constant": true
    },
    {
      "inputs": [],
      "name": "_serviceIdCounter",
      "outputs": [
        {
          "internalType": "uint256",
          "name": "_value",
          "type": "uint256"
        }
      ],
      "stateMutability": "view",
      "type": "function",
      "constant": true
    },
    {
      "inputs": [
        {
          "internalType": "uint256",
          "name": "",
          "type": "uint256"
        },
        {
          "internalType": "bytes6",
          "name": "",
          "type": "bytes6"
        }
      ],
      "name": "_serviceIots",
      "outputs": [
        {
          "internalType": "string",
          "name": "description",
          "type": "string"
        },
        {
          "internalType": "bool",
          "name": "isActive",
          "type": "bool"
        }
      ],
      "stateMutability": "view",
      "type": "function",
      "constant": true
    },
    {
      "inputs": [
        {
          "internalType": "uint256",
          "name": "",
          "type": "uint256"
        }
      ],
      "name": "_serviceRules",
      "outputs": [
        {
          "internalType": "bytes8",
          "name": "version",
          "type": "bytes8"
        },
        {
          "internalType": "uint16",
          "name": "serviceId",
          "type": "uint16"
        },
        {
          "internalType": "string",
          "name": "description",
          "type": "string"
        },
        {
          "internalType": "address",
          "name": "legislatorAddress",
          "type": "address"
        },
        {
          "internalType": "uint64",
          "name": "dateOn",
          "type": "uint64"
        },
        {
          "internalType": "uint64",
          "name": "dateOff",
          "type": "uint64"
        },
        {
          "internalType": "bytes8",
          "name": "codeAlert",
          "type": "bytes8"
        },
        {
          "internalType": "bytes8",
          "name": "valueAlert",
          "type": "bytes8"
        },
        {
          "internalType": "bool",
          "name": "isActive",
          "type": "bool"
        },
        {
          "components": [
            {
              "internalType": "uint256",
              "name": "_value",
              "type": "uint256"
            }
          ],
          "internalType": "struct Counters.Counter",
          "name": "alertIdCounter",
          "type": "tuple"
        }
      ],
      "stateMutability": "view",
      "type": "function",
      "constant": true
    },
    {
      "inputs": [
        {
          "internalType": "uint256",
          "name": "",
          "type": "uint256"
        }
      ],
      "name": "_services",
      "outputs": [
        {
          "internalType": "bytes8",
          "name": "version",
          "type": "bytes8"
        },
        {
          "internalType": "bytes8",
          "name": "measureType",
          "type": "bytes8"
        },
        {
          "internalType": "bytes1",
          "name": "timeCode",
          "type": "bytes1"
        },
        {
          "internalType": "uint8",
          "name": "nbTime",
          "type": "uint8"
        },
        {
          "internalType": "bool",
          "name": "isActive",
          "type": "bool"
        },
        {
          "internalType": "string",
          "name": "description",
          "type": "string"
        },
        {
          "internalType": "address",
          "name": "bridgeAddress",
          "type": "address"
        },
        {
          "internalType": "address",
          "name": "techMasterAddress",
          "type": "address"
        },
        {
          "internalType": "address",
          "name": "legislatorAddress",
          "type": "address"
        },
        {
          "components": [
            {
              "internalType": "uint256",
              "name": "_value",
              "type": "uint256"
            }
          ],
          "internalType": "struct Counters.Counter",
          "name": "measureIdCounter",
          "type": "tuple"
        },
        {
          "components": [
            {
              "internalType": "uint256",
              "name": "_value",
              "type": "uint256"
            }
          ],
          "internalType": "struct Counters.Counter",
          "name": "IotIdCounter",
          "type": "tuple"
        }
      ],
      "stateMutability": "view",
      "type": "function",
      "constant": true
    },
    {
      "inputs": [],
      "name": "owner",
      "outputs": [
        {
          "internalType": "address",
          "name": "",
          "type": "address"
        }
      ],
      "stateMutability": "view",
      "type": "function",
      "constant": true
    },
    {
      "inputs": [],
      "name": "renounceOwnership",
      "outputs": [],
      "stateMutability": "nonpayable",
      "type": "function"
    },
    {
      "inputs": [
        {
          "internalType": "address",
          "name": "newOwner",
          "type": "address"
        }
      ],
      "name": "transferOwnership",
      "outputs": [],
      "stateMutability": "nonpayable",
      "type": "function"
    },
    {
      "inputs": [],
      "name": "toggleContract",
      "outputs": [],
      "stateMutability": "nonpayable",
      "type": "function"
    },
    {
      "inputs": [
        {
          "internalType": "bytes8",
          "name": "_version",
          "type": "bytes8"
        },
        {
          "internalType": "string",
          "name": "_description",
          "type": "string"
        },
        {
          "internalType": "bytes8",
          "name": "_measureType",
          "type": "bytes8"
        },
        {
          "internalType": "bytes1",
          "name": "_timeCode",
          "type": "bytes1"
        },
        {
          "internalType": "uint8",
          "name": "_nbTime",
          "type": "uint8"
        }
      ],
      "name": "addService",
      "outputs": [],
      "stateMutability": "nonpayable",
      "type": "function"
    },
    {
      "inputs": [
        {
          "internalType": "uint256",
          "name": "_serviceId",
          "type": "uint256"
        }
      ],
      "name": "toggleService",
      "outputs": [],
      "stateMutability": "nonpayable",
      "type": "function"
    },
    {
      "inputs": [
        {
          "internalType": "uint256",
          "name": "_serviceId",
          "type": "uint256"
        },
        {
          "internalType": "address",
          "name": "_techMasterAddress",
          "type": "address"
        }
      ],
      "name": "setTechMasterAddress",
      "outputs": [],
      "stateMutability": "nonpayable",
      "type": "function"
    },
    {
      "inputs": [
        {
          "internalType": "uint256",
          "name": "_serviceId",
          "type": "uint256"
        },
        {
          "internalType": "address",
          "name": "_bridgeAddress",
          "type": "address"
        }
      ],
      "name": "setBridgeAddress",
      "outputs": [],
      "stateMutability": "nonpayable",
      "type": "function"
    },
    {
      "inputs": [
        {
          "internalType": "uint256",
          "name": "_serviceId",
          "type": "uint256"
        },
        {
          "internalType": "address",
          "name": "_legislatorAddress",
          "type": "address"
        }
      ],
      "name": "setLegislatorAddress",
      "outputs": [],
      "stateMutability": "nonpayable",
      "type": "function"
    },
    {
      "inputs": [
        {
          "internalType": "uint256",
          "name": "_serviceId",
          "type": "uint256"
        },
        {
          "internalType": "bytes32",
          "name": "_measureHeader",
          "type": "bytes32"
        },
        {
          "internalType": "bytes32",
          "name": "_measurebody",
          "type": "bytes32"
        }
      ],
      "name": "addMeasure",
      "outputs": [],
      "stateMutability": "nonpayable",
      "type": "function"
    },
    {
      "inputs": [
        {
          "internalType": "bytes8",
          "name": "_version",
          "type": "bytes8"
        },
        {
          "internalType": "uint16",
          "name": "_serviceId",
          "type": "uint16"
        },
        {
          "internalType": "string",
          "name": "_description",
          "type": "string"
        },
        {
          "internalType": "uint64",
          "name": "_dateOn",
          "type": "uint64"
        },
        {
          "internalType": "uint64",
          "name": "_dateOff",
          "type": "uint64"
        },
        {
          "internalType": "bytes8",
          "name": "_codeAlert",
          "type": "bytes8"
        },
        {
          "internalType": "bytes8",
          "name": "_valueAlert",
          "type": "bytes8"
        }
      ],
      "name": "addRule",
      "outputs": [],
      "stateMutability": "nonpayable",
      "type": "function"
    },
    {
      "inputs": [
        {
          "internalType": "uint256",
          "name": "_ruleId",
          "type": "uint256"
        }
      ],
      "name": "toggleRule",
      "outputs": [],
      "stateMutability": "nonpayable",
      "type": "function"
    },
    {
      "inputs": [
        {
          "internalType": "uint256",
          "name": "_serviceId",
          "type": "uint256"
        },
        {
          "internalType": "uint256",
          "name": "_ruleId",
          "type": "uint256"
        },
        {
          "internalType": "bytes32",
          "name": "_alertBody",
          "type": "bytes32"
        }
      ],
      "name": "addAlert",
      "outputs": [],
      "stateMutability": "nonpayable",
      "type": "function"
    },
    {
      "inputs": [
        {
          "internalType": "uint256",
          "name": "_serviceId",
          "type": "uint256"
        },
        {
          "internalType": "bytes6",
          "name": "_macAddress",
          "type": "bytes6"
        },
        {
          "internalType": "string",
          "name": "_description",
          "type": "string"
        }
      ],
      "name": "addIot",
      "outputs": [],
      "stateMutability": "nonpayable",
      "type": "function"
    },
    {
      "inputs": [
        {
          "internalType": "uint256",
          "name": "_serviceId",
          "type": "uint256"
        },
        {
          "internalType": "bytes6",
          "name": "_macAddress",
          "type": "bytes6"
        }
      ],
      "name": "toggleIOT",
      "outputs": [],
      "stateMutability": "nonpayable",
      "type": "function"
    }
  ],
  "bytecode": "0x60806040523480156200001157600080fd5b50604051620042c3380380620042c38339818101604052810190620000379190620003cc565b6000620000496200037f60201b60201c565b9050806000806101000a81548173ffffffffffffffffffffffffffffffffffffffff021916908373ffffffffffffffffffffffffffffffffffffffff1602179055508073ffffffffffffffffffffffffffffffffffffffff16600073ffffffffffffffffffffffffffffffffffffffff167f8be0079c531659141344cd1fd0a4f28419497f9722a3daafe3b4186f6b6457e060405160405180910390a3506040518061010001604052808677ffffffffffffffffffffffffffffffffffffffffffffffff191681526020018573ffffffffffffffffffffffffffffffffffffffff1681526020018267ffffffffffffffff168152602001600067ffffffffffffffff1681526020018473ffffffffffffffffffffffffffffffffffffffff1681526020018373ffffffffffffffffffffffffffffffffffffffff168152602001600073ffffffffffffffffffffffffffffffffffffffff16815260200160011515815250600160008201518160000160006101000a81548167ffffffffffffffff021916908360c01c021790555060208201518160000160086101000a81548173ffffffffffffffffffffffffffffffffffffffff021916908373ffffffffffffffffffffffffffffffffffffffff16021790555060408201518160010160006101000a81548167ffffffffffffffff021916908367ffffffffffffffff16021790555060608201518160010160086101000a81548167ffffffffffffffff021916908367ffffffffffffffff16021790555060808201518160020160006101000a81548173ffffffffffffffffffffffffffffffffffffffff021916908373ffffffffffffffffffffffffffffffffffffffff16021790555060a08201518160030160006101000a81548173ffffffffffffffffffffffffffffffffffffffff021916908373ffffffffffffffffffffffffffffffffffffffff16021790555060c08201518160040160006101000a81548173ffffffffffffffffffffffffffffffffffffffff021916908373ffffffffffffffffffffffffffffffffffffffff16021790555060e08201518160040160146101000a81548160ff021916908315150217905550905050505050505062000510565b600033905090565b6000815190506200039881620004c2565b92915050565b600081519050620003af81620004dc565b92915050565b600081519050620003c681620004f6565b92915050565b600080600080600060a08688031215620003e557600080fd5b6000620003f5888289016200039e565b9550506020620004088882890162000387565b94505060406200041b8882890162000387565b93505060606200042e8882890162000387565b92505060806200044188828901620003b5565b9150509295509295909350565b60006200045b826200048e565b9050919050565b60007fffffffffffffffff00000000000000000000000000000000000000000000000082169050919050565b600073ffffffffffffffffffffffffffffffffffffffff82169050919050565b600067ffffffffffffffff82169050919050565b620004cd816200044e565b8114620004d957600080fd5b50565b620004e78162000462565b8114620004f357600080fd5b50565b6200050181620004ae565b81146200050d57600080fd5b50565b613da380620005206000396000f3fe608060405234801561001057600080fd5b50600436106101375760003560e01c80638da5cb5b116100b8578063c18ec58c1161007c578063c18ec58c14610319578063c700fdf714610335578063da6cd37614610353578063e0c9d4bb1461036f578063e8d290841461038b578063f2fde38b146103a757610137565b80638da5cb5b1461029457806399892f49146102b25780639df90028146102d7578063b2e733bf146102e1578063b9d3106b146102fd57610137565b80634e35b4fc116100ff5780634e35b4fc146101dd5780635813d736146101f9578063715018a6146102325780637ad3155f1461023c5780638181b80d1461025a57610137565b806306566faa1461013c5780632cb95cec14610158578063390fc6b61461018957806341ca4812146101a55780634c6fdcc6146101c1575b600080fd5b61015660048036038101906101519190612d16565b6103c3565b005b610172600480360381019061016d9190612da1565b610676565b6040516101809291906135f0565b60405180910390f35b6101a3600480360381019061019e9190612ced565b61073c565b005b6101bf60048036038101906101ba9190612c37565b61089b565b005b6101db60048036038101906101d69190612d16565b610b7c565b005b6101f760048036038101906101f29190612da1565b610dc8565b005b610213600480360381019061020e9190612ced565b6110d4565b6040516102299a9998979695949392919061354d565b60405180910390f35b61023a61124e565b005b610244611388565b60405161025191906137c2565b60405180910390f35b610274600480360381019061026f9190612ced565b611394565b60405161028b9b9a9998979695949392919061349b565b60405180910390f35b61029c61153f565b6040516102a99190613402565b60405180910390f35b6102ba611568565b6040516102ce98979695949392919061341d565b60405180910390f35b6102df611660565b005b6102fb60048036038101906102f69190612d52565b611745565b005b61031760048036038101906103129190612ddd565b61198a565b005b610333600480360381019061032e9190612d16565b611c83565b005b61033d611f72565b60405161034a91906137c2565b60405180910390f35b61036d60048036038101906103689190612ba8565b611f7e565b005b61038960048036038101906103849190612ced565b6123e4565b005b6103a560048036038101906103a09190612e44565b612542565b005b6103c160048036038101906103bc9190612b7f565b612787565b005b80600073ffffffffffffffffffffffffffffffffffffffff168173ffffffffffffffffffffffffffffffffffffffff1614156103fe57600080fd5b600160040160149054906101000a900460ff16610450576040517f08c379a0000000000000000000000000000000000000000000000000000000008152600401610447906136ce565b60405180910390fd5b8261045b6007612930565b811061049c576040517f08c379a0000000000000000000000000000000000000000000000000000000008152600401610493906136ae565b60405180910390fd5b6006600082815260200190815260200160002060000160129054906101000a900460ff166104ff576040517f08c379a00000000000000000000000000000000000000000000000000000000081526004016104f6906136ee565b60405180910390fd5b833373ffffffffffffffffffffffffffffffffffffffff166006600083815260200190815260200160002060030160009054906101000a900473ffffffffffffffffffffffffffffffffffffffff1673ffffffffffffffffffffffffffffffffffffffff1614806105a257503373ffffffffffffffffffffffffffffffffffffffff1661058a61153f565b73ffffffffffffffffffffffffffffffffffffffff16145b6105e1576040517f08c379a00000000000000000000000000000000000000000000000000000000081526004016105d89061370e565b60405180910390fd5b836006600087815260200190815260200160002060020160006101000a81548173ffffffffffffffffffffffffffffffffffffffff021916908373ffffffffffffffffffffffffffffffffffffffff1602179055507f6eb54bb1fcbc8b072bc7be4d66f909b2316584cb9b6c49bfdb6504b9246a848185336040516106679291906138f2565b60405180910390a15050505050565b6008602052816000526040600020602052806000526040600020600091509150508060000180546106a690613bfd565b80601f01602080910402602001604051908101604052809291908181526020018280546106d290613bfd565b801561071f5780601f106106f45761010080835404028352916020019161071f565b820191906000526020600020905b81548152906001019060200180831161070257829003601f168201915b5050505050908060010160009054906101000a900460ff16905082565b6009600082815260200190815260200160002060020160009054906101000a900473ffffffffffffffffffffffffffffffffffffffff1673ffffffffffffffffffffffffffffffffffffffff163373ffffffffffffffffffffffffffffffffffffffff1614806107de57506107af61153f565b73ffffffffffffffffffffffffffffffffffffffff163373ffffffffffffffffffffffffffffffffffffffff16145b6107e757600080fd5b7fd265572d82340957d58225c4530aa27f8dd410b1d09d9a4c77677d55a01cc1a16009600083815260200190815260200160002060000160089054906101000a900461ffff16823360405161083e9392919061372e565b60405180910390a16009600082815260200190815260200160002060030160189054906101000a900460ff16156009600083815260200190815260200160002060030160186101000a81548160ff02191690831515021790555050565b60003390506108a86129a4565b6040518061014001604052808a77ffffffffffffffffffffffffffffffffffffffffffffffff191681526020018961ffff1681526020018881526020018373ffffffffffffffffffffffffffffffffffffffff1681526020018767ffffffffffffffff1681526020018667ffffffffffffffff1681526020018577ffffffffffffffffffffffffffffffffffffffffffffffff191681526020018477ffffffffffffffffffffffffffffffffffffffffffffffff19168152602001600115158152602001828152506009600061097e600a612930565b815260200190815260200160002060008201518160000160006101000a81548167ffffffffffffffff021916908360c01c021790555060208201518160000160086101000a81548161ffff021916908361ffff16021790555060408201518160010190805190602001906109f39291906129b7565b5060608201518160020160006101000a81548173ffffffffffffffffffffffffffffffffffffffff021916908373ffffffffffffffffffffffffffffffffffffffff16021790555060808201518160020160146101000a81548167ffffffffffffffff021916908367ffffffffffffffff16021790555060a08201518160030160006101000a81548167ffffffffffffffff021916908367ffffffffffffffff16021790555060c08201518160030160086101000a81548167ffffffffffffffff021916908360c01c021790555060e08201518160030160106101000a81548167ffffffffffffffff021916908360c01c02179055506101008201518160030160186101000a81548160ff021916908315150217905550610120820151816004016000820151816000015550509050507fd265572d82340957d58225c4530aa27f8dd410b1d09d9a4c77677d55a01cc1a188610b4f600a612930565b33604051610b5f93929190613778565b60405180910390a1610b71600a61293e565b505050505050505050565b80600073ffffffffffffffffffffffffffffffffffffffff168173ffffffffffffffffffffffffffffffffffffffff161415610bb757600080fd5b600160040160149054906101000a900460ff16610c09576040517f08c379a0000000000000000000000000000000000000000000000000000000008152600401610c00906136ce565b60405180910390fd5b82610c146007612930565b8110610c55576040517f08c379a0000000000000000000000000000000000000000000000000000000008152600401610c4c906136ae565b60405180910390fd5b6006600082815260200190815260200160002060000160129054906101000a900460ff16610cb8576040517f08c379a0000000000000000000000000000000000000000000000000000000008152600401610caf906136ee565b60405180910390fd5b610cc0612954565b73ffffffffffffffffffffffffffffffffffffffff16610cde61153f565b73ffffffffffffffffffffffffffffffffffffffff1614610d34576040517f08c379a0000000000000000000000000000000000000000000000000000000008152600401610d2b9061368e565b60405180910390fd5b826006600086815260200190815260200160002060030160006101000a81548173ffffffffffffffffffffffffffffffffffffffff021916908373ffffffffffffffffffffffffffffffffffffffff1602179055507f6eb54bb1fcbc8b072bc7be4d66f909b2316584cb9b6c49bfdb6504b9246a84818433604051610dba9291906138b6565b60405180910390a150505050565b600160040160149054906101000a900460ff16610e1a576040517f08c379a0000000000000000000000000000000000000000000000000000000008152600401610e11906136ce565b60405180910390fd5b81610e256007612930565b8110610e66576040517f08c379a0000000000000000000000000000000000000000000000000000000008152600401610e5d906136ae565b60405180910390fd5b6006600082815260200190815260200160002060000160129054906101000a900460ff16610ec9576040517f08c379a0000000000000000000000000000000000000000000000000000000008152600401610ec0906136ee565b60405180910390fd5b823373ffffffffffffffffffffffffffffffffffffffff166006600083815260200190815260200160002060030160009054906101000a900473ffffffffffffffffffffffffffffffffffffffff1673ffffffffffffffffffffffffffffffffffffffff161480610f6c57503373ffffffffffffffffffffffffffffffffffffffff16610f5461153f565b73ffffffffffffffffffffffffffffffffffffffff16145b610fab576040517f08c379a0000000000000000000000000000000000000000000000000000000008152600401610fa29061370e565b60405180910390fd5b7fcde1a82fd39a63a298c011f93aac06d29c34d9a788a717826f0016b4c20470fc848433604051610fde93929190613822565b60405180910390a16008600085815260200190815260200160002060008479ffffffffffffffffffffffffffffffffffffffffffffffffffff191679ffffffffffffffffffffffffffffffffffffffffffffffffffff1916815260200190815260200160002060010160009054906101000a900460ff16156008600086815260200190815260200160002060008579ffffffffffffffffffffffffffffffffffffffffffffffffffff191679ffffffffffffffffffffffffffffffffffffffffffffffffffff1916815260200190815260200160002060010160006101000a81548160ff02191690831515021790555050505050565b60096020528060005260406000206000915090508060000160009054906101000a900460c01b908060000160089054906101000a900461ffff169080600101805461111e90613bfd565b80601f016020809104026020016040519081016040528092919081815260200182805461114a90613bfd565b80156111975780601f1061116c57610100808354040283529160200191611197565b820191906000526020600020905b81548152906001019060200180831161117a57829003601f168201915b5050505050908060020160009054906101000a900473ffffffffffffffffffffffffffffffffffffffff16908060020160149054906101000a900467ffffffffffffffff16908060030160009054906101000a900467ffffffffffffffff16908060030160089054906101000a900460c01b908060030160109054906101000a900460c01b908060030160189054906101000a900460ff16908060040160405180602001604052908160008201548152505090508a565b611256612954565b73ffffffffffffffffffffffffffffffffffffffff1661127461153f565b73ffffffffffffffffffffffffffffffffffffffff16146112ca576040517f08c379a00000000000000000000000000000000000000000000000000000000081526004016112c19061368e565b60405180910390fd5b600073ffffffffffffffffffffffffffffffffffffffff1660008054906101000a900473ffffffffffffffffffffffffffffffffffffffff1673ffffffffffffffffffffffffffffffffffffffff167f8be0079c531659141344cd1fd0a4f28419497f9722a3daafe3b4186f6b6457e060405160405180910390a360008060006101000a81548173ffffffffffffffffffffffffffffffffffffffff021916908373ffffffffffffffffffffffffffffffffffffffff160217905550565b600a8060000154905081565b60066020528060005260406000206000915090508060000160009054906101000a900460c01b908060000160089054906101000a900460c01b908060000160109054906101000a900460f81b908060000160119054906101000a900460ff16908060000160129054906101000a900460ff169080600101805461141690613bfd565b80601f016020809104026020016040519081016040528092919081815260200182805461144290613bfd565b801561148f5780601f106114645761010080835404028352916020019161148f565b820191906000526020600020905b81548152906001019060200180831161147257829003601f168201915b5050505050908060020160009054906101000a900473ffffffffffffffffffffffffffffffffffffffff16908060030160009054906101000a900473ffffffffffffffffffffffffffffffffffffffff16908060040160009054906101000a900473ffffffffffffffffffffffffffffffffffffffff169080600501604051806020016040529081600082015481525050908060060160405180602001604052908160008201548152505090508b565b60008060009054906101000a900473ffffffffffffffffffffffffffffffffffffffff16905090565b60018060000160009054906101000a900460c01b908060000160089054906101000a900473ffffffffffffffffffffffffffffffffffffffff16908060010160009054906101000a900467ffffffffffffffff16908060010160089054906101000a900467ffffffffffffffff16908060020160009054906101000a900473ffffffffffffffffffffffffffffffffffffffff16908060030160009054906101000a900473ffffffffffffffffffffffffffffffffffffffff16908060040160009054906101000a900473ffffffffffffffffffffffffffffffffffffffff16908060040160149054906101000a900460ff16905088565b611668612954565b73ffffffffffffffffffffffffffffffffffffffff1661168661153f565b73ffffffffffffffffffffffffffffffffffffffff16146116dc576040517f08c379a00000000000000000000000000000000000000000000000000000000081526004016116d39061368e565b60405180910390fd5b7f74851bb416411c1b4cb986c13ce9b6a9e973e7948f03fc2e574ca42a6d3724d33360405161170b9190613640565b60405180910390a1600160040160149054906101000a900460ff1615600160040160146101000a81548160ff021916908315150217905550565b600160040160149054906101000a900460ff16611797576040517f08c379a000000000000000000000000000000000000000000000000000000000815260040161178e906136ce565b60405180910390fd5b826117a26007612930565b81106117e3576040517f08c379a00000000000000000000000000000000000000000000000000000000081526004016117da906136ae565b60405180910390fd5b6006600082815260200190815260200160002060000160129054906101000a900460ff16611846576040517f08c379a000000000000000000000000000000000000000000000000000000000815260040161183d906136ee565b60405180910390fd5b833373ffffffffffffffffffffffffffffffffffffffff166006600083815260200190815260200160002060020160009054906101000a900473ffffffffffffffffffffffffffffffffffffffff1673ffffffffffffffffffffffffffffffffffffffff1614806118e957503373ffffffffffffffffffffffffffffffffffffffff166118d161153f565b73ffffffffffffffffffffffffffffffffffffffff16145b611928576040517f08c379a000000000000000000000000000000000000000000000000000000000815260040161191f9061370e565b60405180910390fd5b6119466006600087815260200190815260200160002060050161293e565b7f818366328240e2ab5877d5eed27c1f3803a716f5700034371e2e520c650f57458585853360405161197b94939291906137dd565b60405180910390a15050505050565b600160040160149054906101000a900460ff166119dc576040517f08c379a00000000000000000000000000000000000000000000000000000000081526004016119d3906136ce565b60405180910390fd5b826119e76007612930565b8110611a28576040517f08c379a0000000000000000000000000000000000000000000000000000000008152600401611a1f906136ae565b60405180910390fd5b6006600082815260200190815260200160002060000160129054906101000a900460ff16611a8b576040517f08c379a0000000000000000000000000000000000000000000000000000000008152600401611a82906136ee565b60405180910390fd5b833373ffffffffffffffffffffffffffffffffffffffff166006600083815260200190815260200160002060030160009054906101000a900473ffffffffffffffffffffffffffffffffffffffff1673ffffffffffffffffffffffffffffffffffffffff161480611b2e57503373ffffffffffffffffffffffffffffffffffffffff16611b1661153f565b73ffffffffffffffffffffffffffffffffffffffff16145b611b6d576040517f08c379a0000000000000000000000000000000000000000000000000000000008152600401611b649061370e565b60405180910390fd5b6040518060400160405280848152602001600115158152506008600087815260200190815260200160002060008679ffffffffffffffffffffffffffffffffffffffffffffffffffff191679ffffffffffffffffffffffffffffffffffffffffffffffffffff191681526020019081526020016000206000820151816000019080519060200190611bff9291906129b7565b5060208201518160010160006101000a81548160ff0219169083151502179055509050507fcde1a82fd39a63a298c011f93aac06d29c34d9a788a717826f0016b4c20470fc858533604051611c569392919061386c565b60405180910390a1611c7c6006600087815260200190815260200160002060060161293e565b5050505050565b80600073ffffffffffffffffffffffffffffffffffffffff168173ffffffffffffffffffffffffffffffffffffffff161415611cbe57600080fd5b600160040160149054906101000a900460ff16611d10576040517f08c379a0000000000000000000000000000000000000000000000000000000008152600401611d07906136ce565b60405180910390fd5b82611d1b6007612930565b8110611d5c576040517f08c379a0000000000000000000000000000000000000000000000000000000008152600401611d53906136ae565b60405180910390fd5b6006600082815260200190815260200160002060000160129054906101000a900460ff16611dbf576040517f08c379a0000000000000000000000000000000000000000000000000000000008152600401611db6906136ee565b60405180910390fd5b3373ffffffffffffffffffffffffffffffffffffffff16600160020160009054906101000a900473ffffffffffffffffffffffffffffffffffffffff1673ffffffffffffffffffffffffffffffffffffffff161480611e5057503373ffffffffffffffffffffffffffffffffffffffff16611e3861153f565b73ffffffffffffffffffffffffffffffffffffffff16145b611e8f576040517f08c379a0000000000000000000000000000000000000000000000000000000008152600401611e869061370e565b60405180910390fd5b60011515611e9c8461295c565b151514611ede576040517f08c379a0000000000000000000000000000000000000000000000000000000008152600401611ed59061366e565b60405180910390fd5b826006600086815260200190815260200160002060040160006101000a81548173ffffffffffffffffffffffffffffffffffffffff021916908373ffffffffffffffffffffffffffffffffffffffff1602179055507f6eb54bb1fcbc8b072bc7be4d66f909b2316584cb9b6c49bfdb6504b9246a84818433604051611f6492919061392e565b60405180910390a150505050565b60078060000154905081565b3373ffffffffffffffffffffffffffffffffffffffff16600160020160009054906101000a900473ffffffffffffffffffffffffffffffffffffffff1673ffffffffffffffffffffffffffffffffffffffff16148061200f57503373ffffffffffffffffffffffffffffffffffffffff16611ff761153f565b73ffffffffffffffffffffffffffffffffffffffff16145b61204e576040517f08c379a00000000000000000000000000000000000000000000000000000000081526004016120459061370e565b60405180910390fd5b600160040160149054906101000a900460ff166120a0576040517f08c379a0000000000000000000000000000000000000000000000000000000008152600401612097906136ce565b60405180910390fd5b6120a86129a4565b6120b06129a4565b6040518061016001604052808877ffffffffffffffffffffffffffffffffffffffffffffffff191681526020018677ffffffffffffffffffffffffffffffffffffffffffffffff19168152602001857effffffffffffffffffffffffffffffffffffffffffffffffffffffffffffff191681526020018460ff168152602001600115158152602001878152602001600073ffffffffffffffffffffffffffffffffffffffff168152602001600073ffffffffffffffffffffffffffffffffffffffff168152602001600073ffffffffffffffffffffffffffffffffffffffff16815260200183815260200182815250600660006121ad6007612930565b815260200190815260200160002060008201518160000160006101000a81548167ffffffffffffffff021916908360c01c021790555060208201518160000160086101000a81548167ffffffffffffffff021916908360c01c021790555060408201518160000160106101000a81548160ff021916908360f81c021790555060608201518160000160116101000a81548160ff021916908360ff16021790555060808201518160000160126101000a81548160ff02191690831515021790555060a08201518160010190805190602001906122899291906129b7565b5060c08201518160020160006101000a81548173ffffffffffffffffffffffffffffffffffffffff021916908373ffffffffffffffffffffffffffffffffffffffff16021790555060e08201518160030160006101000a81548173ffffffffffffffffffffffffffffffffffffffff021916908373ffffffffffffffffffffffffffffffffffffffff1602179055506101008201518160040160006101000a81548173ffffffffffffffffffffffffffffffffffffffff021916908373ffffffffffffffffffffffffffffffffffffffff16021790555061012082015181600501600082015181600001555050610140820151816006016000820151816000015550509050507f6eb54bb1fcbc8b072bc7be4d66f909b2316584cb9b6c49bfdb6504b9246a84816123ba6007612930565b336040516123c992919061396a565b60405180910390a16123db600761293e565b50505050505050565b3373ffffffffffffffffffffffffffffffffffffffff16600160020160009054906101000a900473ffffffffffffffffffffffffffffffffffffffff1673ffffffffffffffffffffffffffffffffffffffff16148061247557503373ffffffffffffffffffffffffffffffffffffffff1661245d61153f565b73ffffffffffffffffffffffffffffffffffffffff16145b6124b4576040517f08c379a00000000000000000000000000000000000000000000000000000000081526004016124ab9061370e565b60405180910390fd5b7f6eb54bb1fcbc8b072bc7be4d66f909b2316584cb9b6c49bfdb6504b9246a848181336040516124e59291906139a6565b60405180910390a16006600082815260200190815260200160002060000160129054906101000a900460ff16156006600083815260200190815260200160002060000160126101000a81548160ff02191690831515021790555050565b600160040160149054906101000a900460ff16612594576040517f08c379a000000000000000000000000000000000000000000000000000000000815260040161258b906136ce565b60405180910390fd5b8261259f6007612930565b81106125e0576040517f08c379a00000000000000000000000000000000000000000000000000000000081526004016125d7906136ae565b60405180910390fd5b6006600082815260200190815260200160002060000160129054906101000a900460ff16612643576040517f08c379a000000000000000000000000000000000000000000000000000000000815260040161263a906136ee565b60405180910390fd5b833373ffffffffffffffffffffffffffffffffffffffff166006600083815260200190815260200160002060020160009054906101000a900473ffffffffffffffffffffffffffffffffffffffff1673ffffffffffffffffffffffffffffffffffffffff1614806126e657503373ffffffffffffffffffffffffffffffffffffffff166126ce61153f565b73ffffffffffffffffffffffffffffffffffffffff16145b612725576040517f08c379a000000000000000000000000000000000000000000000000000000000815260040161271c9061370e565b60405180910390fd5b6127436009600086815260200190815260200160002060040161293e565b7f36134df50fb7d9b784ebe80f4738a13cede0c5efe526e5e9d8b95601d8cc900c8585853360405161277894939291906139e2565b60405180910390a15050505050565b61278f612954565b73ffffffffffffffffffffffffffffffffffffffff166127ad61153f565b73ffffffffffffffffffffffffffffffffffffffff1614612803576040517f08c379a00000000000000000000000000000000000000000000000000000000081526004016127fa9061368e565b60405180910390fd5b600073ffffffffffffffffffffffffffffffffffffffff168173ffffffffffffffffffffffffffffffffffffffff161415612873576040517f08c379a000000000000000000000000000000000000000000000000000000000815260040161286a90613620565b60405180910390fd5b8073ffffffffffffffffffffffffffffffffffffffff1660008054906101000a900473ffffffffffffffffffffffffffffffffffffffff1673ffffffffffffffffffffffffffffffffffffffff167f8be0079c531659141344cd1fd0a4f28419497f9722a3daafe3b4186f6b6457e060405160405180910390a3806000806101000a81548173ffffffffffffffffffffffffffffffffffffffff021916908373ffffffffffffffffffffffffffffffffffffffff16021790555050565b600081600001549050919050565b6001816000016000828254019250508190555050565b600033905090565b60003373ffffffffffffffffffffffffffffffffffffffff168273ffffffffffffffffffffffffffffffffffffffff161461299a576001905061299f565b600190505b919050565b6040518060200160405280600081525090565b8280546129c390613bfd565b90600052602060002090601f0160209004810192826129e55760008555612a2c565b82601f106129fe57805160ff1916838001178555612a2c565b82800160010185558215612a2c579182015b82811115612a2b578251825591602001919060010190612a10565b5b509050612a399190612a3d565b5090565b5b80821115612a56576000816000905550600101612a3e565b5090565b6000612a6d612a6884613a58565b613a27565b905082815260208101848484011115612a8557600080fd5b612a90848285613bbb565b509392505050565b600081359050612aa781613c9e565b92915050565b600081359050612abc81613cb5565b92915050565b600081359050612ad181613ccc565b92915050565b600081359050612ae681613ce3565b92915050565b600081359050612afb81613cfa565b92915050565b600082601f830112612b1257600080fd5b8135612b22848260208601612a5a565b91505092915050565b600081359050612b3a81613d11565b92915050565b600081359050612b4f81613d28565b92915050565b600081359050612b6481613d3f565b92915050565b600081359050612b7981613d56565b92915050565b600060208284031215612b9157600080fd5b6000612b9f84828501612a98565b91505092915050565b600080600080600060a08688031215612bc057600080fd5b6000612bce88828901612aec565b955050602086013567ffffffffffffffff811115612beb57600080fd5b612bf788828901612b01565b9450506040612c0888828901612aec565b9350506060612c1988828901612aad565b9250506080612c2a88828901612b6a565b9150509295509295909350565b600080600080600080600060e0888a031215612c5257600080fd5b6000612c608a828b01612aec565b9750506020612c718a828b01612b2b565b965050604088013567ffffffffffffffff811115612c8e57600080fd5b612c9a8a828b01612b01565b9550506060612cab8a828b01612b55565b9450506080612cbc8a828b01612b55565b93505060a0612ccd8a828b01612aec565b92505060c0612cde8a828b01612aec565b91505092959891949750929550565b600060208284031215612cff57600080fd5b6000612d0d84828501612b40565b91505092915050565b60008060408385031215612d2957600080fd5b6000612d3785828601612b40565b9250506020612d4885828601612a98565b9150509250929050565b600080600060608486031215612d6757600080fd5b6000612d7586828701612b40565b9350506020612d8686828701612ac2565b9250506040612d9786828701612ac2565b9150509250925092565b60008060408385031215612db457600080fd5b6000612dc285828601612b40565b9250506020612dd385828601612ad7565b9150509250929050565b600080600060608486031215612df257600080fd5b6000612e0086828701612b40565b9350506020612e1186828701612ad7565b925050604084013567ffffffffffffffff811115612e2e57600080fd5b612e3a86828701612b01565b9150509250925092565b600080600060608486031215612e5957600080fd5b6000612e6786828701612b40565b9350506020612e7886828701612b40565b9250506040612e8986828701612ac2565b9150509250925092565b612e9c81613aa4565b82525050565b612eab81613ab6565b82525050565b612eba81613ac2565b82525050565b612ec981613aee565b82525050565b612ed881613af8565b82525050565b612ee781613b24565b82525050565b6000612ef882613a88565b612f028185613a93565b9350612f12818560208601613bca565b612f1b81613c8d565b840191505092915050565b6000612f33600a83613a93565b91507f496f74206f6e2f6f6666000000000000000000000000000000000000000000006000830152602082019050919050565b6000612f73601983613a93565b91507f546563684d6173746572204164647265737320757064617465000000000000006000830152602082019050919050565b6000612fb3601583613a93565b91507f42726964676520416464726573732075706461746500000000000000000000006000830152602082019050919050565b6000612ff3602683613a93565b91507f4f776e61626c653a206e6577206f776e657220697320746865207a65726f206160008301527f64647265737300000000000000000000000000000000000000000000000000006020830152604082019050919050565b6000613059601983613a93565b91507f4c656769736c61746f72204164647265737320757064617465000000000000006000830152602082019050919050565b6000613099600c83613a93565b91507f52756c6573206f6e2f6f666600000000000000000000000000000000000000006000830152602082019050919050565b60006130d9600f83613a93565b91507f436f6e7472616374206f6e2f6f666600000000000000000000000000000000006000830152602082019050919050565b6000613119600883613a93565b91507f4e65772052756c650000000000000000000000000000000000000000000000006000830152602082019050919050565b6000613159600b83613a93565b91507f4e657720736572766963650000000000000000000000000000000000000000006000830152602082019050919050565b6000613199601483613a93565b91507f4c656769737461746f72206e6f742076616c69640000000000000000000000006000830152602082019050919050565b60006131d9602083613a93565b91507f4f776e61626c653a2063616c6c6572206973206e6f7420746865206f776e65726000830152602082019050919050565b6000613219601183613a93565b91507f53657276696365206e6f742065786973740000000000000000000000000000006000830152602082019050919050565b6000613259600e83613a93565b91507f53657276696365206f6e2f6f66660000000000000000000000000000000000006000830152602082019050919050565b6000613299601183613a93565b91507f436f6e7472616374206f6666206c696e650000000000000000000000000000006000830152602082019050919050565b60006132d9601083613a93565b91507f53657276696365206f6666206c696e65000000000000000000000000000000006000830152602082019050919050565b6000613319600d83613a93565b91507f4163636573732064656e696564000000000000000000000000000000000000006000830152602082019050919050565b6000613359600983613a93565b91507f496f7420616464656400000000000000000000000000000000000000000000006000830152602082019050919050565b6020820160008201516133a260008501826133c6565b50505050565b6133b181613b50565b82525050565b6133c081613ba9565b82525050565b6133cf81613b7e565b82525050565b6133de81613b7e565b82525050565b6133ed81613b88565b82525050565b6133fc81613b9c565b82525050565b60006020820190506134176000830184612e93565b92915050565b600061010082019050613433600083018b612ede565b613440602083018a612e93565b61344d60408301896133e4565b61345a60608301886133e4565b6134676080830187612e93565b61347460a0830186612e93565b61348160c0830185612e93565b61348e60e0830184612ea2565b9998505050505050505050565b6000610160820190506134b1600083018e612ede565b6134be602083018d612ede565b6134cb604083018c612eb1565b6134d8606083018b6133f3565b6134e5608083018a612ea2565b81810360a08301526134f78189612eed565b905061350660c0830188612e93565b61351360e0830187612e93565b613521610100830186612e93565b61352f61012083018561338c565b61353d61014083018461338c565b9c9b505050505050505050505050565b600061014082019050613563600083018d612ede565b613570602083018c6133a8565b8181036040830152613582818b612eed565b9050613591606083018a612e93565b61359e60808301896133e4565b6135ab60a08301886133e4565b6135b860c0830187612ede565b6135c560e0830186612ede565b6135d3610100830185612ea2565b6135e161012083018461338c565b9b9a5050505050505050505050565b6000604082019050818103600083015261360a8185612eed565b90506136196020830184612ea2565b9392505050565b6000602082019050818103600083015261363981612fe6565b9050919050565b60006040820190508181036000830152613659816130cc565b90506136686020830184612e93565b92915050565b600060208201905081810360008301526136878161318c565b9050919050565b600060208201905081810360008301526136a7816131cc565b9050919050565b600060208201905081810360008301526136c78161320c565b9050919050565b600060208201905081810360008301526136e78161328c565b9050919050565b60006020820190508181036000830152613707816132cc565b9050919050565b600060208201905081810360008301526137278161330c565b9050919050565b600060808201905061374360008301866133b7565b61375060208301856133d5565b81810360408301526137618161308c565b90506137706060830184612e93565b949350505050565b600060808201905061378d60008301866133b7565b61379a60208301856133d5565b81810360408301526137ab8161310c565b90506137ba6060830184612e93565b949350505050565b60006020820190506137d760008301846133d5565b92915050565b60006080820190506137f260008301876133d5565b6137ff6020830186612ec0565b61380c6040830185612ec0565b6138196060830184612e93565b95945050505050565b600060808201905061383760008301866133d5565b6138446020830185612ecf565b818103604083015261385581612f26565b90506138646060830184612e93565b949350505050565b600060808201905061388160008301866133d5565b61388e6020830185612ecf565b818103604083015261389f8161334c565b90506138ae6060830184612e93565b949350505050565b60006060820190506138cb60008301856133d5565b81810360208301526138dc81612f66565b90506138eb6040830184612e93565b9392505050565b600060608201905061390760008301856133d5565b818103602083015261391881612fa6565b90506139276040830184612e93565b9392505050565b600060608201905061394360008301856133d5565b81810360208301526139548161304c565b90506139636040830184612e93565b9392505050565b600060608201905061397f60008301856133d5565b81810360208301526139908161314c565b905061399f6040830184612e93565b9392505050565b60006060820190506139bb60008301856133d5565b81810360208301526139cc8161324c565b90506139db6040830184612e93565b9392505050565b60006080820190506139f760008301876133d5565b613a0460208301866133d5565b613a116040830185612ec0565b613a1e6060830184612e93565b95945050505050565b6000604051905081810181811067ffffffffffffffff82111715613a4e57613a4d613c5e565b5b8060405250919050565b600067ffffffffffffffff821115613a7357613a72613c5e565b5b601f19601f8301169050602081019050919050565b600081519050919050565b600082825260208201905092915050565b6000613aaf82613b5e565b9050919050565b60008115159050919050565b60007fff0000000000000000000000000000000000000000000000000000000000000082169050919050565b6000819050919050565b60007fffffffffffff000000000000000000000000000000000000000000000000000082169050919050565b60007fffffffffffffffff00000000000000000000000000000000000000000000000082169050919050565b600061ffff82169050919050565b600073ffffffffffffffffffffffffffffffffffffffff82169050919050565b6000819050919050565b600067ffffffffffffffff82169050919050565b600060ff82169050919050565b6000613bb482613b50565b9050919050565b82818337600083830152505050565b60005b83811015613be8578082015181840152602081019050613bcd565b83811115613bf7576000848401525b50505050565b60006002820490506001821680613c1557607f821691505b60208210811415613c2957613c28613c2f565b5b50919050565b7f4e487b7100000000000000000000000000000000000000000000000000000000600052602260045260246000fd5b7f4e487b7100000000000000000000000000000000000000000000000000000000600052604160045260246000fd5b6000601f19601f8301169050919050565b613ca781613aa4565b8114613cb257600080fd5b50565b613cbe81613ac2565b8114613cc957600080fd5b50565b613cd581613aee565b8114613ce057600080fd5b50565b613cec81613af8565b8114613cf757600080fd5b50565b613d0381613b24565b8114613d0e57600080fd5b50565b613d1a81613b50565b8114613d2557600080fd5b50565b613d3181613b7e565b8114613d3c57600080fd5b50565b613d4881613b88565b8114613d5357600080fd5b50565b613d5f81613b9c565b8114613d6a57600080fd5b5056fea26469706673582212202067608b2a4b49eb1ac657e5b094623038c47cef4d5eeccf60877dcbb14c851d64736f6c63430008000033",
  "immutableReferences": {},
  "source": "// SPDX-License-Identifier: MIT\r\npragma solidity 0.8.0;\r\n\r\nimport \"../node_modules/@openzeppelin/contracts/utils/Counters.sol\";\r\nimport \"../node_modules/@openzeppelin/contracts/access/Ownable.sol\";\r\n\r\ncontract CustomerContract is Ownable {\r\n    using Counters for Counters.Counter;\r\n    \r\n    // struct mesure en-tte (32) { \r\n    //   //V0.1     XX.XX.XX    00.01.00\r\n    //   Version : bytes8;\r\n    //   Date : YYYYmmddHHii : byte12\r\n    //   Code de mesure : bytes8 - CODE : 4 chiffre/lettre pour la nature physique - 4 chiffre/lettre pour la version\r\n    //   Code temporel : bytes1 (Horaire, Journalier) Y m d H i\r\n    //   Nb temporel : bytes3 \r\n    // }\r\n    \r\n    // struct mesure donne (32) { \r\n    //   Valeur 1 Max : bytes8\r\n    //   Valeur 2 Moyenne : bytes8\r\n    //   Valeur 3 Mdiane : bytes8\r\n    //   Valeur 4 Min : bytes8\r\n    // }\r\n\r\n    // struct alert donne (32) { \r\n    //   Version : bytes8\r\n    //   CodeAlert : bytes4    \r\n    //   Date : YYYYmmddHHii : byte12\r\n    //   Valeur alert : bytes8\r\n    // }\r\n\r\n    /**\r\n    * @dev Structure of Configuration\r\n    * @notice Version and status of activation\r\n    * @notice Link to other contract\r\n    */\r\n    struct Config {\r\n        bytes8 version;\r\n        address _ledgerAddress;\r\n        uint64 prevContractDate;\r\n        uint64 nextContractDate;\r\n        address customerAddress;\r\n        address prevContract;\r\n        address nextContract;\r\n        bool isActive;\r\n    }\r\n    \r\n    /**\r\n     * @dev Structure of Service\r\n     * @notice Feature_V2 \r\n     */\r\n    struct Service {\r\n        bytes8 version;\r\n        bytes8 measureType;\r\n        bytes1 timeCode;\r\n        uint8 nbTime;\r\n        bool isActive;\r\n        string description;\r\n        address bridgeAddress;\r\n        address techMasterAddress;\r\n        address legislatorAddress;\r\n\r\n        Counters.Counter measureIdCounter;\r\n        Counters.Counter IotIdCounter;     \r\n    }\r\n\r\n    /**\r\n     * @dev Structure of AlertConfig\r\n     * @notice Feature_V2 \r\n     */\r\n    struct Rule {\r\n        bytes8 version;        \r\n        uint16 serviceId;\r\n        string description;   \r\n        address legislatorAddress;\r\n        uint64 dateOn;\r\n        uint64 dateOff;\r\n        bytes8 codeAlert;\r\n        bytes8 valueAlert;\r\n        bool isActive;\r\n\r\n        Counters.Counter alertIdCounter;         \r\n    }\r\n\r\n    /**\r\n     * @dev Structure of Iot\r\n     * @notice Feature_V2 \r\n     */\r\n    struct Iot {   \r\n        string description;\r\n        bool isActive;\r\n    }\r\n\r\n    modifier isAddressValid(address _addr){\r\n        require(_addr != address(0));\r\n        _;\r\n    }\r\n\r\n    modifier isContractActive() {\r\n        require(_myConfig.isActive, \"Contract off line\");\r\n        _;\r\n    }\r\n\r\n    modifier isServiceActive(uint _serviceId) {\r\n        require(_serviceId < _serviceIdCounter.current(), \"Service not exist\"); \r\n        require(_services[_serviceId].isActive, \"Service off line\"); \r\n        _;\r\n    }\r\n\r\n    modifier isRulesActive(uint _ruleId) {\r\n        require(_ruleId < _ruleIdCounter.current(), \"Rules not exist\"); \r\n        require(_serviceRules[_ruleId].isActive, \"Rules off line\"); \r\n        _;\r\n    }\r\n\r\n    modifier onlyCustomer() {\r\n        require (_myConfig.customerAddress == msg.sender || owner() ==  msg.sender, \"Access denied\");\r\n        _;\r\n    }\r\n\r\n    modifier onlyBridge(uint _serviceId) {\r\n        require (_services[_serviceId].bridgeAddress == msg.sender || owner() ==  msg.sender, \"Access denied\");\r\n        _;\r\n    }\r\n\r\n    modifier onlyTechMaster(uint _serviceId) {\r\n        require (_services[_serviceId].techMasterAddress == msg.sender || owner() ==  msg.sender, \"Access denied\");\r\n        _;\r\n    }\r\n\r\n    modifier onlyLegislator(uint _serviceId) {\r\n        require (_services[_serviceId].legislatorAddress == msg.sender || owner() ==  msg.sender, \"Access denied\");\r\n        _;\r\n    }\r\n\r\n    event ContractUpdate(string _message, address _author);      \r\n    \r\n    event ServiceUpdate(uint _serviceId, string _message, address _author);  \r\n    event ServiceRulesUpdate(uint _serviceId, uint _ruleId, string _message, address _author); \r\n    event ServiceIotUpdate(uint _serviceId, bytes6 _iotId, string _message, address _author); \r\n\r\n    event MeasureReceive(uint _serviceId, bytes32 _header, bytes32 _body, address _author); \r\n    event AlertReceive(uint _serviceId, uint _ruleId, bytes32 _alert, address _author);        \r\n\r\n    Config public _myConfig;\r\n\r\n    mapping(uint => Service) public _services;\r\n    Counters.Counter public _serviceIdCounter;\r\n\r\n    mapping(uint => mapping(bytes6 => Iot)) public _serviceIots;\r\n\r\n    mapping(uint => Rule) public _serviceRules;\r\n    Counters.Counter public _ruleIdCounter;\r\n\r\n    constructor (bytes8 _version, address _ledgerAddress, address _customerAddress, address _prevContract, uint64 _prevContractDate) {\r\n        _myConfig = Config(\r\n            _version,\r\n            _ledgerAddress,\r\n            _prevContractDate,\r\n            0,\r\n            _customerAddress,\r\n            _prevContract,\r\n            address(0),\r\n            true\r\n        );\r\n        // TODO AJOUTER INSTANCE DU GRAND REGISTRE POUR POUVOIR Y ACCEDER SI NECESSAIRE\r\n    }\r\n  \r\n    /**\r\n     * @dev toggle a Contract activation or deactivation\r\n     */\r\n    function toggleContract()\r\n        onlyOwner() external {\r\n        emit ContractUpdate(\"Contract on/off\", msg.sender);\r\n        _myConfig.isActive = !_myConfig.isActive;\r\n    }    \r\n\r\n    // SERVICE PART\r\n\r\n     /**\r\n     * @dev add a Service\r\n     * @param _version bytes8 version of service\r\n     * @param _description string description for the dApps interface\r\n     * @param _measureType bytes8 type of measure for the dApps interface\r\n     * @param _timeCode bytes1 time code for the dApps interface\r\n     * @param _nbTime uint8 number of times for the dApps interface\r\n     */\r\n    function addService(\r\n        bytes8 _version,   \r\n        string memory _description,\r\n        bytes8 _measureType,          \r\n        bytes1 _timeCode,\r\n        uint8 _nbTime) \r\n        onlyCustomer() isContractActive() external{\r\n      \r\n        Counters.Counter memory measureIdCounter;       \r\n        Counters.Counter memory IotIdCounter;    \r\n\r\n        _services[_serviceIdCounter.current()] = Service(\r\n        _version, \r\n        _measureType,  \r\n        _timeCode,    \r\n        _nbTime,   \r\n        true,                     \r\n        _description, \r\n        address(0),\r\n        address(0),\r\n        address(0),                     \r\n        measureIdCounter,\r\n        IotIdCounter);\r\n\r\n        emit ServiceUpdate(_serviceIdCounter.current(), \"New service\", msg.sender); \r\n\r\n        _serviceIdCounter.increment();\r\n    }  \r\n\r\n    /**\r\n     * @dev toggle a Service activation or deactivation\r\n     * @param _serviceId index of service\r\n     */\r\n    function toggleService(\r\n        uint _serviceId)\r\n        onlyCustomer() external {\r\n\r\n        emit ServiceUpdate(_serviceId, \"Service on/off\", msg.sender);\r\n\r\n        _services[_serviceId].isActive = !_services[_serviceId].isActive;\r\n    }\r\n\r\n    /**\r\n     * @dev set a TechMasterAddress\r\n     * @param _serviceId index of service \r\n     * @param _techMasterAddress techMaster's address\r\n     */\r\n    function setTechMasterAddress(\r\n        uint _serviceId,\r\n        address _techMasterAddress)\r\n        isAddressValid(_techMasterAddress) isContractActive() isServiceActive(_serviceId) onlyOwner() external {  \r\n        \r\n        _services[_serviceId].techMasterAddress = _techMasterAddress;\r\n\r\n        emit ServiceUpdate(_serviceId, \"TechMaster Address update\", msg.sender);\r\n    }     \r\n\r\n    /**\r\n     * @dev set a BridgeAdress\r\n     * @param _serviceId index of service\r\n     * @param _bridgeAddress bridge's address\r\n     */\r\n    function setBridgeAddress(\r\n        uint _serviceId,\r\n        address _bridgeAddress)\r\n        isAddressValid(_bridgeAddress) isContractActive() isServiceActive(_serviceId) onlyTechMaster(_serviceId) external {  \r\n        \r\n        _services[_serviceId].bridgeAddress = _bridgeAddress;\r\n\r\n        emit ServiceUpdate(_serviceId, \"Bridge Address update\", msg.sender);\r\n    }   \r\n\r\n    /**\r\n     * @dev set a LegislatorAddress\r\n     * @param _serviceId index of service \r\n     * @param _legislatorAddress legislator's address\r\n     */\r\n    function setLegislatorAddress(\r\n        uint _serviceId,\r\n        address _legislatorAddress)\r\n        isAddressValid(_legislatorAddress) isContractActive() isServiceActive(_serviceId) onlyCustomer() external {  \r\n        \r\n        require(_checkValidLegislator(_legislatorAddress) == true, \"Legistator not valid\");\r\n\r\n        _services[_serviceId].legislatorAddress = _legislatorAddress;\r\n\r\n        emit ServiceUpdate(_serviceId, \"Legislator Address update\", msg.sender);\r\n    }     \r\n\r\n    function _checkValidLegislator(\r\n        address _address) \r\n        internal view \r\n        returns(bool _return){\r\n\r\n        if(_address != msg.sender)\r\n            return true;\r\n        // TODO LINK AU GRAND REGISTRE\r\n        return true;       \r\n    }\r\n\r\n    // MEASURE PART\r\n\r\n    /**\r\n     * @dev add a Measure\r\n     * @param _serviceId index of service \r\n     * @param _measureHeader header of the measure\r\n     * @param _measurebody body of the measure\r\n     */\r\n    function addMeasure(\r\n        uint _serviceId,\r\n        bytes32 _measureHeader,\r\n        bytes32 _measurebody) \r\n        isContractActive() isServiceActive(_serviceId) onlyBridge(_serviceId) external {    \r\n        \r\n        _services[_serviceId].measureIdCounter.increment();\r\n\r\n        emit MeasureReceive(_serviceId, _measureHeader, _measurebody, msg.sender);\r\n    }\r\n\r\n    // ALERT CONFIG PART\r\n\r\n    /**\r\n     * @dev add a fondation's alert config\r\n     * @param _serviceId index of service \r\n     * @param _version service's version\r\n     * @param _description alert config description \r\n     * @param _dateOn alert's starting date\r\n     * @param _dateOff alert's ending date\r\n     * @param _codeAlert alert's code\r\n     * @param _valueAlert alert's value\r\n     */\r\n    function addRule(\r\n        bytes8 _version,   \r\n        uint16 _serviceId,        \r\n        string memory _description,  \r\n        uint64 _dateOn,\r\n        uint64 _dateOff,\r\n        bytes8 _codeAlert,\r\n        bytes8 _valueAlert)\r\n        external {\r\n\r\n        address _legislatorAddress = msg.sender;\r\n\r\n        // TODO Penser  fermer la porte !!\r\n        // TODO Penser a vrifier que le service existe\r\n        \r\n        Counters.Counter memory alertIdCounter;\r\n\r\n        _serviceRules[_ruleIdCounter.current()] = Rule(\r\n            _version,  \r\n            _serviceId,  \r\n            _description,      \r\n            _legislatorAddress,\r\n            _dateOn,\r\n            _dateOff,\r\n            _codeAlert,\r\n            _valueAlert,\r\n            true,\r\n            alertIdCounter\r\n        );\r\n\r\n        emit ServiceRulesUpdate(_serviceId, _ruleIdCounter.current(), \"New Rule\", msg.sender);\r\n\r\n        _ruleIdCounter.increment();\r\n    }\r\n\r\n    /**\r\n     * @dev toggle an alert config\r\n     * @param _ruleId index of the alert config\r\n     */\r\n    function toggleRule(uint _ruleId) \r\n        external {\r\n\r\n        require ((msg.sender == _serviceRules[_ruleId].legislatorAddress) || (msg.sender == owner()));\r\n\r\n        emit ServiceRulesUpdate(_serviceRules[_ruleId].serviceId, _ruleId, \"Rules on/off\", msg.sender);\r\n        \r\n        _serviceRules[_ruleId].isActive = !_serviceRules[_ruleId].isActive;\r\n    }       \r\n\r\n    // ALERTS PART\r\n\r\n    /**\r\n     * @dev add an alert\r\n     * @param _serviceId index of service \r\n     * @param _alertBody alert's body\r\n     */    \r\n    function addAlert(\r\n        uint _serviceId,\r\n        uint _ruleId,\r\n        bytes32 _alertBody) \r\n        isContractActive() isServiceActive(_serviceId) onlyBridge(_serviceId) external {         \r\n                   \r\n        _serviceRules[_ruleId].alertIdCounter.increment();\r\n\r\n        emit AlertReceive(_serviceId, _ruleId, _alertBody, msg.sender);\r\n    }\r\n\r\n    // SERVICE IOT\r\n\r\n    /**\r\n     * @dev add a sensor to the list\r\n     * @param _serviceId index of service\r\n     * @param _macAddress sensor's mac address\r\n     * @param _description sensor's description\r\n     */      \r\n    function addIot(\r\n        uint _serviceId,\r\n        bytes6 _macAddress,\r\n        string memory _description) \r\n        isContractActive() isServiceActive(_serviceId) onlyTechMaster(_serviceId) external {  \r\n\r\n        _serviceIots[_serviceId][_macAddress] = Iot(\r\n            _description,      \r\n            true\r\n        );\r\n\r\n        emit ServiceIotUpdate(_serviceId, _macAddress, \"Iot added\", msg.sender); \r\n\r\n        _services[_serviceId].IotIdCounter.increment();   \r\n    }\r\n\r\n    /**\r\n     * @dev toggle a sensor activation or deactivation\r\n     * @param _serviceId index of service\r\n     * @param _macAddress index of sensor\r\n     */     \r\n    function toggleIOT(\r\n        uint _serviceId,\r\n        bytes6 _macAddress) \r\n        isContractActive() isServiceActive(_serviceId) onlyTechMaster(_serviceId) external { \r\n\r\n        emit ServiceIotUpdate(_serviceId, _macAddress, \"Iot on/off\", msg.sender);\r\n\r\n        _serviceIots[_serviceId][_macAddress].isActive = !_serviceIots[_serviceId][_macAddress].isActive;\r\n    }\r\n\r\n  \r\n\r\n}\r\n",
  "sourcePath": "C:/Users/danie/Desktop/Solidity/Projet final/eco-capt/contracts/CustomerContract.sol",
  "compiler": {
    "name": "solc",
    "version": "0.8.0+commit.c7dfd78e.Emscripten.clang"
  },
  "schemaVersion": "3.3.4",
  "updatedAt": "2021-04-20T13:27:04.718Z",
  "networkType": "ethereum",
  "devdoc": {
    "kind": "dev",
    "methods": {
      "addAlert(uint256,uint256,bytes32)": {
        "details": "add an alert",
        "params": {
          "_alertBody": "alert's body",
          "_serviceId": "index of service "
        }
      },
      "addIot(uint256,bytes6,string)": {
        "details": "add a sensor to the list",
        "params": {
          "_description": "sensor's description",
          "_macAddress": "sensor's mac address",
          "_serviceId": "index of service"
        }
      },
      "addMeasure(uint256,bytes32,bytes32)": {
        "details": "add a Measure",
        "params": {
          "_measureHeader": "header of the measure",
          "_measurebody": "body of the measure",
          "_serviceId": "index of service "
        }
      },
      "addRule(bytes8,uint16,string,uint64,uint64,bytes8,bytes8)": {
        "details": "add a fondation's alert config",
        "params": {
          "_codeAlert": "alert's code",
          "_dateOff": "alert's ending date",
          "_dateOn": "alert's starting date",
          "_description": "alert config description ",
          "_serviceId": "index of service ",
          "_valueAlert": "alert's value",
          "_version": "service's version"
        }
      },
      "addService(bytes8,string,bytes8,bytes1,uint8)": {
        "details": "add a Service",
        "params": {
          "_description": "string description for the dApps interface",
          "_measureType": "bytes8 type of measure for the dApps interface",
          "_nbTime": "uint8 number of times for the dApps interface",
          "_timeCode": "bytes1 time code for the dApps interface",
          "_version": "bytes8 version of service"
        }
      },
      "owner()": {
        "details": "Returns the address of the current owner."
      },
      "renounceOwnership()": {
        "details": "Leaves the contract without owner. It will not be possible to call `onlyOwner` functions anymore. Can only be called by the current owner. NOTE: Renouncing ownership will leave the contract without an owner, thereby removing any functionality that is only available to the owner."
      },
      "setBridgeAddress(uint256,address)": {
        "details": "set a BridgeAdress",
        "params": {
          "_bridgeAddress": "bridge's address",
          "_serviceId": "index of service"
        }
      },
      "setLegislatorAddress(uint256,address)": {
        "details": "set a LegislatorAddress",
        "params": {
          "_legislatorAddress": "legislator's address",
          "_serviceId": "index of service "
        }
      },
      "setTechMasterAddress(uint256,address)": {
        "details": "set a TechMasterAddress",
        "params": {
          "_serviceId": "index of service ",
          "_techMasterAddress": "techMaster's address"
        }
      },
      "toggleContract()": {
        "details": "toggle a Contract activation or deactivation"
      },
      "toggleIOT(uint256,bytes6)": {
        "details": "toggle a sensor activation or deactivation",
        "params": {
          "_macAddress": "index of sensor",
          "_serviceId": "index of service"
        }
      },
      "toggleRule(uint256)": {
        "details": "toggle an alert config",
        "params": {
          "_ruleId": "index of the alert config"
        }
      },
      "toggleService(uint256)": {
        "details": "toggle a Service activation or deactivation",
        "params": {
          "_serviceId": "index of service"
        }
      },
      "transferOwnership(address)": {
        "details": "Transfers ownership of the contract to a new account (`newOwner`). Can only be called by the current owner."
      }
    },
    "version": 1
  },
  "userdoc": {
    "kind": "user",
    "methods": {},
    "version": 1
  }
}