{
  "contractName": "CustomerContract",
  "abi": [
    {
      "inputs": [
        {
          "internalType": "bytes8",
          "name": "_version",
          "type": "bytes8"
        },
        {
          "internalType": "address",
          "name": "_ledgerAddress",
          "type": "address"
        },
        {
          "internalType": "address",
          "name": "_ecpTokenAddress",
          "type": "address"
        },
        {
          "internalType": "address",
          "name": "_customerAddress",
          "type": "address"
        },
        {
          "internalType": "address",
          "name": "_prevContract",
          "type": "address"
        },
        {
          "internalType": "uint64",
          "name": "_prevContractDate",
          "type": "uint64"
        }
      ],
      "stateMutability": "nonpayable",
      "type": "constructor"
    },
    {
      "anonymous": false,
      "inputs": [
        {
          "indexed": false,
          "internalType": "uint256",
          "name": "_serviceId",
          "type": "uint256"
        },
        {
          "indexed": false,
          "internalType": "uint256",
          "name": "_ruleId",
          "type": "uint256"
        },
        {
          "indexed": false,
          "internalType": "bytes32",
          "name": "_alert",
          "type": "bytes32"
        },
        {
          "indexed": false,
          "internalType": "address",
          "name": "_author",
          "type": "address"
        }
      ],
      "name": "AlertReceive",
      "type": "event"
    },
    {
      "anonymous": false,
      "inputs": [
        {
          "indexed": false,
          "internalType": "string",
          "name": "_message",
          "type": "string"
        },
        {
          "indexed": false,
          "internalType": "address",
          "name": "_author",
          "type": "address"
        }
      ],
      "name": "ContractUpdate",
      "type": "event"
    },
    {
      "anonymous": false,
      "inputs": [
        {
          "indexed": false,
          "internalType": "uint256",
          "name": "_serviceId",
          "type": "uint256"
        },
        {
          "indexed": false,
          "internalType": "bytes32",
          "name": "_header",
          "type": "bytes32"
        },
        {
          "indexed": false,
          "internalType": "bytes32",
          "name": "_body",
          "type": "bytes32"
        },
        {
          "indexed": false,
          "internalType": "address",
          "name": "_author",
          "type": "address"
        }
      ],
      "name": "MeasureReceive",
      "type": "event"
    },
    {
      "anonymous": false,
      "inputs": [
        {
          "indexed": true,
          "internalType": "address",
          "name": "previousOwner",
          "type": "address"
        },
        {
          "indexed": true,
          "internalType": "address",
          "name": "newOwner",
          "type": "address"
        }
      ],
      "name": "OwnershipTransferred",
      "type": "event"
    },
    {
      "anonymous": false,
      "inputs": [
        {
          "indexed": false,
          "internalType": "uint256",
          "name": "_serviceId",
          "type": "uint256"
        },
        {
          "indexed": false,
          "internalType": "bytes6",
          "name": "_iotId",
          "type": "bytes6"
        },
        {
          "indexed": false,
          "internalType": "string",
          "name": "_message",
          "type": "string"
        },
        {
          "indexed": false,
          "internalType": "address",
          "name": "_author",
          "type": "address"
        }
      ],
      "name": "ServiceIotUpdate",
      "type": "event"
    },
    {
      "anonymous": false,
      "inputs": [
        {
          "indexed": false,
          "internalType": "uint256",
          "name": "_serviceId",
          "type": "uint256"
        },
        {
          "indexed": false,
          "internalType": "uint256",
          "name": "_ruleId",
          "type": "uint256"
        },
        {
          "indexed": false,
          "internalType": "string",
          "name": "_message",
          "type": "string"
        },
        {
          "indexed": false,
          "internalType": "address",
          "name": "_author",
          "type": "address"
        }
      ],
      "name": "ServiceRulesUpdate",
      "type": "event"
    },
    {
      "anonymous": false,
      "inputs": [
        {
          "indexed": false,
          "internalType": "uint256",
          "name": "_serviceId",
          "type": "uint256"
        },
        {
          "indexed": false,
          "internalType": "string",
          "name": "_message",
          "type": "string"
        },
        {
          "indexed": false,
          "internalType": "address",
          "name": "_author",
          "type": "address"
        }
      ],
      "name": "ServiceUpdate",
      "type": "event"
    },
    {
      "inputs": [],
      "name": "_myConfig",
      "outputs": [
        {
          "internalType": "bytes8",
          "name": "version",
          "type": "bytes8"
        },
        {
          "internalType": "address",
          "name": "_ledgerAddress",
          "type": "address"
        },
        {
          "internalType": "address",
          "name": "_ecpTokenAddress",
          "type": "address"
        },
        {
          "internalType": "uint64",
          "name": "prevContractDate",
          "type": "uint64"
        },
        {
          "internalType": "uint64",
          "name": "nextContractDate",
          "type": "uint64"
        },
        {
          "internalType": "address",
          "name": "customerAddress",
          "type": "address"
        },
        {
          "internalType": "address",
          "name": "prevContract",
          "type": "address"
        },
        {
          "internalType": "address",
          "name": "nextContract",
          "type": "address"
        },
        {
          "internalType": "bool",
          "name": "isActive",
          "type": "bool"
        }
      ],
      "stateMutability": "view",
      "type": "function",
      "constant": true
    },
    {
      "inputs": [],
      "name": "_ruleIdCounter",
      "outputs": [
        {
          "internalType": "uint256",
          "name": "_value",
          "type": "uint256"
        }
      ],
      "stateMutability": "view",
      "type": "function",
      "constant": true
    },
    {
      "inputs": [],
      "name": "_serviceIdCounter",
      "outputs": [
        {
          "internalType": "uint256",
          "name": "_value",
          "type": "uint256"
        }
      ],
      "stateMutability": "view",
      "type": "function",
      "constant": true
    },
    {
      "inputs": [
        {
          "internalType": "uint256",
          "name": "",
          "type": "uint256"
        },
        {
          "internalType": "bytes6",
          "name": "",
          "type": "bytes6"
        }
      ],
      "name": "_serviceIots",
      "outputs": [
        {
          "internalType": "string",
          "name": "description",
          "type": "string"
        },
        {
          "internalType": "bool",
          "name": "isActive",
          "type": "bool"
        }
      ],
      "stateMutability": "view",
      "type": "function",
      "constant": true
    },
    {
      "inputs": [
        {
          "internalType": "uint256",
          "name": "",
          "type": "uint256"
        }
      ],
      "name": "_serviceRules",
      "outputs": [
        {
          "internalType": "bytes8",
          "name": "version",
          "type": "bytes8"
        },
        {
          "internalType": "uint16",
          "name": "serviceId",
          "type": "uint16"
        },
        {
          "internalType": "string",
          "name": "description",
          "type": "string"
        },
        {
          "internalType": "address",
          "name": "legislatorAddress",
          "type": "address"
        },
        {
          "internalType": "uint64",
          "name": "dateOn",
          "type": "uint64"
        },
        {
          "internalType": "uint64",
          "name": "dateOff",
          "type": "uint64"
        },
        {
          "internalType": "bytes4",
          "name": "codeAlert",
          "type": "bytes4"
        },
        {
          "internalType": "bytes8",
          "name": "valueAlert",
          "type": "bytes8"
        },
        {
          "internalType": "bool",
          "name": "isActive",
          "type": "bool"
        },
        {
          "components": [
            {
              "internalType": "uint256",
              "name": "_value",
              "type": "uint256"
            }
          ],
          "internalType": "struct Counters.Counter",
          "name": "alertIdCounter",
          "type": "tuple"
        }
      ],
      "stateMutability": "view",
      "type": "function",
      "constant": true
    },
    {
      "inputs": [
        {
          "internalType": "uint256",
          "name": "",
          "type": "uint256"
        }
      ],
      "name": "_services",
      "outputs": [
        {
          "internalType": "bytes8",
          "name": "version",
          "type": "bytes8"
        },
        {
          "internalType": "bytes8",
          "name": "measureType",
          "type": "bytes8"
        },
        {
          "internalType": "bytes1",
          "name": "timeCode",
          "type": "bytes1"
        },
        {
          "internalType": "uint8",
          "name": "nbTime",
          "type": "uint8"
        },
        {
          "internalType": "bool",
          "name": "isActive",
          "type": "bool"
        },
        {
          "internalType": "string",
          "name": "description",
          "type": "string"
        },
        {
          "internalType": "address",
          "name": "bridgeAddress",
          "type": "address"
        },
        {
          "internalType": "address",
          "name": "techMasterAddress",
          "type": "address"
        },
        {
          "internalType": "address",
          "name": "legislatorAddress",
          "type": "address"
        },
        {
          "components": [
            {
              "internalType": "uint256",
              "name": "_value",
              "type": "uint256"
            }
          ],
          "internalType": "struct Counters.Counter",
          "name": "measureIdCounter",
          "type": "tuple"
        },
        {
          "components": [
            {
              "internalType": "uint256",
              "name": "_value",
              "type": "uint256"
            }
          ],
          "internalType": "struct Counters.Counter",
          "name": "iotIdCounter",
          "type": "tuple"
        }
      ],
      "stateMutability": "view",
      "type": "function",
      "constant": true
    },
    {
      "inputs": [],
      "name": "owner",
      "outputs": [
        {
          "internalType": "address",
          "name": "",
          "type": "address"
        }
      ],
      "stateMutability": "view",
      "type": "function",
      "constant": true
    },
    {
      "inputs": [],
      "name": "renounceOwnership",
      "outputs": [],
      "stateMutability": "nonpayable",
      "type": "function"
    },
    {
      "inputs": [
        {
          "internalType": "address",
          "name": "newOwner",
          "type": "address"
        }
      ],
      "name": "transferOwnership",
      "outputs": [],
      "stateMutability": "nonpayable",
      "type": "function"
    },
    {
      "inputs": [],
      "name": "toggleContract",
      "outputs": [],
      "stateMutability": "nonpayable",
      "type": "function"
    },
    {
      "inputs": [
        {
          "internalType": "bytes8",
          "name": "_version",
          "type": "bytes8"
        },
        {
          "internalType": "string",
          "name": "_description",
          "type": "string"
        },
        {
          "internalType": "bytes8",
          "name": "_measureType",
          "type": "bytes8"
        },
        {
          "internalType": "bytes1",
          "name": "_timeCode",
          "type": "bytes1"
        },
        {
          "internalType": "uint8",
          "name": "_nbTime",
          "type": "uint8"
        }
      ],
      "name": "addService",
      "outputs": [],
      "stateMutability": "nonpayable",
      "type": "function"
    },
    {
      "inputs": [
        {
          "internalType": "uint256",
          "name": "_serviceId",
          "type": "uint256"
        }
      ],
      "name": "toggleService",
      "outputs": [],
      "stateMutability": "nonpayable",
      "type": "function"
    },
    {
      "inputs": [
        {
          "internalType": "uint256",
          "name": "_serviceId",
          "type": "uint256"
        },
        {
          "internalType": "address",
          "name": "_techMasterAddress",
          "type": "address"
        }
      ],
      "name": "setTechMasterAddress",
      "outputs": [],
      "stateMutability": "nonpayable",
      "type": "function"
    },
    {
      "inputs": [
        {
          "internalType": "uint256",
          "name": "_serviceId",
          "type": "uint256"
        },
        {
          "internalType": "address",
          "name": "_legislatorAddress",
          "type": "address"
        }
      ],
      "name": "setLegislatorAddress",
      "outputs": [],
      "stateMutability": "nonpayable",
      "type": "function"
    },
    {
      "inputs": [
        {
          "internalType": "uint256",
          "name": "_serviceId",
          "type": "uint256"
        },
        {
          "internalType": "address",
          "name": "_bridgeAddress",
          "type": "address"
        }
      ],
      "name": "setBridgeAddress",
      "outputs": [],
      "stateMutability": "nonpayable",
      "type": "function"
    },
    {
      "inputs": [
        {
          "internalType": "uint256",
          "name": "_serviceId",
          "type": "uint256"
        },
        {
          "internalType": "bytes32",
          "name": "_measureHeader",
          "type": "bytes32"
        },
        {
          "internalType": "bytes32",
          "name": "_measurebody",
          "type": "bytes32"
        }
      ],
      "name": "addMeasure",
      "outputs": [],
      "stateMutability": "nonpayable",
      "type": "function"
    },
    {
      "inputs": [
        {
          "internalType": "bytes8",
          "name": "_version",
          "type": "bytes8"
        },
        {
          "internalType": "uint16",
          "name": "_serviceId",
          "type": "uint16"
        },
        {
          "internalType": "string",
          "name": "_description",
          "type": "string"
        },
        {
          "internalType": "uint64",
          "name": "_dateOn",
          "type": "uint64"
        },
        {
          "internalType": "uint64",
          "name": "_dateOff",
          "type": "uint64"
        },
        {
          "internalType": "bytes4",
          "name": "_codeAlert",
          "type": "bytes4"
        },
        {
          "internalType": "bytes8",
          "name": "_valueAlert",
          "type": "bytes8"
        }
      ],
      "name": "addRule",
      "outputs": [],
      "stateMutability": "nonpayable",
      "type": "function"
    },
    {
      "inputs": [
        {
          "internalType": "uint256",
          "name": "_ruleId",
          "type": "uint256"
        }
      ],
      "name": "toggleRule",
      "outputs": [],
      "stateMutability": "nonpayable",
      "type": "function"
    },
    {
      "inputs": [
        {
          "internalType": "uint256",
          "name": "_serviceId",
          "type": "uint256"
        },
        {
          "internalType": "uint256",
          "name": "_ruleId",
          "type": "uint256"
        },
        {
          "internalType": "bytes32",
          "name": "_alertBody",
          "type": "bytes32"
        }
      ],
      "name": "addAlert",
      "outputs": [],
      "stateMutability": "nonpayable",
      "type": "function"
    },
    {
      "inputs": [
        {
          "internalType": "uint256",
          "name": "_serviceId",
          "type": "uint256"
        },
        {
          "internalType": "bytes6",
          "name": "_macAddress",
          "type": "bytes6"
        },
        {
          "internalType": "string",
          "name": "_description",
          "type": "string"
        }
      ],
      "name": "addIot",
      "outputs": [],
      "stateMutability": "nonpayable",
      "type": "function"
    },
    {
      "inputs": [
        {
          "internalType": "uint256",
          "name": "_serviceId",
          "type": "uint256"
        },
        {
          "internalType": "bytes6",
          "name": "_macAddress",
          "type": "bytes6"
        }
      ],
      "name": "toggleIOT",
      "outputs": [],
      "stateMutability": "nonpayable",
      "type": "function"
    }
  ],
  "bytecode": "0x60806040523480156200001157600080fd5b506040516200473038038062004730833981810160405281019062000037919062000472565b6000620000496200042560201b60201c565b9050806000806101000a81548173ffffffffffffffffffffffffffffffffffffffff021916908373ffffffffffffffffffffffffffffffffffffffff1602179055508073ffffffffffffffffffffffffffffffffffffffff16600073ffffffffffffffffffffffffffffffffffffffff167f8be0079c531659141344cd1fd0a4f28419497f9722a3daafe3b4186f6b6457e060405160405180910390a3506040518061012001604052808777ffffffffffffffffffffffffffffffffffffffffffffffff191681526020018673ffffffffffffffffffffffffffffffffffffffff1681526020018573ffffffffffffffffffffffffffffffffffffffff1681526020018267ffffffffffffffff168152602001600067ffffffffffffffff1681526020018473ffffffffffffffffffffffffffffffffffffffff1681526020018373ffffffffffffffffffffffffffffffffffffffff168152602001600073ffffffffffffffffffffffffffffffffffffffff16815260200160011515815250600160008201518160000160006101000a81548167ffffffffffffffff021916908360c01c021790555060208201518160000160086101000a81548173ffffffffffffffffffffffffffffffffffffffff021916908373ffffffffffffffffffffffffffffffffffffffff16021790555060408201518160010160006101000a81548173ffffffffffffffffffffffffffffffffffffffff021916908373ffffffffffffffffffffffffffffffffffffffff16021790555060608201518160010160146101000a81548167ffffffffffffffff021916908367ffffffffffffffff16021790555060808201518160020160006101000a81548167ffffffffffffffff021916908367ffffffffffffffff16021790555060a08201518160020160086101000a81548173ffffffffffffffffffffffffffffffffffffffff021916908373ffffffffffffffffffffffffffffffffffffffff16021790555060c08201518160030160006101000a81548173ffffffffffffffffffffffffffffffffffffffff021916908373ffffffffffffffffffffffffffffffffffffffff16021790555060e08201518160040160006101000a81548173ffffffffffffffffffffffffffffffffffffffff021916908373ffffffffffffffffffffffffffffffffffffffff1602179055506101008201518160040160146101000a81548160ff02191690831515021790555090505083600b60006101000a81548173ffffffffffffffffffffffffffffffffffffffff021916908373ffffffffffffffffffffffffffffffffffffffff160217905550505050505050620005ca565b600033905090565b6000815190506200043e816200057c565b92915050565b600081519050620004558162000596565b92915050565b6000815190506200046c81620005b0565b92915050565b60008060008060008060c087890312156200048c57600080fd5b60006200049c89828a0162000444565b9650506020620004af89828a016200042d565b9550506040620004c289828a016200042d565b9450506060620004d589828a016200042d565b9350506080620004e889828a016200042d565b92505060a0620004fb89828a016200045b565b9150509295509295509295565b6000620005158262000548565b9050919050565b60007fffffffffffffffff00000000000000000000000000000000000000000000000082169050919050565b600073ffffffffffffffffffffffffffffffffffffffff82169050919050565b600067ffffffffffffffff82169050919050565b620005878162000508565b81146200059357600080fd5b50565b620005a1816200051c565b8114620005ad57600080fd5b50565b620005bb8162000568565b8114620005c757600080fd5b50565b61415680620005da6000396000f3fe608060405234801561001057600080fd5b50600436106101375760003560e01c80638da5cb5b116100b8578063c18ec58c1161007c578063c18ec58c1461031a578063c700fdf714610336578063da6cd37614610354578063e0c9d4bb14610370578063e8d290841461038c578063f2fde38b146103a857610137565b80638da5cb5b1461029457806399892f49146102b25780639df90028146102d8578063b2e733bf146102e2578063b9d3106b146102fe57610137565b80634e35b4fc116100ff5780634e35b4fc146101dd5780635813d736146101f9578063715018a6146102325780637ad3155f1461023c5780638181b80d1461025a57610137565b806306566faa1461013c5780630d00605f146101585780632cb95cec14610174578063390fc6b6146101a55780634c6fdcc6146101c1575b600080fd5b61015660048036038101906101519190613067565b6103c4565b005b610172600480360381019061016d9190612f88565b61063b565b005b61018e600480360381019061018991906130f2565b610b5c565b60405161019c929190613957565b60405180910390f35b6101bf60048036038101906101ba919061303e565b610c22565b005b6101db60048036038101906101d69190613067565b610db7565b005b6101f760048036038101906101f291906130f2565b610fc7565b005b610213600480360381019061020e919061303e565b6112d3565b6040516102299a999897969594939291906138b4565b60405180910390f35b61023a61144d565b005b610244611587565b6040516102519190613b09565b60405180910390f35b610274600480360381019061026f919061303e565b611593565b60405161028b9b9a99989796959493929190613802565b60405180910390f35b61029c61173e565b6040516102a99190613731565b60405180910390f35b6102ba611767565b6040516102cf99989796959493929190613775565b60405180910390f35b6102e0611885565b005b6102fc60048036038101906102f791906130a3565b61196a565b005b6103186004803603810190610313919061312e565b611c85565b005b610334600480360381019061032f9190613067565b611f7e565b005b61033e6121e2565b60405161034b9190613b09565b60405180910390f35b61036e60048036038101906103699190612ef9565b6121ee565b005b61038a6004803603810190610385919061303e565b612654565b005b6103a660048036038101906103a19190613195565b6127b2565b005b6103c260048036038101906103bd9190612ea7565b612acd565b005b600160040160149054906101000a900460ff16610416576040517f08c379a000000000000000000000000000000000000000000000000000000000815260040161040d90613a15565b60405180910390fd5b816104216007612c76565b8110610462576040517f08c379a0000000000000000000000000000000000000000000000000000000008152600401610459906139f5565b60405180910390fd5b6006600082815260200190815260200160002060000160129054906101000a900460ff166104c5576040517f08c379a00000000000000000000000000000000000000000000000000000000081526004016104bc90613a35565b60405180910390fd5b823373ffffffffffffffffffffffffffffffffffffffff166006600083815260200190815260200160002060030160009054906101000a900473ffffffffffffffffffffffffffffffffffffffff1673ffffffffffffffffffffffffffffffffffffffff16148061056857503373ffffffffffffffffffffffffffffffffffffffff1661055061173e565b73ffffffffffffffffffffffffffffffffffffffff16145b6105a7576040517f08c379a000000000000000000000000000000000000000000000000000000000815260040161059e90613a55565b60405180910390fd5b826006600086815260200190815260200160002060020160006101000a81548173ffffffffffffffffffffffffffffffffffffffff021916908373ffffffffffffffffffffffffffffffffffffffff1602179055507f6eb54bb1fcbc8b072bc7be4d66f909b2316584cb9b6c49bfdb6504b9246a8481843360405161062d929190613c39565b60405180910390a150505050565b600160040160149054906101000a900460ff1661068d576040517f08c379a000000000000000000000000000000000000000000000000000000000815260040161068490613a15565b60405180910390fd5b8561ffff1661069c6007612c76565b81106106dd576040517f08c379a00000000000000000000000000000000000000000000000000000000081526004016106d4906139f5565b60405180910390fd5b6006600082815260200190815260200160002060000160129054906101000a900460ff16610740576040517f08c379a000000000000000000000000000000000000000000000000000000000815260040161073790613a35565b60405180910390fd5b3373ffffffffffffffffffffffffffffffffffffffff16600660008961ffff16815260200190815260200160002060040160009054906101000a900473ffffffffffffffffffffffffffffffffffffffff1673ffffffffffffffffffffffffffffffffffffffff16148061080457503373ffffffffffffffffffffffffffffffffffffffff16600160020160089054906101000a900473ffffffffffffffffffffffffffffffffffffffff1673ffffffffffffffffffffffffffffffffffffffff16145b8061084157503373ffffffffffffffffffffffffffffffffffffffff1661082961173e565b73ffffffffffffffffffffffffffffffffffffffff16145b610880576040517f08c379a000000000000000000000000000000000000000000000000000000000815260040161087790613a55565b60405180910390fd5b610888612ca2565b6040518061014001604052808a77ffffffffffffffffffffffffffffffffffffffffffffffff191681526020018961ffff1681526020018881526020013373ffffffffffffffffffffffffffffffffffffffff1681526020018767ffffffffffffffff1681526020018667ffffffffffffffff168152602001857bffffffffffffffffffffffffffffffffffffffffffffffffffffffff191681526020018477ffffffffffffffffffffffffffffffffffffffffffffffff191681526020016001151581526020018281525060096000610962600a612c76565b815260200190815260200160002060008201518160000160006101000a81548167ffffffffffffffff021916908360c01c021790555060208201518160000160086101000a81548161ffff021916908361ffff16021790555060408201518160010190805190602001906109d7929190612cb5565b5060608201518160020160006101000a81548173ffffffffffffffffffffffffffffffffffffffff021916908373ffffffffffffffffffffffffffffffffffffffff16021790555060808201518160020160146101000a81548167ffffffffffffffff021916908367ffffffffffffffff16021790555060a08201518160030160006101000a81548167ffffffffffffffff021916908367ffffffffffffffff16021790555060c08201518160030160086101000a81548163ffffffff021916908360e01c021790555060e082015181600301600c6101000a81548167ffffffffffffffff021916908360c01c02179055506101008201518160030160146101000a81548160ff021916908315150217905550610120820151816004016000820151816000015550509050507fd265572d82340957d58225c4530aa27f8dd410b1d09d9a4c77677d55a01cc1a188610b2f600a612c76565b33604051610b3f93929190613abf565b60405180910390a1610b51600a612c84565b505050505050505050565b600860205281600052604060002060205280600052604060002060009150915050806000018054610b8c90613f82565b80601f0160208091040260200160405190810160405280929190818152602001828054610bb890613f82565b8015610c055780601f10610bda57610100808354040283529160200191610c05565b820191906000526020600020905b815481529060010190602001808311610be857829003601f168201915b5050505050908060010160009054906101000a900460ff16905082565b6009600082815260200190815260200160002060020160009054906101000a900473ffffffffffffffffffffffffffffffffffffffff1673ffffffffffffffffffffffffffffffffffffffff163373ffffffffffffffffffffffffffffffffffffffff161480610cc45750610c9561173e565b73ffffffffffffffffffffffffffffffffffffffff163373ffffffffffffffffffffffffffffffffffffffff16145b610d03576040517f08c379a0000000000000000000000000000000000000000000000000000000008152600401610cfa90613a55565b60405180910390fd5b7fd265572d82340957d58225c4530aa27f8dd410b1d09d9a4c77677d55a01cc1a16009600083815260200190815260200160002060000160089054906101000a900461ffff168233604051610d5a93929190613a75565b60405180910390a16009600082815260200190815260200160002060030160149054906101000a900460ff16156009600083815260200190815260200160002060030160146101000a81548160ff02191690831515021790555050565b600160040160149054906101000a900460ff16610e09576040517f08c379a0000000000000000000000000000000000000000000000000000000008152600401610e0090613a15565b60405180910390fd5b81610e146007612c76565b8110610e55576040517f08c379a0000000000000000000000000000000000000000000000000000000008152600401610e4c906139f5565b60405180910390fd5b6006600082815260200190815260200160002060000160129054906101000a900460ff16610eb8576040517f08c379a0000000000000000000000000000000000000000000000000000000008152600401610eaf90613a35565b60405180910390fd5b610ec0612c9a565b73ffffffffffffffffffffffffffffffffffffffff16610ede61173e565b73ffffffffffffffffffffffffffffffffffffffff1614610f34576040517f08c379a0000000000000000000000000000000000000000000000000000000008152600401610f2b906139d5565b60405180910390fd5b816006600085815260200190815260200160002060030160006101000a81548173ffffffffffffffffffffffffffffffffffffffff021916908373ffffffffffffffffffffffffffffffffffffffff1602179055507f6eb54bb1fcbc8b072bc7be4d66f909b2316584cb9b6c49bfdb6504b9246a84818333604051610fba929190613bfd565b60405180910390a1505050565b600160040160149054906101000a900460ff16611019576040517f08c379a000000000000000000000000000000000000000000000000000000000815260040161101090613a15565b60405180910390fd5b816110246007612c76565b8110611065576040517f08c379a000000000000000000000000000000000000000000000000000000000815260040161105c906139f5565b60405180910390fd5b6006600082815260200190815260200160002060000160129054906101000a900460ff166110c8576040517f08c379a00000000000000000000000000000000000000000000000000000000081526004016110bf90613a35565b60405180910390fd5b823373ffffffffffffffffffffffffffffffffffffffff166006600083815260200190815260200160002060030160009054906101000a900473ffffffffffffffffffffffffffffffffffffffff1673ffffffffffffffffffffffffffffffffffffffff16148061116b57503373ffffffffffffffffffffffffffffffffffffffff1661115361173e565b73ffffffffffffffffffffffffffffffffffffffff16145b6111aa576040517f08c379a00000000000000000000000000000000000000000000000000000000081526004016111a190613a55565b60405180910390fd5b7fcde1a82fd39a63a298c011f93aac06d29c34d9a788a717826f0016b4c20470fc8484336040516111dd93929190613b69565b60405180910390a16008600085815260200190815260200160002060008479ffffffffffffffffffffffffffffffffffffffffffffffffffff191679ffffffffffffffffffffffffffffffffffffffffffffffffffff1916815260200190815260200160002060010160009054906101000a900460ff16156008600086815260200190815260200160002060008579ffffffffffffffffffffffffffffffffffffffffffffffffffff191679ffffffffffffffffffffffffffffffffffffffffffffffffffff1916815260200190815260200160002060010160006101000a81548160ff02191690831515021790555050505050565b60096020528060005260406000206000915090508060000160009054906101000a900460c01b908060000160089054906101000a900461ffff169080600101805461131d90613f82565b80601f016020809104026020016040519081016040528092919081815260200182805461134990613f82565b80156113965780601f1061136b57610100808354040283529160200191611396565b820191906000526020600020905b81548152906001019060200180831161137957829003601f168201915b5050505050908060020160009054906101000a900473ffffffffffffffffffffffffffffffffffffffff16908060020160149054906101000a900467ffffffffffffffff16908060030160009054906101000a900467ffffffffffffffff16908060030160089054906101000a900460e01b9080600301600c9054906101000a900460c01b908060030160149054906101000a900460ff16908060040160405180602001604052908160008201548152505090508a565b611455612c9a565b73ffffffffffffffffffffffffffffffffffffffff1661147361173e565b73ffffffffffffffffffffffffffffffffffffffff16146114c9576040517f08c379a00000000000000000000000000000000000000000000000000000000081526004016114c0906139d5565b60405180910390fd5b600073ffffffffffffffffffffffffffffffffffffffff1660008054906101000a900473ffffffffffffffffffffffffffffffffffffffff1673ffffffffffffffffffffffffffffffffffffffff167f8be0079c531659141344cd1fd0a4f28419497f9722a3daafe3b4186f6b6457e060405160405180910390a360008060006101000a81548173ffffffffffffffffffffffffffffffffffffffff021916908373ffffffffffffffffffffffffffffffffffffffff160217905550565b600a8060000154905081565b60066020528060005260406000206000915090508060000160009054906101000a900460c01b908060000160089054906101000a900460c01b908060000160109054906101000a900460f81b908060000160119054906101000a900460ff16908060000160129054906101000a900460ff169080600101805461161590613f82565b80601f016020809104026020016040519081016040528092919081815260200182805461164190613f82565b801561168e5780601f106116635761010080835404028352916020019161168e565b820191906000526020600020905b81548152906001019060200180831161167157829003601f168201915b5050505050908060020160009054906101000a900473ffffffffffffffffffffffffffffffffffffffff16908060030160009054906101000a900473ffffffffffffffffffffffffffffffffffffffff16908060040160009054906101000a900473ffffffffffffffffffffffffffffffffffffffff169080600501604051806020016040529081600082015481525050908060060160405180602001604052908160008201548152505090508b565b60008060009054906101000a900473ffffffffffffffffffffffffffffffffffffffff16905090565b60018060000160009054906101000a900460c01b908060000160089054906101000a900473ffffffffffffffffffffffffffffffffffffffff16908060010160009054906101000a900473ffffffffffffffffffffffffffffffffffffffff16908060010160149054906101000a900467ffffffffffffffff16908060020160009054906101000a900467ffffffffffffffff16908060020160089054906101000a900473ffffffffffffffffffffffffffffffffffffffff16908060030160009054906101000a900473ffffffffffffffffffffffffffffffffffffffff16908060040160009054906101000a900473ffffffffffffffffffffffffffffffffffffffff16908060040160149054906101000a900460ff16905089565b61188d612c9a565b73ffffffffffffffffffffffffffffffffffffffff166118ab61173e565b73ffffffffffffffffffffffffffffffffffffffff1614611901576040517f08c379a00000000000000000000000000000000000000000000000000000000081526004016118f8906139d5565b60405180910390fd5b7f74851bb416411c1b4cb986c13ce9b6a9e973e7948f03fc2e574ca42a6d3724d33360405161193091906139a7565b60405180910390a1600160040160149054906101000a900460ff1615600160040160146101000a81548160ff021916908315150217905550565b600160040160149054906101000a900460ff166119bc576040517f08c379a00000000000000000000000000000000000000000000000000000000081526004016119b390613a15565b60405180910390fd5b826119c76007612c76565b8110611a08576040517f08c379a00000000000000000000000000000000000000000000000000000000081526004016119ff906139f5565b60405180910390fd5b6006600082815260200190815260200160002060000160129054906101000a900460ff16611a6b576040517f08c379a0000000000000000000000000000000000000000000000000000000008152600401611a6290613a35565b60405180910390fd5b833373ffffffffffffffffffffffffffffffffffffffff166006600083815260200190815260200160002060020160009054906101000a900473ffffffffffffffffffffffffffffffffffffffff1673ffffffffffffffffffffffffffffffffffffffff161480611b0e57503373ffffffffffffffffffffffffffffffffffffffff16611af661173e565b73ffffffffffffffffffffffffffffffffffffffff16145b611b4d576040517f08c379a0000000000000000000000000000000000000000000000000000000008152600401611b4490613a55565b60405180910390fd5b600b60009054906101000a900473ffffffffffffffffffffffffffffffffffffffff1673ffffffffffffffffffffffffffffffffffffffff1663a9059cbb600160000160089054906101000a900473ffffffffffffffffffffffffffffffffffffffff1660016040518363ffffffff1660e01b8152600401611bd092919061374c565b602060405180830381600087803b158015611bea57600080fd5b505af1158015611bfe573d6000803e3d6000fd5b505050506040513d601f19601f82011682018060405250810190611c229190612ed0565b50611c4160066000878152602001908152602001600020600501612c84565b7f818366328240e2ab5877d5eed27c1f3803a716f5700034371e2e520c650f574585858533604051611c769493929190613b24565b60405180910390a15050505050565b600160040160149054906101000a900460ff16611cd7576040517f08c379a0000000000000000000000000000000000000000000000000000000008152600401611cce90613a15565b60405180910390fd5b82611ce26007612c76565b8110611d23576040517f08c379a0000000000000000000000000000000000000000000000000000000008152600401611d1a906139f5565b60405180910390fd5b6006600082815260200190815260200160002060000160129054906101000a900460ff16611d86576040517f08c379a0000000000000000000000000000000000000000000000000000000008152600401611d7d90613a35565b60405180910390fd5b833373ffffffffffffffffffffffffffffffffffffffff166006600083815260200190815260200160002060030160009054906101000a900473ffffffffffffffffffffffffffffffffffffffff1673ffffffffffffffffffffffffffffffffffffffff161480611e2957503373ffffffffffffffffffffffffffffffffffffffff16611e1161173e565b73ffffffffffffffffffffffffffffffffffffffff16145b611e68576040517f08c379a0000000000000000000000000000000000000000000000000000000008152600401611e5f90613a55565b60405180910390fd5b6040518060400160405280848152602001600115158152506008600087815260200190815260200160002060008679ffffffffffffffffffffffffffffffffffffffffffffffffffff191679ffffffffffffffffffffffffffffffffffffffffffffffffffff191681526020019081526020016000206000820151816000019080519060200190611efa929190612cb5565b5060208201518160010160006101000a81548160ff0219169083151502179055509050507fcde1a82fd39a63a298c011f93aac06d29c34d9a788a717826f0016b4c20470fc858533604051611f5193929190613bb3565b60405180910390a1611f7760066000878152602001908152602001600020600601612c84565b5050505050565b600160040160149054906101000a900460ff16611fd0576040517f08c379a0000000000000000000000000000000000000000000000000000000008152600401611fc790613a15565b60405180910390fd5b81611fdb6007612c76565b811061201c576040517f08c379a0000000000000000000000000000000000000000000000000000000008152600401612013906139f5565b60405180910390fd5b6006600082815260200190815260200160002060000160129054906101000a900460ff1661207f576040517f08c379a000000000000000000000000000000000000000000000000000000000815260040161207690613a35565b60405180910390fd5b3373ffffffffffffffffffffffffffffffffffffffff16600160020160089054906101000a900473ffffffffffffffffffffffffffffffffffffffff1673ffffffffffffffffffffffffffffffffffffffff16148061211057503373ffffffffffffffffffffffffffffffffffffffff166120f861173e565b73ffffffffffffffffffffffffffffffffffffffff16145b61214f576040517f08c379a000000000000000000000000000000000000000000000000000000000815260040161214690613a55565b60405180910390fd5b816006600085815260200190815260200160002060040160006101000a81548173ffffffffffffffffffffffffffffffffffffffff021916908373ffffffffffffffffffffffffffffffffffffffff1602179055507f6eb54bb1fcbc8b072bc7be4d66f909b2316584cb9b6c49bfdb6504b9246a848183336040516121d5929190613c75565b60405180910390a1505050565b60078060000154905081565b3373ffffffffffffffffffffffffffffffffffffffff16600160020160089054906101000a900473ffffffffffffffffffffffffffffffffffffffff1673ffffffffffffffffffffffffffffffffffffffff16148061227f57503373ffffffffffffffffffffffffffffffffffffffff1661226761173e565b73ffffffffffffffffffffffffffffffffffffffff16145b6122be576040517f08c379a00000000000000000000000000000000000000000000000000000000081526004016122b590613a55565b60405180910390fd5b600160040160149054906101000a900460ff16612310576040517f08c379a000000000000000000000000000000000000000000000000000000000815260040161230790613a15565b60405180910390fd5b612318612ca2565b612320612ca2565b6040518061016001604052808877ffffffffffffffffffffffffffffffffffffffffffffffff191681526020018677ffffffffffffffffffffffffffffffffffffffffffffffff19168152602001857effffffffffffffffffffffffffffffffffffffffffffffffffffffffffffff191681526020018460ff168152602001600115158152602001878152602001600073ffffffffffffffffffffffffffffffffffffffff168152602001600073ffffffffffffffffffffffffffffffffffffffff168152602001600073ffffffffffffffffffffffffffffffffffffffff168152602001838152602001828152506006600061241d6007612c76565b815260200190815260200160002060008201518160000160006101000a81548167ffffffffffffffff021916908360c01c021790555060208201518160000160086101000a81548167ffffffffffffffff021916908360c01c021790555060408201518160000160106101000a81548160ff021916908360f81c021790555060608201518160000160116101000a81548160ff021916908360ff16021790555060808201518160000160126101000a81548160ff02191690831515021790555060a08201518160010190805190602001906124f9929190612cb5565b5060c08201518160020160006101000a81548173ffffffffffffffffffffffffffffffffffffffff021916908373ffffffffffffffffffffffffffffffffffffffff16021790555060e08201518160030160006101000a81548173ffffffffffffffffffffffffffffffffffffffff021916908373ffffffffffffffffffffffffffffffffffffffff1602179055506101008201518160040160006101000a81548173ffffffffffffffffffffffffffffffffffffffff021916908373ffffffffffffffffffffffffffffffffffffffff16021790555061012082015181600501600082015181600001555050610140820151816006016000820151816000015550509050507f6eb54bb1fcbc8b072bc7be4d66f909b2316584cb9b6c49bfdb6504b9246a848161262a6007612c76565b33604051612639929190613cb1565b60405180910390a161264b6007612c84565b50505050505050565b3373ffffffffffffffffffffffffffffffffffffffff16600160020160089054906101000a900473ffffffffffffffffffffffffffffffffffffffff1673ffffffffffffffffffffffffffffffffffffffff1614806126e557503373ffffffffffffffffffffffffffffffffffffffff166126cd61173e565b73ffffffffffffffffffffffffffffffffffffffff16145b612724576040517f08c379a000000000000000000000000000000000000000000000000000000000815260040161271b90613a55565b60405180910390fd5b7f6eb54bb1fcbc8b072bc7be4d66f909b2316584cb9b6c49bfdb6504b9246a84818133604051612755929190613ced565b60405180910390a16006600082815260200190815260200160002060000160129054906101000a900460ff16156006600083815260200190815260200160002060000160126101000a81548160ff02191690831515021790555050565b600160040160149054906101000a900460ff16612804576040517f08c379a00000000000000000000000000000000000000000000000000000000081526004016127fb90613a15565b60405180910390fd5b8261280f6007612c76565b8110612850576040517f08c379a0000000000000000000000000000000000000000000000000000000008152600401612847906139f5565b60405180910390fd5b6006600082815260200190815260200160002060000160129054906101000a900460ff166128b3576040517f08c379a00000000000000000000000000000000000000000000000000000000081526004016128aa90613a35565b60405180910390fd5b833373ffffffffffffffffffffffffffffffffffffffff166006600083815260200190815260200160002060020160009054906101000a900473ffffffffffffffffffffffffffffffffffffffff1673ffffffffffffffffffffffffffffffffffffffff16148061295657503373ffffffffffffffffffffffffffffffffffffffff1661293e61173e565b73ffffffffffffffffffffffffffffffffffffffff16145b612995576040517f08c379a000000000000000000000000000000000000000000000000000000000815260040161298c90613a55565b60405180910390fd5b600b60009054906101000a900473ffffffffffffffffffffffffffffffffffffffff1673ffffffffffffffffffffffffffffffffffffffff1663a9059cbb600160000160089054906101000a900473ffffffffffffffffffffffffffffffffffffffff1660016040518363ffffffff1660e01b8152600401612a1892919061374c565b602060405180830381600087803b158015612a3257600080fd5b505af1158015612a46573d6000803e3d6000fd5b505050506040513d601f19601f82011682018060405250810190612a6a9190612ed0565b50612a8960096000868152602001908152602001600020600401612c84565b7f36134df50fb7d9b784ebe80f4738a13cede0c5efe526e5e9d8b95601d8cc900c85858533604051612abe9493929190613d29565b60405180910390a15050505050565b612ad5612c9a565b73ffffffffffffffffffffffffffffffffffffffff16612af361173e565b73ffffffffffffffffffffffffffffffffffffffff1614612b49576040517f08c379a0000000000000000000000000000000000000000000000000000000008152600401612b40906139d5565b60405180910390fd5b600073ffffffffffffffffffffffffffffffffffffffff168173ffffffffffffffffffffffffffffffffffffffff161415612bb9576040517f08c379a0000000000000000000000000000000000000000000000000000000008152600401612bb090613987565b60405180910390fd5b8073ffffffffffffffffffffffffffffffffffffffff1660008054906101000a900473ffffffffffffffffffffffffffffffffffffffff1673ffffffffffffffffffffffffffffffffffffffff167f8be0079c531659141344cd1fd0a4f28419497f9722a3daafe3b4186f6b6457e060405160405180910390a3806000806101000a81548173ffffffffffffffffffffffffffffffffffffffff021916908373ffffffffffffffffffffffffffffffffffffffff16021790555050565b600081600001549050919050565b6001816000016000828254019250508190555050565b600033905090565b6040518060200160405280600081525090565b828054612cc190613f82565b90600052602060002090601f016020900481019282612ce35760008555612d2a565b82601f10612cfc57805160ff1916838001178555612d2a565b82800160010185558215612d2a579182015b82811115612d29578251825591602001919060010190612d0e565b5b509050612d379190612d3b565b5090565b5b80821115612d54576000816000905550600101612d3c565b5090565b6000612d6b612d6684613d9f565b613d6e565b905082815260208101848484011115612d8357600080fd5b612d8e848285613f40565b509392505050565b600081359050612da581614023565b92915050565b600081519050612dba8161403a565b92915050565b600081359050612dcf81614051565b92915050565b600081359050612de481614068565b92915050565b600081359050612df98161407f565b92915050565b600081359050612e0e81614096565b92915050565b600081359050612e23816140ad565b92915050565b600082601f830112612e3a57600080fd5b8135612e4a848260208601612d58565b91505092915050565b600081359050612e62816140c4565b92915050565b600081359050612e77816140db565b92915050565b600081359050612e8c816140f2565b92915050565b600081359050612ea181614109565b92915050565b600060208284031215612eb957600080fd5b6000612ec784828501612d96565b91505092915050565b600060208284031215612ee257600080fd5b6000612ef084828501612dab565b91505092915050565b600080600080600060a08688031215612f1157600080fd5b6000612f1f88828901612e14565b955050602086013567ffffffffffffffff811115612f3c57600080fd5b612f4888828901612e29565b9450506040612f5988828901612e14565b9350506060612f6a88828901612dc0565b9250506080612f7b88828901612e92565b9150509295509295909350565b600080600080600080600060e0888a031215612fa357600080fd5b6000612fb18a828b01612e14565b9750506020612fc28a828b01612e53565b965050604088013567ffffffffffffffff811115612fdf57600080fd5b612feb8a828b01612e29565b9550506060612ffc8a828b01612e7d565b945050608061300d8a828b01612e7d565b93505060a061301e8a828b01612dea565b92505060c061302f8a828b01612e14565b91505092959891949750929550565b60006020828403121561305057600080fd5b600061305e84828501612e68565b91505092915050565b6000806040838503121561307a57600080fd5b600061308885828601612e68565b925050602061309985828601612d96565b9150509250929050565b6000806000606084860312156130b857600080fd5b60006130c686828701612e68565b93505060206130d786828701612dd5565b92505060406130e886828701612dd5565b9150509250925092565b6000806040838503121561310557600080fd5b600061311385828601612e68565b925050602061312485828601612dff565b9150509250929050565b60008060006060848603121561314357600080fd5b600061315186828701612e68565b935050602061316286828701612dff565b925050604084013567ffffffffffffffff81111561317f57600080fd5b61318b86828701612e29565b9150509250925092565b6000806000606084860312156131aa57600080fd5b60006131b886828701612e68565b93505060206131c986828701612e68565b92505060406131da86828701612dd5565b9150509250925092565b6131ed81613deb565b82525050565b6131fc81613dfd565b82525050565b61320b81613e09565b82525050565b61321a81613e35565b82525050565b61322981613e3f565b82525050565b61323881613e6b565b82525050565b61324781613e97565b82525050565b61325681613f1c565b82525050565b600061326782613dcf565b6132718185613dda565b9350613281818560208601613f4f565b61328a81614012565b840191505092915050565b60006132a2600a83613dda565b91507f496f74206f6e2f6f6666000000000000000000000000000000000000000000006000830152602082019050919050565b60006132e2601983613dda565b91507f546563684d6173746572204164647265737320757064617465000000000000006000830152602082019050919050565b6000613322601583613dda565b91507f42726964676520416464726573732075706461746500000000000000000000006000830152602082019050919050565b6000613362602683613dda565b91507f4f776e61626c653a206e6577206f776e657220697320746865207a65726f206160008301527f64647265737300000000000000000000000000000000000000000000000000006020830152604082019050919050565b60006133c8601983613dda565b91507f4c656769736c61746f72204164647265737320757064617465000000000000006000830152602082019050919050565b6000613408600c83613dda565b91507f52756c6573206f6e2f6f666600000000000000000000000000000000000000006000830152602082019050919050565b6000613448600f83613dda565b91507f436f6e7472616374206f6e2f6f666600000000000000000000000000000000006000830152602082019050919050565b6000613488600b83613dda565b91507f4e657720736572766963650000000000000000000000000000000000000000006000830152602082019050919050565b60006134c8602083613dda565b91507f4f776e61626c653a2063616c6c6572206973206e6f7420746865206f776e65726000830152602082019050919050565b6000613508601183613dda565b91507f53657276696365206e6f742065786973740000000000000000000000000000006000830152602082019050919050565b6000613548600e83613dda565b91507f53657276696365206f6e2f6f66660000000000000000000000000000000000006000830152602082019050919050565b6000613588601183613dda565b91507f436f6e7472616374206f6666206c696e650000000000000000000000000000006000830152602082019050919050565b60006135c8601083613dda565b91507f53657276696365206f6666206c696e65000000000000000000000000000000006000830152602082019050919050565b6000613608600883613dda565b91507f4e65772072756c650000000000000000000000000000000000000000000000006000830152602082019050919050565b6000613648600d83613dda565b91507f4163636573732064656e696564000000000000000000000000000000000000006000830152602082019050919050565b6000613688600983613dda565b91507f496f7420616464656400000000000000000000000000000000000000000000006000830152602082019050919050565b6020820160008201516136d160008501826136f5565b50505050565b6136e081613ec3565b82525050565b6136ef81613f2e565b82525050565b6136fe81613ef1565b82525050565b61370d81613ef1565b82525050565b61371c81613efb565b82525050565b61372b81613f0f565b82525050565b600060208201905061374660008301846131e4565b92915050565b600060408201905061376160008301856131e4565b61376e602083018461324d565b9392505050565b60006101208201905061378b600083018c61323e565b613798602083018b6131e4565b6137a5604083018a6131e4565b6137b26060830189613713565b6137bf6080830188613713565b6137cc60a08301876131e4565b6137d960c08301866131e4565b6137e660e08301856131e4565b6137f46101008301846131f3565b9a9950505050505050505050565b600061016082019050613818600083018e61323e565b613825602083018d61323e565b613832604083018c613202565b61383f606083018b613722565b61384c608083018a6131f3565b81810360a083015261385e818961325c565b905061386d60c08301886131e4565b61387a60e08301876131e4565b6138886101008301866131e4565b6138966101208301856136bb565b6138a46101408301846136bb565b9c9b505050505050505050505050565b6000610140820190506138ca600083018d61323e565b6138d7602083018c6136d7565b81810360408301526138e9818b61325c565b90506138f8606083018a6131e4565b6139056080830189613713565b61391260a0830188613713565b61391f60c0830187613220565b61392c60e083018661323e565b61393a6101008301856131f3565b6139486101208301846136bb565b9b9a5050505050505050505050565b60006040820190508181036000830152613971818561325c565b905061398060208301846131f3565b9392505050565b600060208201905081810360008301526139a081613355565b9050919050565b600060408201905081810360008301526139c08161343b565b90506139cf60208301846131e4565b92915050565b600060208201905081810360008301526139ee816134bb565b9050919050565b60006020820190508181036000830152613a0e816134fb565b9050919050565b60006020820190508181036000830152613a2e8161357b565b9050919050565b60006020820190508181036000830152613a4e816135bb565b9050919050565b60006020820190508181036000830152613a6e8161363b565b9050919050565b6000608082019050613a8a60008301866136e6565b613a976020830185613704565b8181036040830152613aa8816133fb565b9050613ab760608301846131e4565b949350505050565b6000608082019050613ad460008301866136e6565b613ae16020830185613704565b8181036040830152613af2816135fb565b9050613b0160608301846131e4565b949350505050565b6000602082019050613b1e6000830184613704565b92915050565b6000608082019050613b396000830187613704565b613b466020830186613211565b613b536040830185613211565b613b6060608301846131e4565b95945050505050565b6000608082019050613b7e6000830186613704565b613b8b602083018561322f565b8181036040830152613b9c81613295565b9050613bab60608301846131e4565b949350505050565b6000608082019050613bc86000830186613704565b613bd5602083018561322f565b8181036040830152613be68161367b565b9050613bf560608301846131e4565b949350505050565b6000606082019050613c126000830185613704565b8181036020830152613c23816132d5565b9050613c3260408301846131e4565b9392505050565b6000606082019050613c4e6000830185613704565b8181036020830152613c5f81613315565b9050613c6e60408301846131e4565b9392505050565b6000606082019050613c8a6000830185613704565b8181036020830152613c9b816133bb565b9050613caa60408301846131e4565b9392505050565b6000606082019050613cc66000830185613704565b8181036020830152613cd78161347b565b9050613ce660408301846131e4565b9392505050565b6000606082019050613d026000830185613704565b8181036020830152613d138161353b565b9050613d2260408301846131e4565b9392505050565b6000608082019050613d3e6000830187613704565b613d4b6020830186613704565b613d586040830185613211565b613d6560608301846131e4565b95945050505050565b6000604051905081810181811067ffffffffffffffff82111715613d9557613d94613fe3565b5b8060405250919050565b600067ffffffffffffffff821115613dba57613db9613fe3565b5b601f19601f8301169050602081019050919050565b600081519050919050565b600082825260208201905092915050565b6000613df682613ed1565b9050919050565b60008115159050919050565b60007fff0000000000000000000000000000000000000000000000000000000000000082169050919050565b6000819050919050565b60007fffffffff0000000000000000000000000000000000000000000000000000000082169050919050565b60007fffffffffffff000000000000000000000000000000000000000000000000000082169050919050565b60007fffffffffffffffff00000000000000000000000000000000000000000000000082169050919050565b600061ffff82169050919050565b600073ffffffffffffffffffffffffffffffffffffffff82169050919050565b6000819050919050565b600067ffffffffffffffff82169050919050565b600060ff82169050919050565b6000613f2782613ef1565b9050919050565b6000613f3982613ec3565b9050919050565b82818337600083830152505050565b60005b83811015613f6d578082015181840152602081019050613f52565b83811115613f7c576000848401525b50505050565b60006002820490506001821680613f9a57607f821691505b60208210811415613fae57613fad613fb4565b5b50919050565b7f4e487b7100000000000000000000000000000000000000000000000000000000600052602260045260246000fd5b7f4e487b7100000000000000000000000000000000000000000000000000000000600052604160045260246000fd5b6000601f19601f8301169050919050565b61402c81613deb565b811461403757600080fd5b50565b61404381613dfd565b811461404e57600080fd5b50565b61405a81613e09565b811461406557600080fd5b50565b61407181613e35565b811461407c57600080fd5b50565b61408881613e3f565b811461409357600080fd5b50565b61409f81613e6b565b81146140aa57600080fd5b50565b6140b681613e97565b81146140c157600080fd5b50565b6140cd81613ec3565b81146140d857600080fd5b50565b6140e481613ef1565b81146140ef57600080fd5b50565b6140fb81613efb565b811461410657600080fd5b50565b61411281613f0f565b811461411d57600080fd5b5056fea26469706673582212209d4ef3e0c373b68edd1c26b91142ce719a87cc1896bd872e9c3b37455f79465364736f6c63430008000033",
  "immutableReferences": {},
  "source": "// SPDX-License-Identifier: MIT\r\npragma solidity 0.8.0;\r\n\r\nimport \"../node_modules/@openzeppelin/contracts/utils/Counters.sol\";\r\nimport \"../node_modules/@openzeppelin/contracts/access/Ownable.sol\";\r\nimport \"./IECPToken.sol\";\r\n\r\ncontract CustomerContract is Ownable {\r\n    using Counters for Counters.Counter;\r\n    \r\n    // struct MeasureHeader (32) { \r\n    //   //V0.1     XX.XX.XX    00.01.00\r\n    //   version : bytes8\r\n    //   date : YYYYmmddHHii : byte12\r\n    //   measureType : bytes8 - CODE : 4 number/letter for the physical nature - 4 number/letter for the version\r\n    //   timeCode : bytes1 (hourly, daily) Y m d H i\r\n    //   nbTime : bytes3 \r\n    // }\r\n    \r\n    // struct MeasureBody (32) { \r\n    //   Value 1 Max : bytes8\r\n    //   Value 2 Mean : bytes8\r\n    //   Value 3 Mediane : bytes8\r\n    //   Value 4 Min : bytes8\r\n    // }\r\n\r\n    // struct AlertBody (32) { \r\n    //   version : bytes8\r\n    //   codeAlert : bytes4    \r\n    //   date : YYYYmmddHHii : byte12\r\n    //   valueAlert : bytes8\r\n    // }\r\n\r\n    /**\r\n    * @dev Structure of Configuration\r\n    * @notice Version and status of activation\r\n    * @notice Link to other contract\r\n    */\r\n    struct Config {\r\n        bytes8 version;\r\n        address _ledgerAddress;\r\n        address _ecpTokenAddress;        \r\n        uint64 prevContractDate;\r\n        uint64 nextContractDate;\r\n        address customerAddress;\r\n        address prevContract;\r\n        address nextContract;\r\n        bool isActive;\r\n    }\r\n    \r\n    /**\r\n     * @dev Structure of Service\r\n     * @notice Feature_V2 \r\n     */\r\n    struct Service {\r\n        bytes8 version;\r\n        bytes8 measureType;\r\n        bytes1 timeCode;\r\n        uint8 nbTime;\r\n        bool isActive;\r\n        string description;\r\n        address bridgeAddress;\r\n        address techMasterAddress;\r\n        address legislatorAddress;\r\n\r\n        Counters.Counter measureIdCounter;\r\n        Counters.Counter iotIdCounter;     \r\n    }\r\n\r\n    /**\r\n     * @dev Structure of AlertConfig\r\n     * @notice Feature_V2 \r\n     */\r\n    struct Rule {\r\n        bytes8 version;        \r\n        uint16 serviceId;\r\n        string description;   \r\n        address legislatorAddress;\r\n        uint64 dateOn;\r\n        uint64 dateOff;\r\n        bytes4 codeAlert;\r\n        bytes8 valueAlert;\r\n        bool isActive;\r\n\r\n        Counters.Counter alertIdCounter;         \r\n    }\r\n\r\n    /**\r\n     * @dev Structure of Iot\r\n     * @notice Feature_V2 \r\n     */\r\n    struct Iot {   \r\n        string description;\r\n        bool isActive;\r\n    }\r\n\r\n    modifier isContractActive() {\r\n        require(_myConfig.isActive, \"Contract off line\");\r\n        _;\r\n    }\r\n\r\n    modifier isServiceActive(uint _serviceId) {\r\n        require(_serviceId < _serviceIdCounter.current(), \"Service not exist\"); \r\n        require(_services[_serviceId].isActive, \"Service off line\"); \r\n        _;\r\n    }\r\n\r\n    modifier isRulesActive(uint _ruleId) {\r\n        require(_ruleId < _ruleIdCounter.current(), \"Rules not exist\"); \r\n        require(_serviceRules[_ruleId].isActive, \"Rules off line\"); \r\n        _;\r\n    }\r\n\r\n    modifier onlyCustomer() {\r\n        require (_myConfig.customerAddress == msg.sender || owner() ==  msg.sender, \"Access denied\");\r\n        _;\r\n    }\r\n\r\n    modifier onlyBridge(uint _serviceId) {\r\n        require (_services[_serviceId].bridgeAddress == msg.sender || owner() ==  msg.sender, \"Access denied\");\r\n        _;\r\n    }\r\n\r\n    modifier onlyTechMaster(uint _serviceId) {\r\n        require (_services[_serviceId].techMasterAddress == msg.sender || owner() ==  msg.sender, \"Access denied\");\r\n        _;\r\n    }\r\n\r\n    modifier onlyLegislator(uint _serviceId) {\r\n        require (_services[_serviceId].legislatorAddress == msg.sender || owner() ==  msg.sender, \"Access denied\");\r\n        _;\r\n    }\r\n\r\n    event ContractUpdate(string _message, address _author);      \r\n    \r\n    event ServiceUpdate(uint _serviceId, string _message, address _author);  \r\n    event ServiceRulesUpdate(uint _serviceId, uint _ruleId, string _message, address _author); \r\n    event ServiceIotUpdate(uint _serviceId, bytes6 _iotId, string _message, address _author); \r\n\r\n    event MeasureReceive(uint _serviceId, bytes32 _header, bytes32 _body, address _author); \r\n    event AlertReceive(uint _serviceId, uint _ruleId, bytes32 _alert, address _author);        \r\n\r\n    Config public _myConfig;\r\n\r\n    mapping(uint => Service) public _services;\r\n    Counters.Counter public _serviceIdCounter;\r\n\r\n    mapping(uint => mapping(bytes6 => Iot)) public _serviceIots;\r\n\r\n    mapping(uint => Rule) public _serviceRules;\r\n    Counters.Counter public _ruleIdCounter;\r\n\r\n    IECPToken private _ECPToken;\r\n\r\n    constructor (bytes8 _version, address _ledgerAddress, address _ecpTokenAddress, address _customerAddress, address _prevContract, uint64 _prevContractDate) {\r\n        _myConfig = Config(\r\n            _version,\r\n            _ledgerAddress,\r\n            _ecpTokenAddress,\r\n            _prevContractDate,\r\n            0,\r\n            _customerAddress,\r\n            _prevContract,\r\n            address(0),\r\n            true\r\n        );\r\n\r\n        _ECPToken = IECPToken(_ecpTokenAddress);\r\n    }\r\n  \r\n    /**\r\n     * @dev toggle a Contract activation or deactivation\r\n     */\r\n    function toggleContract()\r\n        onlyOwner() external {\r\n        emit ContractUpdate(\"Contract on/off\", msg.sender);\r\n        _myConfig.isActive = !_myConfig.isActive;\r\n    }    \r\n\r\n    // SERVICE PART\r\n\r\n     /**\r\n     * @dev add a Service\r\n     * @param _version bytes8 version of service\r\n     * @param _description string description for the dApps interface\r\n     * @param _measureType bytes8 type of measure for the dApps interface\r\n     * @param _timeCode bytes1 time code for the dApps interface\r\n     * @param _nbTime uint8 number of times for the dApps interface\r\n     */\r\n    function addService(\r\n        bytes8 _version,   \r\n        string memory _description,\r\n        bytes8 _measureType,          \r\n        bytes1 _timeCode,\r\n        uint8 _nbTime) \r\n        onlyCustomer() isContractActive() external{\r\n      \r\n        Counters.Counter memory measureIdCounter;       \r\n        Counters.Counter memory iotIdCounter;    \r\n\r\n        _services[_serviceIdCounter.current()] = Service(\r\n        _version, \r\n        _measureType,  \r\n        _timeCode,    \r\n        _nbTime,   \r\n        true,                     \r\n        _description, \r\n        address(0),\r\n        address(0),\r\n        address(0),                     \r\n        measureIdCounter,\r\n        iotIdCounter);\r\n\r\n        emit ServiceUpdate(_serviceIdCounter.current(), \"New service\", msg.sender); \r\n\r\n        _serviceIdCounter.increment();\r\n    }  \r\n\r\n    /**\r\n     * @dev toggle a Service activation or deactivation\r\n     * @param _serviceId index of service\r\n     */\r\n    function toggleService(\r\n        uint _serviceId)\r\n        onlyCustomer() external {\r\n\r\n        emit ServiceUpdate(_serviceId, \"Service on/off\", msg.sender);\r\n\r\n        _services[_serviceId].isActive = !_services[_serviceId].isActive;\r\n    }\r\n\r\n    /**\r\n     * @dev set a TechMasterAddress\r\n     * @param _serviceId index of service \r\n     * @param _techMasterAddress techMaster's address\r\n     */\r\n    function setTechMasterAddress(\r\n        uint _serviceId,\r\n        address _techMasterAddress)\r\n        isContractActive() isServiceActive(_serviceId) onlyOwner() external {  \r\n        \r\n        _services[_serviceId].techMasterAddress = _techMasterAddress;\r\n\r\n        emit ServiceUpdate(_serviceId, \"TechMaster Address update\", msg.sender);\r\n    }     \r\n\r\n    /**\r\n     * @dev set a LegislatorAddress\r\n     * @param _serviceId index of service \r\n     * @param _legislatorAddress legislator's address\r\n     */\r\n    function setLegislatorAddress(\r\n        uint _serviceId,\r\n        address _legislatorAddress)\r\n        isContractActive() isServiceActive(_serviceId) onlyCustomer() external {  \r\n        \r\n        _services[_serviceId].legislatorAddress = _legislatorAddress;\r\n\r\n        emit ServiceUpdate(_serviceId, \"Legislator Address update\", msg.sender);\r\n    }   \r\n\r\n    /**\r\n     * @dev set a BridgeAdress\r\n     * @param _serviceId index of service\r\n     * @param _bridgeAddress bridge's address\r\n     */\r\n    function setBridgeAddress(\r\n        uint _serviceId,\r\n        address _bridgeAddress)\r\n        isContractActive() isServiceActive(_serviceId) onlyTechMaster(_serviceId) external {  \r\n        \r\n        _services[_serviceId].bridgeAddress = _bridgeAddress;\r\n\r\n        emit ServiceUpdate(_serviceId, \"Bridge Address update\", msg.sender);\r\n    }     \r\n\r\n    // MEASURE PART\r\n\r\n    /**\r\n     * @dev add a Measure\r\n     * @param _serviceId index of service \r\n     * @param _measureHeader header of the measure\r\n     * @param _measurebody body of the measure\r\n     */\r\n    function addMeasure(\r\n        uint _serviceId,\r\n        bytes32 _measureHeader,\r\n        bytes32 _measurebody) \r\n        isContractActive() isServiceActive(_serviceId) onlyBridge(_serviceId) external {    \r\n\r\n        _ECPToken.transfer(_myConfig._ledgerAddress, 1);\r\n\r\n        _services[_serviceId].measureIdCounter.increment();\r\n\r\n        emit MeasureReceive(_serviceId, _measureHeader, _measurebody, msg.sender);\r\n    }\r\n\r\n    // ALERT CONFIG PART\r\n\r\n    /**\r\n     * @dev add a fondation's alert config\r\n     * @param _serviceId index of service \r\n     * @param _version service's version\r\n     * @param _description alert config description \r\n     * @param _dateOn alert's starting date\r\n     * @param _dateOff alert's ending date\r\n     * @param _codeAlert alert's code\r\n     * @param _valueAlert alert's value\r\n     */\r\n    function addRule(\r\n        bytes8 _version,   \r\n        uint16 _serviceId,        \r\n        string memory _description,  \r\n        uint64 _dateOn,\r\n        uint64 _dateOff,\r\n        bytes4 _codeAlert,\r\n        bytes8 _valueAlert)\r\n        isContractActive() isServiceActive(_serviceId) external {\r\n\r\n        require (_services[_serviceId].legislatorAddress == msg.sender \r\n        || _myConfig.customerAddress == msg.sender \r\n        || owner() ==  msg.sender, \"Access denied\");\r\n\r\n        Counters.Counter memory alertIdCounter;\r\n\r\n        _serviceRules[_ruleIdCounter.current()] = Rule(\r\n            _version,  \r\n            _serviceId,  \r\n            _description,      \r\n            msg.sender,\r\n            _dateOn,\r\n            _dateOff,\r\n            _codeAlert,\r\n            _valueAlert,\r\n            true,\r\n            alertIdCounter\r\n        );\r\n\r\n        emit ServiceRulesUpdate(_serviceId, _ruleIdCounter.current(), \"New rule\", msg.sender);\r\n\r\n        _ruleIdCounter.increment();\r\n    }\r\n\r\n    /**\r\n     * @dev toggle an alert config\r\n     * @param _ruleId index of the alert config\r\n     */\r\n    function toggleRule(uint _ruleId) \r\n        external {\r\n\r\n        require ((msg.sender == _serviceRules[_ruleId].legislatorAddress) || (msg.sender == owner()), \"Access denied\");\r\n\r\n        emit ServiceRulesUpdate(_serviceRules[_ruleId].serviceId, _ruleId, \"Rules on/off\", msg.sender);\r\n        \r\n        _serviceRules[_ruleId].isActive = !_serviceRules[_ruleId].isActive;\r\n    }       \r\n\r\n    // ALERTS PART\r\n\r\n    /**\r\n     * @dev add an alert\r\n     * @param _serviceId index of service \r\n     * @param _alertBody alert's body\r\n     */    \r\n    function addAlert(\r\n        uint _serviceId,\r\n        uint _ruleId,\r\n        bytes32 _alertBody) \r\n        isContractActive() isServiceActive(_serviceId) onlyBridge(_serviceId) external {         \r\n\r\n        _ECPToken.transfer(_myConfig._ledgerAddress, 1);\r\n\r\n        _serviceRules[_ruleId].alertIdCounter.increment();\r\n\r\n        emit AlertReceive(_serviceId, _ruleId, _alertBody, msg.sender);\r\n    }\r\n\r\n    // SERVICE IOT\r\n\r\n    /**\r\n     * @dev add a sensor to the list\r\n     * @param _serviceId index of service\r\n     * @param _macAddress sensor's mac address\r\n     * @param _description sensor's description\r\n     */      \r\n    function addIot(\r\n        uint _serviceId,\r\n        bytes6 _macAddress,\r\n        string memory _description) \r\n        isContractActive() isServiceActive(_serviceId) onlyTechMaster(_serviceId) external {  \r\n\r\n        _serviceIots[_serviceId][_macAddress] = Iot(\r\n            _description,      \r\n            true\r\n        );\r\n\r\n        emit ServiceIotUpdate(_serviceId, _macAddress, \"Iot added\", msg.sender); \r\n\r\n        _services[_serviceId].iotIdCounter.increment();   \r\n    }\r\n\r\n    /**\r\n     * @dev toggle a sensor activation or deactivation\r\n     * @param _serviceId index of service\r\n     * @param _macAddress index of sensor\r\n     */     \r\n    function toggleIOT(\r\n        uint _serviceId,\r\n        bytes6 _macAddress) \r\n        isContractActive() isServiceActive(_serviceId) onlyTechMaster(_serviceId) external { \r\n\r\n        emit ServiceIotUpdate(_serviceId, _macAddress, \"Iot on/off\", msg.sender);\r\n\r\n        _serviceIots[_serviceId][_macAddress].isActive = !_serviceIots[_serviceId][_macAddress].isActive;\r\n    }\r\n\r\n}\r\n",
  "sourcePath": "C:/Users/danie/Desktop/Solidity/Projet final/eco-capt/contracts/CustomerContract.sol",
  "compiler": {
    "name": "solc",
    "version": "0.8.0+commit.c7dfd78e.Emscripten.clang"
  },
  "schemaVersion": "3.3.4",
  "updatedAt": "2021-05-03T09:40:07.298Z",
  "networkType": "ethereum",
  "devdoc": {
    "kind": "dev",
    "methods": {
      "addAlert(uint256,uint256,bytes32)": {
        "details": "add an alert",
        "params": {
          "_alertBody": "alert's body",
          "_serviceId": "index of service "
        }
      },
      "addIot(uint256,bytes6,string)": {
        "details": "add a sensor to the list",
        "params": {
          "_description": "sensor's description",
          "_macAddress": "sensor's mac address",
          "_serviceId": "index of service"
        }
      },
      "addMeasure(uint256,bytes32,bytes32)": {
        "details": "add a Measure",
        "params": {
          "_measureHeader": "header of the measure",
          "_measurebody": "body of the measure",
          "_serviceId": "index of service "
        }
      },
      "addRule(bytes8,uint16,string,uint64,uint64,bytes4,bytes8)": {
        "details": "add a fondation's alert config",
        "params": {
          "_codeAlert": "alert's code",
          "_dateOff": "alert's ending date",
          "_dateOn": "alert's starting date",
          "_description": "alert config description ",
          "_serviceId": "index of service ",
          "_valueAlert": "alert's value",
          "_version": "service's version"
        }
      },
      "addService(bytes8,string,bytes8,bytes1,uint8)": {
        "details": "add a Service",
        "params": {
          "_description": "string description for the dApps interface",
          "_measureType": "bytes8 type of measure for the dApps interface",
          "_nbTime": "uint8 number of times for the dApps interface",
          "_timeCode": "bytes1 time code for the dApps interface",
          "_version": "bytes8 version of service"
        }
      },
      "owner()": {
        "details": "Returns the address of the current owner."
      },
      "renounceOwnership()": {
        "details": "Leaves the contract without owner. It will not be possible to call `onlyOwner` functions anymore. Can only be called by the current owner. NOTE: Renouncing ownership will leave the contract without an owner, thereby removing any functionality that is only available to the owner."
      },
      "setBridgeAddress(uint256,address)": {
        "details": "set a BridgeAdress",
        "params": {
          "_bridgeAddress": "bridge's address",
          "_serviceId": "index of service"
        }
      },
      "setLegislatorAddress(uint256,address)": {
        "details": "set a LegislatorAddress",
        "params": {
          "_legislatorAddress": "legislator's address",
          "_serviceId": "index of service "
        }
      },
      "setTechMasterAddress(uint256,address)": {
        "details": "set a TechMasterAddress",
        "params": {
          "_serviceId": "index of service ",
          "_techMasterAddress": "techMaster's address"
        }
      },
      "toggleContract()": {
        "details": "toggle a Contract activation or deactivation"
      },
      "toggleIOT(uint256,bytes6)": {
        "details": "toggle a sensor activation or deactivation",
        "params": {
          "_macAddress": "index of sensor",
          "_serviceId": "index of service"
        }
      },
      "toggleRule(uint256)": {
        "details": "toggle an alert config",
        "params": {
          "_ruleId": "index of the alert config"
        }
      },
      "toggleService(uint256)": {
        "details": "toggle a Service activation or deactivation",
        "params": {
          "_serviceId": "index of service"
        }
      },
      "transferOwnership(address)": {
        "details": "Transfers ownership of the contract to a new account (`newOwner`). Can only be called by the current owner."
      }
    },
    "version": 1
  },
  "userdoc": {
    "kind": "user",
    "methods": {},
    "version": 1
  }
}