{
  "contractName": "ECPToken",
  "abi": [
    {
      "inputs": [],
      "stateMutability": "nonpayable",
      "type": "constructor"
    },
    {
      "anonymous": false,
      "inputs": [
        {
          "indexed": true,
          "internalType": "address",
          "name": "owner",
          "type": "address"
        },
        {
          "indexed": true,
          "internalType": "address",
          "name": "spender",
          "type": "address"
        },
        {
          "indexed": false,
          "internalType": "uint256",
          "name": "value",
          "type": "uint256"
        }
      ],
      "name": "Approval",
      "type": "event"
    },
    {
      "anonymous": false,
      "inputs": [
        {
          "indexed": true,
          "internalType": "address",
          "name": "from",
          "type": "address"
        },
        {
          "indexed": true,
          "internalType": "address",
          "name": "to",
          "type": "address"
        },
        {
          "indexed": false,
          "internalType": "uint256",
          "name": "value",
          "type": "uint256"
        }
      ],
      "name": "Transfer",
      "type": "event"
    },
    {
      "inputs": [
        {
          "internalType": "address",
          "name": "owner",
          "type": "address"
        },
        {
          "internalType": "address",
          "name": "spender",
          "type": "address"
        }
      ],
      "name": "allowance",
      "outputs": [
        {
          "internalType": "uint256",
          "name": "",
          "type": "uint256"
        }
      ],
      "stateMutability": "view",
      "type": "function",
      "constant": true
    },
    {
      "inputs": [
        {
          "internalType": "address",
          "name": "spender",
          "type": "address"
        },
        {
          "internalType": "uint256",
          "name": "amount",
          "type": "uint256"
        }
      ],
      "name": "approve",
      "outputs": [
        {
          "internalType": "bool",
          "name": "",
          "type": "bool"
        }
      ],
      "stateMutability": "nonpayable",
      "type": "function"
    },
    {
      "inputs": [
        {
          "internalType": "address",
          "name": "account",
          "type": "address"
        }
      ],
      "name": "balanceOf",
      "outputs": [
        {
          "internalType": "uint256",
          "name": "",
          "type": "uint256"
        }
      ],
      "stateMutability": "view",
      "type": "function",
      "constant": true
    },
    {
      "inputs": [],
      "name": "decimals",
      "outputs": [
        {
          "internalType": "uint8",
          "name": "",
          "type": "uint8"
        }
      ],
      "stateMutability": "view",
      "type": "function",
      "constant": true
    },
    {
      "inputs": [
        {
          "internalType": "address",
          "name": "spender",
          "type": "address"
        },
        {
          "internalType": "uint256",
          "name": "subtractedValue",
          "type": "uint256"
        }
      ],
      "name": "decreaseAllowance",
      "outputs": [
        {
          "internalType": "bool",
          "name": "",
          "type": "bool"
        }
      ],
      "stateMutability": "nonpayable",
      "type": "function"
    },
    {
      "inputs": [
        {
          "internalType": "address",
          "name": "spender",
          "type": "address"
        },
        {
          "internalType": "uint256",
          "name": "addedValue",
          "type": "uint256"
        }
      ],
      "name": "increaseAllowance",
      "outputs": [
        {
          "internalType": "bool",
          "name": "",
          "type": "bool"
        }
      ],
      "stateMutability": "nonpayable",
      "type": "function"
    },
    {
      "inputs": [],
      "name": "ledger",
      "outputs": [
        {
          "internalType": "address",
          "name": "",
          "type": "address"
        }
      ],
      "stateMutability": "view",
      "type": "function",
      "constant": true
    },
    {
      "inputs": [],
      "name": "name",
      "outputs": [
        {
          "internalType": "string",
          "name": "",
          "type": "string"
        }
      ],
      "stateMutability": "view",
      "type": "function",
      "constant": true
    },
    {
      "inputs": [],
      "name": "owner",
      "outputs": [
        {
          "internalType": "address",
          "name": "",
          "type": "address"
        }
      ],
      "stateMutability": "view",
      "type": "function",
      "constant": true
    },
    {
      "inputs": [],
      "name": "symbol",
      "outputs": [
        {
          "internalType": "string",
          "name": "",
          "type": "string"
        }
      ],
      "stateMutability": "view",
      "type": "function",
      "constant": true
    },
    {
      "inputs": [],
      "name": "totalSupply",
      "outputs": [
        {
          "internalType": "uint256",
          "name": "",
          "type": "uint256"
        }
      ],
      "stateMutability": "view",
      "type": "function",
      "constant": true
    },
    {
      "inputs": [
        {
          "internalType": "address",
          "name": "recipient",
          "type": "address"
        },
        {
          "internalType": "uint256",
          "name": "amount",
          "type": "uint256"
        }
      ],
      "name": "transfer",
      "outputs": [
        {
          "internalType": "bool",
          "name": "",
          "type": "bool"
        }
      ],
      "stateMutability": "nonpayable",
      "type": "function"
    },
    {
      "inputs": [
        {
          "internalType": "address",
          "name": "sender",
          "type": "address"
        },
        {
          "internalType": "address",
          "name": "recipient",
          "type": "address"
        },
        {
          "internalType": "uint256",
          "name": "amount",
          "type": "uint256"
        }
      ],
      "name": "transferFrom",
      "outputs": [
        {
          "internalType": "bool",
          "name": "",
          "type": "bool"
        }
      ],
      "stateMutability": "nonpayable",
      "type": "function"
    },
    {
      "inputs": [
        {
          "internalType": "address",
          "name": "_ledger",
          "type": "address"
        }
      ],
      "name": "setLedgerAddress",
      "outputs": [],
      "stateMutability": "nonpayable",
      "type": "function"
    },
    {
      "inputs": [
        {
          "internalType": "address",
          "name": "_customerContract",
          "type": "address"
        },
        {
          "internalType": "uint256",
          "name": "amount",
          "type": "uint256"
        }
      ],
      "name": "ownerMint",
      "outputs": [
        {
          "internalType": "bool",
          "name": "",
          "type": "bool"
        }
      ],
      "stateMutability": "nonpayable",
      "type": "function"
    }
  ],
  "bytecode": "0x60806040523480156200001157600080fd5b506040518060400160405280600881526020017f45636f2d636170740000000000000000000000000000000000000000000000008152506040518060400160405280600381526020017f4543500000000000000000000000000000000000000000000000000000000000815250816003908051906020019062000096929190620000f9565b508060049080519060200190620000af929190620000f9565b50505033600560006101000a81548173ffffffffffffffffffffffffffffffffffffffff021916908373ffffffffffffffffffffffffffffffffffffffff1602179055506200020e565b8280546200010790620001a9565b90600052602060002090601f0160209004810192826200012b576000855562000177565b82601f106200014657805160ff191683800117855562000177565b8280016001018555821562000177579182015b828111156200017657825182559160200191906001019062000159565b5b5090506200018691906200018a565b5090565b5b80821115620001a55760008160009055506001016200018b565b5090565b60006002820490506001821680620001c257607f821691505b60208210811415620001d957620001d8620001df565b5b50919050565b7f4e487b7100000000000000000000000000000000000000000000000000000000600052602260045260246000fd5b6118b0806200021e6000396000f3fe608060405234801561001057600080fd5b50600436106100f55760003560e01c806356397c3511610097578063a457c2d711610066578063a457c2d71461029e578063a9059cbb146102ce578063ba891f5c146102fe578063dd62ed3e1461031a576100f5565b806356397c351461021457806370a08231146102325780638da5cb5b1461026257806395d89b4114610280576100f5565b806323b872dd116100d357806323b872dd14610166578063313ce5671461019657806339509351146101b4578063484b973c146101e4576100f5565b806306fdde03146100fa578063095ea7b31461011857806318160ddd14610148575b600080fd5b61010261034a565b60405161010f9190611505565b60405180910390f35b610132600480360381019061012d91906110d4565b6103dc565b60405161013f91906114ea565b60405180910390f35b6101506103fa565b60405161015d9190611647565b60405180910390f35b610180600480360381019061017b9190611085565b610404565b60405161018d91906114ea565b60405180910390f35b61019e610505565b6040516101ab9190611662565b60405180910390f35b6101ce60048036038101906101c991906110d4565b61050e565b6040516101db91906114ea565b60405180910390f35b6101fe60048036038101906101f991906110d4565b6105ba565b60405161020b91906114ea565b60405180910390f35b61021c6106b8565b60405161022991906114cf565b60405180910390f35b61024c60048036038101906102479190611020565b6106de565b6040516102599190611647565b60405180910390f35b61026a610726565b60405161027791906114cf565b60405180910390f35b61028861074c565b6040516102959190611505565b60405180910390f35b6102b860048036038101906102b391906110d4565b6107de565b6040516102c591906114ea565b60405180910390f35b6102e860048036038101906102e391906110d4565b6108d2565b6040516102f591906114ea565b60405180910390f35b61031860048036038101906103139190611020565b6108f0565b005b610334600480360381019061032f9190611049565b6109c4565b6040516103419190611647565b60405180910390f35b606060038054610359906117ab565b80601f0160208091040260200160405190810160405280929190818152602001828054610385906117ab565b80156103d25780601f106103a7576101008083540402835291602001916103d2565b820191906000526020600020905b8154815290600101906020018083116103b557829003601f168201915b5050505050905090565b60006103f06103e9610a4b565b8484610a53565b6001905092915050565b6000600254905090565b6000610411848484610c1e565b6000600160008673ffffffffffffffffffffffffffffffffffffffff1673ffffffffffffffffffffffffffffffffffffffff168152602001908152602001600020600061045c610a4b565b73ffffffffffffffffffffffffffffffffffffffff1673ffffffffffffffffffffffffffffffffffffffff168152602001908152602001600020549050828110156104dc576040517f08c379a00000000000000000000000000000000000000000000000000000000081526004016104d390611587565b60405180910390fd5b6104f9856104e8610a4b565b85846104f491906116ef565b610a53565b60019150509392505050565b60006012905090565b60006105b061051b610a4b565b848460016000610529610a4b565b73ffffffffffffffffffffffffffffffffffffffff1673ffffffffffffffffffffffffffffffffffffffff16815260200190815260200160002060008873ffffffffffffffffffffffffffffffffffffffff1673ffffffffffffffffffffffffffffffffffffffff168152602001908152602001600020546105ab9190611699565b610a53565b6001905092915050565b60003373ffffffffffffffffffffffffffffffffffffffff16600560009054906101000a900473ffffffffffffffffffffffffffffffffffffffff1673ffffffffffffffffffffffffffffffffffffffff16148061066557503373ffffffffffffffffffffffffffffffffffffffff16600660009054906101000a900473ffffffffffffffffffffffffffffffffffffffff1673ffffffffffffffffffffffffffffffffffffffff16145b6106a4576040517f08c379a000000000000000000000000000000000000000000000000000000000815260040161069b906115a7565b60405180910390fd5b6106ae8383610e9d565b6001905092915050565b600660009054906101000a900473ffffffffffffffffffffffffffffffffffffffff1681565b60008060008373ffffffffffffffffffffffffffffffffffffffff1673ffffffffffffffffffffffffffffffffffffffff168152602001908152602001600020549050919050565b600560009054906101000a900473ffffffffffffffffffffffffffffffffffffffff1681565b60606004805461075b906117ab565b80601f0160208091040260200160405190810160405280929190818152602001828054610787906117ab565b80156107d45780601f106107a9576101008083540402835291602001916107d4565b820191906000526020600020905b8154815290600101906020018083116107b757829003601f168201915b5050505050905090565b600080600160006107ed610a4b565b73ffffffffffffffffffffffffffffffffffffffff1673ffffffffffffffffffffffffffffffffffffffff16815260200190815260200160002060008573ffffffffffffffffffffffffffffffffffffffff1673ffffffffffffffffffffffffffffffffffffffff168152602001908152602001600020549050828110156108aa576040517f08c379a00000000000000000000000000000000000000000000000000000000081526004016108a190611607565b60405180910390fd5b6108c76108b5610a4b565b8585846108c291906116ef565b610a53565b600191505092915050565b60006108e66108df610a4b565b8484610c1e565b6001905092915050565b3373ffffffffffffffffffffffffffffffffffffffff16600560009054906101000a900473ffffffffffffffffffffffffffffffffffffffff1673ffffffffffffffffffffffffffffffffffffffff1614610980576040517f08c379a0000000000000000000000000000000000000000000000000000000008152600401610977906115a7565b60405180910390fd5b80600660006101000a81548173ffffffffffffffffffffffffffffffffffffffff021916908373ffffffffffffffffffffffffffffffffffffffff16021790555050565b6000600160008473ffffffffffffffffffffffffffffffffffffffff1673ffffffffffffffffffffffffffffffffffffffff16815260200190815260200160002060008373ffffffffffffffffffffffffffffffffffffffff1673ffffffffffffffffffffffffffffffffffffffff16815260200190815260200160002054905092915050565b600033905090565b600073ffffffffffffffffffffffffffffffffffffffff168373ffffffffffffffffffffffffffffffffffffffff161415610ac3576040517f08c379a0000000000000000000000000000000000000000000000000000000008152600401610aba906115e7565b60405180910390fd5b600073ffffffffffffffffffffffffffffffffffffffff168273ffffffffffffffffffffffffffffffffffffffff161415610b33576040517f08c379a0000000000000000000000000000000000000000000000000000000008152600401610b2a90611547565b60405180910390fd5b80600160008573ffffffffffffffffffffffffffffffffffffffff1673ffffffffffffffffffffffffffffffffffffffff16815260200190815260200160002060008473ffffffffffffffffffffffffffffffffffffffff1673ffffffffffffffffffffffffffffffffffffffff168152602001908152602001600020819055508173ffffffffffffffffffffffffffffffffffffffff168373ffffffffffffffffffffffffffffffffffffffff167f8c5be1e5ebec7d5bd14f71427d1e84f3dd0314c0f7b2291e5b200ac8c7c3b92583604051610c119190611647565b60405180910390a3505050565b600073ffffffffffffffffffffffffffffffffffffffff168373ffffffffffffffffffffffffffffffffffffffff161415610c8e576040517f08c379a0000000000000000000000000000000000000000000000000000000008152600401610c85906115c7565b60405180910390fd5b600073ffffffffffffffffffffffffffffffffffffffff168273ffffffffffffffffffffffffffffffffffffffff161415610cfe576040517f08c379a0000000000000000000000000000000000000000000000000000000008152600401610cf590611527565b60405180910390fd5b610d09838383610ff1565b60008060008573ffffffffffffffffffffffffffffffffffffffff1673ffffffffffffffffffffffffffffffffffffffff16815260200190815260200160002054905081811015610d8f576040517f08c379a0000000000000000000000000000000000000000000000000000000008152600401610d8690611567565b60405180910390fd5b8181610d9b91906116ef565b6000808673ffffffffffffffffffffffffffffffffffffffff1673ffffffffffffffffffffffffffffffffffffffff16815260200190815260200160002081905550816000808573ffffffffffffffffffffffffffffffffffffffff1673ffffffffffffffffffffffffffffffffffffffff1681526020019081526020016000206000828254610e2b9190611699565b925050819055508273ffffffffffffffffffffffffffffffffffffffff168473ffffffffffffffffffffffffffffffffffffffff167fddf252ad1be2c89b69c2b068fc378daa952ba7f163c4a11628f55a4df523b3ef84604051610e8f9190611647565b60405180910390a350505050565b600073ffffffffffffffffffffffffffffffffffffffff168273ffffffffffffffffffffffffffffffffffffffff161415610f0d576040517f08c379a0000000000000000000000000000000000000000000000000000000008152600401610f0490611627565b60405180910390fd5b610f1960008383610ff1565b8060026000828254610f2b9190611699565b92505081905550806000808473ffffffffffffffffffffffffffffffffffffffff1673ffffffffffffffffffffffffffffffffffffffff1681526020019081526020016000206000828254610f809190611699565b925050819055508173ffffffffffffffffffffffffffffffffffffffff16600073ffffffffffffffffffffffffffffffffffffffff167fddf252ad1be2c89b69c2b068fc378daa952ba7f163c4a11628f55a4df523b3ef83604051610fe59190611647565b60405180910390a35050565b505050565b6000813590506110058161184c565b92915050565b60008135905061101a81611863565b92915050565b60006020828403121561103257600080fd5b600061104084828501610ff6565b91505092915050565b6000806040838503121561105c57600080fd5b600061106a85828601610ff6565b925050602061107b85828601610ff6565b9150509250929050565b60008060006060848603121561109a57600080fd5b60006110a886828701610ff6565b93505060206110b986828701610ff6565b92505060406110ca8682870161100b565b9150509250925092565b600080604083850312156110e757600080fd5b60006110f585828601610ff6565b92505060206111068582860161100b565b9150509250929050565b61111981611723565b82525050565b61112881611735565b82525050565b60006111398261167d565b6111438185611688565b9350611153818560208601611778565b61115c8161183b565b840191505092915050565b6000611174602383611688565b91507f45524332303a207472616e7366657220746f20746865207a65726f206164647260008301527f65737300000000000000000000000000000000000000000000000000000000006020830152604082019050919050565b60006111da602283611688565b91507f45524332303a20617070726f766520746f20746865207a65726f20616464726560008301527f73730000000000000000000000000000000000000000000000000000000000006020830152604082019050919050565b6000611240602683611688565b91507f45524332303a207472616e7366657220616d6f756e742065786365656473206260008301527f616c616e636500000000000000000000000000000000000000000000000000006020830152604082019050919050565b60006112a6602883611688565b91507f45524332303a207472616e7366657220616d6f756e742065786365656473206160008301527f6c6c6f77616e63650000000000000000000000000000000000000000000000006020830152604082019050919050565b600061130c601283611688565b91507f416363657320546f6b656e2044656e69656400000000000000000000000000006000830152602082019050919050565b600061134c602583611688565b91507f45524332303a207472616e736665722066726f6d20746865207a65726f20616460008301527f64726573730000000000000000000000000000000000000000000000000000006020830152604082019050919050565b60006113b2602483611688565b91507f45524332303a20617070726f76652066726f6d20746865207a65726f2061646460008301527f72657373000000000000000000000000000000000000000000000000000000006020830152604082019050919050565b6000611418602583611688565b91507f45524332303a2064656372656173656420616c6c6f77616e63652062656c6f7760008301527f207a65726f0000000000000000000000000000000000000000000000000000006020830152604082019050919050565b600061147e601f83611688565b91507f45524332303a206d696e7420746f20746865207a65726f2061646472657373006000830152602082019050919050565b6114ba81611761565b82525050565b6114c98161176b565b82525050565b60006020820190506114e46000830184611110565b92915050565b60006020820190506114ff600083018461111f565b92915050565b6000602082019050818103600083015261151f818461112e565b905092915050565b6000602082019050818103600083015261154081611167565b9050919050565b60006020820190508181036000830152611560816111cd565b9050919050565b6000602082019050818103600083015261158081611233565b9050919050565b600060208201905081810360008301526115a081611299565b9050919050565b600060208201905081810360008301526115c0816112ff565b9050919050565b600060208201905081810360008301526115e08161133f565b9050919050565b60006020820190508181036000830152611600816113a5565b9050919050565b600060208201905081810360008301526116208161140b565b9050919050565b6000602082019050818103600083015261164081611471565b9050919050565b600060208201905061165c60008301846114b1565b92915050565b600060208201905061167760008301846114c0565b92915050565b600081519050919050565b600082825260208201905092915050565b60006116a482611761565b91506116af83611761565b9250827fffffffffffffffffffffffffffffffffffffffffffffffffffffffffffffffff038211156116e4576116e36117dd565b5b828201905092915050565b60006116fa82611761565b915061170583611761565b925082821015611718576117176117dd565b5b828203905092915050565b600061172e82611741565b9050919050565b60008115159050919050565b600073ffffffffffffffffffffffffffffffffffffffff82169050919050565b6000819050919050565b600060ff82169050919050565b60005b8381101561179657808201518184015260208101905061177b565b838111156117a5576000848401525b50505050565b600060028204905060018216806117c357607f821691505b602082108114156117d7576117d661180c565b5b50919050565b7f4e487b7100000000000000000000000000000000000000000000000000000000600052601160045260246000fd5b7f4e487b7100000000000000000000000000000000000000000000000000000000600052602260045260246000fd5b6000601f19601f8301169050919050565b61185581611723565b811461186057600080fd5b50565b61186c81611761565b811461187757600080fd5b5056fea2646970667358221220f39e4bc0911552cc3d61f0a42123cc9841b541f350446fbfc3dc4cccabbc32ac64736f6c63430008000033",
  "immutableReferences": {},
  "source": "// SPDX-License-Identifier: MIT\r\npragma solidity 0.8.0;\r\n \r\nimport \"../node_modules/@openZeppelin/contracts/token/ERC20/ERC20.sol\";\r\n\r\ncontract ECPToken is ERC20 {\r\n\r\n    address public owner;\r\n    address public ledger;\r\n\r\n    modifier onlyOwner() {\r\n        require(owner == msg.sender, \"Acces Token Denied\");\r\n        _;\r\n    }\r\n\r\n    modifier onlyLedger() {\r\n        require((owner == msg.sender || ledger == msg.sender), \"Acces Token Denied\");\r\n        _;\r\n    }\r\n\r\n    constructor() ERC20(\"Eco-capt\", \"ECP\") {\r\n        owner = msg.sender;\r\n    }\r\n\r\n    function setLedgerAddress ( \r\n        address _ledger)\r\n        onlyOwner() external{\r\n        ledger=_ledger;\r\n    }\r\n    \r\n    function ownerMint ( \r\n        address _customerContract,\r\n        uint amount)\r\n        onlyLedger() external returns (bool){\r\n  \r\n        _mint(_customerContract, amount);\r\n        return true;\r\n    }\r\n\r\n}",
  "sourcePath": "C:/Users/danie/Desktop/Solidity/Projet final/eco-capt/contracts/ECPToken.sol",
  "compiler": {
    "name": "solc",
    "version": "0.8.0+commit.c7dfd78e.Emscripten.clang"
  },
  "schemaVersion": "3.3.4",
  "updatedAt": "2021-04-26T23:00:25.150Z",
  "networkType": "ethereum",
  "devdoc": {
    "kind": "dev",
    "methods": {
      "allowance(address,address)": {
        "details": "See {IERC20-allowance}."
      },
      "approve(address,uint256)": {
        "details": "See {IERC20-approve}. Requirements: - `spender` cannot be the zero address."
      },
      "balanceOf(address)": {
        "details": "See {IERC20-balanceOf}."
      },
      "decimals()": {
        "details": "Returns the number of decimals used to get its user representation. For example, if `decimals` equals `2`, a balance of `505` tokens should be displayed to a user as `5,05` (`505 / 10 ** 2`). Tokens usually opt for a value of 18, imitating the relationship between Ether and Wei. This is the value {ERC20} uses, unless this function is overloaded; NOTE: This information is only used for _display_ purposes: it in no way affects any of the arithmetic of the contract, including {IERC20-balanceOf} and {IERC20-transfer}."
      },
      "decreaseAllowance(address,uint256)": {
        "details": "Atomically decreases the allowance granted to `spender` by the caller. This is an alternative to {approve} that can be used as a mitigation for problems described in {IERC20-approve}. Emits an {Approval} event indicating the updated allowance. Requirements: - `spender` cannot be the zero address. - `spender` must have allowance for the caller of at least `subtractedValue`."
      },
      "increaseAllowance(address,uint256)": {
        "details": "Atomically increases the allowance granted to `spender` by the caller. This is an alternative to {approve} that can be used as a mitigation for problems described in {IERC20-approve}. Emits an {Approval} event indicating the updated allowance. Requirements: - `spender` cannot be the zero address."
      },
      "name()": {
        "details": "Returns the name of the token."
      },
      "symbol()": {
        "details": "Returns the symbol of the token, usually a shorter version of the name."
      },
      "totalSupply()": {
        "details": "See {IERC20-totalSupply}."
      },
      "transfer(address,uint256)": {
        "details": "See {IERC20-transfer}. Requirements: - `recipient` cannot be the zero address. - the caller must have a balance of at least `amount`."
      },
      "transferFrom(address,address,uint256)": {
        "details": "See {IERC20-transferFrom}. Emits an {Approval} event indicating the updated allowance. This is not required by the EIP. See the note at the beginning of {ERC20}. Requirements: - `sender` and `recipient` cannot be the zero address. - `sender` must have a balance of at least `amount`. - the caller must have allowance for ``sender``'s tokens of at least `amount`."
      }
    },
    "version": 1
  },
  "userdoc": {
    "kind": "user",
    "methods": {},
    "version": 1
  }
}