{
  "contractName": "LedgerContract",
  "abi": [
    {
      "anonymous": false,
      "inputs": [
        {
          "indexed": false,
          "internalType": "string",
          "name": "_message",
          "type": "string"
        },
        {
          "indexed": false,
          "internalType": "address",
          "name": "_target",
          "type": "address"
        },
        {
          "indexed": false,
          "internalType": "address",
          "name": "_author",
          "type": "address"
        }
      ],
      "name": "LedgerUpdate",
      "type": "event"
    },
    {
      "anonymous": false,
      "inputs": [
        {
          "indexed": true,
          "internalType": "address",
          "name": "previousOwner",
          "type": "address"
        },
        {
          "indexed": true,
          "internalType": "address",
          "name": "newOwner",
          "type": "address"
        }
      ],
      "name": "OwnershipTransferred",
      "type": "event"
    },
    {
      "anonymous": false,
      "inputs": [
        {
          "indexed": false,
          "internalType": "string",
          "name": "_message",
          "type": "string"
        },
        {
          "indexed": false,
          "internalType": "bytes8",
          "name": "_target",
          "type": "bytes8"
        },
        {
          "indexed": false,
          "internalType": "address",
          "name": "_author",
          "type": "address"
        }
      ],
      "name": "TypeMeasureUpdate",
      "type": "event"
    },
    {
      "inputs": [
        {
          "internalType": "address",
          "name": "",
          "type": "address"
        }
      ],
      "name": "_bridges",
      "outputs": [
        {
          "internalType": "string",
          "name": "description",
          "type": "string"
        },
        {
          "internalType": "string",
          "name": "url",
          "type": "string"
        },
        {
          "internalType": "string",
          "name": "info",
          "type": "string"
        },
        {
          "internalType": "address",
          "name": "techMasterAddress",
          "type": "address"
        },
        {
          "internalType": "bool",
          "name": "isActive",
          "type": "bool"
        },
        {
          "internalType": "bool",
          "name": "exist",
          "type": "bool"
        }
      ],
      "stateMutability": "view",
      "type": "function",
      "constant": true
    },
    {
      "inputs": [
        {
          "internalType": "address",
          "name": "",
          "type": "address"
        }
      ],
      "name": "_customers",
      "outputs": [
        {
          "internalType": "string",
          "name": "description",
          "type": "string"
        },
        {
          "internalType": "address",
          "name": "contractAddress",
          "type": "address"
        },
        {
          "internalType": "uint256",
          "name": "siretNumber",
          "type": "uint256"
        },
        {
          "internalType": "bool",
          "name": "isActive",
          "type": "bool"
        },
        {
          "internalType": "bool",
          "name": "exist",
          "type": "bool"
        }
      ],
      "stateMutability": "view",
      "type": "function",
      "constant": true
    },
    {
      "inputs": [
        {
          "internalType": "address",
          "name": "",
          "type": "address"
        }
      ],
      "name": "_legislators",
      "outputs": [
        {
          "internalType": "string",
          "name": "description",
          "type": "string"
        },
        {
          "internalType": "uint256",
          "name": "siretNumber",
          "type": "uint256"
        },
        {
          "internalType": "bool",
          "name": "isActive",
          "type": "bool"
        },
        {
          "internalType": "bool",
          "name": "exist",
          "type": "bool"
        }
      ],
      "stateMutability": "view",
      "type": "function",
      "constant": true
    },
    {
      "inputs": [
        {
          "internalType": "address",
          "name": "",
          "type": "address"
        }
      ],
      "name": "_techMasters",
      "outputs": [
        {
          "internalType": "string",
          "name": "description",
          "type": "string"
        },
        {
          "internalType": "uint256",
          "name": "siretNumber",
          "type": "uint256"
        },
        {
          "internalType": "bool",
          "name": "isActive",
          "type": "bool"
        },
        {
          "internalType": "bool",
          "name": "exist",
          "type": "bool"
        }
      ],
      "stateMutability": "view",
      "type": "function",
      "constant": true
    },
    {
      "inputs": [
        {
          "internalType": "bytes8",
          "name": "",
          "type": "bytes8"
        }
      ],
      "name": "_typeMeasures",
      "outputs": [
        {
          "internalType": "string",
          "name": "description",
          "type": "string"
        },
        {
          "internalType": "string",
          "name": "info",
          "type": "string"
        },
        {
          "internalType": "bool",
          "name": "isActive",
          "type": "bool"
        },
        {
          "internalType": "bool",
          "name": "isAllowed",
          "type": "bool"
        },
        {
          "internalType": "bool",
          "name": "exist",
          "type": "bool"
        }
      ],
      "stateMutability": "view",
      "type": "function",
      "constant": true
    },
    {
      "inputs": [],
      "name": "owner",
      "outputs": [
        {
          "internalType": "address",
          "name": "",
          "type": "address"
        }
      ],
      "stateMutability": "view",
      "type": "function",
      "constant": true
    },
    {
      "inputs": [],
      "name": "renounceOwnership",
      "outputs": [],
      "stateMutability": "nonpayable",
      "type": "function"
    },
    {
      "inputs": [
        {
          "internalType": "address",
          "name": "newOwner",
          "type": "address"
        }
      ],
      "name": "transferOwnership",
      "outputs": [],
      "stateMutability": "nonpayable",
      "type": "function"
    },
    {
      "inputs": [
        {
          "internalType": "string",
          "name": "_description",
          "type": "string"
        },
        {
          "internalType": "address",
          "name": "_customerAddress",
          "type": "address"
        },
        {
          "internalType": "address",
          "name": "_contractAddress",
          "type": "address"
        },
        {
          "internalType": "uint256",
          "name": "_siretNumber",
          "type": "uint256"
        },
        {
          "internalType": "bool",
          "name": "_isActive",
          "type": "bool"
        }
      ],
      "name": "setCustomer",
      "outputs": [],
      "stateMutability": "nonpayable",
      "type": "function"
    },
    {
      "inputs": [
        {
          "internalType": "string",
          "name": "_description",
          "type": "string"
        },
        {
          "internalType": "address",
          "name": "_legislatorAddress",
          "type": "address"
        },
        {
          "internalType": "uint256",
          "name": "_siretNumber",
          "type": "uint256"
        },
        {
          "internalType": "bool",
          "name": "_isActive",
          "type": "bool"
        }
      ],
      "name": "setLegislator",
      "outputs": [],
      "stateMutability": "nonpayable",
      "type": "function"
    },
    {
      "inputs": [
        {
          "internalType": "string",
          "name": "_description",
          "type": "string"
        },
        {
          "internalType": "address",
          "name": "_techMasterAddress",
          "type": "address"
        },
        {
          "internalType": "uint256",
          "name": "_siretNumber",
          "type": "uint256"
        },
        {
          "internalType": "bool",
          "name": "_isActive",
          "type": "bool"
        }
      ],
      "name": "setTechMaster",
      "outputs": [],
      "stateMutability": "nonpayable",
      "type": "function"
    },
    {
      "inputs": [
        {
          "internalType": "string",
          "name": "_description",
          "type": "string"
        },
        {
          "internalType": "string",
          "name": "_url",
          "type": "string"
        },
        {
          "internalType": "string",
          "name": "_info",
          "type": "string"
        },
        {
          "internalType": "address",
          "name": "_bridgeAddress",
          "type": "address"
        },
        {
          "internalType": "address",
          "name": "_techMasterAddress",
          "type": "address"
        },
        {
          "internalType": "bool",
          "name": "_isActive",
          "type": "bool"
        }
      ],
      "name": "setBridge",
      "outputs": [],
      "stateMutability": "nonpayable",
      "type": "function"
    },
    {
      "inputs": [
        {
          "internalType": "string",
          "name": "_description",
          "type": "string"
        },
        {
          "internalType": "string",
          "name": "_info",
          "type": "string"
        },
        {
          "internalType": "bytes8",
          "name": "_codeMeasure",
          "type": "bytes8"
        },
        {
          "internalType": "bool",
          "name": "_isActive",
          "type": "bool"
        },
        {
          "internalType": "bool",
          "name": "_isAllowed",
          "type": "bool"
        }
      ],
      "name": "setTypeMeasure",
      "outputs": [],
      "stateMutability": "nonpayable",
      "type": "function"
    },
    {
      "inputs": [],
      "name": "rootingApps",
      "outputs": [
        {
          "internalType": "uint256",
          "name": "_myTypeUser",
          "type": "uint256"
        }
      ],
      "stateMutability": "view",
      "type": "function",
      "constant": true
    }
  ],
  "bytecode": "0x608060405234801561001057600080fd5b5060006100216100c460201b60201c565b9050806000806101000a81548173ffffffffffffffffffffffffffffffffffffffff021916908373ffffffffffffffffffffffffffffffffffffffff1602179055508073ffffffffffffffffffffffffffffffffffffffff16600073ffffffffffffffffffffffffffffffffffffffff167f8be0079c531659141344cd1fd0a4f28419497f9722a3daafe3b4186f6b6457e060405160405180910390a3506100cc565b600033905090565b6129cd806100db6000396000f3fe608060405234801561001057600080fd5b50600436106100ea5760003560e01c8063b8c500e51161008c578063e20cd95111610066578063e20cd95114610241578063e69427601461025d578063e738d19914610291578063f2fde38b146102c4576100ea565b8063b8c500e5146101ba578063c29f7ba3146101ef578063ca588b0f14610223576100ea565b8063715018a6116100c8578063715018a6146101435780638da5cb5b1461014d5780639e53c8911461016b578063b54251b514610187576100ea565b80631503b19f146100ef57806358d867461461010b5780635e42705a14610127575b600080fd5b61010960048036038101906101049190611d2e565b6102e0565b005b61012560048036038101906101209190611e50565b6104fd565b005b610141600480360381019061013c9190611c9f565b610950565b005b61014b610bd1565b005b610155610d0b565b60405161016291906122fc565b60405180910390f35b61018560048036038101906101809190611da9565b610d34565b005b6101a1600480360381019061019c9190611c4d565b610fa1565b6040516101b19493929190612448565b60405180910390f35b6101d460048036038101906101cf9190611c4d565b611073565b6040516101e6969594939291906123d2565b60405180910390f35b61020960048036038101906102049190611c4d565b611281565b60405161021a959493929190612317565b60405180910390f35b61022b611379565b604051610238919061274c565b60405180910390f35b61025b60048036038101906102569190611d2e565b6114e1565b005b61027760048036038101906102729190611c76565b6116fe565b604051610288959493929190612371565b60405180910390f35b6102ab60048036038101906102a69190611c4d565b61186b565b6040516102bb9493929190612448565b60405180910390f35b6102de60048036038101906102d99190611c4d565b61193d565b005b6102e8611ae6565b73ffffffffffffffffffffffffffffffffffffffff16610306610d0b565b73ffffffffffffffffffffffffffffffffffffffff161461035c576040517f08c379a00000000000000000000000000000000000000000000000000000000081526004016103539061261c565b60405180910390fd5b600360008473ffffffffffffffffffffffffffffffffffffffff1673ffffffffffffffffffffffffffffffffffffffff16815260200190815260200160002060020160019054906101000a900460ff166103ee577fbf4ae51d8c0eda5cf0cccfde45fa35ea3a741a7f35b5f3d24dd2196b6eaab82883336040516103e192919061252c565b60405180910390a1610428565b7fbf4ae51d8c0eda5cf0cccfde45fa35ea3a741a7f35b5f3d24dd2196b6eaab828833360405161041f9291906124d0565b60405180910390a15b6040518060800160405280858152602001838152602001821515815260200160011515815250600360008573ffffffffffffffffffffffffffffffffffffffff1673ffffffffffffffffffffffffffffffffffffffff16815260200190815260200160002060008201518160000190805190602001906104a9929190611aee565b506020820151816001015560408201518160020160006101000a81548160ff02191690831515021790555060608201518160020160016101000a81548160ff02191690831515021790555090505050505050565b600360003373ffffffffffffffffffffffffffffffffffffffff1673ffffffffffffffffffffffffffffffffffffffff16815260200190815260200160002060020160019054906101000a900460ff168061058a57503373ffffffffffffffffffffffffffffffffffffffff16610572610d0b565b73ffffffffffffffffffffffffffffffffffffffff16145b6105c9576040517f08c379a00000000000000000000000000000000000000000000000000000000081526004016105c09061272c565b60405180910390fd5b600460008473ffffffffffffffffffffffffffffffffffffffff1673ffffffffffffffffffffffffffffffffffffffff16815260200190815260200160002060030160159054906101000a900460ff1661065b577fbf4ae51d8c0eda5cf0cccfde45fa35ea3a741a7f35b5f3d24dd2196b6eaab828833360405161064e9291906126b4565b60405180910390a16107a2565b3373ffffffffffffffffffffffffffffffffffffffff16600460008573ffffffffffffffffffffffffffffffffffffffff1673ffffffffffffffffffffffffffffffffffffffff16815260200190815260200160002060030160009054906101000a900473ffffffffffffffffffffffffffffffffffffffff1673ffffffffffffffffffffffffffffffffffffffff16148061072957503373ffffffffffffffffffffffffffffffffffffffff16610711610d0b565b73ffffffffffffffffffffffffffffffffffffffff16145b610768576040517f08c379a000000000000000000000000000000000000000000000000000000000815260040161075f9061272c565b60405180910390fd5b7fbf4ae51d8c0eda5cf0cccfde45fa35ea3a741a7f35b5f3d24dd2196b6eaab8288333604051610799929190612568565b60405180910390a15b3373ffffffffffffffffffffffffffffffffffffffff166107c1610d0b565b73ffffffffffffffffffffffffffffffffffffffff16146107e0573391505b6040518060c001604052808781526020018681526020018581526020018373ffffffffffffffffffffffffffffffffffffffff168152602001821515815260200160011515815250600460008573ffffffffffffffffffffffffffffffffffffffff1673ffffffffffffffffffffffffffffffffffffffff1681526020019081526020016000206000820151816000019080519060200190610883929190611aee565b5060208201518160010190805190602001906108a0929190611aee565b5060408201518160020190805190602001906108bd929190611aee565b5060608201518160030160006101000a81548173ffffffffffffffffffffffffffffffffffffffff021916908373ffffffffffffffffffffffffffffffffffffffff16021790555060808201518160030160146101000a81548160ff02191690831515021790555060a08201518160030160156101000a81548160ff021916908315150217905550905050505050505050565b610958611ae6565b73ffffffffffffffffffffffffffffffffffffffff16610976610d0b565b73ffffffffffffffffffffffffffffffffffffffff16146109cc576040517f08c379a00000000000000000000000000000000000000000000000000000000081526004016109c39061261c565b60405180910390fd5b600160008573ffffffffffffffffffffffffffffffffffffffff1673ffffffffffffffffffffffffffffffffffffffff16815260200190815260200160002060030160019054906101000a900460ff16610a5e577fbf4ae51d8c0eda5cf0cccfde45fa35ea3a741a7f35b5f3d24dd2196b6eaab8288433604051610a519291906126f0565b60405180910390a1610a98565b7fbf4ae51d8c0eda5cf0cccfde45fa35ea3a741a7f35b5f3d24dd2196b6eaab8288433604051610a8f92919061263c565b60405180910390a15b6040518060a001604052808681526020018473ffffffffffffffffffffffffffffffffffffffff168152602001838152602001821515815260200160011515815250600160008673ffffffffffffffffffffffffffffffffffffffff1673ffffffffffffffffffffffffffffffffffffffff1681526020019081526020016000206000820151816000019080519060200190610b35929190611aee565b5060208201518160010160006101000a81548173ffffffffffffffffffffffffffffffffffffffff021916908373ffffffffffffffffffffffffffffffffffffffff1602179055506040820151816002015560608201518160030160006101000a81548160ff02191690831515021790555060808201518160030160016101000a81548160ff0219169083151502179055509050505050505050565b610bd9611ae6565b73ffffffffffffffffffffffffffffffffffffffff16610bf7610d0b565b73ffffffffffffffffffffffffffffffffffffffff1614610c4d576040517f08c379a0000000000000000000000000000000000000000000000000000000008152600401610c449061261c565b60405180910390fd5b600073ffffffffffffffffffffffffffffffffffffffff1660008054906101000a900473ffffffffffffffffffffffffffffffffffffffff1673ffffffffffffffffffffffffffffffffffffffff167f8be0079c531659141344cd1fd0a4f28419497f9722a3daafe3b4186f6b6457e060405160405180910390a360008060006101000a81548173ffffffffffffffffffffffffffffffffffffffff021916908373ffffffffffffffffffffffffffffffffffffffff160217905550565b60008060009054906101000a900473ffffffffffffffffffffffffffffffffffffffff16905090565b610d3c611ae6565b73ffffffffffffffffffffffffffffffffffffffff16610d5a610d0b565b73ffffffffffffffffffffffffffffffffffffffff1614610db0576040517f08c379a0000000000000000000000000000000000000000000000000000000008152600401610da79061261c565b60405180910390fd5b600560008477ffffffffffffffffffffffffffffffffffffffffffffffff191677ffffffffffffffffffffffffffffffffffffffffffffffff1916815260200190815260200160002060020160029054906101000a900460ff16610e4c577ffd28b00c124636c5ca6e4dcc21b05bb735fe07af43e9c2cd98c4aa673a7063508333604051610e3f929190612678565b60405180910390a1610e86565b7ffd28b00c124636c5ca6e4dcc21b05bb735fe07af43e9c2cd98c4aa673a7063508333604051610e7d9291906125a4565b60405180910390a15b6040518060a001604052808681526020018581526020018315158152602001821515815260200160011515815250600560008577ffffffffffffffffffffffffffffffffffffffffffffffff191677ffffffffffffffffffffffffffffffffffffffffffffffff191681526020019081526020016000206000820151816000019080519060200190610f19929190611aee565b506020820151816001019080519060200190610f36929190611aee565b5060408201518160020160006101000a81548160ff02191690831515021790555060608201518160020160016101000a81548160ff02191690831515021790555060808201518160020160026101000a81548160ff0219169083151502179055509050505050505050565b6002602052806000526040600020600091509050806000018054610fc49061289a565b80601f0160208091040260200160405190810160405280929190818152602001828054610ff09061289a565b801561103d5780601f106110125761010080835404028352916020019161103d565b820191906000526020600020905b81548152906001019060200180831161102057829003601f168201915b5050505050908060010154908060020160009054906101000a900460ff16908060020160019054906101000a900460ff16905084565b60046020528060005260406000206000915090508060000180546110969061289a565b80601f01602080910402602001604051908101604052809291908181526020018280546110c29061289a565b801561110f5780601f106110e45761010080835404028352916020019161110f565b820191906000526020600020905b8154815290600101906020018083116110f257829003601f168201915b5050505050908060010180546111249061289a565b80601f01602080910402602001604051908101604052809291908181526020018280546111509061289a565b801561119d5780601f106111725761010080835404028352916020019161119d565b820191906000526020600020905b81548152906001019060200180831161118057829003601f168201915b5050505050908060020180546111b29061289a565b80601f01602080910402602001604051908101604052809291908181526020018280546111de9061289a565b801561122b5780601f106112005761010080835404028352916020019161122b565b820191906000526020600020905b81548152906001019060200180831161120e57829003601f168201915b5050505050908060030160009054906101000a900473ffffffffffffffffffffffffffffffffffffffff16908060030160149054906101000a900460ff16908060030160159054906101000a900460ff16905086565b60016020528060005260406000206000915090508060000180546112a49061289a565b80601f01602080910402602001604051908101604052809291908181526020018280546112d09061289a565b801561131d5780601f106112f25761010080835404028352916020019161131d565b820191906000526020600020905b81548152906001019060200180831161130057829003601f168201915b5050505050908060010160009054906101000a900473ffffffffffffffffffffffffffffffffffffffff16908060020154908060030160009054906101000a900460ff16908060030160019054906101000a900460ff16905085565b6000611383610d0b565b73ffffffffffffffffffffffffffffffffffffffff163373ffffffffffffffffffffffffffffffffffffffff1614156113bf57600190506114de565b600160003373ffffffffffffffffffffffffffffffffffffffff1673ffffffffffffffffffffffffffffffffffffffff16815260200190815260200160002060030160019054906101000a900460ff161561141d57600290506114de565b600260003373ffffffffffffffffffffffffffffffffffffffff1673ffffffffffffffffffffffffffffffffffffffff16815260200190815260200160002060020160019054906101000a900460ff161561147b57600390506114de565b600360003373ffffffffffffffffffffffffffffffffffffffff1673ffffffffffffffffffffffffffffffffffffffff16815260200190815260200160002060020160019054906101000a900460ff16156114d957600490506114de565b600590505b90565b6114e9611ae6565b73ffffffffffffffffffffffffffffffffffffffff16611507610d0b565b73ffffffffffffffffffffffffffffffffffffffff161461155d576040517f08c379a00000000000000000000000000000000000000000000000000000000081526004016115549061261c565b60405180910390fd5b600260008473ffffffffffffffffffffffffffffffffffffffff1673ffffffffffffffffffffffffffffffffffffffff16815260200190815260200160002060020160019054906101000a900460ff166115ef577fbf4ae51d8c0eda5cf0cccfde45fa35ea3a741a7f35b5f3d24dd2196b6eaab82883336040516115e29291906125e0565b60405180910390a1611629565b7fbf4ae51d8c0eda5cf0cccfde45fa35ea3a741a7f35b5f3d24dd2196b6eaab8288333604051611620929190612494565b60405180910390a15b6040518060800160405280858152602001838152602001821515815260200160011515815250600260008573ffffffffffffffffffffffffffffffffffffffff1673ffffffffffffffffffffffffffffffffffffffff16815260200190815260200160002060008201518160000190805190602001906116aa929190611aee565b506020820151816001015560408201518160020160006101000a81548160ff02191690831515021790555060608201518160020160016101000a81548160ff02191690831515021790555090505050505050565b60056020528060005260406000206000915090508060000180546117219061289a565b80601f016020809104026020016040519081016040528092919081815260200182805461174d9061289a565b801561179a5780601f1061176f5761010080835404028352916020019161179a565b820191906000526020600020905b81548152906001019060200180831161177d57829003601f168201915b5050505050908060010180546117af9061289a565b80601f01602080910402602001604051908101604052809291908181526020018280546117db9061289a565b80156118285780601f106117fd57610100808354040283529160200191611828565b820191906000526020600020905b81548152906001019060200180831161180b57829003601f168201915b5050505050908060020160009054906101000a900460ff16908060020160019054906101000a900460ff16908060020160029054906101000a900460ff16905085565b600360205280600052604060002060009150905080600001805461188e9061289a565b80601f01602080910402602001604051908101604052809291908181526020018280546118ba9061289a565b80156119075780601f106118dc57610100808354040283529160200191611907565b820191906000526020600020905b8154815290600101906020018083116118ea57829003601f168201915b5050505050908060010154908060020160009054906101000a900460ff16908060020160019054906101000a900460ff16905084565b611945611ae6565b73ffffffffffffffffffffffffffffffffffffffff16611963610d0b565b73ffffffffffffffffffffffffffffffffffffffff16146119b9576040517f08c379a00000000000000000000000000000000000000000000000000000000081526004016119b09061261c565b60405180910390fd5b600073ffffffffffffffffffffffffffffffffffffffff168173ffffffffffffffffffffffffffffffffffffffff161415611a29576040517f08c379a0000000000000000000000000000000000000000000000000000000008152600401611a209061250c565b60405180910390fd5b8073ffffffffffffffffffffffffffffffffffffffff1660008054906101000a900473ffffffffffffffffffffffffffffffffffffffff1673ffffffffffffffffffffffffffffffffffffffff167f8be0079c531659141344cd1fd0a4f28419497f9722a3daafe3b4186f6b6457e060405160405180910390a3806000806101000a81548173ffffffffffffffffffffffffffffffffffffffff021916908373ffffffffffffffffffffffffffffffffffffffff16021790555050565b600033905090565b828054611afa9061289a565b90600052602060002090601f016020900481019282611b1c5760008555611b63565b82601f10611b3557805160ff1916838001178555611b63565b82800160010185558215611b63579182015b82811115611b62578251825591602001919060010190611b47565b5b509050611b709190611b74565b5090565b5b80821115611b8d576000816000905550600101611b75565b5090565b6000611ba4611b9f84612798565b612767565b905082815260208101848484011115611bbc57600080fd5b611bc7848285612858565b509392505050565b600081359050611bde8161293b565b92915050565b600081359050611bf381612952565b92915050565b600081359050611c0881612969565b92915050565b600082601f830112611c1f57600080fd5b8135611c2f848260208601611b91565b91505092915050565b600081359050611c4781612980565b92915050565b600060208284031215611c5f57600080fd5b6000611c6d84828501611bcf565b91505092915050565b600060208284031215611c8857600080fd5b6000611c9684828501611bf9565b91505092915050565b600080600080600060a08688031215611cb757600080fd5b600086013567ffffffffffffffff811115611cd157600080fd5b611cdd88828901611c0e565b9550506020611cee88828901611bcf565b9450506040611cff88828901611bcf565b9350506060611d1088828901611c38565b9250506080611d2188828901611be4565b9150509295509295909350565b60008060008060808587031215611d4457600080fd5b600085013567ffffffffffffffff811115611d5e57600080fd5b611d6a87828801611c0e565b9450506020611d7b87828801611bcf565b9350506040611d8c87828801611c38565b9250506060611d9d87828801611be4565b91505092959194509250565b600080600080600060a08688031215611dc157600080fd5b600086013567ffffffffffffffff811115611ddb57600080fd5b611de788828901611c0e565b955050602086013567ffffffffffffffff811115611e0457600080fd5b611e1088828901611c0e565b9450506040611e2188828901611bf9565b9350506060611e3288828901611be4565b9250506080611e4388828901611be4565b9150509295509295909350565b60008060008060008060c08789031215611e6957600080fd5b600087013567ffffffffffffffff811115611e8357600080fd5b611e8f89828a01611c0e565b965050602087013567ffffffffffffffff811115611eac57600080fd5b611eb889828a01611c0e565b955050604087013567ffffffffffffffff811115611ed557600080fd5b611ee189828a01611c0e565b9450506060611ef289828a01611bcf565b9350506080611f0389828a01611bcf565b92505060a0611f1489828a01611be4565b9150509295509295509295565b611f2a816127e4565b82525050565b611f39816127f6565b82525050565b611f4881612802565b82525050565b6000611f59826127c8565b611f6381856127d3565b9350611f73818560208601612867565b611f7c8161292a565b840191505092915050565b6000611f946011836127d3565b91507f557064617465204c656769736c61746f720000000000000000000000000000006000830152602082019050919050565b6000611fd46011836127d3565b91507f55706461746520546563684d61737465720000000000000000000000000000006000830152602082019050919050565b60006120146026836127d3565b91507f4f776e61626c653a206e6577206f776e657220697320746865207a65726f206160008301527f64647265737300000000000000000000000000000000000000000000000000006020830152604082019050919050565b600061207a600e836127d3565b91507f4e657720546563684d61737465720000000000000000000000000000000000006000830152602082019050919050565b60006120ba600d836127d3565b91507f55706461746520427269646765000000000000000000000000000000000000006000830152602082019050919050565b60006120fa6012836127d3565b91507f55706461746520547970654d65617375726500000000000000000000000000006000830152602082019050919050565b600061213a600e836127d3565b91507f4e6577204c656769736c61746f720000000000000000000000000000000000006000830152602082019050919050565b600061217a6020836127d3565b91507f4f776e61626c653a2063616c6c6572206973206e6f7420746865206f776e65726000830152602082019050919050565b60006121ba600f836127d3565b91507f55706461746520437573746f6d657200000000000000000000000000000000006000830152602082019050919050565b60006121fa600f836127d3565b91507f4e657720547970654d65617375726500000000000000000000000000000000006000830152602082019050919050565b600061223a600a836127d3565b91507f4e657720427269646765000000000000000000000000000000000000000000006000830152602082019050919050565b600061227a600c836127d3565b91507f4e657720437573746f6d657200000000000000000000000000000000000000006000830152602082019050919050565b60006122ba600d836127d3565b91507f4163636573732064656e696564000000000000000000000000000000000000006000830152602082019050919050565b6122f68161284e565b82525050565b60006020820190506123116000830184611f21565b92915050565b600060a08201905081810360008301526123318188611f4e565b90506123406020830187611f21565b61234d60408301866122ed565b61235a6060830185611f30565b6123676080830184611f30565b9695505050505050565b600060a082019050818103600083015261238b8188611f4e565b9050818103602083015261239f8187611f4e565b90506123ae6040830186611f30565b6123bb6060830185611f30565b6123c86080830184611f30565b9695505050505050565b600060c08201905081810360008301526123ec8189611f4e565b905081810360208301526124008188611f4e565b905081810360408301526124148187611f4e565b90506124236060830186611f21565b6124306080830185611f30565b61243d60a0830184611f30565b979650505050505050565b600060808201905081810360008301526124628187611f4e565b905061247160208301866122ed565b61247e6040830185611f30565b61248b6060830184611f30565b95945050505050565b600060608201905081810360008301526124ad81611f87565b90506124bc6020830185611f21565b6124c96040830184611f21565b9392505050565b600060608201905081810360008301526124e981611fc7565b90506124f86020830185611f21565b6125056040830184611f21565b9392505050565b6000602082019050818103600083015261252581612007565b9050919050565b600060608201905081810360008301526125458161206d565b90506125546020830185611f21565b6125616040830184611f21565b9392505050565b60006060820190508181036000830152612581816120ad565b90506125906020830185611f21565b61259d6040830184611f21565b9392505050565b600060608201905081810360008301526125bd816120ed565b90506125cc6020830185611f3f565b6125d96040830184611f21565b9392505050565b600060608201905081810360008301526125f98161212d565b90506126086020830185611f21565b6126156040830184611f21565b9392505050565b600060208201905081810360008301526126358161216d565b9050919050565b60006060820190508181036000830152612655816121ad565b90506126646020830185611f21565b6126716040830184611f21565b9392505050565b60006060820190508181036000830152612691816121ed565b90506126a06020830185611f3f565b6126ad6040830184611f21565b9392505050565b600060608201905081810360008301526126cd8161222d565b90506126dc6020830185611f21565b6126e96040830184611f21565b9392505050565b600060608201905081810360008301526127098161226d565b90506127186020830185611f21565b6127256040830184611f21565b9392505050565b60006020820190508181036000830152612745816122ad565b9050919050565b600060208201905061276160008301846122ed565b92915050565b6000604051905081810181811067ffffffffffffffff8211171561278e5761278d6128fb565b5b8060405250919050565b600067ffffffffffffffff8211156127b3576127b26128fb565b5b601f19601f8301169050602081019050919050565b600081519050919050565b600082825260208201905092915050565b60006127ef8261282e565b9050919050565b60008115159050919050565b60007fffffffffffffffff00000000000000000000000000000000000000000000000082169050919050565b600073ffffffffffffffffffffffffffffffffffffffff82169050919050565b6000819050919050565b82818337600083830152505050565b60005b8381101561288557808201518184015260208101905061286a565b83811115612894576000848401525b50505050565b600060028204905060018216806128b257607f821691505b602082108114156128c6576128c56128cc565b5b50919050565b7f4e487b7100000000000000000000000000000000000000000000000000000000600052602260045260246000fd5b7f4e487b7100000000000000000000000000000000000000000000000000000000600052604160045260246000fd5b6000601f19601f8301169050919050565b612944816127e4565b811461294f57600080fd5b50565b61295b816127f6565b811461296657600080fd5b50565b61297281612802565b811461297d57600080fd5b50565b6129898161284e565b811461299457600080fd5b5056fea2646970667358221220dc51a00b45f1a1676a04ee0425e62a6181f9d6997bb4a7fc1f7641822958666164736f6c63430008000033",
  "immutableReferences": {},
  "source": "// SPDX-License-Identifier: MIT\r\npragma solidity 0.8.0;\r\n\r\nimport \"../node_modules/@openzeppelin/contracts/utils/Counters.sol\";\r\nimport \"../node_modules/@openzeppelin/contracts/access/Ownable.sol\";\r\n\r\ncontract LedgerContract is Ownable {\r\n    using Counters for Counters.Counter;\r\n\r\n\r\n    /**\r\n     * @dev Structure of Customer\r\n     * @notice Feature_V2 \r\n     */\r\n    struct Customer {\r\n        string description;\r\n        address contractAddress;\r\n        uint siretNumber;\r\n        bool isActive;\r\n        bool exist;\r\n    }\r\n\r\n    /**\r\n     * @dev Structure of Legislator\r\n     * @notice Feature_V2 \r\n     */\r\n    struct Legislator {\r\n        string description;\r\n        uint siretNumber;        \r\n        bool isActive;\r\n        bool exist;        \r\n    }\r\n\r\n    /**\r\n     * @dev Structure of TechMaster\r\n     * @notice Feature_V2 \r\n     */\r\n    struct TechMaster {\r\n        string description;\r\n        uint siretNumber;        \r\n        bool isActive;\r\n        bool exist;        \r\n    }\r\n\r\n    /**\r\n     * @dev Structure of Bridge\r\n     * @notice Feature_V2 \r\n     */\r\n    struct Bridge {\r\n        string description;\r\n        string url;   \r\n        string info;        \r\n        address techMasterAddress;     \r\n        bool isActive;\r\n        bool exist;        \r\n    }\r\n\r\n    /**\r\n     * @dev Structure of TypeMeasure\r\n     * @notice Feature_V2 \r\n     */\r\n    struct TypeMeasure{\r\n\t    string description;\r\n        string info;\r\n        bool isActive;\r\n\t    bool isAllowed;\r\n        bool exist;        \r\n    }\r\n\r\n    event LedgerUpdate(string _message, address _target, address _author);  \r\n    event TypeMeasureUpdate(string _message, bytes8 _target, address _author);  \r\n  \r\n    modifier onlyTechMaster() {\r\n        require (_techMasters[msg.sender].exist || owner() ==  msg.sender, \"Access denied\");\r\n        _;\r\n    }\r\n\r\n    mapping(address => Customer) public _customers; \r\n    mapping(address => Legislator) public _legislators; \r\n    mapping(address => TechMaster) public _techMasters;\r\n    mapping(address => Bridge) public _bridges;\r\n    mapping(bytes8 => TypeMeasure) public _typeMeasures;\r\n\r\n     /**\r\n     * @dev set a Customer\r\n     * @param _description string description of a Customer\r\n     * @param _customerAddress address Customer's address\r\n     * @param _contractAddress address contract's address\r\n     * @param _siretNumber uint Customer's siretNumber\r\n     * @param _isActive bool Customer's status : active / inactive\r\n     */\r\n    function setCustomer (\r\n        string memory _description,\r\n        address _customerAddress, \r\n        address _contractAddress,\r\n        uint _siretNumber,\r\n        bool _isActive) \r\n        onlyOwner() external {\r\n\r\n        if(!_customers[_customerAddress].exist){\r\n            emit LedgerUpdate(\"New Customer\", _customerAddress, msg.sender);\r\n        }else{\r\n            emit LedgerUpdate(\"Update Customer\", _customerAddress, msg.sender);\r\n        }\r\n\r\n        _customers[_customerAddress] = Customer(\r\n        _description,\r\n        _contractAddress,         \r\n        _siretNumber,\r\n        _isActive, \r\n        true);\r\n    }\r\n\r\n     /**\r\n     * @dev set a Legislator\r\n     * @param _description string description of a Legislator\r\n     * @param _legislatorAddress address Legislator's address\r\n     * @param _siretNumber uint Legislator's siretNumber\r\n     * @param _isActive bool Legislator's status : active / inactive\r\n     */\r\n    function setLegislator (\r\n        string memory _description,        \r\n        address _legislatorAddress,\r\n        uint _siretNumber,\r\n        bool _isActive) \r\n        onlyOwner() external {\r\n\r\n        if(!_legislators[_legislatorAddress].exist){\r\n            emit LedgerUpdate(\"New Legislator\", _legislatorAddress, msg.sender);\r\n        }else{\r\n            emit LedgerUpdate(\"Update Legislator\", _legislatorAddress, msg.sender);\r\n        }\r\n\r\n        _legislators[_legislatorAddress] = Legislator(\r\n        _description,\r\n        _siretNumber,\r\n        _isActive,\r\n        true);   \r\n    }    \r\n\r\n     /**\r\n     * @dev set a TechMaster\r\n     * @param _description string description of a TechMaster\r\n     * @param _techMasterAddress address TechMaster's address\r\n     * @param _siretNumber uint TechMaster's siretNumber\r\n     * @param _isActive bool TechMaster's status : active / inactive\r\n     */\r\n    function setTechMaster (\r\n        string memory _description,\r\n        address _techMasterAddress,       \r\n        uint _siretNumber,\r\n        bool _isActive) \r\n        onlyOwner() external {\r\n\r\n        if(!_techMasters[_techMasterAddress].exist){\r\n            emit LedgerUpdate(\"New TechMaster\", _techMasterAddress, msg.sender);\r\n        }else{\r\n            emit LedgerUpdate(\"Update TechMaster\", _techMasterAddress, msg.sender);\r\n        }\r\n\r\n        _techMasters[_techMasterAddress] = TechMaster(\r\n        _description,\r\n        _siretNumber,\r\n        _isActive,\r\n        true);\r\n    }    \r\n\r\n     /**\r\n     * @dev set a Bridge\r\n     * @param _description string description of a Bridge\r\n     * @param _url string url of a Bridge\r\n     * @param _info string info regarding a Bridge\r\n     * @param _bridgeAddress address Bridge's address\r\n     * @param _techMasterAddress address TechMaster's address\r\n     * @param _isActive bool TechMaster's status : active / inactive\r\n     */\r\n    function setBridge (\r\n        string memory _description,\r\n        string memory _url, \r\n        string memory _info,               \r\n        address _bridgeAddress,\r\n        address _techMasterAddress,       \r\n        bool _isActive) \r\n        onlyTechMaster() external {\r\n\r\n        if(!_bridges[_bridgeAddress].exist){\r\n            emit LedgerUpdate(\"New Bridge\", _bridgeAddress, msg.sender);\r\n        }else{\r\n            require(_bridges[_bridgeAddress].techMasterAddress == msg.sender || owner()==msg.sender, \"Access denied\");\r\n            emit LedgerUpdate(\"Update Bridge\", _bridgeAddress, msg.sender);\r\n        }\r\n\r\n        if(owner()!=msg.sender){\r\n            _techMasterAddress = msg.sender;\r\n        }\r\n\r\n        _bridges[_bridgeAddress] = Bridge(\r\n        _description,\r\n        _url,        \r\n        _info,\r\n        _techMasterAddress,\r\n        _isActive,\r\n        true);\r\n    } \r\n\r\n     /**\r\n     * @dev set a TypeMeasure\r\n     * @param _description string description of a TypeMeasure\r\n     * @param _info string info regarding a TypeMeasure\r\n     * @param _codeMeasure bytes8 TypeMeasure's code\r\n     * @param _isActive bool TechMaster's status : active / inactive \r\n     * @param _isAllowed bool TypeMeasure's authorization status\r\n     */    \r\n    function setTypeMeasure (\r\n        string memory _description,\r\n        string memory _info,\r\n        bytes8 _codeMeasure,\r\n        bool _isActive,\r\n        bool _isAllowed) \r\n        onlyOwner() external {  \r\n\r\n        if(!_typeMeasures[_codeMeasure].exist){\r\n            emit TypeMeasureUpdate(\"New TypeMeasure\", _codeMeasure, msg.sender);\r\n        }else{\r\n            emit TypeMeasureUpdate(\"Update TypeMeasure\", _codeMeasure, msg.sender);\r\n        }\r\n\r\n        _typeMeasures[_codeMeasure] = TypeMeasure(\r\n        _description,\r\n        _info,\r\n        _isActive,\r\n        _isAllowed,\r\n        true);\r\n    }    \r\n\r\n     /**\r\n     * @dev allows the dApp to process user's type and display the correct interface\r\n     * @param _myTypeUser uint user's type \r\n     */  \r\n    function rootingApps()\r\n        external view returns(uint _myTypeUser){\r\n        /*\r\n            1 : Admin\r\n            2 : Client\r\n            3 : Lgislateur\r\n            4 : Techmaster\r\n            5 : Public\r\n        */\r\n        if(msg.sender == owner()){\r\n            return 1;\r\n        }\r\n        if(_customers[msg.sender].exist){\r\n            return 2;\r\n        }\r\n        if(_legislators[msg.sender].exist){\r\n            return 3;\r\n        }\r\n        if(_techMasters[msg.sender].exist){\r\n            return 4;\r\n        }\r\n        return 5;\r\n    }\r\n}\r\n",
  "sourcePath": "C:/Users/danie/Desktop/Solidity/Projet final/eco-capt/contracts/LedgerContract.sol",
  "compiler": {
    "name": "solc",
    "version": "0.8.0+commit.c7dfd78e.Emscripten.clang"
  },
  "schemaVersion": "3.3.4",
  "updatedAt": "2021-04-23T19:19:06.942Z",
  "networkType": "ethereum",
  "devdoc": {
    "kind": "dev",
    "methods": {
      "owner()": {
        "details": "Returns the address of the current owner."
      },
      "renounceOwnership()": {
        "details": "Leaves the contract without owner. It will not be possible to call `onlyOwner` functions anymore. Can only be called by the current owner. NOTE: Renouncing ownership will leave the contract without an owner, thereby removing any functionality that is only available to the owner."
      },
      "rootingApps()": {
        "details": "allows the dApp to process user's type and display the correct interface",
        "params": {
          "_myTypeUser": "uint user's type "
        }
      },
      "setBridge(string,string,string,address,address,bool)": {
        "details": "set a Bridge",
        "params": {
          "_bridgeAddress": "address Bridge's address",
          "_description": "string description of a Bridge",
          "_info": "string info regarding a Bridge",
          "_isActive": "bool TechMaster's status : active / inactive",
          "_techMasterAddress": "address TechMaster's address",
          "_url": "string url of a Bridge"
        }
      },
      "setCustomer(string,address,address,uint256,bool)": {
        "details": "set a Customer",
        "params": {
          "_contractAddress": "address contract's address",
          "_customerAddress": "address Customer's address",
          "_description": "string description of a Customer",
          "_isActive": "bool Customer's status : active / inactive",
          "_siretNumber": "uint Customer's siretNumber"
        }
      },
      "setLegislator(string,address,uint256,bool)": {
        "details": "set a Legislator",
        "params": {
          "_description": "string description of a Legislator",
          "_isActive": "bool Legislator's status : active / inactive",
          "_legislatorAddress": "address Legislator's address",
          "_siretNumber": "uint Legislator's siretNumber"
        }
      },
      "setTechMaster(string,address,uint256,bool)": {
        "details": "set a TechMaster",
        "params": {
          "_description": "string description of a TechMaster",
          "_isActive": "bool TechMaster's status : active / inactive",
          "_siretNumber": "uint TechMaster's siretNumber",
          "_techMasterAddress": "address TechMaster's address"
        }
      },
      "setTypeMeasure(string,string,bytes8,bool,bool)": {
        "details": "set a TypeMeasure",
        "params": {
          "_codeMeasure": "bytes8 TypeMeasure's code",
          "_description": "string description of a TypeMeasure",
          "_info": "string info regarding a TypeMeasure",
          "_isActive": "bool TechMaster's status : active / inactive ",
          "_isAllowed": "bool TypeMeasure's authorization status"
        }
      },
      "transferOwnership(address)": {
        "details": "Transfers ownership of the contract to a new account (`newOwner`). Can only be called by the current owner."
      }
    },
    "version": 1
  },
  "userdoc": {
    "kind": "user",
    "methods": {},
    "version": 1
  }
}