{
  "contractName": "LedgerContract",
  "abi": [
    {
      "inputs": [
        {
          "internalType": "address",
          "name": "_ecpTokenAddress",
          "type": "address"
        }
      ],
      "stateMutability": "nonpayable",
      "type": "constructor"
    },
    {
      "anonymous": false,
      "inputs": [
        {
          "indexed": false,
          "internalType": "string",
          "name": "_message",
          "type": "string"
        },
        {
          "indexed": false,
          "internalType": "address",
          "name": "_target",
          "type": "address"
        },
        {
          "indexed": false,
          "internalType": "address",
          "name": "_author",
          "type": "address"
        }
      ],
      "name": "LedgerUpdate",
      "type": "event"
    },
    {
      "anonymous": false,
      "inputs": [
        {
          "indexed": true,
          "internalType": "address",
          "name": "previousOwner",
          "type": "address"
        },
        {
          "indexed": true,
          "internalType": "address",
          "name": "newOwner",
          "type": "address"
        }
      ],
      "name": "OwnershipTransferred",
      "type": "event"
    },
    {
      "anonymous": false,
      "inputs": [
        {
          "indexed": false,
          "internalType": "string",
          "name": "_message",
          "type": "string"
        },
        {
          "indexed": false,
          "internalType": "bytes8",
          "name": "_target",
          "type": "bytes8"
        },
        {
          "indexed": false,
          "internalType": "address",
          "name": "_author",
          "type": "address"
        }
      ],
      "name": "TypeMeasureUpdate",
      "type": "event"
    },
    {
      "inputs": [
        {
          "internalType": "address",
          "name": "",
          "type": "address"
        }
      ],
      "name": "_bridges",
      "outputs": [
        {
          "internalType": "string",
          "name": "description",
          "type": "string"
        },
        {
          "internalType": "string",
          "name": "url",
          "type": "string"
        },
        {
          "internalType": "string",
          "name": "info",
          "type": "string"
        },
        {
          "internalType": "address",
          "name": "techMasterAddress",
          "type": "address"
        },
        {
          "internalType": "bool",
          "name": "isActive",
          "type": "bool"
        },
        {
          "internalType": "bool",
          "name": "exist",
          "type": "bool"
        }
      ],
      "stateMutability": "view",
      "type": "function",
      "constant": true
    },
    {
      "inputs": [
        {
          "internalType": "address",
          "name": "",
          "type": "address"
        }
      ],
      "name": "_customers",
      "outputs": [
        {
          "internalType": "string",
          "name": "description",
          "type": "string"
        },
        {
          "internalType": "address",
          "name": "contractAddress",
          "type": "address"
        },
        {
          "internalType": "uint256",
          "name": "siretNumber",
          "type": "uint256"
        },
        {
          "internalType": "bool",
          "name": "isActive",
          "type": "bool"
        },
        {
          "internalType": "bool",
          "name": "exist",
          "type": "bool"
        }
      ],
      "stateMutability": "view",
      "type": "function",
      "constant": true
    },
    {
      "inputs": [
        {
          "internalType": "address",
          "name": "",
          "type": "address"
        }
      ],
      "name": "_legislators",
      "outputs": [
        {
          "internalType": "string",
          "name": "description",
          "type": "string"
        },
        {
          "internalType": "uint256",
          "name": "siretNumber",
          "type": "uint256"
        },
        {
          "internalType": "bool",
          "name": "isActive",
          "type": "bool"
        },
        {
          "internalType": "bool",
          "name": "exist",
          "type": "bool"
        }
      ],
      "stateMutability": "view",
      "type": "function",
      "constant": true
    },
    {
      "inputs": [
        {
          "internalType": "address",
          "name": "",
          "type": "address"
        }
      ],
      "name": "_techMasters",
      "outputs": [
        {
          "internalType": "string",
          "name": "description",
          "type": "string"
        },
        {
          "internalType": "uint256",
          "name": "siretNumber",
          "type": "uint256"
        },
        {
          "internalType": "bool",
          "name": "isActive",
          "type": "bool"
        },
        {
          "internalType": "bool",
          "name": "exist",
          "type": "bool"
        }
      ],
      "stateMutability": "view",
      "type": "function",
      "constant": true
    },
    {
      "inputs": [
        {
          "internalType": "bytes8",
          "name": "",
          "type": "bytes8"
        }
      ],
      "name": "_typeMeasures",
      "outputs": [
        {
          "internalType": "string",
          "name": "description",
          "type": "string"
        },
        {
          "internalType": "string",
          "name": "info",
          "type": "string"
        },
        {
          "internalType": "bool",
          "name": "isActive",
          "type": "bool"
        },
        {
          "internalType": "bool",
          "name": "isAllowed",
          "type": "bool"
        },
        {
          "internalType": "bool",
          "name": "exist",
          "type": "bool"
        }
      ],
      "stateMutability": "view",
      "type": "function",
      "constant": true
    },
    {
      "inputs": [],
      "name": "ecpTokenAddress",
      "outputs": [
        {
          "internalType": "address",
          "name": "",
          "type": "address"
        }
      ],
      "stateMutability": "view",
      "type": "function",
      "constant": true
    },
    {
      "inputs": [],
      "name": "owner",
      "outputs": [
        {
          "internalType": "address",
          "name": "",
          "type": "address"
        }
      ],
      "stateMutability": "view",
      "type": "function",
      "constant": true
    },
    {
      "inputs": [],
      "name": "renounceOwnership",
      "outputs": [],
      "stateMutability": "nonpayable",
      "type": "function"
    },
    {
      "inputs": [
        {
          "internalType": "address",
          "name": "newOwner",
          "type": "address"
        }
      ],
      "name": "transferOwnership",
      "outputs": [],
      "stateMutability": "nonpayable",
      "type": "function"
    },
    {
      "inputs": [
        {
          "internalType": "string",
          "name": "_description",
          "type": "string"
        },
        {
          "internalType": "address",
          "name": "_customerAddress",
          "type": "address"
        },
        {
          "internalType": "address",
          "name": "_contractAddress",
          "type": "address"
        },
        {
          "internalType": "uint256",
          "name": "_siretNumber",
          "type": "uint256"
        },
        {
          "internalType": "bool",
          "name": "_isActive",
          "type": "bool"
        }
      ],
      "name": "setCustomer",
      "outputs": [],
      "stateMutability": "nonpayable",
      "type": "function"
    },
    {
      "inputs": [
        {
          "internalType": "string",
          "name": "_description",
          "type": "string"
        },
        {
          "internalType": "address",
          "name": "_legislatorAddress",
          "type": "address"
        },
        {
          "internalType": "uint256",
          "name": "_siretNumber",
          "type": "uint256"
        },
        {
          "internalType": "bool",
          "name": "_isActive",
          "type": "bool"
        }
      ],
      "name": "setLegislator",
      "outputs": [],
      "stateMutability": "nonpayable",
      "type": "function"
    },
    {
      "inputs": [
        {
          "internalType": "string",
          "name": "_description",
          "type": "string"
        },
        {
          "internalType": "address",
          "name": "_techMasterAddress",
          "type": "address"
        },
        {
          "internalType": "uint256",
          "name": "_siretNumber",
          "type": "uint256"
        },
        {
          "internalType": "bool",
          "name": "_isActive",
          "type": "bool"
        }
      ],
      "name": "setTechMaster",
      "outputs": [],
      "stateMutability": "nonpayable",
      "type": "function"
    },
    {
      "inputs": [
        {
          "internalType": "string",
          "name": "_description",
          "type": "string"
        },
        {
          "internalType": "string",
          "name": "_url",
          "type": "string"
        },
        {
          "internalType": "string",
          "name": "_info",
          "type": "string"
        },
        {
          "internalType": "address",
          "name": "_bridgeAddress",
          "type": "address"
        },
        {
          "internalType": "address",
          "name": "_techMasterAddress",
          "type": "address"
        },
        {
          "internalType": "bool",
          "name": "_isActive",
          "type": "bool"
        }
      ],
      "name": "setBridge",
      "outputs": [],
      "stateMutability": "nonpayable",
      "type": "function"
    },
    {
      "inputs": [
        {
          "internalType": "string",
          "name": "_description",
          "type": "string"
        },
        {
          "internalType": "string",
          "name": "_info",
          "type": "string"
        },
        {
          "internalType": "bytes8",
          "name": "_codeMeasure",
          "type": "bytes8"
        },
        {
          "internalType": "bool",
          "name": "_isActive",
          "type": "bool"
        },
        {
          "internalType": "bool",
          "name": "_isAllowed",
          "type": "bool"
        }
      ],
      "name": "setTypeMeasure",
      "outputs": [],
      "stateMutability": "nonpayable",
      "type": "function"
    },
    {
      "inputs": [
        {
          "internalType": "address",
          "name": "_target",
          "type": "address"
        },
        {
          "internalType": "uint256",
          "name": "_amount",
          "type": "uint256"
        }
      ],
      "name": "mintECP",
      "outputs": [],
      "stateMutability": "nonpayable",
      "type": "function"
    },
    {
      "inputs": [
        {
          "internalType": "address",
          "name": "_customerAddress",
          "type": "address"
        },
        {
          "internalType": "uint256",
          "name": "_amount",
          "type": "uint256"
        }
      ],
      "name": "sendClientToken",
      "outputs": [],
      "stateMutability": "nonpayable",
      "type": "function"
    },
    {
      "inputs": [],
      "name": "rootingApps",
      "outputs": [
        {
          "internalType": "uint256",
          "name": "_myTypeUser",
          "type": "uint256"
        }
      ],
      "stateMutability": "view",
      "type": "function",
      "constant": true
    }
  ],
  "bytecode": "0x60806040523480156200001157600080fd5b50604051620032df380380620032df83398181016040528101906200003791906200018f565b6000620000496200017060201b60201c565b9050806000806101000a81548173ffffffffffffffffffffffffffffffffffffffff021916908373ffffffffffffffffffffffffffffffffffffffff1602179055508073ffffffffffffffffffffffffffffffffffffffff16600073ffffffffffffffffffffffffffffffffffffffff167f8be0079c531659141344cd1fd0a4f28419497f9722a3daafe3b4186f6b6457e060405160405180910390a35080600660006101000a81548173ffffffffffffffffffffffffffffffffffffffff021916908373ffffffffffffffffffffffffffffffffffffffff16021790555080600760006101000a81548173ffffffffffffffffffffffffffffffffffffffff021916908373ffffffffffffffffffffffffffffffffffffffff1602179055505062000209565b600033905090565b6000815190506200018981620001ef565b92915050565b600060208284031215620001a257600080fd5b6000620001b28482850162000178565b91505092915050565b6000620001c882620001cf565b9050919050565b600073ffffffffffffffffffffffffffffffffffffffff82169050919050565b620001fa81620001bb565b81146200020657600080fd5b50565b6130c680620002196000396000f3fe608060405234801561001057600080fd5b506004361061010b5760003560e01c8063b54251b5116100a2578063e20cd95111610071578063e20cd9511461029c578063e6542e53146102b8578063e6942760146102d4578063e738d19914610308578063f2fde38b1461033b5761010b565b8063b54251b5146101e2578063b8c500e514610215578063c29f7ba31461024a578063ca588b0f1461027e5761010b565b80635ec6b759116100de5780635ec6b75914610180578063715018a61461019e5780638da5cb5b146101a85780639e53c891146101c65761010b565b80631503b19f14610110578063231fbb8e1461012c57806358d86746146101485780635e42705a14610164575b600080fd5b61012a60048036038101906101259190612375565b610357565b005b61014660048036038101906101419190612258565b610574565b005b610162600480360381019061015d9190612497565b61095f565b005b61017e600480360381019061017991906122e6565b610db2565b005b610188611033565b60405161019591906129ac565b60405180910390f35b6101a6611059565b005b6101b0611193565b6040516101bd91906129ac565b60405180910390f35b6101e060048036038101906101db91906123f0565b6111bc565b005b6101fc60048036038101906101f7919061222f565b611429565b60405161020c9493929190612b21565b60405180910390f35b61022f600480360381019061022a919061222f565b6114fb565b60405161024196959493929190612aab565b60405180910390f35b610264600480360381019061025f919061222f565b611709565b6040516102759594939291906129f0565b60405180910390f35b610286611801565b6040516102939190612e45565b60405180910390f35b6102b660048036038101906102b19190612375565b611969565b005b6102d260048036038101906102cd9190612258565b611b86565b005b6102ee60048036038101906102e991906122bd565b611cb6565b6040516102ff959493929190612a4a565b60405180910390f35b610322600480360381019061031d919061222f565b611e23565b6040516103329493929190612b21565b60405180910390f35b6103556004803603810190610350919061222f565b611ef5565b005b61035f61209e565b73ffffffffffffffffffffffffffffffffffffffff1661037d611193565b73ffffffffffffffffffffffffffffffffffffffff16146103d3576040517f08c379a00000000000000000000000000000000000000000000000000000000081526004016103ca90612cf5565b60405180910390fd5b600360008473ffffffffffffffffffffffffffffffffffffffff1673ffffffffffffffffffffffffffffffffffffffff16815260200190815260200160002060020160019054906101000a900460ff16610465577fbf4ae51d8c0eda5cf0cccfde45fa35ea3a741a7f35b5f3d24dd2196b6eaab8288333604051610458929190612c05565b60405180910390a161049f565b7fbf4ae51d8c0eda5cf0cccfde45fa35ea3a741a7f35b5f3d24dd2196b6eaab8288333604051610496929190612ba9565b60405180910390a15b6040518060800160405280858152602001838152602001821515815260200160011515815250600360008573ffffffffffffffffffffffffffffffffffffffff1673ffffffffffffffffffffffffffffffffffffffff16815260200190815260200160002060008201518160000190805190602001906105209291906120a6565b506020820151816001015560408201518160020160006101000a81548160ff02191690831515021790555060608201518160020160016101000a81548160ff02191690831515021790555090505050505050565b61057c61209e565b73ffffffffffffffffffffffffffffffffffffffff1661059a611193565b73ffffffffffffffffffffffffffffffffffffffff16146105f0576040517f08c379a00000000000000000000000000000000000000000000000000000000081526004016105e790612cf5565b60405180910390fd5b600160008373ffffffffffffffffffffffffffffffffffffffff1673ffffffffffffffffffffffffffffffffffffffff16815260200190815260200160002060030160019054906101000a900460ff1661067f576040517f08c379a000000000000000000000000000000000000000000000000000000000815260040161067690612d15565b60405180910390fd5b80600760009054906101000a900473ffffffffffffffffffffffffffffffffffffffff1673ffffffffffffffffffffffffffffffffffffffff166370a08231306040518263ffffffff1660e01b81526004016106db91906129ac565b60206040518083038186803b1580156106f357600080fd5b505afa158015610707573d6000803e3d6000fd5b505050506040513d601f19601f8201168201806040525081019061072b9190612568565b101561084857600760009054906101000a900473ffffffffffffffffffffffffffffffffffffffff1673ffffffffffffffffffffffffffffffffffffffff1663484b973c600160008573ffffffffffffffffffffffffffffffffffffffff1673ffffffffffffffffffffffffffffffffffffffff16815260200190815260200160002060010160009054906101000a900473ffffffffffffffffffffffffffffffffffffffff16836040518363ffffffff1660e01b81526004016107f09291906129c7565b602060405180830381600087803b15801561080a57600080fd5b505af115801561081e573d6000803e3d6000fd5b505050506040513d601f19601f820116820180604052508101906108429190612294565b5061095b565b600760009054906101000a900473ffffffffffffffffffffffffffffffffffffffff1673ffffffffffffffffffffffffffffffffffffffff1663a9059cbb600160008573ffffffffffffffffffffffffffffffffffffffff1673ffffffffffffffffffffffffffffffffffffffff16815260200190815260200160002060010160009054906101000a900473ffffffffffffffffffffffffffffffffffffffff16836040518363ffffffff1660e01b81526004016109079291906129c7565b602060405180830381600087803b15801561092157600080fd5b505af1158015610935573d6000803e3d6000fd5b505050506040513d601f19601f820116820180604052508101906109599190612294565b505b5050565b600360003373ffffffffffffffffffffffffffffffffffffffff1673ffffffffffffffffffffffffffffffffffffffff16815260200190815260200160002060020160019054906101000a900460ff16806109ec57503373ffffffffffffffffffffffffffffffffffffffff166109d4611193565b73ffffffffffffffffffffffffffffffffffffffff16145b610a2b576040517f08c379a0000000000000000000000000000000000000000000000000000000008152600401610a2290612e25565b60405180910390fd5b600460008473ffffffffffffffffffffffffffffffffffffffff1673ffffffffffffffffffffffffffffffffffffffff16815260200190815260200160002060030160159054906101000a900460ff16610abd577fbf4ae51d8c0eda5cf0cccfde45fa35ea3a741a7f35b5f3d24dd2196b6eaab8288333604051610ab0929190612dad565b60405180910390a1610c04565b3373ffffffffffffffffffffffffffffffffffffffff16600460008573ffffffffffffffffffffffffffffffffffffffff1673ffffffffffffffffffffffffffffffffffffffff16815260200190815260200160002060030160009054906101000a900473ffffffffffffffffffffffffffffffffffffffff1673ffffffffffffffffffffffffffffffffffffffff161480610b8b57503373ffffffffffffffffffffffffffffffffffffffff16610b73611193565b73ffffffffffffffffffffffffffffffffffffffff16145b610bca576040517f08c379a0000000000000000000000000000000000000000000000000000000008152600401610bc190612e25565b60405180910390fd5b7fbf4ae51d8c0eda5cf0cccfde45fa35ea3a741a7f35b5f3d24dd2196b6eaab8288333604051610bfb929190612c41565b60405180910390a15b3373ffffffffffffffffffffffffffffffffffffffff16610c23611193565b73ffffffffffffffffffffffffffffffffffffffff1614610c42573391505b6040518060c001604052808781526020018681526020018581526020018373ffffffffffffffffffffffffffffffffffffffff168152602001821515815260200160011515815250600460008573ffffffffffffffffffffffffffffffffffffffff1673ffffffffffffffffffffffffffffffffffffffff1681526020019081526020016000206000820151816000019080519060200190610ce59291906120a6565b506020820151816001019080519060200190610d029291906120a6565b506040820151816002019080519060200190610d1f9291906120a6565b5060608201518160030160006101000a81548173ffffffffffffffffffffffffffffffffffffffff021916908373ffffffffffffffffffffffffffffffffffffffff16021790555060808201518160030160146101000a81548160ff02191690831515021790555060a08201518160030160156101000a81548160ff021916908315150217905550905050505050505050565b610dba61209e565b73ffffffffffffffffffffffffffffffffffffffff16610dd8611193565b73ffffffffffffffffffffffffffffffffffffffff1614610e2e576040517f08c379a0000000000000000000000000000000000000000000000000000000008152600401610e2590612cf5565b60405180910390fd5b600160008573ffffffffffffffffffffffffffffffffffffffff1673ffffffffffffffffffffffffffffffffffffffff16815260200190815260200160002060030160019054906101000a900460ff16610ec0577fbf4ae51d8c0eda5cf0cccfde45fa35ea3a741a7f35b5f3d24dd2196b6eaab8288433604051610eb3929190612de9565b60405180910390a1610efa565b7fbf4ae51d8c0eda5cf0cccfde45fa35ea3a741a7f35b5f3d24dd2196b6eaab8288433604051610ef1929190612d35565b60405180910390a15b6040518060a001604052808681526020018473ffffffffffffffffffffffffffffffffffffffff168152602001838152602001821515815260200160011515815250600160008673ffffffffffffffffffffffffffffffffffffffff1673ffffffffffffffffffffffffffffffffffffffff1681526020019081526020016000206000820151816000019080519060200190610f979291906120a6565b5060208201518160010160006101000a81548173ffffffffffffffffffffffffffffffffffffffff021916908373ffffffffffffffffffffffffffffffffffffffff1602179055506040820151816002015560608201518160030160006101000a81548160ff02191690831515021790555060808201518160030160016101000a81548160ff0219169083151502179055509050505050505050565b600660009054906101000a900473ffffffffffffffffffffffffffffffffffffffff1681565b61106161209e565b73ffffffffffffffffffffffffffffffffffffffff1661107f611193565b73ffffffffffffffffffffffffffffffffffffffff16146110d5576040517f08c379a00000000000000000000000000000000000000000000000000000000081526004016110cc90612cf5565b60405180910390fd5b600073ffffffffffffffffffffffffffffffffffffffff1660008054906101000a900473ffffffffffffffffffffffffffffffffffffffff1673ffffffffffffffffffffffffffffffffffffffff167f8be0079c531659141344cd1fd0a4f28419497f9722a3daafe3b4186f6b6457e060405160405180910390a360008060006101000a81548173ffffffffffffffffffffffffffffffffffffffff021916908373ffffffffffffffffffffffffffffffffffffffff160217905550565b60008060009054906101000a900473ffffffffffffffffffffffffffffffffffffffff16905090565b6111c461209e565b73ffffffffffffffffffffffffffffffffffffffff166111e2611193565b73ffffffffffffffffffffffffffffffffffffffff1614611238576040517f08c379a000000000000000000000000000000000000000000000000000000000815260040161122f90612cf5565b60405180910390fd5b600560008477ffffffffffffffffffffffffffffffffffffffffffffffff191677ffffffffffffffffffffffffffffffffffffffffffffffff1916815260200190815260200160002060020160029054906101000a900460ff166112d4577ffd28b00c124636c5ca6e4dcc21b05bb735fe07af43e9c2cd98c4aa673a70635083336040516112c7929190612d71565b60405180910390a161130e565b7ffd28b00c124636c5ca6e4dcc21b05bb735fe07af43e9c2cd98c4aa673a7063508333604051611305929190612c7d565b60405180910390a15b6040518060a001604052808681526020018581526020018315158152602001821515815260200160011515815250600560008577ffffffffffffffffffffffffffffffffffffffffffffffff191677ffffffffffffffffffffffffffffffffffffffffffffffff1916815260200190815260200160002060008201518160000190805190602001906113a19291906120a6565b5060208201518160010190805190602001906113be9291906120a6565b5060408201518160020160006101000a81548160ff02191690831515021790555060608201518160020160016101000a81548160ff02191690831515021790555060808201518160020160026101000a81548160ff0219169083151502179055509050505050505050565b600260205280600052604060002060009150905080600001805461144c90612f93565b80601f016020809104026020016040519081016040528092919081815260200182805461147890612f93565b80156114c55780601f1061149a576101008083540402835291602001916114c5565b820191906000526020600020905b8154815290600101906020018083116114a857829003601f168201915b5050505050908060010154908060020160009054906101000a900460ff16908060020160019054906101000a900460ff16905084565b600460205280600052604060002060009150905080600001805461151e90612f93565b80601f016020809104026020016040519081016040528092919081815260200182805461154a90612f93565b80156115975780601f1061156c57610100808354040283529160200191611597565b820191906000526020600020905b81548152906001019060200180831161157a57829003601f168201915b5050505050908060010180546115ac90612f93565b80601f01602080910402602001604051908101604052809291908181526020018280546115d890612f93565b80156116255780601f106115fa57610100808354040283529160200191611625565b820191906000526020600020905b81548152906001019060200180831161160857829003601f168201915b50505050509080600201805461163a90612f93565b80601f016020809104026020016040519081016040528092919081815260200182805461166690612f93565b80156116b35780601f10611688576101008083540402835291602001916116b3565b820191906000526020600020905b81548152906001019060200180831161169657829003601f168201915b5050505050908060030160009054906101000a900473ffffffffffffffffffffffffffffffffffffffff16908060030160149054906101000a900460ff16908060030160159054906101000a900460ff16905086565b600160205280600052604060002060009150905080600001805461172c90612f93565b80601f016020809104026020016040519081016040528092919081815260200182805461175890612f93565b80156117a55780601f1061177a576101008083540402835291602001916117a5565b820191906000526020600020905b81548152906001019060200180831161178857829003601f168201915b5050505050908060010160009054906101000a900473ffffffffffffffffffffffffffffffffffffffff16908060020154908060030160009054906101000a900460ff16908060030160019054906101000a900460ff16905085565b600061180b611193565b73ffffffffffffffffffffffffffffffffffffffff163373ffffffffffffffffffffffffffffffffffffffff1614156118475760019050611966565b600160003373ffffffffffffffffffffffffffffffffffffffff1673ffffffffffffffffffffffffffffffffffffffff16815260200190815260200160002060030160019054906101000a900460ff16156118a55760029050611966565b600260003373ffffffffffffffffffffffffffffffffffffffff1673ffffffffffffffffffffffffffffffffffffffff16815260200190815260200160002060020160019054906101000a900460ff16156119035760039050611966565b600360003373ffffffffffffffffffffffffffffffffffffffff1673ffffffffffffffffffffffffffffffffffffffff16815260200190815260200160002060020160019054906101000a900460ff16156119615760049050611966565b600590505b90565b61197161209e565b73ffffffffffffffffffffffffffffffffffffffff1661198f611193565b73ffffffffffffffffffffffffffffffffffffffff16146119e5576040517f08c379a00000000000000000000000000000000000000000000000000000000081526004016119dc90612cf5565b60405180910390fd5b600260008473ffffffffffffffffffffffffffffffffffffffff1673ffffffffffffffffffffffffffffffffffffffff16815260200190815260200160002060020160019054906101000a900460ff16611a77577fbf4ae51d8c0eda5cf0cccfde45fa35ea3a741a7f35b5f3d24dd2196b6eaab8288333604051611a6a929190612cb9565b60405180910390a1611ab1565b7fbf4ae51d8c0eda5cf0cccfde45fa35ea3a741a7f35b5f3d24dd2196b6eaab8288333604051611aa8929190612b6d565b60405180910390a15b6040518060800160405280858152602001838152602001821515815260200160011515815250600260008573ffffffffffffffffffffffffffffffffffffffff1673ffffffffffffffffffffffffffffffffffffffff1681526020019081526020016000206000820151816000019080519060200190611b329291906120a6565b506020820151816001015560408201518160020160006101000a81548160ff02191690831515021790555060608201518160020160016101000a81548160ff02191690831515021790555090505050505050565b611b8e61209e565b73ffffffffffffffffffffffffffffffffffffffff16611bac611193565b73ffffffffffffffffffffffffffffffffffffffff1614611c02576040517f08c379a0000000000000000000000000000000000000000000000000000000008152600401611bf990612cf5565b60405180910390fd5b600760009054906101000a900473ffffffffffffffffffffffffffffffffffffffff1673ffffffffffffffffffffffffffffffffffffffff1663484b973c83836040518363ffffffff1660e01b8152600401611c5f9291906129c7565b602060405180830381600087803b158015611c7957600080fd5b505af1158015611c8d573d6000803e3d6000fd5b505050506040513d601f19601f82011682018060405250810190611cb19190612294565b505050565b6005602052806000526040600020600091509050806000018054611cd990612f93565b80601f0160208091040260200160405190810160405280929190818152602001828054611d0590612f93565b8015611d525780601f10611d2757610100808354040283529160200191611d52565b820191906000526020600020905b815481529060010190602001808311611d3557829003601f168201915b505050505090806001018054611d6790612f93565b80601f0160208091040260200160405190810160405280929190818152602001828054611d9390612f93565b8015611de05780601f10611db557610100808354040283529160200191611de0565b820191906000526020600020905b815481529060010190602001808311611dc357829003601f168201915b5050505050908060020160009054906101000a900460ff16908060020160019054906101000a900460ff16908060020160029054906101000a900460ff16905085565b6003602052806000526040600020600091509050806000018054611e4690612f93565b80601f0160208091040260200160405190810160405280929190818152602001828054611e7290612f93565b8015611ebf5780601f10611e9457610100808354040283529160200191611ebf565b820191906000526020600020905b815481529060010190602001808311611ea257829003601f168201915b5050505050908060010154908060020160009054906101000a900460ff16908060020160019054906101000a900460ff16905084565b611efd61209e565b73ffffffffffffffffffffffffffffffffffffffff16611f1b611193565b73ffffffffffffffffffffffffffffffffffffffff1614611f71576040517f08c379a0000000000000000000000000000000000000000000000000000000008152600401611f6890612cf5565b60405180910390fd5b600073ffffffffffffffffffffffffffffffffffffffff168173ffffffffffffffffffffffffffffffffffffffff161415611fe1576040517f08c379a0000000000000000000000000000000000000000000000000000000008152600401611fd890612be5565b60405180910390fd5b8073ffffffffffffffffffffffffffffffffffffffff1660008054906101000a900473ffffffffffffffffffffffffffffffffffffffff1673ffffffffffffffffffffffffffffffffffffffff167f8be0079c531659141344cd1fd0a4f28419497f9722a3daafe3b4186f6b6457e060405160405180910390a3806000806101000a81548173ffffffffffffffffffffffffffffffffffffffff021916908373ffffffffffffffffffffffffffffffffffffffff16021790555050565b600033905090565b8280546120b290612f93565b90600052602060002090601f0160209004810192826120d4576000855561211b565b82601f106120ed57805160ff191683800117855561211b565b8280016001018555821561211b579182015b8281111561211a5782518255916020019190600101906120ff565b5b509050612128919061212c565b5090565b5b8082111561214557600081600090555060010161212d565b5090565b600061215c61215784612e91565b612e60565b90508281526020810184848401111561217457600080fd5b61217f848285612f51565b509392505050565b60008135905061219681613034565b92915050565b6000813590506121ab8161304b565b92915050565b6000815190506121c08161304b565b92915050565b6000813590506121d581613062565b92915050565b600082601f8301126121ec57600080fd5b81356121fc848260208601612149565b91505092915050565b60008135905061221481613079565b92915050565b60008151905061222981613079565b92915050565b60006020828403121561224157600080fd5b600061224f84828501612187565b91505092915050565b6000806040838503121561226b57600080fd5b600061227985828601612187565b925050602061228a85828601612205565b9150509250929050565b6000602082840312156122a657600080fd5b60006122b4848285016121b1565b91505092915050565b6000602082840312156122cf57600080fd5b60006122dd848285016121c6565b91505092915050565b600080600080600060a086880312156122fe57600080fd5b600086013567ffffffffffffffff81111561231857600080fd5b612324888289016121db565b955050602061233588828901612187565b945050604061234688828901612187565b935050606061235788828901612205565b92505060806123688882890161219c565b9150509295509295909350565b6000806000806080858703121561238b57600080fd5b600085013567ffffffffffffffff8111156123a557600080fd5b6123b1878288016121db565b94505060206123c287828801612187565b93505060406123d387828801612205565b92505060606123e48782880161219c565b91505092959194509250565b600080600080600060a0868803121561240857600080fd5b600086013567ffffffffffffffff81111561242257600080fd5b61242e888289016121db565b955050602086013567ffffffffffffffff81111561244b57600080fd5b612457888289016121db565b9450506040612468888289016121c6565b93505060606124798882890161219c565b925050608061248a8882890161219c565b9150509295509295909350565b60008060008060008060c087890312156124b057600080fd5b600087013567ffffffffffffffff8111156124ca57600080fd5b6124d689828a016121db565b965050602087013567ffffffffffffffff8111156124f357600080fd5b6124ff89828a016121db565b955050604087013567ffffffffffffffff81111561251c57600080fd5b61252889828a016121db565b945050606061253989828a01612187565b935050608061254a89828a01612187565b92505060a061255b89828a0161219c565b9150509295509295509295565b60006020828403121561257a57600080fd5b60006125888482850161221a565b91505092915050565b61259a81612edd565b82525050565b6125a981612eef565b82525050565b6125b881612efb565b82525050565b60006125c982612ec1565b6125d38185612ecc565b93506125e3818560208601612f60565b6125ec81613023565b840191505092915050565b6000612604601183612ecc565b91507f557064617465204c656769736c61746f720000000000000000000000000000006000830152602082019050919050565b6000612644601183612ecc565b91507f55706461746520546563684d61737465720000000000000000000000000000006000830152602082019050919050565b6000612684602683612ecc565b91507f4f776e61626c653a206e6577206f776e657220697320746865207a65726f206160008301527f64647265737300000000000000000000000000000000000000000000000000006020830152604082019050919050565b60006126ea600e83612ecc565b91507f4e657720546563684d61737465720000000000000000000000000000000000006000830152602082019050919050565b600061272a600d83612ecc565b91507f55706461746520427269646765000000000000000000000000000000000000006000830152602082019050919050565b600061276a601283612ecc565b91507f55706461746520547970654d65617375726500000000000000000000000000006000830152602082019050919050565b60006127aa600e83612ecc565b91507f4e6577204c656769736c61746f720000000000000000000000000000000000006000830152602082019050919050565b60006127ea602083612ecc565b91507f4f776e61626c653a2063616c6c6572206973206e6f7420746865206f776e65726000830152602082019050919050565b600061282a601283612ecc565b91507f437573746f6d6572206e6f7420657869737400000000000000000000000000006000830152602082019050919050565b600061286a600f83612ecc565b91507f55706461746520437573746f6d657200000000000000000000000000000000006000830152602082019050919050565b60006128aa600f83612ecc565b91507f4e657720547970654d65617375726500000000000000000000000000000000006000830152602082019050919050565b60006128ea600a83612ecc565b91507f4e657720427269646765000000000000000000000000000000000000000000006000830152602082019050919050565b600061292a600c83612ecc565b91507f4e657720437573746f6d657200000000000000000000000000000000000000006000830152602082019050919050565b600061296a600d83612ecc565b91507f4163636573732064656e696564000000000000000000000000000000000000006000830152602082019050919050565b6129a681612f47565b82525050565b60006020820190506129c16000830184612591565b92915050565b60006040820190506129dc6000830185612591565b6129e9602083018461299d565b9392505050565b600060a0820190508181036000830152612a0a81886125be565b9050612a196020830187612591565b612a26604083018661299d565b612a3360608301856125a0565b612a4060808301846125a0565b9695505050505050565b600060a0820190508181036000830152612a6481886125be565b90508181036020830152612a7881876125be565b9050612a8760408301866125a0565b612a9460608301856125a0565b612aa160808301846125a0565b9695505050505050565b600060c0820190508181036000830152612ac581896125be565b90508181036020830152612ad981886125be565b90508181036040830152612aed81876125be565b9050612afc6060830186612591565b612b0960808301856125a0565b612b1660a08301846125a0565b979650505050505050565b60006080820190508181036000830152612b3b81876125be565b9050612b4a602083018661299d565b612b5760408301856125a0565b612b6460608301846125a0565b95945050505050565b60006060820190508181036000830152612b86816125f7565b9050612b956020830185612591565b612ba26040830184612591565b9392505050565b60006060820190508181036000830152612bc281612637565b9050612bd16020830185612591565b612bde6040830184612591565b9392505050565b60006020820190508181036000830152612bfe81612677565b9050919050565b60006060820190508181036000830152612c1e816126dd565b9050612c2d6020830185612591565b612c3a6040830184612591565b9392505050565b60006060820190508181036000830152612c5a8161271d565b9050612c696020830185612591565b612c766040830184612591565b9392505050565b60006060820190508181036000830152612c968161275d565b9050612ca560208301856125af565b612cb26040830184612591565b9392505050565b60006060820190508181036000830152612cd28161279d565b9050612ce16020830185612591565b612cee6040830184612591565b9392505050565b60006020820190508181036000830152612d0e816127dd565b9050919050565b60006020820190508181036000830152612d2e8161281d565b9050919050565b60006060820190508181036000830152612d4e8161285d565b9050612d5d6020830185612591565b612d6a6040830184612591565b9392505050565b60006060820190508181036000830152612d8a8161289d565b9050612d9960208301856125af565b612da66040830184612591565b9392505050565b60006060820190508181036000830152612dc6816128dd565b9050612dd56020830185612591565b612de26040830184612591565b9392505050565b60006060820190508181036000830152612e028161291d565b9050612e116020830185612591565b612e1e6040830184612591565b9392505050565b60006020820190508181036000830152612e3e8161295d565b9050919050565b6000602082019050612e5a600083018461299d565b92915050565b6000604051905081810181811067ffffffffffffffff82111715612e8757612e86612ff4565b5b8060405250919050565b600067ffffffffffffffff821115612eac57612eab612ff4565b5b601f19601f8301169050602081019050919050565b600081519050919050565b600082825260208201905092915050565b6000612ee882612f27565b9050919050565b60008115159050919050565b60007fffffffffffffffff00000000000000000000000000000000000000000000000082169050919050565b600073ffffffffffffffffffffffffffffffffffffffff82169050919050565b6000819050919050565b82818337600083830152505050565b60005b83811015612f7e578082015181840152602081019050612f63565b83811115612f8d576000848401525b50505050565b60006002820490506001821680612fab57607f821691505b60208210811415612fbf57612fbe612fc5565b5b50919050565b7f4e487b7100000000000000000000000000000000000000000000000000000000600052602260045260246000fd5b7f4e487b7100000000000000000000000000000000000000000000000000000000600052604160045260246000fd5b6000601f19601f8301169050919050565b61303d81612edd565b811461304857600080fd5b50565b61305481612eef565b811461305f57600080fd5b50565b61306b81612efb565b811461307657600080fd5b50565b61308281612f47565b811461308d57600080fd5b5056fea2646970667358221220d9ddad3bb66f0690af612ef7864f7ff2d79c219614d2c4cafe291275852a1d2b64736f6c63430008000033",
  "immutableReferences": {},
  "source": "// SPDX-License-Identifier: MIT\npragma solidity 0.8.0;\n\nimport \"../node_modules/@openzeppelin/contracts/utils/Counters.sol\";\nimport \"../node_modules/@openzeppelin/contracts/access/Ownable.sol\";\nimport \"./IECPToken.sol\";\n\ncontract LedgerContract is Ownable {\n    using Counters for Counters.Counter;\n\n    /**\n     * @dev Structure of Customer\n     * @notice Feature_V2 \n     */\n    struct Customer {\n        string description;\n        address contractAddress;\n        uint siretNumber;\n        bool isActive;\n        bool exist;\n    }\n\n    /**\n     * @dev Structure of Legislator\n     * @notice Feature_V2 \n     */\n    struct Legislator {\n        string description;\n        uint siretNumber;        \n        bool isActive;\n        bool exist;        \n    }\n\n    /**\n     * @dev Structure of TechMaster\n     * @notice Feature_V2 \n     */\n    struct TechMaster {\n        string description;\n        uint siretNumber;        \n        bool isActive;\n        bool exist;        \n    }\n\n    /**\n     * @dev Structure of Bridge\n     * @notice Feature_V2 \n     */\n    struct Bridge {\n        string description;\n        string url;   \n        string info;        \n        address techMasterAddress;     \n        bool isActive;\n        bool exist;        \n    }\n\n    /**\n     * @dev Structure of TypeMeasure\n     * @notice Feature_V2 \n     */\n    struct TypeMeasure{\n\t    string description;\n        string info;\n        bool isActive;\n\t    bool isAllowed;\n        bool exist;        \n    }\n\n    event LedgerUpdate(string _message, address _target, address _author);  \n    event TypeMeasureUpdate(string _message, bytes8 _target, address _author);  \n  \n    modifier onlyTechMaster() {\n        require (_techMasters[msg.sender].exist || owner() ==  msg.sender, \"Access denied\");\n        _;\n    }\n\n    mapping(address => Customer) public _customers; \n    mapping(address => Legislator) public _legislators; \n    mapping(address => TechMaster) public _techMasters;\n    mapping(address => Bridge) public _bridges;\n    mapping(bytes8 => TypeMeasure) public _typeMeasures;\n\n    address public ecpTokenAddress;\n    IECPToken private _ECPToken;\n\n    constructor (address _ecpTokenAddress) {\n        ecpTokenAddress = _ecpTokenAddress;\n        _ECPToken = IECPToken(_ecpTokenAddress);\n    }    \n\n     /**\n     * @dev set a Customer\n     * @param _description string description of a Customer\n     * @param _customerAddress address Customer's address\n     * @param _contractAddress address contract's address\n     * @param _siretNumber uint Customer's siretNumber\n     * @param _isActive bool Customer's status : active / inactive\n     */\n    function setCustomer (\n        string memory _description,\n        address _customerAddress, \n        address _contractAddress,\n        uint _siretNumber,\n        bool _isActive) \n        onlyOwner() external {\n\n        if(!_customers[_customerAddress].exist){\n            emit LedgerUpdate(\"New Customer\", _customerAddress, msg.sender);\n        }else{\n            emit LedgerUpdate(\"Update Customer\", _customerAddress, msg.sender);\n        }\n\n        _customers[_customerAddress] = Customer(\n        _description,\n        _contractAddress,         \n        _siretNumber,\n        _isActive, \n        true);\n    }\n\n     /**\n     * @dev set a Legislator\n     * @param _description string description of a Legislator\n     * @param _legislatorAddress address Legislator's address\n     * @param _siretNumber uint Legislator's siretNumber\n     * @param _isActive bool Legislator's status : active / inactive\n     */\n    function setLegislator (\n        string memory _description,        \n        address _legislatorAddress,\n        uint _siretNumber,\n        bool _isActive) \n        onlyOwner() external {\n\n        if(!_legislators[_legislatorAddress].exist){\n            emit LedgerUpdate(\"New Legislator\", _legislatorAddress, msg.sender);\n        }else{\n            emit LedgerUpdate(\"Update Legislator\", _legislatorAddress, msg.sender);\n        }\n\n        _legislators[_legislatorAddress] = Legislator(\n        _description,\n        _siretNumber,\n        _isActive,\n        true);   \n    }    \n\n     /**\n     * @dev set a TechMaster\n     * @param _description string description of a TechMaster\n     * @param _techMasterAddress address TechMaster's address\n     * @param _siretNumber uint TechMaster's siretNumber\n     * @param _isActive bool TechMaster's status : active / inactive\n     */\n    function setTechMaster (\n        string memory _description,\n        address _techMasterAddress,       \n        uint _siretNumber,\n        bool _isActive) \n        onlyOwner() external {\n\n        if(!_techMasters[_techMasterAddress].exist){\n            emit LedgerUpdate(\"New TechMaster\", _techMasterAddress, msg.sender);\n        }else{\n            emit LedgerUpdate(\"Update TechMaster\", _techMasterAddress, msg.sender);\n        }\n\n        _techMasters[_techMasterAddress] = TechMaster(\n        _description,\n        _siretNumber,\n        _isActive,\n        true);\n    }    \n\n     /**\n     * @dev set a Bridge\n     * @param _description string description of a Bridge\n     * @param _url string url of a Bridge\n     * @param _info string info regarding a Bridge\n     * @param _bridgeAddress address Bridge's address\n     * @param _techMasterAddress address TechMaster's address\n     * @param _isActive bool TechMaster's status : active / inactive\n     */\n    function setBridge (\n        string memory _description,\n        string memory _url, \n        string memory _info,               \n        address _bridgeAddress,\n        address _techMasterAddress,       \n        bool _isActive) \n        onlyTechMaster() external {\n\n        if(!_bridges[_bridgeAddress].exist){\n            emit LedgerUpdate(\"New Bridge\", _bridgeAddress, msg.sender);\n        }else{\n            require(_bridges[_bridgeAddress].techMasterAddress == msg.sender || owner()==msg.sender, \"Access denied\");\n            emit LedgerUpdate(\"Update Bridge\", _bridgeAddress, msg.sender);\n        }\n\n        if(owner()!=msg.sender){\n            _techMasterAddress = msg.sender;\n        }\n\n        _bridges[_bridgeAddress] = Bridge(\n        _description,\n        _url,        \n        _info,\n        _techMasterAddress,\n        _isActive,\n        true);\n    } \n\n     /**\n     * @dev set a TypeMeasure\n     * @param _description string description of a TypeMeasure\n     * @param _info string info regarding a TypeMeasure\n     * @param _codeMeasure bytes8 TypeMeasure's code\n     * @param _isActive bool TechMaster's status : active / inactive \n     * @param _isAllowed bool TypeMeasure's authorization status\n     */    \n    function setTypeMeasure (\n        string memory _description,\n        string memory _info,\n        bytes8 _codeMeasure,\n        bool _isActive,\n        bool _isAllowed) \n        onlyOwner() external {  \n\n        if(!_typeMeasures[_codeMeasure].exist){\n            emit TypeMeasureUpdate(\"New TypeMeasure\", _codeMeasure, msg.sender);\n        }else{\n            emit TypeMeasureUpdate(\"Update TypeMeasure\", _codeMeasure, msg.sender);\n        }\n\n        _typeMeasures[_codeMeasure] = TypeMeasure(\n        _description,\n        _info,\n        _isActive,\n        _isAllowed,\n        true);\n    }    \n\n     /**\n     * @dev allows the dApp to mint ECP if is owner\n     * @param _target address of mint recever\n     * @param _amount uint user's type \n     */ \n    function mintECP ( \n        address _target,             \n        uint _amount) \n        onlyOwner() external {\n\n        _ECPToken.ownerMint (_target, _amount);\n    }\n\n     /**\n     * @dev allows the dApp to mint ECP if is owner\n     * @param _customerAddress address of mint recever\n     * @param _amount uint user's type \n     */ \n    function sendClientToken ( \n        address _customerAddress,             \n        uint _amount) \n        onlyOwner() external {\n\n        require(_customers[_customerAddress].exist, \"Customer not exist\"); \n\n        if(_ECPToken.balanceOf(address(this)) < _amount){\n            _ECPToken.ownerMint (_customers[_customerAddress].contractAddress, _amount);\n        }else{\n            _ECPToken.transfer(_customers[_customerAddress].contractAddress, _amount);\n        }\n    }\n\n     /**\n     * @dev allows the dApp to process user's type and display the correct interface\n     * @param _myTypeUser uint user's type \n     */  \n    function rootingApps()\n        external view returns(uint _myTypeUser){\n        /*\n            1 : Admin\n            2 : Client\n            3 : Lgislateur\n            4 : Techmaster\n            5 : Public\n        */\n        if(msg.sender == owner()){\n            return 1;\n        }\n        if(_customers[msg.sender].exist){\n            return 2;\n        }\n        if(_legislators[msg.sender].exist){\n            return 3;\n        }\n        if(_techMasters[msg.sender].exist){\n            return 4;\n        }\n        return 5;\n    }\n}\n",
  "sourcePath": "/Users/Edouard/Documents/GitHub/eco-capt/contracts/LedgerContract.sol",
  "compiler": {
    "name": "solc",
    "version": "0.8.0+commit.c7dfd78e.Emscripten.clang"
  },
  "schemaVersion": "3.3.4",
  "updatedAt": "2021-04-26T13:30:45.749Z",
  "networkType": "ethereum",
  "devdoc": {
    "kind": "dev",
    "methods": {
      "mintECP(address,uint256)": {
        "details": "allows the dApp to mint ECP if is owner",
        "params": {
          "_amount": "uint user's type ",
          "_target": "address of mint recever"
        }
      },
      "owner()": {
        "details": "Returns the address of the current owner."
      },
      "renounceOwnership()": {
        "details": "Leaves the contract without owner. It will not be possible to call `onlyOwner` functions anymore. Can only be called by the current owner. NOTE: Renouncing ownership will leave the contract without an owner, thereby removing any functionality that is only available to the owner."
      },
      "rootingApps()": {
        "details": "allows the dApp to process user's type and display the correct interface",
        "params": {
          "_myTypeUser": "uint user's type "
        }
      },
      "sendClientToken(address,uint256)": {
        "details": "allows the dApp to mint ECP if is owner",
        "params": {
          "_amount": "uint user's type ",
          "_customerAddress": "address of mint recever"
        }
      },
      "setBridge(string,string,string,address,address,bool)": {
        "details": "set a Bridge",
        "params": {
          "_bridgeAddress": "address Bridge's address",
          "_description": "string description of a Bridge",
          "_info": "string info regarding a Bridge",
          "_isActive": "bool TechMaster's status : active / inactive",
          "_techMasterAddress": "address TechMaster's address",
          "_url": "string url of a Bridge"
        }
      },
      "setCustomer(string,address,address,uint256,bool)": {
        "details": "set a Customer",
        "params": {
          "_contractAddress": "address contract's address",
          "_customerAddress": "address Customer's address",
          "_description": "string description of a Customer",
          "_isActive": "bool Customer's status : active / inactive",
          "_siretNumber": "uint Customer's siretNumber"
        }
      },
      "setLegislator(string,address,uint256,bool)": {
        "details": "set a Legislator",
        "params": {
          "_description": "string description of a Legislator",
          "_isActive": "bool Legislator's status : active / inactive",
          "_legislatorAddress": "address Legislator's address",
          "_siretNumber": "uint Legislator's siretNumber"
        }
      },
      "setTechMaster(string,address,uint256,bool)": {
        "details": "set a TechMaster",
        "params": {
          "_description": "string description of a TechMaster",
          "_isActive": "bool TechMaster's status : active / inactive",
          "_siretNumber": "uint TechMaster's siretNumber",
          "_techMasterAddress": "address TechMaster's address"
        }
      },
      "setTypeMeasure(string,string,bytes8,bool,bool)": {
        "details": "set a TypeMeasure",
        "params": {
          "_codeMeasure": "bytes8 TypeMeasure's code",
          "_description": "string description of a TypeMeasure",
          "_info": "string info regarding a TypeMeasure",
          "_isActive": "bool TechMaster's status : active / inactive ",
          "_isAllowed": "bool TypeMeasure's authorization status"
        }
      },
      "transferOwnership(address)": {
        "details": "Transfers ownership of the contract to a new account (`newOwner`). Can only be called by the current owner."
      }
    },
    "version": 1
  },
  "userdoc": {
    "kind": "user",
    "methods": {},
    "version": 1
  }
}