{
  "contractName": "LedgerContract",
  "abi": [
    {
      "inputs": [
        {
          "internalType": "address",
          "name": "_ecpTokenAddress",
          "type": "address"
        }
      ],
      "stateMutability": "nonpayable",
      "type": "constructor"
    },
    {
      "anonymous": false,
      "inputs": [
        {
          "indexed": false,
          "internalType": "string",
          "name": "_message",
          "type": "string"
        },
        {
          "indexed": false,
          "internalType": "address",
          "name": "_target",
          "type": "address"
        },
        {
          "indexed": false,
          "internalType": "address",
          "name": "_author",
          "type": "address"
        }
      ],
      "name": "LedgerUpdate",
      "type": "event"
    },
    {
      "anonymous": false,
      "inputs": [
        {
          "indexed": true,
          "internalType": "address",
          "name": "previousOwner",
          "type": "address"
        },
        {
          "indexed": true,
          "internalType": "address",
          "name": "newOwner",
          "type": "address"
        }
      ],
      "name": "OwnershipTransferred",
      "type": "event"
    },
    {
      "anonymous": false,
      "inputs": [
        {
          "indexed": false,
          "internalType": "string",
          "name": "_message",
          "type": "string"
        },
        {
          "indexed": false,
          "internalType": "bytes8",
          "name": "_target",
          "type": "bytes8"
        },
        {
          "indexed": false,
          "internalType": "address",
          "name": "_author",
          "type": "address"
        }
      ],
      "name": "TypeMeasureUpdate",
      "type": "event"
    },
    {
      "inputs": [
        {
          "internalType": "address",
          "name": "",
          "type": "address"
        }
      ],
      "name": "_bridges",
      "outputs": [
        {
          "internalType": "string",
          "name": "description",
          "type": "string"
        },
        {
          "internalType": "string",
          "name": "url",
          "type": "string"
        },
        {
          "internalType": "string",
          "name": "info",
          "type": "string"
        },
        {
          "internalType": "address",
          "name": "techMasterAddress",
          "type": "address"
        },
        {
          "internalType": "bool",
          "name": "isActive",
          "type": "bool"
        },
        {
          "internalType": "bool",
          "name": "exist",
          "type": "bool"
        }
      ],
      "stateMutability": "view",
      "type": "function",
      "constant": true
    },
    {
      "inputs": [
        {
          "internalType": "address",
          "name": "",
          "type": "address"
        }
      ],
      "name": "_customers",
      "outputs": [
        {
          "internalType": "string",
          "name": "description",
          "type": "string"
        },
        {
          "internalType": "address",
          "name": "contractAddress",
          "type": "address"
        },
        {
          "internalType": "uint256",
          "name": "siretNumber",
          "type": "uint256"
        },
        {
          "internalType": "bool",
          "name": "isActive",
          "type": "bool"
        },
        {
          "internalType": "bool",
          "name": "exist",
          "type": "bool"
        }
      ],
      "stateMutability": "view",
      "type": "function",
      "constant": true
    },
    {
      "inputs": [
        {
          "internalType": "address",
          "name": "",
          "type": "address"
        }
      ],
      "name": "_legislators",
      "outputs": [
        {
          "internalType": "string",
          "name": "description",
          "type": "string"
        },
        {
          "internalType": "uint256",
          "name": "siretNumber",
          "type": "uint256"
        },
        {
          "internalType": "bool",
          "name": "isActive",
          "type": "bool"
        },
        {
          "internalType": "bool",
          "name": "exist",
          "type": "bool"
        }
      ],
      "stateMutability": "view",
      "type": "function",
      "constant": true
    },
    {
      "inputs": [
        {
          "internalType": "address",
          "name": "",
          "type": "address"
        }
      ],
      "name": "_techMasters",
      "outputs": [
        {
          "internalType": "string",
          "name": "description",
          "type": "string"
        },
        {
          "internalType": "uint256",
          "name": "siretNumber",
          "type": "uint256"
        },
        {
          "internalType": "bool",
          "name": "isActive",
          "type": "bool"
        },
        {
          "internalType": "bool",
          "name": "exist",
          "type": "bool"
        }
      ],
      "stateMutability": "view",
      "type": "function",
      "constant": true
    },
    {
      "inputs": [
        {
          "internalType": "bytes8",
          "name": "",
          "type": "bytes8"
        }
      ],
      "name": "_typeMeasures",
      "outputs": [
        {
          "internalType": "string",
          "name": "description",
          "type": "string"
        },
        {
          "internalType": "string",
          "name": "info",
          "type": "string"
        },
        {
          "internalType": "bool",
          "name": "isActive",
          "type": "bool"
        },
        {
          "internalType": "bool",
          "name": "isAllowed",
          "type": "bool"
        },
        {
          "internalType": "bool",
          "name": "exist",
          "type": "bool"
        }
      ],
      "stateMutability": "view",
      "type": "function",
      "constant": true
    },
    {
      "inputs": [],
      "name": "ecpTokenAddress",
      "outputs": [
        {
          "internalType": "address",
          "name": "",
          "type": "address"
        }
      ],
      "stateMutability": "view",
      "type": "function",
      "constant": true
    },
    {
      "inputs": [],
      "name": "owner",
      "outputs": [
        {
          "internalType": "address",
          "name": "",
          "type": "address"
        }
      ],
      "stateMutability": "view",
      "type": "function",
      "constant": true
    },
    {
      "inputs": [],
      "name": "renounceOwnership",
      "outputs": [],
      "stateMutability": "nonpayable",
      "type": "function"
    },
    {
      "inputs": [
        {
          "internalType": "address",
          "name": "newOwner",
          "type": "address"
        }
      ],
      "name": "transferOwnership",
      "outputs": [],
      "stateMutability": "nonpayable",
      "type": "function"
    },
    {
      "inputs": [
        {
          "internalType": "string",
          "name": "_description",
          "type": "string"
        },
        {
          "internalType": "address",
          "name": "_customerAddress",
          "type": "address"
        },
        {
          "internalType": "address",
          "name": "_contractAddress",
          "type": "address"
        },
        {
          "internalType": "uint256",
          "name": "_siretNumber",
          "type": "uint256"
        },
        {
          "internalType": "bool",
          "name": "_isActive",
          "type": "bool"
        }
      ],
      "name": "setCustomer",
      "outputs": [],
      "stateMutability": "nonpayable",
      "type": "function"
    },
    {
      "inputs": [
        {
          "internalType": "string",
          "name": "_description",
          "type": "string"
        },
        {
          "internalType": "address",
          "name": "_legislatorAddress",
          "type": "address"
        },
        {
          "internalType": "uint256",
          "name": "_siretNumber",
          "type": "uint256"
        },
        {
          "internalType": "bool",
          "name": "_isActive",
          "type": "bool"
        }
      ],
      "name": "setLegislator",
      "outputs": [],
      "stateMutability": "nonpayable",
      "type": "function"
    },
    {
      "inputs": [
        {
          "internalType": "string",
          "name": "_description",
          "type": "string"
        },
        {
          "internalType": "address",
          "name": "_techMasterAddress",
          "type": "address"
        },
        {
          "internalType": "uint256",
          "name": "_siretNumber",
          "type": "uint256"
        },
        {
          "internalType": "bool",
          "name": "_isActive",
          "type": "bool"
        }
      ],
      "name": "setTechMaster",
      "outputs": [],
      "stateMutability": "nonpayable",
      "type": "function"
    },
    {
      "inputs": [
        {
          "internalType": "string",
          "name": "_description",
          "type": "string"
        },
        {
          "internalType": "string",
          "name": "_url",
          "type": "string"
        },
        {
          "internalType": "string",
          "name": "_info",
          "type": "string"
        },
        {
          "internalType": "address",
          "name": "_bridgeAddress",
          "type": "address"
        },
        {
          "internalType": "address",
          "name": "_techMasterAddress",
          "type": "address"
        },
        {
          "internalType": "bool",
          "name": "_isActive",
          "type": "bool"
        }
      ],
      "name": "setBridge",
      "outputs": [],
      "stateMutability": "nonpayable",
      "type": "function"
    },
    {
      "inputs": [
        {
          "internalType": "string",
          "name": "_description",
          "type": "string"
        },
        {
          "internalType": "string",
          "name": "_info",
          "type": "string"
        },
        {
          "internalType": "bytes8",
          "name": "_codeMeasure",
          "type": "bytes8"
        },
        {
          "internalType": "bool",
          "name": "_isActive",
          "type": "bool"
        },
        {
          "internalType": "bool",
          "name": "_isAllowed",
          "type": "bool"
        }
      ],
      "name": "setTypeMeasure",
      "outputs": [],
      "stateMutability": "nonpayable",
      "type": "function"
    },
    {
      "inputs": [
        {
          "internalType": "address",
          "name": "_target",
          "type": "address"
        },
        {
          "internalType": "uint256",
          "name": "_amount",
          "type": "uint256"
        }
      ],
      "name": "mintECP",
      "outputs": [],
      "stateMutability": "nonpayable",
      "type": "function"
    },
    {
      "inputs": [
        {
          "internalType": "address",
          "name": "_customerAddress",
          "type": "address"
        },
        {
          "internalType": "uint256",
          "name": "_amount",
          "type": "uint256"
        }
      ],
      "name": "sendClientToken",
      "outputs": [],
      "stateMutability": "nonpayable",
      "type": "function"
    },
    {
      "inputs": [
        {
          "internalType": "address",
          "name": "_userAddress",
          "type": "address"
        }
      ],
      "name": "rootingApps",
      "outputs": [
        {
          "internalType": "uint256",
          "name": "_myTypeUser",
          "type": "uint256"
        }
      ],
      "stateMutability": "view",
      "type": "function",
      "constant": true
    }
  ],
  "bytecode": "0x60806040523480156200001157600080fd5b50604051620038073803806200380783398181016040528101906200003791906200018f565b6000620000496200017060201b60201c565b9050806000806101000a81548173ffffffffffffffffffffffffffffffffffffffff021916908373ffffffffffffffffffffffffffffffffffffffff1602179055508073ffffffffffffffffffffffffffffffffffffffff16600073ffffffffffffffffffffffffffffffffffffffff167f8be0079c531659141344cd1fd0a4f28419497f9722a3daafe3b4186f6b6457e060405160405180910390a35080600660006101000a81548173ffffffffffffffffffffffffffffffffffffffff021916908373ffffffffffffffffffffffffffffffffffffffff16021790555080600760006101000a81548173ffffffffffffffffffffffffffffffffffffffff021916908373ffffffffffffffffffffffffffffffffffffffff1602179055505062000209565b600033905090565b6000815190506200018981620001ef565b92915050565b600060208284031215620001a257600080fd5b6000620001b28482850162000178565b91505092915050565b6000620001c882620001cf565b9050919050565b600073ffffffffffffffffffffffffffffffffffffffff82169050919050565b620001fa81620001bb565b81146200020657600080fd5b50565b6135ee80620002196000396000f3fe608060405234801561001057600080fd5b506004361061010b5760003560e01c8063b54251b5116100a2578063e6542e5311610071578063e6542e531461029a578063e6942760146102b6578063e738d199146102ea578063f2fde38b1461031d578063fb36802f146103395761010b565b8063b54251b5146101e2578063b8c500e514610215578063c29f7ba31461024a578063e20cd9511461027e5761010b565b80635ec6b759116100de5780635ec6b75914610180578063715018a61461019e5780638da5cb5b146101a85780639e53c891146101c65761010b565b80631503b19f14610110578063231fbb8e1461012c57806358d86746146101485780635e42705a14610164575b600080fd5b61012a6004803603810190610125919061289d565b610369565b005b61014660048036038101906101419190612780565b610586565b005b610162600480360381019061015d91906129bf565b610971565b005b61017e6004803603810190610179919061280e565b610dc4565b005b610188611045565b6040516101959190612ed4565b60405180910390f35b6101a661106b565b005b6101b06111a5565b6040516101bd9190612ed4565b60405180910390f35b6101e060048036038101906101db9190612918565b6111ce565b005b6101fc60048036038101906101f79190612757565b61143b565b60405161020c9493929190613049565b60405180910390f35b61022f600480360381019061022a9190612757565b61150d565b60405161024196959493929190612fd3565b60405180910390f35b610264600480360381019061025f9190612757565b61171b565b604051610275959493929190612f18565b60405180910390f35b6102986004803603810190610293919061289d565b611813565b005b6102b460048036038101906102af9190612780565b611a30565b005b6102d060048036038101906102cb91906127e5565b611b60565b6040516102e1959493929190612f72565b60405180910390f35b61030460048036038101906102ff9190612757565b611ccd565b6040516103149493929190613049565b60405180910390f35b61033760048036038101906103329190612757565b611d9f565b005b610353600480360381019061034e9190612757565b611f48565b604051610360919061336d565b60405180910390f35b6103716125c6565b73ffffffffffffffffffffffffffffffffffffffff1661038f6111a5565b73ffffffffffffffffffffffffffffffffffffffff16146103e5576040517f08c379a00000000000000000000000000000000000000000000000000000000081526004016103dc9061321d565b60405180910390fd5b600360008473ffffffffffffffffffffffffffffffffffffffff1673ffffffffffffffffffffffffffffffffffffffff16815260200190815260200160002060020160019054906101000a900460ff16610477577fbf4ae51d8c0eda5cf0cccfde45fa35ea3a741a7f35b5f3d24dd2196b6eaab828833360405161046a92919061312d565b60405180910390a16104b1565b7fbf4ae51d8c0eda5cf0cccfde45fa35ea3a741a7f35b5f3d24dd2196b6eaab82883336040516104a89291906130d1565b60405180910390a15b6040518060800160405280858152602001838152602001821515815260200160011515815250600360008573ffffffffffffffffffffffffffffffffffffffff1673ffffffffffffffffffffffffffffffffffffffff16815260200190815260200160002060008201518160000190805190602001906105329291906125ce565b506020820151816001015560408201518160020160006101000a81548160ff02191690831515021790555060608201518160020160016101000a81548160ff02191690831515021790555090505050505050565b61058e6125c6565b73ffffffffffffffffffffffffffffffffffffffff166105ac6111a5565b73ffffffffffffffffffffffffffffffffffffffff1614610602576040517f08c379a00000000000000000000000000000000000000000000000000000000081526004016105f99061321d565b60405180910390fd5b600160008373ffffffffffffffffffffffffffffffffffffffff1673ffffffffffffffffffffffffffffffffffffffff16815260200190815260200160002060030160019054906101000a900460ff16610691576040517f08c379a00000000000000000000000000000000000000000000000000000000081526004016106889061323d565b60405180910390fd5b80600760009054906101000a900473ffffffffffffffffffffffffffffffffffffffff1673ffffffffffffffffffffffffffffffffffffffff166370a08231306040518263ffffffff1660e01b81526004016106ed9190612ed4565b60206040518083038186803b15801561070557600080fd5b505afa158015610719573d6000803e3d6000fd5b505050506040513d601f19601f8201168201806040525081019061073d9190612a90565b101561085a57600760009054906101000a900473ffffffffffffffffffffffffffffffffffffffff1673ffffffffffffffffffffffffffffffffffffffff1663484b973c600160008573ffffffffffffffffffffffffffffffffffffffff1673ffffffffffffffffffffffffffffffffffffffff16815260200190815260200160002060010160009054906101000a900473ffffffffffffffffffffffffffffffffffffffff16836040518363ffffffff1660e01b8152600401610802929190612eef565b602060405180830381600087803b15801561081c57600080fd5b505af1158015610830573d6000803e3d6000fd5b505050506040513d601f19601f8201168201806040525081019061085491906127bc565b5061096d565b600760009054906101000a900473ffffffffffffffffffffffffffffffffffffffff1673ffffffffffffffffffffffffffffffffffffffff1663a9059cbb600160008573ffffffffffffffffffffffffffffffffffffffff1673ffffffffffffffffffffffffffffffffffffffff16815260200190815260200160002060010160009054906101000a900473ffffffffffffffffffffffffffffffffffffffff16836040518363ffffffff1660e01b8152600401610919929190612eef565b602060405180830381600087803b15801561093357600080fd5b505af1158015610947573d6000803e3d6000fd5b505050506040513d601f19601f8201168201806040525081019061096b91906127bc565b505b5050565b600360003373ffffffffffffffffffffffffffffffffffffffff1673ffffffffffffffffffffffffffffffffffffffff16815260200190815260200160002060020160019054906101000a900460ff16806109fe57503373ffffffffffffffffffffffffffffffffffffffff166109e66111a5565b73ffffffffffffffffffffffffffffffffffffffff16145b610a3d576040517f08c379a0000000000000000000000000000000000000000000000000000000008152600401610a349061334d565b60405180910390fd5b600460008473ffffffffffffffffffffffffffffffffffffffff1673ffffffffffffffffffffffffffffffffffffffff16815260200190815260200160002060030160159054906101000a900460ff16610acf577fbf4ae51d8c0eda5cf0cccfde45fa35ea3a741a7f35b5f3d24dd2196b6eaab8288333604051610ac29291906132d5565b60405180910390a1610c16565b3373ffffffffffffffffffffffffffffffffffffffff16600460008573ffffffffffffffffffffffffffffffffffffffff1673ffffffffffffffffffffffffffffffffffffffff16815260200190815260200160002060030160009054906101000a900473ffffffffffffffffffffffffffffffffffffffff1673ffffffffffffffffffffffffffffffffffffffff161480610b9d57503373ffffffffffffffffffffffffffffffffffffffff16610b856111a5565b73ffffffffffffffffffffffffffffffffffffffff16145b610bdc576040517f08c379a0000000000000000000000000000000000000000000000000000000008152600401610bd39061334d565b60405180910390fd5b7fbf4ae51d8c0eda5cf0cccfde45fa35ea3a741a7f35b5f3d24dd2196b6eaab8288333604051610c0d929190613169565b60405180910390a15b3373ffffffffffffffffffffffffffffffffffffffff16610c356111a5565b73ffffffffffffffffffffffffffffffffffffffff1614610c54573391505b6040518060c001604052808781526020018681526020018581526020018373ffffffffffffffffffffffffffffffffffffffff168152602001821515815260200160011515815250600460008573ffffffffffffffffffffffffffffffffffffffff1673ffffffffffffffffffffffffffffffffffffffff1681526020019081526020016000206000820151816000019080519060200190610cf79291906125ce565b506020820151816001019080519060200190610d149291906125ce565b506040820151816002019080519060200190610d319291906125ce565b5060608201518160030160006101000a81548173ffffffffffffffffffffffffffffffffffffffff021916908373ffffffffffffffffffffffffffffffffffffffff16021790555060808201518160030160146101000a81548160ff02191690831515021790555060a08201518160030160156101000a81548160ff021916908315150217905550905050505050505050565b610dcc6125c6565b73ffffffffffffffffffffffffffffffffffffffff16610dea6111a5565b73ffffffffffffffffffffffffffffffffffffffff1614610e40576040517f08c379a0000000000000000000000000000000000000000000000000000000008152600401610e379061321d565b60405180910390fd5b600160008573ffffffffffffffffffffffffffffffffffffffff1673ffffffffffffffffffffffffffffffffffffffff16815260200190815260200160002060030160019054906101000a900460ff16610ed2577fbf4ae51d8c0eda5cf0cccfde45fa35ea3a741a7f35b5f3d24dd2196b6eaab8288433604051610ec5929190613311565b60405180910390a1610f0c565b7fbf4ae51d8c0eda5cf0cccfde45fa35ea3a741a7f35b5f3d24dd2196b6eaab8288433604051610f0392919061325d565b60405180910390a15b6040518060a001604052808681526020018473ffffffffffffffffffffffffffffffffffffffff168152602001838152602001821515815260200160011515815250600160008673ffffffffffffffffffffffffffffffffffffffff1673ffffffffffffffffffffffffffffffffffffffff1681526020019081526020016000206000820151816000019080519060200190610fa99291906125ce565b5060208201518160010160006101000a81548173ffffffffffffffffffffffffffffffffffffffff021916908373ffffffffffffffffffffffffffffffffffffffff1602179055506040820151816002015560608201518160030160006101000a81548160ff02191690831515021790555060808201518160030160016101000a81548160ff0219169083151502179055509050505050505050565b600660009054906101000a900473ffffffffffffffffffffffffffffffffffffffff1681565b6110736125c6565b73ffffffffffffffffffffffffffffffffffffffff166110916111a5565b73ffffffffffffffffffffffffffffffffffffffff16146110e7576040517f08c379a00000000000000000000000000000000000000000000000000000000081526004016110de9061321d565b60405180910390fd5b600073ffffffffffffffffffffffffffffffffffffffff1660008054906101000a900473ffffffffffffffffffffffffffffffffffffffff1673ffffffffffffffffffffffffffffffffffffffff167f8be0079c531659141344cd1fd0a4f28419497f9722a3daafe3b4186f6b6457e060405160405180910390a360008060006101000a81548173ffffffffffffffffffffffffffffffffffffffff021916908373ffffffffffffffffffffffffffffffffffffffff160217905550565b60008060009054906101000a900473ffffffffffffffffffffffffffffffffffffffff16905090565b6111d66125c6565b73ffffffffffffffffffffffffffffffffffffffff166111f46111a5565b73ffffffffffffffffffffffffffffffffffffffff161461124a576040517f08c379a00000000000000000000000000000000000000000000000000000000081526004016112419061321d565b60405180910390fd5b600560008477ffffffffffffffffffffffffffffffffffffffffffffffff191677ffffffffffffffffffffffffffffffffffffffffffffffff1916815260200190815260200160002060020160029054906101000a900460ff166112e6577ffd28b00c124636c5ca6e4dcc21b05bb735fe07af43e9c2cd98c4aa673a70635083336040516112d9929190613299565b60405180910390a1611320565b7ffd28b00c124636c5ca6e4dcc21b05bb735fe07af43e9c2cd98c4aa673a70635083336040516113179291906131a5565b60405180910390a15b6040518060a001604052808681526020018581526020018315158152602001821515815260200160011515815250600560008577ffffffffffffffffffffffffffffffffffffffffffffffff191677ffffffffffffffffffffffffffffffffffffffffffffffff1916815260200190815260200160002060008201518160000190805190602001906113b39291906125ce565b5060208201518160010190805190602001906113d09291906125ce565b5060408201518160020160006101000a81548160ff02191690831515021790555060608201518160020160016101000a81548160ff02191690831515021790555060808201518160020160026101000a81548160ff0219169083151502179055509050505050505050565b600260205280600052604060002060009150905080600001805461145e906134bb565b80601f016020809104026020016040519081016040528092919081815260200182805461148a906134bb565b80156114d75780601f106114ac576101008083540402835291602001916114d7565b820191906000526020600020905b8154815290600101906020018083116114ba57829003601f168201915b5050505050908060010154908060020160009054906101000a900460ff16908060020160019054906101000a900460ff16905084565b6004602052806000526040600020600091509050806000018054611530906134bb565b80601f016020809104026020016040519081016040528092919081815260200182805461155c906134bb565b80156115a95780601f1061157e576101008083540402835291602001916115a9565b820191906000526020600020905b81548152906001019060200180831161158c57829003601f168201915b5050505050908060010180546115be906134bb565b80601f01602080910402602001604051908101604052809291908181526020018280546115ea906134bb565b80156116375780601f1061160c57610100808354040283529160200191611637565b820191906000526020600020905b81548152906001019060200180831161161a57829003601f168201915b50505050509080600201805461164c906134bb565b80601f0160208091040260200160405190810160405280929190818152602001828054611678906134bb565b80156116c55780601f1061169a576101008083540402835291602001916116c5565b820191906000526020600020905b8154815290600101906020018083116116a857829003601f168201915b5050505050908060030160009054906101000a900473ffffffffffffffffffffffffffffffffffffffff16908060030160149054906101000a900460ff16908060030160159054906101000a900460ff16905086565b600160205280600052604060002060009150905080600001805461173e906134bb565b80601f016020809104026020016040519081016040528092919081815260200182805461176a906134bb565b80156117b75780601f1061178c576101008083540402835291602001916117b7565b820191906000526020600020905b81548152906001019060200180831161179a57829003601f168201915b5050505050908060010160009054906101000a900473ffffffffffffffffffffffffffffffffffffffff16908060020154908060030160009054906101000a900460ff16908060030160019054906101000a900460ff16905085565b61181b6125c6565b73ffffffffffffffffffffffffffffffffffffffff166118396111a5565b73ffffffffffffffffffffffffffffffffffffffff161461188f576040517f08c379a00000000000000000000000000000000000000000000000000000000081526004016118869061321d565b60405180910390fd5b600260008473ffffffffffffffffffffffffffffffffffffffff1673ffffffffffffffffffffffffffffffffffffffff16815260200190815260200160002060020160019054906101000a900460ff16611921577fbf4ae51d8c0eda5cf0cccfde45fa35ea3a741a7f35b5f3d24dd2196b6eaab82883336040516119149291906131e1565b60405180910390a161195b565b7fbf4ae51d8c0eda5cf0cccfde45fa35ea3a741a7f35b5f3d24dd2196b6eaab8288333604051611952929190613095565b60405180910390a15b6040518060800160405280858152602001838152602001821515815260200160011515815250600260008573ffffffffffffffffffffffffffffffffffffffff1673ffffffffffffffffffffffffffffffffffffffff16815260200190815260200160002060008201518160000190805190602001906119dc9291906125ce565b506020820151816001015560408201518160020160006101000a81548160ff02191690831515021790555060608201518160020160016101000a81548160ff02191690831515021790555090505050505050565b611a386125c6565b73ffffffffffffffffffffffffffffffffffffffff16611a566111a5565b73ffffffffffffffffffffffffffffffffffffffff1614611aac576040517f08c379a0000000000000000000000000000000000000000000000000000000008152600401611aa39061321d565b60405180910390fd5b600760009054906101000a900473ffffffffffffffffffffffffffffffffffffffff1673ffffffffffffffffffffffffffffffffffffffff1663484b973c83836040518363ffffffff1660e01b8152600401611b09929190612eef565b602060405180830381600087803b158015611b2357600080fd5b505af1158015611b37573d6000803e3d6000fd5b505050506040513d601f19601f82011682018060405250810190611b5b91906127bc565b505050565b6005602052806000526040600020600091509050806000018054611b83906134bb565b80601f0160208091040260200160405190810160405280929190818152602001828054611baf906134bb565b8015611bfc5780601f10611bd157610100808354040283529160200191611bfc565b820191906000526020600020905b815481529060010190602001808311611bdf57829003601f168201915b505050505090806001018054611c11906134bb565b80601f0160208091040260200160405190810160405280929190818152602001828054611c3d906134bb565b8015611c8a5780601f10611c5f57610100808354040283529160200191611c8a565b820191906000526020600020905b815481529060010190602001808311611c6d57829003601f168201915b5050505050908060020160009054906101000a900460ff16908060020160019054906101000a900460ff16908060020160029054906101000a900460ff16905085565b6003602052806000526040600020600091509050806000018054611cf0906134bb565b80601f0160208091040260200160405190810160405280929190818152602001828054611d1c906134bb565b8015611d695780601f10611d3e57610100808354040283529160200191611d69565b820191906000526020600020905b815481529060010190602001808311611d4c57829003601f168201915b5050505050908060010154908060020160009054906101000a900460ff16908060020160019054906101000a900460ff16905084565b611da76125c6565b73ffffffffffffffffffffffffffffffffffffffff16611dc56111a5565b73ffffffffffffffffffffffffffffffffffffffff1614611e1b576040517f08c379a0000000000000000000000000000000000000000000000000000000008152600401611e129061321d565b60405180910390fd5b600073ffffffffffffffffffffffffffffffffffffffff168173ffffffffffffffffffffffffffffffffffffffff161415611e8b576040517f08c379a0000000000000000000000000000000000000000000000000000000008152600401611e829061310d565b60405180910390fd5b8073ffffffffffffffffffffffffffffffffffffffff1660008054906101000a900473ffffffffffffffffffffffffffffffffffffffff1673ffffffffffffffffffffffffffffffffffffffff167f8be0079c531659141344cd1fd0a4f28419497f9722a3daafe3b4186f6b6457e060405160405180910390a3806000806101000a81548173ffffffffffffffffffffffffffffffffffffffff021916908373ffffffffffffffffffffffffffffffffffffffff16021790555050565b60008073ffffffffffffffffffffffffffffffffffffffff168273ffffffffffffffffffffffffffffffffffffffff16141561229f57611f866111a5565b73ffffffffffffffffffffffffffffffffffffffff163373ffffffffffffffffffffffffffffffffffffffff161415611fc257600190506125c1565b600160003373ffffffffffffffffffffffffffffffffffffffff1673ffffffffffffffffffffffffffffffffffffffff16815260200190815260200160002060030160019054906101000a900460ff16801561206a5750600160003373ffffffffffffffffffffffffffffffffffffffff1673ffffffffffffffffffffffffffffffffffffffff16815260200190815260200160002060030160009054906101000a900460ff165b1561207857600290506125c1565b600260003373ffffffffffffffffffffffffffffffffffffffff1673ffffffffffffffffffffffffffffffffffffffff16815260200190815260200160002060020160019054906101000a900460ff1680156121205750600260003373ffffffffffffffffffffffffffffffffffffffff1673ffffffffffffffffffffffffffffffffffffffff16815260200190815260200160002060020160009054906101000a900460ff165b1561212e57600390506125c1565b600360003373ffffffffffffffffffffffffffffffffffffffff1673ffffffffffffffffffffffffffffffffffffffff16815260200190815260200160002060020160019054906101000a900460ff1680156121d65750600360003373ffffffffffffffffffffffffffffffffffffffff1673ffffffffffffffffffffffffffffffffffffffff16815260200190815260200160002060020160009054906101000a900460ff165b156121e457600490506125c1565b600460003373ffffffffffffffffffffffffffffffffffffffff1673ffffffffffffffffffffffffffffffffffffffff16815260200190815260200160002060030160159054906101000a900460ff16801561228c5750600460003373ffffffffffffffffffffffffffffffffffffffff1673ffffffffffffffffffffffffffffffffffffffff16815260200190815260200160002060030160149054906101000a900460ff165b1561229a57600590506125c1565b6125bc565b6122a76111a5565b73ffffffffffffffffffffffffffffffffffffffff168273ffffffffffffffffffffffffffffffffffffffff1614156122e357600190506125c1565b600160008373ffffffffffffffffffffffffffffffffffffffff1673ffffffffffffffffffffffffffffffffffffffff16815260200190815260200160002060030160019054906101000a900460ff16801561238b5750600160008373ffffffffffffffffffffffffffffffffffffffff1673ffffffffffffffffffffffffffffffffffffffff16815260200190815260200160002060030160009054906101000a900460ff165b1561239957600290506125c1565b600260008373ffffffffffffffffffffffffffffffffffffffff1673ffffffffffffffffffffffffffffffffffffffff16815260200190815260200160002060020160019054906101000a900460ff1680156124415750600260008373ffffffffffffffffffffffffffffffffffffffff1673ffffffffffffffffffffffffffffffffffffffff16815260200190815260200160002060020160009054906101000a900460ff165b1561244f57600390506125c1565b600360008373ffffffffffffffffffffffffffffffffffffffff1673ffffffffffffffffffffffffffffffffffffffff16815260200190815260200160002060020160019054906101000a900460ff1680156124f75750600360008373ffffffffffffffffffffffffffffffffffffffff1673ffffffffffffffffffffffffffffffffffffffff16815260200190815260200160002060020160009054906101000a900460ff165b1561250557600490506125c1565b600460008373ffffffffffffffffffffffffffffffffffffffff1673ffffffffffffffffffffffffffffffffffffffff16815260200190815260200160002060030160159054906101000a900460ff1680156125ad5750600460008373ffffffffffffffffffffffffffffffffffffffff1673ffffffffffffffffffffffffffffffffffffffff16815260200190815260200160002060030160149054906101000a900460ff165b156125bb57600590506125c1565b5b600990505b919050565b600033905090565b8280546125da906134bb565b90600052602060002090601f0160209004810192826125fc5760008555612643565b82601f1061261557805160ff1916838001178555612643565b82800160010185558215612643579182015b82811115612642578251825591602001919060010190612627565b5b5090506126509190612654565b5090565b5b8082111561266d576000816000905550600101612655565b5090565b600061268461267f846133b9565b613388565b90508281526020810184848401111561269c57600080fd5b6126a7848285613479565b509392505050565b6000813590506126be8161355c565b92915050565b6000813590506126d381613573565b92915050565b6000815190506126e881613573565b92915050565b6000813590506126fd8161358a565b92915050565b600082601f83011261271457600080fd5b8135612724848260208601612671565b91505092915050565b60008135905061273c816135a1565b92915050565b600081519050612751816135a1565b92915050565b60006020828403121561276957600080fd5b6000612777848285016126af565b91505092915050565b6000806040838503121561279357600080fd5b60006127a1858286016126af565b92505060206127b28582860161272d565b9150509250929050565b6000602082840312156127ce57600080fd5b60006127dc848285016126d9565b91505092915050565b6000602082840312156127f757600080fd5b6000612805848285016126ee565b91505092915050565b600080600080600060a0868803121561282657600080fd5b600086013567ffffffffffffffff81111561284057600080fd5b61284c88828901612703565b955050602061285d888289016126af565b945050604061286e888289016126af565b935050606061287f8882890161272d565b9250506080612890888289016126c4565b9150509295509295909350565b600080600080608085870312156128b357600080fd5b600085013567ffffffffffffffff8111156128cd57600080fd5b6128d987828801612703565b94505060206128ea878288016126af565b93505060406128fb8782880161272d565b925050606061290c878288016126c4565b91505092959194509250565b600080600080600060a0868803121561293057600080fd5b600086013567ffffffffffffffff81111561294a57600080fd5b61295688828901612703565b955050602086013567ffffffffffffffff81111561297357600080fd5b61297f88828901612703565b9450506040612990888289016126ee565b93505060606129a1888289016126c4565b92505060806129b2888289016126c4565b9150509295509295909350565b60008060008060008060c087890312156129d857600080fd5b600087013567ffffffffffffffff8111156129f257600080fd5b6129fe89828a01612703565b965050602087013567ffffffffffffffff811115612a1b57600080fd5b612a2789828a01612703565b955050604087013567ffffffffffffffff811115612a4457600080fd5b612a5089828a01612703565b9450506060612a6189828a016126af565b9350506080612a7289828a016126af565b92505060a0612a8389828a016126c4565b9150509295509295509295565b600060208284031215612aa257600080fd5b6000612ab084828501612742565b91505092915050565b612ac281613405565b82525050565b612ad181613417565b82525050565b612ae081613423565b82525050565b6000612af1826133e9565b612afb81856133f4565b9350612b0b818560208601613488565b612b148161354b565b840191505092915050565b6000612b2c6011836133f4565b91507f557064617465204c656769736c61746f720000000000000000000000000000006000830152602082019050919050565b6000612b6c6011836133f4565b91507f55706461746520546563684d61737465720000000000000000000000000000006000830152602082019050919050565b6000612bac6026836133f4565b91507f4f776e61626c653a206e6577206f776e657220697320746865207a65726f206160008301527f64647265737300000000000000000000000000000000000000000000000000006020830152604082019050919050565b6000612c12600e836133f4565b91507f4e657720546563684d61737465720000000000000000000000000000000000006000830152602082019050919050565b6000612c52600d836133f4565b91507f55706461746520427269646765000000000000000000000000000000000000006000830152602082019050919050565b6000612c926012836133f4565b91507f55706461746520547970654d65617375726500000000000000000000000000006000830152602082019050919050565b6000612cd2600e836133f4565b91507f4e6577204c656769736c61746f720000000000000000000000000000000000006000830152602082019050919050565b6000612d126020836133f4565b91507f4f776e61626c653a2063616c6c6572206973206e6f7420746865206f776e65726000830152602082019050919050565b6000612d526012836133f4565b91507f437573746f6d6572206e6f7420657869737400000000000000000000000000006000830152602082019050919050565b6000612d92600f836133f4565b91507f55706461746520437573746f6d657200000000000000000000000000000000006000830152602082019050919050565b6000612dd2600f836133f4565b91507f4e657720547970654d65617375726500000000000000000000000000000000006000830152602082019050919050565b6000612e12600a836133f4565b91507f4e657720427269646765000000000000000000000000000000000000000000006000830152602082019050919050565b6000612e52600c836133f4565b91507f4e657720437573746f6d657200000000000000000000000000000000000000006000830152602082019050919050565b6000612e92600d836133f4565b91507f4163636573732064656e696564000000000000000000000000000000000000006000830152602082019050919050565b612ece8161346f565b82525050565b6000602082019050612ee96000830184612ab9565b92915050565b6000604082019050612f046000830185612ab9565b612f116020830184612ec5565b9392505050565b600060a0820190508181036000830152612f328188612ae6565b9050612f416020830187612ab9565b612f4e6040830186612ec5565b612f5b6060830185612ac8565b612f686080830184612ac8565b9695505050505050565b600060a0820190508181036000830152612f8c8188612ae6565b90508181036020830152612fa08187612ae6565b9050612faf6040830186612ac8565b612fbc6060830185612ac8565b612fc96080830184612ac8565b9695505050505050565b600060c0820190508181036000830152612fed8189612ae6565b905081810360208301526130018188612ae6565b905081810360408301526130158187612ae6565b90506130246060830186612ab9565b6130316080830185612ac8565b61303e60a0830184612ac8565b979650505050505050565b600060808201905081810360008301526130638187612ae6565b90506130726020830186612ec5565b61307f6040830185612ac8565b61308c6060830184612ac8565b95945050505050565b600060608201905081810360008301526130ae81612b1f565b90506130bd6020830185612ab9565b6130ca6040830184612ab9565b9392505050565b600060608201905081810360008301526130ea81612b5f565b90506130f96020830185612ab9565b6131066040830184612ab9565b9392505050565b6000602082019050818103600083015261312681612b9f565b9050919050565b6000606082019050818103600083015261314681612c05565b90506131556020830185612ab9565b6131626040830184612ab9565b9392505050565b6000606082019050818103600083015261318281612c45565b90506131916020830185612ab9565b61319e6040830184612ab9565b9392505050565b600060608201905081810360008301526131be81612c85565b90506131cd6020830185612ad7565b6131da6040830184612ab9565b9392505050565b600060608201905081810360008301526131fa81612cc5565b90506132096020830185612ab9565b6132166040830184612ab9565b9392505050565b6000602082019050818103600083015261323681612d05565b9050919050565b6000602082019050818103600083015261325681612d45565b9050919050565b6000606082019050818103600083015261327681612d85565b90506132856020830185612ab9565b6132926040830184612ab9565b9392505050565b600060608201905081810360008301526132b281612dc5565b90506132c16020830185612ad7565b6132ce6040830184612ab9565b9392505050565b600060608201905081810360008301526132ee81612e05565b90506132fd6020830185612ab9565b61330a6040830184612ab9565b9392505050565b6000606082019050818103600083015261332a81612e45565b90506133396020830185612ab9565b6133466040830184612ab9565b9392505050565b6000602082019050818103600083015261336681612e85565b9050919050565b60006020820190506133826000830184612ec5565b92915050565b6000604051905081810181811067ffffffffffffffff821117156133af576133ae61351c565b5b8060405250919050565b600067ffffffffffffffff8211156133d4576133d361351c565b5b601f19601f8301169050602081019050919050565b600081519050919050565b600082825260208201905092915050565b60006134108261344f565b9050919050565b60008115159050919050565b60007fffffffffffffffff00000000000000000000000000000000000000000000000082169050919050565b600073ffffffffffffffffffffffffffffffffffffffff82169050919050565b6000819050919050565b82818337600083830152505050565b60005b838110156134a657808201518184015260208101905061348b565b838111156134b5576000848401525b50505050565b600060028204905060018216806134d357607f821691505b602082108114156134e7576134e66134ed565b5b50919050565b7f4e487b7100000000000000000000000000000000000000000000000000000000600052602260045260246000fd5b7f4e487b7100000000000000000000000000000000000000000000000000000000600052604160045260246000fd5b6000601f19601f8301169050919050565b61356581613405565b811461357057600080fd5b50565b61357c81613417565b811461358757600080fd5b50565b61359381613423565b811461359e57600080fd5b50565b6135aa8161346f565b81146135b557600080fd5b5056fea26469706673582212201ab4b0bfd5951fec12c762e42e2c8401e383e1f0b5297f32a964e3d705822c9f64736f6c63430008000033",
  "immutableReferences": {},
  "source": "// SPDX-License-Identifier: MIT\r\npragma solidity 0.8.0;\r\n\r\nimport \"../node_modules/@openzeppelin/contracts/utils/Counters.sol\";\r\nimport \"../node_modules/@openzeppelin/contracts/access/Ownable.sol\";\r\nimport \"./IECPToken.sol\";\r\n\r\ncontract LedgerContract is Ownable {\r\n    using Counters for Counters.Counter;\r\n\r\n    /**\r\n     * @dev Structure of Customer\r\n     * @notice Feature_V2 \r\n     */\r\n    struct Customer {\r\n        string description;\r\n        address contractAddress;\r\n        uint siretNumber;\r\n        bool isActive;\r\n        bool exist;\r\n    }\r\n\r\n    /**\r\n     * @dev Structure of Legislator\r\n     * @notice Feature_V2 \r\n     */\r\n    struct Legislator {\r\n        string description;\r\n        uint siretNumber;        \r\n        bool isActive;\r\n        bool exist;        \r\n    }\r\n\r\n    /**\r\n     * @dev Structure of TechMaster\r\n     * @notice Feature_V2 \r\n     */\r\n    struct TechMaster {\r\n        string description;\r\n        uint siretNumber;        \r\n        bool isActive;\r\n        bool exist;        \r\n    }\r\n\r\n    /**\r\n     * @dev Structure of Bridge\r\n     * @notice Feature_V2 \r\n     */\r\n    struct Bridge {\r\n        string description;\r\n        string url;   \r\n        string info;        \r\n        address techMasterAddress;     \r\n        bool isActive;\r\n        bool exist;        \r\n    }\r\n\r\n    /**\r\n     * @dev Structure of TypeMeasure\r\n     * @notice Feature_V2 \r\n     */\r\n    struct TypeMeasure{\r\n\t    string description;\r\n        string info;\r\n        bool isActive;\r\n\t    bool isAllowed;\r\n        bool exist;        \r\n    }\r\n\r\n    event LedgerUpdate(string _message, address _target, address _author);  \r\n    event TypeMeasureUpdate(string _message, bytes8 _target, address _author);  \r\n  \r\n    modifier onlyTechMaster() {\r\n        require (_techMasters[msg.sender].exist || owner() ==  msg.sender, \"Access denied\");\r\n        _;\r\n    }\r\n\r\n    mapping(address => Customer) public _customers; \r\n    mapping(address => Legislator) public _legislators; \r\n    mapping(address => TechMaster) public _techMasters;\r\n    mapping(address => Bridge) public _bridges;\r\n    mapping(bytes8 => TypeMeasure) public _typeMeasures;\r\n\r\n    address public ecpTokenAddress;\r\n    IECPToken private _ECPToken;\r\n\r\n    constructor (address _ecpTokenAddress) {\r\n        ecpTokenAddress = _ecpTokenAddress;\r\n        _ECPToken = IECPToken(_ecpTokenAddress);\r\n    }    \r\n\r\n     /**\r\n     * @dev set a Customer\r\n     * @param _description string description of a Customer\r\n     * @param _customerAddress address Customer's address\r\n     * @param _contractAddress address contract's address\r\n     * @param _siretNumber uint Customer's siretNumber\r\n     * @param _isActive bool Customer's status : active / inactive\r\n     */\r\n    function setCustomer (\r\n        string memory _description,\r\n        address _customerAddress, \r\n        address _contractAddress,\r\n        uint _siretNumber,\r\n        bool _isActive) \r\n        onlyOwner() external {\r\n\r\n        if(!_customers[_customerAddress].exist){\r\n            emit LedgerUpdate(\"New Customer\", _customerAddress, msg.sender);\r\n        }else{\r\n            emit LedgerUpdate(\"Update Customer\", _customerAddress, msg.sender);\r\n        }\r\n\r\n        _customers[_customerAddress] = Customer(\r\n        _description,\r\n        _contractAddress,         \r\n        _siretNumber,\r\n        _isActive, \r\n        true);\r\n    }\r\n\r\n     /**\r\n     * @dev set a Legislator\r\n     * @param _description string description of a Legislator\r\n     * @param _legislatorAddress address Legislator's address\r\n     * @param _siretNumber uint Legislator's siretNumber\r\n     * @param _isActive bool Legislator's status : active / inactive\r\n     */\r\n    function setLegislator (\r\n        string memory _description,        \r\n        address _legislatorAddress,\r\n        uint _siretNumber,\r\n        bool _isActive) \r\n        onlyOwner() external {\r\n\r\n        if(!_legislators[_legislatorAddress].exist){\r\n            emit LedgerUpdate(\"New Legislator\", _legislatorAddress, msg.sender);\r\n        }else{\r\n            emit LedgerUpdate(\"Update Legislator\", _legislatorAddress, msg.sender);\r\n        }\r\n\r\n        _legislators[_legislatorAddress] = Legislator(\r\n        _description,\r\n        _siretNumber,\r\n        _isActive,\r\n        true);   \r\n    }    \r\n\r\n     /**\r\n     * @dev set a TechMaster\r\n     * @param _description string description of a TechMaster\r\n     * @param _techMasterAddress address TechMaster's address\r\n     * @param _siretNumber uint TechMaster's siretNumber\r\n     * @param _isActive bool TechMaster's status : active / inactive\r\n     */\r\n    function setTechMaster (\r\n        string memory _description,\r\n        address _techMasterAddress,       \r\n        uint _siretNumber,\r\n        bool _isActive) \r\n        onlyOwner() external {\r\n\r\n        if(!_techMasters[_techMasterAddress].exist){\r\n            emit LedgerUpdate(\"New TechMaster\", _techMasterAddress, msg.sender);\r\n        }else{\r\n            emit LedgerUpdate(\"Update TechMaster\", _techMasterAddress, msg.sender);\r\n        }\r\n\r\n        _techMasters[_techMasterAddress] = TechMaster(\r\n        _description,\r\n        _siretNumber,\r\n        _isActive,\r\n        true);\r\n    }    \r\n\r\n     /**\r\n     * @dev set a Bridge\r\n     * @param _description string description of a Bridge\r\n     * @param _url string url of a Bridge\r\n     * @param _info string info regarding a Bridge\r\n     * @param _bridgeAddress address Bridge's address\r\n     * @param _techMasterAddress address TechMaster's address\r\n     * @param _isActive bool TechMaster's status : active / inactive\r\n     */\r\n    function setBridge (\r\n        string memory _description,\r\n        string memory _url, \r\n        string memory _info,               \r\n        address _bridgeAddress,\r\n        address _techMasterAddress,       \r\n        bool _isActive) \r\n        onlyTechMaster() external {\r\n\r\n        if(!_bridges[_bridgeAddress].exist){\r\n            emit LedgerUpdate(\"New Bridge\", _bridgeAddress, msg.sender);\r\n        }else{\r\n            require(_bridges[_bridgeAddress].techMasterAddress == msg.sender || owner()==msg.sender, \"Access denied\");\r\n            emit LedgerUpdate(\"Update Bridge\", _bridgeAddress, msg.sender);\r\n        }\r\n\r\n        if(owner()!=msg.sender){\r\n            _techMasterAddress = msg.sender;\r\n        }\r\n\r\n        _bridges[_bridgeAddress] = Bridge(\r\n        _description,\r\n        _url,        \r\n        _info,\r\n        _techMasterAddress,\r\n        _isActive,\r\n        true);\r\n    } \r\n\r\n     /**\r\n     * @dev set a TypeMeasure\r\n     * @param _description string description of a TypeMeasure\r\n     * @param _info string info regarding a TypeMeasure\r\n     * @param _codeMeasure bytes8 TypeMeasure's code\r\n     * @param _isActive bool TechMaster's status : active / inactive \r\n     * @param _isAllowed bool TypeMeasure's authorization status\r\n     */    \r\n    function setTypeMeasure (\r\n        string memory _description,\r\n        string memory _info,\r\n        bytes8 _codeMeasure,\r\n        bool _isActive,\r\n        bool _isAllowed) \r\n        onlyOwner() external {  \r\n\r\n        if(!_typeMeasures[_codeMeasure].exist){\r\n            emit TypeMeasureUpdate(\"New TypeMeasure\", _codeMeasure, msg.sender);\r\n        }else{\r\n            emit TypeMeasureUpdate(\"Update TypeMeasure\", _codeMeasure, msg.sender);\r\n        }\r\n\r\n        _typeMeasures[_codeMeasure] = TypeMeasure(\r\n        _description,\r\n        _info,\r\n        _isActive,\r\n        _isAllowed,\r\n        true);\r\n    }    \r\n\r\n     /**\r\n     * @dev allows the dApp to mint ECP if is owner\r\n     * @param _target address of mint recever\r\n     * @param _amount uint user's type \r\n     */ \r\n    function mintECP ( \r\n        address _target,             \r\n        uint _amount) \r\n        onlyOwner() external {\r\n\r\n        _ECPToken.ownerMint (_target, _amount);\r\n    }\r\n\r\n     /**\r\n     * @dev allows the dApp to mint ECP if is owner\r\n     * @param _customerAddress address of mint recever\r\n     * @param _amount uint user's type \r\n     */ \r\n    function sendClientToken ( \r\n        address _customerAddress,             \r\n        uint _amount) \r\n        onlyOwner() external {\r\n\r\n        require(_customers[_customerAddress].exist, \"Customer not exist\"); \r\n\r\n        if(_ECPToken.balanceOf(address(this)) < _amount){\r\n            _ECPToken.ownerMint (_customers[_customerAddress].contractAddress, _amount);\r\n        }else{\r\n            _ECPToken.transfer(_customers[_customerAddress].contractAddress, _amount);\r\n        }\r\n    }\r\n\r\n     /**\r\n     * @dev allows the dApp to process user's type and display the correct interface\r\n     * @param _myTypeUser uint user's type \r\n     */  \r\n    function rootingApps(\r\n        address _userAddress)\r\n        external view returns(uint _myTypeUser){\r\n        /*\r\n            1 : Admin\r\n            2 : Client\r\n            3 : Lgislateur\r\n            4 : Techmaster\r\n            5 : Bridge\r\n            9 : Public\r\n        */\r\n\r\n        if(_userAddress==address(0)){\r\n            if(msg.sender == owner()){\r\n                return 1;\r\n            }\r\n            if((_customers[msg.sender].exist) && (_customers[msg.sender].isActive)){\r\n                return 2;\r\n            }\r\n            if((_legislators[msg.sender].exist) && (_legislators[msg.sender].isActive)){\r\n                return 3;\r\n            }\r\n            if((_techMasters[msg.sender].exist) && (_techMasters[msg.sender].isActive)){\r\n                return 4;\r\n            }\r\n            if((_bridges[msg.sender].exist) && (_bridges[msg.sender].isActive)){\r\n                return 5;\r\n            }\r\n        }\r\n        else\r\n        {\r\n           if(_userAddress == owner()){\r\n                return 1;\r\n            }\r\n            if((_customers[_userAddress].exist) && (_customers[_userAddress].isActive)){\r\n                return 2;\r\n            }\r\n            if((_legislators[_userAddress].exist) && (_legislators[_userAddress].isActive)){\r\n                return 3;\r\n            }\r\n            if((_techMasters[_userAddress].exist) && (_techMasters[_userAddress].isActive)){\r\n                return 4;\r\n            }\r\n            if((_bridges[_userAddress].exist) && (_bridges[_userAddress].isActive)){\r\n                return 5;\r\n            }\r\n        }\r\n\r\n        return 9;\r\n    }\r\n}\r\n",
  "sourcePath": "C:/Users/danie/Desktop/Solidity/Projet final/eco-capt/contracts/LedgerContract.sol",
  "compiler": {
    "name": "solc",
    "version": "0.8.0+commit.c7dfd78e.Emscripten.clang"
  },
  "schemaVersion": "3.3.4",
  "updatedAt": "2021-04-27T15:57:37.241Z",
  "networkType": "ethereum",
  "devdoc": {
    "kind": "dev",
    "methods": {
      "mintECP(address,uint256)": {
        "details": "allows the dApp to mint ECP if is owner",
        "params": {
          "_amount": "uint user's type ",
          "_target": "address of mint recever"
        }
      },
      "owner()": {
        "details": "Returns the address of the current owner."
      },
      "renounceOwnership()": {
        "details": "Leaves the contract without owner. It will not be possible to call `onlyOwner` functions anymore. Can only be called by the current owner. NOTE: Renouncing ownership will leave the contract without an owner, thereby removing any functionality that is only available to the owner."
      },
      "rootingApps(address)": {
        "details": "allows the dApp to process user's type and display the correct interface",
        "params": {
          "_myTypeUser": "uint user's type "
        }
      },
      "sendClientToken(address,uint256)": {
        "details": "allows the dApp to mint ECP if is owner",
        "params": {
          "_amount": "uint user's type ",
          "_customerAddress": "address of mint recever"
        }
      },
      "setBridge(string,string,string,address,address,bool)": {
        "details": "set a Bridge",
        "params": {
          "_bridgeAddress": "address Bridge's address",
          "_description": "string description of a Bridge",
          "_info": "string info regarding a Bridge",
          "_isActive": "bool TechMaster's status : active / inactive",
          "_techMasterAddress": "address TechMaster's address",
          "_url": "string url of a Bridge"
        }
      },
      "setCustomer(string,address,address,uint256,bool)": {
        "details": "set a Customer",
        "params": {
          "_contractAddress": "address contract's address",
          "_customerAddress": "address Customer's address",
          "_description": "string description of a Customer",
          "_isActive": "bool Customer's status : active / inactive",
          "_siretNumber": "uint Customer's siretNumber"
        }
      },
      "setLegislator(string,address,uint256,bool)": {
        "details": "set a Legislator",
        "params": {
          "_description": "string description of a Legislator",
          "_isActive": "bool Legislator's status : active / inactive",
          "_legislatorAddress": "address Legislator's address",
          "_siretNumber": "uint Legislator's siretNumber"
        }
      },
      "setTechMaster(string,address,uint256,bool)": {
        "details": "set a TechMaster",
        "params": {
          "_description": "string description of a TechMaster",
          "_isActive": "bool TechMaster's status : active / inactive",
          "_siretNumber": "uint TechMaster's siretNumber",
          "_techMasterAddress": "address TechMaster's address"
        }
      },
      "setTypeMeasure(string,string,bytes8,bool,bool)": {
        "details": "set a TypeMeasure",
        "params": {
          "_codeMeasure": "bytes8 TypeMeasure's code",
          "_description": "string description of a TypeMeasure",
          "_info": "string info regarding a TypeMeasure",
          "_isActive": "bool TechMaster's status : active / inactive ",
          "_isAllowed": "bool TypeMeasure's authorization status"
        }
      },
      "transferOwnership(address)": {
        "details": "Transfers ownership of the contract to a new account (`newOwner`). Can only be called by the current owner."
      }
    },
    "version": 1
  },
  "userdoc": {
    "kind": "user",
    "methods": {},
    "version": 1
  }
}