{
  "contractName": "LedgerContract",
  "abi": [
    {
      "anonymous": false,
      "inputs": [
        {
          "indexed": false,
          "internalType": "string",
          "name": "_message",
          "type": "string"
        },
        {
          "indexed": false,
          "internalType": "address",
          "name": "_target",
          "type": "address"
        },
        {
          "indexed": false,
          "internalType": "address",
          "name": "_author",
          "type": "address"
        }
      ],
      "name": "LedgerUpdate",
      "type": "event"
    },
    {
      "anonymous": false,
      "inputs": [
        {
          "indexed": true,
          "internalType": "address",
          "name": "previousOwner",
          "type": "address"
        },
        {
          "indexed": true,
          "internalType": "address",
          "name": "newOwner",
          "type": "address"
        }
      ],
      "name": "OwnershipTransferred",
      "type": "event"
    },
    {
      "anonymous": false,
      "inputs": [
        {
          "indexed": false,
          "internalType": "string",
          "name": "_message",
          "type": "string"
        },
        {
          "indexed": false,
          "internalType": "bytes8",
          "name": "_target",
          "type": "bytes8"
        },
        {
          "indexed": false,
          "internalType": "address",
          "name": "_author",
          "type": "address"
        }
      ],
      "name": "TypeMeasureUpdate",
      "type": "event"
    },
    {
      "inputs": [
        {
          "internalType": "address",
          "name": "",
          "type": "address"
        }
      ],
      "name": "_customers",
      "outputs": [
        {
          "internalType": "string",
          "name": "description",
          "type": "string"
        },
        {
          "internalType": "address",
          "name": "contractAddress",
          "type": "address"
        },
        {
          "internalType": "uint256",
          "name": "siretNumber",
          "type": "uint256"
        },
        {
          "internalType": "bool",
          "name": "isActive",
          "type": "bool"
        },
        {
          "internalType": "bool",
          "name": "exist",
          "type": "bool"
        }
      ],
      "stateMutability": "view",
      "type": "function",
      "constant": true
    },
    {
      "inputs": [
        {
          "internalType": "address",
          "name": "",
          "type": "address"
        }
      ],
      "name": "_legislators",
      "outputs": [
        {
          "internalType": "string",
          "name": "description",
          "type": "string"
        },
        {
          "internalType": "uint256",
          "name": "siretNumber",
          "type": "uint256"
        },
        {
          "internalType": "bool",
          "name": "isActive",
          "type": "bool"
        },
        {
          "internalType": "bool",
          "name": "exist",
          "type": "bool"
        }
      ],
      "stateMutability": "view",
      "type": "function",
      "constant": true
    },
    {
      "inputs": [
        {
          "internalType": "address",
          "name": "",
          "type": "address"
        }
      ],
      "name": "_techMasters",
      "outputs": [
        {
          "internalType": "string",
          "name": "description",
          "type": "string"
        },
        {
          "internalType": "uint256",
          "name": "siretNumber",
          "type": "uint256"
        },
        {
          "internalType": "bool",
          "name": "isActive",
          "type": "bool"
        },
        {
          "internalType": "bool",
          "name": "exist",
          "type": "bool"
        }
      ],
      "stateMutability": "view",
      "type": "function",
      "constant": true
    },
    {
      "inputs": [
        {
          "internalType": "bytes8",
          "name": "",
          "type": "bytes8"
        }
      ],
      "name": "_typeMeasures",
      "outputs": [
        {
          "internalType": "string",
          "name": "description",
          "type": "string"
        },
        {
          "internalType": "string",
          "name": "info",
          "type": "string"
        },
        {
          "internalType": "bool",
          "name": "isActive",
          "type": "bool"
        },
        {
          "internalType": "bool",
          "name": "isAllowed",
          "type": "bool"
        },
        {
          "internalType": "bool",
          "name": "exist",
          "type": "bool"
        }
      ],
      "stateMutability": "view",
      "type": "function",
      "constant": true
    },
    {
      "inputs": [],
      "name": "owner",
      "outputs": [
        {
          "internalType": "address",
          "name": "",
          "type": "address"
        }
      ],
      "stateMutability": "view",
      "type": "function",
      "constant": true
    },
    {
      "inputs": [],
      "name": "renounceOwnership",
      "outputs": [],
      "stateMutability": "nonpayable",
      "type": "function"
    },
    {
      "inputs": [
        {
          "internalType": "address",
          "name": "newOwner",
          "type": "address"
        }
      ],
      "name": "transferOwnership",
      "outputs": [],
      "stateMutability": "nonpayable",
      "type": "function"
    },
    {
      "inputs": [
        {
          "internalType": "string",
          "name": "_description",
          "type": "string"
        },
        {
          "internalType": "address",
          "name": "_customerAddress",
          "type": "address"
        },
        {
          "internalType": "address",
          "name": "_contratAddress",
          "type": "address"
        },
        {
          "internalType": "uint256",
          "name": "_siretNumber",
          "type": "uint256"
        },
        {
          "internalType": "bool",
          "name": "_isActive",
          "type": "bool"
        }
      ],
      "name": "setCustomer",
      "outputs": [],
      "stateMutability": "nonpayable",
      "type": "function"
    },
    {
      "inputs": [
        {
          "internalType": "string",
          "name": "_description",
          "type": "string"
        },
        {
          "internalType": "address",
          "name": "_legislatorAddress",
          "type": "address"
        },
        {
          "internalType": "uint256",
          "name": "_siretNumber",
          "type": "uint256"
        },
        {
          "internalType": "bool",
          "name": "_isActive",
          "type": "bool"
        }
      ],
      "name": "setLegislator",
      "outputs": [],
      "stateMutability": "nonpayable",
      "type": "function"
    },
    {
      "inputs": [
        {
          "internalType": "string",
          "name": "_description",
          "type": "string"
        },
        {
          "internalType": "address",
          "name": "_techMasterAddress",
          "type": "address"
        },
        {
          "internalType": "uint256",
          "name": "_siretNumber",
          "type": "uint256"
        },
        {
          "internalType": "bool",
          "name": "_isActive",
          "type": "bool"
        }
      ],
      "name": "setTechMaster",
      "outputs": [],
      "stateMutability": "nonpayable",
      "type": "function"
    },
    {
      "inputs": [
        {
          "internalType": "string",
          "name": "_description",
          "type": "string"
        },
        {
          "internalType": "string",
          "name": "_info",
          "type": "string"
        },
        {
          "internalType": "bytes8",
          "name": "_codeMeasure",
          "type": "bytes8"
        },
        {
          "internalType": "bool",
          "name": "_isActive",
          "type": "bool"
        },
        {
          "internalType": "bool",
          "name": "_isAllowed",
          "type": "bool"
        }
      ],
      "name": "setTypeMeasure",
      "outputs": [],
      "stateMutability": "nonpayable",
      "type": "function"
    }
  ],
  "bytecode": "0x608060405234801561001057600080fd5b5060006100216100c460201b60201c565b9050806000806101000a81548173ffffffffffffffffffffffffffffffffffffffff021916908373ffffffffffffffffffffffffffffffffffffffff1602179055508073ffffffffffffffffffffffffffffffffffffffff16600073ffffffffffffffffffffffffffffffffffffffff167f8be0079c531659141344cd1fd0a4f28419497f9722a3daafe3b4186f6b6457e060405160405180910390a3506100cc565b600033905090565b611e9a806100db6000396000f3fe608060405234801561001057600080fd5b50600436106100a95760003560e01c8063b54251b511610071578063b54251b51461012a578063c29f7ba31461015d578063e20cd95114610191578063e6942760146101ad578063e738d199146101e1578063f2fde38b14610214576100a9565b80631503b19f146100ae5780635e42705a146100ca578063715018a6146100e65780638da5cb5b146100f05780639e53c8911461010e575b600080fd5b6100c860048036038101906100c391906114b5565b610230565b005b6100e460048036038101906100df9190611426565b61044d565b005b6100ee6106ce565b005b6100f8610808565b60405161010591906118f2565b60405180910390f35b61012860048036038101906101239190611530565b610831565b005b610144600480360381019061013f91906113d4565b610a9e565b60405161015494939291906119c8565b60405180910390f35b610177600480360381019061017291906113d4565b610b70565b60405161018895949392919061190d565b60405180910390f35b6101ab60048036038101906101a691906114b5565b610c68565b005b6101c760048036038101906101c291906113fd565b610e85565b6040516101d8959493929190611967565b60405180910390f35b6101fb60048036038101906101f691906113d4565b610ff2565b60405161020b94939291906119c8565b60405180910390f35b61022e600480360381019061022991906113d4565b6110c4565b005b61023861126d565b73ffffffffffffffffffffffffffffffffffffffff16610256610808565b73ffffffffffffffffffffffffffffffffffffffff16146102ac576040517f08c379a00000000000000000000000000000000000000000000000000000000081526004016102a390611b9c565b60405180910390fd5b600360008473ffffffffffffffffffffffffffffffffffffffff1673ffffffffffffffffffffffffffffffffffffffff16815260200190815260200160002060020160019054906101000a900460ff1661033e577fbf4ae51d8c0eda5cf0cccfde45fa35ea3a741a7f35b5f3d24dd2196b6eaab8288333604051610331929190611aac565b60405180910390a1610378565b7fbf4ae51d8c0eda5cf0cccfde45fa35ea3a741a7f35b5f3d24dd2196b6eaab828833360405161036f929190611a50565b60405180910390a15b6040518060800160405280858152602001838152602001821515815260200160011515815250600360008573ffffffffffffffffffffffffffffffffffffffff1673ffffffffffffffffffffffffffffffffffffffff16815260200190815260200160002060008201518160000190805190602001906103f9929190611275565b506020820151816001015560408201518160020160006101000a81548160ff02191690831515021790555060608201518160020160016101000a81548160ff02191690831515021790555090505050505050565b61045561126d565b73ffffffffffffffffffffffffffffffffffffffff16610473610808565b73ffffffffffffffffffffffffffffffffffffffff16146104c9576040517f08c379a00000000000000000000000000000000000000000000000000000000081526004016104c090611b9c565b60405180910390fd5b600160008573ffffffffffffffffffffffffffffffffffffffff1673ffffffffffffffffffffffffffffffffffffffff16815260200190815260200160002060030160019054906101000a900460ff1661055b577fbf4ae51d8c0eda5cf0cccfde45fa35ea3a741a7f35b5f3d24dd2196b6eaab828843360405161054e929190611bf8565b60405180910390a1610595565b7fbf4ae51d8c0eda5cf0cccfde45fa35ea3a741a7f35b5f3d24dd2196b6eaab828843360405161058c929190611bbc565b60405180910390a15b6040518060a001604052808681526020018473ffffffffffffffffffffffffffffffffffffffff168152602001838152602001821515815260200160011515815250600160008673ffffffffffffffffffffffffffffffffffffffff1673ffffffffffffffffffffffffffffffffffffffff1681526020019081526020016000206000820151816000019080519060200190610632929190611275565b5060208201518160010160006101000a81548173ffffffffffffffffffffffffffffffffffffffff021916908373ffffffffffffffffffffffffffffffffffffffff1602179055506040820151816002015560608201518160030160006101000a81548160ff02191690831515021790555060808201518160030160016101000a81548160ff0219169083151502179055509050505050505050565b6106d661126d565b73ffffffffffffffffffffffffffffffffffffffff166106f4610808565b73ffffffffffffffffffffffffffffffffffffffff161461074a576040517f08c379a000000000000000000000000000000000000000000000000000000000815260040161074190611b9c565b60405180910390fd5b600073ffffffffffffffffffffffffffffffffffffffff1660008054906101000a900473ffffffffffffffffffffffffffffffffffffffff1673ffffffffffffffffffffffffffffffffffffffff167f8be0079c531659141344cd1fd0a4f28419497f9722a3daafe3b4186f6b6457e060405160405180910390a360008060006101000a81548173ffffffffffffffffffffffffffffffffffffffff021916908373ffffffffffffffffffffffffffffffffffffffff160217905550565b60008060009054906101000a900473ffffffffffffffffffffffffffffffffffffffff16905090565b61083961126d565b73ffffffffffffffffffffffffffffffffffffffff16610857610808565b73ffffffffffffffffffffffffffffffffffffffff16146108ad576040517f08c379a00000000000000000000000000000000000000000000000000000000081526004016108a490611b9c565b60405180910390fd5b600460008477ffffffffffffffffffffffffffffffffffffffffffffffff191677ffffffffffffffffffffffffffffffffffffffffffffffff1916815260200190815260200160002060020160029054906101000a900460ff16610949577ffd28b00c124636c5ca6e4dcc21b05bb735fe07af43e9c2cd98c4aa673a706350833360405161093c929190611ae8565b60405180910390a1610983565b7ffd28b00c124636c5ca6e4dcc21b05bb735fe07af43e9c2cd98c4aa673a706350833360405161097a929190611b24565b60405180910390a15b6040518060a001604052808681526020018581526020018315158152602001821515815260200160011515815250600460008577ffffffffffffffffffffffffffffffffffffffffffffffff191677ffffffffffffffffffffffffffffffffffffffffffffffff191681526020019081526020016000206000820151816000019080519060200190610a16929190611275565b506020820151816001019080519060200190610a33929190611275565b5060408201518160020160006101000a81548160ff02191690831515021790555060608201518160020160016101000a81548160ff02191690831515021790555060808201518160020160026101000a81548160ff0219169083151502179055509050505050505050565b6002602052806000526040600020600091509050806000018054610ac190611d67565b80601f0160208091040260200160405190810160405280929190818152602001828054610aed90611d67565b8015610b3a5780601f10610b0f57610100808354040283529160200191610b3a565b820191906000526020600020905b815481529060010190602001808311610b1d57829003601f168201915b5050505050908060010154908060020160009054906101000a900460ff16908060020160019054906101000a900460ff16905084565b6001602052806000526040600020600091509050806000018054610b9390611d67565b80601f0160208091040260200160405190810160405280929190818152602001828054610bbf90611d67565b8015610c0c5780601f10610be157610100808354040283529160200191610c0c565b820191906000526020600020905b815481529060010190602001808311610bef57829003601f168201915b5050505050908060010160009054906101000a900473ffffffffffffffffffffffffffffffffffffffff16908060020154908060030160009054906101000a900460ff16908060030160019054906101000a900460ff16905085565b610c7061126d565b73ffffffffffffffffffffffffffffffffffffffff16610c8e610808565b73ffffffffffffffffffffffffffffffffffffffff1614610ce4576040517f08c379a0000000000000000000000000000000000000000000000000000000008152600401610cdb90611b9c565b60405180910390fd5b600260008473ffffffffffffffffffffffffffffffffffffffff1673ffffffffffffffffffffffffffffffffffffffff16815260200190815260200160002060020160019054906101000a900460ff16610d76577fbf4ae51d8c0eda5cf0cccfde45fa35ea3a741a7f35b5f3d24dd2196b6eaab8288333604051610d69929190611b60565b60405180910390a1610db0565b7fbf4ae51d8c0eda5cf0cccfde45fa35ea3a741a7f35b5f3d24dd2196b6eaab8288333604051610da7929190611a14565b60405180910390a15b6040518060800160405280858152602001838152602001821515815260200160011515815250600260008573ffffffffffffffffffffffffffffffffffffffff1673ffffffffffffffffffffffffffffffffffffffff1681526020019081526020016000206000820151816000019080519060200190610e31929190611275565b506020820151816001015560408201518160020160006101000a81548160ff02191690831515021790555060608201518160020160016101000a81548160ff02191690831515021790555090505050505050565b6004602052806000526040600020600091509050806000018054610ea890611d67565b80601f0160208091040260200160405190810160405280929190818152602001828054610ed490611d67565b8015610f215780601f10610ef657610100808354040283529160200191610f21565b820191906000526020600020905b815481529060010190602001808311610f0457829003601f168201915b505050505090806001018054610f3690611d67565b80601f0160208091040260200160405190810160405280929190818152602001828054610f6290611d67565b8015610faf5780601f10610f8457610100808354040283529160200191610faf565b820191906000526020600020905b815481529060010190602001808311610f9257829003601f168201915b5050505050908060020160009054906101000a900460ff16908060020160019054906101000a900460ff16908060020160029054906101000a900460ff16905085565b600360205280600052604060002060009150905080600001805461101590611d67565b80601f016020809104026020016040519081016040528092919081815260200182805461104190611d67565b801561108e5780601f106110635761010080835404028352916020019161108e565b820191906000526020600020905b81548152906001019060200180831161107157829003601f168201915b5050505050908060010154908060020160009054906101000a900460ff16908060020160019054906101000a900460ff16905084565b6110cc61126d565b73ffffffffffffffffffffffffffffffffffffffff166110ea610808565b73ffffffffffffffffffffffffffffffffffffffff1614611140576040517f08c379a000000000000000000000000000000000000000000000000000000000815260040161113790611b9c565b60405180910390fd5b600073ffffffffffffffffffffffffffffffffffffffff168173ffffffffffffffffffffffffffffffffffffffff1614156111b0576040517f08c379a00000000000000000000000000000000000000000000000000000000081526004016111a790611a8c565b60405180910390fd5b8073ffffffffffffffffffffffffffffffffffffffff1660008054906101000a900473ffffffffffffffffffffffffffffffffffffffff1673ffffffffffffffffffffffffffffffffffffffff167f8be0079c531659141344cd1fd0a4f28419497f9722a3daafe3b4186f6b6457e060405160405180910390a3806000806101000a81548173ffffffffffffffffffffffffffffffffffffffff021916908373ffffffffffffffffffffffffffffffffffffffff16021790555050565b600033905090565b82805461128190611d67565b90600052602060002090601f0160209004810192826112a357600085556112ea565b82601f106112bc57805160ff19168380011785556112ea565b828001600101855582156112ea579182015b828111156112e95782518255916020019190600101906112ce565b5b5090506112f791906112fb565b5090565b5b808211156113145760008160009055506001016112fc565b5090565b600061132b61132684611c65565b611c34565b90508281526020810184848401111561134357600080fd5b61134e848285611d25565b509392505050565b60008135905061136581611e08565b92915050565b60008135905061137a81611e1f565b92915050565b60008135905061138f81611e36565b92915050565b600082601f8301126113a657600080fd5b81356113b6848260208601611318565b91505092915050565b6000813590506113ce81611e4d565b92915050565b6000602082840312156113e657600080fd5b60006113f484828501611356565b91505092915050565b60006020828403121561140f57600080fd5b600061141d84828501611380565b91505092915050565b600080600080600060a0868803121561143e57600080fd5b600086013567ffffffffffffffff81111561145857600080fd5b61146488828901611395565b955050602061147588828901611356565b945050604061148688828901611356565b9350506060611497888289016113bf565b92505060806114a88882890161136b565b9150509295509295909350565b600080600080608085870312156114cb57600080fd5b600085013567ffffffffffffffff8111156114e557600080fd5b6114f187828801611395565b945050602061150287828801611356565b9350506040611513878288016113bf565b92505060606115248782880161136b565b91505092959194509250565b600080600080600060a0868803121561154857600080fd5b600086013567ffffffffffffffff81111561156257600080fd5b61156e88828901611395565b955050602086013567ffffffffffffffff81111561158b57600080fd5b61159788828901611395565b94505060406115a888828901611380565b93505060606115b98882890161136b565b92505060806115ca8882890161136b565b9150509295509295909350565b6115e081611cb1565b82525050565b6115ef81611cc3565b82525050565b6115fe81611ccf565b82525050565b600061160f82611c95565b6116198185611ca0565b9350611629818560208601611d34565b61163281611df7565b840191505092915050565b600061164a601183611ca0565b91507f557064617465204c656769736c61746f720000000000000000000000000000006000830152602082019050919050565b600061168a601183611ca0565b91507f55706461746520546563684d61737465720000000000000000000000000000006000830152602082019050919050565b60006116ca602683611ca0565b91507f4f776e61626c653a206e6577206f776e657220697320746865207a65726f206160008301527f64647265737300000000000000000000000000000000000000000000000000006020830152604082019050919050565b6000611730600e83611ca0565b91507f4e657720546563684d61737465720000000000000000000000000000000000006000830152602082019050919050565b6000611770600e83611ca0565b91507f4e657720547970654d65737572650000000000000000000000000000000000006000830152602082019050919050565b60006117b0601183611ca0565b91507f55706461746520547970654d65737572650000000000000000000000000000006000830152602082019050919050565b60006117f0600e83611ca0565b91507f4e6577204c656769736c61746f720000000000000000000000000000000000006000830152602082019050919050565b6000611830602083611ca0565b91507f4f776e61626c653a2063616c6c6572206973206e6f7420746865206f776e65726000830152602082019050919050565b6000611870600f83611ca0565b91507f55706461746520437573746f6d657200000000000000000000000000000000006000830152602082019050919050565b60006118b0600c83611ca0565b91507f4e657720437573746f6d657200000000000000000000000000000000000000006000830152602082019050919050565b6118ec81611d1b565b82525050565b600060208201905061190760008301846115d7565b92915050565b600060a08201905081810360008301526119278188611604565b905061193660208301876115d7565b61194360408301866118e3565b61195060608301856115e6565b61195d60808301846115e6565b9695505050505050565b600060a08201905081810360008301526119818188611604565b905081810360208301526119958187611604565b90506119a460408301866115e6565b6119b160608301856115e6565b6119be60808301846115e6565b9695505050505050565b600060808201905081810360008301526119e28187611604565b90506119f160208301866118e3565b6119fe60408301856115e6565b611a0b60608301846115e6565b95945050505050565b60006060820190508181036000830152611a2d8161163d565b9050611a3c60208301856115d7565b611a4960408301846115d7565b9392505050565b60006060820190508181036000830152611a698161167d565b9050611a7860208301856115d7565b611a8560408301846115d7565b9392505050565b60006020820190508181036000830152611aa5816116bd565b9050919050565b60006060820190508181036000830152611ac581611723565b9050611ad460208301856115d7565b611ae160408301846115d7565b9392505050565b60006060820190508181036000830152611b0181611763565b9050611b1060208301856115f5565b611b1d60408301846115d7565b9392505050565b60006060820190508181036000830152611b3d816117a3565b9050611b4c60208301856115f5565b611b5960408301846115d7565b9392505050565b60006060820190508181036000830152611b79816117e3565b9050611b8860208301856115d7565b611b9560408301846115d7565b9392505050565b60006020820190508181036000830152611bb581611823565b9050919050565b60006060820190508181036000830152611bd581611863565b9050611be460208301856115d7565b611bf160408301846115d7565b9392505050565b60006060820190508181036000830152611c11816118a3565b9050611c2060208301856115d7565b611c2d60408301846115d7565b9392505050565b6000604051905081810181811067ffffffffffffffff82111715611c5b57611c5a611dc8565b5b8060405250919050565b600067ffffffffffffffff821115611c8057611c7f611dc8565b5b601f19601f8301169050602081019050919050565b600081519050919050565b600082825260208201905092915050565b6000611cbc82611cfb565b9050919050565b60008115159050919050565b60007fffffffffffffffff00000000000000000000000000000000000000000000000082169050919050565b600073ffffffffffffffffffffffffffffffffffffffff82169050919050565b6000819050919050565b82818337600083830152505050565b60005b83811015611d52578082015181840152602081019050611d37565b83811115611d61576000848401525b50505050565b60006002820490506001821680611d7f57607f821691505b60208210811415611d9357611d92611d99565b5b50919050565b7f4e487b7100000000000000000000000000000000000000000000000000000000600052602260045260246000fd5b7f4e487b7100000000000000000000000000000000000000000000000000000000600052604160045260246000fd5b6000601f19601f8301169050919050565b611e1181611cb1565b8114611e1c57600080fd5b50565b611e2881611cc3565b8114611e3357600080fd5b50565b611e3f81611ccf565b8114611e4a57600080fd5b50565b611e5681611d1b565b8114611e6157600080fd5b5056fea264697066735822122078d7eb749e4b46b615939a1473a185d8130785ab94de19d35a99528f660d699f64736f6c63430008000033",
  "immutableReferences": {},
  "source": "// SPDX-License-Identifier: MIT\npragma solidity 0.8.0;\n\nimport \"../node_modules/@openzeppelin/contracts/utils/Counters.sol\";\nimport \"../node_modules/@openzeppelin/contracts/access/Ownable.sol\";\n\ncontract LedgerContract is Ownable {\n    using Counters for Counters.Counter;\n\n    struct Customer {\n        string description;\n        address contractAddress;\n        uint siretNumber;\n        bool isActive;\n        bool exist;\n    }\n\n    struct Legislator {\n        string description;\n        uint siretNumber;        \n        bool isActive;\n        bool exist;        \n    }\n\n    struct TechMaster {\n        string description;\n        uint siretNumber;        \n        bool isActive;\n        bool exist;        \n    }\n\n    struct TypeMeasure{\n\t    string description;\n        string info;\n        bool isActive;\n\t    bool isAllowed;\n        bool exist;        \n    }\n\n    event LedgerUpdate(string _message, address _target, address _author);  \n    event TypeMeasureUpdate(string _message, bytes8 _target, address _author);  \n  \n    mapping(address => Customer) public _customers; \n    mapping(address => Legislator) public _legislators; \n    mapping(address => TechMaster) public _techMasters;\n    mapping(bytes8 => TypeMeasure) public _typeMeasures;\n\n    function setCustomer (\n        string memory _description,\n        address _customerAddress, \n        address _contratAddress,\n        uint _siretNumber,\n        bool _isActive) \n        onlyOwner() external {\n\n        if(!_customers[_customerAddress].exist){\n            emit LedgerUpdate(\"New Customer\", _customerAddress, msg.sender);\n        }else{\n            emit LedgerUpdate(\"Update Customer\", _customerAddress, msg.sender);\n        }\n\n        _customers[_customerAddress] = Customer(\n        _description,\n        _contratAddress,         \n        _siretNumber,\n        _isActive, \n        true);\n    }\n\n    function setLegislator (\n        string memory _description,        \n        address _legislatorAddress,\n        uint _siretNumber,\n        bool _isActive) \n        onlyOwner() external {\n\n        if(!_legislators[_legislatorAddress].exist){\n            emit LedgerUpdate(\"New Legislator\", _legislatorAddress, msg.sender);\n        }else{\n            emit LedgerUpdate(\"Update Legislator\", _legislatorAddress, msg.sender);\n        }\n\n        _legislators[_legislatorAddress] = Legislator(\n        _description,\n        _siretNumber,\n        _isActive,\n        true);   \n    }    \n\n    function setTechMaster (\n        string memory _description,\n        address _techMasterAddress,       \n        uint _siretNumber,\n        bool _isActive) \n        onlyOwner() external {\n\n        if(!_techMasters[_techMasterAddress].exist){\n            emit LedgerUpdate(\"New TechMaster\", _techMasterAddress, msg.sender);\n        }else{\n            emit LedgerUpdate(\"Update TechMaster\", _techMasterAddress, msg.sender);\n        }\n\n        _techMasters[_techMasterAddress] = TechMaster(\n        _description,\n        _siretNumber,\n        _isActive,\n        true);\n    }    \n    \n    function setTypeMeasure (\n        string memory _description,\n        string memory _info,\n        bytes8 _codeMeasure,\n        bool _isActive,\n        bool _isAllowed       \n        ) \n        onlyOwner() external {  \n\n        if(!_typeMeasures[_codeMeasure].exist){\n            emit TypeMeasureUpdate(\"New TypeMesure\", _codeMeasure, msg.sender);\n        }else{\n            emit TypeMeasureUpdate(\"Update TypeMesure\", _codeMeasure, msg.sender);\n        }\n\n        _typeMeasures[_codeMeasure] = TypeMeasure(\n        _description,\n        _info,\n        _isActive,\n        _isAllowed,\n        true);\n    }    \n\n}",
  "sourcePath": "C:/Users/danie/Desktop/Solidity/Projet final/eco-capt/contracts/LedgerContract.sol",
  "compiler": {
    "name": "solc",
    "version": "0.8.0+commit.c7dfd78e.Emscripten.clang"
  },
  "schemaVersion": "3.3.4",
  "updatedAt": "2021-04-19T18:18:12.238Z",
  "networkType": "ethereum",
  "devdoc": {
    "kind": "dev",
    "methods": {
      "owner()": {
        "details": "Returns the address of the current owner."
      },
      "renounceOwnership()": {
        "details": "Leaves the contract without owner. It will not be possible to call `onlyOwner` functions anymore. Can only be called by the current owner. NOTE: Renouncing ownership will leave the contract without an owner, thereby removing any functionality that is only available to the owner."
      },
      "transferOwnership(address)": {
        "details": "Transfers ownership of the contract to a new account (`newOwner`). Can only be called by the current owner."
      }
    },
    "version": 1
  },
  "userdoc": {
    "kind": "user",
    "methods": {},
    "version": 1
  }
}