{
  "contractName": "LedgerContract",
  "abi": [
    {
      "inputs": [
        {
          "internalType": "address",
          "name": "_ecpTokenAddress",
          "type": "address"
        }
      ],
      "stateMutability": "nonpayable",
      "type": "constructor"
    },
    {
      "anonymous": false,
      "inputs": [
        {
          "indexed": false,
          "internalType": "string",
          "name": "_message",
          "type": "string"
        },
        {
          "indexed": false,
          "internalType": "address",
          "name": "_target",
          "type": "address"
        },
        {
          "indexed": false,
          "internalType": "address",
          "name": "_author",
          "type": "address"
        }
      ],
      "name": "LedgerUpdate",
      "type": "event"
    },
    {
      "anonymous": false,
      "inputs": [
        {
          "indexed": true,
          "internalType": "address",
          "name": "previousOwner",
          "type": "address"
        },
        {
          "indexed": true,
          "internalType": "address",
          "name": "newOwner",
          "type": "address"
        }
      ],
      "name": "OwnershipTransferred",
      "type": "event"
    },
    {
      "anonymous": false,
      "inputs": [
        {
          "indexed": false,
          "internalType": "string",
          "name": "_message",
          "type": "string"
        },
        {
          "indexed": false,
          "internalType": "bytes8",
          "name": "_target",
          "type": "bytes8"
        },
        {
          "indexed": false,
          "internalType": "address",
          "name": "_author",
          "type": "address"
        }
      ],
      "name": "TypeMeasureUpdate",
      "type": "event"
    },
    {
      "inputs": [
        {
          "internalType": "address",
          "name": "",
          "type": "address"
        }
      ],
      "name": "_bridges",
      "outputs": [
        {
          "internalType": "string",
          "name": "description",
          "type": "string"
        },
        {
          "internalType": "string",
          "name": "url",
          "type": "string"
        },
        {
          "internalType": "string",
          "name": "info",
          "type": "string"
        },
        {
          "internalType": "address",
          "name": "techMasterAddress",
          "type": "address"
        },
        {
          "internalType": "bool",
          "name": "isActive",
          "type": "bool"
        },
        {
          "internalType": "bool",
          "name": "exist",
          "type": "bool"
        }
      ],
      "stateMutability": "view",
      "type": "function",
      "constant": true
    },
    {
      "inputs": [
        {
          "internalType": "address",
          "name": "",
          "type": "address"
        }
      ],
      "name": "_customers",
      "outputs": [
        {
          "internalType": "string",
          "name": "description",
          "type": "string"
        },
        {
          "internalType": "address",
          "name": "contractAddress",
          "type": "address"
        },
        {
          "internalType": "uint256",
          "name": "siretNumber",
          "type": "uint256"
        },
        {
          "internalType": "bool",
          "name": "isActive",
          "type": "bool"
        },
        {
          "internalType": "bool",
          "name": "exist",
          "type": "bool"
        }
      ],
      "stateMutability": "view",
      "type": "function",
      "constant": true
    },
    {
      "inputs": [
        {
          "internalType": "address",
          "name": "",
          "type": "address"
        }
      ],
      "name": "_legislators",
      "outputs": [
        {
          "internalType": "string",
          "name": "description",
          "type": "string"
        },
        {
          "internalType": "uint256",
          "name": "siretNumber",
          "type": "uint256"
        },
        {
          "internalType": "bool",
          "name": "isActive",
          "type": "bool"
        },
        {
          "internalType": "bool",
          "name": "exist",
          "type": "bool"
        }
      ],
      "stateMutability": "view",
      "type": "function",
      "constant": true
    },
    {
      "inputs": [
        {
          "internalType": "address",
          "name": "",
          "type": "address"
        }
      ],
      "name": "_techMasters",
      "outputs": [
        {
          "internalType": "string",
          "name": "description",
          "type": "string"
        },
        {
          "internalType": "uint256",
          "name": "siretNumber",
          "type": "uint256"
        },
        {
          "internalType": "bool",
          "name": "isActive",
          "type": "bool"
        },
        {
          "internalType": "bool",
          "name": "exist",
          "type": "bool"
        }
      ],
      "stateMutability": "view",
      "type": "function",
      "constant": true
    },
    {
      "inputs": [
        {
          "internalType": "bytes8",
          "name": "",
          "type": "bytes8"
        }
      ],
      "name": "_typeMeasures",
      "outputs": [
        {
          "internalType": "string",
          "name": "description",
          "type": "string"
        },
        {
          "internalType": "string",
          "name": "info",
          "type": "string"
        },
        {
          "internalType": "bool",
          "name": "isActive",
          "type": "bool"
        },
        {
          "internalType": "bool",
          "name": "isAllowed",
          "type": "bool"
        },
        {
          "internalType": "bool",
          "name": "exist",
          "type": "bool"
        }
      ],
      "stateMutability": "view",
      "type": "function",
      "constant": true
    },
    {
      "inputs": [],
      "name": "ecpTokenAddress",
      "outputs": [
        {
          "internalType": "address",
          "name": "",
          "type": "address"
        }
      ],
      "stateMutability": "view",
      "type": "function",
      "constant": true
    },
    {
      "inputs": [],
      "name": "owner",
      "outputs": [
        {
          "internalType": "address",
          "name": "",
          "type": "address"
        }
      ],
      "stateMutability": "view",
      "type": "function",
      "constant": true
    },
    {
      "inputs": [],
      "name": "renounceOwnership",
      "outputs": [],
      "stateMutability": "nonpayable",
      "type": "function"
    },
    {
      "inputs": [
        {
          "internalType": "address",
          "name": "newOwner",
          "type": "address"
        }
      ],
      "name": "transferOwnership",
      "outputs": [],
      "stateMutability": "nonpayable",
      "type": "function"
    },
    {
      "inputs": [
        {
          "internalType": "string",
          "name": "_description",
          "type": "string"
        },
        {
          "internalType": "address",
          "name": "_customerAddress",
          "type": "address"
        },
        {
          "internalType": "address",
          "name": "_contractAddress",
          "type": "address"
        },
        {
          "internalType": "uint256",
          "name": "_siretNumber",
          "type": "uint256"
        },
        {
          "internalType": "bool",
          "name": "_isActive",
          "type": "bool"
        }
      ],
      "name": "setCustomer",
      "outputs": [],
      "stateMutability": "nonpayable",
      "type": "function"
    },
    {
      "inputs": [
        {
          "internalType": "string",
          "name": "_description",
          "type": "string"
        },
        {
          "internalType": "address",
          "name": "_legislatorAddress",
          "type": "address"
        },
        {
          "internalType": "uint256",
          "name": "_siretNumber",
          "type": "uint256"
        },
        {
          "internalType": "bool",
          "name": "_isActive",
          "type": "bool"
        }
      ],
      "name": "setLegislator",
      "outputs": [],
      "stateMutability": "nonpayable",
      "type": "function"
    },
    {
      "inputs": [
        {
          "internalType": "string",
          "name": "_description",
          "type": "string"
        },
        {
          "internalType": "address",
          "name": "_techMasterAddress",
          "type": "address"
        },
        {
          "internalType": "uint256",
          "name": "_siretNumber",
          "type": "uint256"
        },
        {
          "internalType": "bool",
          "name": "_isActive",
          "type": "bool"
        }
      ],
      "name": "setTechMaster",
      "outputs": [],
      "stateMutability": "nonpayable",
      "type": "function"
    },
    {
      "inputs": [
        {
          "internalType": "string",
          "name": "_description",
          "type": "string"
        },
        {
          "internalType": "string",
          "name": "_url",
          "type": "string"
        },
        {
          "internalType": "string",
          "name": "_info",
          "type": "string"
        },
        {
          "internalType": "address",
          "name": "_bridgeAddress",
          "type": "address"
        },
        {
          "internalType": "address",
          "name": "_techMasterAddress",
          "type": "address"
        },
        {
          "internalType": "bool",
          "name": "_isActive",
          "type": "bool"
        }
      ],
      "name": "setBridge",
      "outputs": [],
      "stateMutability": "nonpayable",
      "type": "function"
    },
    {
      "inputs": [
        {
          "internalType": "string",
          "name": "_description",
          "type": "string"
        },
        {
          "internalType": "string",
          "name": "_info",
          "type": "string"
        },
        {
          "internalType": "bytes8",
          "name": "_codeMeasure",
          "type": "bytes8"
        },
        {
          "internalType": "bool",
          "name": "_isActive",
          "type": "bool"
        },
        {
          "internalType": "bool",
          "name": "_isAllowed",
          "type": "bool"
        }
      ],
      "name": "setTypeMeasure",
      "outputs": [],
      "stateMutability": "nonpayable",
      "type": "function"
    },
    {
      "inputs": [],
      "name": "rootingApps",
      "outputs": [
        {
          "internalType": "uint256",
          "name": "_myTypeUser",
          "type": "uint256"
        }
      ],
      "stateMutability": "view",
      "type": "function",
      "constant": true
    }
  ],
  "bytecode": "0x60806040523480156200001157600080fd5b5060405162002c3538038062002c3583398181016040528101906200003791906200018f565b6000620000496200017060201b60201c565b9050806000806101000a81548173ffffffffffffffffffffffffffffffffffffffff021916908373ffffffffffffffffffffffffffffffffffffffff1602179055508073ffffffffffffffffffffffffffffffffffffffff16600073ffffffffffffffffffffffffffffffffffffffff167f8be0079c531659141344cd1fd0a4f28419497f9722a3daafe3b4186f6b6457e060405160405180910390a35080600660006101000a81548173ffffffffffffffffffffffffffffffffffffffff021916908373ffffffffffffffffffffffffffffffffffffffff16021790555080600760006101000a81548173ffffffffffffffffffffffffffffffffffffffff021916908373ffffffffffffffffffffffffffffffffffffffff1602179055505062000209565b600033905090565b6000815190506200018981620001ef565b92915050565b600060208284031215620001a257600080fd5b6000620001b28482850162000178565b91505092915050565b6000620001c882620001cf565b9050919050565b600073ffffffffffffffffffffffffffffffffffffffff82169050919050565b620001fa81620001bb565b81146200020657600080fd5b50565b612a1c80620002196000396000f3fe608060405234801561001057600080fd5b50600436106100f55760003560e01c8063b54251b511610097578063e20cd95111610066578063e20cd9511461026a578063e694276014610286578063e738d199146102ba578063f2fde38b146102ed576100f5565b8063b54251b5146101b0578063b8c500e5146101e3578063c29f7ba314610218578063ca588b0f1461024c576100f5565b80635ec6b759116100d35780635ec6b7591461014e578063715018a61461016c5780638da5cb5b146101765780639e53c89114610194576100f5565b80631503b19f146100fa57806358d86746146101165780635e42705a14610132575b600080fd5b610114600480360381019061010f9190611d7d565b610309565b005b610130600480360381019061012b9190611e9f565b610526565b005b61014c60048036038101906101479190611cee565b610979565b005b610156610bfa565b604051610163919061234b565b60405180910390f35b610174610c20565b005b61017e610d5a565b60405161018b919061234b565b60405180910390f35b6101ae60048036038101906101a99190611df8565b610d83565b005b6101ca60048036038101906101c59190611c9c565b610ff0565b6040516101da9493929190612497565b60405180910390f35b6101fd60048036038101906101f89190611c9c565b6110c2565b60405161020f96959493929190612421565b60405180910390f35b610232600480360381019061022d9190611c9c565b6112d0565b604051610243959493929190612366565b60405180910390f35b6102546113c8565b604051610261919061279b565b60405180910390f35b610284600480360381019061027f9190611d7d565b611530565b005b6102a0600480360381019061029b9190611cc5565b61174d565b6040516102b19594939291906123c0565b60405180910390f35b6102d460048036038101906102cf9190611c9c565b6118ba565b6040516102e49493929190612497565b60405180910390f35b61030760048036038101906103029190611c9c565b61198c565b005b610311611b35565b73ffffffffffffffffffffffffffffffffffffffff1661032f610d5a565b73ffffffffffffffffffffffffffffffffffffffff1614610385576040517f08c379a000000000000000000000000000000000000000000000000000000000815260040161037c9061266b565b60405180910390fd5b600360008473ffffffffffffffffffffffffffffffffffffffff1673ffffffffffffffffffffffffffffffffffffffff16815260200190815260200160002060020160019054906101000a900460ff16610417577fbf4ae51d8c0eda5cf0cccfde45fa35ea3a741a7f35b5f3d24dd2196b6eaab828833360405161040a92919061257b565b60405180910390a1610451565b7fbf4ae51d8c0eda5cf0cccfde45fa35ea3a741a7f35b5f3d24dd2196b6eaab828833360405161044892919061251f565b60405180910390a15b6040518060800160405280858152602001838152602001821515815260200160011515815250600360008573ffffffffffffffffffffffffffffffffffffffff1673ffffffffffffffffffffffffffffffffffffffff16815260200190815260200160002060008201518160000190805190602001906104d2929190611b3d565b506020820151816001015560408201518160020160006101000a81548160ff02191690831515021790555060608201518160020160016101000a81548160ff02191690831515021790555090505050505050565b600360003373ffffffffffffffffffffffffffffffffffffffff1673ffffffffffffffffffffffffffffffffffffffff16815260200190815260200160002060020160019054906101000a900460ff16806105b357503373ffffffffffffffffffffffffffffffffffffffff1661059b610d5a565b73ffffffffffffffffffffffffffffffffffffffff16145b6105f2576040517f08c379a00000000000000000000000000000000000000000000000000000000081526004016105e99061277b565b60405180910390fd5b600460008473ffffffffffffffffffffffffffffffffffffffff1673ffffffffffffffffffffffffffffffffffffffff16815260200190815260200160002060030160159054906101000a900460ff16610684577fbf4ae51d8c0eda5cf0cccfde45fa35ea3a741a7f35b5f3d24dd2196b6eaab8288333604051610677929190612703565b60405180910390a16107cb565b3373ffffffffffffffffffffffffffffffffffffffff16600460008573ffffffffffffffffffffffffffffffffffffffff1673ffffffffffffffffffffffffffffffffffffffff16815260200190815260200160002060030160009054906101000a900473ffffffffffffffffffffffffffffffffffffffff1673ffffffffffffffffffffffffffffffffffffffff16148061075257503373ffffffffffffffffffffffffffffffffffffffff1661073a610d5a565b73ffffffffffffffffffffffffffffffffffffffff16145b610791576040517f08c379a00000000000000000000000000000000000000000000000000000000081526004016107889061277b565b60405180910390fd5b7fbf4ae51d8c0eda5cf0cccfde45fa35ea3a741a7f35b5f3d24dd2196b6eaab82883336040516107c29291906125b7565b60405180910390a15b3373ffffffffffffffffffffffffffffffffffffffff166107ea610d5a565b73ffffffffffffffffffffffffffffffffffffffff1614610809573391505b6040518060c001604052808781526020018681526020018581526020018373ffffffffffffffffffffffffffffffffffffffff168152602001821515815260200160011515815250600460008573ffffffffffffffffffffffffffffffffffffffff1673ffffffffffffffffffffffffffffffffffffffff16815260200190815260200160002060008201518160000190805190602001906108ac929190611b3d565b5060208201518160010190805190602001906108c9929190611b3d565b5060408201518160020190805190602001906108e6929190611b3d565b5060608201518160030160006101000a81548173ffffffffffffffffffffffffffffffffffffffff021916908373ffffffffffffffffffffffffffffffffffffffff16021790555060808201518160030160146101000a81548160ff02191690831515021790555060a08201518160030160156101000a81548160ff021916908315150217905550905050505050505050565b610981611b35565b73ffffffffffffffffffffffffffffffffffffffff1661099f610d5a565b73ffffffffffffffffffffffffffffffffffffffff16146109f5576040517f08c379a00000000000000000000000000000000000000000000000000000000081526004016109ec9061266b565b60405180910390fd5b600160008573ffffffffffffffffffffffffffffffffffffffff1673ffffffffffffffffffffffffffffffffffffffff16815260200190815260200160002060030160019054906101000a900460ff16610a87577fbf4ae51d8c0eda5cf0cccfde45fa35ea3a741a7f35b5f3d24dd2196b6eaab8288433604051610a7a92919061273f565b60405180910390a1610ac1565b7fbf4ae51d8c0eda5cf0cccfde45fa35ea3a741a7f35b5f3d24dd2196b6eaab8288433604051610ab892919061268b565b60405180910390a15b6040518060a001604052808681526020018473ffffffffffffffffffffffffffffffffffffffff168152602001838152602001821515815260200160011515815250600160008673ffffffffffffffffffffffffffffffffffffffff1673ffffffffffffffffffffffffffffffffffffffff1681526020019081526020016000206000820151816000019080519060200190610b5e929190611b3d565b5060208201518160010160006101000a81548173ffffffffffffffffffffffffffffffffffffffff021916908373ffffffffffffffffffffffffffffffffffffffff1602179055506040820151816002015560608201518160030160006101000a81548160ff02191690831515021790555060808201518160030160016101000a81548160ff0219169083151502179055509050505050505050565b600660009054906101000a900473ffffffffffffffffffffffffffffffffffffffff1681565b610c28611b35565b73ffffffffffffffffffffffffffffffffffffffff16610c46610d5a565b73ffffffffffffffffffffffffffffffffffffffff1614610c9c576040517f08c379a0000000000000000000000000000000000000000000000000000000008152600401610c939061266b565b60405180910390fd5b600073ffffffffffffffffffffffffffffffffffffffff1660008054906101000a900473ffffffffffffffffffffffffffffffffffffffff1673ffffffffffffffffffffffffffffffffffffffff167f8be0079c531659141344cd1fd0a4f28419497f9722a3daafe3b4186f6b6457e060405160405180910390a360008060006101000a81548173ffffffffffffffffffffffffffffffffffffffff021916908373ffffffffffffffffffffffffffffffffffffffff160217905550565b60008060009054906101000a900473ffffffffffffffffffffffffffffffffffffffff16905090565b610d8b611b35565b73ffffffffffffffffffffffffffffffffffffffff16610da9610d5a565b73ffffffffffffffffffffffffffffffffffffffff1614610dff576040517f08c379a0000000000000000000000000000000000000000000000000000000008152600401610df69061266b565b60405180910390fd5b600560008477ffffffffffffffffffffffffffffffffffffffffffffffff191677ffffffffffffffffffffffffffffffffffffffffffffffff1916815260200190815260200160002060020160029054906101000a900460ff16610e9b577ffd28b00c124636c5ca6e4dcc21b05bb735fe07af43e9c2cd98c4aa673a7063508333604051610e8e9291906126c7565b60405180910390a1610ed5565b7ffd28b00c124636c5ca6e4dcc21b05bb735fe07af43e9c2cd98c4aa673a7063508333604051610ecc9291906125f3565b60405180910390a15b6040518060a001604052808681526020018581526020018315158152602001821515815260200160011515815250600560008577ffffffffffffffffffffffffffffffffffffffffffffffff191677ffffffffffffffffffffffffffffffffffffffffffffffff191681526020019081526020016000206000820151816000019080519060200190610f68929190611b3d565b506020820151816001019080519060200190610f85929190611b3d565b5060408201518160020160006101000a81548160ff02191690831515021790555060608201518160020160016101000a81548160ff02191690831515021790555060808201518160020160026101000a81548160ff0219169083151502179055509050505050505050565b6002602052806000526040600020600091509050806000018054611013906128e9565b80601f016020809104026020016040519081016040528092919081815260200182805461103f906128e9565b801561108c5780601f106110615761010080835404028352916020019161108c565b820191906000526020600020905b81548152906001019060200180831161106f57829003601f168201915b5050505050908060010154908060020160009054906101000a900460ff16908060020160019054906101000a900460ff16905084565b60046020528060005260406000206000915090508060000180546110e5906128e9565b80601f0160208091040260200160405190810160405280929190818152602001828054611111906128e9565b801561115e5780601f106111335761010080835404028352916020019161115e565b820191906000526020600020905b81548152906001019060200180831161114157829003601f168201915b505050505090806001018054611173906128e9565b80601f016020809104026020016040519081016040528092919081815260200182805461119f906128e9565b80156111ec5780601f106111c1576101008083540402835291602001916111ec565b820191906000526020600020905b8154815290600101906020018083116111cf57829003601f168201915b505050505090806002018054611201906128e9565b80601f016020809104026020016040519081016040528092919081815260200182805461122d906128e9565b801561127a5780601f1061124f5761010080835404028352916020019161127a565b820191906000526020600020905b81548152906001019060200180831161125d57829003601f168201915b5050505050908060030160009054906101000a900473ffffffffffffffffffffffffffffffffffffffff16908060030160149054906101000a900460ff16908060030160159054906101000a900460ff16905086565b60016020528060005260406000206000915090508060000180546112f3906128e9565b80601f016020809104026020016040519081016040528092919081815260200182805461131f906128e9565b801561136c5780601f106113415761010080835404028352916020019161136c565b820191906000526020600020905b81548152906001019060200180831161134f57829003601f168201915b5050505050908060010160009054906101000a900473ffffffffffffffffffffffffffffffffffffffff16908060020154908060030160009054906101000a900460ff16908060030160019054906101000a900460ff16905085565b60006113d2610d5a565b73ffffffffffffffffffffffffffffffffffffffff163373ffffffffffffffffffffffffffffffffffffffff16141561140e576001905061152d565b600160003373ffffffffffffffffffffffffffffffffffffffff1673ffffffffffffffffffffffffffffffffffffffff16815260200190815260200160002060030160019054906101000a900460ff161561146c576002905061152d565b600260003373ffffffffffffffffffffffffffffffffffffffff1673ffffffffffffffffffffffffffffffffffffffff16815260200190815260200160002060020160019054906101000a900460ff16156114ca576003905061152d565b600360003373ffffffffffffffffffffffffffffffffffffffff1673ffffffffffffffffffffffffffffffffffffffff16815260200190815260200160002060020160019054906101000a900460ff1615611528576004905061152d565b600590505b90565b611538611b35565b73ffffffffffffffffffffffffffffffffffffffff16611556610d5a565b73ffffffffffffffffffffffffffffffffffffffff16146115ac576040517f08c379a00000000000000000000000000000000000000000000000000000000081526004016115a39061266b565b60405180910390fd5b600260008473ffffffffffffffffffffffffffffffffffffffff1673ffffffffffffffffffffffffffffffffffffffff16815260200190815260200160002060020160019054906101000a900460ff1661163e577fbf4ae51d8c0eda5cf0cccfde45fa35ea3a741a7f35b5f3d24dd2196b6eaab828833360405161163192919061262f565b60405180910390a1611678565b7fbf4ae51d8c0eda5cf0cccfde45fa35ea3a741a7f35b5f3d24dd2196b6eaab828833360405161166f9291906124e3565b60405180910390a15b6040518060800160405280858152602001838152602001821515815260200160011515815250600260008573ffffffffffffffffffffffffffffffffffffffff1673ffffffffffffffffffffffffffffffffffffffff16815260200190815260200160002060008201518160000190805190602001906116f9929190611b3d565b506020820151816001015560408201518160020160006101000a81548160ff02191690831515021790555060608201518160020160016101000a81548160ff02191690831515021790555090505050505050565b6005602052806000526040600020600091509050806000018054611770906128e9565b80601f016020809104026020016040519081016040528092919081815260200182805461179c906128e9565b80156117e95780601f106117be576101008083540402835291602001916117e9565b820191906000526020600020905b8154815290600101906020018083116117cc57829003601f168201915b5050505050908060010180546117fe906128e9565b80601f016020809104026020016040519081016040528092919081815260200182805461182a906128e9565b80156118775780601f1061184c57610100808354040283529160200191611877565b820191906000526020600020905b81548152906001019060200180831161185a57829003601f168201915b5050505050908060020160009054906101000a900460ff16908060020160019054906101000a900460ff16908060020160029054906101000a900460ff16905085565b60036020528060005260406000206000915090508060000180546118dd906128e9565b80601f0160208091040260200160405190810160405280929190818152602001828054611909906128e9565b80156119565780601f1061192b57610100808354040283529160200191611956565b820191906000526020600020905b81548152906001019060200180831161193957829003601f168201915b5050505050908060010154908060020160009054906101000a900460ff16908060020160019054906101000a900460ff16905084565b611994611b35565b73ffffffffffffffffffffffffffffffffffffffff166119b2610d5a565b73ffffffffffffffffffffffffffffffffffffffff1614611a08576040517f08c379a00000000000000000000000000000000000000000000000000000000081526004016119ff9061266b565b60405180910390fd5b600073ffffffffffffffffffffffffffffffffffffffff168173ffffffffffffffffffffffffffffffffffffffff161415611a78576040517f08c379a0000000000000000000000000000000000000000000000000000000008152600401611a6f9061255b565b60405180910390fd5b8073ffffffffffffffffffffffffffffffffffffffff1660008054906101000a900473ffffffffffffffffffffffffffffffffffffffff1673ffffffffffffffffffffffffffffffffffffffff167f8be0079c531659141344cd1fd0a4f28419497f9722a3daafe3b4186f6b6457e060405160405180910390a3806000806101000a81548173ffffffffffffffffffffffffffffffffffffffff021916908373ffffffffffffffffffffffffffffffffffffffff16021790555050565b600033905090565b828054611b49906128e9565b90600052602060002090601f016020900481019282611b6b5760008555611bb2565b82601f10611b8457805160ff1916838001178555611bb2565b82800160010185558215611bb2579182015b82811115611bb1578251825591602001919060010190611b96565b5b509050611bbf9190611bc3565b5090565b5b80821115611bdc576000816000905550600101611bc4565b5090565b6000611bf3611bee846127e7565b6127b6565b905082815260208101848484011115611c0b57600080fd5b611c168482856128a7565b509392505050565b600081359050611c2d8161298a565b92915050565b600081359050611c42816129a1565b92915050565b600081359050611c57816129b8565b92915050565b600082601f830112611c6e57600080fd5b8135611c7e848260208601611be0565b91505092915050565b600081359050611c96816129cf565b92915050565b600060208284031215611cae57600080fd5b6000611cbc84828501611c1e565b91505092915050565b600060208284031215611cd757600080fd5b6000611ce584828501611c48565b91505092915050565b600080600080600060a08688031215611d0657600080fd5b600086013567ffffffffffffffff811115611d2057600080fd5b611d2c88828901611c5d565b9550506020611d3d88828901611c1e565b9450506040611d4e88828901611c1e565b9350506060611d5f88828901611c87565b9250506080611d7088828901611c33565b9150509295509295909350565b60008060008060808587031215611d9357600080fd5b600085013567ffffffffffffffff811115611dad57600080fd5b611db987828801611c5d565b9450506020611dca87828801611c1e565b9350506040611ddb87828801611c87565b9250506060611dec87828801611c33565b91505092959194509250565b600080600080600060a08688031215611e1057600080fd5b600086013567ffffffffffffffff811115611e2a57600080fd5b611e3688828901611c5d565b955050602086013567ffffffffffffffff811115611e5357600080fd5b611e5f88828901611c5d565b9450506040611e7088828901611c48565b9350506060611e8188828901611c33565b9250506080611e9288828901611c33565b9150509295509295909350565b60008060008060008060c08789031215611eb857600080fd5b600087013567ffffffffffffffff811115611ed257600080fd5b611ede89828a01611c5d565b965050602087013567ffffffffffffffff811115611efb57600080fd5b611f0789828a01611c5d565b955050604087013567ffffffffffffffff811115611f2457600080fd5b611f3089828a01611c5d565b9450506060611f4189828a01611c1e565b9350506080611f5289828a01611c1e565b92505060a0611f6389828a01611c33565b9150509295509295509295565b611f7981612833565b82525050565b611f8881612845565b82525050565b611f9781612851565b82525050565b6000611fa882612817565b611fb28185612822565b9350611fc28185602086016128b6565b611fcb81612979565b840191505092915050565b6000611fe3601183612822565b91507f557064617465204c656769736c61746f720000000000000000000000000000006000830152602082019050919050565b6000612023601183612822565b91507f55706461746520546563684d61737465720000000000000000000000000000006000830152602082019050919050565b6000612063602683612822565b91507f4f776e61626c653a206e6577206f776e657220697320746865207a65726f206160008301527f64647265737300000000000000000000000000000000000000000000000000006020830152604082019050919050565b60006120c9600e83612822565b91507f4e657720546563684d61737465720000000000000000000000000000000000006000830152602082019050919050565b6000612109600d83612822565b91507f55706461746520427269646765000000000000000000000000000000000000006000830152602082019050919050565b6000612149601283612822565b91507f55706461746520547970654d65617375726500000000000000000000000000006000830152602082019050919050565b6000612189600e83612822565b91507f4e6577204c656769736c61746f720000000000000000000000000000000000006000830152602082019050919050565b60006121c9602083612822565b91507f4f776e61626c653a2063616c6c6572206973206e6f7420746865206f776e65726000830152602082019050919050565b6000612209600f83612822565b91507f55706461746520437573746f6d657200000000000000000000000000000000006000830152602082019050919050565b6000612249600f83612822565b91507f4e657720547970654d65617375726500000000000000000000000000000000006000830152602082019050919050565b6000612289600a83612822565b91507f4e657720427269646765000000000000000000000000000000000000000000006000830152602082019050919050565b60006122c9600c83612822565b91507f4e657720437573746f6d657200000000000000000000000000000000000000006000830152602082019050919050565b6000612309600d83612822565b91507f4163636573732064656e696564000000000000000000000000000000000000006000830152602082019050919050565b6123458161289d565b82525050565b60006020820190506123606000830184611f70565b92915050565b600060a08201905081810360008301526123808188611f9d565b905061238f6020830187611f70565b61239c604083018661233c565b6123a96060830185611f7f565b6123b66080830184611f7f565b9695505050505050565b600060a08201905081810360008301526123da8188611f9d565b905081810360208301526123ee8187611f9d565b90506123fd6040830186611f7f565b61240a6060830185611f7f565b6124176080830184611f7f565b9695505050505050565b600060c082019050818103600083015261243b8189611f9d565b9050818103602083015261244f8188611f9d565b905081810360408301526124638187611f9d565b90506124726060830186611f70565b61247f6080830185611f7f565b61248c60a0830184611f7f565b979650505050505050565b600060808201905081810360008301526124b18187611f9d565b90506124c0602083018661233c565b6124cd6040830185611f7f565b6124da6060830184611f7f565b95945050505050565b600060608201905081810360008301526124fc81611fd6565b905061250b6020830185611f70565b6125186040830184611f70565b9392505050565b6000606082019050818103600083015261253881612016565b90506125476020830185611f70565b6125546040830184611f70565b9392505050565b6000602082019050818103600083015261257481612056565b9050919050565b60006060820190508181036000830152612594816120bc565b90506125a36020830185611f70565b6125b06040830184611f70565b9392505050565b600060608201905081810360008301526125d0816120fc565b90506125df6020830185611f70565b6125ec6040830184611f70565b9392505050565b6000606082019050818103600083015261260c8161213c565b905061261b6020830185611f8e565b6126286040830184611f70565b9392505050565b600060608201905081810360008301526126488161217c565b90506126576020830185611f70565b6126646040830184611f70565b9392505050565b60006020820190508181036000830152612684816121bc565b9050919050565b600060608201905081810360008301526126a4816121fc565b90506126b36020830185611f70565b6126c06040830184611f70565b9392505050565b600060608201905081810360008301526126e08161223c565b90506126ef6020830185611f8e565b6126fc6040830184611f70565b9392505050565b6000606082019050818103600083015261271c8161227c565b905061272b6020830185611f70565b6127386040830184611f70565b9392505050565b60006060820190508181036000830152612758816122bc565b90506127676020830185611f70565b6127746040830184611f70565b9392505050565b60006020820190508181036000830152612794816122fc565b9050919050565b60006020820190506127b0600083018461233c565b92915050565b6000604051905081810181811067ffffffffffffffff821117156127dd576127dc61294a565b5b8060405250919050565b600067ffffffffffffffff8211156128025761280161294a565b5b601f19601f8301169050602081019050919050565b600081519050919050565b600082825260208201905092915050565b600061283e8261287d565b9050919050565b60008115159050919050565b60007fffffffffffffffff00000000000000000000000000000000000000000000000082169050919050565b600073ffffffffffffffffffffffffffffffffffffffff82169050919050565b6000819050919050565b82818337600083830152505050565b60005b838110156128d45780820151818401526020810190506128b9565b838111156128e3576000848401525b50505050565b6000600282049050600182168061290157607f821691505b602082108114156129155761291461291b565b5b50919050565b7f4e487b7100000000000000000000000000000000000000000000000000000000600052602260045260246000fd5b7f4e487b7100000000000000000000000000000000000000000000000000000000600052604160045260246000fd5b6000601f19601f8301169050919050565b61299381612833565b811461299e57600080fd5b50565b6129aa81612845565b81146129b557600080fd5b50565b6129c181612851565b81146129cc57600080fd5b50565b6129d88161289d565b81146129e357600080fd5b5056fea2646970667358221220df4b9e540e91b4acc6adad3b71f8e2d91757bc1f0194a9777914897a69689cd964736f6c63430008000033",
  "immutableReferences": {},
  "source": "// SPDX-License-Identifier: MIT\r\npragma solidity 0.8.0;\r\n\r\nimport \"../node_modules/@openzeppelin/contracts/utils/Counters.sol\";\r\nimport \"../node_modules/@openzeppelin/contracts/access/Ownable.sol\";\r\nimport \"../node_modules/@openZeppelin/contracts/token/ERC20/IERC20.sol\";\r\n\r\ncontract LedgerContract is Ownable {\r\n    using Counters for Counters.Counter;\r\n\r\n    /**\r\n     * @dev Structure of Customer\r\n     * @notice Feature_V2 \r\n     */\r\n    struct Customer {\r\n        string description;\r\n        address contractAddress;\r\n        uint siretNumber;\r\n        bool isActive;\r\n        bool exist;\r\n    }\r\n\r\n    /**\r\n     * @dev Structure of Legislator\r\n     * @notice Feature_V2 \r\n     */\r\n    struct Legislator {\r\n        string description;\r\n        uint siretNumber;        \r\n        bool isActive;\r\n        bool exist;        \r\n    }\r\n\r\n    /**\r\n     * @dev Structure of TechMaster\r\n     * @notice Feature_V2 \r\n     */\r\n    struct TechMaster {\r\n        string description;\r\n        uint siretNumber;        \r\n        bool isActive;\r\n        bool exist;        \r\n    }\r\n\r\n    /**\r\n     * @dev Structure of Bridge\r\n     * @notice Feature_V2 \r\n     */\r\n    struct Bridge {\r\n        string description;\r\n        string url;   \r\n        string info;        \r\n        address techMasterAddress;     \r\n        bool isActive;\r\n        bool exist;        \r\n    }\r\n\r\n    /**\r\n     * @dev Structure of TypeMeasure\r\n     * @notice Feature_V2 \r\n     */\r\n    struct TypeMeasure{\r\n\t    string description;\r\n        string info;\r\n        bool isActive;\r\n\t    bool isAllowed;\r\n        bool exist;        \r\n    }\r\n\r\n    event LedgerUpdate(string _message, address _target, address _author);  \r\n    event TypeMeasureUpdate(string _message, bytes8 _target, address _author);  \r\n  \r\n    modifier onlyTechMaster() {\r\n        require (_techMasters[msg.sender].exist || owner() ==  msg.sender, \"Access denied\");\r\n        _;\r\n    }\r\n\r\n    mapping(address => Customer) public _customers; \r\n    mapping(address => Legislator) public _legislators; \r\n    mapping(address => TechMaster) public _techMasters;\r\n    mapping(address => Bridge) public _bridges;\r\n    mapping(bytes8 => TypeMeasure) public _typeMeasures;\r\n\r\n    address public ecpTokenAddress;\r\n    IERC20 private _ECPToken;\r\n\r\n    constructor (address _ecpTokenAddress) {\r\n        ecpTokenAddress = _ecpTokenAddress;\r\n        _ECPToken = IERC20(_ecpTokenAddress);\r\n    }    \r\n\r\n     /**\r\n     * @dev set a Customer\r\n     * @param _description string description of a Customer\r\n     * @param _customerAddress address Customer's address\r\n     * @param _contractAddress address contract's address\r\n     * @param _siretNumber uint Customer's siretNumber\r\n     * @param _isActive bool Customer's status : active / inactive\r\n     */\r\n    function setCustomer (\r\n        string memory _description,\r\n        address _customerAddress, \r\n        address _contractAddress,\r\n        uint _siretNumber,\r\n        bool _isActive) \r\n        onlyOwner() external {\r\n\r\n        if(!_customers[_customerAddress].exist){\r\n            emit LedgerUpdate(\"New Customer\", _customerAddress, msg.sender);\r\n        }else{\r\n            emit LedgerUpdate(\"Update Customer\", _customerAddress, msg.sender);\r\n        }\r\n\r\n        _customers[_customerAddress] = Customer(\r\n        _description,\r\n        _contractAddress,         \r\n        _siretNumber,\r\n        _isActive, \r\n        true);\r\n    }\r\n\r\n     /**\r\n     * @dev set a Legislator\r\n     * @param _description string description of a Legislator\r\n     * @param _legislatorAddress address Legislator's address\r\n     * @param _siretNumber uint Legislator's siretNumber\r\n     * @param _isActive bool Legislator's status : active / inactive\r\n     */\r\n    function setLegislator (\r\n        string memory _description,        \r\n        address _legislatorAddress,\r\n        uint _siretNumber,\r\n        bool _isActive) \r\n        onlyOwner() external {\r\n\r\n        if(!_legislators[_legislatorAddress].exist){\r\n            emit LedgerUpdate(\"New Legislator\", _legislatorAddress, msg.sender);\r\n        }else{\r\n            emit LedgerUpdate(\"Update Legislator\", _legislatorAddress, msg.sender);\r\n        }\r\n\r\n        _legislators[_legislatorAddress] = Legislator(\r\n        _description,\r\n        _siretNumber,\r\n        _isActive,\r\n        true);   \r\n    }    \r\n\r\n     /**\r\n     * @dev set a TechMaster\r\n     * @param _description string description of a TechMaster\r\n     * @param _techMasterAddress address TechMaster's address\r\n     * @param _siretNumber uint TechMaster's siretNumber\r\n     * @param _isActive bool TechMaster's status : active / inactive\r\n     */\r\n    function setTechMaster (\r\n        string memory _description,\r\n        address _techMasterAddress,       \r\n        uint _siretNumber,\r\n        bool _isActive) \r\n        onlyOwner() external {\r\n\r\n        if(!_techMasters[_techMasterAddress].exist){\r\n            emit LedgerUpdate(\"New TechMaster\", _techMasterAddress, msg.sender);\r\n        }else{\r\n            emit LedgerUpdate(\"Update TechMaster\", _techMasterAddress, msg.sender);\r\n        }\r\n\r\n        _techMasters[_techMasterAddress] = TechMaster(\r\n        _description,\r\n        _siretNumber,\r\n        _isActive,\r\n        true);\r\n    }    \r\n\r\n     /**\r\n     * @dev set a Bridge\r\n     * @param _description string description of a Bridge\r\n     * @param _url string url of a Bridge\r\n     * @param _info string info regarding a Bridge\r\n     * @param _bridgeAddress address Bridge's address\r\n     * @param _techMasterAddress address TechMaster's address\r\n     * @param _isActive bool TechMaster's status : active / inactive\r\n     */\r\n    function setBridge (\r\n        string memory _description,\r\n        string memory _url, \r\n        string memory _info,               \r\n        address _bridgeAddress,\r\n        address _techMasterAddress,       \r\n        bool _isActive) \r\n        onlyTechMaster() external {\r\n\r\n        if(!_bridges[_bridgeAddress].exist){\r\n            emit LedgerUpdate(\"New Bridge\", _bridgeAddress, msg.sender);\r\n        }else{\r\n            require(_bridges[_bridgeAddress].techMasterAddress == msg.sender || owner()==msg.sender, \"Access denied\");\r\n            emit LedgerUpdate(\"Update Bridge\", _bridgeAddress, msg.sender);\r\n        }\r\n\r\n        if(owner()!=msg.sender){\r\n            _techMasterAddress = msg.sender;\r\n        }\r\n\r\n        _bridges[_bridgeAddress] = Bridge(\r\n        _description,\r\n        _url,        \r\n        _info,\r\n        _techMasterAddress,\r\n        _isActive,\r\n        true);\r\n    } \r\n\r\n     /**\r\n     * @dev set a TypeMeasure\r\n     * @param _description string description of a TypeMeasure\r\n     * @param _info string info regarding a TypeMeasure\r\n     * @param _codeMeasure bytes8 TypeMeasure's code\r\n     * @param _isActive bool TechMaster's status : active / inactive \r\n     * @param _isAllowed bool TypeMeasure's authorization status\r\n     */    \r\n    function setTypeMeasure (\r\n        string memory _description,\r\n        string memory _info,\r\n        bytes8 _codeMeasure,\r\n        bool _isActive,\r\n        bool _isAllowed) \r\n        onlyOwner() external {  \r\n\r\n        if(!_typeMeasures[_codeMeasure].exist){\r\n            emit TypeMeasureUpdate(\"New TypeMeasure\", _codeMeasure, msg.sender);\r\n        }else{\r\n            emit TypeMeasureUpdate(\"Update TypeMeasure\", _codeMeasure, msg.sender);\r\n        }\r\n\r\n        _typeMeasures[_codeMeasure] = TypeMeasure(\r\n        _description,\r\n        _info,\r\n        _isActive,\r\n        _isAllowed,\r\n        true);\r\n    }    \r\n\r\n     /**\r\n     * @dev allows the dApp to process user's type and display the correct interface\r\n     * @param _myTypeUser uint user's type \r\n     */  \r\n    function rootingApps()\r\n        external view returns(uint _myTypeUser){\r\n        /*\r\n            1 : Admin\r\n            2 : Client\r\n            3 : Lgislateur\r\n            4 : Techmaster\r\n            5 : Public\r\n        */\r\n        if(msg.sender == owner()){\r\n            return 1;\r\n        }\r\n        if(_customers[msg.sender].exist){\r\n            return 2;\r\n        }\r\n        if(_legislators[msg.sender].exist){\r\n            return 3;\r\n        }\r\n        if(_techMasters[msg.sender].exist){\r\n            return 4;\r\n        }\r\n        return 5;\r\n    }\r\n}\r\n",
  "sourcePath": "C:/Users/danie/Desktop/Solidity/Projet final/eco-capt/contracts/LedgerContract.sol",
  "compiler": {
    "name": "solc",
    "version": "0.8.0+commit.c7dfd78e.Emscripten.clang"
  },
  "schemaVersion": "3.3.4",
  "updatedAt": "2021-04-24T19:39:31.028Z",
  "networkType": "ethereum",
  "devdoc": {
    "kind": "dev",
    "methods": {
      "owner()": {
        "details": "Returns the address of the current owner."
      },
      "renounceOwnership()": {
        "details": "Leaves the contract without owner. It will not be possible to call `onlyOwner` functions anymore. Can only be called by the current owner. NOTE: Renouncing ownership will leave the contract without an owner, thereby removing any functionality that is only available to the owner."
      },
      "rootingApps()": {
        "details": "allows the dApp to process user's type and display the correct interface",
        "params": {
          "_myTypeUser": "uint user's type "
        }
      },
      "setBridge(string,string,string,address,address,bool)": {
        "details": "set a Bridge",
        "params": {
          "_bridgeAddress": "address Bridge's address",
          "_description": "string description of a Bridge",
          "_info": "string info regarding a Bridge",
          "_isActive": "bool TechMaster's status : active / inactive",
          "_techMasterAddress": "address TechMaster's address",
          "_url": "string url of a Bridge"
        }
      },
      "setCustomer(string,address,address,uint256,bool)": {
        "details": "set a Customer",
        "params": {
          "_contractAddress": "address contract's address",
          "_customerAddress": "address Customer's address",
          "_description": "string description of a Customer",
          "_isActive": "bool Customer's status : active / inactive",
          "_siretNumber": "uint Customer's siretNumber"
        }
      },
      "setLegislator(string,address,uint256,bool)": {
        "details": "set a Legislator",
        "params": {
          "_description": "string description of a Legislator",
          "_isActive": "bool Legislator's status : active / inactive",
          "_legislatorAddress": "address Legislator's address",
          "_siretNumber": "uint Legislator's siretNumber"
        }
      },
      "setTechMaster(string,address,uint256,bool)": {
        "details": "set a TechMaster",
        "params": {
          "_description": "string description of a TechMaster",
          "_isActive": "bool TechMaster's status : active / inactive",
          "_siretNumber": "uint TechMaster's siretNumber",
          "_techMasterAddress": "address TechMaster's address"
        }
      },
      "setTypeMeasure(string,string,bytes8,bool,bool)": {
        "details": "set a TypeMeasure",
        "params": {
          "_codeMeasure": "bytes8 TypeMeasure's code",
          "_description": "string description of a TypeMeasure",
          "_info": "string info regarding a TypeMeasure",
          "_isActive": "bool TechMaster's status : active / inactive ",
          "_isAllowed": "bool TypeMeasure's authorization status"
        }
      },
      "transferOwnership(address)": {
        "details": "Transfers ownership of the contract to a new account (`newOwner`). Can only be called by the current owner."
      }
    },
    "version": 1
  },
  "userdoc": {
    "kind": "user",
    "methods": {},
    "version": 1
  }
}