{
  "contractName": "LedgerContract",
  "abi": [
    {
      "anonymous": false,
      "inputs": [
        {
          "indexed": false,
          "internalType": "string",
          "name": "_message",
          "type": "string"
        },
        {
          "indexed": false,
          "internalType": "address",
          "name": "_target",
          "type": "address"
        },
        {
          "indexed": false,
          "internalType": "address",
          "name": "_author",
          "type": "address"
        }
      ],
      "name": "LedgerUpdate",
      "type": "event"
    },
    {
      "anonymous": false,
      "inputs": [
        {
          "indexed": true,
          "internalType": "address",
          "name": "previousOwner",
          "type": "address"
        },
        {
          "indexed": true,
          "internalType": "address",
          "name": "newOwner",
          "type": "address"
        }
      ],
      "name": "OwnershipTransferred",
      "type": "event"
    },
    {
      "anonymous": false,
      "inputs": [
        {
          "indexed": false,
          "internalType": "string",
          "name": "_message",
          "type": "string"
        },
        {
          "indexed": false,
          "internalType": "bytes8",
          "name": "_target",
          "type": "bytes8"
        },
        {
          "indexed": false,
          "internalType": "address",
          "name": "_author",
          "type": "address"
        }
      ],
      "name": "TypeMeasureUpdate",
      "type": "event"
    },
    {
      "inputs": [
        {
          "internalType": "address",
          "name": "",
          "type": "address"
        }
      ],
      "name": "_bridges",
      "outputs": [
        {
          "internalType": "string",
          "name": "description",
          "type": "string"
        },
        {
          "internalType": "string",
          "name": "url",
          "type": "string"
        },
        {
          "internalType": "string",
          "name": "info",
          "type": "string"
        },
        {
          "internalType": "address",
          "name": "techMasterAddress",
          "type": "address"
        },
        {
          "internalType": "bool",
          "name": "isActive",
          "type": "bool"
        },
        {
          "internalType": "bool",
          "name": "exist",
          "type": "bool"
        }
      ],
      "stateMutability": "view",
      "type": "function"
    },
    {
      "inputs": [
        {
          "internalType": "address",
          "name": "",
          "type": "address"
        }
      ],
      "name": "_customers",
      "outputs": [
        {
          "internalType": "string",
          "name": "description",
          "type": "string"
        },
        {
          "internalType": "address",
          "name": "contractAddress",
          "type": "address"
        },
        {
          "internalType": "uint256",
          "name": "siretNumber",
          "type": "uint256"
        },
        {
          "internalType": "bool",
          "name": "isActive",
          "type": "bool"
        },
        {
          "internalType": "bool",
          "name": "exist",
          "type": "bool"
        }
      ],
      "stateMutability": "view",
      "type": "function"
    },
    {
      "inputs": [
        {
          "internalType": "address",
          "name": "",
          "type": "address"
        }
      ],
      "name": "_legislators",
      "outputs": [
        {
          "internalType": "string",
          "name": "description",
          "type": "string"
        },
        {
          "internalType": "uint256",
          "name": "siretNumber",
          "type": "uint256"
        },
        {
          "internalType": "bool",
          "name": "isActive",
          "type": "bool"
        },
        {
          "internalType": "bool",
          "name": "exist",
          "type": "bool"
        }
      ],
      "stateMutability": "view",
      "type": "function"
    },
    {
      "inputs": [
        {
          "internalType": "address",
          "name": "",
          "type": "address"
        }
      ],
      "name": "_techMasters",
      "outputs": [
        {
          "internalType": "string",
          "name": "description",
          "type": "string"
        },
        {
          "internalType": "uint256",
          "name": "siretNumber",
          "type": "uint256"
        },
        {
          "internalType": "bool",
          "name": "isActive",
          "type": "bool"
        },
        {
          "internalType": "bool",
          "name": "exist",
          "type": "bool"
        }
      ],
      "stateMutability": "view",
      "type": "function"
    },
    {
      "inputs": [
        {
          "internalType": "bytes8",
          "name": "",
          "type": "bytes8"
        }
      ],
      "name": "_typeMeasures",
      "outputs": [
        {
          "internalType": "string",
          "name": "description",
          "type": "string"
        },
        {
          "internalType": "string",
          "name": "info",
          "type": "string"
        },
        {
          "internalType": "bool",
          "name": "isActive",
          "type": "bool"
        },
        {
          "internalType": "bool",
          "name": "isAllowed",
          "type": "bool"
        },
        {
          "internalType": "bool",
          "name": "exist",
          "type": "bool"
        }
      ],
      "stateMutability": "view",
      "type": "function"
    },
    {
      "inputs": [],
      "name": "owner",
      "outputs": [
        {
          "internalType": "address",
          "name": "",
          "type": "address"
        }
      ],
      "stateMutability": "view",
      "type": "function"
    },
    {
      "inputs": [],
      "name": "renounceOwnership",
      "outputs": [],
      "stateMutability": "nonpayable",
      "type": "function"
    },
    {
      "inputs": [
        {
          "internalType": "address",
          "name": "newOwner",
          "type": "address"
        }
      ],
      "name": "transferOwnership",
      "outputs": [],
      "stateMutability": "nonpayable",
      "type": "function"
    },
    {
      "inputs": [
        {
          "internalType": "string",
          "name": "_description",
          "type": "string"
        },
        {
          "internalType": "address",
          "name": "_customerAddress",
          "type": "address"
        },
        {
          "internalType": "address",
          "name": "_contractAddress",
          "type": "address"
        },
        {
          "internalType": "uint256",
          "name": "_siretNumber",
          "type": "uint256"
        },
        {
          "internalType": "bool",
          "name": "_isActive",
          "type": "bool"
        }
      ],
      "name": "setCustomer",
      "outputs": [],
      "stateMutability": "nonpayable",
      "type": "function"
    },
    {
      "inputs": [
        {
          "internalType": "string",
          "name": "_description",
          "type": "string"
        },
        {
          "internalType": "address",
          "name": "_legislatorAddress",
          "type": "address"
        },
        {
          "internalType": "uint256",
          "name": "_siretNumber",
          "type": "uint256"
        },
        {
          "internalType": "bool",
          "name": "_isActive",
          "type": "bool"
        }
      ],
      "name": "setLegislator",
      "outputs": [],
      "stateMutability": "nonpayable",
      "type": "function"
    },
    {
      "inputs": [
        {
          "internalType": "string",
          "name": "_description",
          "type": "string"
        },
        {
          "internalType": "address",
          "name": "_techMasterAddress",
          "type": "address"
        },
        {
          "internalType": "uint256",
          "name": "_siretNumber",
          "type": "uint256"
        },
        {
          "internalType": "bool",
          "name": "_isActive",
          "type": "bool"
        }
      ],
      "name": "setTechMaster",
      "outputs": [],
      "stateMutability": "nonpayable",
      "type": "function"
    },
    {
      "inputs": [
        {
          "internalType": "string",
          "name": "_description",
          "type": "string"
        },
        {
          "internalType": "string",
          "name": "_url",
          "type": "string"
        },
        {
          "internalType": "string",
          "name": "_info",
          "type": "string"
        },
        {
          "internalType": "address",
          "name": "_bridgeAddress",
          "type": "address"
        },
        {
          "internalType": "address",
          "name": "_techMasterAddress",
          "type": "address"
        },
        {
          "internalType": "bool",
          "name": "_isActive",
          "type": "bool"
        }
      ],
      "name": "setBridge",
      "outputs": [],
      "stateMutability": "nonpayable",
      "type": "function"
    },
    {
      "inputs": [
        {
          "internalType": "string",
          "name": "_description",
          "type": "string"
        },
        {
          "internalType": "string",
          "name": "_info",
          "type": "string"
        },
        {
          "internalType": "bytes8",
          "name": "_codeMeasure",
          "type": "bytes8"
        },
        {
          "internalType": "bool",
          "name": "_isActive",
          "type": "bool"
        },
        {
          "internalType": "bool",
          "name": "_isAllowed",
          "type": "bool"
        }
      ],
      "name": "setTypeMeasure",
      "outputs": [],
      "stateMutability": "nonpayable",
      "type": "function"
    },
    {
      "inputs": [],
      "name": "rootingApps",
      "outputs": [
        {
          "internalType": "uint256",
          "name": "_myTypeUser",
          "type": "uint256"
        }
      ],
      "stateMutability": "view",
      "type": "function"
    }
  ],
  "bytecode": "0x608060405234801561001057600080fd5b5060006100216100c460201b60201c565b9050806000806101000a81548173ffffffffffffffffffffffffffffffffffffffff021916908373ffffffffffffffffffffffffffffffffffffffff1602179055508073ffffffffffffffffffffffffffffffffffffffff16600073ffffffffffffffffffffffffffffffffffffffff167f8be0079c531659141344cd1fd0a4f28419497f9722a3daafe3b4186f6b6457e060405160405180910390a3506100cc565b600033905090565b6127d2806100db6000396000f3fe608060405234801561001057600080fd5b50600436106100ea5760003560e01c8063b8c500e51161008c578063e20cd95111610066578063e20cd95114610241578063e69427601461025d578063e738d19914610291578063f2fde38b146102c4576100ea565b8063b8c500e5146101ba578063c29f7ba3146101ef578063ca588b0f14610223576100ea565b8063715018a6116100c8578063715018a6146101435780638da5cb5b1461014d5780639e53c8911461016b578063b54251b514610187576100ea565b80631503b19f146100ef57806358d867461461010b5780635e42705a14610127575b600080fd5b61010960048036038101906101049190611b93565b6102e0565b005b61012560048036038101906101209190611cb5565b6104fd565b005b610141600480360381019061013c9190611b04565b6107b5565b005b61014b610a36565b005b610155610b70565b6040516101629190612121565b60405180910390f35b61018560048036038101906101809190611c0e565b610b99565b005b6101a1600480360381019061019c9190611ab2565b610e06565b6040516101b1949392919061226d565b60405180910390f35b6101d460048036038101906101cf9190611ab2565b610ed8565b6040516101e6969594939291906121f7565b60405180910390f35b61020960048036038101906102049190611ab2565b6110e6565b60405161021a95949392919061213c565b60405180910390f35b61022b6111de565b6040516102389190612551565b60405180910390f35b61025b60048036038101906102569190611b93565b611346565b005b61027760048036038101906102729190611adb565b611563565b604051610288959493929190612196565b60405180910390f35b6102ab60048036038101906102a69190611ab2565b6116d0565b6040516102bb949392919061226d565b60405180910390f35b6102de60048036038101906102d99190611ab2565b6117a2565b005b6102e861194b565b73ffffffffffffffffffffffffffffffffffffffff16610306610b70565b73ffffffffffffffffffffffffffffffffffffffff161461035c576040517f08c379a00000000000000000000000000000000000000000000000000000000081526004016103539061247d565b60405180910390fd5b600360008473ffffffffffffffffffffffffffffffffffffffff1673ffffffffffffffffffffffffffffffffffffffff16815260200190815260200160002060020160019054906101000a900460ff166103ee577fbf4ae51d8c0eda5cf0cccfde45fa35ea3a741a7f35b5f3d24dd2196b6eaab82883336040516103e1929190612351565b60405180910390a1610428565b7fbf4ae51d8c0eda5cf0cccfde45fa35ea3a741a7f35b5f3d24dd2196b6eaab828833360405161041f9291906122f5565b60405180910390a15b6040518060800160405280858152602001838152602001821515815260200160011515815250600360008573ffffffffffffffffffffffffffffffffffffffff1673ffffffffffffffffffffffffffffffffffffffff16815260200190815260200160002060008201518160000190805190602001906104a9929190611953565b506020820151816001015560408201518160020160006101000a81548160ff02191690831515021790555060608201518160020160016101000a81548160ff02191690831515021790555090505050505050565b61050561194b565b73ffffffffffffffffffffffffffffffffffffffff16610523610b70565b73ffffffffffffffffffffffffffffffffffffffff1614610579576040517f08c379a00000000000000000000000000000000000000000000000000000000081526004016105709061247d565b60405180910390fd5b600460008473ffffffffffffffffffffffffffffffffffffffff1673ffffffffffffffffffffffffffffffffffffffff16815260200190815260200160002060030160159054906101000a900460ff1661060b577fbf4ae51d8c0eda5cf0cccfde45fa35ea3a741a7f35b5f3d24dd2196b6eaab82883336040516105fe9291906124d9565b60405180910390a1610645565b7fbf4ae51d8c0eda5cf0cccfde45fa35ea3a741a7f35b5f3d24dd2196b6eaab828833360405161063c9291906123c9565b60405180910390a15b6040518060c001604052808781526020018681526020018581526020018373ffffffffffffffffffffffffffffffffffffffff168152602001821515815260200160011515815250600460008573ffffffffffffffffffffffffffffffffffffffff1673ffffffffffffffffffffffffffffffffffffffff16815260200190815260200160002060008201518160000190805190602001906106e8929190611953565b506020820151816001019080519060200190610705929190611953565b506040820151816002019080519060200190610722929190611953565b5060608201518160030160006101000a81548173ffffffffffffffffffffffffffffffffffffffff021916908373ffffffffffffffffffffffffffffffffffffffff16021790555060808201518160030160146101000a81548160ff02191690831515021790555060a08201518160030160156101000a81548160ff021916908315150217905550905050505050505050565b6107bd61194b565b73ffffffffffffffffffffffffffffffffffffffff166107db610b70565b73ffffffffffffffffffffffffffffffffffffffff1614610831576040517f08c379a00000000000000000000000000000000000000000000000000000000081526004016108289061247d565b60405180910390fd5b600160008573ffffffffffffffffffffffffffffffffffffffff1673ffffffffffffffffffffffffffffffffffffffff16815260200190815260200160002060030160019054906101000a900460ff166108c3577fbf4ae51d8c0eda5cf0cccfde45fa35ea3a741a7f35b5f3d24dd2196b6eaab82884336040516108b6929190612515565b60405180910390a16108fd565b7fbf4ae51d8c0eda5cf0cccfde45fa35ea3a741a7f35b5f3d24dd2196b6eaab82884336040516108f492919061249d565b60405180910390a15b6040518060a001604052808681526020018473ffffffffffffffffffffffffffffffffffffffff168152602001838152602001821515815260200160011515815250600160008673ffffffffffffffffffffffffffffffffffffffff1673ffffffffffffffffffffffffffffffffffffffff168152602001908152602001600020600082015181600001908051906020019061099a929190611953565b5060208201518160010160006101000a81548173ffffffffffffffffffffffffffffffffffffffff021916908373ffffffffffffffffffffffffffffffffffffffff1602179055506040820151816002015560608201518160030160006101000a81548160ff02191690831515021790555060808201518160030160016101000a81548160ff0219169083151502179055509050505050505050565b610a3e61194b565b73ffffffffffffffffffffffffffffffffffffffff16610a5c610b70565b73ffffffffffffffffffffffffffffffffffffffff1614610ab2576040517f08c379a0000000000000000000000000000000000000000000000000000000008152600401610aa99061247d565b60405180910390fd5b600073ffffffffffffffffffffffffffffffffffffffff1660008054906101000a900473ffffffffffffffffffffffffffffffffffffffff1673ffffffffffffffffffffffffffffffffffffffff167f8be0079c531659141344cd1fd0a4f28419497f9722a3daafe3b4186f6b6457e060405160405180910390a360008060006101000a81548173ffffffffffffffffffffffffffffffffffffffff021916908373ffffffffffffffffffffffffffffffffffffffff160217905550565b60008060009054906101000a900473ffffffffffffffffffffffffffffffffffffffff16905090565b610ba161194b565b73ffffffffffffffffffffffffffffffffffffffff16610bbf610b70565b73ffffffffffffffffffffffffffffffffffffffff1614610c15576040517f08c379a0000000000000000000000000000000000000000000000000000000008152600401610c0c9061247d565b60405180910390fd5b600560008477ffffffffffffffffffffffffffffffffffffffffffffffff191677ffffffffffffffffffffffffffffffffffffffffffffffff1916815260200190815260200160002060020160029054906101000a900460ff16610cb1577ffd28b00c124636c5ca6e4dcc21b05bb735fe07af43e9c2cd98c4aa673a7063508333604051610ca492919061238d565b60405180910390a1610ceb565b7ffd28b00c124636c5ca6e4dcc21b05bb735fe07af43e9c2cd98c4aa673a7063508333604051610ce2929190612405565b60405180910390a15b6040518060a001604052808681526020018581526020018315158152602001821515815260200160011515815250600560008577ffffffffffffffffffffffffffffffffffffffffffffffff191677ffffffffffffffffffffffffffffffffffffffffffffffff191681526020019081526020016000206000820151816000019080519060200190610d7e929190611953565b506020820151816001019080519060200190610d9b929190611953565b5060408201518160020160006101000a81548160ff02191690831515021790555060608201518160020160016101000a81548160ff02191690831515021790555060808201518160020160026101000a81548160ff0219169083151502179055509050505050505050565b6002602052806000526040600020600091509050806000018054610e299061269f565b80601f0160208091040260200160405190810160405280929190818152602001828054610e559061269f565b8015610ea25780601f10610e7757610100808354040283529160200191610ea2565b820191906000526020600020905b815481529060010190602001808311610e8557829003601f168201915b5050505050908060010154908060020160009054906101000a900460ff16908060020160019054906101000a900460ff16905084565b6004602052806000526040600020600091509050806000018054610efb9061269f565b80601f0160208091040260200160405190810160405280929190818152602001828054610f279061269f565b8015610f745780601f10610f4957610100808354040283529160200191610f74565b820191906000526020600020905b815481529060010190602001808311610f5757829003601f168201915b505050505090806001018054610f899061269f565b80601f0160208091040260200160405190810160405280929190818152602001828054610fb59061269f565b80156110025780601f10610fd757610100808354040283529160200191611002565b820191906000526020600020905b815481529060010190602001808311610fe557829003601f168201915b5050505050908060020180546110179061269f565b80601f01602080910402602001604051908101604052809291908181526020018280546110439061269f565b80156110905780601f1061106557610100808354040283529160200191611090565b820191906000526020600020905b81548152906001019060200180831161107357829003601f168201915b5050505050908060030160009054906101000a900473ffffffffffffffffffffffffffffffffffffffff16908060030160149054906101000a900460ff16908060030160159054906101000a900460ff16905086565b60016020528060005260406000206000915090508060000180546111099061269f565b80601f01602080910402602001604051908101604052809291908181526020018280546111359061269f565b80156111825780601f1061115757610100808354040283529160200191611182565b820191906000526020600020905b81548152906001019060200180831161116557829003601f168201915b5050505050908060010160009054906101000a900473ffffffffffffffffffffffffffffffffffffffff16908060020154908060030160009054906101000a900460ff16908060030160019054906101000a900460ff16905085565b60006111e8610b70565b73ffffffffffffffffffffffffffffffffffffffff163373ffffffffffffffffffffffffffffffffffffffff1614156112245760019050611343565b600160003373ffffffffffffffffffffffffffffffffffffffff1673ffffffffffffffffffffffffffffffffffffffff16815260200190815260200160002060030160019054906101000a900460ff16156112825760029050611343565b600260003373ffffffffffffffffffffffffffffffffffffffff1673ffffffffffffffffffffffffffffffffffffffff16815260200190815260200160002060020160019054906101000a900460ff16156112e05760039050611343565b600360003373ffffffffffffffffffffffffffffffffffffffff1673ffffffffffffffffffffffffffffffffffffffff16815260200190815260200160002060020160019054906101000a900460ff161561133e5760049050611343565b600590505b90565b61134e61194b565b73ffffffffffffffffffffffffffffffffffffffff1661136c610b70565b73ffffffffffffffffffffffffffffffffffffffff16146113c2576040517f08c379a00000000000000000000000000000000000000000000000000000000081526004016113b99061247d565b60405180910390fd5b600260008473ffffffffffffffffffffffffffffffffffffffff1673ffffffffffffffffffffffffffffffffffffffff16815260200190815260200160002060020160019054906101000a900460ff16611454577fbf4ae51d8c0eda5cf0cccfde45fa35ea3a741a7f35b5f3d24dd2196b6eaab8288333604051611447929190612441565b60405180910390a161148e565b7fbf4ae51d8c0eda5cf0cccfde45fa35ea3a741a7f35b5f3d24dd2196b6eaab82883336040516114859291906122b9565b60405180910390a15b6040518060800160405280858152602001838152602001821515815260200160011515815250600260008573ffffffffffffffffffffffffffffffffffffffff1673ffffffffffffffffffffffffffffffffffffffff168152602001908152602001600020600082015181600001908051906020019061150f929190611953565b506020820151816001015560408201518160020160006101000a81548160ff02191690831515021790555060608201518160020160016101000a81548160ff02191690831515021790555090505050505050565b60056020528060005260406000206000915090508060000180546115869061269f565b80601f01602080910402602001604051908101604052809291908181526020018280546115b29061269f565b80156115ff5780601f106115d4576101008083540402835291602001916115ff565b820191906000526020600020905b8154815290600101906020018083116115e257829003601f168201915b5050505050908060010180546116149061269f565b80601f01602080910402602001604051908101604052809291908181526020018280546116409061269f565b801561168d5780601f106116625761010080835404028352916020019161168d565b820191906000526020600020905b81548152906001019060200180831161167057829003601f168201915b5050505050908060020160009054906101000a900460ff16908060020160019054906101000a900460ff16908060020160029054906101000a900460ff16905085565b60036020528060005260406000206000915090508060000180546116f39061269f565b80601f016020809104026020016040519081016040528092919081815260200182805461171f9061269f565b801561176c5780601f106117415761010080835404028352916020019161176c565b820191906000526020600020905b81548152906001019060200180831161174f57829003601f168201915b5050505050908060010154908060020160009054906101000a900460ff16908060020160019054906101000a900460ff16905084565b6117aa61194b565b73ffffffffffffffffffffffffffffffffffffffff166117c8610b70565b73ffffffffffffffffffffffffffffffffffffffff161461181e576040517f08c379a00000000000000000000000000000000000000000000000000000000081526004016118159061247d565b60405180910390fd5b600073ffffffffffffffffffffffffffffffffffffffff168173ffffffffffffffffffffffffffffffffffffffff16141561188e576040517f08c379a000000000000000000000000000000000000000000000000000000000815260040161188590612331565b60405180910390fd5b8073ffffffffffffffffffffffffffffffffffffffff1660008054906101000a900473ffffffffffffffffffffffffffffffffffffffff1673ffffffffffffffffffffffffffffffffffffffff167f8be0079c531659141344cd1fd0a4f28419497f9722a3daafe3b4186f6b6457e060405160405180910390a3806000806101000a81548173ffffffffffffffffffffffffffffffffffffffff021916908373ffffffffffffffffffffffffffffffffffffffff16021790555050565b600033905090565b82805461195f9061269f565b90600052602060002090601f01602090048101928261198157600085556119c8565b82601f1061199a57805160ff19168380011785556119c8565b828001600101855582156119c8579182015b828111156119c75782518255916020019190600101906119ac565b5b5090506119d591906119d9565b5090565b5b808211156119f25760008160009055506001016119da565b5090565b6000611a09611a048461259d565b61256c565b905082815260208101848484011115611a2157600080fd5b611a2c84828561265d565b509392505050565b600081359050611a4381612740565b92915050565b600081359050611a5881612757565b92915050565b600081359050611a6d8161276e565b92915050565b600082601f830112611a8457600080fd5b8135611a948482602086016119f6565b91505092915050565b600081359050611aac81612785565b92915050565b600060208284031215611ac457600080fd5b6000611ad284828501611a34565b91505092915050565b600060208284031215611aed57600080fd5b6000611afb84828501611a5e565b91505092915050565b600080600080600060a08688031215611b1c57600080fd5b600086013567ffffffffffffffff811115611b3657600080fd5b611b4288828901611a73565b9550506020611b5388828901611a34565b9450506040611b6488828901611a34565b9350506060611b7588828901611a9d565b9250506080611b8688828901611a49565b9150509295509295909350565b60008060008060808587031215611ba957600080fd5b600085013567ffffffffffffffff811115611bc357600080fd5b611bcf87828801611a73565b9450506020611be087828801611a34565b9350506040611bf187828801611a9d565b9250506060611c0287828801611a49565b91505092959194509250565b600080600080600060a08688031215611c2657600080fd5b600086013567ffffffffffffffff811115611c4057600080fd5b611c4c88828901611a73565b955050602086013567ffffffffffffffff811115611c6957600080fd5b611c7588828901611a73565b9450506040611c8688828901611a5e565b9350506060611c9788828901611a49565b9250506080611ca888828901611a49565b9150509295509295909350565b60008060008060008060c08789031215611cce57600080fd5b600087013567ffffffffffffffff811115611ce857600080fd5b611cf489828a01611a73565b965050602087013567ffffffffffffffff811115611d1157600080fd5b611d1d89828a01611a73565b955050604087013567ffffffffffffffff811115611d3a57600080fd5b611d4689828a01611a73565b9450506060611d5789828a01611a34565b9350506080611d6889828a01611a34565b92505060a0611d7989828a01611a49565b9150509295509295509295565b611d8f816125e9565b82525050565b611d9e816125fb565b82525050565b611dad81612607565b82525050565b6000611dbe826125cd565b611dc881856125d8565b9350611dd881856020860161266c565b611de18161272f565b840191505092915050565b6000611df96011836125d8565b91507f557064617465204c656769736c61746f720000000000000000000000000000006000830152602082019050919050565b6000611e396011836125d8565b91507f55706461746520546563684d61737465720000000000000000000000000000006000830152602082019050919050565b6000611e796026836125d8565b91507f4f776e61626c653a206e6577206f776e657220697320746865207a65726f206160008301527f64647265737300000000000000000000000000000000000000000000000000006020830152604082019050919050565b6000611edf600e836125d8565b91507f4e657720546563684d61737465720000000000000000000000000000000000006000830152602082019050919050565b6000611f1f600e836125d8565b91507f4e657720547970654d65737572650000000000000000000000000000000000006000830152602082019050919050565b6000611f5f600d836125d8565b91507f55706461746520427269646765000000000000000000000000000000000000006000830152602082019050919050565b6000611f9f6011836125d8565b91507f55706461746520547970654d65737572650000000000000000000000000000006000830152602082019050919050565b6000611fdf600e836125d8565b91507f4e6577204c656769736c61746f720000000000000000000000000000000000006000830152602082019050919050565b600061201f6020836125d8565b91507f4f776e61626c653a2063616c6c6572206973206e6f7420746865206f776e65726000830152602082019050919050565b600061205f600f836125d8565b91507f55706461746520437573746f6d657200000000000000000000000000000000006000830152602082019050919050565b600061209f600a836125d8565b91507f4e657720427269646765000000000000000000000000000000000000000000006000830152602082019050919050565b60006120df600c836125d8565b91507f4e657720437573746f6d657200000000000000000000000000000000000000006000830152602082019050919050565b61211b81612653565b82525050565b60006020820190506121366000830184611d86565b92915050565b600060a08201905081810360008301526121568188611db3565b90506121656020830187611d86565b6121726040830186612112565b61217f6060830185611d95565b61218c6080830184611d95565b9695505050505050565b600060a08201905081810360008301526121b08188611db3565b905081810360208301526121c48187611db3565b90506121d36040830186611d95565b6121e06060830185611d95565b6121ed6080830184611d95565b9695505050505050565b600060c08201905081810360008301526122118189611db3565b905081810360208301526122258188611db3565b905081810360408301526122398187611db3565b90506122486060830186611d86565b6122556080830185611d95565b61226260a0830184611d95565b979650505050505050565b600060808201905081810360008301526122878187611db3565b90506122966020830186612112565b6122a36040830185611d95565b6122b06060830184611d95565b95945050505050565b600060608201905081810360008301526122d281611dec565b90506122e16020830185611d86565b6122ee6040830184611d86565b9392505050565b6000606082019050818103600083015261230e81611e2c565b905061231d6020830185611d86565b61232a6040830184611d86565b9392505050565b6000602082019050818103600083015261234a81611e6c565b9050919050565b6000606082019050818103600083015261236a81611ed2565b90506123796020830185611d86565b6123866040830184611d86565b9392505050565b600060608201905081810360008301526123a681611f12565b90506123b56020830185611da4565b6123c26040830184611d86565b9392505050565b600060608201905081810360008301526123e281611f52565b90506123f16020830185611d86565b6123fe6040830184611d86565b9392505050565b6000606082019050818103600083015261241e81611f92565b905061242d6020830185611da4565b61243a6040830184611d86565b9392505050565b6000606082019050818103600083015261245a81611fd2565b90506124696020830185611d86565b6124766040830184611d86565b9392505050565b6000602082019050818103600083015261249681612012565b9050919050565b600060608201905081810360008301526124b681612052565b90506124c56020830185611d86565b6124d26040830184611d86565b9392505050565b600060608201905081810360008301526124f281612092565b90506125016020830185611d86565b61250e6040830184611d86565b9392505050565b6000606082019050818103600083015261252e816120d2565b905061253d6020830185611d86565b61254a6040830184611d86565b9392505050565b60006020820190506125666000830184612112565b92915050565b6000604051905081810181811067ffffffffffffffff8211171561259357612592612700565b5b8060405250919050565b600067ffffffffffffffff8211156125b8576125b7612700565b5b601f19601f8301169050602081019050919050565b600081519050919050565b600082825260208201905092915050565b60006125f482612633565b9050919050565b60008115159050919050565b60007fffffffffffffffff00000000000000000000000000000000000000000000000082169050919050565b600073ffffffffffffffffffffffffffffffffffffffff82169050919050565b6000819050919050565b82818337600083830152505050565b60005b8381101561268a57808201518184015260208101905061266f565b83811115612699576000848401525b50505050565b600060028204905060018216806126b757607f821691505b602082108114156126cb576126ca6126d1565b5b50919050565b7f4e487b7100000000000000000000000000000000000000000000000000000000600052602260045260246000fd5b7f4e487b7100000000000000000000000000000000000000000000000000000000600052604160045260246000fd5b6000601f19601f8301169050919050565b612749816125e9565b811461275457600080fd5b50565b612760816125fb565b811461276b57600080fd5b50565b61277781612607565b811461278257600080fd5b50565b61278e81612653565b811461279957600080fd5b5056fea264697066735822122095cd4c368c04c63b03e7319191810aaa7bb3d8374de9389b8a58e2e1e2b81c9264736f6c63430008000033",
  "immutableReferences": {},
  "source": "// SPDX-License-Identifier: MIT\r\npragma solidity 0.8.0;\r\n\r\nimport \"../node_modules/@openzeppelin/contracts/utils/Counters.sol\";\r\nimport \"../node_modules/@openzeppelin/contracts/access/Ownable.sol\";\r\n\r\ncontract LedgerContract is Ownable {\r\n    using Counters for Counters.Counter;\r\n\r\n\r\n    /**\r\n     * @dev Structure of Customer\r\n     * @notice Feature_V2 \r\n     */\r\n    struct Customer {\r\n        string description;\r\n        address contractAddress;\r\n        uint siretNumber;\r\n        bool isActive;\r\n        bool exist;\r\n    }\r\n\r\n    /**\r\n     * @dev Structure of Legislator\r\n     * @notice Feature_V2 \r\n     */\r\n    struct Legislator {\r\n        string description;\r\n        uint siretNumber;        \r\n        bool isActive;\r\n        bool exist;        \r\n    }\r\n\r\n    /**\r\n     * @dev Structure of TechMaster\r\n     * @notice Feature_V2 \r\n     */\r\n    struct TechMaster {\r\n        string description;\r\n        uint siretNumber;        \r\n        bool isActive;\r\n        bool exist;        \r\n    }\r\n\r\n    /**\r\n     * @dev Structure of Bridge\r\n     * @notice Feature_V2 \r\n     */\r\n    struct Bridge {\r\n        string description;\r\n        string url;   \r\n        string info;        \r\n        address techMasterAddress;     \r\n        bool isActive;\r\n        bool exist;        \r\n    }\r\n\r\n    /**\r\n     * @dev Structure of TypeMeasure\r\n     * @notice Feature_V2 \r\n     */\r\n    struct TypeMeasure{\r\n\t    string description;\r\n        string info;\r\n        bool isActive;\r\n\t    bool isAllowed;\r\n        bool exist;        \r\n    }\r\n\r\n    event LedgerUpdate(string _message, address _target, address _author);  \r\n    event TypeMeasureUpdate(string _message, bytes8 _target, address _author);  \r\n  \r\n    mapping(address => Customer) public _customers; \r\n    mapping(address => Legislator) public _legislators; \r\n    mapping(address => TechMaster) public _techMasters;\r\n    mapping(address => Bridge) public _bridges;\r\n    \r\n    mapping(bytes8 => TypeMeasure) public _typeMeasures;\r\n\r\n     /**\r\n     * @dev set a Customer\r\n     * @param _description string description of a Customer\r\n     * @param _customerAddress address Customer's address\r\n     * @param _contractAddress address contract's address\r\n     * @param _siretNumber uint Customer's siretNumber\r\n     * @param _isActive bool Customer's status : active / inactive\r\n     */\r\n    function setCustomer (\r\n        string memory _description,\r\n        address _customerAddress, \r\n        address _contractAddress,\r\n        uint _siretNumber,\r\n        bool _isActive) \r\n        onlyOwner() external {\r\n\r\n        if(!_customers[_customerAddress].exist){\r\n            emit LedgerUpdate(\"New Customer\", _customerAddress, msg.sender);\r\n        }else{\r\n            emit LedgerUpdate(\"Update Customer\", _customerAddress, msg.sender);\r\n        }\r\n\r\n        _customers[_customerAddress] = Customer(\r\n        _description,\r\n        _contractAddress,         \r\n        _siretNumber,\r\n        _isActive, \r\n        true);\r\n    }\r\n\r\n     /**\r\n     * @dev set a Legislator\r\n     * @param _description string description of a Legislator\r\n     * @param _legislatorAddress address Legislator's address\r\n     * @param _siretNumber uint Legislator's siretNumber\r\n     * @param _isActive bool Legislator's status : active / inactive\r\n     */\r\n    function setLegislator (\r\n        string memory _description,        \r\n        address _legislatorAddress,\r\n        uint _siretNumber,\r\n        bool _isActive) \r\n        onlyOwner() external {\r\n\r\n        if(!_legislators[_legislatorAddress].exist){\r\n            emit LedgerUpdate(\"New Legislator\", _legislatorAddress, msg.sender);\r\n        }else{\r\n            emit LedgerUpdate(\"Update Legislator\", _legislatorAddress, msg.sender);\r\n        }\r\n\r\n        _legislators[_legislatorAddress] = Legislator(\r\n        _description,\r\n        _siretNumber,\r\n        _isActive,\r\n        true);   \r\n    }    \r\n\r\n     /**\r\n     * @dev set a TechMaster\r\n     * @param _description string description of a TechMaster\r\n     * @param _techMasterAddress address TechMaster's address\r\n     * @param _siretNumber uint TechMaster's siretNumber\r\n     * @param _isActive bool TechMaster's status : active / inactive\r\n     */\r\n    function setTechMaster (\r\n        string memory _description,\r\n        address _techMasterAddress,       \r\n        uint _siretNumber,\r\n        bool _isActive) \r\n        onlyOwner() external {\r\n\r\n        if(!_techMasters[_techMasterAddress].exist){\r\n            emit LedgerUpdate(\"New TechMaster\", _techMasterAddress, msg.sender);\r\n        }else{\r\n            emit LedgerUpdate(\"Update TechMaster\", _techMasterAddress, msg.sender);\r\n        }\r\n\r\n        _techMasters[_techMasterAddress] = TechMaster(\r\n        _description,\r\n        _siretNumber,\r\n        _isActive,\r\n        true);\r\n    }    \r\n\r\n     /**\r\n     * @dev set a Bridge\r\n     * @param _description string description of a Bridge\r\n     * @param _url string url of a Bridge\r\n     * @param _info string info regarding a Bridge\r\n     * @param _bridgeAddress address Bridge's address\r\n     * @param _techMasterAddress address TechMaster's address\r\n     * @param _isActive bool TechMaster's status : active / inactive\r\n     */\r\n    function setBridge (\r\n        string memory _description,\r\n        string memory _url, \r\n        string memory _info,               \r\n        address _bridgeAddress,\r\n        address _techMasterAddress,       \r\n        bool _isActive) \r\n        onlyOwner() external {\r\n\r\n        if(!_bridges[_bridgeAddress].exist){\r\n            emit LedgerUpdate(\"New Bridge\", _bridgeAddress, msg.sender);\r\n        }else{\r\n            emit LedgerUpdate(\"Update Bridge\", _bridgeAddress, msg.sender);\r\n        }\r\n\r\n        _bridges[_bridgeAddress] = Bridge(\r\n        _description,\r\n        _url,        \r\n        _info,\r\n        _techMasterAddress,\r\n        _isActive,\r\n        true);\r\n    } \r\n\r\n     /**\r\n     * @dev set a TypeMeasure\r\n     * @param _description string description of a TypeMeasure\r\n     * @param _info string info regarding a TypeMeasure\r\n     * @param _codeMeasure bytes8 TypeMeasure's code\r\n     * @param _isActive bool TechMaster's status : active / inactive \r\n     * @param _isAllowed bool TypeMeasure's authorization status\r\n     */    \r\n    function setTypeMeasure (\r\n        string memory _description,\r\n        string memory _info,\r\n        bytes8 _codeMeasure,\r\n        bool _isActive,\r\n        bool _isAllowed) \r\n        onlyOwner() external {  \r\n\r\n        if(!_typeMeasures[_codeMeasure].exist){\r\n            emit TypeMeasureUpdate(\"New TypeMesure\", _codeMeasure, msg.sender);\r\n        }else{\r\n            emit TypeMeasureUpdate(\"Update TypeMesure\", _codeMeasure, msg.sender);\r\n        }\r\n\r\n        _typeMeasures[_codeMeasure] = TypeMeasure(\r\n        _description,\r\n        _info,\r\n        _isActive,\r\n        _isAllowed,\r\n        true);\r\n    }    \r\n\r\n     /**\r\n     * @dev allows the dApp to process user's type and display the correct interface\r\n     * @param _myTypeUser uint user's type \r\n     */  \r\n    function rootingApps()\r\n        external view returns(uint _myTypeUser){\r\n        /*\r\n            1 : Admin\r\n            2 : Client\r\n            3 : Lgislateur\r\n            4 : Techmaster\r\n            5 : Public\r\n        */\r\n        if(msg.sender == owner()){\r\n            return 1;\r\n        }\r\n        if(_customers[msg.sender].exist){\r\n            return 2;\r\n        }\r\n        if(_legislators[msg.sender].exist){\r\n            return 3;\r\n        }\r\n        if(_techMasters[msg.sender].exist){\r\n            return 4;\r\n        }\r\n        return 5;\r\n    }\r\n}\r\n",
  "sourcePath": "C:/Users/danie/Desktop/Solidity/Projet final/eco-capt/contracts/LedgerContract.sol",
  "compiler": {
    "name": "solc",
    "version": "0.8.0+commit.c7dfd78e.Emscripten.clang"
  },
  "schemaVersion": "3.3.4",
  "updatedAt": "2021-04-22T14:03:03.126Z",
  "devdoc": {
    "kind": "dev",
    "methods": {
      "owner()": {
        "details": "Returns the address of the current owner."
      },
      "renounceOwnership()": {
        "details": "Leaves the contract without owner. It will not be possible to call `onlyOwner` functions anymore. Can only be called by the current owner. NOTE: Renouncing ownership will leave the contract without an owner, thereby removing any functionality that is only available to the owner."
      },
      "rootingApps()": {
        "details": "allows the dApp to process user's type and display the correct interface",
        "params": {
          "_myTypeUser": "uint user's type "
        }
      },
      "setBridge(string,string,string,address,address,bool)": {
        "details": "set a Bridge",
        "params": {
          "_bridgeAddress": "address Bridge's address",
          "_description": "string description of a Bridge",
          "_info": "string info regarding a Bridge",
          "_isActive": "bool TechMaster's status : active / inactive",
          "_techMasterAddress": "address TechMaster's address",
          "_url": "string url of a Bridge"
        }
      },
      "setCustomer(string,address,address,uint256,bool)": {
        "details": "set a Customer",
        "params": {
          "_contractAddress": "address contract's address",
          "_customerAddress": "address Customer's address",
          "_description": "string description of a Customer",
          "_isActive": "bool Customer's status : active / inactive",
          "_siretNumber": "uint Customer's siretNumber"
        }
      },
      "setLegislator(string,address,uint256,bool)": {
        "details": "set a Legislator",
        "params": {
          "_description": "string description of a Legislator",
          "_isActive": "bool Legislator's status : active / inactive",
          "_legislatorAddress": "address Legislator's address",
          "_siretNumber": "uint Legislator's siretNumber"
        }
      },
      "setTechMaster(string,address,uint256,bool)": {
        "details": "set a TechMaster",
        "params": {
          "_description": "string description of a TechMaster",
          "_isActive": "bool TechMaster's status : active / inactive",
          "_siretNumber": "uint TechMaster's siretNumber",
          "_techMasterAddress": "address TechMaster's address"
        }
      },
      "setTypeMeasure(string,string,bytes8,bool,bool)": {
        "details": "set a TypeMeasure",
        "params": {
          "_codeMeasure": "bytes8 TypeMeasure's code",
          "_description": "string description of a TypeMeasure",
          "_info": "string info regarding a TypeMeasure",
          "_isActive": "bool TechMaster's status : active / inactive ",
          "_isAllowed": "bool TypeMeasure's authorization status"
        }
      },
      "transferOwnership(address)": {
        "details": "Transfers ownership of the contract to a new account (`newOwner`). Can only be called by the current owner."
      }
    },
    "version": 1
  },
  "userdoc": {
    "kind": "user",
    "methods": {},
    "version": 1
  }
}