{
  "contractName": "RuleContract",
  "abi": [
    {
      "inputs": [
        {
          "internalType": "bytes8",
          "name": "_version",
          "type": "bytes8"
        },
        {
          "internalType": "uint32",
          "name": "_clientId",
          "type": "uint32"
        },
        {
          "internalType": "address",
          "name": "_customerAddress",
          "type": "address"
        },
        {
          "internalType": "address",
          "name": "_prevContract",
          "type": "address"
        },
        {
          "internalType": "uint64",
          "name": "_prevContractDate",
          "type": "uint64"
        }
      ],
      "stateMutability": "nonpayable",
      "type": "constructor"
    },
    {
      "anonymous": false,
      "inputs": [
        {
          "indexed": false,
          "internalType": "uint256",
          "name": "_serviceId",
          "type": "uint256"
        },
        {
          "indexed": false,
          "internalType": "uint256",
          "name": "_ruleId",
          "type": "uint256"
        },
        {
          "indexed": false,
          "internalType": "bytes32",
          "name": "_alert",
          "type": "bytes32"
        },
        {
          "indexed": false,
          "internalType": "address",
          "name": "_author",
          "type": "address"
        }
      ],
      "name": "AlertReceive",
      "type": "event"
    },
    {
      "anonymous": false,
      "inputs": [
        {
          "indexed": false,
          "internalType": "string",
          "name": "_message",
          "type": "string"
        },
        {
          "indexed": false,
          "internalType": "address",
          "name": "_author",
          "type": "address"
        }
      ],
      "name": "ContractUpdate",
      "type": "event"
    },
    {
      "anonymous": false,
      "inputs": [
        {
          "indexed": true,
          "internalType": "address",
          "name": "previousOwner",
          "type": "address"
        },
        {
          "indexed": true,
          "internalType": "address",
          "name": "newOwner",
          "type": "address"
        }
      ],
      "name": "OwnershipTransferred",
      "type": "event"
    },
    {
      "anonymous": false,
      "inputs": [
        {
          "indexed": false,
          "internalType": "uint256",
          "name": "_serviceId",
          "type": "uint256"
        },
        {
          "indexed": false,
          "internalType": "uint256",
          "name": "_ruleId",
          "type": "uint256"
        },
        {
          "indexed": false,
          "internalType": "string",
          "name": "_message",
          "type": "string"
        },
        {
          "indexed": false,
          "internalType": "address",
          "name": "_author",
          "type": "address"
        }
      ],
      "name": "RulesUpdate",
      "type": "event"
    },
    {
      "inputs": [
        {
          "internalType": "uint256",
          "name": "",
          "type": "uint256"
        },
        {
          "internalType": "uint256",
          "name": "",
          "type": "uint256"
        }
      ],
      "name": "_alerts",
      "outputs": [
        {
          "internalType": "bytes32",
          "name": "",
          "type": "bytes32"
        }
      ],
      "stateMutability": "view",
      "type": "function",
      "constant": true
    },
    {
      "inputs": [
        {
          "internalType": "address",
          "name": "",
          "type": "address"
        }
      ],
      "name": "_legislators",
      "outputs": [
        {
          "internalType": "bool",
          "name": "",
          "type": "bool"
        }
      ],
      "stateMutability": "view",
      "type": "function",
      "constant": true
    },
    {
      "inputs": [],
      "name": "_ruleIdCounter",
      "outputs": [
        {
          "internalType": "uint256",
          "name": "_value",
          "type": "uint256"
        }
      ],
      "stateMutability": "view",
      "type": "function",
      "constant": true
    },
    {
      "inputs": [
        {
          "internalType": "uint256",
          "name": "",
          "type": "uint256"
        }
      ],
      "name": "_rules",
      "outputs": [
        {
          "internalType": "bytes8",
          "name": "version",
          "type": "bytes8"
        },
        {
          "internalType": "uint16",
          "name": "serviceId",
          "type": "uint16"
        },
        {
          "internalType": "bytes8",
          "name": "codeAlert",
          "type": "bytes8"
        },
        {
          "internalType": "bytes8",
          "name": "valueAlert",
          "type": "bytes8"
        },
        {
          "internalType": "bool",
          "name": "isActive",
          "type": "bool"
        },
        {
          "internalType": "address",
          "name": "legislatorAddress",
          "type": "address"
        },
        {
          "internalType": "string",
          "name": "description",
          "type": "string"
        },
        {
          "components": [
            {
              "internalType": "uint256",
              "name": "_value",
              "type": "uint256"
            }
          ],
          "internalType": "struct Counters.Counter",
          "name": "alertIdCounter",
          "type": "tuple"
        }
      ],
      "stateMutability": "view",
      "type": "function",
      "constant": true
    },
    {
      "inputs": [],
      "name": "clientId",
      "outputs": [
        {
          "internalType": "uint32",
          "name": "",
          "type": "uint32"
        }
      ],
      "stateMutability": "view",
      "type": "function",
      "constant": true
    },
    {
      "inputs": [],
      "name": "customerAddress",
      "outputs": [
        {
          "internalType": "address",
          "name": "",
          "type": "address"
        }
      ],
      "stateMutability": "view",
      "type": "function",
      "constant": true
    },
    {
      "inputs": [],
      "name": "isActive",
      "outputs": [
        {
          "internalType": "bool",
          "name": "",
          "type": "bool"
        }
      ],
      "stateMutability": "view",
      "type": "function",
      "constant": true
    },
    {
      "inputs": [],
      "name": "nextContract",
      "outputs": [
        {
          "internalType": "address",
          "name": "",
          "type": "address"
        }
      ],
      "stateMutability": "view",
      "type": "function",
      "constant": true
    },
    {
      "inputs": [],
      "name": "nextContractDate",
      "outputs": [
        {
          "internalType": "uint64",
          "name": "",
          "type": "uint64"
        }
      ],
      "stateMutability": "view",
      "type": "function",
      "constant": true
    },
    {
      "inputs": [],
      "name": "owner",
      "outputs": [
        {
          "internalType": "address",
          "name": "",
          "type": "address"
        }
      ],
      "stateMutability": "view",
      "type": "function",
      "constant": true
    },
    {
      "inputs": [],
      "name": "prevContract",
      "outputs": [
        {
          "internalType": "address",
          "name": "",
          "type": "address"
        }
      ],
      "stateMutability": "view",
      "type": "function",
      "constant": true
    },
    {
      "inputs": [],
      "name": "prevContractDate",
      "outputs": [
        {
          "internalType": "uint64",
          "name": "",
          "type": "uint64"
        }
      ],
      "stateMutability": "view",
      "type": "function",
      "constant": true
    },
    {
      "inputs": [],
      "name": "renounceOwnership",
      "outputs": [],
      "stateMutability": "nonpayable",
      "type": "function"
    },
    {
      "inputs": [],
      "name": "serviceContactAddress",
      "outputs": [
        {
          "internalType": "address",
          "name": "",
          "type": "address"
        }
      ],
      "stateMutability": "view",
      "type": "function",
      "constant": true
    },
    {
      "inputs": [
        {
          "internalType": "address",
          "name": "newOwner",
          "type": "address"
        }
      ],
      "name": "transferOwnership",
      "outputs": [],
      "stateMutability": "nonpayable",
      "type": "function"
    },
    {
      "inputs": [],
      "name": "version",
      "outputs": [
        {
          "internalType": "bytes8",
          "name": "",
          "type": "bytes8"
        }
      ],
      "stateMutability": "view",
      "type": "function",
      "constant": true
    },
    {
      "inputs": [],
      "name": "toggleContract",
      "outputs": [],
      "stateMutability": "nonpayable",
      "type": "function"
    },
    {
      "inputs": [
        {
          "internalType": "address",
          "name": "_serviceContactAddress",
          "type": "address"
        }
      ],
      "name": "setServiceContactAddress",
      "outputs": [],
      "stateMutability": "nonpayable",
      "type": "function"
    },
    {
      "inputs": [
        {
          "internalType": "bytes8",
          "name": "_version",
          "type": "bytes8"
        },
        {
          "internalType": "uint16",
          "name": "_serviceId",
          "type": "uint16"
        },
        {
          "internalType": "string",
          "name": "_description",
          "type": "string"
        },
        {
          "internalType": "bytes8",
          "name": "_codeAlert",
          "type": "bytes8"
        },
        {
          "internalType": "bytes8",
          "name": "_valueAlert",
          "type": "bytes8"
        }
      ],
      "name": "addRule",
      "outputs": [],
      "stateMutability": "nonpayable",
      "type": "function"
    },
    {
      "inputs": [],
      "name": "getAllRules",
      "outputs": [
        {
          "components": [
            {
              "internalType": "bytes8",
              "name": "version",
              "type": "bytes8"
            },
            {
              "internalType": "uint16",
              "name": "serviceId",
              "type": "uint16"
            },
            {
              "internalType": "bytes8",
              "name": "codeAlert",
              "type": "bytes8"
            },
            {
              "internalType": "bytes8",
              "name": "valueAlert",
              "type": "bytes8"
            },
            {
              "internalType": "bool",
              "name": "isActive",
              "type": "bool"
            },
            {
              "internalType": "address",
              "name": "legislatorAddress",
              "type": "address"
            },
            {
              "internalType": "string",
              "name": "description",
              "type": "string"
            },
            {
              "components": [
                {
                  "internalType": "uint256",
                  "name": "_value",
                  "type": "uint256"
                }
              ],
              "internalType": "struct Counters.Counter",
              "name": "alertIdCounter",
              "type": "tuple"
            }
          ],
          "internalType": "struct RuleContract.Rule[]",
          "name": "",
          "type": "tuple[]"
        }
      ],
      "stateMutability": "view",
      "type": "function",
      "constant": true
    },
    {
      "inputs": [
        {
          "internalType": "uint256",
          "name": "_ruleId",
          "type": "uint256"
        }
      ],
      "name": "toggleRule",
      "outputs": [],
      "stateMutability": "nonpayable",
      "type": "function"
    },
    {
      "inputs": [
        {
          "internalType": "uint256",
          "name": "_serviceId",
          "type": "uint256"
        },
        {
          "internalType": "uint256",
          "name": "_ruleId",
          "type": "uint256"
        },
        {
          "internalType": "bytes32",
          "name": "_alertBody",
          "type": "bytes32"
        }
      ],
      "name": "addAlert",
      "outputs": [],
      "stateMutability": "nonpayable",
      "type": "function"
    },
    {
      "inputs": [
        {
          "internalType": "uint256",
          "name": "_alertConfigId",
          "type": "uint256"
        }
      ],
      "name": "getAlerts",
      "outputs": [
        {
          "internalType": "bytes32[]",
          "name": "",
          "type": "bytes32[]"
        }
      ],
      "stateMutability": "view",
      "type": "function",
      "constant": true
    }
  ],
  "bytecode": "0x60806040523480156200001157600080fd5b5060405162002767380380620027678339818101604052810190620000379190620002cb565b6000620000496200026760201b60201c565b9050806000806101000a81548173ffffffffffffffffffffffffffffffffffffffff021916908373ffffffffffffffffffffffffffffffffffffffff1602179055508073ffffffffffffffffffffffffffffffffffffffff16600073ffffffffffffffffffffffffffffffffffffffff167f8be0079c531659141344cd1fd0a4f28419497f9722a3daafe3b4186f6b6457e060405160405180910390a35084600160146101000a81548167ffffffffffffffff021916908360c01c0217905550836001601c6101000a81548163ffffffff021916908363ffffffff16021790555080600260006101000a81548167ffffffffffffffff021916908367ffffffffffffffff1602179055506000600260086101000a81548167ffffffffffffffff021916908367ffffffffffffffff16021790555082600360006101000a81548173ffffffffffffffffffffffffffffffffffffffff021916908373ffffffffffffffffffffffffffffffffffffffff16021790555081600460006101000a81548173ffffffffffffffffffffffffffffffffffffffff021916908373ffffffffffffffffffffffffffffffffffffffff1602179055506000600560006101000a81548173ffffffffffffffffffffffffffffffffffffffff021916908373ffffffffffffffffffffffffffffffffffffffff1602179055506001600560146101000a81548160ff021916908315150217905550505050505062000439565b600033905090565b6000815190506200028081620003d1565b92915050565b6000815190506200029781620003eb565b92915050565b600081519050620002ae8162000405565b92915050565b600081519050620002c5816200041f565b92915050565b600080600080600060a08688031215620002e457600080fd5b6000620002f48882890162000286565b955050602062000307888289016200029d565b94505060406200031a888289016200026f565b93505060606200032d888289016200026f565b92505060806200034088828901620002b4565b9150509295509295909350565b60006200035a826200038d565b9050919050565b60007fffffffffffffffff00000000000000000000000000000000000000000000000082169050919050565b600073ffffffffffffffffffffffffffffffffffffffff82169050919050565b600063ffffffff82169050919050565b600067ffffffffffffffff82169050919050565b620003dc816200034d565b8114620003e857600080fd5b50565b620003f68162000361565b81146200040257600080fd5b50565b6200041081620003ad565b81146200041c57600080fd5b50565b6200042a81620003bd565b81146200043657600080fd5b50565b61231e80620004496000396000f3fe608060405234801561001057600080fd5b506004361061014d5760003560e01c806379300d9c116100c3578063d285f6e91161007c578063d285f6e91461035f578063d8787fde1461037d578063e0d9abc71461039b578063e449de9f146103cb578063e8d29084146103e9578063f2fde38b146104055761014d565b806379300d9c146102945780637ad3155f146102cb5780638da5cb5b146102e95780639df9002814610307578063b54251b514610311578063c7b6e7e1146103415761014d565b8063390fc6b611610115578063390fc6b6146101f857806354fd4d501461021457806361c3fe66146102325780636a7672d9146102505780636bb3471a1461026c578063715018a61461028a5761014d565b8063061f404b146101525780631184aef21461017057806317842b281461018e57806322f3e2d4146101be57806323139404146101dc575b600080fd5b61015a610421565b6040516101679190611fb5565b60405180910390f35b61017861043b565b6040516101859190611d4a565b60405180910390f35b6101a860048036038101906101a39190611779565b6106c3565b6040516101b59190611d28565b60405180910390f35b6101c661072e565b6040516101d39190611d6c565b60405180910390f35b6101f660048036038101906101f191906116c1565b610741565b005b610212600480360381019061020d9190611779565b610801565b005b61021c610a34565b6040516102299190611da2565b60405180910390f35b61023a610a47565b6040516102479190611d0d565b60405180910390f35b61026a600480360381019061026591906116ea565b610a6d565b005b610274610e0d565b6040516102819190611f9a565b60405180910390f35b610292610e23565b005b6102ae60048036038101906102a99190611779565b610f5d565b6040516102c2989796959493929190611dbd565b60405180910390f35b6102d36110b3565b6040516102e09190611f3a565b60405180910390f35b6102f16110bf565b6040516102fe9190611d0d565b60405180910390f35b61030f6110e8565b005b61032b600480360381019061032691906116c1565b6111c7565b6040516103389190611d6c565b60405180910390f35b6103496111e7565b6040516103569190611d0d565b60405180910390f35b61036761120d565b6040516103749190611fb5565b60405180910390f35b610385611227565b6040516103929190611d0d565b60405180910390f35b6103b560048036038101906103b091906117a2565b61124d565b6040516103c29190611d87565b60405180910390f35b6103d361127e565b6040516103e09190611d0d565b60405180910390f35b61040360048036038101906103fe91906117de565b6112a4565b005b61041f600480360381019061041a91906116c1565b611373565b005b600260089054906101000a900467ffffffffffffffff1681565b60606006805480602002602001604051908101604052809291908181526020016000905b828210156106ba5783829060005260206000209060040201604051806101000160405290816000820160009054906101000a900460c01b77ffffffffffffffffffffffffffffffffffffffffffffffff191677ffffffffffffffffffffffffffffffffffffffffffffffff191681526020016000820160089054906101000a900461ffff1661ffff1661ffff16815260200160008201600a9054906101000a900460c01b77ffffffffffffffffffffffffffffffffffffffffffffffff191677ffffffffffffffffffffffffffffffffffffffffffffffff191681526020016000820160129054906101000a900460c01b77ffffffffffffffffffffffffffffffffffffffffffffffff191677ffffffffffffffffffffffffffffffffffffffffffffffff1916815260200160008201601a9054906101000a900460ff161515151581526020016001820160009054906101000a900473ffffffffffffffffffffffffffffffffffffffff1673ffffffffffffffffffffffffffffffffffffffff1673ffffffffffffffffffffffffffffffffffffffff16815260200160028201805461060b906121d4565b80601f0160208091040260200160405190810160405280929190818152602001828054610637906121d4565b80156106845780601f1061065957610100808354040283529160200191610684565b820191906000526020600020905b81548152906001019060200180831161066757829003601f168201915b5050505050815260200160038201604051806020016040529081600082015481525050815250508152602001906001019061045f565b50505050905090565b60606007600083815260200190815260200160002080548060200260200160405190810160405280929190818152602001828054801561072257602002820191906000526020600020905b81548152602001906001019080831161070e575b50505050509050919050565b600560149054906101000a900460ff1681565b61074961151c565b73ffffffffffffffffffffffffffffffffffffffff166107676110bf565b73ffffffffffffffffffffffffffffffffffffffff16146107bd576040517f08c379a00000000000000000000000000000000000000000000000000000000081526004016107b490611e90565b60405180910390fd5b80600160006101000a81548173ffffffffffffffffffffffffffffffffffffffff021916908373ffffffffffffffffffffffffffffffffffffffff16021790555050565b6006818154811061083b577f4e487b7100000000000000000000000000000000000000000000000000000000600052603260045260246000fd5b906000526020600020906004020160010160009054906101000a900473ffffffffffffffffffffffffffffffffffffffff1673ffffffffffffffffffffffffffffffffffffffff163373ffffffffffffffffffffffffffffffffffffffff1614806108d857506108a96110bf565b73ffffffffffffffffffffffffffffffffffffffff163373ffffffffffffffffffffffffffffffffffffffff16145b6108e157600080fd5b7f5bbd3e5f24fdcbd17bcfcecf39df747d373a6f04ff97dab1175140ab5b3c39e66006828154811061093c577f4e487b7100000000000000000000000000000000000000000000000000000000600052603260045260246000fd5b906000526020600020906004020160000160089054906101000a900461ffff16823360405161096d93929190611ef0565b60405180910390a1600681815481106109af577f4e487b7100000000000000000000000000000000000000000000000000000000600052603260045260246000fd5b9060005260206000209060040201600001601a9054906101000a900460ff161560068281548110610a09577f4e487b7100000000000000000000000000000000000000000000000000000000600052603260045260246000fd5b9060005260206000209060040201600001601a6101000a81548160ff02191690831515021790555050565b600160149054906101000a900460c01b81565b600360009054906101000a900473ffffffffffffffffffffffffffffffffffffffff1681565b600560149054906101000a900460ff16610abc576040517f08c379a0000000000000000000000000000000000000000000000000000000008152600401610ab390611eb0565b60405180910390fd5b3373ffffffffffffffffffffffffffffffffffffffff16600360009054906101000a900473ffffffffffffffffffffffffffffffffffffffff1673ffffffffffffffffffffffffffffffffffffffff161480610b4a57503373ffffffffffffffffffffffffffffffffffffffff16610b326110bf565b73ffffffffffffffffffffffffffffffffffffffff16145b80610ba5575060011515600860003373ffffffffffffffffffffffffffffffffffffffff1673ffffffffffffffffffffffffffffffffffffffff16815260200190815260200160002060009054906101000a900460ff161515145b610be4576040517f08c379a0000000000000000000000000000000000000000000000000000000008152600401610bdb90611ed0565b60405180910390fd5b6000339050610bf161153a565b60066040518061010001604052808977ffffffffffffffffffffffffffffffffffffffffffffffff191681526020018861ffff1681526020018677ffffffffffffffffffffffffffffffffffffffffffffffff191681526020018577ffffffffffffffffffffffffffffffffffffffffffffffff191681526020016001151581526020018473ffffffffffffffffffffffffffffffffffffffff16815260200187815260200183815250908060018154018082558091505060019003906000526020600020906004020160009091909190915060008201518160000160006101000a81548167ffffffffffffffff021916908360c01c021790555060208201518160000160086101000a81548161ffff021916908361ffff160217905550604082015181600001600a6101000a81548167ffffffffffffffff021916908360c01c021790555060608201518160000160126101000a81548167ffffffffffffffff021916908360c01c0217905550608082015181600001601a6101000a81548160ff02191690831515021790555060a08201518160010160006101000a81548173ffffffffffffffffffffffffffffffffffffffff021916908373ffffffffffffffffffffffffffffffffffffffff16021790555060c0820151816002019080519060200190610de292919061154d565b5060e0820151816003016000820151816000015550505050610e046009611524565b50505050505050565b6001601c9054906101000a900463ffffffff1681565b610e2b61151c565b73ffffffffffffffffffffffffffffffffffffffff16610e496110bf565b73ffffffffffffffffffffffffffffffffffffffff1614610e9f576040517f08c379a0000000000000000000000000000000000000000000000000000000008152600401610e9690611e90565b60405180910390fd5b600073ffffffffffffffffffffffffffffffffffffffff1660008054906101000a900473ffffffffffffffffffffffffffffffffffffffff1673ffffffffffffffffffffffffffffffffffffffff167f8be0079c531659141344cd1fd0a4f28419497f9722a3daafe3b4186f6b6457e060405160405180910390a360008060006101000a81548173ffffffffffffffffffffffffffffffffffffffff021916908373ffffffffffffffffffffffffffffffffffffffff160217905550565b60068181548110610f6d57600080fd5b90600052602060002090600402016000915090508060000160009054906101000a900460c01b908060000160089054906101000a900461ffff169080600001600a9054906101000a900460c01b908060000160129054906101000a900460c01b9080600001601a9054906101000a900460ff16908060010160009054906101000a900473ffffffffffffffffffffffffffffffffffffffff1690806002018054611016906121d4565b80601f0160208091040260200160405190810160405280929190818152602001828054611042906121d4565b801561108f5780601f106110645761010080835404028352916020019161108f565b820191906000526020600020905b81548152906001019060200180831161107257829003601f168201915b50505050509080600301604051806020016040529081600082015481525050905088565b60098060000154905081565b60008060009054906101000a900473ffffffffffffffffffffffffffffffffffffffff16905090565b6110f061151c565b73ffffffffffffffffffffffffffffffffffffffff1661110e6110bf565b73ffffffffffffffffffffffffffffffffffffffff1614611164576040517f08c379a000000000000000000000000000000000000000000000000000000000815260040161115b90611e90565b60405180910390fd5b7f74851bb416411c1b4cb986c13ce9b6a9e973e7948f03fc2e574ca42a6d3724d3336040516111939190611e62565b60405180910390a1600560149054906101000a900460ff1615600560146101000a81548160ff021916908315150217905550565b60086020528060005260406000206000915054906101000a900460ff1681565b600160009054906101000a900473ffffffffffffffffffffffffffffffffffffffff1681565b600260009054906101000a900467ffffffffffffffff1681565b600560009054906101000a900473ffffffffffffffffffffffffffffffffffffffff1681565b6007602052816000526040600020818154811061126957600080fd5b90600052602060002001600091509150505481565b600460009054906101000a900473ffffffffffffffffffffffffffffffffffffffff1681565b600760008381526020019081526020016000208190806001815401808255809150506001900390600052602060002001600090919091909150556113316006838154811061131b577f4e487b7100000000000000000000000000000000000000000000000000000000600052603260045260246000fd5b9060005260206000209060040201600301611524565b7f36134df50fb7d9b784ebe80f4738a13cede0c5efe526e5e9d8b95601d8cc900c838383336040516113669493929190611f55565b60405180910390a1505050565b61137b61151c565b73ffffffffffffffffffffffffffffffffffffffff166113996110bf565b73ffffffffffffffffffffffffffffffffffffffff16146113ef576040517f08c379a00000000000000000000000000000000000000000000000000000000081526004016113e690611e90565b60405180910390fd5b600073ffffffffffffffffffffffffffffffffffffffff168173ffffffffffffffffffffffffffffffffffffffff16141561145f576040517f08c379a000000000000000000000000000000000000000000000000000000000815260040161145690611e42565b60405180910390fd5b8073ffffffffffffffffffffffffffffffffffffffff1660008054906101000a900473ffffffffffffffffffffffffffffffffffffffff1673ffffffffffffffffffffffffffffffffffffffff167f8be0079c531659141344cd1fd0a4f28419497f9722a3daafe3b4186f6b6457e060405160405180910390a3806000806101000a81548173ffffffffffffffffffffffffffffffffffffffff021916908373ffffffffffffffffffffffffffffffffffffffff16021790555050565b600033905090565b6001816000016000828254019250508190555050565b6040518060200160405280600081525090565b828054611559906121d4565b90600052602060002090601f01602090048101928261157b57600085556115c2565b82601f1061159457805160ff19168380011785556115c2565b828001600101855582156115c2579182015b828111156115c15782518255916020019190600101906115a6565b5b5090506115cf91906115d3565b5090565b5b808211156115ec5760008160009055506001016115d4565b5090565b60006116036115fe84612001565b611fd0565b90508281526020810184848401111561161b57600080fd5b611626848285612192565b509392505050565b60008135905061163d81612275565b92915050565b6000813590506116528161228c565b92915050565b600081359050611667816122a3565b92915050565b600082601f83011261167e57600080fd5b813561168e8482602086016115f0565b91505092915050565b6000813590506116a6816122ba565b92915050565b6000813590506116bb816122d1565b92915050565b6000602082840312156116d357600080fd5b60006116e18482850161162e565b91505092915050565b600080600080600060a0868803121561170257600080fd5b600061171088828901611658565b955050602061172188828901611697565b945050604086013567ffffffffffffffff81111561173e57600080fd5b61174a8882890161166d565b935050606061175b88828901611658565b925050608061176c88828901611658565b9150509295509295909350565b60006020828403121561178b57600080fd5b6000611799848285016116ac565b91505092915050565b600080604083850312156117b557600080fd5b60006117c3858286016116ac565b92505060206117d4858286016116ac565b9150509250929050565b6000806000606084860312156117f357600080fd5b6000611801868287016116ac565b9350506020611812868287016116ac565b925050604061182386828701611643565b9150509250925092565b60006118398383611968565b60208301905092915050565b60006118518383611bf4565b905092915050565b611862816120d0565b82525050565b611871816120d0565b82525050565b600061188282612051565b61188c818561208c565b935061189783612031565b8060005b838110156118c85781516118af888261182d565b97506118ba83612072565b92505060018101905061189b565b5085935050505092915050565b60006118e08261205c565b6118ea818561209d565b9350836020820285016118fc85612041565b8060005b8581101561193857848403895281516119198582611845565b94506119248361207f565b925060208a01995050600181019050611900565b50829750879550505050505092915050565b611953816120e2565b82525050565b611962816120e2565b82525050565b611971816120ee565b82525050565b611980816120ee565b82525050565b61198f816120f8565b82525050565b61199e816120f8565b82525050565b60006119af82612067565b6119b981856120ae565b93506119c98185602086016121a1565b6119d281612264565b840191505092915050565b60006119e882612067565b6119f281856120bf565b9350611a028185602086016121a1565b611a0b81612264565b840191505092915050565b6000611a236026836120bf565b91507f4f776e61626c653a206e6577206f776e657220697320746865207a65726f206160008301527f64647265737300000000000000000000000000000000000000000000000000006020830152604082019050919050565b6000611a89600c836120bf565b91507f416c657274206f6e2f6f666600000000000000000000000000000000000000006000830152602082019050919050565b6000611ac9600f836120bf565b91507f436f6e7472616374206f6e2f6f666600000000000000000000000000000000006000830152602082019050919050565b6000611b096020836120bf565b91507f4f776e61626c653a2063616c6c6572206973206e6f7420746865206f776e65726000830152602082019050919050565b6000611b496011836120bf565b91507f436f6e7472616374206f6666206c696e650000000000000000000000000000006000830152602082019050919050565b6000611b89600d836120bf565b91507f4163636573732064656e696564000000000000000000000000000000000000006000830152602082019050919050565b602082016000820151611bd26000850182611cd1565b50505050565b602082016000820151611bee6000850182611cd1565b50505050565b600061010083016000830151611c0d6000860182611986565b506020830151611c206020860182611ca4565b506040830151611c336040860182611986565b506060830151611c466060860182611986565b506080830151611c59608086018261194a565b5060a0830151611c6c60a0860182611859565b5060c083015184820360c0860152611c8482826119a4565b91505060e0830151611c9960e0860182611bbc565b508091505092915050565b611cad81612124565b82525050565b611cbc81612124565b82525050565b611ccb81612180565b82525050565b611cda81612152565b82525050565b611ce981612152565b82525050565b611cf88161215c565b82525050565b611d078161216c565b82525050565b6000602082019050611d226000830184611868565b92915050565b60006020820190508181036000830152611d428184611877565b905092915050565b60006020820190508181036000830152611d6481846118d5565b905092915050565b6000602082019050611d816000830184611959565b92915050565b6000602082019050611d9c6000830184611977565b92915050565b6000602082019050611db76000830184611995565b92915050565b600061010082019050611dd3600083018b611995565b611de0602083018a611cb3565b611ded6040830189611995565b611dfa6060830188611995565b611e076080830187611959565b611e1460a0830186611868565b81810360c0830152611e2681856119dd565b9050611e3560e0830184611bd8565b9998505050505050505050565b60006020820190508181036000830152611e5b81611a16565b9050919050565b60006040820190508181036000830152611e7b81611abc565b9050611e8a6020830184611868565b92915050565b60006020820190508181036000830152611ea981611afc565b9050919050565b60006020820190508181036000830152611ec981611b3c565b9050919050565b60006020820190508181036000830152611ee981611b7c565b9050919050565b6000608082019050611f056000830186611cc2565b611f126020830185611ce0565b8181036040830152611f2381611a7c565b9050611f326060830184611868565b949350505050565b6000602082019050611f4f6000830184611ce0565b92915050565b6000608082019050611f6a6000830187611ce0565b611f776020830186611ce0565b611f846040830185611977565b611f916060830184611868565b95945050505050565b6000602082019050611faf6000830184611cef565b92915050565b6000602082019050611fca6000830184611cfe565b92915050565b6000604051905081810181811067ffffffffffffffff82111715611ff757611ff6612235565b5b8060405250919050565b600067ffffffffffffffff82111561201c5761201b612235565b5b601f19601f8301169050602081019050919050565b6000819050602082019050919050565b6000819050602082019050919050565b600081519050919050565b600081519050919050565b600081519050919050565b6000602082019050919050565b6000602082019050919050565b600082825260208201905092915050565b600082825260208201905092915050565b600082825260208201905092915050565b600082825260208201905092915050565b60006120db82612132565b9050919050565b60008115159050919050565b6000819050919050565b60007fffffffffffffffff00000000000000000000000000000000000000000000000082169050919050565b600061ffff82169050919050565b600073ffffffffffffffffffffffffffffffffffffffff82169050919050565b6000819050919050565b600063ffffffff82169050919050565b600067ffffffffffffffff82169050919050565b600061218b82612124565b9050919050565b82818337600083830152505050565b60005b838110156121bf5780820151818401526020810190506121a4565b838111156121ce576000848401525b50505050565b600060028204905060018216806121ec57607f821691505b60208210811415612200576121ff612206565b5b50919050565b7f4e487b7100000000000000000000000000000000000000000000000000000000600052602260045260246000fd5b7f4e487b7100000000000000000000000000000000000000000000000000000000600052604160045260246000fd5b6000601f19601f8301169050919050565b61227e816120d0565b811461228957600080fd5b50565b612295816120ee565b81146122a057600080fd5b50565b6122ac816120f8565b81146122b757600080fd5b50565b6122c381612124565b81146122ce57600080fd5b50565b6122da81612152565b81146122e557600080fd5b5056fea26469706673582212203201560db8f1e9900415c907508952e46bbeb16025b0f352a58cb217c280762464736f6c63430008000033",
  "immutableReferences": {},
  "source": "// SPDX-License-Identifier: MIT\r\npragma solidity 0.8.0;\r\n\r\nimport \"../node_modules/@openzeppelin/contracts/utils/Counters.sol\";\r\nimport \"../node_modules/@openzeppelin/contracts/access/Ownable.sol\";\r\n\r\ncontract RuleContract is Ownable {\r\n    using Counters for Counters.Counter;\r\n    \r\n    /**\r\n     * @dev Structure of Rules\r\n     * @notice Feature_V2 \r\n     */\r\n    struct Rule {\r\n        bytes8 version;        \r\n        uint16 serviceId;\r\n        bytes8 codeAlert;\r\n        bytes8 valueAlert;\r\n        bool isActive;\r\n        address legislatorAddress;\r\n        string description;   \r\n\r\n        Counters.Counter alertIdCounter;         \r\n    }\r\n\r\n    modifier isContractActive() {\r\n        require(isActive, \"Contract off line\");\r\n        _;\r\n    }\r\n\r\n    modifier isRulesActive(uint _ruleId) {\r\n        require(_ruleId < _ruleIdCounter.current(), \"Rules not exist\"); \r\n        require(_rules[_ruleId].isActive, \"Rules off line\"); \r\n        _;\r\n    }  \r\n\r\n    modifier onlyLegislator() {\r\n        require (customerAddress == msg.sender || owner() ==  msg.sender || _legislators[msg.sender] == true, \"Access denied\");\r\n        _;\r\n    }\r\n\r\n    modifier onlyCustomer() {\r\n        require (customerAddress == msg.sender || owner() ==  msg.sender, \"Access denied\");\r\n        _;\r\n    }    \r\n\r\n    event RulesUpdate(uint _serviceId, uint _ruleId, string _message, address _author); \r\n    event AlertReceive(uint _serviceId, uint _ruleId, bytes32 _alert, address _author); \r\n    event ContractUpdate(string _message, address _author);  \r\n\r\n    address public serviceContactAddress;    \r\n\r\n    bytes8 public version;\r\n    uint32 public clientId;\r\n    uint64 public prevContractDate;\r\n    uint64 public nextContractDate;\r\n    address public customerAddress;\r\n    address public prevContract;\r\n    address public nextContract;\r\n    bool public isActive;\r\n\r\n    constructor (bytes8 _version, uint32 _clientId, address _customerAddress, address _prevContract, uint64 _prevContractDate) {\r\n        version = _version;\r\n        clientId = _clientId;\r\n        prevContractDate = _prevContractDate;\r\n        nextContractDate = 0;\r\n        customerAddress = _customerAddress;\r\n        prevContract = _prevContract;\r\n        nextContract = address(0);\r\n        isActive = true;\r\n    }\r\n\r\n    Rule[] public _rules;\r\n    mapping(uint => bytes32[]) public _alerts; \r\n    mapping(address => bool) public _legislators;\r\n\r\n    Counters.Counter public _ruleIdCounter;\r\n \r\n    /**\r\n     * @dev toggle a Contract activation or deactivation\r\n     */\r\n    function toggleContract()\r\n        onlyOwner() external {\r\n            emit ContractUpdate(\"Contract on/off\", msg.sender);\r\n            isActive = !isActive;\r\n    }  \r\n\r\n    /**\r\n     * @dev toggle a Contract activation or deactivation\r\n     */\r\n    function setServiceContactAddress(address _serviceContactAddress)\r\n        onlyOwner() external {\r\n            serviceContactAddress = _serviceContactAddress;\r\n    }      \r\n\r\n    /**\r\n     * @dev add a fondation's alert config\r\n     * @param _serviceId index of service \r\n     * @param _version service's version\r\n     * @param _description alert config description \r\n     * @param _codeAlert alert's code\r\n     * @param _valueAlert alert's value\r\n     */\r\n    function addRule(\r\n        bytes8 _version,   \r\n        uint16 _serviceId,        \r\n        string memory _description,  \r\n        bytes8 _codeAlert,\r\n        bytes8 _valueAlert)\r\n        isContractActive() onlyLegislator() external {\r\n\r\n        address _legislatorAddress = msg.sender;\r\n\r\n        Counters.Counter memory alertIdCounter;\r\n\r\n        _rules.push(Rule(\r\n            _version,  \r\n            _serviceId, \r\n            _codeAlert,\r\n            _valueAlert,   \r\n            true,                           \r\n            _legislatorAddress,\r\n            _description, \r\n            alertIdCounter\r\n        ));\r\n\r\n        _ruleIdCounter.increment();\r\n    }\r\n\r\n    /**\r\n     * @dev get all alert configs\r\n     */\r\n    function getAllRules() \r\n        external view \r\n        returns(Rule[] memory){\r\n              \r\n        return (_rules);\r\n    }\r\n\r\n    /**\r\n     * @dev toggle an alert config\r\n     * @param _ruleId index of the alert config\r\n     */\r\n    function toggleRule(uint _ruleId) \r\n        external {\r\n\r\n        require ((msg.sender == _rules[_ruleId].legislatorAddress) || (msg.sender == owner()));\r\n\r\n        emit RulesUpdate(_rules[_ruleId].serviceId, _ruleId, \"Alert on/off\", msg.sender);\r\n\r\n        _rules[_ruleId].isActive = !_rules[_ruleId].isActive;\r\n    }       \r\n\r\n    // ALERTS PART\r\n\r\n    /**\r\n     * @dev add an alert\r\n     * @param _serviceId index of service \r\n     * @param _alertBody alert's body\r\n     */    \r\n    function addAlert(\r\n        uint _serviceId,\r\n        uint _ruleId,\r\n        bytes32 _alertBody) \r\n        external {         \r\n\r\n        // TODO CHECK BRIDGE ORIGIN\r\n\r\n        _alerts[_ruleId].push(_alertBody);\r\n        _rules[_ruleId].alertIdCounter.increment();\r\n\r\n        emit AlertReceive(_serviceId, _ruleId, _alertBody, msg.sender);\r\n    }\r\n\r\n    /**\r\n     * @dev get all alerts of a specific alerteConfig\r\n     * @param _alertConfigId index of alerteConfig \r\n     */  \r\n    function getAlerts(\r\n        uint _alertConfigId) \r\n        external view \r\n        returns(bytes32[] memory){\r\n            \r\n        return (_alerts[_alertConfigId]);        \r\n    }\r\n\r\n\r\n}\r\n",
  "sourcePath": "C:/Users/danie/Desktop/Solidity/Projet final/eco-capt/contracts/RuleContract.sol",
  "compiler": {
    "name": "solc",
    "version": "0.8.0+commit.c7dfd78e.Emscripten.clang"
  },
  "schemaVersion": "3.3.4",
  "updatedAt": "2021-04-18T21:08:05.292Z",
  "networkType": "ethereum",
  "devdoc": {
    "kind": "dev",
    "methods": {
      "addAlert(uint256,uint256,bytes32)": {
        "details": "add an alert",
        "params": {
          "_alertBody": "alert's body",
          "_serviceId": "index of service "
        }
      },
      "addRule(bytes8,uint16,string,bytes8,bytes8)": {
        "details": "add a fondation's alert config",
        "params": {
          "_codeAlert": "alert's code",
          "_description": "alert config description ",
          "_serviceId": "index of service ",
          "_valueAlert": "alert's value",
          "_version": "service's version"
        }
      },
      "getAlerts(uint256)": {
        "details": "get all alerts of a specific alerteConfig",
        "params": {
          "_alertConfigId": "index of alerteConfig "
        }
      },
      "getAllRules()": {
        "details": "get all alert configs"
      },
      "owner()": {
        "details": "Returns the address of the current owner."
      },
      "renounceOwnership()": {
        "details": "Leaves the contract without owner. It will not be possible to call `onlyOwner` functions anymore. Can only be called by the current owner. NOTE: Renouncing ownership will leave the contract without an owner, thereby removing any functionality that is only available to the owner."
      },
      "setServiceContactAddress(address)": {
        "details": "toggle a Contract activation or deactivation"
      },
      "toggleContract()": {
        "details": "toggle a Contract activation or deactivation"
      },
      "toggleRule(uint256)": {
        "details": "toggle an alert config",
        "params": {
          "_ruleId": "index of the alert config"
        }
      },
      "transferOwnership(address)": {
        "details": "Transfers ownership of the contract to a new account (`newOwner`). Can only be called by the current owner."
      }
    },
    "version": 1
  },
  "userdoc": {
    "kind": "user",
    "methods": {},
    "version": 1
  }
}