{
  "contractName": "ServiceContract",
  "abi": [
    {
      "inputs": [
        {
          "internalType": "bytes8",
          "name": "_version",
          "type": "bytes8"
        },
        {
          "internalType": "uint32",
          "name": "_clientId",
          "type": "uint32"
        },
        {
          "internalType": "address",
          "name": "_customerAddress",
          "type": "address"
        },
        {
          "internalType": "address",
          "name": "_prevContract",
          "type": "address"
        },
        {
          "internalType": "uint64",
          "name": "_prevContractDate",
          "type": "uint64"
        }
      ],
      "stateMutability": "nonpayable",
      "type": "constructor"
    },
    {
      "anonymous": false,
      "inputs": [
        {
          "indexed": false,
          "internalType": "string",
          "name": "_message",
          "type": "string"
        },
        {
          "indexed": false,
          "internalType": "address",
          "name": "_author",
          "type": "address"
        }
      ],
      "name": "ContractUpdate",
      "type": "event"
    },
    {
      "anonymous": false,
      "inputs": [
        {
          "indexed": false,
          "internalType": "uint256",
          "name": "_serviceId",
          "type": "uint256"
        },
        {
          "indexed": false,
          "internalType": "bytes32",
          "name": "_header",
          "type": "bytes32"
        },
        {
          "indexed": false,
          "internalType": "bytes32",
          "name": "_body",
          "type": "bytes32"
        },
        {
          "indexed": false,
          "internalType": "address",
          "name": "_author",
          "type": "address"
        }
      ],
      "name": "MeasureReceive",
      "type": "event"
    },
    {
      "anonymous": false,
      "inputs": [
        {
          "indexed": true,
          "internalType": "address",
          "name": "previousOwner",
          "type": "address"
        },
        {
          "indexed": true,
          "internalType": "address",
          "name": "newOwner",
          "type": "address"
        }
      ],
      "name": "OwnershipTransferred",
      "type": "event"
    },
    {
      "anonymous": false,
      "inputs": [
        {
          "indexed": false,
          "internalType": "uint256",
          "name": "_serviceId",
          "type": "uint256"
        },
        {
          "indexed": false,
          "internalType": "uint256",
          "name": "_id",
          "type": "uint256"
        },
        {
          "indexed": false,
          "internalType": "string",
          "name": "_message",
          "type": "string"
        },
        {
          "indexed": false,
          "internalType": "address",
          "name": "_author",
          "type": "address"
        }
      ],
      "name": "ServiceElementUpdate",
      "type": "event"
    },
    {
      "anonymous": false,
      "inputs": [
        {
          "indexed": false,
          "internalType": "uint256",
          "name": "_serviceId",
          "type": "uint256"
        },
        {
          "indexed": false,
          "internalType": "string",
          "name": "_message",
          "type": "string"
        },
        {
          "indexed": false,
          "internalType": "address",
          "name": "_author",
          "type": "address"
        }
      ],
      "name": "ServiceUpdate",
      "type": "event"
    },
    {
      "inputs": [
        {
          "internalType": "uint256",
          "name": "",
          "type": "uint256"
        },
        {
          "internalType": "uint256",
          "name": "",
          "type": "uint256"
        }
      ],
      "name": "_serviceBodyMeasures",
      "outputs": [
        {
          "internalType": "bytes32",
          "name": "",
          "type": "bytes32"
        }
      ],
      "stateMutability": "view",
      "type": "function",
      "constant": true
    },
    {
      "inputs": [
        {
          "internalType": "uint256",
          "name": "",
          "type": "uint256"
        },
        {
          "internalType": "uint256",
          "name": "",
          "type": "uint256"
        }
      ],
      "name": "_serviceHeaderMeasures",
      "outputs": [
        {
          "internalType": "bytes32",
          "name": "",
          "type": "bytes32"
        }
      ],
      "stateMutability": "view",
      "type": "function",
      "constant": true
    },
    {
      "inputs": [],
      "name": "_serviceIdCounter",
      "outputs": [
        {
          "internalType": "uint256",
          "name": "_value",
          "type": "uint256"
        }
      ],
      "stateMutability": "view",
      "type": "function",
      "constant": true
    },
    {
      "inputs": [
        {
          "internalType": "uint256",
          "name": "",
          "type": "uint256"
        },
        {
          "internalType": "uint256",
          "name": "",
          "type": "uint256"
        }
      ],
      "name": "_serviceMacIOT",
      "outputs": [
        {
          "internalType": "bytes6",
          "name": "mac",
          "type": "bytes6"
        },
        {
          "internalType": "bool",
          "name": "isActive",
          "type": "bool"
        },
        {
          "internalType": "string",
          "name": "description",
          "type": "string"
        }
      ],
      "stateMutability": "view",
      "type": "function",
      "constant": true
    },
    {
      "inputs": [
        {
          "internalType": "uint256",
          "name": "",
          "type": "uint256"
        }
      ],
      "name": "_services",
      "outputs": [
        {
          "internalType": "bytes8",
          "name": "version",
          "type": "bytes8"
        },
        {
          "internalType": "bytes8",
          "name": "measureType",
          "type": "bytes8"
        },
        {
          "internalType": "bytes1",
          "name": "timeCode",
          "type": "bytes1"
        },
        {
          "internalType": "uint8",
          "name": "nbTime",
          "type": "uint8"
        },
        {
          "internalType": "bool",
          "name": "isActive",
          "type": "bool"
        },
        {
          "internalType": "address",
          "name": "bridgeAddress",
          "type": "address"
        },
        {
          "internalType": "address",
          "name": "techMasterAddress",
          "type": "address"
        },
        {
          "internalType": "string",
          "name": "description",
          "type": "string"
        },
        {
          "components": [
            {
              "internalType": "uint256",
              "name": "_value",
              "type": "uint256"
            }
          ],
          "internalType": "struct Counters.Counter",
          "name": "measureIdCounter",
          "type": "tuple"
        },
        {
          "components": [
            {
              "internalType": "uint256",
              "name": "_value",
              "type": "uint256"
            }
          ],
          "internalType": "struct Counters.Counter",
          "name": "iotIdCounter",
          "type": "tuple"
        }
      ],
      "stateMutability": "view",
      "type": "function",
      "constant": true
    },
    {
      "inputs": [],
      "name": "clientId",
      "outputs": [
        {
          "internalType": "uint32",
          "name": "",
          "type": "uint32"
        }
      ],
      "stateMutability": "view",
      "type": "function",
      "constant": true
    },
    {
      "inputs": [],
      "name": "customerAddress",
      "outputs": [
        {
          "internalType": "address",
          "name": "",
          "type": "address"
        }
      ],
      "stateMutability": "view",
      "type": "function",
      "constant": true
    },
    {
      "inputs": [],
      "name": "isActive",
      "outputs": [
        {
          "internalType": "bool",
          "name": "",
          "type": "bool"
        }
      ],
      "stateMutability": "view",
      "type": "function",
      "constant": true
    },
    {
      "inputs": [],
      "name": "nextContract",
      "outputs": [
        {
          "internalType": "address",
          "name": "",
          "type": "address"
        }
      ],
      "stateMutability": "view",
      "type": "function",
      "constant": true
    },
    {
      "inputs": [],
      "name": "nextContractDate",
      "outputs": [
        {
          "internalType": "uint64",
          "name": "",
          "type": "uint64"
        }
      ],
      "stateMutability": "view",
      "type": "function",
      "constant": true
    },
    {
      "inputs": [],
      "name": "owner",
      "outputs": [
        {
          "internalType": "address",
          "name": "",
          "type": "address"
        }
      ],
      "stateMutability": "view",
      "type": "function",
      "constant": true
    },
    {
      "inputs": [],
      "name": "prevContract",
      "outputs": [
        {
          "internalType": "address",
          "name": "",
          "type": "address"
        }
      ],
      "stateMutability": "view",
      "type": "function",
      "constant": true
    },
    {
      "inputs": [],
      "name": "prevContractDate",
      "outputs": [
        {
          "internalType": "uint64",
          "name": "",
          "type": "uint64"
        }
      ],
      "stateMutability": "view",
      "type": "function",
      "constant": true
    },
    {
      "inputs": [],
      "name": "renounceOwnership",
      "outputs": [],
      "stateMutability": "nonpayable",
      "type": "function"
    },
    {
      "inputs": [],
      "name": "ruleContractAddress",
      "outputs": [
        {
          "internalType": "address",
          "name": "",
          "type": "address"
        }
      ],
      "stateMutability": "view",
      "type": "function",
      "constant": true
    },
    {
      "inputs": [
        {
          "internalType": "address",
          "name": "newOwner",
          "type": "address"
        }
      ],
      "name": "transferOwnership",
      "outputs": [],
      "stateMutability": "nonpayable",
      "type": "function"
    },
    {
      "inputs": [],
      "name": "version",
      "outputs": [
        {
          "internalType": "bytes8",
          "name": "",
          "type": "bytes8"
        }
      ],
      "stateMutability": "view",
      "type": "function",
      "constant": true
    },
    {
      "inputs": [],
      "name": "toggleContract",
      "outputs": [],
      "stateMutability": "nonpayable",
      "type": "function"
    },
    {
      "inputs": [
        {
          "internalType": "address",
          "name": "_ruleContractAddress",
          "type": "address"
        }
      ],
      "name": "setServiceContactAddress",
      "outputs": [],
      "stateMutability": "nonpayable",
      "type": "function"
    },
    {
      "inputs": [
        {
          "internalType": "bytes8",
          "name": "_version",
          "type": "bytes8"
        },
        {
          "internalType": "string",
          "name": "_description",
          "type": "string"
        },
        {
          "internalType": "bytes8",
          "name": "_measureType",
          "type": "bytes8"
        },
        {
          "internalType": "bytes1",
          "name": "_timeCode",
          "type": "bytes1"
        },
        {
          "internalType": "uint8",
          "name": "_nbTime",
          "type": "uint8"
        }
      ],
      "name": "addService",
      "outputs": [],
      "stateMutability": "nonpayable",
      "type": "function"
    },
    {
      "inputs": [],
      "name": "getAllServices",
      "outputs": [
        {
          "components": [
            {
              "internalType": "bytes8",
              "name": "version",
              "type": "bytes8"
            },
            {
              "internalType": "bytes8",
              "name": "measureType",
              "type": "bytes8"
            },
            {
              "internalType": "bytes1",
              "name": "timeCode",
              "type": "bytes1"
            },
            {
              "internalType": "uint8",
              "name": "nbTime",
              "type": "uint8"
            },
            {
              "internalType": "bool",
              "name": "isActive",
              "type": "bool"
            },
            {
              "internalType": "address",
              "name": "bridgeAddress",
              "type": "address"
            },
            {
              "internalType": "address",
              "name": "techMasterAddress",
              "type": "address"
            },
            {
              "internalType": "string",
              "name": "description",
              "type": "string"
            },
            {
              "components": [
                {
                  "internalType": "uint256",
                  "name": "_value",
                  "type": "uint256"
                }
              ],
              "internalType": "struct Counters.Counter",
              "name": "measureIdCounter",
              "type": "tuple"
            },
            {
              "components": [
                {
                  "internalType": "uint256",
                  "name": "_value",
                  "type": "uint256"
                }
              ],
              "internalType": "struct Counters.Counter",
              "name": "iotIdCounter",
              "type": "tuple"
            }
          ],
          "internalType": "struct ServiceContract.Service[]",
          "name": "",
          "type": "tuple[]"
        }
      ],
      "stateMutability": "view",
      "type": "function",
      "constant": true
    },
    {
      "inputs": [
        {
          "internalType": "uint256",
          "name": "_serviceId",
          "type": "uint256"
        }
      ],
      "name": "getOneService",
      "outputs": [
        {
          "components": [
            {
              "internalType": "bytes8",
              "name": "version",
              "type": "bytes8"
            },
            {
              "internalType": "bytes8",
              "name": "measureType",
              "type": "bytes8"
            },
            {
              "internalType": "bytes1",
              "name": "timeCode",
              "type": "bytes1"
            },
            {
              "internalType": "uint8",
              "name": "nbTime",
              "type": "uint8"
            },
            {
              "internalType": "bool",
              "name": "isActive",
              "type": "bool"
            },
            {
              "internalType": "address",
              "name": "bridgeAddress",
              "type": "address"
            },
            {
              "internalType": "address",
              "name": "techMasterAddress",
              "type": "address"
            },
            {
              "internalType": "string",
              "name": "description",
              "type": "string"
            },
            {
              "components": [
                {
                  "internalType": "uint256",
                  "name": "_value",
                  "type": "uint256"
                }
              ],
              "internalType": "struct Counters.Counter",
              "name": "measureIdCounter",
              "type": "tuple"
            },
            {
              "components": [
                {
                  "internalType": "uint256",
                  "name": "_value",
                  "type": "uint256"
                }
              ],
              "internalType": "struct Counters.Counter",
              "name": "iotIdCounter",
              "type": "tuple"
            }
          ],
          "internalType": "struct ServiceContract.Service",
          "name": "",
          "type": "tuple"
        }
      ],
      "stateMutability": "view",
      "type": "function",
      "constant": true
    },
    {
      "inputs": [
        {
          "internalType": "uint256",
          "name": "_serviceId",
          "type": "uint256"
        }
      ],
      "name": "toggleService",
      "outputs": [],
      "stateMutability": "nonpayable",
      "type": "function"
    },
    {
      "inputs": [
        {
          "internalType": "uint256",
          "name": "_serviceId",
          "type": "uint256"
        },
        {
          "internalType": "address",
          "name": "_techMasterAddress",
          "type": "address"
        }
      ],
      "name": "setTechMasterAddress",
      "outputs": [],
      "stateMutability": "nonpayable",
      "type": "function"
    },
    {
      "inputs": [
        {
          "internalType": "uint256",
          "name": "_serviceId",
          "type": "uint256"
        },
        {
          "internalType": "address",
          "name": "_bridgeAddress",
          "type": "address"
        }
      ],
      "name": "setBridgeAddress",
      "outputs": [],
      "stateMutability": "nonpayable",
      "type": "function"
    },
    {
      "inputs": [
        {
          "internalType": "uint256",
          "name": "_serviceId",
          "type": "uint256"
        },
        {
          "internalType": "bytes32",
          "name": "_measureHeader",
          "type": "bytes32"
        },
        {
          "internalType": "bytes32",
          "name": "_measurebody",
          "type": "bytes32"
        }
      ],
      "name": "addMeasure",
      "outputs": [],
      "stateMutability": "nonpayable",
      "type": "function"
    },
    {
      "inputs": [
        {
          "internalType": "uint256",
          "name": "_serviceId",
          "type": "uint256"
        }
      ],
      "name": "getAllMeasures",
      "outputs": [
        {
          "internalType": "bytes32[]",
          "name": "",
          "type": "bytes32[]"
        },
        {
          "internalType": "bytes32[]",
          "name": "",
          "type": "bytes32[]"
        }
      ],
      "stateMutability": "view",
      "type": "function",
      "constant": true
    },
    {
      "inputs": [
        {
          "internalType": "uint256",
          "name": "_serviceId",
          "type": "uint256"
        },
        {
          "internalType": "uint256",
          "name": "_measureId",
          "type": "uint256"
        }
      ],
      "name": "getMeasuresById",
      "outputs": [
        {
          "internalType": "bytes32",
          "name": "",
          "type": "bytes32"
        },
        {
          "internalType": "bytes32",
          "name": "",
          "type": "bytes32"
        }
      ],
      "stateMutability": "view",
      "type": "function",
      "constant": true
    },
    {
      "inputs": [
        {
          "internalType": "uint256",
          "name": "_serviceId",
          "type": "uint256"
        },
        {
          "internalType": "bytes6",
          "name": "_macAddress",
          "type": "bytes6"
        },
        {
          "internalType": "string",
          "name": "_description",
          "type": "string"
        }
      ],
      "name": "addIot",
      "outputs": [],
      "stateMutability": "nonpayable",
      "type": "function"
    },
    {
      "inputs": [
        {
          "internalType": "uint256",
          "name": "_serviceId",
          "type": "uint256"
        }
      ],
      "name": "getIot",
      "outputs": [
        {
          "components": [
            {
              "internalType": "bytes6",
              "name": "mac",
              "type": "bytes6"
            },
            {
              "internalType": "bool",
              "name": "isActive",
              "type": "bool"
            },
            {
              "internalType": "string",
              "name": "description",
              "type": "string"
            }
          ],
          "internalType": "struct ServiceContract.Iot[]",
          "name": "",
          "type": "tuple[]"
        }
      ],
      "stateMutability": "view",
      "type": "function",
      "constant": true
    },
    {
      "inputs": [
        {
          "internalType": "uint256",
          "name": "_serviceId",
          "type": "uint256"
        },
        {
          "internalType": "uint256",
          "name": "_iotId",
          "type": "uint256"
        }
      ],
      "name": "toggleIOT",
      "outputs": [],
      "stateMutability": "nonpayable",
      "type": "function"
    }
  ],
  "bytecode": "0x60806040523480156200001157600080fd5b5060405162004822380380620048228339818101604052810190620000379190620002cb565b6000620000496200026760201b60201c565b9050806000806101000a81548173ffffffffffffffffffffffffffffffffffffffff021916908373ffffffffffffffffffffffffffffffffffffffff1602179055508073ffffffffffffffffffffffffffffffffffffffff16600073ffffffffffffffffffffffffffffffffffffffff167f8be0079c531659141344cd1fd0a4f28419497f9722a3daafe3b4186f6b6457e060405160405180910390a35084600660146101000a81548167ffffffffffffffff021916908360c01c0217905550836006601c6101000a81548163ffffffff021916908363ffffffff16021790555080600760006101000a81548167ffffffffffffffff021916908367ffffffffffffffff1602179055506000600760086101000a81548167ffffffffffffffff021916908367ffffffffffffffff16021790555082600860006101000a81548173ffffffffffffffffffffffffffffffffffffffff021916908373ffffffffffffffffffffffffffffffffffffffff16021790555081600960006101000a81548173ffffffffffffffffffffffffffffffffffffffff021916908373ffffffffffffffffffffffffffffffffffffffff1602179055506000600a60006101000a81548173ffffffffffffffffffffffffffffffffffffffff021916908373ffffffffffffffffffffffffffffffffffffffff1602179055506001600a60146101000a81548160ff021916908315150217905550505050505062000439565b600033905090565b6000815190506200028081620003d1565b92915050565b6000815190506200029781620003eb565b92915050565b600081519050620002ae8162000405565b92915050565b600081519050620002c5816200041f565b92915050565b600080600080600060a08688031215620002e457600080fd5b6000620002f48882890162000286565b955050602062000307888289016200029d565b94505060406200031a888289016200026f565b93505060606200032d888289016200026f565b92505060806200034088828901620002b4565b9150509295509295909350565b60006200035a826200038d565b9050919050565b60007fffffffffffffffff00000000000000000000000000000000000000000000000082169050919050565b600073ffffffffffffffffffffffffffffffffffffffff82169050919050565b600063ffffffff82169050919050565b600067ffffffffffffffff82169050919050565b620003dc816200034d565b8114620003e857600080fd5b50565b620003f68162000361565b81146200040257600080fd5b50565b6200041081620003ad565b81146200041c57600080fd5b50565b6200042a81620003bd565b81146200043657600080fd5b50565b6143d980620004496000396000f3fe608060405234801561001057600080fd5b50600436106101e55760003560e01c80638181b80d1161010f578063d285f6e9116100a2578063dab8d90311610071578063dab8d90314610567578063e0c9d4bb14610599578063e449de9f146105b5578063f2fde38b146105d3576101e5565b8063d285f6e9146104df578063d3088f2b146104fd578063d8787fde1461052d578063da6cd3761461054b576101e5565b80639df90028116100de5780639df900281461047f578063b2e733bf14610489578063b9d3106b146104a5578063c700fdf7146104c1576101e5565b80638181b80d146103da5780638da5cb5b14610413578063980149d51461043157806398105e6e1461044f576101e5565b806335dc8feb1161018757806361c3fe661161015657806361c3fe66146103645780636bb3471a14610382578063715018a6146103a05780637f085101146103aa576101e5565b806335dc8feb146102c95780634c6fdcc6146102f957806351f2c5ad1461031557806354fd4d5014610346576101e5565b806321fe0f30116101c357806321fe0f301461024057806322f3e2d41461025e578063231394041461027c5780632669167a14610298576101e5565b8063061f404b146101ea57806306566faa14610208578063164c3abb14610224575b600080fd5b6101f26105ef565b6040516101ff9190613fc4565b60405180910390f35b610222600480360381019061021d9190613168565b610609565b005b61023e6004803603810190610239919061325a565b61091c565b005b610248610c85565b6040516102559190613b74565b60405180910390f35b610266610f8c565b6040516102739190613b96565b60405180910390f35b61029660048036038101906102919190613087565b610f9f565b005b6102b260048036038101906102ad919061325a565b61105f565b6040516102c0929190613bcc565b60405180910390f35b6102e360048036038101906102de919061325a565b611119565b6040516102f09190613bb1565b60405180910390f35b610313600480360381019061030e9190613168565b61114a565b005b61032f600480360381019061032a919061313f565b6113c1565b60405161033d929190613b1b565b60405180910390f35b61034e611497565b60405161035b9190613c33565b60405180910390f35b61036c6114aa565b6040516103799190613b00565b60405180910390f35b61038a6114d0565b6040516103979190613fa9565b60405180910390f35b6103a86114e6565b005b6103c460048036038101906103bf919061325a565b611620565b6040516103d19190613bb1565b60405180910390f35b6103f460048036038101906103ef919061313f565b611651565b60405161040a9a99989796959493929190613c4e565b60405180910390f35b61041b6117e6565b6040516104289190613b00565b60405180910390f35b61043961180f565b6040516104469190613b00565b60405180910390f35b6104696004803603810190610464919061313f565b611835565b6040516104769190613b52565b60405180910390f35b6104876119a5565b005b6104a3600480360381019061049e91906131a4565b611a84565b005b6104bf60048036038101906104ba91906131f3565b611dd9565b005b6104c96121e6565b6040516104d69190613e01565b60405180910390f35b6104e76121f2565b6040516104f49190613fc4565b60405180910390f35b6105176004803603810190610512919061313f565b61220c565b6040516105249190613ddf565b60405180910390f35b610535612516565b6040516105429190613b00565b60405180910390f35b610565600480360381019061056091906130b0565b61253c565b005b610581600480360381019061057c919061325a565b612945565b60405161059093929190613bf5565b60405180910390f35b6105b360048036038101906105ae919061313f565b612a2e565b005b6105bd612bf3565b6040516105ca9190613b00565b60405180910390f35b6105ed60048036038101906105e89190613087565b612c19565b005b600760089054906101000a900467ffffffffffffffff1681565b600a60149054906101000a900460ff16610658576040517f08c379a000000000000000000000000000000000000000000000000000000000815260040161064f90613d7f565b60405180910390fd5b816106636005612dc2565b81106106a4576040517f08c379a000000000000000000000000000000000000000000000000000000000815260040161069b90613d5f565b60405180910390fd5b600181815481106106de577f4e487b7100000000000000000000000000000000000000000000000000000000600052603260045260246000fd5b906000526020600020906006020160000160129054906101000a900460ff1661073c576040517f08c379a000000000000000000000000000000000000000000000000000000000815260040161073390613d9f565b60405180910390fd5b823373ffffffffffffffffffffffffffffffffffffffff166001828154811061078e577f4e487b7100000000000000000000000000000000000000000000000000000000600052603260045260246000fd5b906000526020600020906006020160020160009054906101000a900473ffffffffffffffffffffffffffffffffffffffff1673ffffffffffffffffffffffffffffffffffffffff16148061081457503373ffffffffffffffffffffffffffffffffffffffff166107fc6117e6565b73ffffffffffffffffffffffffffffffffffffffff16145b610853576040517f08c379a000000000000000000000000000000000000000000000000000000000815260040161084a90613dbf565b60405180910390fd5b826001858154811061088e577f4e487b7100000000000000000000000000000000000000000000000000000000600052603260045260246000fd5b906000526020600020906006020160010160006101000a81548173ffffffffffffffffffffffffffffffffffffffff021916908373ffffffffffffffffffffffffffffffffffffffff1602179055507f6eb54bb1fcbc8b072bc7be4d66f909b2316584cb9b6c49bfdb6504b9246a8481843360405161090e929190613e61565b60405180910390a150505050565b600a60149054906101000a900460ff1661096b576040517f08c379a000000000000000000000000000000000000000000000000000000000815260040161096290613d7f565b60405180910390fd5b816109766005612dc2565b81106109b7576040517f08c379a00000000000000000000000000000000000000000000000000000000081526004016109ae90613d5f565b60405180910390fd5b600181815481106109f1577f4e487b7100000000000000000000000000000000000000000000000000000000600052603260045260246000fd5b906000526020600020906006020160000160129054906101000a900460ff16610a4f576040517f08c379a0000000000000000000000000000000000000000000000000000000008152600401610a4690613d9f565b60405180910390fd5b823373ffffffffffffffffffffffffffffffffffffffff1660018281548110610aa1577f4e487b7100000000000000000000000000000000000000000000000000000000600052603260045260246000fd5b906000526020600020906006020160020160009054906101000a900473ffffffffffffffffffffffffffffffffffffffff1673ffffffffffffffffffffffffffffffffffffffff161480610b2757503373ffffffffffffffffffffffffffffffffffffffff16610b0f6117e6565b73ffffffffffffffffffffffffffffffffffffffff16145b610b66576040517f08c379a0000000000000000000000000000000000000000000000000000000008152600401610b5d90613dbf565b60405180910390fd5b7f6391e278cb294aa6ee810ce0e33f9840acfd7edf28f3701d62764067965c6ba1848433604051610b9993929190613f15565b60405180910390a1600460008581526020019081526020016000208381548110610bec577f4e487b7100000000000000000000000000000000000000000000000000000000600052603260045260246000fd5b906000526020600020906002020160000160069054906101000a900460ff1615600460008681526020019081526020016000208481548110610c57577f4e487b7100000000000000000000000000000000000000000000000000000000600052603260045260246000fd5b906000526020600020906002020160000160066101000a81548160ff02191690831515021790555050505050565b60606001805480602002602001604051908101604052809291908181526020016000905b82821015610f835783829060005260206000209060060201604051806101400160405290816000820160009054906101000a900460c01b77ffffffffffffffffffffffffffffffffffffffffffffffff191677ffffffffffffffffffffffffffffffffffffffffffffffff191681526020016000820160089054906101000a900460c01b77ffffffffffffffffffffffffffffffffffffffffffffffff191677ffffffffffffffffffffffffffffffffffffffffffffffff191681526020016000820160109054906101000a900460f81b7effffffffffffffffffffffffffffffffffffffffffffffffffffffffffffff19167effffffffffffffffffffffffffffffffffffffffffffffffffffffffffffff191681526020016000820160119054906101000a900460ff1660ff1660ff1681526020016000820160129054906101000a900460ff161515151581526020016001820160009054906101000a900473ffffffffffffffffffffffffffffffffffffffff1673ffffffffffffffffffffffffffffffffffffffff1673ffffffffffffffffffffffffffffffffffffffff1681526020016002820160009054906101000a900473ffffffffffffffffffffffffffffffffffffffff1673ffffffffffffffffffffffffffffffffffffffff1673ffffffffffffffffffffffffffffffffffffffff168152602001600382018054610eb690614261565b80601f0160208091040260200160405190810160405280929190818152602001828054610ee290614261565b8015610f2f5780601f10610f0457610100808354040283529160200191610f2f565b820191906000526020600020905b815481529060010190602001808311610f1257829003601f168201915b50505050508152602001600482016040518060200160405290816000820154815250508152602001600582016040518060200160405290816000820154815250508152505081526020019060010190610ca9565b50505050905090565b600a60149054906101000a900460ff1681565b610fa7612dd0565b73ffffffffffffffffffffffffffffffffffffffff16610fc56117e6565b73ffffffffffffffffffffffffffffffffffffffff161461101b576040517f08c379a000000000000000000000000000000000000000000000000000000000815260040161101290613d3f565b60405180910390fd5b80600660006101000a81548173ffffffffffffffffffffffffffffffffffffffff021916908373ffffffffffffffffffffffffffffffffffffffff16021790555050565b6000806002600085815260200190815260200160002083815481106110ad577f4e487b7100000000000000000000000000000000000000000000000000000000600052603260045260246000fd5b9060005260206000200154600360008681526020019081526020016000208481548110611103577f4e487b7100000000000000000000000000000000000000000000000000000000600052603260045260246000fd5b9060005260206000200154915091509250929050565b6003602052816000526040600020818154811061113557600080fd5b90600052602060002001600091509150505481565b600a60149054906101000a900460ff16611199576040517f08c379a000000000000000000000000000000000000000000000000000000000815260040161119090613d7f565b60405180910390fd5b816111a46005612dc2565b81106111e5576040517f08c379a00000000000000000000000000000000000000000000000000000000081526004016111dc90613d5f565b60405180910390fd5b6001818154811061121f577f4e487b7100000000000000000000000000000000000000000000000000000000600052603260045260246000fd5b906000526020600020906006020160000160129054906101000a900460ff1661127d576040517f08c379a000000000000000000000000000000000000000000000000000000000815260040161127490613d9f565b60405180910390fd5b611285612dd0565b73ffffffffffffffffffffffffffffffffffffffff166112a36117e6565b73ffffffffffffffffffffffffffffffffffffffff16146112f9576040517f08c379a00000000000000000000000000000000000000000000000000000000081526004016112f090613d3f565b60405180910390fd5b8160018481548110611334577f4e487b7100000000000000000000000000000000000000000000000000000000600052603260045260246000fd5b906000526020600020906006020160020160006101000a81548173ffffffffffffffffffffffffffffffffffffffff021916908373ffffffffffffffffffffffffffffffffffffffff1602179055507f6eb54bb1fcbc8b072bc7be4d66f909b2316584cb9b6c49bfdb6504b9246a848183336040516113b4929190613e61565b60405180910390a1505050565b60608060026000848152602001908152602001600020600360008581526020019081526020016000208180548060200260200160405190810160405280929190818152602001828054801561143557602002820191906000526020600020905b815481526020019060010190808311611421575b505050505091508080548060200260200160405190810160405280929190818152602001828054801561148757602002820191906000526020600020905b815481526020019060010190808311611473575b5050505050905091509150915091565b600660149054906101000a900460c01b81565b600860009054906101000a900473ffffffffffffffffffffffffffffffffffffffff1681565b6006601c9054906101000a900463ffffffff1681565b6114ee612dd0565b73ffffffffffffffffffffffffffffffffffffffff1661150c6117e6565b73ffffffffffffffffffffffffffffffffffffffff1614611562576040517f08c379a000000000000000000000000000000000000000000000000000000000815260040161155990613d3f565b60405180910390fd5b600073ffffffffffffffffffffffffffffffffffffffff1660008054906101000a900473ffffffffffffffffffffffffffffffffffffffff1673ffffffffffffffffffffffffffffffffffffffff167f8be0079c531659141344cd1fd0a4f28419497f9722a3daafe3b4186f6b6457e060405160405180910390a360008060006101000a81548173ffffffffffffffffffffffffffffffffffffffff021916908373ffffffffffffffffffffffffffffffffffffffff160217905550565b6002602052816000526040600020818154811061163c57600080fd5b90600052602060002001600091509150505481565b6001818154811061166157600080fd5b90600052602060002090600602016000915090508060000160009054906101000a900460c01b908060000160089054906101000a900460c01b908060000160109054906101000a900460f81b908060000160119054906101000a900460ff16908060000160129054906101000a900460ff16908060010160009054906101000a900473ffffffffffffffffffffffffffffffffffffffff16908060020160009054906101000a900473ffffffffffffffffffffffffffffffffffffffff169080600301805461172f90614261565b80601f016020809104026020016040519081016040528092919081815260200182805461175b90614261565b80156117a85780601f1061177d576101008083540402835291602001916117a8565b820191906000526020600020905b81548152906001019060200180831161178b57829003601f168201915b50505050509080600401604051806020016040529081600082015481525050908060050160405180602001604052908160008201548152505090508a565b60008060009054906101000a900473ffffffffffffffffffffffffffffffffffffffff16905090565b600660009054906101000a900473ffffffffffffffffffffffffffffffffffffffff1681565b606060046000838152602001908152602001600020805480602002602001604051908101604052809291908181526020016000905b8282101561199a57838290600052602060002090600202016040518060600160405290816000820160009054906101000a900460d01b79ffffffffffffffffffffffffffffffffffffffffffffffffffff191679ffffffffffffffffffffffffffffffffffffffffffffffffffff191681526020016000820160069054906101000a900460ff1615151515815260200160018201805461190990614261565b80601f016020809104026020016040519081016040528092919081815260200182805461193590614261565b80156119825780601f1061195757610100808354040283529160200191611982565b820191906000526020600020905b81548152906001019060200180831161196557829003601f168201915b5050505050815250508152602001906001019061186a565b505050509050919050565b6119ad612dd0565b73ffffffffffffffffffffffffffffffffffffffff166119cb6117e6565b73ffffffffffffffffffffffffffffffffffffffff1614611a21576040517f08c379a0000000000000000000000000000000000000000000000000000000008152600401611a1890613d3f565b60405180910390fd5b7f74851bb416411c1b4cb986c13ce9b6a9e973e7948f03fc2e574ca42a6d3724d333604051611a509190613d11565b60405180910390a1600a60149054906101000a900460ff1615600a60146101000a81548160ff021916908315150217905550565b600a60149054906101000a900460ff16611ad3576040517f08c379a0000000000000000000000000000000000000000000000000000000008152600401611aca90613d7f565b60405180910390fd5b82611ade6005612dc2565b8110611b1f576040517f08c379a0000000000000000000000000000000000000000000000000000000008152600401611b1690613d5f565b60405180910390fd5b60018181548110611b59577f4e487b7100000000000000000000000000000000000000000000000000000000600052603260045260246000fd5b906000526020600020906006020160000160129054906101000a900460ff16611bb7576040517f08c379a0000000000000000000000000000000000000000000000000000000008152600401611bae90613d9f565b60405180910390fd5b833373ffffffffffffffffffffffffffffffffffffffff1660018281548110611c09577f4e487b7100000000000000000000000000000000000000000000000000000000600052603260045260246000fd5b906000526020600020906006020160010160009054906101000a900473ffffffffffffffffffffffffffffffffffffffff1673ffffffffffffffffffffffffffffffffffffffff161480611c8f57503373ffffffffffffffffffffffffffffffffffffffff16611c776117e6565b73ffffffffffffffffffffffffffffffffffffffff16145b611cce576040517f08c379a0000000000000000000000000000000000000000000000000000000008152600401611cc590613dbf565b60405180910390fd5b6002600086815260200190815260200160002084908060018154018082558091505060019003906000526020600020016000909190919091505560036000868152602001908152602001600020839080600181540180825580915050600190039060005260206000200160009091909190915055611d9560018681548110611d7f577f4e487b7100000000000000000000000000000000000000000000000000000000600052603260045260246000fd5b9060005260206000209060060201600401612dd8565b7f818366328240e2ab5877d5eed27c1f3803a716f5700034371e2e520c650f574585858533604051611dca9493929190613e1c565b60405180910390a15050505050565b600a60149054906101000a900460ff16611e28576040517f08c379a0000000000000000000000000000000000000000000000000000000008152600401611e1f90613d7f565b60405180910390fd5b82611e336005612dc2565b8110611e74576040517f08c379a0000000000000000000000000000000000000000000000000000000008152600401611e6b90613d5f565b60405180910390fd5b60018181548110611eae577f4e487b7100000000000000000000000000000000000000000000000000000000600052603260045260246000fd5b906000526020600020906006020160000160129054906101000a900460ff16611f0c576040517f08c379a0000000000000000000000000000000000000000000000000000000008152600401611f0390613d9f565b60405180910390fd5b833373ffffffffffffffffffffffffffffffffffffffff1660018281548110611f5e577f4e487b7100000000000000000000000000000000000000000000000000000000600052603260045260246000fd5b906000526020600020906006020160020160009054906101000a900473ffffffffffffffffffffffffffffffffffffffff1673ffffffffffffffffffffffffffffffffffffffff161480611fe457503373ffffffffffffffffffffffffffffffffffffffff16611fcc6117e6565b73ffffffffffffffffffffffffffffffffffffffff16145b612023576040517f08c379a000000000000000000000000000000000000000000000000000000000815260040161201a90613dbf565b60405180910390fd5b6004600086815260200190815260200160002060405180606001604052808679ffffffffffffffffffffffffffffffffffffffffffffffffffff1916815260200160011515815260200185815250908060018154018082558091505060019003906000526020600020906002020160009091909190915060008201518160000160006101000a81548165ffffffffffff021916908360d01c021790555060208201518160000160066101000a81548160ff02191690831515021790555060408201518160010190805190602001906120fc929190612dee565b5050507f6391e278cb294aa6ee810ce0e33f9840acfd7edf28f3701d62764067965c6ba1856121746001888154811061215e577f4e487b7100000000000000000000000000000000000000000000000000000000600052603260045260246000fd5b9060005260206000209060060201600501612dc2565b3360405161218493929190613f5f565b60405180910390a16121df600186815481106121c9577f4e487b7100000000000000000000000000000000000000000000000000000000600052603260045260246000fd5b9060005260206000209060060201600501612dd8565b5050505050565b60058060000154905081565b600760009054906101000a900467ffffffffffffffff1681565b612214612e74565b6001828154811061224e577f4e487b7100000000000000000000000000000000000000000000000000000000600052603260045260246000fd5b9060005260206000209060060201604051806101400160405290816000820160009054906101000a900460c01b77ffffffffffffffffffffffffffffffffffffffffffffffff191677ffffffffffffffffffffffffffffffffffffffffffffffff191681526020016000820160089054906101000a900460c01b77ffffffffffffffffffffffffffffffffffffffffffffffff191677ffffffffffffffffffffffffffffffffffffffffffffffff191681526020016000820160109054906101000a900460f81b7effffffffffffffffffffffffffffffffffffffffffffffffffffffffffffff19167effffffffffffffffffffffffffffffffffffffffffffffffffffffffffffff191681526020016000820160119054906101000a900460ff1660ff1660ff1681526020016000820160129054906101000a900460ff161515151581526020016001820160009054906101000a900473ffffffffffffffffffffffffffffffffffffffff1673ffffffffffffffffffffffffffffffffffffffff1673ffffffffffffffffffffffffffffffffffffffff1681526020016002820160009054906101000a900473ffffffffffffffffffffffffffffffffffffffff1673ffffffffffffffffffffffffffffffffffffffff1673ffffffffffffffffffffffffffffffffffffffff16815260200160038201805461245190614261565b80601f016020809104026020016040519081016040528092919081815260200182805461247d90614261565b80156124ca5780601f1061249f576101008083540402835291602001916124ca565b820191906000526020600020905b8154815290600101906020018083116124ad57829003601f168201915b5050505050815260200160048201604051806020016040529081600082015481525050815260200160058201604051806020016040529081600082015481525050815250509050919050565b600a60009054906101000a900473ffffffffffffffffffffffffffffffffffffffff1681565b3373ffffffffffffffffffffffffffffffffffffffff16600860009054906101000a900473ffffffffffffffffffffffffffffffffffffffff1673ffffffffffffffffffffffffffffffffffffffff1614806125ca57503373ffffffffffffffffffffffffffffffffffffffff166125b26117e6565b73ffffffffffffffffffffffffffffffffffffffff16145b612609576040517f08c379a000000000000000000000000000000000000000000000000000000000815260040161260090613dbf565b60405180910390fd5b600a60149054906101000a900460ff16612658576040517f08c379a000000000000000000000000000000000000000000000000000000000815260040161264f90613d7f565b60405180910390fd5b612660612f5c565b612668612f5c565b60016040518061014001604052808977ffffffffffffffffffffffffffffffffffffffffffffffff191681526020018777ffffffffffffffffffffffffffffffffffffffffffffffff19168152602001867effffffffffffffffffffffffffffffffffffffffffffffffffffffffffffff191681526020018560ff168152602001600115158152602001600073ffffffffffffffffffffffffffffffffffffffff168152602001600073ffffffffffffffffffffffffffffffffffffffff16815260200188815260200184815260200183815250908060018154018082558091505060019003906000526020600020906006020160009091909190915060008201518160000160006101000a81548167ffffffffffffffff021916908360c01c021790555060208201518160000160086101000a81548167ffffffffffffffff021916908360c01c021790555060408201518160000160106101000a81548160ff021916908360f81c021790555060608201518160000160116101000a81548160ff021916908360ff16021790555060808201518160000160126101000a81548160ff02191690831515021790555060a08201518160010160006101000a81548173ffffffffffffffffffffffffffffffffffffffff021916908373ffffffffffffffffffffffffffffffffffffffff16021790555060c08201518160020160006101000a81548173ffffffffffffffffffffffffffffffffffffffff021916908373ffffffffffffffffffffffffffffffffffffffff16021790555060e08201518160030190805190602001906128c1929190612dee565b50610100820151816004016000820151816000015550506101208201518160050160008201518160000155505050507f6eb54bb1fcbc8b072bc7be4d66f909b2316584cb9b6c49bfdb6504b9246a848161291b6005612dc2565b3360405161292a929190613e9d565b60405180910390a161293c6005612dd8565b50505050505050565b6004602052816000526040600020818154811061296157600080fd5b9060005260206000209060020201600091509150508060000160009054906101000a900460d01b908060000160069054906101000a900460ff16908060010180546129ab90614261565b80601f01602080910402602001604051908101604052809291908181526020018280546129d790614261565b8015612a245780601f106129f957610100808354040283529160200191612a24565b820191906000526020600020905b815481529060010190602001808311612a0757829003601f168201915b5050505050905083565b3373ffffffffffffffffffffffffffffffffffffffff16600860009054906101000a900473ffffffffffffffffffffffffffffffffffffffff1673ffffffffffffffffffffffffffffffffffffffff161480612abc57503373ffffffffffffffffffffffffffffffffffffffff16612aa46117e6565b73ffffffffffffffffffffffffffffffffffffffff16145b612afb576040517f08c379a0000000000000000000000000000000000000000000000000000000008152600401612af290613dbf565b60405180910390fd5b7f6eb54bb1fcbc8b072bc7be4d66f909b2316584cb9b6c49bfdb6504b9246a84818133604051612b2c929190613ed9565b60405180910390a160018181548110612b6e577f4e487b7100000000000000000000000000000000000000000000000000000000600052603260045260246000fd5b906000526020600020906006020160000160129054906101000a900460ff161560018281548110612bc8577f4e487b7100000000000000000000000000000000000000000000000000000000600052603260045260246000fd5b906000526020600020906006020160000160126101000a81548160ff02191690831515021790555050565b600960009054906101000a900473ffffffffffffffffffffffffffffffffffffffff1681565b612c21612dd0565b73ffffffffffffffffffffffffffffffffffffffff16612c3f6117e6565b73ffffffffffffffffffffffffffffffffffffffff1614612c95576040517f08c379a0000000000000000000000000000000000000000000000000000000008152600401612c8c90613d3f565b60405180910390fd5b600073ffffffffffffffffffffffffffffffffffffffff168173ffffffffffffffffffffffffffffffffffffffff161415612d05576040517f08c379a0000000000000000000000000000000000000000000000000000000008152600401612cfc90613cf1565b60405180910390fd5b8073ffffffffffffffffffffffffffffffffffffffff1660008054906101000a900473ffffffffffffffffffffffffffffffffffffffff1673ffffffffffffffffffffffffffffffffffffffff167f8be0079c531659141344cd1fd0a4f28419497f9722a3daafe3b4186f6b6457e060405160405180910390a3806000806101000a81548173ffffffffffffffffffffffffffffffffffffffff021916908373ffffffffffffffffffffffffffffffffffffffff16021790555050565b600081600001549050919050565b600033905090565b6001816000016000828254019250508190555050565b828054612dfa90614261565b90600052602060002090601f016020900481019282612e1c5760008555612e63565b82601f10612e3557805160ff1916838001178555612e63565b82800160010185558215612e63579182015b82811115612e62578251825591602001919060010190612e47565b5b509050612e709190612f6f565b5090565b604051806101400160405280600077ffffffffffffffffffffffffffffffffffffffffffffffff19168152602001600077ffffffffffffffffffffffffffffffffffffffffffffffff1916815260200160007effffffffffffffffffffffffffffffffffffffffffffffffffffffffffffff19168152602001600060ff168152602001600015158152602001600073ffffffffffffffffffffffffffffffffffffffff168152602001600073ffffffffffffffffffffffffffffffffffffffff16815260200160608152602001612f49612f5c565b8152602001612f56612f5c565b81525090565b6040518060200160405280600081525090565b5b80821115612f88576000816000905550600101612f70565b5090565b6000612f9f612f9a84614010565b613fdf565b905082815260208101848484011115612fb757600080fd5b612fc284828561421f565b509392505050565b600081359050612fd981614302565b92915050565b600081359050612fee81614319565b92915050565b60008135905061300381614330565b92915050565b60008135905061301881614347565b92915050565b60008135905061302d8161435e565b92915050565b600082601f83011261304457600080fd5b8135613054848260208601612f8c565b91505092915050565b60008135905061306c81614375565b92915050565b6000813590506130818161438c565b92915050565b60006020828403121561309957600080fd5b60006130a784828501612fca565b91505092915050565b600080600080600060a086880312156130c857600080fd5b60006130d68882890161301e565b955050602086013567ffffffffffffffff8111156130f357600080fd5b6130ff88828901613033565b94505060406131108882890161301e565b935050606061312188828901612fdf565b925050608061313288828901613072565b9150509295509295909350565b60006020828403121561315157600080fd5b600061315f8482850161305d565b91505092915050565b6000806040838503121561317b57600080fd5b60006131898582860161305d565b925050602061319a85828601612fca565b9150509250929050565b6000806000606084860312156131b957600080fd5b60006131c78682870161305d565b93505060206131d886828701612ff4565b92505060406131e986828701612ff4565b9150509250925092565b60008060006060848603121561320857600080fd5b60006132168682870161305d565b935050602061322786828701613009565b925050604084013567ffffffffffffffff81111561324457600080fd5b61325086828701613033565b9150509250925092565b6000806040838503121561326d57600080fd5b600061327b8582860161305d565b925050602061328c8582860161305d565b9150509250929050565b60006132a28383613478565b60208301905092915050565b60006132ba83836138a2565b905092915050565b60006132ce83836138f2565b905092915050565b6132df81614118565b82525050565b6132ee81614118565b82525050565b60006132ff82614070565b61330981856140c3565b935061331483614040565b8060005b8381101561334557815161332c8882613296565b97506133378361409c565b925050600181019050613318565b5085935050505092915050565b600061335d8261407b565b61336781856140d4565b93508360208202850161337985614050565b8060005b858110156133b5578484038952815161339685826132ae565b94506133a1836140a9565b925060208a0199505060018101905061337d565b50829750879550505050505092915050565b60006133d282614086565b6133dc81856140e5565b9350836020820285016133ee85614060565b8060005b8581101561342a578484038952815161340b85826132c2565b9450613416836140b6565b925060208a019950506001810190506133f2565b50829750879550505050505092915050565b6134458161412a565b82525050565b6134548161412a565b82525050565b61346381614136565b82525050565b61347281614136565b82525050565b61348181614162565b82525050565b61349081614162565b82525050565b61349f8161416c565b82525050565b6134ae8161416c565b82525050565b6134bd81614198565b82525050565b6134cc81614198565b82525050565b60006134dd82614091565b6134e781856140f6565b93506134f781856020860161422e565b613500816142f1565b840191505092915050565b600061351682614091565b6135208185614107565b935061353081856020860161422e565b613539816142f1565b840191505092915050565b6000613551600a83614107565b91507f496f74206f6e2f6f6666000000000000000000000000000000000000000000006000830152602082019050919050565b6000613591601583614107565b91507f42726964676520416464726573732075706461746500000000000000000000006000830152602082019050919050565b60006135d1602683614107565b91507f4f776e61626c653a206e6577206f776e657220697320746865207a65726f206160008301527f64647265737300000000000000000000000000000000000000000000000000006020830152604082019050919050565b6000613637600f83614107565b91507f436f6e7472616374206f6e2f6f666600000000000000000000000000000000006000830152602082019050919050565b6000613677600b83614107565b91507f4e657720736572766963650000000000000000000000000000000000000000006000830152602082019050919050565b60006136b7602083614107565b91507f4f776e61626c653a2063616c6c6572206973206e6f7420746865206f776e65726000830152602082019050919050565b60006136f7601183614107565b91507f53657276696365206e6f742065786973740000000000000000000000000000006000830152602082019050919050565b6000613737600e83614107565b91507f53657276696365206f6e2f6f66660000000000000000000000000000000000006000830152602082019050919050565b6000613777601183614107565b91507f436f6e7472616374206f6666206c696e650000000000000000000000000000006000830152602082019050919050565b60006137b7601083614107565b91507f53657276696365206f6666206c696e65000000000000000000000000000000006000830152602082019050919050565b60006137f7600d83614107565b91507f4163636573732064656e696564000000000000000000000000000000000000006000830152602082019050919050565b6000613837600983614107565b91507f496f7420616464656400000000000000000000000000000000000000000000006000830152602082019050919050565b6020820160008201516138806000850182613aa6565b50505050565b60208201600082015161389c6000850182613aa6565b50505050565b60006060830160008301516138ba6000860182613496565b5060208301516138cd602086018261343c565b50604083015184820360408601526138e582826134d2565b9150508091505092915050565b60006101408301600083015161390b60008601826134b4565b50602083015161391e60208601826134b4565b506040830151613931604086018261345a565b5060608301516139446060860182613ae2565b506080830151613957608086018261343c565b5060a083015161396a60a08601826132d6565b5060c083015161397d60c08601826132d6565b5060e083015184820360e086015261399582826134d2565b9150506101008301516139ac61010086018261386a565b506101208301516139c161012086018261386a565b508091505092915050565b6000610140830160008301516139e560008601826134b4565b5060208301516139f860208601826134b4565b506040830151613a0b604086018261345a565b506060830151613a1e6060860182613ae2565b506080830151613a31608086018261343c565b5060a0830151613a4460a08601826132d6565b5060c0830151613a5760c08601826132d6565b5060e083015184820360e0860152613a6f82826134d2565b915050610100830151613a8661010086018261386a565b50610120830151613a9b61012086018261386a565b508091505092915050565b613aaf816141e4565b82525050565b613abe816141e4565b82525050565b613acd816141ee565b82525050565b613adc816141fe565b82525050565b613aeb81614212565b82525050565b613afa81614212565b82525050565b6000602082019050613b1560008301846132e5565b92915050565b60006040820190508181036000830152613b3581856132f4565b90508181036020830152613b4981846132f4565b90509392505050565b60006020820190508181036000830152613b6c8184613352565b905092915050565b60006020820190508181036000830152613b8e81846133c7565b905092915050565b6000602082019050613bab600083018461344b565b92915050565b6000602082019050613bc66000830184613487565b92915050565b6000604082019050613be16000830185613487565b613bee6020830184613487565b9392505050565b6000606082019050613c0a60008301866134a5565b613c17602083018561344b565b8181036040830152613c29818461350b565b9050949350505050565b6000602082019050613c4860008301846134c3565b92915050565b600061014082019050613c64600083018d6134c3565b613c71602083018c6134c3565b613c7e604083018b613469565b613c8b606083018a613af1565b613c98608083018961344b565b613ca560a08301886132e5565b613cb260c08301876132e5565b81810360e0830152613cc4818661350b565b9050613cd4610100830185613886565b613ce2610120830184613886565b9b9a5050505050505050505050565b60006020820190508181036000830152613d0a816135c4565b9050919050565b60006040820190508181036000830152613d2a8161362a565b9050613d3960208301846132e5565b92915050565b60006020820190508181036000830152613d58816136aa565b9050919050565b60006020820190508181036000830152613d78816136ea565b9050919050565b60006020820190508181036000830152613d988161376a565b9050919050565b60006020820190508181036000830152613db8816137aa565b9050919050565b60006020820190508181036000830152613dd8816137ea565b9050919050565b60006020820190508181036000830152613df981846139cc565b905092915050565b6000602082019050613e166000830184613ab5565b92915050565b6000608082019050613e316000830187613ab5565b613e3e6020830186613487565b613e4b6040830185613487565b613e5860608301846132e5565b95945050505050565b6000606082019050613e766000830185613ab5565b8181036020830152613e8781613584565b9050613e9660408301846132e5565b9392505050565b6000606082019050613eb26000830185613ab5565b8181036020830152613ec38161366a565b9050613ed260408301846132e5565b9392505050565b6000606082019050613eee6000830185613ab5565b8181036020830152613eff8161372a565b9050613f0e60408301846132e5565b9392505050565b6000608082019050613f2a6000830186613ab5565b613f376020830185613ab5565b8181036040830152613f4881613544565b9050613f5760608301846132e5565b949350505050565b6000608082019050613f746000830186613ab5565b613f816020830185613ab5565b8181036040830152613f928161382a565b9050613fa160608301846132e5565b949350505050565b6000602082019050613fbe6000830184613ac4565b92915050565b6000602082019050613fd96000830184613ad3565b92915050565b6000604051905081810181811067ffffffffffffffff82111715614006576140056142c2565b5b8060405250919050565b600067ffffffffffffffff82111561402b5761402a6142c2565b5b601f19601f8301169050602081019050919050565b6000819050602082019050919050565b6000819050602082019050919050565b6000819050602082019050919050565b600081519050919050565b600081519050919050565b600081519050919050565b600081519050919050565b6000602082019050919050565b6000602082019050919050565b6000602082019050919050565b600082825260208201905092915050565b600082825260208201905092915050565b600082825260208201905092915050565b600082825260208201905092915050565b600082825260208201905092915050565b6000614123826141c4565b9050919050565b60008115159050919050565b60007fff0000000000000000000000000000000000000000000000000000000000000082169050919050565b6000819050919050565b60007fffffffffffff000000000000000000000000000000000000000000000000000082169050919050565b60007fffffffffffffffff00000000000000000000000000000000000000000000000082169050919050565b600073ffffffffffffffffffffffffffffffffffffffff82169050919050565b6000819050919050565b600063ffffffff82169050919050565b600067ffffffffffffffff82169050919050565b600060ff82169050919050565b82818337600083830152505050565b60005b8381101561424c578082015181840152602081019050614231565b8381111561425b576000848401525b50505050565b6000600282049050600182168061427957607f821691505b6020821081141561428d5761428c614293565b5b50919050565b7f4e487b7100000000000000000000000000000000000000000000000000000000600052602260045260246000fd5b7f4e487b7100000000000000000000000000000000000000000000000000000000600052604160045260246000fd5b6000601f19601f8301169050919050565b61430b81614118565b811461431657600080fd5b50565b61432281614136565b811461432d57600080fd5b50565b61433981614162565b811461434457600080fd5b50565b6143508161416c565b811461435b57600080fd5b50565b61436781614198565b811461437257600080fd5b50565b61437e816141e4565b811461438957600080fd5b50565b61439581614212565b81146143a057600080fd5b5056fea2646970667358221220d33235dccd1cbd4765dffe3cd08167920d04a3407e65705d55fbb841fdc141e764736f6c63430008000033",
  "immutableReferences": {},
  "source": "// SPDX-License-Identifier: MIT\r\npragma solidity 0.8.0;\r\n\r\nimport \"../node_modules/@openzeppelin/contracts/utils/Counters.sol\";\r\nimport \"../node_modules/@openzeppelin/contracts/access/Ownable.sol\";\r\n\r\ncontract ServiceContract is Ownable {\r\n    using Counters for Counters.Counter;\r\n    \r\n    /**\r\n     * @dev Structure of Service\r\n     * @notice Feature_V2 \r\n     */\r\n    struct Service {\r\n        bytes8 version;\r\n        bytes8 measureType;\r\n        bytes1 timeCode;\r\n        uint8 nbTime;\r\n        bool isActive;\r\n        address bridgeAddress;\r\n        address techMasterAddress;\r\n        string description;\r\n\r\n        Counters.Counter measureIdCounter;\r\n        Counters.Counter iotIdCounter;     \r\n    }\r\n    /**\r\n     * @dev Structure of Iot\r\n     * @notice Feature_V2 \r\n     */\r\n    struct Iot {\r\n        bytes6 mac;     \r\n        bool isActive;\r\n        string description;\r\n    }\r\n\r\n    modifier isContractActive() {\r\n        require(isActive, \"Contract off line\");\r\n        _;\r\n    }\r\n\r\n    modifier isServiceActive(uint _serviceId) {\r\n        require(_serviceId < _serviceIdCounter.current(), \"Service not exist\"); \r\n        require(_services[_serviceId].isActive, \"Service off line\"); \r\n        _;\r\n    }    \r\n\r\n    modifier onlyCustomer() {\r\n        require (customerAddress == msg.sender || owner() ==  msg.sender, \"Access denied\");\r\n        _;\r\n    }\r\n\r\n    modifier onlyBridge(uint _serviceId) {\r\n        require (_services[_serviceId].bridgeAddress == msg.sender || owner() ==  msg.sender, \"Access denied\");\r\n        _;\r\n    }\r\n\r\n    modifier onlyTechMaster(uint _serviceId) {\r\n        require (_services[_serviceId].techMasterAddress == msg.sender || owner() ==  msg.sender, \"Access denied\");\r\n        _;\r\n    }    \r\n\r\n    Service[] public _services;\r\n    mapping(uint => bytes32[]) public _serviceHeaderMeasures;\r\n    mapping(uint => bytes32[]) public _serviceBodyMeasures;\r\n    mapping(uint => Iot[]) public _serviceMacIOT;\r\n    Counters.Counter public _serviceIdCounter;\r\n\r\n    event ServiceUpdate(uint _serviceId, string _message, address _author); \r\n    event MeasureReceive(uint _serviceId, bytes32 _header, bytes32 _body, address _author); \r\n    event ServiceElementUpdate(uint _serviceId, uint _id, string _message, address _author); \r\n    event ContractUpdate(string _message, address _author);  \r\n\r\n    address public ruleContractAddress;    \r\n\r\n    bytes8 public version;\r\n    uint32 public clientId;\r\n    uint64 public prevContractDate;\r\n    uint64 public nextContractDate;\r\n    address public customerAddress;\r\n    address public prevContract;\r\n    address public nextContract;\r\n    bool public isActive;\r\n\r\n    constructor (bytes8 _version, uint32 _clientId, address _customerAddress, address _prevContract, uint64 _prevContractDate) {\r\n        version = _version;\r\n        clientId = _clientId;\r\n        prevContractDate = _prevContractDate;\r\n        nextContractDate = 0;\r\n        customerAddress = _customerAddress;\r\n        prevContract = _prevContract;\r\n        nextContract = address(0);\r\n        isActive = true;\r\n    }\r\n\r\n    /**\r\n     * @dev toggle a Contract activation or deactivation\r\n     */\r\n    function toggleContract()\r\n        onlyOwner() external {\r\n            emit ContractUpdate(\"Contract on/off\", msg.sender);\r\n            isActive = !isActive;\r\n    }  \r\n\r\n    /**\r\n     * @dev toggle a Contract activation or deactivation\r\n     */\r\n    function setServiceContactAddress(address _ruleContractAddress)\r\n        onlyOwner() external {\r\n            ruleContractAddress = _ruleContractAddress;\r\n    }  \r\n\r\n    // SERVICE PART\r\n\r\n     /**\r\n     * @dev add a Service\r\n     * @param _version bytes8 version of service\r\n     * @param _description string description for the dApps interface\r\n     * @param _measureType bytes8 type of measure for the dApps interface\r\n     * @param _timeCode bytes1 time code for the dApps interface\r\n     * @param _nbTime uint8 number of times for the dApps interface\r\n     */\r\n    function addService(\r\n        bytes8 _version,   \r\n        string memory _description,\r\n        bytes8 _measureType,          \r\n        bytes1 _timeCode,\r\n        uint8 _nbTime) \r\n        onlyCustomer() isContractActive() external{\r\n      \r\n        Counters.Counter memory measureIdCounter;       \r\n        Counters.Counter memory IotIdCounter;    \r\n\r\n        _services.push(Service(\r\n        _version, \r\n        _measureType,  \r\n        _timeCode,    \r\n        _nbTime,   \r\n        true,                     \r\n        address(0),\r\n        address(0),        \r\n        _description,                      \r\n        measureIdCounter,\r\n        IotIdCounter));\r\n\r\n        emit ServiceUpdate(_serviceIdCounter.current(), \"New service\", msg.sender);\r\n\r\n        _serviceIdCounter.increment();\r\n    }  \r\n\r\n    /**\r\n     * @dev get all Services\r\n     * @return an array of all the services\r\n     */\r\n    function getAllServices() \r\n        external view \r\n        returns(Service[] memory){    \r\n\r\n        return (_services);\r\n    }  \r\n\r\n    /**\r\n     * @dev get a specific Service\r\n     * @param _serviceId index of service\r\n     * @return a specific service\r\n     */\r\n    function getOneService(\r\n        uint _serviceId) \r\n        external view returns(Service memory){   \r\n\r\n        return (_services[_serviceId]);\r\n    }\r\n\r\n    /**\r\n     * @dev toggle a Service activation or deactivation\r\n     * @param _serviceId index of service\r\n     */\r\n    function toggleService(\r\n        uint _serviceId)\r\n        onlyCustomer() external {\r\n\r\n        emit ServiceUpdate(_serviceId, \"Service on/off\", msg.sender);\r\n\r\n        _services[_serviceId].isActive = !_services[_serviceId].isActive;\r\n    }\r\n\r\n    /**\r\n     * @dev set a TechMasterAddress\r\n     * @param _serviceId index of service \r\n     * @param _techMasterAddress techMaster's address\r\n     */\r\n    function setTechMasterAddress(\r\n        uint _serviceId,\r\n        address _techMasterAddress)\r\n        isContractActive() isServiceActive(_serviceId) onlyOwner() external {  \r\n        \r\n        _services[_serviceId].techMasterAddress = _techMasterAddress;\r\n\r\n        emit ServiceUpdate(_serviceId, \"Bridge Address update\", msg.sender);\r\n    }     \r\n\r\n    /**\r\n     * @dev set a BridgeAdress\r\n     * @param _serviceId index of service\r\n     * @param _bridgeAddress bridge's address\r\n     */\r\n    function setBridgeAddress(\r\n        uint _serviceId,\r\n        address _bridgeAddress)\r\n        isContractActive() isServiceActive(_serviceId) onlyTechMaster(_serviceId) external {   \r\n        \r\n        _services[_serviceId].bridgeAddress = _bridgeAddress;\r\n\r\n        emit ServiceUpdate(_serviceId, \"Bridge Address update\", msg.sender);\r\n    }     \r\n\r\n    // MEASURE PART\r\n\r\n    /**\r\n     * @dev add a Measure\r\n     * @param _serviceId index of service \r\n     * @param _measureHeader header of the measure\r\n     * @param _measurebody body of the measure\r\n     */\r\n    function addMeasure(\r\n        uint _serviceId,\r\n        bytes32 _measureHeader,\r\n        bytes32 _measurebody) \r\n        isContractActive() isServiceActive(_serviceId) onlyBridge(_serviceId) external {    \r\n        \r\n        _serviceHeaderMeasures[_serviceId].push(_measureHeader);\r\n        _serviceBodyMeasures[_serviceId].push(_measurebody);\r\n        \r\n        _services[_serviceId].measureIdCounter.increment();\r\n\r\n        emit MeasureReceive(_serviceId, _measureHeader, _measurebody, msg.sender);\r\n    }\r\n\r\n    /**\r\n     * @dev get all Measures\r\n     * @param _serviceId index of service \r\n     * @return an array of all the services\r\n     */\r\n    function getAllMeasures(\r\n        uint _serviceId) \r\n        external view \r\n        returns(\r\n            bytes32[] memory,\r\n            bytes32[] memory){\r\n              \r\n        return (_serviceHeaderMeasures[_serviceId], _serviceBodyMeasures[_serviceId]);\r\n    }\r\n\r\n    /**\r\n     * @dev get a specific measure by id\r\n     * @param _serviceId index of service \r\n     * @param _measureId index of service \r\n     * @return the specific measure header and body\r\n     */    \r\n    function getMeasuresById(\r\n        uint _serviceId,\r\n        uint _measureId) \r\n        external view returns(\r\n            bytes32,\r\n            bytes32){\r\n              \r\n        return (_serviceHeaderMeasures[_serviceId][_measureId], _serviceBodyMeasures[_serviceId][_measureId]);\r\n    }  \r\n\r\n    //SERVICE IOT\r\n\r\n    /**\r\n     * @dev add a sensor to the list\r\n     * @param _serviceId index of service\r\n     * @param _macAddress sensor's mac address\r\n     * @param _description sensor's description\r\n     */      \r\n    function addIot(\r\n        uint _serviceId,\r\n        bytes6 _macAddress,\r\n        string memory _description) \r\n        isContractActive() isServiceActive(_serviceId) onlyTechMaster(_serviceId) external {  \r\n            _serviceMacIOT[_serviceId].push(Iot(\r\n                _macAddress,         \r\n                true,\r\n                _description\r\n            ));\r\n\r\n        emit ServiceElementUpdate(_serviceId, _services[_serviceId].iotIdCounter.current(), \"Iot added\", msg.sender); \r\n\r\n        _services[_serviceId].iotIdCounter.increment();   \r\n    }\r\n\r\n    /**\r\n     * @dev get a specific sensor\r\n     * @param _serviceId index of service\r\n     * @return get a specific sensor by Id\r\n     */ \r\n    function getIot(\r\n        uint _serviceId) \r\n        external view \r\n        returns(Iot[] memory) {\r\n              \r\n        return (_serviceMacIOT[_serviceId]);\r\n    }\r\n\r\n    /**\r\n     * @dev toggle a sensor activation or deactivation\r\n     * @param _serviceId index of service\r\n     * @param _iotId index of sensor\r\n     */     \r\n    function toggleIOT(\r\n        uint _serviceId,\r\n        uint _iotId) \r\n        isContractActive() isServiceActive(_serviceId) onlyTechMaster(_serviceId) external {  \r\n        emit ServiceElementUpdate(_serviceId, _iotId, \"Iot on/off\", msg.sender);\r\n\r\n        _serviceMacIOT[_serviceId][_iotId].isActive = !_serviceMacIOT[_serviceId][_iotId].isActive;\r\n    }\r\n\r\n}\r\n",
  "sourcePath": "C:/Users/danie/Desktop/Solidity/Projet final/eco-capt/contracts/ServiceContract.sol",
  "compiler": {
    "name": "solc",
    "version": "0.8.0+commit.c7dfd78e.Emscripten.clang"
  },
  "schemaVersion": "3.3.4",
  "updatedAt": "2021-04-18T21:08:05.308Z",
  "networkType": "ethereum",
  "devdoc": {
    "kind": "dev",
    "methods": {
      "addIot(uint256,bytes6,string)": {
        "details": "add a sensor to the list",
        "params": {
          "_description": "sensor's description",
          "_macAddress": "sensor's mac address",
          "_serviceId": "index of service"
        }
      },
      "addMeasure(uint256,bytes32,bytes32)": {
        "details": "add a Measure",
        "params": {
          "_measureHeader": "header of the measure",
          "_measurebody": "body of the measure",
          "_serviceId": "index of service "
        }
      },
      "addService(bytes8,string,bytes8,bytes1,uint8)": {
        "details": "add a Service",
        "params": {
          "_description": "string description for the dApps interface",
          "_measureType": "bytes8 type of measure for the dApps interface",
          "_nbTime": "uint8 number of times for the dApps interface",
          "_timeCode": "bytes1 time code for the dApps interface",
          "_version": "bytes8 version of service"
        }
      },
      "getAllMeasures(uint256)": {
        "details": "get all Measures",
        "params": {
          "_serviceId": "index of service "
        },
        "returns": {
          "_0": "an array of all the services"
        }
      },
      "getAllServices()": {
        "details": "get all Services",
        "returns": {
          "_0": "an array of all the services"
        }
      },
      "getIot(uint256)": {
        "details": "get a specific sensor",
        "params": {
          "_serviceId": "index of service"
        },
        "returns": {
          "_0": "get a specific sensor by Id"
        }
      },
      "getMeasuresById(uint256,uint256)": {
        "details": "get a specific measure by id",
        "params": {
          "_measureId": "index of service ",
          "_serviceId": "index of service "
        },
        "returns": {
          "_0": "the specific measure header and body"
        }
      },
      "getOneService(uint256)": {
        "details": "get a specific Service",
        "params": {
          "_serviceId": "index of service"
        },
        "returns": {
          "_0": "a specific service"
        }
      },
      "owner()": {
        "details": "Returns the address of the current owner."
      },
      "renounceOwnership()": {
        "details": "Leaves the contract without owner. It will not be possible to call `onlyOwner` functions anymore. Can only be called by the current owner. NOTE: Renouncing ownership will leave the contract without an owner, thereby removing any functionality that is only available to the owner."
      },
      "setBridgeAddress(uint256,address)": {
        "details": "set a BridgeAdress",
        "params": {
          "_bridgeAddress": "bridge's address",
          "_serviceId": "index of service"
        }
      },
      "setServiceContactAddress(address)": {
        "details": "toggle a Contract activation or deactivation"
      },
      "setTechMasterAddress(uint256,address)": {
        "details": "set a TechMasterAddress",
        "params": {
          "_serviceId": "index of service ",
          "_techMasterAddress": "techMaster's address"
        }
      },
      "toggleContract()": {
        "details": "toggle a Contract activation or deactivation"
      },
      "toggleIOT(uint256,uint256)": {
        "details": "toggle a sensor activation or deactivation",
        "params": {
          "_iotId": "index of sensor",
          "_serviceId": "index of service"
        }
      },
      "toggleService(uint256)": {
        "details": "toggle a Service activation or deactivation",
        "params": {
          "_serviceId": "index of service"
        }
      },
      "transferOwnership(address)": {
        "details": "Transfers ownership of the contract to a new account (`newOwner`). Can only be called by the current owner."
      }
    },
    "version": 1
  },
  "userdoc": {
    "kind": "user",
    "methods": {},
    "version": 1
  }
}